{
  "contractName": "BalancerProxy",
  "abi": [
    {
      "anonymous": false,
      "inputs": [
        {
          "indexed": false,
          "internalType": "bool",
          "name": "addToken",
          "type": "bool"
        }
      ],
      "name": "ApplyAddToken",
      "type": "event"
    },
    {
      "anonymous": false,
      "inputs": [
        {
          "indexed": true,
          "internalType": "address",
          "name": "token",
          "type": "address"
        },
        {
          "indexed": false,
          "internalType": "uint256",
          "name": "balance",
          "type": "uint256"
        },
        {
          "indexed": false,
          "internalType": "uint256",
          "name": "denormalizedWeight",
          "type": "uint256"
        }
      ],
      "name": "CommitAddToken",
      "type": "event"
    },
    {
      "anonymous": false,
      "inputs": [
        {
          "indexed": false,
          "internalType": "uint256",
          "name": "poolAmountIn",
          "type": "uint256"
        },
        {
          "indexed": false,
          "internalType": "uint256[]",
          "name": "minAmountsOut",
          "type": "uint256[]"
        }
      ],
      "name": "ExitPool",
      "type": "event"
    },
    {
      "anonymous": false,
      "inputs": [
        {
          "indexed": false,
          "internalType": "uint256",
          "name": "poolAmountOut",
          "type": "uint256"
        },
        {
          "indexed": false,
          "internalType": "uint256[]",
          "name": "maxAmountsIn",
          "type": "uint256[]"
        }
      ],
      "name": "JoinPool",
      "type": "event"
    },
    {
      "anonymous": false,
      "inputs": [
        {
          "indexed": true,
          "internalType": "address",
          "name": "token",
          "type": "address"
        }
      ],
      "name": "RemoveToken",
      "type": "event"
    },
    {
      "anonymous": false,
      "inputs": [
        {
          "indexed": false,
          "internalType": "bool",
          "name": "publicSwap",
          "type": "bool"
        }
      ],
      "name": "SetPublicSwap",
      "type": "event"
    },
    {
      "anonymous": false,
      "inputs": [
        {
          "indexed": false,
          "internalType": "uint256",
          "name": "swapFee",
          "type": "uint256"
        }
      ],
      "name": "SetSwapFee",
      "type": "event"
    },
    {
      "anonymous": false,
      "inputs": [
        {
          "indexed": true,
          "internalType": "address",
          "name": "token",
          "type": "address"
        },
        {
          "indexed": false,
          "internalType": "uint256",
          "name": "newWeight",
          "type": "uint256"
        }
      ],
      "name": "UpdateWeight",
      "type": "event"
    },
    {
      "anonymous": false,
      "inputs": [
        {
          "indexed": false,
          "internalType": "uint256[]",
          "name": "newWeights",
          "type": "uint256[]"
        },
        {
          "indexed": false,
          "internalType": "uint256",
          "name": "startBlock",
          "type": "uint256"
        },
        {
          "indexed": false,
          "internalType": "uint256",
          "name": "endBlock",
          "type": "uint256"
        }
      ],
      "name": "UpdateWeightsGradually",
      "type": "event"
    },
    {
      "constant": true,
      "inputs": [],
      "name": "avatar",
      "outputs": [
        {
          "internalType": "contract Avatar",
          "name": "",
          "type": "address"
        }
      ],
      "payable": false,
      "stateMutability": "view",
      "type": "function"
    },
    {
      "constant": true,
      "inputs": [],
      "name": "bpool",
      "outputs": [
        {
          "internalType": "contract IBPool",
          "name": "",
          "type": "address"
        }
      ],
      "payable": false,
      "stateMutability": "view",
      "type": "function"
    },
    {
      "constant": true,
      "inputs": [],
      "name": "crpool",
      "outputs": [
        {
          "internalType": "contract IConfigurableRightsPool",
          "name": "",
          "type": "address"
        }
      ],
      "payable": false,
      "stateMutability": "view",
      "type": "function"
    },
    {
      "constant": true,
      "inputs": [],
      "name": "initialized",
      "outputs": [
        {
          "internalType": "bool",
          "name": "",
          "type": "bool"
        }
      ],
      "payable": false,
      "stateMutability": "view",
      "type": "function"
    },
    {
      "constant": false,
      "inputs": [
        {
          "internalType": "contract Avatar",
          "name": "_avatar",
          "type": "address"
        },
        {
          "internalType": "contract IConfigurableRightsPool",
          "name": "_crpool",
          "type": "address"
        },
        {
          "internalType": "contract IBPool",
          "name": "_bpool",
          "type": "address"
        }
      ],
      "name": "initialize",
      "outputs": [],
      "payable": false,
      "stateMutability": "nonpayable",
      "type": "function"
    },
    {
      "constant": false,
      "inputs": [
        {
          "internalType": "bool",
          "name": "publicSwap",
          "type": "bool"
        }
      ],
      "name": "setPublicSwap",
      "outputs": [],
      "payable": false,
      "stateMutability": "nonpayable",
      "type": "function"
    },
    {
      "constant": false,
      "inputs": [
        {
          "internalType": "uint256",
          "name": "swapFee",
          "type": "uint256"
        }
      ],
      "name": "setSwapFee",
      "outputs": [],
      "payable": false,
      "stateMutability": "nonpayable",
      "type": "function"
    },
    {
      "constant": false,
      "inputs": [
        {
          "internalType": "address",
          "name": "token",
          "type": "address"
        },
        {
          "internalType": "uint256",
          "name": "balance",
          "type": "uint256"
        },
        {
          "internalType": "uint256",
          "name": "denormalizedWeight",
          "type": "uint256"
        }
      ],
      "name": "commitAddToken",
      "outputs": [],
      "payable": false,
      "stateMutability": "nonpayable",
      "type": "function"
    },
    {
      "constant": false,
      "inputs": [],
      "name": "applyAddToken",
      "outputs": [],
      "payable": false,
      "stateMutability": "nonpayable",
      "type": "function"
    },
    {
      "constant": false,
      "inputs": [
        {
          "internalType": "address",
          "name": "token",
          "type": "address"
        }
      ],
      "name": "removeToken",
      "outputs": [],
      "payable": false,
      "stateMutability": "nonpayable",
      "type": "function"
    },
    {
      "constant": false,
      "inputs": [
        {
          "internalType": "address",
          "name": "token",
          "type": "address"
        },
        {
          "internalType": "uint256",
          "name": "newWeight",
          "type": "uint256"
        }
      ],
      "name": "updateWeight",
      "outputs": [],
      "payable": false,
      "stateMutability": "nonpayable",
      "type": "function"
    },
    {
      "constant": false,
      "inputs": [
        {
          "internalType": "uint256[]",
          "name": "newWeights",
          "type": "uint256[]"
        },
        {
          "internalType": "uint256",
          "name": "startBlock",
          "type": "uint256"
        },
        {
          "internalType": "uint256",
          "name": "endBlock",
          "type": "uint256"
        }
      ],
      "name": "updateWeightsGradually",
      "outputs": [],
      "payable": false,
      "stateMutability": "nonpayable",
      "type": "function"
    },
    {
      "constant": false,
      "inputs": [
        {
          "internalType": "uint256",
          "name": "poolAmountOut",
          "type": "uint256"
        },
        {
          "internalType": "uint256[]",
          "name": "maxAmountsIn",
          "type": "uint256[]"
        }
      ],
      "name": "joinPool",
      "outputs": [],
      "payable": false,
      "stateMutability": "nonpayable",
      "type": "function"
    },
    {
      "constant": false,
      "inputs": [
        {
          "internalType": "uint256",
          "name": "poolAmountIn",
          "type": "uint256"
        },
        {
          "internalType": "uint256[]",
          "name": "minAmountsOut",
          "type": "uint256[]"
        }
      ],
      "name": "exitPool",
      "outputs": [],
      "payable": false,
      "stateMutability": "nonpayable",
      "type": "function"
    }
  ],
  "bytecode": "0x608060405234801561001057600080fd5b506135c6806100206000396000f3fe608060405234801561001057600080fd5b50600436106100ea5760003560e01c80635aef7de61161008c5780639776e94b116100665780639776e94b146102be578063b02f0b73146102ea578063c0c53b8b1461035f578063c275d81b14610397576100ea565b80635aef7de6146102885780635d3d4158146102905780635fa7b58414610298576100ea565b806334e19907116100c857806334e19907146101a557806349b59552146101c25780634c20d209146101e15780634f69c0d414610213576100ea565b8063158ef93e146100ef57806323a2f46c1461010b578063246bc19b1461012f575b600080fd5b6100f761039f565b604080519115158252519081900360200190f35b6101136103a8565b604080516001600160a01b039092168252519081900360200190f35b6101a36004803603606081101561014557600080fd5b810190602081018135600160201b81111561015f57600080fd5b82018360208201111561017157600080fd5b803590602001918460208302840111600160201b8311171561019257600080fd5b9193509150803590602001356103b7565b005b6101a3600480360360208110156101bb57600080fd5b503561048c565b6101a3600480360360208110156101d857600080fd5b50351515610527565b6101a3600480360360608110156101f757600080fd5b506001600160a01b0381351690602081013590604001356105bf565b6101a36004803603604081101561022957600080fd5b81359190810190604081016020820135600160201b81111561024a57600080fd5b82018360208201111561025c57600080fd5b803590602001918460208302840111600160201b8311171561027d57600080fd5b50909250905061065e565b61011361091f565b610113610933565b6101a3600480360360208110156102ae57600080fd5b50356001600160a01b0316610942565b6101a3600480360360408110156102d457600080fd5b506001600160a01b0381351690602001356109da565b6101a36004803603604081101561030057600080fd5b81359190810190604081016020820135600160201b81111561032157600080fd5b82018360208201111561033357600080fd5b803590602001918460208302840111600160201b8311171561035457600080fd5b509092509050610a77565b6101a36004803603606081101561037557600080fd5b506001600160a01b038135811691602081013582169160409091013516610cbe565b6101a3610e24565b60005460ff1681565b6002546001600160a01b031681565b60005460ff166103f85760405162461bcd60e51b81526004018080602001828103825260248152602001806134e36024913960400191505060405180910390fd5b60005461010090046001600160a01b031633146104465760405162461bcd60e51b81526004018080602001828103825260228152602001806134c16022913960400191505060405180910390fd5b610486848480806020026020016040519081016040528093929190818152602001838360200280828437600092019190915250869250859150610ebd9050565b50505050565b60005460ff166104cd5760405162461bcd60e51b81526004018080602001828103825260248152602001806134e36024913960400191505060405180910390fd5b60005461010090046001600160a01b0316331461051b5760405162461bcd60e51b81526004018080602001828103825260228152602001806134c16022913960400191505060405180910390fd5b6105248161129c565b50565b60005460ff166105685760405162461bcd60e51b81526004018080602001828103825260248152602001806134e36024913960400191505060405180910390fd5b60005461010090046001600160a01b031633146105b65760405162461bcd60e51b81526004018080602001828103825260228152602001806134c16022913960400191505060405180910390fd5b610524816115cc565b60005460ff166106005760405162461bcd60e51b81526004018080602001828103825260248152602001806134e36024913960400191505060405180910390fd5b60005461010090046001600160a01b0316331461064e5760405162461bcd60e51b81526004018080602001828103825260228152602001806134c16022913960400191505060405180910390fd5b6106598383836118e9565b505050565b60005460ff1661069f5760405162461bcd60e51b81526004018080602001828103825260248152602001806134e36024913960400191505060405180910390fd5b60005461010090046001600160a01b031633146106ed5760405162461bcd60e51b81526004018080602001828103825260228152602001806134c16022913960400191505060405180910390fd5b6002546040805163cc77828d60e01b815290516060926001600160a01b03169163cc77828d916004808301926000929190829003018186803b15801561073257600080fd5b505afa158015610746573d6000803e3d6000fd5b505050506040513d6000823e601f3d908101601f19168201604052602081101561076f57600080fd5b8101908080516040519392919084600160201b82111561078e57600080fd5b9083019060208201858111156107a357600080fd5b82518660208202830111600160201b821117156107bf57600080fd5b82525081516020918201928201910280838360005b838110156107ec5781810151838201526020016107d4565b5050505090500160405250505090508282905081511460405180606001604052806037815260200161346860379139906108a45760405162461bcd60e51b81526004018080602001828103825283818151815260200191508051906020019080838360005b83811015610869578181015183820152602001610851565b50505050905090810190601f1680156108965780820380516001836020036101000a031916815260200191505b509250505060405180910390fd5b506108e281848480806020026020016040519081016040528093929190818152602001838360200280828437600092019190915250611c3192505050565b61048684848480806020026020016040519081016040528093929190818152602001838360200280828437600092019190915250611c8192505050565b60005461010090046001600160a01b031681565b6001546001600160a01b031681565b60005460ff166109835760405162461bcd60e51b81526004018080602001828103825260248152602001806134e36024913960400191505060405180910390fd5b60005461010090046001600160a01b031633146109d15760405162461bcd60e51b81526004018080602001828103825260228152602001806134c16022913960400191505060405180910390fd5b61052481612065565b60005460ff16610a1b5760405162461bcd60e51b81526004018080602001828103825260248152602001806134e36024913960400191505060405180910390fd5b60005461010090046001600160a01b03163314610a695760405162461bcd60e51b81526004018080602001828103825260228152602001806134c16022913960400191505060405180910390fd5b610a738282612382565b5050565b60005460ff16610ab85760405162461bcd60e51b81526004018080602001828103825260248152602001806134e36024913960400191505060405180910390fd5b60005461010090046001600160a01b03163314610b065760405162461bcd60e51b81526004018080602001828103825260228152602001806134c16022913960400191505060405180910390fd5b6002546040805163cc77828d60e01b815290516060926001600160a01b03169163cc77828d916004808301926000929190829003018186803b158015610b4b57600080fd5b505afa158015610b5f573d6000803e3d6000fd5b505050506040513d6000823e601f3d908101601f191682016040526020811015610b8857600080fd5b8101908080516040519392919084600160201b821115610ba757600080fd5b908301906020820185811115610bbc57600080fd5b82518660208202830111600160201b82111715610bd857600080fd5b82525081516020918201928201910280838360005b83811015610c05578181015183820152602001610bed565b505050509050016040525050509050828290508151146040518060600160405280603781526020016134686037913990610c805760405162461bcd60e51b8152602060048201818152835160248401528351909283926044909101919085019080838360008315610869578181015183820152602001610851565b50610486848484808060200260200160405190810160405280939291908181526020018383602002808284376000920191909152506126cb92505050565b60005460ff1615610d005760405162461bcd60e51b81526004018080602001828103825260288152602001806134406028913960400191505060405180910390fd5b6000805460ff191660011790556001600160a01b038316610d525760405162461bcd60e51b81526004018080602001828103825260248152602001806133cc6024913960400191505060405180910390fd5b6001600160a01b038216610d975760405162461bcd60e51b81526004018080602001828103825260248152602001806135076024913960400191505060405180910390fd5b6001600160a01b038116610ddc5760405162461bcd60e51b815260040180806020018281038252602381526020018061354e6023913960400191505060405180910390fd5b600080546001600160a01b0394851661010002610100600160a81b0319909116179055600180549284166001600160a01b031993841617905560028054919093169116179055565b60005460ff16610e655760405162461bcd60e51b81526004018080602001828103825260248152602001806134e36024913960400191505060405180910390fd5b60005461010090046001600160a01b03163314610eb35760405162461bcd60e51b81526004018080602001828103825260228152602001806134c16022913960400191505060405180910390fd5b610ebb612a94565b565b600080600060019054906101000a90046001600160a01b03166001600160a01b0316638da5cb5b6040518163ffffffff1660e01b815260040160206040518083038186803b158015610f0e57600080fd5b505afa158015610f22573d6000803e3d6000fd5b505050506040513d6020811015610f3857600080fd5b505160015460405160448101879052606481018690526060602482019081528851608483015288519394506001600160a01b038086169463d1b7089a949091169263246bc19b60e01b928b928b928b9291829160a401906020878101910280838360005b83811015610fb4578181015183820152602001610f9c565b50506040805193909501838103601f19018452855250506020810180516001600160e01b03199a8b166001600160e01b0390911617815260008054945160e08e901b909b168b526001600160a01b038c811660048d019081526101009096041660448c0181905260648c01829052608060248d01908152845160848e01528451949c919b50919950949750955060a490930193509050808383885b8381101561106757818101518382015260200161104f565b50505050905090810190601f1680156110945780820380516001836020036101000a031916815260200191505b5095505050505050600060405180830381600087803b1580156110b657600080fd5b505af11580156110ca573d6000803e3d6000fd5b505050506040513d6000823e601f3d908101601f1916820160409081528110156110f357600080fd5b815160208301805160405192949293830192919084600160201b82111561111957600080fd5b90830190602082018581111561112e57600080fd5b8251600160201b81118282018810171561114757600080fd5b82525081516020918201929091019080838360005b8381101561117457818101518382015260200161115c565b50505050905090810190601f1680156111a15780820380516001836020036101000a031916815260200191505b5060608101604052602c8082529597508795909450925061341491505060208301399061120f5760405162461bcd60e51b8152602060048201818152835160248401528351909283926044909101919085019080838360008315610869578181015183820152602001610851565b507f31743db1ac8ca72f9ce89de1ab2df2b93eaaa38e6597dc5cf4ca3e47528d90f38585856040518080602001848152602001838152602001828103825285818151815260200191508051906020019060200280838360005b83811015611280578181015183820152602001611268565b5050505090500194505050505060405180910390a15050505050565b600080600060019054906101000a90046001600160a01b03166001600160a01b0316638da5cb5b6040518163ffffffff1660e01b815260040160206040518083038186803b1580156112ed57600080fd5b505afa158015611301573d6000803e3d6000fd5b505050506040513d602081101561131757600080fd5b5051600154604080516024808201889052825180830382018152604492830184526020810180516001600160e01b03166334e1990760e01b1781526000805495516368db844d60e11b81526001600160a01b03978816600482018181526101009098048916968201879052606482018390526080958201958652845160848301528451999a50978a169863d1b7089a989794969592949360a49092019190808383885b838110156113d25781810151838201526020016113ba565b50505050905090810190601f1680156113ff5780820380516001836020036101000a031916815260200191505b5095505050505050600060405180830381600087803b15801561142157600080fd5b505af1158015611435573d6000803e3d6000fd5b505050506040513d6000823e601f3d908101601f19168201604090815281101561145e57600080fd5b815160208301805160405192949293830192919084600160201b82111561148457600080fd5b90830190602082018581111561149957600080fd5b8251600160201b8111828201881017156114b257600080fd5b82525081516020918201929091019080838360005b838110156114df5781810151838201526020016114c7565b50505050905090810190601f16801561150c5780820380516001836020036101000a031916815260200191505b506040818101905260208082527f42616c616e63657250726f78793a2073657453776170466565206661696c656490820152949650869350611593925050505760405162461bcd60e51b8152602060048201818152835160248401528351909283926044909101919085019080838360008315610869578181015183820152602001610851565b506040805184815290517fcda74150def0ede554aff5f677be9df0e226fddff9bd9ceddf732b9673b1c92d9181900360200190a1505050565b600080600060019054906101000a90046001600160a01b03166001600160a01b0316638da5cb5b6040518163ffffffff1660e01b815260040160206040518083038186803b15801561161d57600080fd5b505afa158015611631573d6000803e3d6000fd5b505050506040513d602081101561164757600080fd5b505160015460408051861515602480830191909152825180830382018152604492830184526020810180516001600160e01b03166324dacaa960e11b1781526000805495516368db844d60e11b81526001600160a01b03978816600482018181526101009098048916968201879052606482018390526080958201958652845160848301528451999a50978a169863d1b7089a989794969592949360a49092019190808383885b838110156117065781810151838201526020016116ee565b50505050905090810190601f1680156117335780820380516001836020036101000a031916815260200191505b5095505050505050600060405180830381600087803b15801561175557600080fd5b505af1158015611769573d6000803e3d6000fd5b505050506040513d6000823e601f3d908101601f19168201604090815281101561179257600080fd5b815160208301805160405192949293830192919084600160201b8211156117b857600080fd5b9083019060208201858111156117cd57600080fd5b8251600160201b8111828201881017156117e657600080fd5b82525081516020918201929091019080838360005b838110156118135781810151838201526020016117fb565b50505050905090810190601f1680156118405780820380516001836020036101000a031916815260200191505b506060810160405260238082529597508795909450925061352b9150506020830139906118ae5760405162461bcd60e51b8152602060048201818152835160248401528351909283926044909101919085019080838360008315610869578181015183820152602001610851565b5060408051841515815290517f3c83e916edb4c7f342384067941b22663b5093a3cdcc03326de9b8208256b9b29181900360200190a1505050565b600080600060019054906101000a90046001600160a01b03166001600160a01b0316638da5cb5b6040518163ffffffff1660e01b815260040160206040518083038186803b15801561193a57600080fd5b505afa15801561194e573d6000803e3d6000fd5b505050506040513d602081101561196457600080fd5b505190506119728585612db8565b600154604080516001600160a01b0388811660248084019190915260448084018a905260648085018a9052855180860382018152608495860187526020810180516001600160e01b0316634c20d20960e01b1781526000805498516368db844d60e11b815299871660048b01818152610100909a048816958b01869052938a018190526080958a019586528251978a01979097528151958a169863d1b7089a98939792969495929460a49091019190808383885b83811015611a3e578181015183820152602001611a26565b50505050905090810190601f168015611a6b5780820380516001836020036101000a031916815260200191505b5095505050505050600060405180830381600087803b158015611a8d57600080fd5b505af1158015611aa1573d6000803e3d6000fd5b505050506040513d6000823e601f3d908101601f191682016040908152811015611aca57600080fd5b815160208301805160405192949293830192919084600160201b821115611af057600080fd5b908301906020820185811115611b0557600080fd5b8251600160201b811182820188101715611b1e57600080fd5b82525081516020918201929091019080838360005b83811015611b4b578181015183820152602001611b33565b50505050905090810190601f168015611b785780820380516001836020036101000a031916815260200191505b50606081016040526025808252959750879590945092506133a7915050602083013990611be65760405162461bcd60e51b8152602060048201818152835160248401528351909283926044909101919085019080838360008315610869578181015183820152602001610851565b50604080518581526020810185905281516001600160a01b038816927f9d0dde9a93f76d4d71f1d6ae26e6dd5428bf9a76955e08691f17cc888c915d60928290030190a25050505050565b60005b8251811015610659576000838281518110611c4b57fe5b602002602001015190506000838381518110611c6357fe5b60200260200101519050611c778282612db8565b5050600101611c34565b600080600060019054906101000a90046001600160a01b03166001600160a01b0316638da5cb5b6040518163ffffffff1660e01b815260040160206040518083038186803b158015611cd257600080fd5b505afa158015611ce6573d6000803e3d6000fd5b505050506040513d6020811015611cfc57600080fd5b50516001546040805160248101888152604482019283528751606483015287519495506001600160a01b038087169563d1b7089a95909116936313da703560e21b938b938b93909291608401906020858101910280838360005b83811015611d6e578181015183820152602001611d56565b50506040805193909501838103601f19018452855250506020810180516001600160e01b0319998a166001600160e01b0390911617815260008054945160e08d901b909a168a526001600160a01b038b811660048c019081526101009096041660448b0181905260648b01829052608060248c01908152845160848d01528451949b919a50919850949650945060a4909301929150808383885b83811015611e20578181015183820152602001611e08565b50505050905090810190601f168015611e4d5780820380516001836020036101000a031916815260200191505b5095505050505050600060405180830381600087803b158015611e6f57600080fd5b505af1158015611e83573d6000803e3d6000fd5b505050506040513d6000823e601f3d908101601f191682016040908152811015611eac57600080fd5b815160208301805160405192949293830192919084600160201b821115611ed257600080fd5b908301906020820185811115611ee757600080fd5b8251600160201b811182820188101715611f0057600080fd5b82525081516020918201929091019080838360005b83811015611f2d578181015183820152602001611f15565b50505050905090810190601f168015611f5a5780820380516001836020036101000a031916815260200191505b5060408181019052601e81527f42616c616e63657250726f78793a204a6f696e506f6f6c206661696c656400006020820152949650869350611fe1925050505760405162461bcd60e51b8152602060048201818152835160248401528351909283926044909101919085019080838360008315610869578181015183820152602001610851565b507fed9af826cc908e3bd75c692cc7a73832ecad982a9564f6cebdecb84377ba405784846040518083815260200180602001828103825283818151815260200191508051906020019060200280838360005b8381101561204b578181015183820152602001612033565b50505050905001935050505060405180910390a150505050565b600080600060019054906101000a90046001600160a01b03166001600160a01b0316638da5cb5b6040518163ffffffff1660e01b815260040160206040518083038186803b1580156120b657600080fd5b505afa1580156120ca573d6000803e3d6000fd5b505050506040513d60208110156120e057600080fd5b5051600154604080516001600160a01b03878116602480840191909152835180840382018152604493840185526020810180516001600160e01b03166317e9ed6160e21b1781526000805496516368db844d60e11b8152978516600489018181526101009098048616968901879052606489018290526080948901948552835160848a01528351999a50948a169863d1b7089a98959793969591949260a49092019190808383885b838110156121a0578181015183820152602001612188565b50505050905090810190601f1680156121cd5780820380516001836020036101000a031916815260200191505b5095505050505050600060405180830381600087803b1580156121ef57600080fd5b505af1158015612203573d6000803e3d6000fd5b505050506040513d6000823e601f3d908101601f19168201604090815281101561222c57600080fd5b815160208301805160405192949293830192919084600160201b82111561225257600080fd5b90830190602082018581111561226757600080fd5b8251600160201b81118282018810171561228057600080fd5b82525081516020918201929091019080838360005b838110156122ad578181015183820152602001612295565b50505050905090810190601f1680156122da5780820380516001836020036101000a031916815260200191505b50606081016040526021808252959750879590945092506135719150506020830139906123485760405162461bcd60e51b8152602060048201818152835160248401528351909283926044909101919085019080838360008315610869578181015183820152602001610851565b506040516001600160a01b038416907f4eb129c82dcd3eedb52df2b0e6fb4cfa41ac64ee9d63ff081acbb1877e85d79b90600090a2505050565b600080600060019054906101000a90046001600160a01b03166001600160a01b0316638da5cb5b6040518163ffffffff1660e01b815260040160206040518083038186803b1580156123d357600080fd5b505afa1580156123e7573d6000803e3d6000fd5b505050506040513d60208110156123fd57600080fd5b5051905061240d84600019612db8565b600154604080516001600160a01b038781166024808401919091526044808401899052845180850382018152606494850186526020810180516001600160e01b0316639776e94b60e01b1781526000805497516368db844d60e11b815298861660048a018181526101009099048716948a018590529689018190526080948901948552825160848a01528251958a169863d1b7089a98939694959194919260a490910191808383885b838110156124ce5781810151838201526020016124b6565b50505050905090810190601f1680156124fb5780820380516001836020036101000a031916815260200191505b5095505050505050600060405180830381600087803b15801561251d57600080fd5b505af1158015612531573d6000803e3d6000fd5b505050506040513d6000823e601f3d908101601f19168201604090815281101561255a57600080fd5b815160208301805160405192949293830192919084600160201b82111561258057600080fd5b90830190602082018581111561259557600080fd5b8251600160201b8111828201881017156125ae57600080fd5b82525081516020918201929091019080838360005b838110156125db5781810151838201526020016125c3565b50505050905090810190601f1680156126085780820380516001836020036101000a031916815260200191505b50604052505050508092505061261f846000612db8565b8160405180606001604052806022815260200161349f60229139906126855760405162461bcd60e51b8152602060048201818152835160248401528351909283926044909101919085019080838360008315610869578181015183820152602001610851565b506040805184815290516001600160a01b038616917fd1810c7ab9982f57e29888518b58debffbebba110eb6e5870926d70c5245f7d1919081900360200190a250505050565b600080600060019054906101000a90046001600160a01b03166001600160a01b0316638da5cb5b6040518163ffffffff1660e01b815260040160206040518083038186803b15801561271c57600080fd5b505afa158015612730573d6000803e3d6000fd5b505050506040513d602081101561274657600080fd5b50516001546040805160248101888152604482019283528751606483015287519495506001600160a01b038087169563d1b7089a959091169363b02f0b7360e01b938b938b93909291608401906020858101910280838360005b838110156127b85781810151838201526020016127a0565b50506040805193909501838103601f19018452855250506020810180516001600160e01b0319998a166001600160e01b0390911617815260008054945160e08d901b909a168a526001600160a01b038b811660048c019081526101009096041660448b0181905260648b01829052608060248c01908152845160848d01528451949b919a50919850949650945060a4909301929150808383885b8381101561286a578181015183820152602001612852565b50505050905090810190601f1680156128975780820380516001836020036101000a031916815260200191505b5095505050505050600060405180830381600087803b1580156128b957600080fd5b505af11580156128cd573d6000803e3d6000fd5b505050506040513d6000823e601f3d908101601f1916820160409081528110156128f657600080fd5b815160208301805160405192949293830192919084600160201b82111561291c57600080fd5b90830190602082018581111561293157600080fd5b8251600160201b81118282018810171561294a57600080fd5b82525081516020918201929091019080838360005b8381101561297757818101518382015260200161295f565b50505050905090810190601f1680156129a45780820380516001836020036101000a031916815260200191505b5060408181019052601e81527f42616c616e63657250726f78793a2045786974506f6f6c206661696c656400006020820152949650869350612a2b925050505760405162461bcd60e51b8152602060048201818152835160248401528351909283926044909101919085019080838360008315610869578181015183820152602001610851565b507f996ab3d5d2608f2778c12e2321d7b0ca0d6aaa91967b02cd612f2cff6ddbcdc884846040518083815260200180602001828103825283818151815260200191508051906020019060200280838360008381101561204b578181015183820152602001612033565b600080600060019054906101000a90046001600160a01b03166001600160a01b0316638da5cb5b6040518163ffffffff1660e01b815260040160206040518083038186803b158015612ae557600080fd5b505afa158015612af9573d6000803e3d6000fd5b505050506040513d6020811015612b0f57600080fd5b5051600154604080516004808252602480830184526020830180516001600160e01b031663c275d81b60e01b1781526000805495516368db844d60e11b81526001600160a01b03978816948101858152610100909704881660448201819052606482018390526080948201948552865160848301528651999a50978a169863d1b7089a9895979294929360a49092019190808383885b83811015612bbd578181015183820152602001612ba5565b50505050905090810190601f168015612bea5780820380516001836020036101000a031916815260200191505b5095505050505050600060405180830381600087803b158015612c0c57600080fd5b505af1158015612c20573d6000803e3d6000fd5b505050506040513d6000823e601f3d908101601f191682016040908152811015612c4957600080fd5b815160208301805160405192949293830192919084600160201b821115612c6f57600080fd5b908301906020820185811115612c8457600080fd5b8251600160201b811182820188101715612c9d57600080fd5b82525081516020918201929091019080838360005b83811015612cca578181015183820152602001612cb2565b50505050905090810190601f168015612cf75780820380516001836020036101000a031916815260200191505b5060408181019052601e81527f42616c616e63657250726f78793a20616464546f6b656e206661696c656400006020820152949650869350612d7e925050505760405162461bcd60e51b8152602060048201818152835160248401528351909283926044909101919085019080838360008315610869578181015183820152602001610851565b5060408051831515815290517f2bfed6dd58b558cba9b01357c0030a2b8d7002ef62b4fc1b5832f50cdc4bb3279181900360200190a15050565b60008060019054906101000a90046001600160a01b03166001600160a01b0316638da5cb5b6040518163ffffffff1660e01b815260040160206040518083038186803b158015612e0757600080fd5b505afa158015612e1b573d6000803e3d6000fd5b505050506040513d6020811015612e3157600080fd5b50516000805460015460408051636eb1769f60e11b81526101009093046001600160a01b0390811660048501529182166024840152519394509192839287169163dd62ed3e916044808301926020929190829003018186803b158015612e9657600080fd5b505afa158015612eaa573d6000803e3d6000fd5b505050506040513d6020811015612ec057600080fd5b5051111561313657600154604080516001600160a01b0392831660248083019190915260006044808401829052845180850382018152606494850186526020810180516001600160e01b031663095ea7b360e01b178152835496516368db844d60e11b81528c89166004820190815261010090980489169381018490529586018490526080948601948552815160848701528151978a169763d1b7089a978d9793969495949093909260a490910191808383885b83811015612f8c578181015183820152602001612f74565b50505050905090810190601f168015612fb95780820380516001836020036101000a031916815260200191505b5095505050505050600060405180830381600087803b158015612fdb57600080fd5b505af1158015612fef573d6000803e3d6000fd5b505050506040513d6000823e601f3d908101601f19168201604090815281101561301857600080fd5b815160208301805160405192949293830192919084600160201b82111561303e57600080fd5b90830190602082018581111561305357600080fd5b8251600160201b81118282018810171561306c57600080fd5b82525081516020918201929091019080838360005b83811015613099578181015183820152602001613081565b50505050905090810190601f1680156130c65780820380516001836020036101000a031916815260200191505b50606081016040526024808252959650869590945092506133f09150506020830139906131345760405162461bcd60e51b8152602060048201818152835160248401528351909283926044909101919085019080838360008315610869578181015183820152602001610851565b505b600154604080516001600160a01b039283166024808301919091526044808301889052835180840382018152606493840185526020810180516001600160e01b031663095ea7b360e01b1781526000805496516368db844d60e11b81528c89166004820190815261010090980489169481018590529586018190526080948601948552825160848701528251978a169763d1b7089a978d9794969294909360a490910191808383885b838110156131f75781810151838201526020016131df565b50505050905090810190601f1680156132245780820380516001836020036101000a031916815260200191505b5095505050505050600060405180830381600087803b15801561324657600080fd5b505af115801561325a573d6000803e3d6000fd5b505050506040513d6000823e601f3d908101601f19168201604090815281101561328357600080fd5b815160208301805160405192949293830192919084600160201b8211156132a957600080fd5b9083019060208201858111156132be57600080fd5b8251600160201b8111828201881017156132d757600080fd5b82525081516020918201929091019080838360005b838110156133045781810151838201526020016132ec565b50505050905090810190601f1680156133315780820380516001836020036101000a031916815260200191505b50606081016040526024808252959650869590945092506133f091505060208301399061339f5760405162461bcd60e51b8152602060048201818152835160248401528351909283926044909101919085019080838360008315610869578181015183820152602001610851565b505050505056fe42616c616e636550726f78793a20746f6b656e20776173206e6f7420636f6d6d697474656442616c616e63657250726f78793a206176617461722063616e6e6f74206265206e756c6c42616c616e63657250726f78793a20455243323020617070726f76616c206661696c656442616c616e63657250726f78793a20757064617465576569676874734772616475616c6c79206661696c656442616c616e63657250726f78793a2070726f787920616c726561647920696e697469616c697a656442616c616e63657250726f78793a20746f6b656e20616d6f756e7473206172726179206c656e67746820646f65736e2774206d6174636842616c616e63657250726f78793a20757064617465576569676874206661696c656442616c616e63657250726f78793a2070726f746563746564206f7065726174696f6e42616c616e63657250726f78793a2070726f7879206e6f7420696e697469616c697a656442616c616e63657250726f78793a206372706f6f6c2063616e6e6f74206265206e756c6c42616c616e63657250726f78793a207365745075626c696353776170206661696c656442616c616e63657250726f78793a2062706f6f6c2063616e6e6f74206265206e756c6c42616c616e63657250726f78793a2072656d6f7665546f6b656e206661696c6564a265627a7a72315820d56222af9b5beed6a218acccbe7991743da38a95f18ee74e82112e98a717d2dd64736f6c634300050d0032",
  "source": "/*\n\n\n\n\n\n\n\n\n*/\n\n// SPDX-License-Identifier: GPL-3.0-or-later\n\npragma solidity >=0.5.13;\n\nimport \"@daostack/arc/contracts/controller/Avatar.sol\";\nimport \"@daostack/arc/contracts/controller/Controller.sol\";\nimport \"openzeppelin-solidity/contracts/token/ERC20/IERC20.sol\";\nimport \"../utils/interfaces/IConfigurableRightsPool.sol\";\nimport \"../utils/interfaces/IBPool.sol\";\n\n/**\n * @title A Balancer Configurable Rights Pool proxy\n * @dev   Enable primeDAO governance of a Configurable Rights Balancer Pool.\n */\ncontract BalancerProxy {\n    string constant ERROR_SET_PUBLIC_SWAP    = \"BalancerProxy: setPublicSwap failed\";\n    string constant ERROR_SET_SWAP_FEE       = \"BalancerProxy: setSwapFee failed\";\n    string constant COMMIT_TOKEN             = \"BalanceProxy: token was not committed\";\n    string constant ADD_TOKEN                = \"BalancerProxy: addToken failed\";\n    string constant REMOVE_TOKEN             = \"BalancerProxy: removeToken failed\";\n    string constant UPDATE_WEIGHTS_GRADUALLY = \"BalancerProxy: updateWeightsGradually failed\";\n    string constant UPDATE_WEIGHT            = \"BalancerProxy: updateWeight failed\";\n    string constant ERROR_APPROVAL           = \"BalancerProxy: ERC20 approval failed\";\n    string constant JOIN_POOL                = \"BalancerProxy: JoinPool failed\";\n    string constant EXIT_POOL                = \"BalancerProxy: ExitPool failed\";\n    string constant TOKEN_AMOUNTS            = \"BalancerProxy: token amounts array length doesn't match\";\n\n    bool               \t\tpublic initialized;\n    Avatar             \t\tpublic avatar;\n    IConfigurableRightsPool public crpool;\n    IBPool                  public bpool;\n\n    event SetPublicSwap          (bool publicSwap);\n    event SetSwapFee             (uint swapFee);\n    event CommitAddToken         (address indexed token, uint balance, uint denormalizedWeight);\n    event ApplyAddToken          (bool addToken);\n    event RemoveToken            (address indexed token);\n    event UpdateWeightsGradually (uint[] newWeights, uint startBlock, uint endBlock);\n    event JoinPool               (uint poolAmountOut, uint[] maxAmountsIn);\n    event ExitPool               (uint poolAmountIn, uint[]  minAmountsOut);\n    event UpdateWeight           (address indexed token, uint newWeight);\n\n\n    modifier initializer() {\n        require(!initialized, \"BalancerProxy: proxy already initialized\");\n        initialized = true;\n        _;\n    }\n\n    modifier protected() {\n        require(initialized,                   \"BalancerProxy: proxy not initialized\");\n        require(msg.sender == address(avatar), \"BalancerProxy: protected operation\");\n        _;\n    }\n\n    /**\n      * @dev           Initialize proxy.\n      * @param _avatar The address of the Avatar controlling this proxy.\n      * @param _crpool The address of the balancer Configurable Rights Pool.\n      */\n    function initialize(Avatar _avatar, IConfigurableRightsPool _crpool, IBPool _bpool) external initializer {\n        require(_avatar != Avatar(0),             \t   \"BalancerProxy: avatar cannot be null\");\n        require(_crpool != IConfigurableRightsPool(0), \"BalancerProxy: crpool cannot be null\");\n        require(_bpool  != IBPool(0),                  \"BalancerProxy: bpool cannot be null\");\n\n        avatar = _avatar;\n        crpool = _crpool;\n        bpool  = _bpool;\n    }\n\n    /**\n      * @dev              Set Public Swap to true/false.\n      * @param publicSwap Sets publicSwap that allows to use balancer pool for swapping.\n      */\n    function setPublicSwap(bool publicSwap) external protected {\n        _setPublicSwap(publicSwap);\n    }\n\n    /**\n      * @dev           Set Swap Fee.\n      * @param swapFee Sets Swap Fee.\n      */\n    function setSwapFee(uint swapFee) external protected {\n        _setSwapFee(swapFee);\n    }\n\n    /**\n      * @dev                      Commit add token to the balancer pool.\n      * @param token              Token address\n      * @param balance            balance of the Token to add to the pool\n      * @param denormalizedWeight expected denormalizedWeight\n      */\n    function commitAddToken(address token, uint balance, uint denormalizedWeight) external protected {\n        _commitAddToken(token, balance, denormalizedWeight);\n    }\n\n    /**\n      * @dev                      Add Token commited previously.\n      */\n    function applyAddToken() external protected {\n        _applyAddToken();\n    }\n\n    /**\n      * @dev                      Remove Token from the balancer pool.\n      * @param token              Token address\n      */\n    function removeToken(address token) external protected {\n        _removeToken(token);\n    }\n\n    /**\n      * @dev                     Sets the new weight for the single token\n      * @param token             Address of a token\n      * @param newWeight         New weight\n      */\n    function updateWeight(address token, uint newWeight) external protected {\n        _updateWeight(token, newWeight);\n    }\n\n    /**\n      * @dev                      Sets the new weights that are going to be gradually updated\n      * @param newWeights         New weights\n      * @param startBlock         Start block for the update\n      * @param endBlock           End block for the update\n      */\n    function updateWeightsGradually(uint[] calldata newWeights, uint startBlock, uint endBlock) external protected {\n        _updateWeightsGradually(newWeights, startBlock, endBlock);\n    }\n\n    /**\n      * @dev                      Joins the pool by adding more tokens.\n      * @param poolAmountOut      Number of pool tokens to receive\n      * @param maxAmountsIn       Max amount of asset tokens to spend\n      */\n    function joinPool(uint poolAmountOut, uint[] calldata maxAmountsIn) external protected {\n        address[] memory poolTokens = bpool.getCurrentTokens();\n        require(poolTokens.length == maxAmountsIn.length, TOKEN_AMOUNTS);\n        _approveAllTokens(poolTokens, maxAmountsIn);\n        _joinPool(poolAmountOut, maxAmountsIn);\n    }\n\n    /**\n     * @dev                      Exits the pool by redeeming the tokens.\n     * @param poolAmountIn       Amount of pool tokens to redeem\n     * @param minAmountsOut      Minimum amount of asset tokens to receive\n     */\n    function exitPool(uint poolAmountIn, uint[] calldata minAmountsOut) external protected {\n        address[] memory poolTokens = bpool.getCurrentTokens();\n        require(poolTokens.length == minAmountsOut.length, TOKEN_AMOUNTS);\n        _exitPool(poolAmountIn, minAmountsOut);\n    }\n\n    /* internal state-modifying functions */\n\n    function _setPublicSwap(bool _publicSwap) internal {\n        bool             success;\n    \tController controller = Controller(avatar.owner());\n\n        (success,) = controller.genericCall(\n            address(crpool),\n            abi.encodeWithSelector(\n                crpool.setPublicSwap.selector,\n                _publicSwap\n            ),\n            avatar,\n            0\n        );\n        require(success, ERROR_SET_PUBLIC_SWAP);\n        emit SetPublicSwap(_publicSwap);\n    }\n\n    function _setSwapFee(uint _swapFee) internal {\n        bool             success;\n        Controller controller = Controller(avatar.owner());\n\n        (success, ) = controller.genericCall(\n            address(crpool),\n            abi.encodeWithSelector(\n                crpool.setSwapFee.selector,\n                _swapFee\n            ),\n            avatar,\n            0\n        );\n        require(success, ERROR_SET_SWAP_FEE);\n        emit SetSwapFee(_swapFee);\n    }\n\n    function _updateWeight(address _token, uint _newWeight) internal {\n        bool             success;\n        Controller controller = Controller(avatar.owner());\n\n        // approve maximum amount of tokens\n        _approve(_token, uint256(-1));\n        (success, ) = controller.genericCall(\n            address(crpool),\n            abi.encodeWithSelector(\n                crpool.updateWeight.selector,\n                _token,\n                _newWeight\n            ),\n            avatar,\n            0\n        );\n        // reset allowance\n        _approve(_token, 0);\n\n        require(success, UPDATE_WEIGHT);\n        emit UpdateWeight(_token, _newWeight);\n    }\n\n    function _updateWeightsGradually(uint[] memory _newWeights, uint _startBlock, uint _endBlock) internal {\n        bool             success;\n        Controller controller = Controller(avatar.owner());\n\n        (success, ) = controller.genericCall(\n            address(crpool),\n            abi.encodeWithSelector(\n                crpool.updateWeightsGradually.selector,\n                _newWeights,\n                _startBlock,\n                _endBlock\n            ),\n            avatar,\n            0\n        );\n        require(success, UPDATE_WEIGHTS_GRADUALLY);\n        emit UpdateWeightsGradually(_newWeights, _startBlock, _endBlock);\n    }\n\n    function _commitAddToken(address _token, uint _balance, uint _denormalizedWeight) internal {\n        bool             success;\n        Controller controller = Controller(avatar.owner());\n\n        _approve(_token, _balance);\n        (success, ) = controller.genericCall(\n            address(crpool),\n            abi.encodeWithSelector(\n                crpool.commitAddToken.selector,\n                _token,\n                _balance,\n                _denormalizedWeight\n            ),\n            avatar,\n            0\n        );\n        require(success, COMMIT_TOKEN);\n        emit CommitAddToken(_token, _balance, _denormalizedWeight);\n    }\n\n    function _applyAddToken() internal {\n        bool             success;\n        Controller controller = Controller(avatar.owner());\n\n        (success, ) = controller.genericCall(\n            address(crpool),\n            abi.encodeWithSelector(\n                crpool.applyAddToken.selector\n            ),\n            avatar,\n            0\n        );\n        require(success, ADD_TOKEN);\n        emit ApplyAddToken(success);\n    }\n\n    function _removeToken(address _token) internal {\n        bool             success;\n        Controller controller = Controller(avatar.owner());\n\n        (success, ) = controller.genericCall(\n            address(crpool),\n            abi.encodeWithSelector(\n                crpool.removeToken.selector,\n                _token\n            ),\n            avatar,\n            0\n        );\n        require(success, REMOVE_TOKEN);\n        emit RemoveToken(_token);\n    }\n\n    function _joinPool(uint _poolAmountOut, uint[] memory _maxAmountsIn) internal {\n        bool             success;\n        Controller controller = Controller(avatar.owner());\n\n        (success, ) = controller.genericCall(\n            address(crpool),\n            abi.encodeWithSelector(\n                crpool.joinPool.selector,\n                _poolAmountOut,\n                _maxAmountsIn\n            ),\n            avatar,\n            0\n        );\n        require(success, JOIN_POOL);\n        emit JoinPool(_poolAmountOut, _maxAmountsIn);\n    }\n\n    function _exitPool(uint _poolAmountIn, uint[] memory _minAmountsOut) internal {\n        bool             success;\n        Controller controller = Controller(avatar.owner());\n\n        (success, ) = controller.genericCall(\n            address(crpool),\n            abi.encodeWithSelector(\n                crpool.exitPool.selector,\n                _poolAmountIn,\n                _minAmountsOut\n            ),\n            avatar,\n            0\n        );\n        require(success, EXIT_POOL);\n        emit ExitPool(_poolAmountIn, _minAmountsOut);\n    }\n\n    /* internal helpers functions */\n\n    function _approve(address _token, uint256 _amount) internal {\n        Controller       controller = Controller(avatar.owner());\n        bool             success;\n\n        if (IERC20(_token).allowance(address(avatar), address(crpool)) > 0) {\n            // reset allowance to make sure final approval does not revert\n            (success,) = controller.genericCall(\n                _token,\n                abi.encodeWithSelector(IERC20(_token).approve.selector, address(crpool), 0),\n                avatar,\n                0\n            );\n            require(success, ERROR_APPROVAL);\n        }\n        (success,) = controller.genericCall(\n            _token,\n            abi.encodeWithSelector(IERC20(_token).approve.selector, address(crpool), _amount),\n            avatar,\n            0\n        );\n        require(success, ERROR_APPROVAL);\n    }\n\n    function _approveAllTokens(address[] memory _poolTokens, uint[] memory _amounts) internal {\n        for (uint i = 0; i < _poolTokens.length; i++) {\n            address t   = _poolTokens[i];\n            uint amount = _amounts[i];\n            _approve(t, amount);\n        }\n    }\n}\n",
  "sourcePath": "/home/mx/Dev/curve/prime_dao/prime_contracts/contracts/contracts/schemes/BalancerProxy.sol",
  "compiler": {
    "name": "solc",
    "version": "0.5.13+commit.5b0b510c.Emscripten.clang"
  },
  "schemaVersion": "3.2.5",
  "updatedAt": "2021-03-30T10:05:06.868Z",
  "devdoc": {
    "details": "Enable primeDAO governance of a Configurable Rights Balancer Pool.",
    "methods": {
      "applyAddToken()": {
        "details": "Add Token commited previously."
      },
      "commitAddToken(address,uint256,uint256)": {
        "details": "Commit add token to the balancer pool.",
        "params": {
          "balance": "balance of the Token to add to the pool",
          "denormalizedWeight": "expected denormalizedWeight",
          "token": "Token address"
        }
      },
      "exitPool(uint256,uint256[])": {
        "details": "Exits the pool by redeeming the tokens.",
        "params": {
          "minAmountsOut": "Minimum amount of asset tokens to receive",
          "poolAmountIn": "Amount of pool tokens to redeem"
        }
      },
      "initialize(address,address,address)": {
        "details": "Initialize proxy.",
        "params": {
          "_avatar": "The address of the Avatar controlling this proxy.",
          "_crpool": "The address of the balancer Configurable Rights Pool."
        }
      },
      "joinPool(uint256,uint256[])": {
        "details": "Joins the pool by adding more tokens.",
        "params": {
          "maxAmountsIn": "Max amount of asset tokens to spend",
          "poolAmountOut": "Number of pool tokens to receive"
        }
      },
      "removeToken(address)": {
        "details": "Remove Token from the balancer pool.",
        "params": {
          "token": "Token address"
        }
      },
      "setPublicSwap(bool)": {
        "details": "Set Public Swap to true/false.",
        "params": {
          "publicSwap": "Sets publicSwap that allows to use balancer pool for swapping."
        }
      },
      "setSwapFee(uint256)": {
        "details": "Set Swap Fee.",
        "params": {
          "swapFee": "Sets Swap Fee."
        }
      },
      "updateWeight(address,uint256)": {
        "details": "Sets the new weight for the single token",
        "params": {
          "newWeight": "New weight",
          "token": "Address of a token"
        }
      },
      "updateWeightsGradually(uint256[],uint256,uint256)": {
        "details": "Sets the new weights that are going to be gradually updated",
        "params": {
          "endBlock": "End block for the update",
          "newWeights": "New weights",
          "startBlock": "Start block for the update"
        }
      }
    },
    "title": "A Balancer Configurable Rights Pool proxy"
  },
  "userdoc": {
    "methods": {}
  }
}