{
  "contractName": "CRPFactory",
  "abi": [
    {
      "anonymous": false,
      "inputs": [
        {
          "indexed": true,
          "internalType": "address",
          "name": "caller",
          "type": "address"
        },
        {
          "indexed": true,
          "internalType": "address",
          "name": "pool",
          "type": "address"
        }
      ],
      "name": "LogNewCrp",
      "type": "event"
    },
    {
      "inputs": [
        {
          "internalType": "address",
          "name": "factoryAddress",
          "type": "address"
        },
        {
          "components": [
            {
              "internalType": "string",
              "name": "poolTokenSymbol",
              "type": "string"
            },
            {
              "internalType": "string",
              "name": "poolTokenName",
              "type": "string"
            },
            {
              "internalType": "address[]",
              "name": "constituentTokens",
              "type": "address[]"
            },
            {
              "internalType": "uint256[]",
              "name": "tokenBalances",
              "type": "uint256[]"
            },
            {
              "internalType": "uint256[]",
              "name": "tokenWeights",
              "type": "uint256[]"
            },
            {
              "internalType": "uint256",
              "name": "swapFee",
              "type": "uint256"
            }
          ],
          "internalType": "struct ConfigurableRightsPool.PoolParams",
          "name": "poolParams",
          "type": "tuple"
        },
        {
          "components": [
            {
              "internalType": "bool",
              "name": "canPauseSwapping",
              "type": "bool"
            },
            {
              "internalType": "bool",
              "name": "canChangeSwapFee",
              "type": "bool"
            },
            {
              "internalType": "bool",
              "name": "canChangeWeights",
              "type": "bool"
            },
            {
              "internalType": "bool",
              "name": "canAddRemoveTokens",
              "type": "bool"
            },
            {
              "internalType": "bool",
              "name": "canWhitelistLPs",
              "type": "bool"
            },
            {
              "internalType": "bool",
              "name": "canChangeCap",
              "type": "bool"
            }
          ],
          "internalType": "struct RightsManager.Rights",
          "name": "rights",
          "type": "tuple"
        }
      ],
      "name": "newCrp",
      "outputs": [
        {
          "internalType": "contract ConfigurableRightsPool",
          "name": "",
          "type": "address"
        }
      ],
      "stateMutability": "nonpayable",
      "type": "function"
    },
    {
      "inputs": [
        {
          "internalType": "address",
          "name": "addr",
          "type": "address"
        }
      ],
      "name": "isCrp",
      "outputs": [
        {
          "internalType": "bool",
          "name": "",
          "type": "bool"
        }
      ],
      "stateMutability": "view",
      "type": "function",
      "constant": true
    }
  ],
  "bytecode": "0x608060405234801561001057600080fd5b50615b57806100206000396000f3fe60806040523480156200001157600080fd5b50600436106200003a5760003560e01c80634420002b146200003f578063dc19e842146200006e575b600080fd5b6200005662000050366004620002d9565b62000094565b60405162000065919062000481565b60405180910390f35b620000856200007f366004620002b4565b62000252565b604051620000659190620005b0565b60006002620000a7604085018562000655565b90501015620000d35760405162461bcd60e51b8152600401620000ca9062000629565b60405180910390fd5b620000e2604084018462000655565b9050620000f3606085018562000655565b905014620001155760405162461bcd60e51b8152600401620000ca90620005f2565b62000124604084018462000655565b905062000135608085018562000655565b905014620001575760405162461bcd60e51b8152600401620000ca90620005bb565b60008484846040516200016a9062000270565b620001789392919062000495565b604051809103906000f08015801562000195573d6000803e3d6000fd5b506040519091506001600160a01b0382169033907f8aaa45dbe91f274e1c80489691f3d62dbf595d587fcc6a989fa27696e7c2a23290600090a36001600160a01b03811660008181526020819052604090819020805460ff19166001179055516392eefe9b60e01b81526392eefe9b906200021590339060040162000481565b600060405180830381600087803b1580156200023057600080fd5b505af115801562000245573d6000803e3d6000fd5b5092979650505050505050565b6001600160a01b031660009081526020819052604090205460ff1690565b6153c7806200075b83390190565b80356001600160a01b03811681146200029657600080fd5b92915050565b600060c08284031215620002ae578081fd5b50919050565b600060208284031215620002c6578081fd5b620002d283836200027e565b9392505050565b60008060006101008486031215620002ef578182fd5b620002fb85856200027e565b9250602084013567ffffffffffffffff81111562000317578283fd5b62000325868287016200029c565b9250506200033785604086016200029c565b90509250925092565b60008284526020808501945082825b8581101562000381578183016001600160a01b036200036f82856200027e565b1688529683019691506001016200034f565b509495945050505050565b81835260006001600160fb1b03831115620003a5578081fd5b6020830280836020870137939093016020019283525090919050565b15159052565b60008284528282602086013780602084860101526020601f19601f85011685010190509392505050565b8035620003fe8162000748565b151582526020810135620004128162000748565b151560208301526040810135620004298162000748565b151560408301526060810135620004408162000748565b151560608301526080810135620004578162000748565b151560808301526200046d60a0820182620006f1565b6200047c60a0840182620003c1565b505050565b6001600160a01b0391909116815260200190565b6001600160a01b038416815261010060208201819052600090620004ba858062000700565b60c083860152620004d16101c086018284620003c7565b92505050620004e4602086018662000700565b60ff198086850301610120870152620004ff848385620003c7565b9350620005106040890189620006a6565b9350915080868503016101408701526200052c84848462000340565b93506200053d6060890189620006a6565b935091508086850301610160870152620005598484846200038c565b93506200056a6080890189620006a6565b93509150808685030161018087015250620005878383836200038c565b60a08801356101a08701529350620005a892505060408401905084620003f1565b949350505050565b901515815260200190565b6020808252601a908201527f4552525f53544152545f574549474854535f4d49534d41544348000000000000604082015260600190565b6020808252601b908201527f4552525f53544152545f42414c414e4345535f4d49534d415443480000000000604082015260600190565b6020808252601290820152714552525f544f4f5f4645575f544f4b454e5360701b604082015260600190565b6000808335601e198436030181126200066c578283fd5b83018035915067ffffffffffffffff82111562000687578283fd5b60209081019250810236038213156200069f57600080fd5b9250929050565b6000808335601e19843603018112620006bd578283fd5b830160208101925035905067ffffffffffffffff811115620006de57600080fd5b6020810236038313156200069f57600080fd5b60008235620002d28162000748565b6000808335601e1984360301811262000717578283fd5b830160208101925035905067ffffffffffffffff8111156200073857600080fd5b8036038313156200069f57600080fd5b80151581146200075757600080fd5b5056fe60806040523480156200001157600080fd5b50604051620053c7380380620053c78339810160408190526200003491620006c7565b815160208084015182519091620000519160039185019062000337565b5080516200006790600490602084019062000337565b5050600580546001600160a01b03191633179055506001600655620f4240670de0b6b3a7640000048260a001511015620000be5760405162461bcd60e51b8152600401620000b590620008ef565b60405180910390fd5b60a082015167016345785d8a00001015620000ed5760405162461bcd60e51b8152600401620000b590620008ef565b81604001515182606001515114620001195760405162461bcd60e51b8152600401620000b5906200088c565b81604001515182608001515114620001455760405162461bcd60e51b8152600401620000b59062000855565b600282604001515110156200016e5760405162461bcd60e51b8152600401620000b590620008c3565b60088260400151511115620001975760405162461bcd60e51b8152600401620000b59062000926565b60408083015190516377d4434960e01b815273__SmartPoolManager______________________916377d4434991620001d4919060040162000806565b60006040518083038186803b158015620001ed57600080fd5b505af415801562000202573d6000803e3d6000fd5b5050600780546001600160a01b0319166001600160a01b03871617905550508051600980546020808501516040808701516060880151608089015160a08a015160ff199097169815159890981761ff001916610100941515949094029390931762ff0000191662010000911515919091021763ff00000019166301000000921515929092029190911760ff60201b1916640100000000951515959095029490941760ff60281b1916650100000000009215159290920291909117909155908301518051620002d5926013920190620003bc565b5060608201518051620002f19160149160209091019062000422565b5060a082015160125562015f906015556101f4601655608082015180516200032291600c9160209091019062000422565b50506000600a555050600019601855620009b6565b828054600181600116156101000203166002900490600052602060002090601f016020900481019282601f106200037a57805160ff1916838001178555620003aa565b82800160010185558215620003aa579182015b82811115620003aa5782518255916020019190600101906200038d565b50620003b89291506200045f565b5090565b82805482825590600052602060002090810192821562000414579160200282015b828111156200041457825182546001600160a01b0319166001600160a01b03909116178255602090920191600190910190620003dd565b50620003b892915062000476565b828054828255906000526020600020908101928215620003aa5791602002820182811115620003aa5782518255916020019190600101906200038d565b5b80821115620003b8576000815560010162000460565b5b80821115620003b85780546001600160a01b031916815560010162000477565b80516001600160a01b0381168114620004af57600080fd5b92915050565b600082601f830112620004c6578081fd5b8151620004dd620004d78262000984565b6200095d565b818152915060208083019084810181840286018201871015620004ff57600080fd5b60005b848110156200052a5762000517888362000497565b8452928201929082019060010162000502565b505050505092915050565b600082601f83011262000546578081fd5b815162000557620004d78262000984565b8181529150602080830190848101818402860182018710156200057957600080fd5b60005b848110156200052a578151845292820192908201906001016200057c565b600082601f830112620005ab578081fd5b81516001600160401b03811115620005c1578182fd5b6020620005d7601f8301601f191682016200095d565b92508183528481838601011115620005ee57600080fd5b60005b828110156200060e578481018201518482018301528101620005f1565b82811115620006205760008284860101525b50505092915050565b600060c082840312156200063b578081fd5b6200064760c06200095d565b905081516200065681620009a4565b815260208201516200066881620009a4565b602082015260408201516200067d81620009a4565b604082015260608201516200069281620009a4565b60608201526080820151620006a781620009a4565b608082015260a0820151620006bc81620009a4565b60a082015292915050565b60008060006101008486031215620006dd578283fd5b620006e9858562000497565b60208501519093506001600160401b038082111562000706578384fd5b9085019060c082880312156200071a578384fd5b6200072660c06200095d565b82518281111562000735578586fd5b62000743898286016200059a565b82525060208301518281111562000758578586fd5b62000766898286016200059a565b6020830152506040830151828111156200077e578586fd5b6200078c89828601620004b5565b604083015250606083015182811115620007a4578586fd5b620007b28982860162000535565b606083015250608083015182811115620007ca578586fd5b620007d88982860162000535565b60808301525060a083015160a0820152809450505050620007fd856040860162000629565b90509250925092565b6020808252825182820181905260009190848201906040850190845b81811015620008495783516001600160a01b03168352928401929184019160010162000822565b50909695505050505050565b6020808252601a908201527f4552525f53544152545f574549474854535f4d49534d41544348000000000000604082015260600190565b6020808252601b908201527f4552525f53544152545f42414c414e4345535f4d49534d415443480000000000604082015260600190565b6020808252601290820152714552525f544f4f5f4645575f544f4b454e5360701b604082015260600190565b60208082526014908201527f4552525f494e56414c49445f535741505f464545000000000000000000000000604082015260600190565b60208082526013908201527f4552525f544f4f5f4d414e595f544f4b454e5300000000000000000000000000604082015260600190565b6040518181016001600160401b03811182821017156200097c57600080fd5b604052919050565b60006001600160401b038211156200099a578081fd5b5060209081020190565b8015158114620009b357600080fd5b50565b614a0180620009c66000396000f3fe608060405234801561001057600080fd5b506004361061035d5760003560e01c806370a08231116101d3578063b02f0b7311610104578063dd62ed3e116100a2578063e7f1a5541161007c578063e7f1a554146106d7578063e854f53d146106df578063f226b528146106e7578063fde924f7146106ef5761035d565b8063dd62ed3e146106a9578063e211b875146106bc578063e2762d4b146106c45761035d565b8063c3391d27116100de578063c3391d2714610657578063c42bd05a1461066a578063c83a1c2d14610683578063d73dd623146106965761035d565b8063b02f0b7314610634578063b64ef17b14610647578063c275d81b1461064f5761035d565b80639776e94b116101715780639d829c2b1161014b5780639d829c2b14610609578063a3f4df7e14610611578063a835a0de14610619578063a9059cbb146106215761035d565b80639776e94b146105d4578063980e8db6146105e75780639a82417e146106015761035d565b80638259e6a0116101ad5780638259e6a01461059357806392eefe9b146105a6578063948d8ce6146105b957806395d89b41146105cc5761035d565b806370a082311461056557806374983a0d14610578578063806c6f87146105805761035d565b806334e19907116102ad5780634f69c0d41161024b5780635db34277116102255780635db34277146105195780635fa7b5841461052c578063661884631461053f5780636d06dfa0146105525761035d565b80634f69c0d4146104dd57806355c32a23146104f05780635a8342d8146105035761035d565b806347786d371161028757806347786d371461049157806349b59552146104a45780634ba57882146104b75780634c20d209146104ca5761035d565b806334e199071461045857806337c6f4d91461046b57806346ab38f11461047e5761035d565b806318160ddd1161031a578063246bc19b116102f4578063246bc19b146104205780632e0f2625146104335780633018205f14610448578063313ce567146104505761035d565b806318160ddd146103f2578063220eb760146103fa57806323b872dd1461040d5761035d565b806302c967481461036257806306fdde031461038b578063095dcccc146103a0578063095ea7b3146103b55780630a165940146103d55780630ce27925146103ea575b600080fd5b610375610370366004613db8565b6106f7565b6040516103829190614911565b60405180910390f35b6103936108be565b6040516103829190614357565b6103b36103ae366004613d8d565b610954565b005b6103c86103c3366004613d8d565b610981565b604051610382919061418c565b6103dd6109d9565b60405161038291906140d2565b6103756109e8565b6103756109ee565b6103b3610408366004613f82565b6109f4565b6103c861041b366004613d4d565b610a1f565b6103b361042e366004613e85565b610b4d565b61043b610ce1565b6040516103829190614928565b6103dd610ce6565b61043b610cf5565b6103b3610466366004613f82565b610cfa565b6103c8610479366004613f63565b610e3f565b61037561048c366004613db8565b610ed4565b6103b361049f366004613f82565b611082565b6103b36104b2366004613f0f565b6111b0565b6103b36104c5366004613f82565b6112b6565b6103b36104d8366004613db8565b6112de565b6103b36104eb366004613fb2565b6114ff565b6103b36104fe366004613d8d565b6118f1565b61050b61191a565b60405161038292919061491a565b610375610527366004613db8565b611923565b6103b361053a366004613cf9565b611ae8565b6103c861054d366004613d8d565b611c83565b610375610560366004613db8565b611d5d565b610375610573366004613cf9565b611f22565b6103dd611f3d565b6103c861058e366004613cf9565b611f55565b6103b36105a1366004613f82565b611f9e565b6103b36105b4366004613cf9565b61203b565b6103756105c7366004613cf9565b6120e7565b6103936121b4565b6103b36105e2366004613d8d565b612215565b6105ef612394565b60405161038296959493929190614197565b6103dd6123cf565b6103dd6123e7565b6103936123ff565b61037561242e565b6103c861062f366004613d8d565b612434565b6103b3610642366004613fb2565b612470565b6103dd612804565b6103b3612813565b6103b361066536600461406d565b612972565b610672612a3b565b604051610382959493929190614124565b6103b3610691366004613cf9565b612a62565b6103c86106a4366004613d8d565b612b55565b6103756106b7366004613d15565b612bc9565b6103b3612bf4565b6103b36106d2366004613cf9565b612ceb565b610375612e12565b610375612e18565b610375612e1e565b6103c8612e25565b60405160009033906001600160e01b03198335169061071990849036906141c7565b60405180910390a26002600654141561074d5760405162461bcd60e51b8152600401610744906145e3565b60405180910390fd5b60026006556008546001600160a01b031661077a5760405162461bcd60e51b815260040161074490614565565b60085460405163724a2d5360e01b8152600091829173__SmartPoolManager______________________9163724a2d53916107cb9130916001600160a01b03909116908b908b908b906004016142bb565b604080518083038186803b1580156107e257600080fd5b505af41580156107f6573d6000803e3d6000fd5b505050506040513d601f19601f8201168201806040525081019061081a9190613ffc565b91509150809250600061082d8484612efd565b9050866001600160a01b0316336001600160a01b03167fc62fc35ac75e3bff532648e2859a3e1694002cfa357614ae8e034df7f83db5e9886040516108729190614911565b60405180910390a36108843385611910565b61088d81610a13565b6007546108a3906001600160a01b031684610973565b6108ae873388612f36565b5050505b60016006559392505050565b60048054604080516020601f600260001961010060018816150201909516949094049384018190048102820181019092528281526060939092909183018282801561094a5780601f1061091f5761010080835404028352916020019161094a565b820191906000526020600020905b81548152906001019060200180831161092d57829003601f168201915b5050505050905090565b3330146109735760405162461bcd60e51b8152600401610744906143aa565b61097d828261317f565b5050565b3360008181526002602090815260408083206001600160a01b038716808552925280832085905551919290916000805160206149ac833981519152906109c8908690614911565b60405180910390a350600192915050565b6007546001600160a01b031681565b60185481565b60005490565b333014610a135760405162461bcd60e51b8152600401610744906143aa565b610a1c8161318a565b50565b60006001600160a01b038316610a475760405162461bcd60e51b81526004016107449061449d565b336001600160a01b0385161480610a8157506001600160a01b03841660009081526002602090815260408083203384529091529020548211155b610a9d5760405162461bcd60e51b8152600401610744906146eb565b610aa8848484613204565b6001600160a01b0384166000818152600260209081526040808320338085529252909120549114801590610ade57506000198114155b15610b4057610aed8184612efd565b6001600160a01b0386811660009081526002602090815260408083203380855292529182902084905590519187169290916000805160206149ac83398151915291610b3791614911565b60405180910390a35b60019150505b9392505050565b336001600160a01b03166000356001600160e01b0319166001600160e01b031916600036604051610b7f9291906141c7565b60405180910390a260026006541415610baa5760405162461bcd60e51b8152600401610744906145e3565b60026006556005546001600160a01b03163314610bd95760405162461bcd60e51b8152600401610744906143aa565b6008546001600160a01b0316610c015760405162461bcd60e51b815260040161074490614565565b60095462010000900460ff16610c295760405162461bcd60e51b8152600401610744906144fe565b600e54600160a01b900460ff1615610c535760405162461bcd60e51b81526004016107449061471b565b6008546015546040516304ee2fc960e21b815273__SmartPoolManager______________________926313b8bf2492610ca6926001600160a01b0390921691600a918a918a918a918a9190600401614227565b60006040518083038186803b158015610cbe57600080fd5b505af4158015610cd2573d6000803e3d6000fd5b50506001600655505050505050565b601281565b6005546001600160a01b031690565b601290565b336001600160a01b03166000356001600160e01b0319166001600160e01b031916600036604051610d2c9291906141c7565b60405180910390a260026006541415610d575760405162461bcd60e51b8152600401610744906145e3565b60026006556005546001600160a01b03163314610d865760405162461bcd60e51b8152600401610744906143aa565b6008546001600160a01b0316610dae5760405162461bcd60e51b815260040161074490614565565b600954610100900460ff16610dd55760405162461bcd60e51b81526004016107449061482e565b6008546040516334e1990760e01b81526001600160a01b03909116906334e1990790610e05908490600401614911565b600060405180830381600087803b158015610e1f57600080fd5b505af1158015610e33573d6000803e3d6000fd5b50506001600655505050565b6040516322c1aa2560e11b815260009073__RightsManager_________________________90634583544a90610e7c90600990869060040161489c565b60206040518083038186803b158015610e9457600080fd5b505af4158015610ea8573d6000803e3d6000fd5b505050506040513d601f19601f82011682018060405250810190610ecc9190613f2b565b90505b919050565b60405160009033906001600160e01b031983351690610ef690849036906141c7565b60405180910390a260026006541415610f215760405162461bcd60e51b8152600401610744906145e3565b60026006556008546001600160a01b0316610f4e5760405162461bcd60e51b815260040161074490614565565b600854604051636a82d4a760e11b8152600091829173__SmartPoolManager______________________9163d505a94e91610f9f9130916001600160a01b03909116908b908b908b906004016142bb565b604080518083038186803b158015610fb657600080fd5b505af4158015610fca573d6000803e3d6000fd5b505050506040513d601f19601f82011682018060405250810190610fee9190613ffc565b9150915080925060006110018684612efd565b9050866001600160a01b0316336001600160a01b03167fc62fc35ac75e3bff532648e2859a3e1694002cfa357614ae8e034df7f83db5e9866040516110469190614911565b60405180910390a36110583387611910565b61106181610a13565b600754611077906001600160a01b031684610973565b6108ae873386612f36565b336001600160a01b03166000356001600160e01b0319166001600160e01b0319166000366040516110b49291906141c7565b60405180910390a2600260065414156110df5760405162461bcd60e51b8152600401610744906145e3565b60026006556008546001600160a01b031661110c5760405162461bcd60e51b815260040161074490614565565b6005546001600160a01b031633146111365760405162461bcd60e51b8152600401610744906143aa565b60095465010000000000900460ff166111615760405162461bcd60e51b81526004016107449061465f565b336001600160a01b03167f6bc200110c7794738d401810b22ef824a2044a8ccb022d4ad8769840370331f56018548360405161119e92919061491a565b60405180910390a26018556001600655565b336001600160a01b03166000356001600160e01b0319166001600160e01b0319166000366040516111e29291906141c7565b60405180910390a26002600654141561120d5760405162461bcd60e51b8152600401610744906145e3565b60026006556005546001600160a01b0316331461123c5760405162461bcd60e51b8152600401610744906143aa565b6008546001600160a01b03166112645760405162461bcd60e51b815260040161074490614565565b60095460ff166112865760405162461bcd60e51b8152600401610744906147aa565b6008546040516324dacaa960e11b81526001600160a01b03909116906349b5955290610e0590849060040161418c565b3330146112d55760405162461bcd60e51b8152600401610744906143aa565b610a1c816132b5565b336001600160a01b03166000356001600160e01b0319166001600160e01b0319166000366040516113109291906141c7565b60405180910390a26002600654141561133b5760405162461bcd60e51b8152600401610744906145e3565b60026006556005546001600160a01b0316331461136a5760405162461bcd60e51b8152600401610744906143aa565b6008546001600160a01b03166113925760405162461bcd60e51b815260040161074490614565565b6009546301000000900460ff166113bb5760405162461bcd60e51b8152600401610744906143d6565b600a54156113db5760405162461bcd60e51b815260040161074490614865565b604051630e0d789b60e11b815273__SmartPoolManager______________________90631c1af136906114129086906004016140d2565b60006040518083038186803b15801561142a57600080fd5b505af415801561143e573d6000803e3d6000fd5b50506040513392503091506001600160a01b038616907f33b043686b9408a355896fe90b2f8ecc86a41d87d1554ef65a739948b4f23e2790600090a460085460405163b489ec1960e01b815273__SmartPoolManager______________________9163b489ec19916114c5916001600160a01b031690879087908790600e906004016141f6565b60006040518083038186803b1580156114dd57600080fd5b505af41580156114f1573d6000803e3d6000fd5b505060016006555050505050565b336001600160a01b03166000356001600160e01b0319166001600160e01b0319166000366040516115319291906141c7565b60405180910390a26002600654141561155c5760405162461bcd60e51b8152600401610744906145e3565b60026006556008546001600160a01b03166115895760405162461bcd60e51b815260040161074490614565565b6008546040805163fde924f760e01b815290516000926001600160a01b03169163fde924f7916004808301926020929190829003018186803b1580156115ce57600080fd5b505afa1580156115e2573d6000803e3d6000fd5b505050506040513d601f19601f820116820180604052508101906116069190613f2b565b6008546040516324dacaa960e11b81529192506001600160a01b0316906349b59552906116389060009060040161418c565b600060405180830381600087803b15801561165257600080fd5b505af1158015611666573d6000803e3d6000fd5b5050600954600160201b900460ff1615915081905061169457503360009081526017602052604090205460ff165b6116b05760405162461bcd60e51b815260040161074490614442565b60085460405163a1925f1d60e01b815260609173__SmartPoolManager______________________9163a1925f1d916116fd9130916001600160a01b0316908a908a908a906004016142ef565b60006040518083038186803b15801561171557600080fd5b505af4158015611729573d6000803e3d6000fd5b505050506040513d6000823e601f3d908101601f191682016040526117519190810190613ed4565b90506060600860009054906101000a90046001600160a01b03166001600160a01b031663cc77828d6040518163ffffffff1660e01b815260040160006040518083038186803b1580156117a357600080fd5b505afa1580156117b7573d6000803e3d6000fd5b505050506040513d6000823e601f3d908101601f191682016040526117df9190810190613dec565b905060005b815181101561187d5760008282815181106117fb57fe5b60200260200101519050600084838151811061181357fe5b60200260200101519050816001600160a01b0316336001600160a01b03167fea39e3b35c5cd8937999ed5f7fbab30acd562a931fc4a887fed2a47c3074aa72836040516118609190614911565b60405180910390a36118738233836132e2565b50506001016117e4565b50611887866112d5565b6118913387610973565b50506008546040516324dacaa960e11b81526001600160a01b03909116906349b59552906118c390849060040161418c565b600060405180830381600087803b1580156118dd57600080fd5b505af1158015610cd2573d6000803e3d6000fd5b3330146119105760405162461bcd60e51b8152600401610744906143aa565b61097d828261352b565b600a54600b5482565b60405160009033906001600160e01b03198335169061194590849036906141c7565b60405180910390a2600260065414156119705760405162461bcd60e51b8152600401610744906145e3565b60026006556008546001600160a01b031661199d5760405162461bcd60e51b815260040161074490614565565b600954600160201b900460ff1615806119c557503360009081526017602052604090205460ff165b6119e15760405162461bcd60e51b815260040161074490614442565b60085460405163df90de0b60e01b815273__SmartPoolManager______________________9163df90de0b91611a2d9130916001600160a01b03909116908990899089906004016142bb565b60206040518083038186803b158015611a4557600080fd5b505af4158015611a59573d6000803e3d6000fd5b505050506040513d601f19601f82011682018060405250810190611a7d9190613f9a565b9050836001600160a01b0316336001600160a01b03167fea39e3b35c5cd8937999ed5f7fbab30acd562a931fc4a887fed2a47c3074aa7285604051611ac29190614911565b60405180910390a3611ad3816112d5565b611add3382610973565b6108b28433856132e2565b336001600160a01b03166000356001600160e01b0319166001600160e01b031916600036604051611b1a9291906141c7565b60405180910390a260026006541415611b455760405162461bcd60e51b8152600401610744906145e3565b60026006556005546001600160a01b03163314611b745760405162461bcd60e51b8152600401610744906143aa565b6008546001600160a01b0316611b9c5760405162461bcd60e51b815260040161074490614565565b6009546301000000900460ff16611bc55760405162461bcd60e51b8152600401610744906143d6565b600e54600160a01b900460ff1615611bef5760405162461bcd60e51b81526004016107449061474a565b600a5415611c0f5760405162461bcd60e51b815260040161074490614865565b600854604051630970e47f60e01b815273__SmartPoolManager______________________91630970e47f91611c579130916001600160a01b0390911690869060040161426e565b60006040518083038186803b158015611c6f57600080fd5b505af4158015610e33573d6000803e3d6000fd5b3360009081526002602090815260408083206001600160a01b0386168452909152812054808310611cd7573360009081526002602090815260408083206001600160a01b0388168452909152812055611d06565b611ce18184612efd565b3360009081526002602090815260408083206001600160a01b03891684529091529020555b3360008181526002602090815260408083206001600160a01b0389168085529252918290205491519092916000805160206149ac83398151915291611d4b9190614911565b60405180910390a35060019392505050565b60405160009033906001600160e01b031983351690611d7f90849036906141c7565b60405180910390a260026006541415611daa5760405162461bcd60e51b8152600401610744906145e3565b60026006556008546001600160a01b0316611dd75760405162461bcd60e51b815260040161074490614565565b600954600160201b900460ff161580611dff57503360009081526017602052604090205460ff165b611e1b5760405162461bcd60e51b815260040161074490614442565b600854604051636a6dc6e760e01b815273__SmartPoolManager______________________91636a6dc6e791611e679130916001600160a01b03909116908990899089906004016142bb565b60206040518083038186803b158015611e7f57600080fd5b505af4158015611e93573d6000803e3d6000fd5b505050506040513d601f19601f82011682018060405250810190611eb79190613f9a565b9050836001600160a01b0316336001600160a01b03167fea39e3b35c5cd8937999ed5f7fbab30acd562a931fc4a887fed2a47c3074aa7283604051611efc9190614911565b60405180910390a3611f0d836112d5565b611f173384610973565b6108b28433836132e2565b6001600160a01b031660009081526001602052604090205490565b73__RightsManager_________________________90565b600954600090600160201b900460ff1615611f8c57506001600160a01b03811660009081526017602052604090205460ff16610ecf565b506001600160a01b0381161515610ecf565b6005546001600160a01b03163314611fc85760405162461bcd60e51b8152600401610744906143aa565b336001600160a01b03166000356001600160e01b0319166001600160e01b031916600036604051611ffa9291906141c7565b60405180910390a2600260065414156120255760405162461bcd60e51b8152600401610744906145e3565b600260065561203381613536565b506001600655565b6005546001600160a01b031633146120655760405162461bcd60e51b8152600401610744906143aa565b6001600160a01b03811661208b5760405162461bcd60e51b81526004016107449061449d565b6005546040516001600160a01b038084169216907f8be0079c531659141344cd1fd0a4f28419497f9722a3daafe3b4186f6b6457e090600090a3600580546001600160a01b0319166001600160a01b0392909216919091179055565b60006002600654141561210c5760405162461bcd60e51b815260040161074490614608565b6008546001600160a01b03166121345760405162461bcd60e51b815260040161074490614565565b600854604051634a46c67360e11b81526001600160a01b039091169063948d8ce6906121649085906004016140d2565b60206040518083038186803b15801561217c57600080fd5b505afa158015612190573d6000803e3d6000fd5b505050506040513d601f19601f82011682018060405250810190610ecc9190613f9a565b60038054604080516020601f600260001961010060018816150201909516949094049384018190048102820181019092528281526060939092909183018282801561094a5780601f1061091f5761010080835404028352916020019161094a565b336001600160a01b03166000356001600160e01b0319166001600160e01b0319166000366040516122479291906141c7565b60405180910390a2600260065414156122725760405162461bcd60e51b8152600401610744906145e3565b60026006556005546001600160a01b031633146122a15760405162461bcd60e51b8152600401610744906143aa565b6008546001600160a01b03166122c95760405162461bcd60e51b815260040161074490614565565b60095462010000900460ff166122f15760405162461bcd60e51b8152600401610744906144fe565b600a54156123115760405162461bcd60e51b815260040161074490614865565b600854604051633d512a8760e21b815273__SmartPoolManager______________________9163f544aa1c9161235b9130916001600160a01b039091169087908790600401614291565b60006040518083038186803b15801561237357600080fd5b505af4158015612387573d6000803e3d6000fd5b5050600160065550505050565b60095460ff80821691610100810482169162010000820481169163010000008104821691600160201b82048116916501000000000090041686565b73__BalancerSafeMath______________________90565b73__SmartPoolManager______________________90565b6040518060400160405280601381526020017210985b185b98d95c8814db585c9d08141bdbdb606a1b81525081565b6101f481565b60006001600160a01b03831661245c5760405162461bcd60e51b81526004016107449061449d565b612467338484613204565b50600192915050565b336001600160a01b03166000356001600160e01b0319166001600160e01b0319166000366040516124a29291906141c7565b60405180910390a2600260065414156124cd5760405162461bcd60e51b8152600401610744906145e3565b60026006556008546001600160a01b03166124fa5760405162461bcd60e51b815260040161074490614565565b6008546040805163fde924f760e01b815290516000926001600160a01b03169163fde924f7916004808301926020929190829003018186803b15801561253f57600080fd5b505afa158015612553573d6000803e3d6000fd5b505050506040513d601f19601f820116820180604052508101906125779190613f2b565b6008546040516324dacaa960e11b81529192506001600160a01b0316906349b59552906125a99060009060040161418c565b600060405180830381600087803b1580156125c357600080fd5b505af11580156125d7573d6000803e3d6000fd5b505060085460405163151c70f960e21b81526000935083925060609173__SmartPoolManager______________________91635471c3e49161262d9130916001600160a01b0316908c908c908c906004016142ef565b60006040518083038186803b15801561264557600080fd5b505af4158015612659573d6000803e3d6000fd5b505050506040513d6000823e601f3d908101601f19168201604052612681919081019061401f565b9250925092506126913388611910565b6007546126a7906001600160a01b031684610973565b6126b082610a13565b6008546040805163cc77828d60e01b815290516060926001600160a01b03169163cc77828d916004808301926000929190829003018186803b1580156126f557600080fd5b505afa158015612709573d6000803e3d6000fd5b505050506040513d6000823e601f3d908101601f191682016040526127319190810190613dec565b905060005b81518110156127cf57600082828151811061274d57fe5b60200260200101519050600084838151811061276557fe5b60200260200101519050816001600160a01b0316336001600160a01b03167fc62fc35ac75e3bff532648e2859a3e1694002cfa357614ae8e034df7f83db5e9836040516127b29190614911565b60405180910390a36127c5823383612f36565b5050600101612736565b50506008546040516324dacaa960e11b81526001600160a01b0390911693506349b5955292506118c39150849060040161418c565b6008546001600160a01b031681565b336001600160a01b03166000356001600160e01b0319166001600160e01b0319166000366040516128459291906141c7565b60405180910390a2600260065414156128705760405162461bcd60e51b8152600401610744906145e3565b60026006556005546001600160a01b0316331461289f5760405162461bcd60e51b8152600401610744906143aa565b6008546001600160a01b03166128c75760405162461bcd60e51b815260040161074490614565565b6009546301000000900460ff166128f05760405162461bcd60e51b8152600401610744906143d6565b600854601654604051633be961dd60e21b815273__SmartPoolManager______________________9263efa587749261293b9230926001600160a01b03169190600e9060040161432e565b60006040518083038186803b15801561295357600080fd5b505af4158015612967573d6000803e3d6000fd5b505060016006555050565b6005546001600160a01b0316331461299c5760405162461bcd60e51b8152600401610744906143aa565b336001600160a01b03166000356001600160e01b0319166001600160e01b0319166000366040516129ce9291906141c7565b60405180910390a2600260065414156129f95760405162461bcd60e51b8152600401610744906145e3565b600260065580821015612a1e5760405162461bcd60e51b81526004016107449061440d565b60158290556016819055612a3183613536565b5050600160065550565b600e54600f546010546011546001600160a01b03841693600160a01b900460ff1692919085565b6005546001600160a01b03163314612a8c5760405162461bcd60e51b8152600401610744906143aa565b60026006541415612aaf5760405162461bcd60e51b8152600401610744906145e3565b60026006556040513390600080356001600160e01b03191691612ad4919036906141c7565b60405180910390a2600954600160201b900460ff16612b055760405162461bcd60e51b8152600401610744906144c7565b6001600160a01b038116612b2b5760405162461bcd60e51b815260040161074490614632565b6001600160a01b03166000908152601760205260409020805460ff19166001908117909155600655565b3360009081526002602090815260408083206001600160a01b0386168452909152812054612b8390836139e2565b3360008181526002602090815260408083206001600160a01b038916808552925291829020849055905190926000805160206149ac833981519152916109c89190614911565b6001600160a01b03918216600090815260026020908152604080832093909416825291909152205490565b336001600160a01b03166000356001600160e01b0319166001600160e01b031916600036604051612c269291906141c7565b60405180910390a260026006541415612c515760405162461bcd60e51b8152600401610744906145e3565b60026006556008546001600160a01b0316612c7e5760405162461bcd60e51b815260040161074490614565565b60095462010000900460ff16612ca65760405162461bcd60e51b8152600401610744906144fe565b6008546040516382495b4560e01b815273__SmartPoolManager______________________916382495b459161293b916001600160a01b031690600a90600401614152565b6005546001600160a01b03163314612d155760405162461bcd60e51b8152600401610744906143aa565b60026006541415612d385760405162461bcd60e51b8152600401610744906145e3565b60026006556040513390600080356001600160e01b03191691612d5d919036906141c7565b60405180910390a2600954600160201b900460ff16612d8e5760405162461bcd60e51b8152600401610744906144c7565b6001600160a01b03811660009081526017602052604090205460ff16612dc65760405162461bcd60e51b815260040161074490614535565b6001600160a01b038116612dec5760405162461bcd60e51b815260040161074490614632565b6001600160a01b03166000908152601760205260409020805460ff191690556001600655565b60165481565b60155481565b62015f9081565b600060026006541415612e4a5760405162461bcd60e51b815260040161074490614608565b6008546001600160a01b0316612e725760405162461bcd60e51b815260040161074490614565565b600860009054906101000a90046001600160a01b03166001600160a01b031663fde924f76040518163ffffffff1660e01b815260040160206040518083038186803b158015612ec057600080fd5b505afa158015612ed4573d6000803e3d6000fd5b505050506040513d601f19601f82011682018060405250810190612ef89190613f2b565b905090565b6000806000612f0c8585613a07565b915091508015612f2e5760405162461bcd60e51b8152600401610744906147d9565b509392505050565b6008546001600160a01b0316612f5e5760405162461bcd60e51b815260040161074490614565565b60085460405163f8b2cb4f60e01b81526000916001600160a01b03169063f8b2cb4f90612f8f9087906004016140d2565b60206040518083038186803b158015612fa757600080fd5b505afa158015612fbb573d6000803e3d6000fd5b505050506040513d601f19601f82011682018060405250810190612fdf9190613f9a565b600854604051634a46c67360e11b81529192506000916001600160a01b039091169063948d8ce6906130159088906004016140d2565b60206040518083038186803b15801561302d57600080fd5b505afa158015613041573d6000803e3d6000fd5b505050506040513d601f19601f820116820180604052508101906130659190613f9a565b6008549091506001600160a01b0316633fdddaa2866130848587612efd565b846040518463ffffffff1660e01b81526004016130a39392919061416b565b600060405180830381600087803b1580156130bd57600080fd5b505af11580156130d1573d6000803e3d6000fd5b505060405163a9059cbb60e01b8152600092506001600160a01b038816915063a9059cbb906131069088908890600401614152565b602060405180830381600087803b15801561312057600080fd5b505af1158015613134573d6000803e3d6000fd5b505050506040513d601f19601f820116820180604052508101906131589190613f2b565b9050806131775760405162461bcd60e51b815260040161074490614781565b505050505050565b61097d308383613204565b306000908152600160205260409020546131a49082612efd565b30600090815260016020526040812091909155546131c29082612efd565b600090815560405130907fddf252ad1be2c89b69c2b068fc378daa952ba7f163c4a11628f55a4df523b3ef906131f9908590614911565b60405180910390a350565b6001600160a01b0383166000908152600160205260409020546132279082612efd565b6001600160a01b03808516600090815260016020526040808220939093559084168152205461325690826139e2565b6001600160a01b0380841660008181526001602052604090819020939093559151908516907fddf252ad1be2c89b69c2b068fc378daa952ba7f163c4a11628f55a4df523b3ef906132a8908590614911565b60405180910390a3505050565b6132be81613a2c565b6018546000541115610a1c5760405162461bcd60e51b8152600401610744906146bc565b6008546001600160a01b031661330a5760405162461bcd60e51b815260040161074490614565565b60085460405163f8b2cb4f60e01b81526000916001600160a01b03169063f8b2cb4f9061333b9087906004016140d2565b60206040518083038186803b15801561335357600080fd5b505afa158015613367573d6000803e3d6000fd5b505050506040513d601f19601f8201168201806040525081019061338b9190613f9a565b600854604051634a46c67360e11b81529192506000916001600160a01b039091169063948d8ce6906133c19088906004016140d2565b60206040518083038186803b1580156133d957600080fd5b505afa1580156133ed573d6000803e3d6000fd5b505050506040513d601f19601f820116820180604052508101906134119190613f9a565b90506000856001600160a01b03166323b872dd8630876040518463ffffffff1660e01b8152600401613445939291906140e6565b602060405180830381600087803b15801561345f57600080fd5b505af1158015613473573d6000803e3d6000fd5b505050506040513d601f19601f820116820180604052508101906134979190613f2b565b9050806134b65760405162461bcd60e51b815260040161074490614781565b6008546001600160a01b0316633fdddaa2876134d286886139e2565b856040518463ffffffff1660e01b81526004016134f19392919061416b565b600060405180830381600087803b15801561350b57600080fd5b505af115801561351f573d6000803e3d6000fd5b50505050505050505050565b61097d823083613204565b6008546001600160a01b03161561355f5760405162461bcd60e51b81526004016107449061458e565b68056bc75e2d631000008110156135885760405162461bcd60e51b8152600401610744906145b6565b6b033b2e3c9fd0803ce80000008111156135b45760405162461bcd60e51b815260040161074490614470565b60095465010000000000900460ff16156135ce5760188190555b6135d7816112d5565b6135e13382610973565b600760009054906101000a90046001600160a01b03166001600160a01b031663d556c5dc6040518163ffffffff1660e01b8152600401602060405180830381600087803b15801561363157600080fd5b505af1158015613645573d6000803e3d6000fd5b505050506040513d601f19601f820116820180604052508101906136699190613f47565b600880546001600160a01b0319166001600160a01b0392831617908190556040805163632c068960e11b81529051919092169163c6580d12916004808301926020929190829003018186803b1580156136c157600080fd5b505afa1580156136d5573d6000803e3d6000fd5b505050506040513d601f19601f820116820180604052508101906136f99190613f9a565b156137165760405162461bcd60e51b81526004016107449061468e565b60005b6013548110156138d85760006013828154811061373257fe5b6000918252602082200154601480546001600160a01b039092169350908490811061375957fe5b906000526020600020015490506000600a600201848154811061377857fe5b60009182526020822001546040516323b872dd60e01b81529092506001600160a01b038516906323b872dd906137b6903390309088906004016140e6565b602060405180830381600087803b1580156137d057600080fd5b505af11580156137e4573d6000803e3d6000fd5b505050506040513d601f19601f820116820180604052508101906138089190613f2b565b9050806138275760405162461bcd60e51b815260040161074490614781565b600854613843906001600160a01b038681169116600019613a9c565b9050806138625760405162461bcd60e51b815260040161074490614781565b600854604051631c9c3ca760e31b81526001600160a01b039091169063e4e1e538906138969087908790879060040161416b565b600060405180830381600087803b1580156138b057600080fd5b505af11580156138c4573d6000803e3d6000fd5b505060019096019550613719945050505050565b505b601354156139145760138054806138ed57fe5b600082815260209020810160001990810180546001600160a01b03191690550190556138da565b6008546012546040516334e1990760e01b81526001600160a01b03909216916334e199079161394591600401614911565b600060405180830381600087803b15801561395f57600080fd5b505af1158015613973573d6000803e3d6000fd5b50506008546040516324dacaa960e11b81526001600160a01b0390911692506349b5955291506139a89060019060040161418c565b600060405180830381600087803b1580156139c257600080fd5b505af11580156139d6573d6000803e3d6000fd5b50506000601255505050565b600082820183811015610b465760405162461bcd60e51b815260040161074490614804565b600080838311613a1d5750508082036000613a25565b505081810360015b9250929050565b30600090815260016020526040902054613a4690826139e2565b3060009081526001602052604081209190915554613a6490826139e2565b60009081556040513091907fddf252ad1be2c89b69c2b068fc378daa952ba7f163c4a11628f55a4df523b3ef906131f9908590614911565b600080846001600160a01b031663dd62ed3e30866040518363ffffffff1660e01b8152600401613acd92919061410a565b60206040518083038186803b158015613ae557600080fd5b505afa158015613af9573d6000803e3d6000fd5b505050506040513d601f19601f82011682018060405250810190613b1d9190613f9a565b905082811415613b31576001915050610b46565b8015613bc05760405163095ea7b360e01b81526001600160a01b0386169063095ea7b390613b66908790600090600401614152565b602060405180830381600087803b158015613b8057600080fd5b505af1158015613b94573d6000803e3d6000fd5b505050506040513d601f19601f82011682018060405250810190613bb89190613f2b565b915050610b46565b60405163095ea7b360e01b81526001600160a01b0386169063095ea7b390613bee9087908790600401614152565b602060405180830381600087803b158015613c0857600080fd5b505af1158015613c1c573d6000803e3d6000fd5b505050506040513d601f19601f82011682018060405250810190613c409190613f2b565b95945050505050565b60008083601f840112613c5a578081fd5b50813567ffffffffffffffff811115613c71578182fd5b6020830191508360208083028501011115613a2557600080fd5b600082601f830112613c9b578081fd5b8151613cae613ca98261495d565b614936565b818152915060208083019084810181840286018201871015613ccf57600080fd5b60005b84811015613cee57815184529282019290820190600101613cd2565b505050505092915050565b600060208284031215613d0a578081fd5b8135610b4681614988565b60008060408385031215613d27578081fd5b8235613d3281614988565b91506020830135613d4281614988565b809150509250929050565b600080600060608486031215613d61578081fd5b8335613d6c81614988565b92506020840135613d7c81614988565b929592945050506040919091013590565b60008060408385031215613d9f578182fd5b8235613daa81614988565b946020939093013593505050565b600080600060608486031215613dcc578283fd5b8335613dd781614988565b95602085013595506040909401359392505050565b60006020808385031215613dfe578182fd5b825167ffffffffffffffff811115613e14578283fd5b8301601f81018513613e24578283fd5b8051613e32613ca98261495d565b8181528381019083850185840285018601891015613e4e578687fd5b8694505b83851015613e79578051613e6581614988565b835260019490940193918501918501613e52565b50979650505050505050565b60008060008060608587031215613e9a578081fd5b843567ffffffffffffffff811115613eb0578182fd5b613ebc87828801613c49565b90989097506020870135966040013595509350505050565b600060208284031215613ee5578081fd5b815167ffffffffffffffff811115613efb578182fd5b613f0784828501613c8b565b949350505050565b600060208284031215613f20578081fd5b8135610b468161499d565b600060208284031215613f3c578081fd5b8151610b468161499d565b600060208284031215613f58578081fd5b8151610b4681614988565b600060208284031215613f74578081fd5b813560068110610b46578182fd5b600060208284031215613f93578081fd5b5035919050565b600060208284031215613fab578081fd5b5051919050565b600080600060408486031215613fc6578081fd5b83359250602084013567ffffffffffffffff811115613fe3578182fd5b613fef86828701613c49565b9497909650939450505050565b6000806040838503121561400e578182fd5b505080516020909101519092909150565b600080600060608486031215614033578081fd5b8351925060208401519150604084015167ffffffffffffffff811115614057578182fd5b61406386828701613c8b565b9150509250925092565b600080600060608486031215614081578081fd5b505081359360208301359350604090920135919050565b81835260006001600160fb1b038311156140b0578081fd5b6020830280836020870137939093016020019283525090919050565b15159052565b6001600160a01b0391909116815260200190565b6001600160a01b039384168152919092166020820152604081019190915260600190565b6001600160a01b0392831681529116602082015260400190565b6001600160a01b03959095168552921515602085015260408401919091526060830152608082015260a00190565b6001600160a01b03929092168252602082015260400190565b6001600160a01b039390931683526020830191909152604082015260600190565b901515815260200190565b9515158652931515602086015291151560408501521515606084015215156080830152151560a082015260c00190565b60006020825282602083015282846040840137818301604090810191909152601f909201601f19160101919050565b6001600160a01b03958616815293909416602084015260408301919091526060820152608081019190915260a00190565b600060018060a01b038916825287602083015260c0604083015261424f60c083018789614098565b606083019590955250608081019290925260a090910152949350505050565b6001600160a01b0393841681529183166020830152909116604082015260600190565b6001600160a01b039485168152928416602084015292166040820152606081019190915260800190565b6001600160a01b03958616815293851660208501529190931660408301526060820192909252608081019190915260a00190565b6001600160a01b03868116825285166020820152604081018490526080606082018190526000906143239083018486614098565b979650505050505050565b6001600160a01b0394851681529290931660208301526040820152606081019190915260800190565b6000602080835283518082850152825b8181101561438357858101830151858201604001528201614367565b818111156143945783604083870101525b50601f01601f1916929092016040019392505050565b60208082526012908201527122a9292fa727aa2fa1a7a72a2927a62622a960711b604082015260600190565b6020808252601c908201527f4552525f43414e4e4f545f4144445f52454d4f56455f544f4b454e5300000000604082015260600190565b6020808252818101527f4552525f494e434f4e53495354454e545f544f4b454e5f54494d455f4c4f434b604082015260600190565b60208082526014908201527311549497d393d517d3d397d5d2125511531254d560621b604082015260600190565b60208082526013908201527208aa4a4be929c92a8bea6aaa0a098b2be9a82b606b1b604082015260600190565b60208082526010908201526f4552525f5a45524f5f4144445245535360801b604082015260600190565b60208082526018908201527f4552525f43414e4e4f545f57484954454c4953545f4c50530000000000000000604082015260600190565b6020808252601c908201527f4552525f4e4f545f434f4e464947555241424c455f5745494748545300000000604082015260600190565b60208082526016908201527511549497d31417d393d517d5d2125511531254d5115160521b604082015260600190565b6020808252600f908201526e11549497d393d517d0d49150551151608a1b604082015260600190565b6020808252600e908201526d11549497d254d7d0d4915055115160921b604082015260600190565b60208082526013908201527222a9292fa4a724aa2fa9aaa828262cafa6a4a760691b604082015260600190565b6020808252600b908201526a4552525f5245454e54525960a81b604082015260600190565b60208082526010908201526f4552525f5245454e5452595f5649455760801b604082015260600190565b6020808252601390820152724552525f494e56414c49445f4144445245535360681b604082015260600190565b60208082526015908201527404552525f43414e4e4f545f4348414e47455f43415605c1b604082015260600190565b6020808252601490820152734552525f4e4f4e5a45524f5f455849545f46454560601b604082015260600190565b60208082526015908201527411549497d0d05417d31253525517d4915050d21151605a1b604082015260600190565b60208082526016908201527522a9292fa821aa27a5a2a72fa120a22fa1a0a62622a960511b604082015260600190565b60208082526015908201527411549497d4115391125391d7d513d2d15397d05111605a1b604082015260600190565b6020808252601b908201527f4552525f52454d4f56455f574954485f4144445f50454e44494e470000000000604082015260600190565b6020808252600f908201526e4552525f45524332305f46414c534560881b604082015260600190565b60208082526015908201527404552525f4e4f545f5041555341424c455f5357415605c1b604082015260600190565b6020808252601190820152704552525f5355425f554e444552464c4f5760781b604082015260600190565b60208082526010908201526f4552525f4144445f4f564552464c4f5760801b604082015260600190565b6020808252601d908201527f4552525f4e4f545f434f4e464947555241424c455f535741505f464545000000604082015260600190565b6020808252601c908201527f4552525f4e4f5f5550444154455f445552494e475f4752414455414c00000000604082015260600190565b600060e082019050835460ff80821615158452808260081c1615156020850152808260101c1615156040850152808260181c16151560608501526148e860808501828460201c166140cc565b6148fa60a08501828460281c166140cc565b50506149058361497d565b60c08301529392505050565b90815260200190565b918252602082015260400190565b60ff91909116815260200190565b60405181810167ffffffffffffffff8111828210171561495557600080fd5b604052919050565b600067ffffffffffffffff821115614973578081fd5b5060209081020190565b8060068110610ecf57fe5b6001600160a01b0381168114610a1c57600080fd5b8015158114610a1c57600080fdfe8c5be1e5ebec7d5bd14f71427d1e84f3dd0314c0f7b2291e5b200ac8c7c3b925a264697066735822122069b7d10bb79447ad1a743a6fd1324aeddf460d0f1ef28020b82048cd3dc9611664736f6c634300060c0033a2646970667358221220c779c60d9a1c348e8c270440f7b37c71d400308c7238f1c5764ecb65a2b56b7364736f6c634300060c0033",
  "immutableReferences": {},
  "source": "// SPDX-License-Identifier: GPL-3.0-or-later\npragma solidity 0.6.12;\n\n// Needed to handle structures externally\npragma experimental ABIEncoderV2;\n\n// Imports\n\nimport \"./ConfigurableRightsPool.sol\";\n\n// Contracts\n\n/**\n * @author Balancer Labs\n * @title Configurable Rights Pool Factory - create parameterized smart pools\n * @dev Rights are held in a corresponding struct in ConfigurableRightsPool\n *      Index values are as follows:\n *      0: canPauseSwapping - can setPublicSwap back to false after turning it on\n *                            by default, it is off on initialization and can only be turned on\n *      1: canChangeSwapFee - can setSwapFee after initialization (by default, it is fixed at create time)\n *      2: canChangeWeights - can bind new token weights (allowed by default in base pool)\n *      3: canAddRemoveTokens - can bind/unbind tokens (allowed by default in base pool)\n *      4: canWhitelistLPs - if set, only whitelisted addresses can join pools\n *                           (enables private pools with more than one LP)\n *      5: canChangeCap - can change the BSP cap (max # of pool tokens)\n */\ncontract CRPFactory {\n    // State variables\n\n    // Keep a list of all Configurable Rights Pools\n    mapping(address=>bool) private _isCrp;\n\n    // Event declarations\n\n    // Log the address of each new smart pool, and its creator\n    event LogNewCrp(\n        address indexed caller,\n        address indexed pool\n    );\n\n    // Function declarations\n\n    /**\n     * @notice Create a new CRP\n     * @dev emits a LogNewCRP event\n     * @param factoryAddress - the BFactory instance used to create the underlying pool\n     * @param poolParams - struct containing the names, tokens, weights, balances, and swap fee\n     * @param rights - struct of permissions, configuring this CRP instance (see above for definitions)\n     */\n    function newCrp(\n        address factoryAddress,\n        ConfigurableRightsPool.PoolParams calldata poolParams,\n        RightsManager.Rights calldata rights\n    )\n        external\n        returns (ConfigurableRightsPool)\n    {\n        require(poolParams.constituentTokens.length >= BalancerConstants.MIN_ASSET_LIMIT, \"ERR_TOO_FEW_TOKENS\");\n\n        // Arrays must be parallel\n        require(poolParams.tokenBalances.length == poolParams.constituentTokens.length, \"ERR_START_BALANCES_MISMATCH\");\n        require(poolParams.tokenWeights.length == poolParams.constituentTokens.length, \"ERR_START_WEIGHTS_MISMATCH\");\n\n        ConfigurableRightsPool crp = new ConfigurableRightsPool(\n            factoryAddress,\n            poolParams,\n            rights\n        );\n\n        emit LogNewCrp(msg.sender, address(crp));\n\n        _isCrp[address(crp)] = true;\n        // The caller is the controller of the CRP\n        // The CRP will be the controller of the underlying Core BPool\n        crp.setController(msg.sender);\n\n        return crp;\n    }\n\n    /**\n     * @notice Check to see if a given address is a CRP\n     * @param addr - address to check\n     * @return boolean indicating whether it is a CRP\n     */\n    function isCrp(address addr) external view returns (bool) {\n        return _isCrp[addr];\n    }\n}\n",
  "sourcePath": "/Users/arseny/Projects/primeDAO/configurable-rights-pool/contracts/CRPFactory.sol",
  "compiler": {
    "name": "solc",
    "version": "0.6.12+commit.27d51765.Emscripten.clang"
  },
  "schemaVersion": "3.2.4",
  "updatedAt": "2020-11-12T16:41:28.717Z",
  "networkType": "ethereum",
  "devdoc": {
    "author": "Balancer Labs",
    "details": "Rights are held in a corresponding struct in ConfigurableRightsPool      Index values are as follows:      0: canPauseSwapping - can setPublicSwap back to false after turning it on                            by default, it is off on initialization and can only be turned on      1: canChangeSwapFee - can setSwapFee after initialization (by default, it is fixed at create time)      2: canChangeWeights - can bind new token weights (allowed by default in base pool)      3: canAddRemoveTokens - can bind/unbind tokens (allowed by default in base pool)      4: canWhitelistLPs - if set, only whitelisted addresses can join pools                           (enables private pools with more than one LP)      5: canChangeCap - can change the BSP cap (max # of pool tokens)",
    "kind": "dev",
    "methods": {
      "isCrp(address)": {
        "params": {
          "addr": "- address to check"
        },
        "returns": {
          "_0": "boolean indicating whether it is a CRP"
        }
      },
      "newCrp(address,(string,string,address[],uint256[],uint256[],uint256),(bool,bool,bool,bool,bool,bool))": {
        "details": "emits a LogNewCRP event",
        "params": {
          "factoryAddress": "- the BFactory instance used to create the underlying pool",
          "poolParams": "- struct containing the names, tokens, weights, balances, and swap fee",
          "rights": "- struct of permissions, configuring this CRP instance (see above for definitions)"
        }
      }
    },
    "title": "Configurable Rights Pool Factory - create parameterized smart pools",
    "version": 1
  },
  "userdoc": {
    "kind": "user",
    "methods": {
      "isCrp(address)": {
        "notice": "Check to see if a given address is a CRP"
      },
      "newCrp(address,(string,string,address[],uint256[],uint256[],uint256),(bool,bool,bool,bool,bool,bool))": {
        "notice": "Create a new CRP"
      }
    },
    "version": 1
  }
}