{
  "contractName": "FarmFactory",
  "abi": [
    {
      "anonymous": false,
      "inputs": [
        {
          "indexed": true,
          "internalType": "address",
          "name": "newFarm",
          "type": "address"
        },
        {
          "indexed": true,
          "internalType": "address",
          "name": "pool",
          "type": "address"
        }
      ],
      "name": "FarmCreated",
      "type": "event"
    },
    {
      "anonymous": false,
      "inputs": [
        {
          "indexed": false,
          "internalType": "address",
          "name": "farm",
          "type": "address"
        },
        {
          "indexed": false,
          "internalType": "uint256",
          "name": "amount",
          "type": "uint256"
        }
      ],
      "name": "RewardIncreased",
      "type": "event"
    },
    {
      "anonymous": false,
      "inputs": [
        {
          "indexed": false,
          "internalType": "address",
          "name": "farm",
          "type": "address"
        },
        {
          "indexed": false,
          "internalType": "address",
          "name": "token",
          "type": "address"
        },
        {
          "indexed": false,
          "internalType": "address",
          "name": "to",
          "type": "address"
        }
      ],
      "name": "TokenRescued",
      "type": "event"
    },
    {
      "constant": true,
      "inputs": [],
      "name": "avatar",
      "outputs": [
        {
          "internalType": "contract Avatar",
          "name": "",
          "type": "address"
        }
      ],
      "payable": false,
      "stateMutability": "view",
      "type": "function"
    },
    {
      "constant": true,
      "inputs": [],
      "name": "initialized",
      "outputs": [
        {
          "internalType": "bool",
          "name": "",
          "type": "bool"
        }
      ],
      "payable": false,
      "stateMutability": "view",
      "type": "function"
    },
    {
      "constant": false,
      "inputs": [
        {
          "internalType": "contract Avatar",
          "name": "_avatar",
          "type": "address"
        }
      ],
      "name": "initialize",
      "outputs": [],
      "payable": false,
      "stateMutability": "nonpayable",
      "type": "function"
    },
    {
      "constant": false,
      "inputs": [
        {
          "internalType": "string",
          "name": "_name",
          "type": "string"
        },
        {
          "internalType": "address",
          "name": "_rewardToken",
          "type": "address"
        },
        {
          "internalType": "address",
          "name": "_stakingToken",
          "type": "address"
        },
        {
          "internalType": "uint256",
          "name": "_initreward",
          "type": "uint256"
        },
        {
          "internalType": "uint256",
          "name": "_starttime",
          "type": "uint256"
        },
        {
          "internalType": "uint256",
          "name": "_duration",
          "type": "uint256"
        }
      ],
      "name": "createFarm",
      "outputs": [
        {
          "internalType": "address",
          "name": "",
          "type": "address"
        }
      ],
      "payable": true,
      "stateMutability": "payable",
      "type": "function"
    },
    {
      "constant": false,
      "inputs": [
        {
          "internalType": "address",
          "name": "_farm",
          "type": "address"
        },
        {
          "internalType": "uint256",
          "name": "_amount",
          "type": "uint256"
        }
      ],
      "name": "increaseReward",
      "outputs": [],
      "payable": false,
      "stateMutability": "nonpayable",
      "type": "function"
    },
    {
      "constant": false,
      "inputs": [
        {
          "internalType": "contract StakingRewards",
          "name": "_stakingRewards",
          "type": "address"
        },
        {
          "internalType": "uint256",
          "name": "_amount",
          "type": "uint256"
        },
        {
          "internalType": "address",
          "name": "_token",
          "type": "address"
        },
        {
          "internalType": "address",
          "name": "_to",
          "type": "address"
        }
      ],
      "name": "rescueTokens",
      "outputs": [],
      "payable": false,
      "stateMutability": "nonpayable",
      "type": "function"
    }
  ],
  "bytecode": "0x608060405234801561001057600080fd5b506130d5806100206000396000f3fe6080604052600436106100555760003560e01c8063158ef93e1461005a578063556bc7f1146100835780635aef7de614610167578063a05d8a0b1461017c578063c4d66de8146101b7578063f8b20c96146101ea575b600080fd5b34801561006657600080fd5b5061006f610233565b604080519115158252519081900360200190f35b61014b600480360360c081101561009957600080fd5b8101906020810181356401000000008111156100b457600080fd5b8201836020820111156100c657600080fd5b803590602001918460018302840111640100000000831117156100e857600080fd5b91908080601f016020809104026020016040519081016040528093929190818152602001838380828437600092019190915250929550506001600160a01b0383358116945060208401351692604081013592506060810135915060800135610243565b604080516001600160a01b039092168252519081900360200190f35b34801561017357600080fd5b5061014b610550565b34801561018857600080fd5b506101b56004803603604081101561019f57600080fd5b506001600160a01b03813516906020013561055f565b005b3480156101c357600080fd5b506101b5600480360360208110156101da57600080fd5b50356001600160a01b031661065a565b3480156101f657600080fd5b506101b56004803603608081101561020d57600080fd5b506001600160a01b0381358116916020810135916040820135811691606001351661071d565b600054600160a01b900460ff1681565b60008054600160a01b900460ff1661028c5760405162461bcd60e51b81526004018080602001828103825260258152602001806130536025913960400191505060405180910390fd5b6000546001600160a01b031633146102eb576040805162461bcd60e51b815260206004820181905260248201527f4661726d466163746f72793a2070726f746563746564206f7065726174696f6e604482015290519081900360640190fd5b60006102f5610821565b90506000809054906101000a90046001600160a01b03166001600160a01b0316638da5cb5b6040518163ffffffff1660e01b815260040160206040518083038186803b15801561034457600080fd5b505afa158015610358573d6000803e3d6000fd5b505050506040513d602081101561036e57600080fd5b5051600080546040805163b9a04cdd60e01b81526001600160a01b038c811660048301528681166024830152604482018b905292831660648201529051919093169263b9a04cdd9260848083019360209390929083900390910190829087803b1580156103da57600080fd5b505af11580156103ee573d6000803e3d6000fd5b505050506040513d602081101561040457600080fd5b50506000805460405163df9f2eff60e01b81526001600160a01b038a811660248301528981166044830152606482018990526084820188905260a4820187905291821660c4820181905260e0600483019081528c5160e48401528c519386169463df9f2eff948e948e948e948e948e948e9483926101049091019160208c01918190849084905b838110156104a357818101518382015260200161048b565b50505050905090810190601f1680156104d05780820380516001836020036101000a031916815260200191505b5098505050505050505050600060405180830381600087803b1580156104f557600080fd5b505af1158015610509573d6000803e3d6000fd5b50506040516001600160a01b03808a169350841691507f6bff9ddd187ef283e9c7726f406ab27bcc3719a41b6bee3585c7447183cffcec90600090a3979650505050505050565b6000546001600160a01b031681565b600054600160a01b900460ff166105a75760405162461bcd60e51b81526004018080602001828103825260258152602001806130536025913960400191505060405180910390fd5b6000546001600160a01b03163314610606576040805162461bcd60e51b815260206004820181905260248201527f4661726d466163746f72793a2070726f746563746564206f7065726174696f6e604482015290519081900360640190fd5b8161061181836108ba565b604080516001600160a01b03851681526020810184905281517f3734977dac0c3794147c3e814ea48ff46d285e1f20ce78746fb976620ccc320e929181900390910190a1505050565b600054600160a01b900460ff16156106a35760405162461bcd60e51b81526004018080602001828103825260298152602001806130786029913960400191505060405180910390fd5b6000805460ff60a01b1916600160a01b1790556001600160a01b0381166106fb5760405162461bcd60e51b815260040180806020018281038252602281526020018061300f6022913960400191505060405180910390fd5b600080546001600160a01b0319166001600160a01b0392909216919091179055565b600054600160a01b900460ff166107655760405162461bcd60e51b81526004018080602001828103825260258152602001806130536025913960400191505060405180910390fd5b6000546001600160a01b031633146107c4576040805162461bcd60e51b815260206004820181905260248201527f4661726d466163746f72793a2070726f746563746564206f7065726174696f6e604482015290519081900360640190fd5b6107d084848484610ccd565b604080516001600160a01b038087168252808516602083015283168183015290517fb6c5f502296ab8d0446fee6b8ce587183d7e30f838c5fc310e6fd37ad113d4cf9181900360600190a150505050565b60008060405161083090611050565b604051809103906000f08015801561084c573d6000803e3d6000fd5b50600080546040805163f2fde38b60e01b81526001600160a01b03928316600482015290519394509084169263f2fde38b9260248084019391929182900301818387803b15801561089c57600080fd5b505af11580156108b0573d6000803e3d6000fd5b5092935050505090565b600080836001600160a01b031663f7c618c16040518163ffffffff1660e01b815260040160206040518083038186803b1580156108f657600080fd5b505afa15801561090a573d6000803e3d6000fd5b505050506040513d602081101561092057600080fd5b50516000805460408051638da5cb5b60e01b8152905193945091926001600160a01b0390911691638da5cb5b916004808301926020929190829003018186803b15801561096c57600080fd5b505afa158015610980573d6000803e3d6000fd5b505050506040513d602081101561099657600080fd5b5051600080546040805163b9a04cdd60e01b81526001600160a01b0387811660048301528a81166024830152604482018a9052928316606482015290519394509084169263b9a04cdd92608480840193602093929083900390910190829087803b158015610a0357600080fd5b505af1158015610a17573d6000803e3d6000fd5b505050506040513d6020811015610a2d57600080fd5b5050604080516024808201879052825180830382018152604492830184526020810180516001600160e01b0316633c6b16ab60e01b1781526000805495516368db844d60e11b81526001600160a01b038c8116600483019081529781169682018790526064820183905260809582019586528451608483015284519089169763d1b7089a978e9790959193909260a49091019190808383885b83811015610ade578181015183820152602001610ac6565b50505050905090810190601f168015610b0b5780820380516001836020036101000a031916815260200191505b5095505050505050600060405180830381600087803b158015610b2d57600080fd5b505af1158015610b41573d6000803e3d6000fd5b505050506040513d6000823e601f3d908101601f191682016040908152811015610b6a57600080fd5b815160208301805160405192949293830192919084640100000000821115610b9157600080fd5b908301906020820185811115610ba657600080fd5b8251640100000000811182820188101715610bc057600080fd5b82525081516020918201929091019080838360005b83811015610bed578181015183820152602001610bd5565b50505050905090810190601f168015610c1a5780820380516001836020036101000a031916815260200191505b5060608101604052602280825295985088959094509250613031915050602083013990610cc55760405162461bcd60e51b81526004018080602001828103825283818151815260200191508051906020019080838360005b83811015610c8a578181015183820152602001610c72565b50505050905090810190601f168015610cb75780820380516001836020036101000a031916815260200191505b509250505060405180910390fd5b505050505050565b6000805460408051638da5cb5b60e01b8152905183926001600160a01b031691638da5cb5b916004808301926020929190829003018186803b158015610d1257600080fd5b505afa158015610d26573d6000803e3d6000fd5b505050506040513d6020811015610d3c57600080fd5b81019080805190602001909291905050509050806001600160a01b031663d1b7089a87886001600160a01b031663b37fd190905060e01b87898860405160240180846001600160a01b03166001600160a01b03168152602001838152602001826001600160a01b03166001600160a01b031681526020019350505050604051602081830303815290604052906001600160e01b0319166020820180516001600160e01b0383818316178352505050506000809054906101000a90046001600160a01b031660006040518563ffffffff1660e01b815260040180856001600160a01b03166001600160a01b0316815260200180602001846001600160a01b03166001600160a01b03168152602001838152602001828103825285818151815260200191508051906020019080838360005b83811015610e84578181015183820152602001610e6c565b50505050905090810190601f168015610eb15780820380516001836020036101000a031916815260200191505b5095505050505050600060405180830381600087803b158015610ed357600080fd5b505af1158015610ee7573d6000803e3d6000fd5b505050506040513d6000823e601f3d908101601f191682016040908152811015610f1057600080fd5b815160208301805160405192949293830192919084640100000000821115610f3757600080fd5b908301906020820185811115610f4c57600080fd5b8251640100000000811182820188101715610f6657600080fd5b82525081516020918201929091019080838360005b83811015610f93578181015183820152602001610f7b565b50505050905090810190601f168015610fc05780820380516001836020036101000a031916815260200191505b506040818101905260208082527f4661726d466163746f72793a20726573637565546f6b656e73206661696c656490820152949650869350611047925050505760405162461bcd60e51b8152602060048201818152835160248401528351909283926044909101919085019080838360008315610c8a578181015183820152602001610c72565b50505050505050565b611fb18061105e8339019056fe608060405260006100176001600160e01b0361008a16565b600080546001600160a01b0319166001600160a01b0383169081178255604051929350917f8be0079c531659141344cd1fd0a4f28419497f9722a3daafe3b4186f6b6457e0908290a3506001805460ff60a01b19167401000000000000000000000000000000000000000017905561008e565b3390565b611f148061009d6000396000f3fe608060405234801561001057600080fd5b50600436106101d95760003560e01c80638b87634711610104578063c8f33c91116100a2578063e9fad8ee11610071578063e9fad8ee146104fd578063ebe2b12b14610505578063f2fde38b1461050d578063f7c618c114610533576101d9565b8063c8f33c911461044a578063cd3daf9d14610452578063df136d651461045a578063df9f2eff14610462576101d9565b80638f32d59b116100de5780638f32d59b146103e75780639c907b58146103ef578063a694fc3a146103f7578063b37fd19014610414576101d9565b80638b876347146103b15780638da58897146103d75780638da5cb5b146103df576101d9565b80632e1a7d4d1161017c578063715018a61161014b578063715018a61461037557806372f702f31461037d5780637b0a47ee146103a157806380faa57d146103a9576101d9565b80632e1a7d4d1461030d5780633c6b16ab1461032a5780633d18b9121461034757806370a082311461034f576101d9565b80630d68b761116101b85780630d68b761146102b9578063158ef93e146102e157806318160ddd146102fd5780631be0528914610305576101d9565b80628cc262146101de57806306fdde03146102165780630700037d14610293575b600080fd5b610204600480360360208110156101f457600080fd5b50356001600160a01b031661053b565b60408051918252519081900360200190f35b61021e6105d1565b6040805160208082528351818301528351919283929083019185019080838360005b83811015610258578181015183820152602001610240565b50505050905090810190601f1680156102855780820380516001836020036101000a031916815260200191505b509250505060405180910390f35b610204600480360360208110156102a957600080fd5b50356001600160a01b031661065c565b6102df600480360360208110156102cf57600080fd5b50356001600160a01b031661066e565b005b6102e96106e9565b604080519115158252519081900360200190f35b6102046106f9565b610204610700565b6102df6004803603602081101561032357600080fd5b5035610706565b6102df6004803603602081101561034057600080fd5b50356108fc565b6102df610b8f565b6102046004803603602081101561036557600080fd5b50356001600160a01b0316610d7a565b6102df610d95565b610385610e38565b604080516001600160a01b039092168252519081900360200190f35b610204610e47565b610204610e4d565b610204600480360360208110156103c757600080fd5b50356001600160a01b0316610e60565b610204610e72565b610385610e78565b6102e9610e87565b610204610eab565b6102df6004803603602081101561040d57600080fd5b5035610eb1565b6102df6004803603606081101561042a57600080fd5b506001600160a01b038135811691602081013591604090910135166110bd565b610204611257565b61020461125d565b6102046112b7565b6102df600480360360e081101561047857600080fd5b81019060208101813564010000000081111561049357600080fd5b8201836020820111156104a557600080fd5b803590602001918460018302840111640100000000831117156104c757600080fd5b91935091506001600160a01b038135811691602081013582169160408201359160608101359160808201359160a00135166112bd565b6102df6114b9565b6102046114dc565b6102df6004803603602081101561052357600080fd5b50356001600160a01b03166114e2565b610385611547565b6001600160a01b0381166000908152600d6020908152604080832054600c9092528220546105cb91906105bf90670de0b6b3a7640000906105b39061058e9061058261125d565b9063ffffffff61155616565b6001600160a01b0388166000908152600f60205260409020549063ffffffff61159f16565b9063ffffffff6115f816565b9063ffffffff61163a16565b92915050565b6002805460408051602060018416156101000260001901909316849004601f810184900484028201840190925281815292918301828280156106545780601f1061062957610100808354040283529160200191610654565b820191906000526020600020905b81548152906001019060200180831161063757829003601f168201915b505050505081565b600d6020526000908152604090205481565b610676610e87565b6106c7576040805162461bcd60e51b815260206004820181905260248201527f4f776e61626c653a2063616c6c6572206973206e6f7420746865206f776e6572604482015290519081900360640190fd5b600180546001600160a01b0319166001600160a01b0392909216919091179055565b600454600160a01b900460ff1681565b600e545b90565b60055481565b600154600160a01b900460ff16610764576040805162461bcd60e51b815260206004820152601f60248201527f5265656e7472616e637947756172643a207265656e7472616e742063616c6c00604482015290519081900360640190fd5b6001805460ff60a01b191690553361077a61125d565b600b55610785610e4d565b600a556001600160a01b038116156107cc576107a08161053b565b6001600160a01b0382166000908152600d6020908152604080832093909355600b54600c909152919020555b600454600160a01b900460ff166108145760405162461bcd60e51b8152600401808060200182810382526028815260200180611d346028913960400191505060405180910390fd5b600754421015610867576040805162461bcd60e51b815260206004820152601960248201527814dd185ada5b99d4995dd85c991cce881b9bdd081cdd185c9d603a1b604482015290519081900360640190fd5b600082116108a65760405162461bcd60e51b8152600401808060200182810382526021815260200180611d5c6021913960400191505060405180910390fd5b6108af82611694565b60408051838152905133917f7084f5476618d8e60b11ef0d7d3f06914655adb8793e28ff7f018d4c76d505d5919081900360200190a250506001805460ff60a01b1916600160a01b179055565b600454600160a01b900460ff166109445760405162461bcd60e51b8152600401808060200182810382526028815260200180611d346028913960400191505060405180910390fd5b6001546001600160a01b03166109586116f6565b6001600160a01b03161461099d5760405162461bcd60e51b8152600401808060200182810382526021815260200180611e6f6021913960400191505060405180910390fd5b60006109a761125d565b600b556109b2610e4d565b600a556001600160a01b038116156109f9576109cd8161053b565b6001600160a01b0382166000908152600d6020908152604080832093909355600b54600c909152919020555b6008544210610a1e57600554610a1690839063ffffffff6115f816565b600955610a6d565b600854600090610a34904263ffffffff61155616565b90506000610a4d6009548361159f90919063ffffffff16565b600554909150610a67906105b3868463ffffffff61163a16565b60095550505b600354604080516370a0823160e01b815230600482015290516000926001600160a01b0316916370a08231916024808301926020929190829003018186803b158015610ab857600080fd5b505afa158015610acc573d6000803e3d6000fd5b505050506040513d6020811015610ae257600080fd5b5051600554909150610afb90829063ffffffff6115f816565b6009541115610b3b5760405162461bcd60e51b8152600401808060200182810382526028815260200180611eb86028913960400191505060405180910390fd5b42600a819055600554610b54919063ffffffff61163a16565b6008556040805184815290517fde88a922e0d3b88b24e9623efeb464919c6bf9f66857a65e2bfcf2ce87a9433d9181900360200190a1505050565b600154600160a01b900460ff16610bed576040805162461bcd60e51b815260206004820152601f60248201527f5265656e7472616e637947756172643a207265656e7472616e742063616c6c00604482015290519081900360640190fd5b6001805460ff60a01b1916905533610c0361125d565b600b55610c0e610e4d565b600a556001600160a01b03811615610c5557610c298161053b565b6001600160a01b0382166000908152600d6020908152604080832093909355600b54600c909152919020555b600454600160a01b900460ff16610c9d5760405162461bcd60e51b8152600401808060200182810382526028815260200180611d346028913960400191505060405180910390fd5b600754421015610cf0576040805162461bcd60e51b815260206004820152601960248201527814dd185ada5b99d4995dd85c991cce881b9bdd081cdd185c9d603a1b604482015290519081900360640190fd5b6000610cfb3361053b565b90508015610d6357336000818152600d6020526040812055600354610d2c916001600160a01b0390911690836116fa565b60408051828152905133917fe2403640ba68fed3a2f88b7557551d1993f84b99bb10ff833f0cf8db0c5e0486919081900360200190a25b50506001805460ff60a01b1916600160a01b179055565b6001600160a01b03166000908152600f602052604090205490565b610d9d610e87565b610dee576040805162461bcd60e51b815260206004820181905260248201527f4f776e61626c653a2063616c6c6572206973206e6f7420746865206f776e6572604482015290519081900360640190fd5b600080546040516001600160a01b03909116907f8be0079c531659141344cd1fd0a4f28419497f9722a3daafe3b4186f6b6457e0908390a3600080546001600160a01b0319169055565b6004546001600160a01b031681565b60095481565b6000610e5b4260085461187c565b905090565b600c6020526000908152604090205481565b60075481565b6000546001600160a01b031690565b600080546001600160a01b0316610e9c6116f6565b6001600160a01b031614905090565b60065481565b600154600160a01b900460ff16610f0f576040805162461bcd60e51b815260206004820152601f60248201527f5265656e7472616e637947756172643a207265656e7472616e742063616c6c00604482015290519081900360640190fd5b6001805460ff60a01b1916905533610f2561125d565b600b55610f30610e4d565b600a556001600160a01b03811615610f7757610f4b8161053b565b6001600160a01b0382166000908152600d6020908152604080832093909355600b54600c909152919020555b600454600160a01b900460ff16610fbf5760405162461bcd60e51b8152600401808060200182810382526028815260200180611d346028913960400191505060405180910390fd5b600754421015611012576040805162461bcd60e51b815260206004820152601960248201527814dd185ada5b99d4995dd85c991cce881b9bdd081cdd185c9d603a1b604482015290519081900360640190fd5b60008211611067576040805162461bcd60e51b815260206004820152601e60248201527f5374616b696e67526577617264733a2063616e6e6f74207374616b6520300000604482015290519081900360640190fd5b61107082611892565b60408051838152905133917f9e71bc8eea02a63969f509818f2dafb9254532904319f9dbda79b67bd34a5f3d919081900360200190a250506001805460ff60a01b1916600160a01b179055565b600454600160a01b900460ff166111055760405162461bcd60e51b8152600401808060200182810382526028815260200180611d346028913960400191505060405180910390fd5b61110d610e78565b6001600160a01b0316336001600160a01b031614611172576040805162461bcd60e51b815260206004820152601b60248201527f5374616b696e67526577617264733a2021676f7665726e616e63650000000000604482015290519081900360640190fd5b6004546001600160a01b03848116911614156111d5576040805162461bcd60e51b815260206004820152601c60248201527f5374616b696e67526577617264733a207374616b696e67546f6b656e00000000604482015290519081900360640190fd5b6003546001600160a01b0384811691161415611238576040805162461bcd60e51b815260206004820152601b60248201527f5374616b696e67526577617264733a20726577617264546f6b656e0000000000604482015290519081900360640190fd5b6112526001600160a01b038416828463ffffffff6116fa16565b505050565b600a5481565b6000600e54600014156112735750600b546106fd565b610e5b6112a8600e546105b3670de0b6b3a764000061129c60095461129c600a54610582610e4d565b9063ffffffff61159f16565b600b549063ffffffff61163a16565b600b5481565b600454600160a01b900460ff16156113065760405162461bcd60e51b815260040180806020018281038252602c815260200180611dcf602c913960400191505060405180910390fd5b6004805460ff60a01b1916600160a01b1790556001600160a01b03861661135e5760405162461bcd60e51b815260040180806020018281038252602a815260200180611e1c602a913960400191505060405180910390fd5b6001600160a01b0385166113a35760405162461bcd60e51b815260040180806020018281038252602b815260200180611da4602b913960400191505060405180910390fd5b836113df5760405162461bcd60e51b8152600401808060200182810382526029815260200180611e466029913960400191505060405180910390fd5b8261141b5760405162461bcd60e51b8152600401808060200182810382526028815260200180611e906028913960400191505060405180910390fd5b816114575760405162461bcd60e51b8152600401808060200182810382526027815260200180611d7d6027913960400191505060405180910390fd5b61146360028989611c50565b50600380546001600160a01b039788166001600160a01b03199182161790915560048054968816968216969096179095556006939093556007919091556201518002600555600180549190931691161790555050565b336000908152600f60205260409020546114d290610706565b6114da610b8f565b565b60085481565b6114ea610e87565b61153b576040805162461bcd60e51b815260206004820181905260248201527f4f776e61626c653a2063616c6c6572206973206e6f7420746865206f776e6572604482015290519081900360640190fd5b611544816118f5565b50565b6003546001600160a01b031681565b600061159883836040518060400160405280601e81526020017f536166654d6174683a207375627472616374696f6e206f766572666c6f770000815250611995565b9392505050565b6000826115ae575060006105cb565b828202828482816115bb57fe5b04146115985760405162461bcd60e51b8152600401808060200182810382526021815260200180611dfb6021913960400191505060405180910390fd5b600061159883836040518060400160405280601a81526020017f536166654d6174683a206469766973696f6e206279207a65726f000000000000815250611a2c565b600082820183811015611598576040805162461bcd60e51b815260206004820152601b60248201527f536166654d6174683a206164646974696f6e206f766572666c6f770000000000604482015290519081900360640190fd5b600e546116a7908263ffffffff61155616565b600e55336000908152600f60205260409020546116ca908263ffffffff61155616565b336000818152600f6020526040902091909155600454611544916001600160a01b0390911690836116fa565b3390565b61170c836001600160a01b0316611a91565b61171557600080fd5b604080518082018252601981527f7472616e7366657228616464726573732c75696e74323536290000000000000060209182015281516001600160a01b0385811660248301526044808301869052845180840390910181526064909201845291810180516001600160e01b031663a9059cbb60e01b1781529251815160009460609489169392918291908083835b602083106117c25780518252601f1990920191602091820191016117a3565b6001836020036101000a0380198251168184511680821785525050505050509050019150506000604051808303816000865af19150503d8060008114611824576040519150601f19603f3d011682016040523d82523d6000602084013e611829565b606091505b50915091508161183857600080fd5b8051158061186c57508051602014801561186c575080601f8151811061185a57fe5b01602001516001600160f81b03191615155b61187557600080fd5b5050505050565b600081831061188b5781611598565b5090919050565b600e546118a5908263ffffffff61163a16565b600e55336000908152600f60205260409020546118c8908263ffffffff61163a16565b336000818152600f6020526040902091909155600454611544916001600160a01b03909116903084611acd565b6001600160a01b03811661193a5760405162461bcd60e51b8152600401808060200182810382526026815260200180611d0e6026913960400191505060405180910390fd5b600080546040516001600160a01b03808516939216917f8be0079c531659141344cd1fd0a4f28419497f9722a3daafe3b4186f6b6457e091a3600080546001600160a01b0319166001600160a01b0392909216919091179055565b60008184841115611a245760405162461bcd60e51b81526004018080602001828103825283818151815260200191508051906020019080838360005b838110156119e95781810151838201526020016119d1565b50505050905090810190601f168015611a165780820380516001836020036101000a031916815260200191505b509250505060405180910390fd5b505050900390565b60008183611a7b5760405162461bcd60e51b81526020600482018181528351602484015283519092839260449091019190850190808383600083156119e95781810151838201526020016119d1565b506000838581611a8757fe5b0495945050505050565b6000813f7fc5d2460186f7233c927e7db2dcc703c0e500b653ca82273b7bfad8045d85a470818114801590611ac557508115155b949350505050565b611adf846001600160a01b0316611a91565b611ae857600080fd5b60006060856001600160a01b0316604051806060016040528060258152602001611ce9602591398051602091820120604080516001600160a01b03808b166024830152891660448201526064808201899052825180830390910181526084909101825292830180516001600160e01b03166001600160e01b0319909316929092178252518251909182918083835b60208310611b955780518252601f199092019160209182019101611b76565b6001836020036101000a0380198251168184511680821785525050505050509050019150506000604051808303816000865af19150503d8060008114611bf7576040519150601f19603f3d011682016040523d82523d6000602084013e611bfc565b606091505b509150915081611c0b57600080fd5b80511580611c3f575080516020148015611c3f575080601f81518110611c2d57fe5b01602001516001600160f81b03191615155b611c4857600080fd5b505050505050565b828054600181600116156101000203166002900490600052602060002090601f016020900481019282601f10611c915782800160ff19823516178555611cbe565b82800160010185558215611cbe579182015b82811115611cbe578235825591602001919060010190611ca3565b50611cca929150611cce565b5090565b6106fd91905b80821115611cca5760008155600101611cd456fe7472616e7366657246726f6d28616464726573732c616464726573732c75696e74323536294f776e61626c653a206e6577206f776e657220697320746865207a65726f20616464726573735374616b696e67526577617264733a20636f6e7472616374206e6f7420696e697469616c697a65645374616b696e67526577617264733a2043616e6e6f7420776974686472617720305374616b696e67526577617264733a206475726174696f6e2063616e6e6f74206265206e756c6c5374616b696e67526577617264733a207374616b696e67546f6b656e2063616e6e6f74206265206e756c6c5374616b696e67526577617264733a20636f6e747261637420616c726561647920696e697469616c697a6564536166654d6174683a206d756c7469706c69636174696f6e206f766572666c6f775374616b696e67526577617264733a20726577617264546f6b656e2063616e6e6f74206265206e756c6c5374616b696e67526577617264733a20696e69747265776172642063616e6e6f74206265206e756c6c43616c6c6572206973206e6f742072657761726420646973747269627574696f6e5374616b696e67526577617264733a20737461727474696d652063616e6e6f74206265206e756c6c5374616b696e67526577617264733a2050726f76696465642072657761726420746f6f2068696768a265627a7a723158207b22b7d1fec7c11d367bbe7f7c192284998a0830c1fcafa17d2b88d1810a0c0464736f6c634300050d00324661726d466163746f72793a206176617461722063616e6e6f74206265206e756c6c4661726d466163746f72793a20696e637265617365526577617264206661696c65644661726d466163746f72793a20636f6e7472616374206e6f7420696e697469616c697a65644661726d466163746f72793a20636f6e747261637420616c726561647920696e697469616c697a6564a265627a7a72315820761a5fe0c47a70d1645b4bb5ae4e17a21779f1792b1a81414d91be5c887d071864736f6c634300050d0032",
  "source": "/*\n\n\n\n\n\n\n\n\n*/\n\n// SPDX-License-Identifier: GPL-3.0-or-later\n\npragma solidity 0.5.13;\n\nimport \"@daostack/arc/contracts/controller/Avatar.sol\";\nimport \"@daostack/arc/contracts/controller/Controller.sol\";\nimport \"openzeppelin-solidity/contracts/token/ERC20/IERC20.sol\";\nimport \"../incentives/StakingRewards.sol\";\n\n/**\n * @title primeDAO Yield Farming contracts factory\n * @dev   Enable primeDAO governance to start new yield farming programs.\n */\ncontract FarmFactory {\n\tstring constant ERROR_INCREASE_REWARD            = \"FarmFactory: increaseReward failed\";\n\tstring constant ERROR_RESCUE_TOKENS              = \"FarmFactory: rescueTokens failed\";\n\n\n\tAvatar public avatar;\n\tbool   public initialized;\n\n\tevent FarmCreated(address indexed newFarm, address indexed pool);\n\tevent TokenRescued(address farm, address token, address to);\n\tevent RewardIncreased(address farm, uint amount);\n\n\tmodifier initializer() {\n\t\trequire(!initialized, \t\t\t\t\t\"FarmFactory: contract already initialized\");\n\t\tinitialized = true;\n\t\t_;\n\t}\n\n\tmodifier protected() {\n\t\trequire(initialized,\t\t\t\t\t\"FarmFactory: contract not initialized\");\n\t\trequire(msg.sender == address(avatar),\t\"FarmFactory: protected operation\");\n\t\t_;\n\t}\n\n\t/**\n\t  * @dev           Initialize proxy.\n\t  * @param _avatar The address of the Avatar controlling this contract.\n\t  */\n\tfunction initialize(Avatar _avatar) external initializer {\n\t\trequire(_avatar != Avatar(0), \t\t\t\"FarmFactory: avatar cannot be null\");\n\t\tavatar = _avatar;\n\t}\n\n\t/**\n\t  * @dev           \t\t\tCreate new farm.\n\t  * @param _name  \t\t\tFarm name.\n\t  * @param _rewardToken  \tReward token address.\n\t  * @param _stakingToken \tstaking token address.\n\t  * @param _initreward \t\tInitial reward.\n\t  * @param _starttime \t\tProgram start time.\n\t  * @param _duration \t\tProgram duration.\n\t  */\n\tfunction createFarm(\n\t\tstring memory _name,\n\t\taddress \t  _rewardToken,\n\t\taddress \t  _stakingToken,\n\t\tuint256 \t  _initreward,\n\t\tuint256 \t  _starttime,\n\t\tuint256 \t  _duration\n\t)\n\tpublic\n\tpayable\n\tprotected\n\treturns(address)\n\t{\n\t\t// create new farm\n\t\taddress newFarm = _create();\n\n\t\t// transfer rewards to the new farm\n\t\tController(avatar.owner())\n\t\t\t.externalTokenTransfer(\n\t\t\t\tIERC20(_rewardToken),\n\t\t\t\tnewFarm,\n\t\t\t\t_initreward,\n\t\t\t\tavatar\n\t\t);\n\n\t\t// initialize farm\n\t\tStakingRewards(newFarm).initialize(\n\t\t\t_name,\n\t\t\t_rewardToken,\n\t\t\t_stakingToken,\n\t\t\t_initreward,\n\t\t\t_starttime,\n\t\t\t_duration,\n\t\t\taddress(avatar)\n\t\t);\n\n\t\temit FarmCreated(newFarm, _stakingToken);\n\n\t\treturn newFarm;\n\t}\n\n\tfunction increaseReward(\n\t\taddress _farm,\n\t\tuint    _amount\n\t)\n\tpublic\n\tprotected\n\t{\n\t\tStakingRewards stakingRewards = StakingRewards(_farm);\n\n\t\t_increaseReward(stakingRewards, _amount);\n\n\t\temit RewardIncreased(_farm, _amount);\n\t}\n\n\t/**\n\t  * @dev           \t\t\tRescues tokens from an existing farm.\n\t  * @param _stakingRewards  Existing Staking Rewards contract.\n\t  * @param _amount\t\t \tStaking token address.\n\t  * @param _token \t\t\tToken address to be rescued.\n\t  * @param _to \t\t\t\tRescue to an address.\n\t  */\n\tfunction rescueTokens(\n\t\tStakingRewards \t_stakingRewards,\n\t\tuint    \t\t_amount,\n\t\taddress \t\t_token,\n\t\taddress \t\t_to\n\t)\n\tpublic\n\tprotected\n\t{\n\t\t_rescueTokens(_stakingRewards, _amount, _token, _to);\n\t\temit TokenRescued(address(_stakingRewards), _token, _to);\n\t}\n\n\t/* internal helpers functions */\n\n\tfunction _create() internal returns(address) {\n\t\tStakingRewards _newFarm = new StakingRewards();\n\t\t_newFarm.transferOwnership(address(avatar));\n\n\t\treturn address(_newFarm);\n\t}\n\n\tfunction _increaseReward(\n\t\tStakingRewards _farm,\n\t\tuint    \t   _amount\n\t)\n\tinternal\n\t{\n\t\tbool success;\n\n\t\taddress _rewardToken = _farm.rewardToken();\n\t\tController controller = Controller(avatar.owner());\n\n\t\t//transfer tokens to staking rewards contract\n\t\tcontroller.externalTokenTransfer(\n\t\t\tIERC20(_rewardToken),\n\t\t\taddress(_farm),\n\t\t\t_amount,\n\t\t\tavatar\n\t\t);\n\n\t\t//call notify reward amount\n\t\t(success,) = controller.genericCall(\n\t\t\taddress(_farm),\n\t\t\tabi.encodeWithSelector(\n\t\t\t\t_farm.notifyRewardAmount.selector,\n\t\t\t\t_amount\n\t\t\t),\n\t\t\tavatar,\n\t\t\t0\n\t\t);\n\n\t\trequire(success, ERROR_INCREASE_REWARD);\n\t}\n\n\tfunction _rescueTokens(\n\t\tStakingRewards \t_stakingRewards,\n\t\tuint    \t \t_amount,\n\t\taddress \t\t_token,\n\t\taddress \t\t_to\n\t)\n\tinternal\n\t{\n\t\tbool success;\n\t\tController controller = Controller(avatar.owner());\n\n\t\t(success,) = controller.genericCall(\n\t\t\taddress(_stakingRewards),\n\t\t\tabi.encodeWithSelector(\n\t\t\t\t_stakingRewards.rescueTokens.selector,\n\t\t\t\t_token,\n\t\t\t\t_amount,\n\t\t\t\t_to\n\t\t\t),\n\t\t\tavatar,\n\t\t\t0\n\t\t);\n\t\trequire(success, ERROR_RESCUE_TOKENS);\n\t}\n}\n",
  "sourcePath": "/home/tengree/Projects/primedao/contracts/contracts/schemes/FarmFactory.sol",
  "compiler": {
    "name": "solc",
    "version": "0.5.13+commit.5b0b510c.Emscripten.clang"
  },
  "schemaVersion": "3.3.3",
  "updatedAt": "2021-02-02T10:40:50.660Z",
  "devdoc": {
    "details": "Enable primeDAO governance to start new yield farming programs.",
    "methods": {
      "createFarm(string,address,address,uint256,uint256,uint256)": {
        "details": "Create new farm.",
        "params": {
          "_duration": "Program duration.",
          "_initreward": "Initial reward.",
          "_name": "Farm name.",
          "_rewardToken": "Reward token address.",
          "_stakingToken": "staking token address.",
          "_starttime": "Program start time."
        }
      },
      "initialize(address)": {
        "details": "Initialize proxy.",
        "params": {
          "_avatar": "The address of the Avatar controlling this contract."
        }
      },
      "rescueTokens(address,uint256,address,address)": {
        "details": "Rescues tokens from an existing farm.",
        "params": {
          "_amount": "Staking token address.",
          "_stakingRewards": "Existing Staking Rewards contract.",
          "_to": "Rescue to an address.",
          "_token": "Token address to be rescued."
        }
      }
    },
    "title": "primeDAO Yield Farming contracts factory"
  },
  "userdoc": {
    "methods": {}
  }
}