{
  "contractName": "FarmFactory",
  "abi": [
    {
      "anonymous": false,
      "inputs": [
        {
          "indexed": true,
          "internalType": "address",
          "name": "newFarm",
          "type": "address"
        },
        {
          "indexed": true,
          "internalType": "address",
          "name": "pool",
          "type": "address"
        }
      ],
      "name": "FarmCreated",
      "type": "event"
    },
    {
      "anonymous": false,
      "inputs": [
        {
          "indexed": false,
          "internalType": "address",
          "name": "farm",
          "type": "address"
        },
        {
          "indexed": false,
          "internalType": "uint256",
          "name": "amount",
          "type": "uint256"
        }
      ],
      "name": "RewardIncreased",
      "type": "event"
    },
    {
      "anonymous": false,
      "inputs": [
        {
          "indexed": false,
          "internalType": "address",
          "name": "farm",
          "type": "address"
        },
        {
          "indexed": false,
          "internalType": "address",
          "name": "token",
          "type": "address"
        },
        {
          "indexed": false,
          "internalType": "address",
          "name": "to",
          "type": "address"
        }
      ],
      "name": "TokenRescued",
      "type": "event"
    },
    {
      "constant": true,
      "inputs": [],
      "name": "avatar",
      "outputs": [
        {
          "internalType": "contract Avatar",
          "name": "",
          "type": "address"
        }
      ],
      "payable": false,
      "stateMutability": "view",
      "type": "function"
    },
    {
      "constant": true,
      "inputs": [],
      "name": "initialized",
      "outputs": [
        {
          "internalType": "bool",
          "name": "",
          "type": "bool"
        }
      ],
      "payable": false,
      "stateMutability": "view",
      "type": "function"
    },
    {
      "constant": true,
      "inputs": [],
      "name": "parent",
      "outputs": [
        {
          "internalType": "contract StakingRewards",
          "name": "",
          "type": "address"
        }
      ],
      "payable": false,
      "stateMutability": "view",
      "type": "function"
    },
    {
      "constant": false,
      "inputs": [
        {
          "internalType": "contract Avatar",
          "name": "_avatar",
          "type": "address"
        },
        {
          "internalType": "contract StakingRewards",
          "name": "_parent",
          "type": "address"
        }
      ],
      "name": "initialize",
      "outputs": [],
      "payable": false,
      "stateMutability": "nonpayable",
      "type": "function"
    },
    {
      "constant": false,
      "inputs": [
        {
          "internalType": "contract StakingRewards",
          "name": "newParent",
          "type": "address"
        }
      ],
      "name": "changeParent",
      "outputs": [],
      "payable": false,
      "stateMutability": "nonpayable",
      "type": "function"
    },
    {
      "constant": false,
      "inputs": [
        {
          "internalType": "string",
          "name": "_name",
          "type": "string"
        },
        {
          "internalType": "address",
          "name": "_rewardToken",
          "type": "address"
        },
        {
          "internalType": "address",
          "name": "_stakingToken",
          "type": "address"
        },
        {
          "internalType": "uint256",
          "name": "_initreward",
          "type": "uint256"
        },
        {
          "internalType": "uint256",
          "name": "_starttime",
          "type": "uint256"
        },
        {
          "internalType": "uint256",
          "name": "_duration",
          "type": "uint256"
        }
      ],
      "name": "createFarm",
      "outputs": [
        {
          "internalType": "address",
          "name": "",
          "type": "address"
        }
      ],
      "payable": true,
      "stateMutability": "payable",
      "type": "function"
    },
    {
      "constant": false,
      "inputs": [
        {
          "internalType": "address",
          "name": "_farm",
          "type": "address"
        },
        {
          "internalType": "uint256",
          "name": "_amount",
          "type": "uint256"
        }
      ],
      "name": "increaseReward",
      "outputs": [],
      "payable": false,
      "stateMutability": "nonpayable",
      "type": "function"
    },
    {
      "constant": false,
      "inputs": [
        {
          "internalType": "contract StakingRewards",
          "name": "_stakingRewards",
          "type": "address"
        },
        {
          "internalType": "uint256",
          "name": "_amount",
          "type": "uint256"
        },
        {
          "internalType": "address",
          "name": "_token",
          "type": "address"
        },
        {
          "internalType": "address",
          "name": "_to",
          "type": "address"
        }
      ],
      "name": "rescueTokens",
      "outputs": [],
      "payable": false,
      "stateMutability": "nonpayable",
      "type": "function"
    }
  ],
  "bytecode": "0x608060405234801561001057600080fd5b50611578806100206000396000f3fe60806040526004361061007b5760003560e01c806360f96a8f1161004e57806360f96a8f146101df5780639b08e8fc146101f4578063a05d8a0b14610227578063f8b20c96146102605761007b565b8063158ef93e14610080578063485cc955146100a9578063556bc7f1146100e65780635aef7de6146101ca575b600080fd5b34801561008c57600080fd5b506100956102a9565b604080519115158252519081900360200190f35b3480156100b557600080fd5b506100e4600480360360408110156100cc57600080fd5b506001600160a01b03813581169160200135166102b9565b005b6101ae600480360360c08110156100fc57600080fd5b81019060208101813564010000000081111561011757600080fd5b82018360208201111561012957600080fd5b8035906020019184600183028401116401000000008311171561014b57600080fd5b91908080601f016020809104026020016040519081016040528093929190818152602001838380828437600092019190915250929550506001600160a01b03833581169450602084013516926040810135925060608101359150608001356103cd565b604080516001600160a01b039092168252519081900360200190f35b3480156101d657600080fd5b506101ae610809565b3480156101eb57600080fd5b506101ae610818565b34801561020057600080fd5b506100e46004803603602081101561021757600080fd5b50356001600160a01b0316610827565b34801561023357600080fd5b506100e46004803603604081101561024a57600080fd5b506001600160a01b0381351690602001356108de565b34801561026c57600080fd5b506100e46004803603608081101561028357600080fd5b506001600160a01b038135811691602081013591604082013581169160600135166109c7565b600154600160a01b900460ff1681565b600154600160a01b900460ff16156103025760405162461bcd60e51b815260040180806020018281038252602981526020018061151b6029913960400191505060405180910390fd5b6001805460ff60a01b1916600160a01b1790556001600160a01b03821661035a5760405162461bcd60e51b81526004018080602001828103825260228152602001806114906022913960400191505060405180910390fd5b6001600160a01b03811661039f5760405162461bcd60e51b81526004018080602001828103825260228152602001806114f96022913960400191505060405180910390fd5b600080546001600160a01b039384166001600160a01b03199182161790915560018054929093169116179055565b600154600090600160a01b900460ff166104185760405162461bcd60e51b81526004018080602001828103825260258152602001806114d46025913960400191505060405180910390fd5b6000546001600160a01b03163314610465576040805162461bcd60e51b81526020600482018190526024820152600080516020611470833981519152604482015290519081900360640190fd5b600054604080516370a0823160e01b81526001600160a01b039283166004820152905186928916916370a08231916024808301926020929190829003018186803b1580156104b257600080fd5b505afa1580156104c6573d6000803e3d6000fd5b505050506040513d60208110156104dc57600080fd5b505160408051808201909152601a81527f4661726d466163746f72793a20637265617465206661696c6564000000000000602082015291111561059d5760405162461bcd60e51b81526004018080602001828103825283818151815260200191508051906020019080838360005b8381101561056257818101518382015260200161054a565b50505050905090810190601f16801561058f5780820380516001836020036101000a031916815260200191505b509250505060405180910390fd5b506001546000906105b6906001600160a01b0316610ab9565b90506000809054906101000a90046001600160a01b03166001600160a01b0316638da5cb5b6040518163ffffffff1660e01b815260040160206040518083038186803b15801561060557600080fd5b505afa158015610619573d6000803e3d6000fd5b505050506040513d602081101561062f57600080fd5b5051600080546040805163b9a04cdd60e01b81526001600160a01b038c811660048301528681166024830152604482018b905292831660648201529051919093169263b9a04cdd9260848083019360209390929083900390910190829087803b15801561069b57600080fd5b505af11580156106af573d6000803e3d6000fd5b505050506040513d60208110156106c557600080fd5b50506000805460405163e258a6bf60e01b81526001600160a01b038a811660248301528981166044830152606482018890526084820187905291821660a4820181905260c0600483019081528c5160c48401528c519386169463e258a6bf948e948e948e948d948d9492939192839260e4019160208b0191908190849084905b8381101561075d578181015183820152602001610745565b50505050905090810190601f16801561078a5780820380516001836020036101000a031916815260200191505b50975050505050505050600060405180830381600087803b1580156107ae57600080fd5b505af11580156107c2573d6000803e3d6000fd5b50506040516001600160a01b03808a169350841691507f6bff9ddd187ef283e9c7726f406ab27bcc3719a41b6bee3585c7447183cffcec90600090a3979650505050505050565b6000546001600160a01b031681565b6001546001600160a01b031681565b600154600160a01b900460ff1661086f5760405162461bcd60e51b81526004018080602001828103825260258152602001806114d46025913960400191505060405180910390fd5b6000546001600160a01b031633146108bc576040805162461bcd60e51b81526020600482018190526024820152600080516020611470833981519152604482015290519081900360640190fd5b600180546001600160a01b0319166001600160a01b0392909216919091179055565b600154600160a01b900460ff166109265760405162461bcd60e51b81526004018080602001828103825260258152602001806114d46025913960400191505060405180910390fd5b6000546001600160a01b03163314610973576040805162461bcd60e51b81526020600482018190526024820152600080516020611470833981519152604482015290519081900360640190fd5b8161097e8183610b0b565b604080516001600160a01b03851681526020810184905281517f3734977dac0c3794147c3e814ea48ff46d285e1f20ce78746fb976620ccc320e929181900390910190a1505050565b600154600160a01b900460ff16610a0f5760405162461bcd60e51b81526004018080602001828103825260258152602001806114d46025913960400191505060405180910390fd5b6000546001600160a01b03163314610a5c576040805162461bcd60e51b81526020600482018190526024820152600080516020611470833981519152604482015290519081900360640190fd5b610a6884848484611009565b604080516001600160a01b038087168252808516602083015283168183015290517fb6c5f502296ab8d0446fee6b8ce587183d7e30f838c5fc310e6fd37ad113d4cf9181900360600190a150505050565b6000808260601b9050604051733d602d80600a3d3981f3363d3d373d3d3d363d7360601b81528160148201526e5af43d82803e903d91602b57fd5bf360881b60288201526037816000f0949350505050565b600080836001600160a01b031663f7c618c16040518163ffffffff1660e01b815260040160206040518083038186803b158015610b4757600080fd5b505afa158015610b5b573d6000803e3d6000fd5b505050506040513d6020811015610b7157600080fd5b5051604080516370a0823160e01b81526001600160a01b0387811660048301529151929350600092918416916370a0823191602480820192602092909190829003018186803b158015610bc357600080fd5b505afa158015610bd7573d6000803e3d6000fd5b505050506040513d6020811015610bed57600080fd5b5051600054604080516370a0823160e01b81526001600160a01b03928316600482015290519293508692918516916370a0823191602480820192602092909190829003018186803b158015610c4157600080fd5b505afa158015610c55573d6000803e3d6000fd5b505050506040513d6020811015610c6b57600080fd5b5051604080516060810190915260228082529290911015916114b2602083013990610cd75760405162461bcd60e51b815260206004820181815283516024840152835190928392604490910191908501908083836000831561056257818101518382015260200161054a565b5060008060009054906101000a90046001600160a01b03166001600160a01b0316638da5cb5b6040518163ffffffff1660e01b815260040160206040518083038186803b158015610d2757600080fd5b505afa158015610d3b573d6000803e3d6000fd5b505050506040513d6020811015610d5157600080fd5b5051600080546040805163b9a04cdd60e01b81526001600160a01b0388811660048301528b81166024830152604482018b9052928316606482015290519394509084169263b9a04cdd92608480840193602093929083900390910190829087803b158015610dbe57600080fd5b505af1158015610dd2573d6000803e3d6000fd5b505050506040513d6020811015610de857600080fd5b50506001600160a01b03811663d1b7089a87633c6b16ab60e01b610e12898763ffffffff61140e16565b60408051602480820193909352815180820384018152604491820183526020810180516001600160e01b03166001600160e01b031996871617815260008054945160e08a901b90971687526001600160a01b0388811660048901908152951693870184905260648701819052608095870195865282516084880152825192969395909493909260a49091019190808383885b83811015610ebc578181015183820152602001610ea4565b50505050905090810190601f168015610ee95780820380516001836020036101000a031916815260200191505b5095505050505050600060405180830381600087803b158015610f0b57600080fd5b505af1158015610f1f573d6000803e3d6000fd5b505050506040513d6000823e601f3d908101601f191682016040908152811015610f4857600080fd5b815160208301805160405192949293830192919084640100000000821115610f6f57600080fd5b908301906020820185811115610f8457600080fd5b8251640100000000811182820188101715610f9e57600080fd5b82525081516020918201929091019080838360005b83811015610fcb578181015183820152602001610fb3565b50505050905090810190601f168015610ff85780820380516001836020036101000a031916815260200191505b506040525050505050505050505050565b6000805460408051638da5cb5b60e01b8152905183926001600160a01b031691638da5cb5b916004808301926020929190829003018186803b15801561104e57600080fd5b505afa158015611062573d6000803e3d6000fd5b505050506040513d602081101561107857600080fd5b5051604080516370a0823160e01b81526001600160a01b03898116600483015291519293508792918716916370a0823191602480820192602092909190829003018186803b1580156110c957600080fd5b505afa1580156110dd573d6000803e3d6000fd5b505050506040513d60208110156110f357600080fd5b50516040805180820190915260208082527f4661726d466163746f72793a20726573637565546f6b656e73206661696c6564908201529111156111775760405162461bcd60e51b815260206004820181815283516024840152835190928392604490910191908501908083836000831561056257818101518382015260200161054a565b50604080516001600160a01b0386811660248084019190915260448084018a9052878316606480860191909152855180860382018152608495860187526020810180516001600160e01b0316630b37fd1960e41b1781526000805498516368db844d60e11b81528f881660048201908152998816958101869052938401819052608095840195865282519784019790975281519589169763d1b7089a978f97939690949193909260a49092019190808383885b8381101561124257818101518382015260200161122a565b50505050905090810190601f16801561126f5780820380516001836020036101000a031916815260200191505b5095505050505050600060405180830381600087803b15801561129157600080fd5b505af11580156112a5573d6000803e3d6000fd5b505050506040513d6000823e601f3d908101601f1916820160409081528110156112ce57600080fd5b8151602083018051604051929492938301929190846401000000008211156112f557600080fd5b90830190602082018581111561130a57600080fd5b825164010000000081118282018810171561132457600080fd5b82525081516020918201929091019080838360005b83811015611351578181015183820152602001611339565b50505050905090810190601f16801561137e5780820380516001836020036101000a031916815260200191505b506040818101905260208082527f4661726d466163746f72793a20726573637565546f6b656e73206661696c656490820152949650869350611405925050505760405162461bcd60e51b815260206004820181815283516024840152835190928392604490910191908501908083836000831561056257818101518382015260200161054a565b50505050505050565b600082820183811015611468576040805162461bcd60e51b815260206004820152601b60248201527f536166654d6174683a206164646974696f6e206f766572666c6f770000000000604482015290519081900360640190fd5b939250505056fe4661726d466163746f72793a2070726f746563746564206f7065726174696f6e4661726d466163746f72793a206176617461722063616e6e6f74206265206e756c6c4661726d466163746f72793a20696e637265617365526577617264206661696c65644661726d466163746f72793a20636f6e7472616374206e6f7420696e697469616c697a65644661726d466163746f72793a20706172656e742063616e6e6f74206265206e756c6c4661726d466163746f72793a20636f6e747261637420616c726561647920696e697469616c697a6564a265627a7a72315820d4a9f16cbff6b7fa62fa3008b6c449bffe3430365d07b598260ad2652b34cfca64736f6c634300050d0032",
  "source": "/*\n\n██████╗░██████╗░██╗███╗░░░███╗███████╗██████╗░░█████╗░░█████╗░\n██╔══██╗██╔══██╗██║████╗░████║██╔════╝██╔══██╗██╔══██╗██╔══██╗\n██████╔╝██████╔╝██║██╔████╔██║█████╗░░██║░░██║███████║██║░░██║\n██╔═══╝░██╔══██╗██║██║╚██╔╝██║██╔══╝░░██║░░██║██╔══██║██║░░██║\n██║░░░░░██║░░██║██║██║░╚═╝░██║███████╗██████╔╝██║░░██║╚█████╔╝\n╚═╝░░░░░╚═╝░░╚═╝╚═╝╚═╝░░░░░╚═╝╚══════╝╚═════╝░╚═╝░░╚═╝░╚════╝░\n\n*/\n\n// SPDX-License-Identifier: GPL-3.0-or-later\n\npragma solidity 0.5.13;\n\nimport \"@daostack/arc/contracts/controller/Avatar.sol\";\nimport \"@daostack/arc/contracts/controller/Controller.sol\";\nimport \"openzeppelin-solidity/contracts/token/ERC20/IERC20.sol\";\nimport \"../utils/CloneFactory.sol\";\nimport \"./StakingRewards.sol\";\n\n/**\n * @title primeDAO Yield Farming contracts factory\n * @dev   Enable primeDAO governance to start new yield farming programs.\n */\ncontract FarmFactory is CloneFactory {\n\n\tusing SafeMath for uint256;\n\n\tstring constant ERROR_INCREASE_REWARD            = \"FarmFactory: increaseReward failed\";\n\tstring constant ERROR_RESCUE_TOKENS              = \"FarmFactory: rescueTokens failed\";\n\tstring constant ERROR_CREATE_FARM                = \"FarmFactory: create failed\";\n\n\n\tAvatar public avatar;\n\tStakingRewards public parent;\n\tbool   public initialized;\n\n\tevent FarmCreated(address indexed newFarm, address indexed pool);\n\tevent TokenRescued(address farm, address token, address to);\n\tevent RewardIncreased(address farm, uint amount);\n\n\tmodifier initializer() {\n\t\trequire(!initialized, \t\t\t\t\t\"FarmFactory: contract already initialized\");\n\t\tinitialized = true;\n\t\t_;\n\t}\n\n\tmodifier protected() {\n\t\trequire(initialized,\t\t\t\t\t\"FarmFactory: contract not initialized\");\n\t\trequire(msg.sender == address(avatar),\t\"FarmFactory: protected operation\");\n\t\t_;\n\t}\n\n\t/**\n\t  * @dev           Initialize proxy.\n\t  * @param _avatar The address of the Avatar controlling this contract.\\\n\t  * @param _parent The address of the StakingRewards contract which will be a parent for all of the cloness.\n\t  */\n\tfunction initialize(Avatar _avatar, StakingRewards _parent) external initializer {\n\t\trequire(_avatar != Avatar(0), \t\t\t\"FarmFactory: avatar cannot be null\");\n\t\trequire(_parent != StakingRewards(0), \t\"FarmFactory: parent cannot be null\");\n\t\tavatar = _avatar;\n\t\tparent = _parent;\n\t}\n\n\t/**\n  \t* @dev             Update StakingReward contract which works as a base for clones.\n  \t* @param newParent The address of the new StakingReward basis.\n  \t*/\n\tfunction changeParent(StakingRewards newParent) public protected{\n\t\tparent = newParent;\n\t}\n\n\t/**\n\t  * @dev           \t\t\tCreate new farm.\n\t  * @param _name  \t\t\tFarm name.\n\t  * @param _rewardToken  \tReward token address.\n\t  * @param _stakingToken \tstaking token address.\n\t  * @param _initreward \t\tInitial reward.\n\t  * @param _starttime \t\tProgram start time.\n\t  * @param _duration \t\tProgram duration.\n\t  */\n\tfunction createFarm(\n\t\tstring memory _name,\n\t\taddress \t  _rewardToken,\n\t\taddress \t  _stakingToken,\n\t\tuint256 \t  _initreward,\n\t\tuint256 \t  _starttime,\n\t\tuint256 \t  _duration\n\t)\n\tpublic\n\tpayable\n\tprotected\n\treturns(address)\n\t{\n\t\trequire( IERC20(_rewardToken).balanceOf(address(avatar)) >= _initreward,\n\t\t\tERROR_CREATE_FARM);\n\n\t\t// create new farm\n\t\taddress newFarm = createClone(address(parent));\n\n\t\t// transfer rewards to the new farm\n\t\tController(avatar.owner())\n\t\t.externalTokenTransfer(\n\t\t\tIERC20(_rewardToken),\n\t\t\tnewFarm,\n\t\t\t_initreward,\n\t\t\tavatar\n\t\t);\n\n\t\t// initialize farm\n\t\tStakingRewards(newFarm).initialize(\n\t\t\t_name,\n\t\t\t_rewardToken,\n\t\t\t_stakingToken,\n\t\t\t_starttime,\n\t\t\t_duration,\n\t\t\taddress(avatar)\n\t\t);\n\n\t\temit FarmCreated(newFarm, _stakingToken);\n\n\t\treturn newFarm;\n\t}\n\n\tfunction increaseReward(\n\t\taddress _farm,\n\t\tuint    _amount\n\t)\n\tpublic\n\tprotected\n\t{\n\n\t\tStakingRewards stakingRewards = StakingRewards(_farm);\n\n\t\t_increaseReward(stakingRewards, _amount);\n\n\t\temit RewardIncreased(_farm, _amount);\n\t}\n\n\t/**\n\t  * @dev           \t\t\tRescues tokens from an existing farm.\n\t  * @param _stakingRewards  Existing Staking Rewards contract.\n\t  * @param _amount\t\t \tStaking token address.\n\t  * @param _token \t\t\tToken address to be rescued.\n\t  * @param _to \t\t\t\tRescue to an address.\n\t  */\n\tfunction rescueTokens(\n\t\tStakingRewards \t_stakingRewards,\n\t\tuint    \t\t_amount,\n\t\taddress \t\t_token,\n\t\taddress \t\t_to\n\t)\n\tpublic\n\tprotected\n\t{\n\t\t_rescueTokens(_stakingRewards, _amount, _token, _to);\n\t\temit TokenRescued(address(_stakingRewards), _token, _to);\n\t}\n\n\t/* internal helpers functions */\n\n\tfunction _increaseReward(\n\t\tStakingRewards _farm,\n\t\tuint    \t   _amount\n\t)\n\tinternal\n\t{\n\t\tbool success;\n\t\taddress _rewardToken = _farm.rewardToken();\n\t\tuint oldBalance = IERC20(_rewardToken).balanceOf(address(_farm));\n\n\t\trequire( IERC20(_rewardToken).balanceOf(address(avatar)) >= _amount,\n\t\t\tERROR_INCREASE_REWARD);\n\n\t\tController controller = Controller(avatar.owner());\n\t\t//transfer tokens to staking rewards contract\n\t\tcontroller.externalTokenTransfer(\n\t\t\tIERC20(_rewardToken),\n\t\t\taddress(_farm),\n\t\t\t_amount,\n\t\t\tavatar\n\t\t);\n\n\t\t//call notify reward amount\n\t\t(success,) = controller.genericCall(\n\t\t\taddress(_farm),\n\t\t\tabi.encodeWithSelector(\n\t\t\t\t_farm.notifyRewardAmount.selector,\n\t\t\t\t_amount.add(oldBalance)\n\t\t\t),\n\t\t\tavatar,\n\t\t\t0\n\t\t);\n\t}\n\n\tfunction _rescueTokens(\n\t\tStakingRewards \t_stakingRewards,\n\t\tuint    \t \t_amount,\n\t\taddress \t\t_token,\n\t\taddress \t\t_to\n\t)\n\tinternal\n\t{\n\t\tbool success;\n\t\tController controller = Controller(avatar.owner());\n\t\trequire( IERC20(_token).balanceOf(address(_stakingRewards)) >= _amount,\n\t\t\tERROR_RESCUE_TOKENS);\n\n\t\t(success,) = controller.genericCall(\n\t\t\taddress(_stakingRewards),\n\t\t\tabi.encodeWithSelector(\n\t\t\t\t_stakingRewards.rescueTokens.selector,\n\t\t\t\t_token,\n\t\t\t\t_amount,\n\t\t\t\t_to\n\t\t\t),\n\t\t\tavatar,\n\t\t\t0\n\t\t);\n\t\trequire(success, ERROR_RESCUE_TOKENS);\n\t}\n}\n",
  "sourcePath": "/home/konst/Documents/job/contracts/contracts/incentives/FarmFactory.sol",
  "compiler": {
    "name": "solc",
    "version": "0.5.13+commit.5b0b510c.Emscripten.clang"
  },
  "schemaVersion": "3.2.4",
  "updatedAt": "2021-04-29T16:22:59.654Z",
  "devdoc": {
    "details": "Enable primeDAO governance to start new yield farming programs.",
    "methods": {
      "changeParent(address)": {
        "details": "Update StakingReward contract which works as a base for clones.",
        "params": {
          "newParent": "The address of the new StakingReward basis."
        }
      },
      "createFarm(string,address,address,uint256,uint256,uint256)": {
        "details": "Create new farm.",
        "params": {
          "_duration": "Program duration.",
          "_initreward": "Initial reward.",
          "_name": "Farm name.",
          "_rewardToken": "Reward token address.",
          "_stakingToken": "staking token address.",
          "_starttime": "Program start time."
        }
      },
      "initialize(address,address)": {
        "details": "Initialize proxy.",
        "params": {
          "_avatar": "The address of the Avatar controlling this contract.\\",
          "_parent": "The address of the StakingRewards contract which will be a parent for all of the cloness."
        }
      },
      "rescueTokens(address,uint256,address,address)": {
        "details": "Rescues tokens from an existing farm.",
        "params": {
          "_amount": "Staking token address.",
          "_stakingRewards": "Existing Staking Rewards contract.",
          "_to": "Rescue to an address.",
          "_token": "Token address to be rescued."
        }
      }
    },
    "title": "primeDAO Yield Farming contracts factory"
  },
  "userdoc": {
    "methods": {}
  }
}