{
  "contractName": "FarmFactory",
  "abi": [
    {
      "anonymous": false,
      "inputs": [
        {
          "indexed": true,
          "internalType": "address",
          "name": "newFarm",
          "type": "address"
        },
        {
          "indexed": true,
          "internalType": "address",
          "name": "pool",
          "type": "address"
        }
      ],
      "name": "FarmCreated",
      "type": "event"
    },
    {
      "anonymous": false,
      "inputs": [
        {
          "indexed": true,
          "internalType": "address",
          "name": "farm",
          "type": "address"
        },
        {
          "indexed": true,
          "internalType": "uint256",
          "name": "amount",
          "type": "uint256"
        }
      ],
      "name": "RewardIncreased",
      "type": "event"
    },
    {
      "anonymous": false,
      "inputs": [
        {
          "indexed": true,
          "internalType": "address",
          "name": "farm",
          "type": "address"
        },
        {
          "indexed": true,
          "internalType": "address",
          "name": "token",
          "type": "address"
        },
        {
          "indexed": true,
          "internalType": "address",
          "name": "to",
          "type": "address"
        }
      ],
      "name": "TokenRescued",
      "type": "event"
    },
    {
      "constant": true,
      "inputs": [],
      "name": "avatar",
      "outputs": [
        {
          "internalType": "contract Avatar",
          "name": "",
          "type": "address"
        }
      ],
      "payable": false,
      "stateMutability": "view",
      "type": "function"
    },
    {
      "constant": true,
      "inputs": [],
      "name": "initialized",
      "outputs": [
        {
          "internalType": "bool",
          "name": "",
          "type": "bool"
        }
      ],
      "payable": false,
      "stateMutability": "view",
      "type": "function"
    },
    {
      "constant": true,
      "inputs": [],
      "name": "masterCopy",
      "outputs": [
        {
          "internalType": "contract StakingRewards",
          "name": "",
          "type": "address"
        }
      ],
      "payable": false,
      "stateMutability": "view",
      "type": "function"
    },
    {
      "constant": false,
      "inputs": [
        {
          "internalType": "contract Avatar",
          "name": "_avatar",
          "type": "address"
        },
        {
          "internalType": "contract StakingRewards",
          "name": "_masterCopy",
          "type": "address"
        }
      ],
      "name": "initialize",
      "outputs": [],
      "payable": false,
      "stateMutability": "nonpayable",
      "type": "function"
    },
    {
      "constant": false,
      "inputs": [
        {
          "internalType": "contract StakingRewards",
          "name": "newMasterCopy",
          "type": "address"
        }
      ],
      "name": "changeMasterCopy",
      "outputs": [],
      "payable": false,
      "stateMutability": "nonpayable",
      "type": "function"
    },
    {
      "constant": false,
      "inputs": [
        {
          "internalType": "string",
          "name": "_name",
          "type": "string"
        },
        {
          "internalType": "address",
          "name": "_rewardToken",
          "type": "address"
        },
        {
          "internalType": "address",
          "name": "_stakingToken",
          "type": "address"
        },
        {
          "internalType": "uint256",
          "name": "_initreward",
          "type": "uint256"
        },
        {
          "internalType": "uint256",
          "name": "_starttime",
          "type": "uint256"
        },
        {
          "internalType": "uint256",
          "name": "_duration",
          "type": "uint256"
        }
      ],
      "name": "createFarm",
      "outputs": [
        {
          "internalType": "address",
          "name": "",
          "type": "address"
        }
      ],
      "payable": true,
      "stateMutability": "payable",
      "type": "function"
    },
    {
      "constant": false,
      "inputs": [
        {
          "internalType": "address",
          "name": "_farm",
          "type": "address"
        },
        {
          "internalType": "uint256",
          "name": "_amount",
          "type": "uint256"
        }
      ],
      "name": "increaseReward",
      "outputs": [],
      "payable": false,
      "stateMutability": "nonpayable",
      "type": "function"
    },
    {
      "constant": false,
      "inputs": [
        {
          "internalType": "contract StakingRewards",
          "name": "_stakingRewards",
          "type": "address"
        },
        {
          "internalType": "uint256",
          "name": "_amount",
          "type": "uint256"
        },
        {
          "internalType": "address",
          "name": "_token",
          "type": "address"
        },
        {
          "internalType": "address",
          "name": "_to",
          "type": "address"
        }
      ],
      "name": "rescueTokens",
      "outputs": [],
      "payable": false,
      "stateMutability": "nonpayable",
      "type": "function"
    }
  ],
  "bytecode": "0x608060405234801561001057600080fd5b506114d2806100206000396000f3fe60806040526004361061007b5760003560e01c80637de7edef1161004e5780637de7edef146101df578063a05d8a0b14610212578063a619486e1461024b578063f8b20c96146102605761007b565b8063158ef93e14610080578063485cc955146100a9578063556bc7f1146100e65780635aef7de6146101ca575b600080fd5b34801561008c57600080fd5b506100956102a9565b604080519115158252519081900360200190f35b3480156100b557600080fd5b506100e4600480360360408110156100cc57600080fd5b506001600160a01b03813581169160200135166102b9565b005b6101ae600480360360c08110156100fc57600080fd5b81019060208101813564010000000081111561011757600080fd5b82018360208201111561012957600080fd5b8035906020019184600183028401116401000000008311171561014b57600080fd5b91908080601f016020809104026020016040519081016040528093929190818152602001838380828437600092019190915250929550506001600160a01b03833581169450602084013516926040810135925060608101359150608001356103cd565b604080516001600160a01b039092168252519081900360200190f35b3480156101d657600080fd5b506101ae610809565b3480156101eb57600080fd5b506100e46004803603602081101561020257600080fd5b50356001600160a01b0316610818565b34801561021e57600080fd5b506100e46004803603604081101561023557600080fd5b506001600160a01b0381351690602001356108cf565b34801561025757600080fd5b506101ae6109aa565b34801561026c57600080fd5b506100e46004803603608081101561028357600080fd5b506001600160a01b038135811691602081013591604082013581169160600135166109b9565b600154600160a01b900460ff1681565b600154600160a01b900460ff16156103025760405162461bcd60e51b81526004018080602001828103825260298152602001806114756029913960400191505060405180910390fd5b6001805460ff60a01b1916600160a01b1790556001600160a01b03821661035a5760405162461bcd60e51b81526004018080602001828103825260228152602001806113e66022913960400191505060405180910390fd5b6001600160a01b03811661039f5760405162461bcd60e51b81526004018080602001828103825260268152602001806114086026913960400191505060405180910390fd5b600080546001600160a01b039384166001600160a01b03199182161790915560018054929093169116179055565b600154600090600160a01b900460ff166104185760405162461bcd60e51b81526004018080602001828103825260258152602001806114506025913960400191505060405180910390fd5b6000546001600160a01b03163314610465576040805162461bcd60e51b815260206004820181905260248201526000805160206113c6833981519152604482015290519081900360640190fd5b600054604080516370a0823160e01b81526001600160a01b039283166004820152905186928916916370a08231916024808301926020929190829003018186803b1580156104b257600080fd5b505afa1580156104c6573d6000803e3d6000fd5b505050506040513d60208110156104dc57600080fd5b505160408051808201909152601a81527f4661726d466163746f72793a20637265617465206661696c6564000000000000602082015291111561059d5760405162461bcd60e51b81526004018080602001828103825283818151815260200191508051906020019080838360005b8381101561056257818101518382015260200161054a565b50505050905090810190601f16801561058f5780820380516001836020036101000a031916815260200191505b509250505060405180910390fd5b506001546000906105b6906001600160a01b0316610aaa565b90506000809054906101000a90046001600160a01b03166001600160a01b0316638da5cb5b6040518163ffffffff1660e01b815260040160206040518083038186803b15801561060557600080fd5b505afa158015610619573d6000803e3d6000fd5b505050506040513d602081101561062f57600080fd5b5051600080546040805163b9a04cdd60e01b81526001600160a01b038c811660048301528681166024830152604482018b905292831660648201529051919093169263b9a04cdd9260848083019360209390929083900390910190829087803b15801561069b57600080fd5b505af11580156106af573d6000803e3d6000fd5b505050506040513d60208110156106c557600080fd5b50506000805460405163e258a6bf60e01b81526001600160a01b038a811660248301528981166044830152606482018890526084820187905291821660a4820181905260c0600483019081528c5160c48401528c519386169463e258a6bf948e948e948e948d948d9492939192839260e4019160208b0191908190849084905b8381101561075d578181015183820152602001610745565b50505050905090810190601f16801561078a5780820380516001836020036101000a031916815260200191505b50975050505050505050600060405180830381600087803b1580156107ae57600080fd5b505af11580156107c2573d6000803e3d6000fd5b50506040516001600160a01b03808a169350841691507f6bff9ddd187ef283e9c7726f406ab27bcc3719a41b6bee3585c7447183cffcec90600090a3979650505050505050565b6000546001600160a01b031681565b600154600160a01b900460ff166108605760405162461bcd60e51b81526004018080602001828103825260258152602001806114506025913960400191505060405180910390fd5b6000546001600160a01b031633146108ad576040805162461bcd60e51b815260206004820181905260248201526000805160206113c6833981519152604482015290519081900360640190fd5b600180546001600160a01b0319166001600160a01b0392909216919091179055565b600154600160a01b900460ff166109175760405162461bcd60e51b81526004018080602001828103825260258152602001806114506025913960400191505060405180910390fd5b6000546001600160a01b03163314610964576040805162461bcd60e51b815260206004820181905260248201526000805160206113c6833981519152604482015290519081900360640190fd5b8161096f8183610afc565b60405182906001600160a01b038516907f3734977dac0c3794147c3e814ea48ff46d285e1f20ce78746fb976620ccc320e90600090a3505050565b6001546001600160a01b031681565b600154600160a01b900460ff16610a015760405162461bcd60e51b81526004018080602001828103825260258152602001806114506025913960400191505060405180910390fd5b6000546001600160a01b03163314610a4e576040805162461bcd60e51b815260206004820181905260248201526000805160206113c6833981519152604482015290519081900360640190fd5b610a5a84848484610fc0565b806001600160a01b0316826001600160a01b0316856001600160a01b03167fb6c5f502296ab8d0446fee6b8ce587183d7e30f838c5fc310e6fd37ad113d4cf60405160405180910390a450505050565b6000808260601b9050604051733d602d80600a3d3981f3363d3d373d3d3d363d7360601b81528160148201526e5af43d82803e903d91602b57fd5bf360881b60288201526037816000f0949350505050565b600080836001600160a01b031663f7c618c16040518163ffffffff1660e01b815260040160206040518083038186803b158015610b3857600080fd5b505afa158015610b4c573d6000803e3d6000fd5b505050506040513d6020811015610b6257600080fd5b5051600054604080516370a0823160e01b81526001600160a01b03928316600482015290519293508592918416916370a0823191602480820192602092909190829003018186803b158015610bb657600080fd5b505afa158015610bca573d6000803e3d6000fd5b505050506040513d6020811015610be057600080fd5b50516040805160608101909152602280825292909110159161142e602083013990610c4c5760405162461bcd60e51b815260206004820181815283516024840152835190928392604490910191908501908083836000831561056257818101518382015260200161054a565b5060008060009054906101000a90046001600160a01b03166001600160a01b0316638da5cb5b6040518163ffffffff1660e01b815260040160206040518083038186803b158015610c9c57600080fd5b505afa158015610cb0573d6000803e3d6000fd5b505050506040513d6020811015610cc657600080fd5b5051600080546040805163b9a04cdd60e01b81526001600160a01b0387811660048301528a81166024830152604482018a9052928316606482015290519394509084169263b9a04cdd92608480840193602093929083900390910190829087803b158015610d3357600080fd5b505af1158015610d47573d6000803e3d6000fd5b505050506040513d6020811015610d5d57600080fd5b5050604080516024808201879052825180830382018152604492830184526020810180516001600160e01b0316633c6b16ab60e01b1781526000805495516368db844d60e11b81526001600160a01b038c8116600483019081529781169682018790526064820183905260809582019586528451608483015284519089169763d1b7089a978e9790959193909260a49091019190808383885b83811015610e0e578181015183820152602001610df6565b50505050905090810190601f168015610e3b5780820380516001836020036101000a031916815260200191505b5095505050505050600060405180830381600087803b158015610e5d57600080fd5b505af1158015610e71573d6000803e3d6000fd5b505050506040513d6000823e601f3d908101601f191682016040908152811015610e9a57600080fd5b815160208301805160405192949293830192919084640100000000821115610ec157600080fd5b908301906020820185811115610ed657600080fd5b8251640100000000811182820188101715610ef057600080fd5b82525081516020918201929091019080838360005b83811015610f1d578181015183820152602001610f05565b50505050905090810190601f168015610f4a5780820380516001836020036101000a031916815260200191505b506060810160405260228082529598508895909450925061142e915050602083013990610fb85760405162461bcd60e51b815260206004820181815283516024840152835190928392604490910191908501908083836000831561056257818101518382015260200161054a565b505050505050565b6000805460408051638da5cb5b60e01b8152905183926001600160a01b031691638da5cb5b916004808301926020929190829003018186803b15801561100557600080fd5b505afa158015611019573d6000803e3d6000fd5b505050506040513d602081101561102f57600080fd5b5051604080516370a0823160e01b81526001600160a01b03898116600483015291519293508792918716916370a0823191602480820192602092909190829003018186803b15801561108057600080fd5b505afa158015611094573d6000803e3d6000fd5b505050506040513d60208110156110aa57600080fd5b50516040805180820190915260208082527f4661726d466163746f72793a20726573637565546f6b656e73206661696c65649082015291111561112e5760405162461bcd60e51b815260206004820181815283516024840152835190928392604490910191908501908083836000831561056257818101518382015260200161054a565b50604080516001600160a01b0386811660248084019190915260448084018a9052878316606480860191909152855180860382018152608495860187526020810180516001600160e01b0316630b37fd1960e41b1781526000805498516368db844d60e11b81528f881660048201908152998816958101869052938401819052608095840195865282519784019790975281519589169763d1b7089a978f97939690949193909260a49092019190808383885b838110156111f95781810151838201526020016111e1565b50505050905090810190601f1680156112265780820380516001836020036101000a031916815260200191505b5095505050505050600060405180830381600087803b15801561124857600080fd5b505af115801561125c573d6000803e3d6000fd5b505050506040513d6000823e601f3d908101601f19168201604090815281101561128557600080fd5b8151602083018051604051929492938301929190846401000000008211156112ac57600080fd5b9083019060208201858111156112c157600080fd5b82516401000000008111828201881017156112db57600080fd5b82525081516020918201929091019080838360005b838110156113085781810151838201526020016112f0565b50505050905090810190601f1680156113355780820380516001836020036101000a031916815260200191505b506040818101905260208082527f4661726d466163746f72793a20726573637565546f6b656e73206661696c6564908201529496508693506113bc925050505760405162461bcd60e51b815260206004820181815283516024840152835190928392604490910191908501908083836000831561056257818101518382015260200161054a565b5050505050505056fe4661726d466163746f72793a2070726f746563746564206f7065726174696f6e4661726d466163746f72793a206176617461722063616e6e6f74206265206e756c6c4661726d466163746f72793a206d6173746572436f70792063616e6e6f74206265206e756c6c4661726d466163746f72793a20696e637265617365526577617264206661696c65644661726d466163746f72793a20636f6e7472616374206e6f7420696e697469616c697a65644661726d466163746f72793a20636f6e747261637420616c726561647920696e697469616c697a6564a265627a7a72315820e3001e4120bbac20207021902f23ecbbc24212a087baae83ed1c257ae7c563e364736f6c634300050d0032",
  "source": "/*\n\n██████╗░██████╗░██╗███╗░░░███╗███████╗██████╗░░█████╗░░█████╗░\n██╔══██╗██╔══██╗██║████╗░████║██╔════╝██╔══██╗██╔══██╗██╔══██╗\n██████╔╝██████╔╝██║██╔████╔██║█████╗░░██║░░██║███████║██║░░██║\n██╔═══╝░██╔══██╗██║██║╚██╔╝██║██╔══╝░░██║░░██║██╔══██║██║░░██║\n██║░░░░░██║░░██║██║██║░╚═╝░██║███████╗██████╔╝██║░░██║╚█████╔╝\n╚═╝░░░░░╚═╝░░╚═╝╚═╝╚═╝░░░░░╚═╝╚══════╝╚═════╝░╚═╝░░╚═╝░╚════╝░\n\n*/\n\n// SPDX-License-Identifier: GPL-3.0-or-later\n\npragma solidity 0.5.13;\n\nimport \"@daostack/arc/contracts/controller/Avatar.sol\";\nimport \"@daostack/arc/contracts/controller/Controller.sol\";\nimport \"openzeppelin-solidity/contracts/token/ERC20/IERC20.sol\";\nimport \"../utils/CloneFactory.sol\";\nimport \"./StakingRewards.sol\";\n\n/**\n * @title primeDAO Yield Farming contracts factory\n * @dev   Enable primeDAO governance to start new yield farming programs.\n */\ncontract FarmFactory is CloneFactory {\n\n    using SafeMath for uint256;\n\n    string constant ERROR_INCREASE_REWARD            = \"FarmFactory: increaseReward failed\";\n    string constant ERROR_RESCUE_TOKENS              = \"FarmFactory: rescueTokens failed\";\n    string constant ERROR_CREATE_FARM                = \"FarmFactory: create failed\";\n\n\n    Avatar         public avatar;\n    StakingRewards public masterCopy;\n    bool           public initialized;\n\n    event FarmCreated(address indexed newFarm, address indexed pool);\n    event TokenRescued(address indexed farm, address indexed token, address indexed to);\n    event RewardIncreased(address indexed farm, uint indexed amount);\n\n    modifier initializer() {\n        require(!initialized, \t\t\t\t\t\"FarmFactory: contract already initialized\");\n        initialized = true;\n        _;\n    }\n\n    modifier protected() {\n        require(initialized,\t\t\t\t\t\"FarmFactory: contract not initialized\");\n        require(msg.sender == address(avatar),\t\"FarmFactory: protected operation\");\n        _;\n    }\n\n    /**\n      * @dev               Initialize farm factory.\n      * @param _avatar     The address of the Avatar controlling this contract.\n      * @param _masterCopy The address of the StakingRewards contract which will be a masterCopy for all of the cloness.\n      */\n    function initialize(Avatar _avatar, StakingRewards _masterCopy) external initializer {\n        require(_avatar != Avatar(0), \t\t\t\"FarmFactory: avatar cannot be null\");\n        require(_masterCopy != StakingRewards(0), \t\"FarmFactory: masterCopy cannot be null\");\n        avatar = _avatar;\n        masterCopy = _masterCopy;\n    }\n\n    /**\n    * @dev                 Update StakingReward contract which works as a base for clones.\n    * @param newMasterCopy The address of the new StakingReward basis.\n    */\n    function changeMasterCopy(StakingRewards newMasterCopy) public protected{\n        masterCopy = newMasterCopy;\n    }\n\n    /**\n      * @dev                    Create new farm.\n      * @param _name            Farm name.\n      * @param _rewardToken     Reward token address.\n      * @param _stakingToken    staking token address.\n      * @param _initreward      Initial reward.\n      * @param _starttime       Program start time.\n      * @param _duration        Program duration in days.\n      * @return                 New factory address.\n      */\n    function createFarm(\n        string memory _name,\n        address       _rewardToken,\n        address       _stakingToken,\n        uint256       _initreward,\n        uint256       _starttime,\n        uint256       _duration\n    )\n    public\n    payable\n    protected\n    returns(address)\n    {\n        require( IERC20(_rewardToken).balanceOf(address(avatar)) >= _initreward,\n            ERROR_CREATE_FARM);\n\n        // create new farm\n        address newFarm = createClone(address(masterCopy));\n\n        // transfer rewards to the new farm\n        Controller(avatar.owner())\n        .externalTokenTransfer(\n            IERC20(_rewardToken),\n            newFarm,\n            _initreward,\n            avatar\n        );\n\n        // initialize farm\n        StakingRewards(newFarm).initialize(\n            _name,\n            _rewardToken,\n            _stakingToken,\n            _starttime,\n            _duration,\n            address(avatar)\n        );\n\n        emit FarmCreated(newFarm, _stakingToken);\n\n        return newFarm;\n    }\n\n    /**\n      * @dev                    Increses reward on the existing farm.\n      * @param _farm            Farm address.\n      * @param _amount          Amount of tokens being added to the distribution.\n      */\n    function increaseReward(\n        address _farm,\n        uint    _amount\n    )\n    public\n    protected\n    {\n\n        StakingRewards stakingRewards = StakingRewards(_farm);\n\n        _increaseReward(stakingRewards, _amount);\n\n        emit RewardIncreased(_farm, _amount);\n    }\n\n    /**\n      * @dev                    Rescues tokens from an existing farm.\n      * @param _stakingRewards  Existing Staking Rewards contract.\n      * @param _amount          Staking token address.\n      * @param _token           Token address to be rescued.\n      * @param _to              Rescue to an address.\n      */\n    function rescueTokens(\n        StakingRewards  _stakingRewards,\n        uint256         _amount,\n        address         _token,\n        address         _to\n    )\n    public\n    protected\n    {\n        _rescueTokens(_stakingRewards, _amount, _token, _to);\n        emit TokenRescued(address(_stakingRewards), _token, _to);\n    }\n\n    /* internal helpers functions */\n\n    function _increaseReward(\n        StakingRewards _farm,\n        uint           _amount\n\t)\n\tinternal\n\t{\n\t\tbool    success;\n\t\taddress _rewardToken = _farm.rewardToken();\n\n\t\trequire( IERC20(_rewardToken).balanceOf(address(avatar)) >= _amount,\n\t\t\tERROR_INCREASE_REWARD);\n\n\t\tController controller = Controller(avatar.owner());\n\t\t//transfer tokens to staking rewards contract\n        controller.externalTokenTransfer(\n\t\t    IERC20(_rewardToken),\n            address(_farm),\n            _amount,\n            avatar\n        );\n\n        //call notify reward amount\n        (success,) = controller.genericCall(\n            address(_farm),\n            abi.encodeWithSelector(\n                _farm.notifyRewardAmount.selector,\n                _amount\n            ),\n            avatar,\n            0\n        );\n        require(success, ERROR_INCREASE_REWARD);\n    }\n\n    function _rescueTokens(\n        StakingRewards \t_stakingRewards,\n        uint            _amount,\n        address         _token,\n        address         _to\n\t)\n\tinternal\n\t{\n        bool success;\n        Controller controller = Controller(avatar.owner());\n        require( IERC20(_token).balanceOf(address(_stakingRewards)) >= _amount,\n            ERROR_RESCUE_TOKENS);\n\n        (success,) = controller.genericCall(\n            address(_stakingRewards),\n            abi.encodeWithSelector(\n                _stakingRewards.rescueTokens.selector,\n                _token,\n                _amount,\n                _to\n            ),\n            avatar,\n            0\n        );\n        require(success, ERROR_RESCUE_TOKENS);\n    }\n}\n",
  "sourcePath": "/home/kin/Projects/primedao/contracts/contracts/incentives/FarmFactory.sol",
  "compiler": {
    "name": "solc",
    "version": "0.5.13+commit.5b0b510c.Emscripten.clang"
  },
  "schemaVersion": "3.2.4",
  "updatedAt": "2021-05-10T11:00:12.698Z",
  "devdoc": {
    "details": "Enable primeDAO governance to start new yield farming programs.",
    "methods": {
      "changeMasterCopy(address)": {
        "details": "Update StakingReward contract which works as a base for clones.",
        "params": {
          "newMasterCopy": "The address of the new StakingReward basis."
        }
      },
      "createFarm(string,address,address,uint256,uint256,uint256)": {
        "details": "Create new farm.",
        "params": {
          "_duration": "Program duration in days.",
          "_initreward": "Initial reward.",
          "_name": "Farm name.",
          "_rewardToken": "Reward token address.",
          "_stakingToken": "staking token address.",
          "_starttime": "Program start time."
        },
        "return": "New factory address."
      },
      "increaseReward(address,uint256)": {
        "details": "Increses reward on the existing farm.",
        "params": {
          "_amount": "Amount of tokens being added to the distribution.",
          "_farm": "Farm address."
        }
      },
      "initialize(address,address)": {
        "details": "Initialize farm factory.",
        "params": {
          "_avatar": "The address of the Avatar controlling this contract.",
          "_masterCopy": "The address of the StakingRewards contract which will be a masterCopy for all of the cloness."
        }
      },
      "rescueTokens(address,uint256,address,address)": {
        "details": "Rescues tokens from an existing farm.",
        "params": {
          "_amount": "Staking token address.",
          "_stakingRewards": "Existing Staking Rewards contract.",
          "_to": "Rescue to an address.",
          "_token": "Token address to be rescued."
        }
      }
    },
    "title": "primeDAO Yield Farming contracts factory"
  },
  "userdoc": {
    "methods": {}
  }
}