{
  "contractName": "Migrations",
  "abi": [
    {
      "inputs": [],
      "payable": false,
      "stateMutability": "nonpayable",
      "type": "constructor"
    },
    {
      "constant": true,
      "inputs": [],
      "name": "lastCompletedMigration",
      "outputs": [
        {
          "internalType": "uint256",
          "name": "",
          "type": "uint256"
        }
      ],
      "payable": false,
      "stateMutability": "view",
      "type": "function"
    },
    {
      "constant": true,
      "inputs": [],
      "name": "owner",
      "outputs": [
        {
          "internalType": "address",
          "name": "",
          "type": "address"
        }
      ],
      "payable": false,
      "stateMutability": "view",
      "type": "function"
    },
    {
      "constant": false,
      "inputs": [
        {
          "internalType": "uint256",
          "name": "completed",
          "type": "uint256"
        }
      ],
      "name": "setCompleted",
      "outputs": [],
      "payable": false,
      "stateMutability": "nonpayable",
      "type": "function"
    }
  ],
  "bytecode": "0x608060405234801561001057600080fd5b50600080546001600160a01b0319163317905560fc806100316000396000f3fe6080604052348015600f57600080fd5b5060043610603c5760003560e01c80638da5cb5b146041578063fbdbad3c146063578063fdacd57614607b575b600080fd5b60476097565b604080516001600160a01b039092168252519081900360200190f35b606960a6565b60408051918252519081900360200190f35b609560048036036020811015608f57600080fd5b503560ac565b005b6000546001600160a01b031681565b60015481565b6000546001600160a01b031633141560c45760018190555b5056fea265627a7a72315820af00d7fddd988bcd49da8620c1f2b6a82d9f909a8ba42475f6fe6292a68ea34164736f6c634300050d0032",
  "source": "// SPDX-License-Identifier: GPL-3.0-or-later\r\npragma solidity 0.5.13;\r\n\r\ncontract Migrations {\r\n  address public owner;\r\n  uint public lastCompletedMigration;\r\n\r\n  constructor() public {\r\n    owner = msg.sender;\r\n  }\r\n\r\n  modifier restricted() {\r\n    if (msg.sender == owner) _;\r\n  }\r\n\r\n  /**\r\n   * @notice set lastCompletedMigration variable\r\n   * @param completed - id of the desired migration level\r\n   */\r\n  function setCompleted(uint completed) external restricted {\r\n    lastCompletedMigration = completed;\r\n  }\r\n}\r\n",
  "sourcePath": "E:/curve-labs/PrimeDAO/contracts/contracts/Migrations.sol",
  "compiler": {
    "name": "solc",
    "version": "0.5.13+commit.5b0b510c.Emscripten.clang"
  },
  "schemaVersion": "3.4.1",
  "updatedAt": "2021-05-27T12:01:13.974Z",
  "networkType": "ethereum",
  "devdoc": {
    "methods": {
      "setCompleted(uint256)": {
        "params": {
          "completed": "- id of the desired migration level"
        }
      }
    }
  },
  "userdoc": {
    "methods": {
      "setCompleted(uint256)": {
        "notice": "set lastCompletedMigration variable"
      }
    }
  }
}