{
  "contractName": "PriceOracle",
  "abi": [
    {
      "anonymous": false,
      "inputs": [
        {
          "indexed": true,
          "internalType": "address",
          "name": "previousOwner",
          "type": "address"
        },
        {
          "indexed": true,
          "internalType": "address",
          "name": "newOwner",
          "type": "address"
        }
      ],
      "name": "OwnershipTransferred",
      "type": "event"
    },
    {
      "constant": true,
      "inputs": [],
      "name": "isOwner",
      "outputs": [
        {
          "internalType": "bool",
          "name": "",
          "type": "bool"
        }
      ],
      "payable": false,
      "stateMutability": "view",
      "type": "function"
    },
    {
      "constant": true,
      "inputs": [],
      "name": "owner",
      "outputs": [
        {
          "internalType": "address",
          "name": "",
          "type": "address"
        }
      ],
      "payable": false,
      "stateMutability": "view",
      "type": "function"
    },
    {
      "constant": false,
      "inputs": [],
      "name": "renounceOwnership",
      "outputs": [],
      "payable": false,
      "stateMutability": "nonpayable",
      "type": "function"
    },
    {
      "constant": true,
      "inputs": [
        {
          "internalType": "address",
          "name": "",
          "type": "address"
        }
      ],
      "name": "tokenPrices",
      "outputs": [
        {
          "internalType": "uint256",
          "name": "numerator",
          "type": "uint256"
        },
        {
          "internalType": "uint256",
          "name": "denominator",
          "type": "uint256"
        }
      ],
      "payable": false,
      "stateMutability": "view",
      "type": "function"
    },
    {
      "constant": false,
      "inputs": [
        {
          "internalType": "address",
          "name": "newOwner",
          "type": "address"
        }
      ],
      "name": "transferOwnership",
      "outputs": [],
      "payable": false,
      "stateMutability": "nonpayable",
      "type": "function"
    },
    {
      "constant": false,
      "inputs": [
        {
          "internalType": "address",
          "name": "token",
          "type": "address"
        },
        {
          "internalType": "uint256",
          "name": "numerator",
          "type": "uint256"
        },
        {
          "internalType": "uint256",
          "name": "denominator",
          "type": "uint256"
        }
      ],
      "name": "setTokenPrice",
      "outputs": [],
      "payable": false,
      "stateMutability": "nonpayable",
      "type": "function"
    },
    {
      "constant": true,
      "inputs": [
        {
          "internalType": "address",
          "name": "token",
          "type": "address"
        }
      ],
      "name": "getPrice",
      "outputs": [
        {
          "internalType": "uint256",
          "name": "",
          "type": "uint256"
        },
        {
          "internalType": "uint256",
          "name": "",
          "type": "uint256"
        }
      ],
      "payable": false,
      "stateMutability": "view",
      "type": "function"
    }
  ],
  "bytecode": "0x608060405260006100176001600160e01b0361006616565b600080546001600160a01b0319166001600160a01b0383169081178255604051929350917f8be0079c531659141344cd1fd0a4f28419497f9722a3daafe3b4186f6b6457e0908290a35061006a565b3390565b6104c5806100796000396000f3fe608060405234801561001057600080fd5b506004361061007d5760003560e01c80638da5cb5b1161005b5780638da5cb5b146100f15780638f32d59b14610115578063eb1c031614610131578063f2fde38b146101635761007d565b8063204120bc1461008257806341976e09146100c1578063715018a6146100e7575b600080fd5b6100a86004803603602081101561009857600080fd5b50356001600160a01b0316610189565b6040805192835260208301919091528051918290030190f35b6100a8600480360360208110156100d757600080fd5b50356001600160a01b03166101a2565b6100ef6101e3565b005b6100f9610286565b604080516001600160a01b039092168252519081900360200190f35b61011d610295565b604080519115158252519081900360200190f35b6100ef6004803603606081101561014757600080fd5b506001600160a01b0381351690602081013590604001356102b9565b6100ef6004803603602081101561017957600080fd5b50356001600160a01b0316610347565b6001602081905260009182526040909120805491015482565b6000806101ad610450565b5050506001600160a01b031660009081526001602081815260409283902083518085019094528054808552920154920182905291565b6101eb610295565b61023c576040805162461bcd60e51b815260206004820181905260248201527f4f776e61626c653a2063616c6c6572206973206e6f7420746865206f776e6572604482015290519081900360640190fd5b600080546040516001600160a01b03909116907f8be0079c531659141344cd1fd0a4f28419497f9722a3daafe3b4186f6b6457e0908390a3600080546001600160a01b0319169055565b6000546001600160a01b031690565b600080546001600160a01b03166102aa6103ac565b6001600160a01b031614905090565b6102c1610295565b610312576040805162461bcd60e51b815260206004820181905260248201527f4f776e61626c653a2063616c6c6572206973206e6f7420746865206f776e6572604482015290519081900360640190fd5b60408051808201825292835260208084019283526001600160a01b039094166000908152600194859052209151825551910155565b61034f610295565b6103a0576040805162461bcd60e51b815260206004820181905260248201527f4f776e61626c653a2063616c6c6572206973206e6f7420746865206f776e6572604482015290519081900360640190fd5b6103a9816103b0565b50565b3390565b6001600160a01b0381166103f55760405162461bcd60e51b815260040180806020018281038252602681526020018061046b6026913960400191505060405180910390fd5b600080546040516001600160a01b03808516939216917f8be0079c531659141344cd1fd0a4f28419497f9722a3daafe3b4186f6b6457e091a3600080546001600160a01b0319166001600160a01b0392909216919091179055565b60405180604001604052806000815260200160008152509056fe4f776e61626c653a206e6577206f776e657220697320746865207a65726f2061646472657373a265627a7a72315820e9e92fda151b1926424f8321110159c7379e8447da75c041e46baed6486f201864736f6c634300050d0032",
  "source": "/*\n\n██████╗░██████╗░██╗███╗░░░███╗███████╗██████╗░░█████╗░░█████╗░\n██╔══██╗██╔══██╗██║████╗░████║██╔════╝██╔══██╗██╔══██╗██╔══██╗\n██████╔╝██████╔╝██║██╔████╔██║█████╗░░██║░░██║███████║██║░░██║\n██╔═══╝░██╔══██╗██║██║╚██╔╝██║██╔══╝░░██║░░██║██╔══██║██║░░██║\n██║░░░░░██║░░██║██║██║░╚═╝░██║███████╗██████╔╝██║░░██║╚█████╔╝\n╚═╝░░░░░╚═╝░░╚═╝╚═╝╚═╝░░░░░╚═╝╚══════╝╚═════╝░╚═╝░░╚═╝░╚════╝░\n\n*/\n\n// SPDX-License-Identifier: GPL-3.0-or-later\n\npragma solidity ^0.5.13;\n\nimport \"@daostack/arc/contracts/schemes/PriceOracleInterface.sol\";\nimport \"openzeppelin-solidity/contracts/ownership/Ownable.sol\";\n\n\ncontract PriceOracle is PriceOracleInterface, Ownable {\n\n    struct Price {\n        uint256 numerator;\n        uint256 denominator;\n    }\n\n    // token => Price\n    mapping (address => Price) public tokenPrices;\n\n    function setTokenPrice(address token, uint256 numerator, uint256 denominator) public onlyOwner {\n        tokenPrices[token] = Price(numerator, denominator);\n    }\n    \n    function getPrice(address token) public view returns (uint, uint) {\n        Price memory price = tokenPrices[token];\n        return (price.numerator, price.denominator);\n    }\n}",
  "sourcePath": "/home/tengree/Projects/primedao/contracts/contracts/utils/PriceOracle.sol",
  "compiler": {
    "name": "solc",
    "version": "0.5.13+commit.5b0b510c.Emscripten.clang"
  },
  "schemaVersion": "3.3.3",
  "updatedAt": "2021-03-08T13:25:22.197Z",
  "networkType": "ethereum",
  "devdoc": {
    "methods": {
      "isOwner()": {
        "details": "Returns true if the caller is the current owner."
      },
      "owner()": {
        "details": "Returns the address of the current owner."
      },
      "renounceOwnership()": {
        "details": "Leaves the contract without owner. It will not be possible to call `onlyOwner` functions anymore. Can only be called by the current owner.     * NOTE: Renouncing ownership will leave the contract without an owner, thereby removing any functionality that is only available to the owner."
      },
      "transferOwnership(address)": {
        "details": "Transfers ownership of the contract to a new account (`newOwner`). Can only be called by the current owner."
      }
    }
  },
  "userdoc": {
    "methods": {}
  }
}