{
  "contractName": "RepRedeemer",
  "abi": [
    {
      "constant": false,
      "inputs": [
        {
          "internalType": "contract Locking4Reputation",
          "name": "lt4Reputation",
          "type": "address"
        },
        {
          "internalType": "address[]",
          "name": "lt4rRedeems",
          "type": "address[]"
        }
      ],
      "name": "redeemLocking4Reputation",
      "outputs": [],
      "payable": false,
      "stateMutability": "nonpayable",
      "type": "function"
    }
  ],
  "bytecode": "0x608060405234801561001057600080fd5b50610304806100206000396000f3fe608060405234801561001057600080fd5b506004361061002b5760003560e01c8063379712e314610030575b600080fd5b61004361003e366004610196565b610045565b005b60005b81518110156100eb57826001600160a01b03166395a2251f83838151811061006c57fe5b60200260200101516040518263ffffffff1660e01b8152600401610090919061021d565b602060405180830381600087803b1580156100aa57600080fd5b505af11580156100be573d6000803e3d6000fd5b505050506040513d601f19601f820116820180604052506100e291908101906101e8565b50600101610048565b505050565b80356100fb81610298565b92915050565b600082601f83011261011257600080fd5b813561012561012082610252565b61022b565b9150818183526020840193506020810190508385602084028201111561014a57600080fd5b60005b83811015610176578161016088826100f0565b845250602092830192919091019060010161014d565b5050505092915050565b80356100fb816102af565b80516100fb816102b8565b600080604083850312156101a957600080fd5b60006101b58585610180565b925050602083013567ffffffffffffffff8111156101d257600080fd5b6101de85828601610101565b9150509250929050565b6000602082840312156101fa57600080fd5b6000610206848461018b565b949350505050565b61021781610273565b82525050565b602081016100fb828461020e565b60405181810167ffffffffffffffff8111828210171561024a57600080fd5b604052919050565b600067ffffffffffffffff82111561026957600080fd5b5060209081020190565b60006100fb82610289565b60006100fb82610273565b6001600160a01b031690565b90565b6102a181610273565b81146102ac57600080fd5b50565b6102a18161027e565b6102a18161029556fea365627a7a72315820f3a237652e2b9d3cf34e7c3fea5d906485097b01d136ea9da7b610ce6e5406776c6578706572696d656e74616cf564736f6c634300050d0040",
  "source": "/*\n\n██████╗░██████╗░██╗███╗░░░███╗███████╗██████╗░░█████╗░░█████╗░\n██╔══██╗██╔══██╗██║████╗░████║██╔════╝██╔══██╗██╔══██╗██╔══██╗\n██████╔╝██████╔╝██║██╔████╔██║█████╗░░██║░░██║███████║██║░░██║\n██╔═══╝░██╔══██╗██║██║╚██╔╝██║██╔══╝░░██║░░██║██╔══██║██║░░██║\n██║░░░░░██║░░██║██║██║░╚═╝░██║███████╗██████╔╝██║░░██║╚█████╔╝\n╚═╝░░░░░╚═╝░░╚═╝╚═╝╚═╝░░░░░╚═╝╚══════╝╚═════╝░╚═╝░░╚═╝░╚════╝░\n\n*/\n\n// SPDX-License-Identifier: GPL-3.0-or-later\n\n\npragma solidity ^0.5.13;\npragma experimental ABIEncoderV2;\n\nimport \"@daostack/arc/contracts/schemes/Locking4Reputation.sol\";\n\ncontract RepRedeemer {\n\n    function redeemLocking4Reputation(\n        Locking4Reputation lt4Reputation,\n        address[] memory lt4rRedeems) public {\n        for (uint i = 0; i < lt4rRedeems.length; i++) {\n            lt4Reputation.redeem(lt4rRedeems[i]);\n        }\n    }\n}\n",
  "sourcePath": "/home/tengree/Projects/primedao/contracts/contracts/RepRedeemer.sol",
  "compiler": {
    "name": "solc",
    "version": "0.5.13+commit.5b0b510c.Emscripten.clang"
  },
  "schemaVersion": "3.3.3",
  "updatedAt": "2021-04-12T13:19:08.124Z",
  "devdoc": {
    "methods": {}
  },
  "userdoc": {
    "methods": {}
  }
}