{
  "contractName": "Seed",
  "abi": [
    {
      "anonymous": false,
      "inputs": [
        {
          "indexed": true,
          "internalType": "address",
          "name": "recipient",
          "type": "address"
        },
        {
          "indexed": false,
          "internalType": "uint256",
          "name": "amountReclaimed",
          "type": "uint256"
        }
      ],
      "name": "FundingReclaimed",
      "type": "event"
    },
    {
      "anonymous": false,
      "inputs": [
        {
          "indexed": true,
          "internalType": "address",
          "name": "recipient",
          "type": "address"
        },
        {
          "indexed": false,
          "internalType": "uint256",
          "name": "locked",
          "type": "uint256"
        }
      ],
      "name": "LockAdded",
      "type": "event"
    },
    {
      "anonymous": false,
      "inputs": [
        {
          "indexed": false,
          "internalType": "bytes32",
          "name": "metadata",
          "type": "bytes32"
        }
      ],
      "name": "MetadataUpdated",
      "type": "event"
    },
    {
      "anonymous": false,
      "inputs": [
        {
          "indexed": true,
          "internalType": "address",
          "name": "recipient",
          "type": "address"
        },
        {
          "indexed": false,
          "internalType": "uint256",
          "name": "amountVested",
          "type": "uint256"
        }
      ],
      "name": "TokensClaimed",
      "type": "event"
    },
    {
      "constant": true,
      "inputs": [],
      "name": "PPM",
      "outputs": [
        {
          "internalType": "uint32",
          "name": "",
          "type": "uint32"
        }
      ],
      "payable": false,
      "stateMutability": "view",
      "type": "function"
    },
    {
      "constant": true,
      "inputs": [],
      "name": "PPM100",
      "outputs": [
        {
          "internalType": "uint256",
          "name": "",
          "type": "uint256"
        }
      ],
      "payable": false,
      "stateMutability": "view",
      "type": "function"
    },
    {
      "constant": true,
      "inputs": [],
      "name": "admin",
      "outputs": [
        {
          "internalType": "address",
          "name": "",
          "type": "address"
        }
      ],
      "payable": false,
      "stateMutability": "view",
      "type": "function"
    },
    {
      "constant": true,
      "inputs": [],
      "name": "beneficiary",
      "outputs": [
        {
          "internalType": "address",
          "name": "",
          "type": "address"
        }
      ],
      "payable": false,
      "stateMutability": "view",
      "type": "function"
    },
    {
      "constant": true,
      "inputs": [],
      "name": "cap",
      "outputs": [
        {
          "internalType": "uint256",
          "name": "",
          "type": "uint256"
        }
      ],
      "payable": false,
      "stateMutability": "view",
      "type": "function"
    },
    {
      "constant": true,
      "inputs": [],
      "name": "closed",
      "outputs": [
        {
          "internalType": "bool",
          "name": "",
          "type": "bool"
        }
      ],
      "payable": false,
      "stateMutability": "view",
      "type": "function"
    },
    {
      "constant": true,
      "inputs": [],
      "name": "endTime",
      "outputs": [
        {
          "internalType": "uint256",
          "name": "",
          "type": "uint256"
        }
      ],
      "payable": false,
      "stateMutability": "view",
      "type": "function"
    },
    {
      "constant": true,
      "inputs": [],
      "name": "fee",
      "outputs": [
        {
          "internalType": "uint8",
          "name": "",
          "type": "uint8"
        }
      ],
      "payable": false,
      "stateMutability": "view",
      "type": "function"
    },
    {
      "constant": true,
      "inputs": [],
      "name": "fundingToken",
      "outputs": [
        {
          "internalType": "contract IERC20",
          "name": "",
          "type": "address"
        }
      ],
      "payable": false,
      "stateMutability": "view",
      "type": "function"
    },
    {
      "constant": true,
      "inputs": [],
      "name": "initialized",
      "outputs": [
        {
          "internalType": "bool",
          "name": "",
          "type": "bool"
        }
      ],
      "payable": false,
      "stateMutability": "view",
      "type": "function"
    },
    {
      "constant": true,
      "inputs": [],
      "name": "isWhitelisted",
      "outputs": [
        {
          "internalType": "bool",
          "name": "",
          "type": "bool"
        }
      ],
      "payable": false,
      "stateMutability": "view",
      "type": "function"
    },
    {
      "constant": true,
      "inputs": [],
      "name": "metadata",
      "outputs": [
        {
          "internalType": "bytes32",
          "name": "",
          "type": "bytes32"
        }
      ],
      "payable": false,
      "stateMutability": "view",
      "type": "function"
    },
    {
      "constant": true,
      "inputs": [],
      "name": "minimumReached",
      "outputs": [
        {
          "internalType": "bool",
          "name": "",
          "type": "bool"
        }
      ],
      "payable": false,
      "stateMutability": "view",
      "type": "function"
    },
    {
      "constant": true,
      "inputs": [],
      "name": "paused",
      "outputs": [
        {
          "internalType": "bool",
          "name": "",
          "type": "bool"
        }
      ],
      "payable": false,
      "stateMutability": "view",
      "type": "function"
    },
    {
      "constant": true,
      "inputs": [],
      "name": "price",
      "outputs": [
        {
          "internalType": "uint256",
          "name": "",
          "type": "uint256"
        }
      ],
      "payable": false,
      "stateMutability": "view",
      "type": "function"
    },
    {
      "constant": true,
      "inputs": [],
      "name": "seedToken",
      "outputs": [
        {
          "internalType": "contract IERC20",
          "name": "",
          "type": "address"
        }
      ],
      "payable": false,
      "stateMutability": "view",
      "type": "function"
    },
    {
      "constant": true,
      "inputs": [],
      "name": "startTime",
      "outputs": [
        {
          "internalType": "uint256",
          "name": "",
          "type": "uint256"
        }
      ],
      "payable": false,
      "stateMutability": "view",
      "type": "function"
    },
    {
      "constant": true,
      "inputs": [],
      "name": "successMinimum",
      "outputs": [
        {
          "internalType": "uint256",
          "name": "",
          "type": "uint256"
        }
      ],
      "payable": false,
      "stateMutability": "view",
      "type": "function"
    },
    {
      "constant": true,
      "inputs": [
        {
          "internalType": "address",
          "name": "",
          "type": "address"
        }
      ],
      "name": "tokenLocks",
      "outputs": [
        {
          "internalType": "uint256",
          "name": "startTime",
          "type": "uint256"
        },
        {
          "internalType": "uint256",
          "name": "amount",
          "type": "uint256"
        },
        {
          "internalType": "uint16",
          "name": "vestingDuration",
          "type": "uint16"
        },
        {
          "internalType": "uint16",
          "name": "vestingCliff",
          "type": "uint16"
        },
        {
          "internalType": "uint16",
          "name": "daysClaimed",
          "type": "uint16"
        },
        {
          "internalType": "uint256",
          "name": "totalClaimed",
          "type": "uint256"
        },
        {
          "internalType": "address",
          "name": "recipient",
          "type": "address"
        },
        {
          "internalType": "uint256",
          "name": "fundingAmount",
          "type": "uint256"
        },
        {
          "internalType": "uint256",
          "name": "fee",
          "type": "uint256"
        }
      ],
      "payable": false,
      "stateMutability": "view",
      "type": "function"
    },
    {
      "constant": true,
      "inputs": [],
      "name": "totalLockCount",
      "outputs": [
        {
          "internalType": "uint256",
          "name": "",
          "type": "uint256"
        }
      ],
      "payable": false,
      "stateMutability": "view",
      "type": "function"
    },
    {
      "constant": true,
      "inputs": [],
      "name": "vestingCliff",
      "outputs": [
        {
          "internalType": "uint16",
          "name": "",
          "type": "uint16"
        }
      ],
      "payable": false,
      "stateMutability": "view",
      "type": "function"
    },
    {
      "constant": true,
      "inputs": [],
      "name": "vestingDuration",
      "outputs": [
        {
          "internalType": "uint16",
          "name": "",
          "type": "uint16"
        }
      ],
      "payable": false,
      "stateMutability": "view",
      "type": "function"
    },
    {
      "constant": true,
      "inputs": [
        {
          "internalType": "address",
          "name": "",
          "type": "address"
        }
      ],
      "name": "whitelisted",
      "outputs": [
        {
          "internalType": "bool",
          "name": "",
          "type": "bool"
        }
      ],
      "payable": false,
      "stateMutability": "view",
      "type": "function"
    },
    {
      "constant": false,
      "inputs": [
        {
          "internalType": "address",
          "name": "_beneficiary",
          "type": "address"
        },
        {
          "internalType": "address",
          "name": "_admin",
          "type": "address"
        },
        {
          "internalType": "address[]",
          "name": "_tokens",
          "type": "address[]"
        },
        {
          "internalType": "uint256[]",
          "name": "_successMinimumAndCap",
          "type": "uint256[]"
        },
        {
          "internalType": "uint256",
          "name": "_price",
          "type": "uint256"
        },
        {
          "internalType": "uint256",
          "name": "_startTime",
          "type": "uint256"
        },
        {
          "internalType": "uint256",
          "name": "_endTime",
          "type": "uint256"
        },
        {
          "internalType": "uint16",
          "name": "_vestingDuration",
          "type": "uint16"
        },
        {
          "internalType": "uint16",
          "name": "_vestingCliff",
          "type": "uint16"
        },
        {
          "internalType": "bool",
          "name": "_isWhitelisted",
          "type": "bool"
        },
        {
          "internalType": "uint8",
          "name": "_fee",
          "type": "uint8"
        }
      ],
      "name": "initialize",
      "outputs": [],
      "payable": false,
      "stateMutability": "nonpayable",
      "type": "function"
    },
    {
      "constant": false,
      "inputs": [
        {
          "internalType": "uint256",
          "name": "_amount",
          "type": "uint256"
        }
      ],
      "name": "buy",
      "outputs": [],
      "payable": false,
      "stateMutability": "nonpayable",
      "type": "function"
    },
    {
      "constant": false,
      "inputs": [
        {
          "internalType": "address",
          "name": "_locker",
          "type": "address"
        }
      ],
      "name": "claimLock",
      "outputs": [],
      "payable": false,
      "stateMutability": "nonpayable",
      "type": "function"
    },
    {
      "constant": false,
      "inputs": [],
      "name": "buyBack",
      "outputs": [],
      "payable": false,
      "stateMutability": "nonpayable",
      "type": "function"
    },
    {
      "constant": false,
      "inputs": [],
      "name": "pause",
      "outputs": [],
      "payable": false,
      "stateMutability": "nonpayable",
      "type": "function"
    },
    {
      "constant": false,
      "inputs": [],
      "name": "unpause",
      "outputs": [],
      "payable": false,
      "stateMutability": "nonpayable",
      "type": "function"
    },
    {
      "constant": false,
      "inputs": [],
      "name": "close",
      "outputs": [],
      "payable": false,
      "stateMutability": "nonpayable",
      "type": "function"
    },
    {
      "constant": false,
      "inputs": [
        {
          "internalType": "address",
          "name": "_buyer",
          "type": "address"
        }
      ],
      "name": "whitelist",
      "outputs": [],
      "payable": false,
      "stateMutability": "nonpayable",
      "type": "function"
    },
    {
      "constant": false,
      "inputs": [
        {
          "internalType": "address[]",
          "name": "_buyers",
          "type": "address[]"
        }
      ],
      "name": "whitelistBatch",
      "outputs": [],
      "payable": false,
      "stateMutability": "nonpayable",
      "type": "function"
    },
    {
      "constant": false,
      "inputs": [
        {
          "internalType": "address",
          "name": "buyer",
          "type": "address"
        }
      ],
      "name": "unwhitelist",
      "outputs": [],
      "payable": false,
      "stateMutability": "nonpayable",
      "type": "function"
    },
    {
      "constant": false,
      "inputs": [],
      "name": "withdraw",
      "outputs": [],
      "payable": false,
      "stateMutability": "nonpayable",
      "type": "function"
    },
    {
      "constant": false,
      "inputs": [
        {
          "internalType": "bytes32",
          "name": "_metadata",
          "type": "bytes32"
        }
      ],
      "name": "updateMetadata",
      "outputs": [],
      "payable": false,
      "stateMutability": "nonpayable",
      "type": "function"
    },
    {
      "constant": true,
      "inputs": [
        {
          "internalType": "address",
          "name": "_locker",
          "type": "address"
        }
      ],
      "name": "calculateClaim",
      "outputs": [
        {
          "internalType": "uint16",
          "name": "",
          "type": "uint16"
        },
        {
          "internalType": "uint256",
          "name": "",
          "type": "uint256"
        }
      ],
      "payable": false,
      "stateMutability": "view",
      "type": "function"
    },
    {
      "constant": true,
      "inputs": [
        {
          "internalType": "address",
          "name": "_buyer",
          "type": "address"
        }
      ],
      "name": "checkWhitelisted",
      "outputs": [
        {
          "internalType": "bool",
          "name": "",
          "type": "bool"
        }
      ],
      "payable": false,
      "stateMutability": "view",
      "type": "function"
    },
    {
      "constant": true,
      "inputs": [
        {
          "internalType": "address",
          "name": "_locker",
          "type": "address"
        }
      ],
      "name": "getStartTime",
      "outputs": [
        {
          "internalType": "uint256",
          "name": "",
          "type": "uint256"
        }
      ],
      "payable": false,
      "stateMutability": "view",
      "type": "function"
    },
    {
      "constant": true,
      "inputs": [
        {
          "internalType": "address",
          "name": "_locker",
          "type": "address"
        }
      ],
      "name": "getAmount",
      "outputs": [
        {
          "internalType": "uint256",
          "name": "",
          "type": "uint256"
        }
      ],
      "payable": false,
      "stateMutability": "view",
      "type": "function"
    },
    {
      "constant": true,
      "inputs": [
        {
          "internalType": "address",
          "name": "_locker",
          "type": "address"
        }
      ],
      "name": "getVestingDuration",
      "outputs": [
        {
          "internalType": "uint16",
          "name": "",
          "type": "uint16"
        }
      ],
      "payable": false,
      "stateMutability": "view",
      "type": "function"
    },
    {
      "constant": true,
      "inputs": [
        {
          "internalType": "address",
          "name": "_locker",
          "type": "address"
        }
      ],
      "name": "getVestingCliff",
      "outputs": [
        {
          "internalType": "uint16",
          "name": "",
          "type": "uint16"
        }
      ],
      "payable": false,
      "stateMutability": "view",
      "type": "function"
    },
    {
      "constant": true,
      "inputs": [
        {
          "internalType": "address",
          "name": "_locker",
          "type": "address"
        }
      ],
      "name": "getDaysClaimed",
      "outputs": [
        {
          "internalType": "uint16",
          "name": "",
          "type": "uint16"
        }
      ],
      "payable": false,
      "stateMutability": "view",
      "type": "function"
    },
    {
      "constant": true,
      "inputs": [
        {
          "internalType": "address",
          "name": "_locker",
          "type": "address"
        }
      ],
      "name": "getTotalClaimed",
      "outputs": [
        {
          "internalType": "uint256",
          "name": "",
          "type": "uint256"
        }
      ],
      "payable": false,
      "stateMutability": "view",
      "type": "function"
    },
    {
      "constant": true,
      "inputs": [
        {
          "internalType": "address",
          "name": "_locker",
          "type": "address"
        }
      ],
      "name": "getRecipient",
      "outputs": [
        {
          "internalType": "address",
          "name": "",
          "type": "address"
        }
      ],
      "payable": false,
      "stateMutability": "view",
      "type": "function"
    },
    {
      "constant": true,
      "inputs": [
        {
          "internalType": "address",
          "name": "_locker",
          "type": "address"
        }
      ],
      "name": "getFee",
      "outputs": [
        {
          "internalType": "uint256",
          "name": "",
          "type": "uint256"
        }
      ],
      "payable": false,
      "stateMutability": "view",
      "type": "function"
    }
  ],
  "bytecode": "0x608060405234801561001057600080fd5b50612ba8806100206000396000f3fe608060405234801561001057600080fd5b506004361061027f5760003560e01c806378e979251161015c578063c6431752116100ce578063ea34554011610087578063ea34554014610797578063eaa53523146107db578063f3640e741461087c578063f5a7976714610884578063f851a440146108aa578063fced4680146108b25761027f565b8063c6431752146105b8578063d6d2721a14610726578063d936547e1461072e578063d96a094a14610754578063ddca3f4314610771578063e565eb4c1461078f5761027f565b80639a590427116101205780639a5904271461052e5780639b19251a14610554578063a035b1fe1461057a578063acdf4f1814610582578063b88c91481461058a578063b9cb0a85146105b05761027f565b806378e97925146104ca578063805e3ec8146104d257806381bf6fdc146104f85780638456cb5914610500578063986e8539146105085761027f565b806343d726d6116101f5578063597e1fb5116101b9578063597e1fb51461045e5780635c975abb146104665780635e13c7f11461046e578063611b40951461049457806362812a391461049c57806378065f27146104c25761027f565b806343d726d61461036e5780634f2d777814610376578063522bf1d41461039357806355be8577146103b957806356b63df7146103df5761027f565b80633197cbb6116102475780633197cbb61461032a578063355274ea1461034457806338af3eed1461034c578063392f37e9146103545780633ccfd60b1461035c5780633f4ba83a146103665761027f565b80630d720bbc146102845780631514617e146102a5578063158ef93e146102c457806320d8dad0146102e0578063311f848314610306575b600080fd5b61028c6108d8565b6040805163ffffffff9092168252519081900360200190f35b6102ad6108df565b6040805161ffff9092168252519081900360200190f35b6102cc6108ee565b604080519115158252519081900360200190f35b6102cc600480360360208110156102f657600080fd5b50356001600160a01b03166108f7565b61030e610915565b604080516001600160a01b039092168252519081900360200190f35b61033261092b565b60408051918252519081900360200190f35b610332610931565b61030e610937565b610332610946565b61036461094c565b005b610364610b7e565b610364610c7e565b6103646004803603602081101561038c57600080fd5b5035610ff1565b610332600480360360208110156103a957600080fd5b50356001600160a01b0316611115565b6102ad600480360360208110156103cf57600080fd5b50356001600160a01b0316611133565b610405600480360360208110156103f557600080fd5b50356001600160a01b031661115c565b60408051998a5260208a019890985261ffff96871689890152948616606089015292909416608087015260a08601526001600160a01b0390921660c085015260e084019190915261010083015251908190036101200190f35b6102cc6111b8565b6102cc6111c1565b6102ad6004803603602081101561048457600080fd5b50356001600160a01b03166111cf565b6102cc6111f1565b61030e600480360360208110156104b257600080fd5b50356001600160a01b03166111fa565b61030e61121b565b61033261122a565b610332600480360360208110156104e857600080fd5b50356001600160a01b0316611230565b61033261124b565b610364611251565b6103646004803603602081101561051e57600080fd5b50356001600160a01b031661134b565b6103646004803603602081101561054457600080fd5b50356001600160a01b031661165f565b6103646004803603602081101561056a57600080fd5b50356001600160a01b03166117c5565b61033261192e565b610364611934565b610332600480360360208110156105a057600080fd5b50356001600160a01b0316611bd6565b610332611bf4565b61036460048036036101608110156105cf57600080fd5b6001600160a01b038235811692602081013590911691810190606081016040820135600160201b81111561060257600080fd5b82018360208201111561061457600080fd5b803590602001918460208302840111600160201b8311171561063557600080fd5b9190808060200260200160405190810160405280939291908181526020018383602002808284376000920191909152509295949360208101935035915050600160201b81111561068457600080fd5b82018360208201111561069657600080fd5b803590602001918460208302840111600160201b831117156106b757600080fd5b91908080602002602001604051908101604052809392919081815260200183836020028082843760009201919091525092955050823593505050602081013590604081013590606081013561ffff9081169160808101359091169060a081013515159060c0013560ff16611bfa565b610332611d9f565b6102cc6004803603602081101561074457600080fd5b50356001600160a01b0316611da7565b6103646004803603602081101561076a57600080fd5b5035611dbc565b610779612175565b6040805160ff9092168252519081900360200190f35b6102cc612185565b6107bd600480360360208110156107ad57600080fd5b50356001600160a01b0316612193565b6040805161ffff909316835260208301919091528051918290030190f35b610364600480360360208110156107f157600080fd5b810190602081018135600160201b81111561080b57600080fd5b82018360208201111561081d57600080fd5b803590602001918460208302840111600160201b8311171561083e57600080fd5b9190808060200260200160405190810160405280939291908181526020018383602002808284376000920191909152509295506121a9945050505050565b6102ad612346565b6103326004803603602081101561089a57600080fd5b50356001600160a01b0316612357565b61030e612375565b6102ad600480360360208110156108c857600080fd5b50356001600160a01b0316612384565b620f424081565b600754610100900461ffff1681565b600c5460ff1681565b6001600160a01b03166000908152600d602052604090205460ff1690565b600754600160281b90046001600160a01b031681565b60065481565b60035481565b6000546001600160a01b031681565b60095481565b6001546001600160a01b03163314610999576040805162461bcd60e51b815260206004820152601c6024820152600080516020612a09833981519152604482015290519081900360640190fd5b600c5460ff6101009091041615156001146109e55760405162461bcd60e51b8152600401808060200182810382526024815260200180612ae66024913960400191505060405180910390fd5b600a5460ff16151560011415610a30576040805162461bcd60e51b815260206004820152601a6024820152600080516020612a29833981519152604482015290519081900360640190fd5b600a5460ff61010090910416151560011415610a81576040805162461bcd60e51b815260206004820152601a6024820152600080516020612b54833981519152604482015290519081900360640190fd5b600854604080516370a0823160e01b815230600482015290516001600160a01b039092169163a9059cbb91339184916370a08231916024808301926020929190829003018186803b158015610ad557600080fd5b505afa158015610ae9573d6000803e3d6000fd5b505050506040513d6020811015610aff57600080fd5b5051604080516001600160e01b031960e086901b1681526001600160a01b03909316600484015260248301919091525160448083019260209291908290030181600087803b158015610b5057600080fd5b505af1158015610b64573d6000803e3d6000fd5b505050506040513d6020811015610b7a57600080fd5b5050565b6001546001600160a01b03163314610bcb576040805162461bcd60e51b815260206004820152601c6024820152600080516020612a09833981519152604482015290519081900360640190fd5b600a5460ff16151560011415610c16576040805162461bcd60e51b815260206004820152601a6024820152600080516020612a29833981519152604482015290519081900360640190fd5b600a5460ff610100909104161515600114610c71576040805162461bcd60e51b815260206004820152601660248201527514d959590e881cda1bdd5b19081899481c185d5cd95960521b604482015290519081900360640190fd5b600a805461ff0019169055565b6001546001600160a01b03163314610ccb576040805162461bcd60e51b815260206004820152601c6024820152600080516020612a09833981519152604482015290519081900360640190fd5b600a5460ff16151560011415610d16576040805162461bcd60e51b815260206004820152601a6024820152600080516020612a29833981519152604482015290519081900360640190fd5b600a5460ff61010090910416151560011415610d67576040805162461bcd60e51b815260206004820152601a6024820152600080516020612b54833981519152604482015290519081900360640190fd5b600854600154604080516370a0823160e01b815230600482015290516001600160a01b039384169363a9059cbb93169184916370a0823191602480820192602092909190829003018186803b158015610dbf57600080fd5b505afa158015610dd3573d6000803e3d6000fd5b505050506040513d6020811015610de957600080fd5b5051604080516001600160e01b031960e086901b1681526001600160a01b03909316600484015260248301919091525160448083019260209291908290030181600087803b158015610e3a57600080fd5b505af1158015610e4e573d6000803e3d6000fd5b505050506040513d6020811015610e6457600080fd5b5051610ea15760405162461bcd60e51b815260040180806020018281038252602d8152602001806129dc602d913960400191505060405180910390fd5b600754600154604080516370a0823160e01b815230600482015290516001600160a01b03600160281b90940484169363a9059cbb93169184916370a0823191602480820192602092909190829003018186803b158015610f0057600080fd5b505afa158015610f14573d6000803e3d6000fd5b505050506040513d6020811015610f2a57600080fd5b5051604080516001600160e01b031960e086901b1681526001600160a01b03909316600484015260248301919091525160448083019260209291908290030181600087803b158015610f7b57600080fd5b505af1158015610f8f573d6000803e3d6000fd5b505050506040513d6020811015610fa557600080fd5b5051610fe25760405162461bcd60e51b815260040180806020018281038252602a815260200180612a9a602a913960400191505060405180910390fd5b600a805460ff19166001179055565b6001546001600160a01b0316331461103e576040805162461bcd60e51b815260206004820152601c6024820152600080516020612a09833981519152604482015290519081900360640190fd5b600a5460ff16151560011415611089576040805162461bcd60e51b815260206004820152601a6024820152600080516020612a29833981519152604482015290519081900360640190fd5b600a5460ff610100909104161515600114156110da576040805162461bcd60e51b815260206004820152601a6024820152600080516020612b54833981519152604482015290519081900360640190fd5b60098190556040805182815290517f6e27af24ead46b4b469e383b46b4b75487fcf1ffce54d216add332f9de2120c59181900360200190a150565b6001600160a01b03166000908152600e602052604090206003015490565b6001600160a01b03166000908152600e6020526040902060020154600160201b900461ffff1690565b600e6020526000908152604090208054600182015460028301546003840154600485015460058601546006909601549495939461ffff80851695620100008604821695600160201b900490911693926001600160a01b03169189565b600a5460ff1681565b600a54610100900460ff1681565b6001600160a01b03166000908152600e602052604090206002015461ffff1690565b60075460ff1681565b6001600160a01b039081166000908152600e60205260409020600401541690565b6008546001600160a01b031681565b60055481565b6001600160a01b03166000908152600e602052604090205490565b60025481565b6001546001600160a01b0316331461129e576040805162461bcd60e51b815260206004820152601c6024820152600080516020612a09833981519152604482015290519081900360640190fd5b600a5460ff161515600114156112e9576040805162461bcd60e51b815260206004820152601a6024820152600080516020612a29833981519152604482015290519081900360640190fd5b600a5460ff6101009091041615156001141561133a576040805162461bcd60e51b815260206004820152601a6024820152600080516020612b54833981519152604482015290519081900360640190fd5b600a805461ff001916610100179055565b600c5460ff6101009091041615156001146113975760405162461bcd60e51b8152600401808060200182810382526024815260200180612ae66024913960400191505060405180910390fd5b6000806113a3836123ac565b9092509050806113fa576040805162461bcd60e51b815260206004820152601760248201527f536565643a20616d6f756e745665737465642069732030000000000000000000604482015290519081900360640190fd5b6001600160a01b0383166000908152600e60205260409020600281015461143690600160201b900461ffff90811690851663ffffffff6124ee16565b60028201805461ffff92909216600160201b0265ffff0000000019909216919091179055600381015461146f908363ffffffff6124ee16565b60038201556007546000805460068401546040805163a9059cbb60e01b81526001600160a01b039384166004820152602481019290925251600160281b9094049091169263a9059cbb92604480840193602093929083900390910190829087803b1580156114dc57600080fd5b505af11580156114f0573d6000803e3d6000fd5b505050506040513d602081101561150657600080fd5b50516115435760405162461bcd60e51b8152600401808060200182810382526024815260200180612b306024913960400191505060405180910390fd5b6007546004808301546040805163a9059cbb60e01b81526001600160a01b03928316938101939093526024830186905251600160281b909304169163a9059cbb916044808201926020929091908290030181600087803b1580156115a657600080fd5b505af11580156115ba573d6000803e3d6000fd5b505050506040513d60208110156115d057600080fd5b5051611615576040805162461bcd60e51b815260206004820152600f60248201526e536565643a206e6f20746f6b656e7360881b604482015290519081900360640190fd5b60048101546040805184815290516001600160a01b03909216917f896e034966eaaf1adc54acc0f257056febbd300c9e47182cf761982cf1f5e4309181900360200190a250505050565b6001546001600160a01b031633146116ac576040805162461bcd60e51b815260206004820152601c6024820152600080516020612a09833981519152604482015290519081900360640190fd5b600a5460ff161515600114156116f7576040805162461bcd60e51b815260206004820152601a6024820152600080516020612a29833981519152604482015290519081900360640190fd5b600a5460ff61010090910416151560011415611748576040805162461bcd60e51b815260206004820152601a6024820152600080516020612b54833981519152604482015290519081900360640190fd5b60075460ff1615156001146117a4576040805162461bcd60e51b815260206004820152601f60248201527f536565643a206d6f64756c65206973206e6f742077686974656c697374656400604482015290519081900360640190fd5b6001600160a01b03166000908152600d60205260409020805460ff19169055565b6001546001600160a01b03163314611812576040805162461bcd60e51b815260206004820152601c6024820152600080516020612a09833981519152604482015290519081900360640190fd5b600a5460ff1615156001141561185d576040805162461bcd60e51b815260206004820152601a6024820152600080516020612a29833981519152604482015290519081900360640190fd5b600a5460ff610100909104161515600114156118ae576040805162461bcd60e51b815260206004820152601a6024820152600080516020612b54833981519152604482015290519081900360640190fd5b60075460ff16151560011461190a576040805162461bcd60e51b815260206004820152601f60248201527f536565643a206d6f64756c65206973206e6f742077686974656c697374656400604482015290519081900360640190fd5b6001600160a01b03166000908152600d60205260409020805460ff19166001179055565b60045481565b600a5460ff1615156001141561197f576040805162461bcd60e51b815260206004820152601a6024820152600080516020612a29833981519152604482015290519081900360640190fd5b600a5460ff610100909104161515600114156119d0576040805162461bcd60e51b815260206004820152601a6024820152600080516020612b54833981519152604482015290519081900360640190fd5b60075460ff16151560011415806119fb5750336000908152600d602052604090205460ff1615156001145b611a4c576040805162461bcd60e51b815260206004820152601a60248201527f536565643a2073656e64657220686173206e6f20726967687473000000000000604482015290519081900360640190fd5b600c54610100900460ff1615611aa9576040805162461bcd60e51b815260206004820152601960248201527f536565643a206d696e696d756d20616c7265616479206d657400000000000000604482015290519081900360640190fd5b336000818152600e60209081526040808320600581018054600183018690556006830186905590859055600854835163a9059cbb60e01b81526004810197909752602487018290529251919590946001600160a01b039093169363a9059cbb9360448084019492938390030190829087803b158015611b2757600080fd5b505af1158015611b3b573d6000803e3d6000fd5b505050506040513d6020811015611b5157600080fd5b5051611b8e5760405162461bcd60e51b8152600401808060200182810382526030815260200180612a496030913960400191505060405180910390fd5b60048201546040805183815290516001600160a01b03909216917f1a689b1a62e3bb77f9c98d8759c04f341a67deb5cc63cf53be8324b6910649509181900360200190a25050565b6001600160a01b03166000908152600e602052604090206006015490565b600b5481565b600c5460ff1615611c3c5760405162461bcd60e51b8152600401808060200182810382526022815260200180612ac46022913960400191505060405180910390fd5b600c805460ff19166001908117909155600080546001600160a01b03808f166001600160a01b03199283161783558354908e169116179091558851899190611c8057fe5b602002602001015160028190555087600181518110611c9b57fe5b60209081029190910101516003556004879055600586905560068590556007805462ffff00191661010061ffff878116919091029190911764ffff00000019166301000000918616919091021760ff191683151517905588518990600090611cff57fe5b6020026020010151600760056101000a8154816001600160a01b0302191690836001600160a01b0316021790555088600181518110611d3a57fe5b6020908102919091010151600880546001600160a01b0319166001600160a01b039092169190911760ff60a01b1916600160a01b60ff93909316929092029190911790555050600a805460ff191690555050600c805461ff0019169055505050505050565b6305f5e10081565b600d6020526000908152604090205460ff1681565b600a5460ff16151560011415611e07576040805162461bcd60e51b815260206004820152601a6024820152600080516020612a29833981519152604482015290519081900360640190fd5b600a5460ff61010090910416151560011415611e58576040805162461bcd60e51b815260206004820152601a6024820152600080516020612b54833981519152604482015290519081900360640190fd5b60075460ff1615156001141580611e835750336000908152600d602052604090205460ff1615156001145b611ed4576040805162461bcd60e51b815260206004820152601a60248201527f536565643a2073656e64657220686173206e6f20726967687473000000000000604482015290519081900360640190fd5b600354600854604080516370a0823160e01b8152306004820152905184926001600160a01b0316916370a08231916024808301926020929190829003018186803b158015611f2157600080fd5b505afa158015611f35573d6000803e3d6000fd5b505050506040513d6020811015611f4b57600080fd5b5051011115611f8b5760405162461bcd60e51b8152600401808060200182810382526026815260200180612b0a6026913960400191505060405180910390fd5b600854604080516323b872dd60e01b81523360048201523060248201526044810184905290516001600160a01b03909216916323b872dd916064808201926020929091908290030181600087803b158015611fe557600080fd5b505af1158015611ff9573d6000803e3d6000fd5b505050506040513d602081101561200f57600080fd5b5051612054576040805162461bcd60e51b815260206004820152600f60248201526e536565643a206e6f20746f6b656e7360881b604482015290519081900360640190fd5b600254600854604080516370a0823160e01b815230600482015290516001600160a01b03909216916370a0823191602480820192602092909190829003018186803b1580156120a257600080fd5b505afa1580156120b6573d6000803e3d6000fd5b505050506040513d60208110156120cc57600080fd5b5051106120e357600c805461ff0019166101001790555b600854600090612126906305f5e1009061211a90600160a01b900460ff1661210e86620f4240612551565b9063ffffffff61255116565b9063ffffffff6125aa16565b336000818152600e6020526040902060010154600454929350916121709190429061216990670de0b6b3a76400009061211a9061210e888b63ffffffff6124ee16565b86866125ec565b505050565b600854600160a01b900460ff1681565b600c54610100900460ff1681565b60008061219f836123ac565b915091505b915091565b6001546001600160a01b031633146121f6576040805162461bcd60e51b815260206004820152601c6024820152600080516020612a09833981519152604482015290519081900360640190fd5b600a5460ff16151560011415612241576040805162461bcd60e51b815260206004820152601a6024820152600080516020612a29833981519152604482015290519081900360640190fd5b600a5460ff61010090910416151560011415612292576040805162461bcd60e51b815260206004820152601a6024820152600080516020612b54833981519152604482015290519081900360640190fd5b60075460ff1615156001146122ee576040805162461bcd60e51b815260206004820152601f60248201527f536565643a206d6f64756c65206973206e6f742077686974656c697374656400604482015290519081900360640190fd5b60005b8151811015610b7a576001600d600084848151811061230c57fe5b6020908102919091018101516001600160a01b03168252810191909152604001600020805460ff19169115159190911790556001016122f1565b6007546301000000900461ffff1681565b6001600160a01b03166000908152600e602052604090206001015490565b6001546001600160a01b031681565b6001600160a01b03166000908152600e602052604090206002015462010000900461ffff1690565b6001600160a01b0381166000908152600e6020526040812080548291906123d1612838565b10156123e45750600091508190506121a4565b600061240282600001546123f6612838565b9063ffffffff61283c16565b90506000612419826201518063ffffffff6125aa16565b600284015490915062010000900461ffff16811015612440579350600092506121a4915050565b600283015461ffff16811061248457600061246c8460030154856001015461283c90919063ffffffff16565b60029094015461ffff1695509293506121a492505050565b60028301546000906124a2908390600160201b900461ffff1661283c565b600285015460018601549192506000916124c59161ffff1663ffffffff6125aa16565b905060006124dd61ffff84168363ffffffff61255116565b9297509195506121a4945050505050565b600082820183811015612548576040805162461bcd60e51b815260206004820152601b60248201527f536166654d6174683a206164646974696f6e206f766572666c6f770000000000604482015290519081900360640190fd5b90505b92915050565b6000826125605750600061254b565b8282028284828161256d57fe5b04146125485760405162461bcd60e51b8152600401808060200182810382526021815260200180612a796021913960400191505060405180910390fd5b600061254883836040518060400160405280601a81526020017f536166654d6174683a206469766973696f6e206279207a65726f00000000000081525061287e565b600754600090612606908590610100900461ffff166125aa565b90506000811161265d576040805162461bcd60e51b815260206004820152601c60248201527f536565643a20616d6f756e74566573746564506572446179203e203000000000604482015290519081900360640190fd5b61266561297a565b6040518061012001604052808760001461267f5787612687565b612687612838565b8152602001868152602001600760019054906101000a900461ffff1661ffff168152602001600760039054906101000a900461ffff1661ffff168152602001600061ffff16815260200160008152602001886001600160a01b0316815260200185815260200184815250905080600e6000896001600160a01b03166001600160a01b03168152602001908152602001600020600082015181600001556020820151816001015560408201518160020160006101000a81548161ffff021916908361ffff16021790555060608201518160020160026101000a81548161ffff021916908361ffff16021790555060808201518160020160046101000a81548161ffff021916908361ffff16021790555060a0820151816003015560c08201518160040160006101000a8154816001600160a01b0302191690836001600160a01b0316021790555060e082015181600501556101008201518160060155905050866001600160a01b03167f3354b37776bd3f8bee9715201d2e43766f360c5c634addb7f6ee8092bd190f7f866040518082815260200191505060405180910390a25050600b805460010190555050505050565b4290565b600061254883836040518060400160405280601e81526020017f536166654d6174683a207375627472616374696f6e206f766572666c6f770000815250612920565b6000818361290a5760405162461bcd60e51b81526004018080602001828103825283818151815260200191508051906020019080838360005b838110156128cf5781810151838201526020016128b7565b50505050905090810190601f1680156128fc5780820380516001836020036101000a031916815260200191505b509250505060405180910390fd5b50600083858161291657fe5b0495945050505050565b600081848411156129725760405162461bcd60e51b81526020600482018181528351602484015283519092839260449091019190850190808383600083156128cf5781810151838201526020016128b7565b505050900390565b6040518061012001604052806000815260200160008152602001600061ffff168152602001600061ffff168152602001600061ffff1681526020016000815260200160006001600160a01b031681526020016000815260200160008152509056fe536565643a2073686f756c64207472616e736665722066756e64696e6720746f6b656e7320746f2061646d696e536565643a2063616c6c65722073686f756c642062652061646d696e00000000536565643a2073686f756c64206e6f7420626520636c6f736564000000000000536565643a2063616e6e6f742072657475726e2066756e64696e6720746f6b656e7320746f206d73672e73656e646572536166654d6174683a206d756c7469706c69636174696f6e206f766572666c6f77536565643a2073686f756c64207472616e73666572207365656420746f6b656e7320746f2061646d696e536565643a20636f6e747261637420616c726561647920696e697469616c697a6564536565643a206d696e696d756d2066756e64696e6720616d6f756e74206e6f74206d6574536565643a20616d6f756e74206578636565647320636f6e74726163742073616c6520636170536565643a2063616e6e6f74207472616e7366657220746f2062656e6566696369617279536565643a2073686f756c64206e6f7420626520706175736564000000000000a265627a7a723158207ab11e8658787d0fc0f37eb9d06d482ded617213b8f636a7e5f027bbc39960bd64736f6c634300050d0032",
  "source": "/*\n\n\n\n\n\n\n\n\n*/\n\n// SPDX-License-Identifier: GPL-3.0-or-later\n/* solhint-disable space-after-comma */\n/* solhint-disable max-states-count */\npragma solidity 0.5.13;\n\nimport \"openzeppelin-solidity/contracts/token/ERC20/IERC20.sol\";\nimport \"openzeppelin-solidity/contracts/math/SafeMath.sol\";\n\n\n/**\n * @title primebeneSeed contract\n * @dev   Smart contract for seed phases of liquid launch.\n */\ncontract Seed {\n    using SafeMath for uint256;\n    using SafeMath for uint16;\n    using SafeMath for uint8;\n\n    // Locked parameters\n    address public beneficiary;\n    address public admin;\n    uint    public successMinimum;\n    uint    public cap;\n    uint    public price;\n    uint    public startTime;\n    uint    public endTime;\n    bool    public isWhitelisted;\n    uint16  public vestingDuration;\n    uint16  public vestingCliff;\n    IERC20  public seedToken;\n    IERC20  public fundingToken;\n    uint8   public fee;\n\n    bytes32 public metadata;\n\n    uint256 constant internal PCT_BASE        = 10 ** 18;  // // 0% = 0; 1% = 10 ** 16; 100% = 10 ** 18\n    uint32  public constant PPM               = 1000000;   // parts per million\n    uint256 public constant PPM100            = 100000000; // ppm * 100\n    uint256 constant internal SECONDS_PER_DAY = 86400;\n\n    // Contract logic\n    bool      public closed;\n    bool      public paused;\n    uint256   public totalLockCount;\n    bool      public initialized;\n    bool      public minimumReached;\n\n    mapping (address => bool)    public whitelisted;\n    mapping (address => Lock)    public tokenLocks; // locker to lock\n\n    event LockAdded(address indexed recipient, uint256 locked);\n    event TokensClaimed(address indexed recipient, uint256 amountVested);\n    event FundingReclaimed(address indexed recipient, uint256 amountReclaimed);\n    event MetadataUpdated(bytes32 metadata);\n\n    modifier initializer() {\n        require(!initialized, \"Seed: contract already initialized\");\n        initialized = true;\n        _;\n    }\n\n    modifier onlyAdmin() {\n        require(msg.sender == admin, \"Seed: caller should be admin\");\n        _;\n    }\n\n    modifier protected() {\n        require(closed != true, \"Seed: should not be closed\");\n        require(paused != true, \"Seed: should not be paused\");\n        _;\n    }\n\n    modifier checked() {\n        require(isWhitelisted != true || whitelisted[msg.sender] == true, \"Seed: sender has no rights\");\n        _;\n    }\n\n    modifier checkMinimumReached() {\n        require(minimumReached == true, \"Seed: minimum funding amount not met\");\n        _;\n    }\n\n    modifier beforeMinimumReached() {\n        require(minimumReached == false, \"Seed: minimum already met\");\n        _;\n    }\n\n    struct Lock {\n        uint256 startTime;\n        uint256 amount;\n        uint16  vestingDuration;\n        uint16  vestingCliff;\n        uint16  daysClaimed;\n        uint256 totalClaimed;\n        address recipient;\n        uint256 fundingAmount;\n        uint256 fee;\n    }\n\n    /**\n      * @dev                          Initialize Seed.\n      * @param _admin                 The address of the admin of this contract. Funds contract\n                                      and has permissions to whitelist users, pause and close contract.\n      * @param _tokens                Array containing two params:\n                                        - The address of the token being distributed.\n      *                                 - The address of the token being exchanged for seed token.\n      * @param _successMinimumAndCap  Array containing two params:\n                                        - the minimum distribution threshold\n                                        - the highest possible amount to be raised in wei.\n      * @param _price                 The price in wei of fundingTokens when exchanged for seedTokens.\n      * @param _startTime             Distribution start time in unix timecode.\n      * @param _endTime               Distribution end time in unix timecode.\n      * @param _vestingDuration       Vesting period duration in days.\n      * @param _vestingCliff          Cliff duration in days.\n      * @param _isWhitelisted         Set to true if only whitelisted adresses are allowed to participate.\n      * @param _fee                   Success fee expressed in Wei as a % (e.g. 2 = 2% fee)\n    */\n    function initialize(\n            address _beneficiary,\n            address _admin,\n            address[] memory _tokens,\n            uint[] memory    _successMinimumAndCap,\n            uint    _price,\n            uint    _startTime,\n            uint    _endTime,\n            uint16  _vestingDuration,\n            uint16  _vestingCliff,\n            bool    _isWhitelisted,\n            uint8   _fee\n    ) public initializer {\n        beneficiary     = _beneficiary;\n        admin           = _admin;\n        successMinimum  = _successMinimumAndCap[0];\n        cap             = _successMinimumAndCap[1];\n        price           = _price;\n        startTime       = _startTime;\n        endTime         = _endTime;\n        vestingDuration = _vestingDuration;\n        vestingCliff    = _vestingCliff;\n        isWhitelisted   = _isWhitelisted;\n        seedToken       = IERC20(_tokens[0]);\n        fundingToken    = IERC20(_tokens[1]);\n        fee             = _fee;\n        closed          = false;\n        minimumReached  = false;\n    }\n\n    /**\n      * @dev                     Buy seed tokens.\n      * @param _amount           The amount of tokens to buy.\n    */\n    function buy(uint256 _amount) public protected checked {\n        require((fundingToken.balanceOf(address(this)) + _amount) <= cap, \"Seed: amount exceeds contract sale cap\");\n        require(fundingToken.transferFrom(msg.sender, address(this), _amount), \"Seed: no tokens\");\n\n        if (fundingToken.balanceOf(address(this)) >= successMinimum) {\n            minimumReached = true;\n        }\n\n        uint feeAmount = (_amount.mul(uint(PPM))).mul(fee).div(PPM100);\n\n        uint _lockTokens = tokenLocks[msg.sender].amount;\n        _addLock(msg.sender, block.timestamp, (_lockTokens.add(_amount)).mul(price).div(PCT_BASE), _amount, feeAmount);\n    }\n\n    /**\n      * @dev                     Claim locked tokens.\n      * @param _locker           The address of the locker.\n    */\n    function claimLock(address _locker) public checkMinimumReached {\n        uint16 daysVested;\n        uint256 amountVested;\n        (daysVested, amountVested) = _calculateClaim(_locker);\n        require(amountVested > 0, \"Seed: amountVested is 0\");\n\n        Lock storage tokenLock = tokenLocks[_locker];\n        tokenLock.daysClaimed = uint16(tokenLock.daysClaimed.add(daysVested));\n        tokenLock.totalClaimed = uint256(tokenLock.totalClaimed.add(amountVested));\n\n        require(seedToken.transfer(beneficiary, tokenLock.fee), \"Seed: cannot transfer to beneficiary\");\n        require(seedToken.transfer(tokenLock.recipient, amountVested), \"Seed: no tokens\");\n        emit TokensClaimed(tokenLock.recipient, amountVested);\n    }\n\n    /**\n      * @dev         Returns funding tokens to user.\n    */\n    function buyBack() public protected checked beforeMinimumReached {\n        Lock storage tokenLock = tokenLocks[msg.sender];\n        uint amount = tokenLock.fundingAmount;\n        tokenLock.amount = 0;\n        tokenLock.fee = 0;\n        tokenLock.fundingAmount = 0;\n        require(\n            fundingToken.transfer(msg.sender, amount),\n            \"Seed: cannot return funding tokens to msg.sender\"\n        );\n        emit FundingReclaimed(tokenLock.recipient, amount);\n    }\n\n    // ADMIN ACTIONS\n\n    /**\n      * @dev                     Pause distribution.\n    */\n    function pause() public onlyAdmin protected {\n        paused = true;\n    }\n\n    /**\n      * @dev                     Unpause distribution.\n    */\n    function unpause() public onlyAdmin {\n        require(closed != true, \"Seed: should not be closed\");\n        require(paused == true, \"Seed: should be paused\");\n\n        paused = false;\n    }\n\n    /**\n      * @dev                     Close distribution.\n    */\n    function close() public onlyAdmin protected {\n        // transfer all the tokens back to admin\n        require(\n            fundingToken.transfer(admin, fundingToken.balanceOf(address(this))),\n            \"Seed: should transfer funding tokens to admin\"\n        );\n        require(\n            seedToken.transfer(admin, seedToken.balanceOf(address(this))),\n            \"Seed: should transfer seed tokens to admin\"\n        );\n\n        closed = true;\n    }\n\n    /**\n      * @dev                     Add address to whitelist.\n    */\n    function whitelist(address _buyer) public onlyAdmin protected {\n        require(isWhitelisted == true, \"Seed: module is not whitelisted\");\n\n        whitelisted[_buyer] = true;\n    }\n\n    /**\n      * @dev                     Add multiple addresses to whitelist.\n    */\n    function whitelistBatch(address[] memory _buyers) public onlyAdmin protected {\n        require(isWhitelisted == true, \"Seed: module is not whitelisted\");\n        for (uint i=0; i < _buyers.length; i++) {\n            whitelisted[_buyers[i]] = true;\n        }\n    }\n\n    /**\n      * @dev                     Remove address from whitelist.\n    */\n    function unwhitelist(address buyer) public onlyAdmin protected {\n        require(isWhitelisted == true, \"Seed: module is not whitelisted\");\n\n        whitelisted[buyer] = false;\n    }\n\n    /**\n      * @dev                     Withdraw funds from the contract\n    */\n    function withdraw() public onlyAdmin checkMinimumReached protected {\n        fundingToken.transfer(msg.sender, fundingToken.balanceOf(address(this)));\n    }\n\n    /**\n      * @dev                     Emits MetadataUpdated event to notify the front-end that metadata was updated.\n    */\n    function updateMetadata(bytes32 _metadata) public onlyAdmin protected {\n        metadata = _metadata;\n        emit MetadataUpdated(_metadata);\n    }\n\n    // GETTER FUNCTIONS\n    function calculateClaim(address _locker) public view returns(uint16, uint256) {\n        return _calculateClaim(_locker);\n    }\n\n    function checkWhitelisted(address _buyer) public view returns(bool) {\n        return whitelisted[_buyer];\n    }\n\n    function getStartTime(address _locker) public view returns(uint256) {\n        return tokenLocks[_locker].startTime;\n    }\n\n    function getAmount(address _locker) public view returns(uint256) {\n        return tokenLocks[_locker].amount;\n    }\n\n    function getVestingDuration(address _locker) public view returns(uint16) {\n        return tokenLocks[_locker].vestingDuration;\n    }\n\n    function getVestingCliff(address _locker) public view returns(uint16) {\n        return tokenLocks[_locker].vestingCliff;\n    }\n\n    function getDaysClaimed(address _locker) public view returns(uint16) {\n        return tokenLocks[_locker].daysClaimed;\n    }\n\n    function getTotalClaimed(address _locker) public view returns(uint256) {\n        return tokenLocks[_locker].totalClaimed;\n    }\n\n    function getRecipient(address _locker) public view returns(address) {\n        return tokenLocks[_locker].recipient;\n    }\n\n    function getFee(address _locker) public view returns(uint256) {\n        return tokenLocks[_locker].fee;\n    }\n\n    // INTERNAL FUNCTIONS\n    function _currentTime() internal view returns(uint256) {\n        return block.timestamp;\n    }\n\n    function _addLock(\n        address _recipient,\n        uint256 _startTime,\n        uint256 _amount,\n        uint256 _fundingAmount,\n        uint256 _fee\n    )\n        internal\n    {\n\n        uint256 amountVestedPerDay = _amount.div(vestingDuration);\n        require(amountVestedPerDay > 0, \"Seed: amountVestedPerDay > 0\");\n\n        Lock memory lock = Lock({\n            startTime: _startTime == 0 ? _currentTime() : _startTime,\n            amount: _amount,\n            vestingDuration: vestingDuration,\n            vestingCliff: vestingCliff,\n            daysClaimed: 0,\n            totalClaimed: 0,\n            recipient: _recipient,\n            fundingAmount: _fundingAmount,\n            fee: _fee\n        });\n        tokenLocks[_recipient] = lock;\n        emit LockAdded(_recipient, _amount);\n        totalLockCount++;\n    }\n\n    function _calculateClaim(address _locker) private view returns (uint16, uint256) {\n        Lock storage tokenLock = tokenLocks[_locker];\n\n        // For grants created with a future start date, that hasn't been reached, return 0, 0\n        if (_currentTime() < tokenLock.startTime) {\n            return (0, 0);\n        }\n\n        // Check cliff was reached\n        uint elapsedTime = _currentTime().sub(tokenLock.startTime);\n        uint elapsedDays = elapsedTime.div(SECONDS_PER_DAY);\n\n        if (elapsedDays < tokenLock.vestingCliff) {\n            return (uint16(elapsedDays), 0);\n        }\n\n        // If over vesting duration, all tokens vested\n        if (elapsedDays >= tokenLock.vestingDuration) {\n            uint256 remainingGrant = tokenLock.amount.sub(tokenLock.totalClaimed);\n            return (tokenLock.vestingDuration, remainingGrant);\n        } else {\n            uint16 daysVested = uint16(elapsedDays.sub(tokenLock.daysClaimed));\n            uint256 amountVestedPerDay = tokenLock.amount.div(uint256(tokenLock.vestingDuration));\n            uint256 amountVested = uint256(daysVested.mul(amountVestedPerDay));\n            return (daysVested, amountVested);\n        }\n    }\n}\n",
  "sourcePath": "/home/tengree/Projects/primedao/contracts/contracts/seed/Seed.sol",
  "compiler": {
    "name": "solc",
    "version": "0.5.13+commit.5b0b510c.Emscripten.clang"
  },
  "schemaVersion": "3.3.3",
  "updatedAt": "2021-04-12T16:53:52.251Z",
  "devdoc": {
    "details": "Smart contract for seed phases of liquid launch.",
    "methods": {
      "buy(uint256)": {
        "details": "Buy seed tokens.",
        "params": {
          "_amount": "The amount of tokens to buy."
        }
      },
      "buyBack()": {
        "details": "Returns funding tokens to user."
      },
      "claimLock(address)": {
        "details": "Claim locked tokens.",
        "params": {
          "_locker": "The address of the locker."
        }
      },
      "close()": {
        "details": "Close distribution."
      },
      "initialize(address,address,address[],uint256[],uint256,uint256,uint256,uint16,uint16,bool,uint8)": {
        "details": "Initialize Seed.",
        "params": {
          "_admin": "The address of the admin of this contract. Funds contract and has permissions to whitelist users, pause and close contract.",
          "_endTime": "Distribution end time in unix timecode.",
          "_fee": "Success fee expressed in Wei as a % (e.g. 2 = 2% fee)",
          "_isWhitelisted": "Set to true if only whitelisted adresses are allowed to participate.",
          "_price": "The price in wei of fundingTokens when exchanged for seedTokens.",
          "_startTime": "Distribution start time in unix timecode.",
          "_successMinimumAndCap": "Array containing two params: - the minimum distribution threshold - the highest possible amount to be raised in wei.",
          "_tokens": "Array containing two params: - The address of the token being distributed.                                - The address of the token being exchanged for seed token.",
          "_vestingCliff": "Cliff duration in days.",
          "_vestingDuration": "Vesting period duration in days."
        }
      },
      "pause()": {
        "details": "Pause distribution."
      },
      "unpause()": {
        "details": "Unpause distribution."
      },
      "unwhitelist(address)": {
        "details": "Remove address from whitelist."
      },
      "updateMetadata(bytes32)": {
        "details": "Emits MetadataUpdated event to notify the front-end that metadata was updated."
      },
      "whitelist(address)": {
        "details": "Add address to whitelist."
      },
      "whitelistBatch(address[])": {
        "details": "Add multiple addresses to whitelist."
      },
      "withdraw()": {
        "details": "Withdraw funds from the contract"
      }
    },
    "title": "primebeneSeed contract"
  },
  "userdoc": {
    "methods": {}
  }
}