{
  "contractName": "Seed",
  "abi": [
    {
      "anonymous": false,
      "inputs": [
        {
          "indexed": true,
          "internalType": "address",
          "name": "recipient",
          "type": "address"
        },
        {
          "indexed": false,
          "internalType": "uint256",
          "name": "amountReclaimed",
          "type": "uint256"
        }
      ],
      "name": "FundingReclaimed",
      "type": "event"
    },
    {
      "anonymous": false,
      "inputs": [
        {
          "indexed": true,
          "internalType": "address",
          "name": "recipient",
          "type": "address"
        },
        {
          "indexed": false,
          "internalType": "uint256",
          "name": "locked",
          "type": "uint256"
        }
      ],
      "name": "LockAdded",
      "type": "event"
    },
    {
      "anonymous": false,
      "inputs": [
        {
          "indexed": true,
          "internalType": "bytes32",
          "name": "metadata",
          "type": "bytes32"
        }
      ],
      "name": "MetadataUpdated",
      "type": "event"
    },
    {
      "anonymous": false,
      "inputs": [
        {
          "indexed": true,
          "internalType": "address",
          "name": "recipient",
          "type": "address"
        },
        {
          "indexed": false,
          "internalType": "uint256",
          "name": "amountVested",
          "type": "uint256"
        }
      ],
      "name": "TokensClaimed",
      "type": "event"
    },
    {
      "constant": true,
      "inputs": [],
      "name": "PPM",
      "outputs": [
        {
          "internalType": "uint32",
          "name": "",
          "type": "uint32"
        }
      ],
      "payable": false,
      "stateMutability": "view",
      "type": "function"
    },
    {
      "constant": true,
      "inputs": [],
      "name": "PPM100",
      "outputs": [
        {
          "internalType": "uint256",
          "name": "",
          "type": "uint256"
        }
      ],
      "payable": false,
      "stateMutability": "view",
      "type": "function"
    },
    {
      "constant": true,
      "inputs": [],
      "name": "admin",
      "outputs": [
        {
          "internalType": "address",
          "name": "",
          "type": "address"
        }
      ],
      "payable": false,
      "stateMutability": "view",
      "type": "function"
    },
    {
      "constant": true,
      "inputs": [],
      "name": "beneficiary",
      "outputs": [
        {
          "internalType": "address",
          "name": "",
          "type": "address"
        }
      ],
      "payable": false,
      "stateMutability": "view",
      "type": "function"
    },
    {
      "constant": true,
      "inputs": [],
      "name": "cap",
      "outputs": [
        {
          "internalType": "uint256",
          "name": "",
          "type": "uint256"
        }
      ],
      "payable": false,
      "stateMutability": "view",
      "type": "function"
    },
    {
      "constant": true,
      "inputs": [],
      "name": "closed",
      "outputs": [
        {
          "internalType": "bool",
          "name": "",
          "type": "bool"
        }
      ],
      "payable": false,
      "stateMutability": "view",
      "type": "function"
    },
    {
      "constant": true,
      "inputs": [],
      "name": "endTime",
      "outputs": [
        {
          "internalType": "uint256",
          "name": "",
          "type": "uint256"
        }
      ],
      "payable": false,
      "stateMutability": "view",
      "type": "function"
    },
    {
      "constant": true,
      "inputs": [],
      "name": "fee",
      "outputs": [
        {
          "internalType": "uint8",
          "name": "",
          "type": "uint8"
        }
      ],
      "payable": false,
      "stateMutability": "view",
      "type": "function"
    },
    {
      "constant": true,
      "inputs": [],
      "name": "fundingToken",
      "outputs": [
        {
          "internalType": "contract IERC20",
          "name": "",
          "type": "address"
        }
      ],
      "payable": false,
      "stateMutability": "view",
      "type": "function"
    },
    {
      "constant": true,
      "inputs": [],
      "name": "initialized",
      "outputs": [
        {
          "internalType": "bool",
          "name": "",
          "type": "bool"
        }
      ],
      "payable": false,
      "stateMutability": "view",
      "type": "function"
    },
    {
      "constant": true,
      "inputs": [],
      "name": "isWhitelisted",
      "outputs": [
        {
          "internalType": "bool",
          "name": "",
          "type": "bool"
        }
      ],
      "payable": false,
      "stateMutability": "view",
      "type": "function"
    },
    {
      "constant": true,
      "inputs": [],
      "name": "metadata",
      "outputs": [
        {
          "internalType": "bytes32",
          "name": "",
          "type": "bytes32"
        }
      ],
      "payable": false,
      "stateMutability": "view",
      "type": "function"
    },
    {
      "constant": true,
      "inputs": [],
      "name": "minimumReached",
      "outputs": [
        {
          "internalType": "bool",
          "name": "",
          "type": "bool"
        }
      ],
      "payable": false,
      "stateMutability": "view",
      "type": "function"
    },
    {
      "constant": true,
      "inputs": [],
      "name": "paused",
      "outputs": [
        {
          "internalType": "bool",
          "name": "",
          "type": "bool"
        }
      ],
      "payable": false,
      "stateMutability": "view",
      "type": "function"
    },
    {
      "constant": true,
      "inputs": [],
      "name": "price",
      "outputs": [
        {
          "internalType": "uint256",
          "name": "",
          "type": "uint256"
        }
      ],
      "payable": false,
      "stateMutability": "view",
      "type": "function"
    },
    {
      "constant": true,
      "inputs": [],
      "name": "seedToken",
      "outputs": [
        {
          "internalType": "contract IERC20",
          "name": "",
          "type": "address"
        }
      ],
      "payable": false,
      "stateMutability": "view",
      "type": "function"
    },
    {
      "constant": true,
      "inputs": [],
      "name": "startTime",
      "outputs": [
        {
          "internalType": "uint256",
          "name": "",
          "type": "uint256"
        }
      ],
      "payable": false,
      "stateMutability": "view",
      "type": "function"
    },
    {
      "constant": true,
      "inputs": [],
      "name": "successMinimum",
      "outputs": [
        {
          "internalType": "uint256",
          "name": "",
          "type": "uint256"
        }
      ],
      "payable": false,
      "stateMutability": "view",
      "type": "function"
    },
    {
      "constant": true,
      "inputs": [
        {
          "internalType": "address",
          "name": "",
          "type": "address"
        }
      ],
      "name": "tokenLocks",
      "outputs": [
        {
          "internalType": "uint256",
          "name": "startTime",
          "type": "uint256"
        },
        {
          "internalType": "uint256",
          "name": "amount",
          "type": "uint256"
        },
        {
          "internalType": "uint16",
          "name": "daysClaimed",
          "type": "uint16"
        },
        {
          "internalType": "uint256",
          "name": "totalClaimed",
          "type": "uint256"
        },
        {
          "internalType": "uint256",
          "name": "fundingAmount",
          "type": "uint256"
        },
        {
          "internalType": "uint256",
          "name": "fee",
          "type": "uint256"
        }
      ],
      "payable": false,
      "stateMutability": "view",
      "type": "function"
    },
    {
      "constant": true,
      "inputs": [],
      "name": "totalLockCount",
      "outputs": [
        {
          "internalType": "uint256",
          "name": "",
          "type": "uint256"
        }
      ],
      "payable": false,
      "stateMutability": "view",
      "type": "function"
    },
    {
      "constant": true,
      "inputs": [],
      "name": "vestingCliff",
      "outputs": [
        {
          "internalType": "uint16",
          "name": "",
          "type": "uint16"
        }
      ],
      "payable": false,
      "stateMutability": "view",
      "type": "function"
    },
    {
      "constant": true,
      "inputs": [],
      "name": "vestingDuration",
      "outputs": [
        {
          "internalType": "uint16",
          "name": "",
          "type": "uint16"
        }
      ],
      "payable": false,
      "stateMutability": "view",
      "type": "function"
    },
    {
      "constant": true,
      "inputs": [
        {
          "internalType": "address",
          "name": "",
          "type": "address"
        }
      ],
      "name": "whitelisted",
      "outputs": [
        {
          "internalType": "bool",
          "name": "",
          "type": "bool"
        }
      ],
      "payable": false,
      "stateMutability": "view",
      "type": "function"
    },
    {
      "constant": false,
      "inputs": [
        {
          "internalType": "address",
          "name": "_beneficiary",
          "type": "address"
        },
        {
          "internalType": "address",
          "name": "_admin",
          "type": "address"
        },
        {
          "internalType": "address[]",
          "name": "_tokens",
          "type": "address[]"
        },
        {
          "internalType": "uint256[]",
          "name": "_successMinimumAndCap",
          "type": "uint256[]"
        },
        {
          "internalType": "uint256",
          "name": "_price",
          "type": "uint256"
        },
        {
          "internalType": "uint256",
          "name": "_startTime",
          "type": "uint256"
        },
        {
          "internalType": "uint256",
          "name": "_endTime",
          "type": "uint256"
        },
        {
          "internalType": "uint16",
          "name": "_vestingDuration",
          "type": "uint16"
        },
        {
          "internalType": "uint16",
          "name": "_vestingCliff",
          "type": "uint16"
        },
        {
          "internalType": "bool",
          "name": "_isWhitelisted",
          "type": "bool"
        },
        {
          "internalType": "uint8",
          "name": "_fee",
          "type": "uint8"
        }
      ],
      "name": "initialize",
      "outputs": [],
      "payable": false,
      "stateMutability": "nonpayable",
      "type": "function"
    },
    {
      "constant": false,
      "inputs": [
        {
          "internalType": "uint256",
          "name": "_amount",
          "type": "uint256"
        }
      ],
      "name": "buy",
      "outputs": [],
      "payable": false,
      "stateMutability": "nonpayable",
      "type": "function"
    },
    {
      "constant": false,
      "inputs": [
        {
          "internalType": "address",
          "name": "_locker",
          "type": "address"
        }
      ],
      "name": "claimLock",
      "outputs": [],
      "payable": false,
      "stateMutability": "nonpayable",
      "type": "function"
    },
    {
      "constant": false,
      "inputs": [],
      "name": "buyBack",
      "outputs": [],
      "payable": false,
      "stateMutability": "nonpayable",
      "type": "function"
    },
    {
      "constant": false,
      "inputs": [],
      "name": "pause",
      "outputs": [],
      "payable": false,
      "stateMutability": "nonpayable",
      "type": "function"
    },
    {
      "constant": false,
      "inputs": [],
      "name": "unpause",
      "outputs": [],
      "payable": false,
      "stateMutability": "nonpayable",
      "type": "function"
    },
    {
      "constant": false,
      "inputs": [],
      "name": "close",
      "outputs": [],
      "payable": false,
      "stateMutability": "nonpayable",
      "type": "function"
    },
    {
      "constant": false,
      "inputs": [
        {
          "internalType": "address",
          "name": "_buyer",
          "type": "address"
        }
      ],
      "name": "whitelist",
      "outputs": [],
      "payable": false,
      "stateMutability": "nonpayable",
      "type": "function"
    },
    {
      "constant": false,
      "inputs": [
        {
          "internalType": "address[]",
          "name": "_buyers",
          "type": "address[]"
        }
      ],
      "name": "whitelistBatch",
      "outputs": [],
      "payable": false,
      "stateMutability": "nonpayable",
      "type": "function"
    },
    {
      "constant": false,
      "inputs": [
        {
          "internalType": "address",
          "name": "buyer",
          "type": "address"
        }
      ],
      "name": "unwhitelist",
      "outputs": [],
      "payable": false,
      "stateMutability": "nonpayable",
      "type": "function"
    },
    {
      "constant": false,
      "inputs": [],
      "name": "withdraw",
      "outputs": [],
      "payable": false,
      "stateMutability": "nonpayable",
      "type": "function"
    },
    {
      "constant": false,
      "inputs": [
        {
          "internalType": "bytes32",
          "name": "_metadata",
          "type": "bytes32"
        }
      ],
      "name": "updateMetadata",
      "outputs": [],
      "payable": false,
      "stateMutability": "nonpayable",
      "type": "function"
    },
    {
      "constant": true,
      "inputs": [
        {
          "internalType": "address",
          "name": "_locker",
          "type": "address"
        }
      ],
      "name": "calculateClaim",
      "outputs": [
        {
          "internalType": "uint16",
          "name": "",
          "type": "uint16"
        },
        {
          "internalType": "uint256",
          "name": "",
          "type": "uint256"
        }
      ],
      "payable": false,
      "stateMutability": "view",
      "type": "function"
    },
    {
      "constant": true,
      "inputs": [
        {
          "internalType": "address",
          "name": "_buyer",
          "type": "address"
        }
      ],
      "name": "checkWhitelisted",
      "outputs": [
        {
          "internalType": "bool",
          "name": "",
          "type": "bool"
        }
      ],
      "payable": false,
      "stateMutability": "view",
      "type": "function"
    },
    {
      "constant": true,
      "inputs": [
        {
          "internalType": "address",
          "name": "_locker",
          "type": "address"
        }
      ],
      "name": "getStartTime",
      "outputs": [
        {
          "internalType": "uint256",
          "name": "",
          "type": "uint256"
        }
      ],
      "payable": false,
      "stateMutability": "view",
      "type": "function"
    },
    {
      "constant": true,
      "inputs": [
        {
          "internalType": "address",
          "name": "_locker",
          "type": "address"
        }
      ],
      "name": "getAmount",
      "outputs": [
        {
          "internalType": "uint256",
          "name": "",
          "type": "uint256"
        }
      ],
      "payable": false,
      "stateMutability": "view",
      "type": "function"
    },
    {
      "constant": true,
      "inputs": [
        {
          "internalType": "address",
          "name": "_locker",
          "type": "address"
        }
      ],
      "name": "getDaysClaimed",
      "outputs": [
        {
          "internalType": "uint16",
          "name": "",
          "type": "uint16"
        }
      ],
      "payable": false,
      "stateMutability": "view",
      "type": "function"
    },
    {
      "constant": true,
      "inputs": [
        {
          "internalType": "address",
          "name": "_locker",
          "type": "address"
        }
      ],
      "name": "getTotalClaimed",
      "outputs": [
        {
          "internalType": "uint256",
          "name": "",
          "type": "uint256"
        }
      ],
      "payable": false,
      "stateMutability": "view",
      "type": "function"
    },
    {
      "constant": true,
      "inputs": [
        {
          "internalType": "address",
          "name": "_locker",
          "type": "address"
        }
      ],
      "name": "getFee",
      "outputs": [
        {
          "internalType": "uint256",
          "name": "",
          "type": "uint256"
        }
      ],
      "payable": false,
      "stateMutability": "view",
      "type": "function"
    }
  ],
  "bytecode": "0x608060405234801561001057600080fd5b506128c5806100206000396000f3fe608060405234801561001057600080fd5b506004361061025e5760003560e01c8063805e3ec811610146578063c6431752116100c3578063e565eb4c11610087578063e565eb4c14610703578063ea3455401461070b578063eaa535231461074f578063f3640e74146107f2578063f5a79767146107fa578063f851a440146108205761025e565b8063c643175214610528578063d6d2721a1461069a578063d936547e146106a2578063d96a094a146106c8578063ddca3f43146106e55761025e565b80639b19251a1161010a5780639b19251a146104c4578063a035b1fe146104ea578063acdf4f18146104f2578063b88c9148146104fa578063b9cb0a85146105205761025e565b8063805e3ec81461044257806381bf6fdc146104685780638456cb5914610470578063986e8539146104785780639a5904271461049e5761025e565b80633f4ba83a116101df57806356b63df7116101a357806356b63df7146103be578063597e1fb51461041a5780635c975abb14610422578063611b40951461042a57806378065f271461043257806378e979251461043a5761025e565b80633f4ba83a1461034557806343d726d61461034d5780634f2d777814610355578063522bf1d41461037257806355be8577146103985761025e565b80633197cbb6116102265780633197cbb614610309578063355274ea1461032357806338af3eed1461032b578063392f37e9146103335780633ccfd60b1461033b5761025e565b80630d720bbc146102635780631514617e14610284578063158ef93e146102a357806320d8dad0146102bf578063311f8483146102e5575b600080fd5b61026b610828565b6040805163ffffffff9092168252519081900360200190f35b61028c61082f565b6040805161ffff9092168252519081900360200190f35b6102ab61083e565b604080519115158252519081900360200190f35b6102ab600480360360208110156102d557600080fd5b50356001600160a01b0316610847565b6102ed610865565b604080516001600160a01b039092168252519081900360200190f35b61031161087b565b60408051918252519081900360200190f35b610311610881565b6102ed610887565b610311610896565b61034361089c565b005b610343610ace565b610343610bce565b6103436004803603602081101561036b57600080fd5b5035610f41565b6103116004803603602081101561038857600080fd5b50356001600160a01b0316610fd0565b61028c600480360360208110156103ae57600080fd5b50356001600160a01b0316610fee565b6103e4600480360360208110156103d457600080fd5b50356001600160a01b0316611010565b60408051968752602087019590955261ffff909316858501526060850191909152608084015260a0830152519081900360c00190f35b6102ab61104a565b6102ab611053565b6102ab611061565b6102ed61106a565b610311611079565b6103116004803603602081101561045857600080fd5b50356001600160a01b031661107f565b61031161109a565b6103436110a0565b6103436004803603602081101561048e57600080fd5b50356001600160a01b031661119a565b610343600480360360208110156104b457600080fd5b50356001600160a01b031661148b565b610343600480360360208110156104da57600080fd5b50356001600160a01b03166115f1565b61031161175a565b610343611760565b6103116004803603602081101561051057600080fd5b50356001600160a01b03166119f4565b610311611a12565b610343600480360361016081101561053f57600080fd5b6001600160a01b03823581169260208101359091169181019060608101604082013564010000000081111561057357600080fd5b82018360208201111561058557600080fd5b803590602001918460208302840111640100000000831117156105a757600080fd5b91908080602002602001604051908101604052809392919081815260200183836020028082843760009201919091525092959493602081019350359150506401000000008111156105f757600080fd5b82018360208201111561060957600080fd5b8035906020019184602083028401116401000000008311171561062b57600080fd5b91908080602002602001604051908101604052809392919081815260200183836020028082843760009201919091525092955050823593505050602081013590604081013590606081013561ffff9081169160808101359091169060a081013515159060c0013560ff16611a18565b610311611bbd565b6102ab600480360360208110156106b857600080fd5b50356001600160a01b0316611bc5565b610343600480360360208110156106de57600080fd5b5035611bda565b6106ed611fb1565b6040805160ff9092168252519081900360200190f35b6102ab611fc1565b6107316004803603602081101561072157600080fd5b50356001600160a01b0316611fcf565b6040805161ffff909316835260208301919091528051918290030190f35b6103436004803603602081101561076557600080fd5b81019060208101813564010000000081111561078057600080fd5b82018360208201111561079257600080fd5b803590602001918460208302840111640100000000831117156107b457600080fd5b919080806020026020016040519081016040528093929190818152602001838360200280828437600092019190915250929550611fe5945050505050565b61028c612182565b6103116004803603602081101561081057600080fd5b50356001600160a01b0316612193565b6102ed6121b1565b620f424081565b600754610100900461ffff1681565b600c5460ff1681565b6001600160a01b03166000908152600d602052604090205460ff1690565b600754600160281b90046001600160a01b031681565b60065481565b60035481565b6000546001600160a01b031681565b60095481565b6001546001600160a01b031633146108e9576040805162461bcd60e51b815260206004820152601c60248201526000805160206126e4833981519152604482015290519081900360640190fd5b600c5460ff6101009091041615156001146109355760405162461bcd60e51b81526004018080602001828103825260248152602001806128036024913960400191505060405180910390fd5b600a5460ff16151560011415610980576040805162461bcd60e51b815260206004820152601a6024820152600080516020612746833981519152604482015290519081900360640190fd5b600a5460ff610100909104161515600114156109d1576040805162461bcd60e51b815260206004820152601a6024820152600080516020612871833981519152604482015290519081900360640190fd5b600854604080516370a0823160e01b815230600482015290516001600160a01b039092169163a9059cbb91339184916370a08231916024808301926020929190829003018186803b158015610a2557600080fd5b505afa158015610a39573d6000803e3d6000fd5b505050506040513d6020811015610a4f57600080fd5b5051604080516001600160e01b031960e086901b1681526001600160a01b03909316600484015260248301919091525160448083019260209291908290030181600087803b158015610aa057600080fd5b505af1158015610ab4573d6000803e3d6000fd5b505050506040513d6020811015610aca57600080fd5b5050565b6001546001600160a01b03163314610b1b576040805162461bcd60e51b815260206004820152601c60248201526000805160206126e4833981519152604482015290519081900360640190fd5b600a5460ff16151560011415610b66576040805162461bcd60e51b815260206004820152601a6024820152600080516020612746833981519152604482015290519081900360640190fd5b600a5460ff610100909104161515600114610bc1576040805162461bcd60e51b815260206004820152601660248201527514d959590e881cda1bdd5b19081899481c185d5cd95960521b604482015290519081900360640190fd5b600a805461ff0019169055565b6001546001600160a01b03163314610c1b576040805162461bcd60e51b815260206004820152601c60248201526000805160206126e4833981519152604482015290519081900360640190fd5b600a5460ff16151560011415610c66576040805162461bcd60e51b815260206004820152601a6024820152600080516020612746833981519152604482015290519081900360640190fd5b600a5460ff61010090910416151560011415610cb7576040805162461bcd60e51b815260206004820152601a6024820152600080516020612871833981519152604482015290519081900360640190fd5b600854600154604080516370a0823160e01b815230600482015290516001600160a01b039384169363a9059cbb93169184916370a0823191602480820192602092909190829003018186803b158015610d0f57600080fd5b505afa158015610d23573d6000803e3d6000fd5b505050506040513d6020811015610d3957600080fd5b5051604080516001600160e01b031960e086901b1681526001600160a01b03909316600484015260248301919091525160448083019260209291908290030181600087803b158015610d8a57600080fd5b505af1158015610d9e573d6000803e3d6000fd5b505050506040513d6020811015610db457600080fd5b5051610df15760405162461bcd60e51b815260040180806020018281038252602d8152602001806126b7602d913960400191505060405180910390fd5b600754600154604080516370a0823160e01b815230600482015290516001600160a01b03600160281b90940484169363a9059cbb93169184916370a0823191602480820192602092909190829003018186803b158015610e5057600080fd5b505afa158015610e64573d6000803e3d6000fd5b505050506040513d6020811015610e7a57600080fd5b5051604080516001600160e01b031960e086901b1681526001600160a01b03909316600484015260248301919091525160448083019260209291908290030181600087803b158015610ecb57600080fd5b505af1158015610edf573d6000803e3d6000fd5b505050506040513d6020811015610ef557600080fd5b5051610f325760405162461bcd60e51b815260040180806020018281038252602a8152602001806127b7602a913960400191505060405180910390fd5b600a805460ff19166001179055565b600c5460ff1615156001141580610f6257506001546001600160a01b031633145b610f9d5760405162461bcd60e51b81526004018080602001828103825260428152602001806127046042913960600191505060405180910390fd5b600981905560405181907f6e27af24ead46b4b469e383b46b4b75487fcf1ffce54d216add332f9de2120c590600090a250565b6001600160a01b03166000908152600e602052604090206003015490565b6001600160a01b03166000908152600e602052604090206002015461ffff1690565b600e602052600090815260409020805460018201546002830154600384015460048501546005909501549394929361ffff90921692909186565b600a5460ff1681565b600a54610100900460ff1681565b60075460ff1681565b6008546001600160a01b031681565b60055481565b6001600160a01b03166000908152600e602052604090205490565b60025481565b6001546001600160a01b031633146110ed576040805162461bcd60e51b815260206004820152601c60248201526000805160206126e4833981519152604482015290519081900360640190fd5b600a5460ff16151560011415611138576040805162461bcd60e51b815260206004820152601a6024820152600080516020612746833981519152604482015290519081900360640190fd5b600a5460ff61010090910416151560011415611189576040805162461bcd60e51b815260206004820152601a6024820152600080516020612871833981519152604482015290519081900360640190fd5b600a805461ff001916610100179055565b600c5460ff6101009091041615156001146111e65760405162461bcd60e51b81526004018080602001828103825260248152602001806128036024913960400191505060405180910390fd5b6000806111f2836121c0565b909250905080611249576040805162461bcd60e51b815260206004820152601760248201527f536565643a20616d6f756e745665737465642069732030000000000000000000604482015290519081900360640190fd5b6001600160a01b0383166000908152600e60205260409020600281015461127e9061ffff90811690851663ffffffff6122e316565b60028201805461ffff191661ffff9290921691909117905560038101546112a590836122e3565b60038201556007546000805460058401546040805163a9059cbb60e01b81526001600160a01b039384166004820152602481019290925251600160281b9094049091169263a9059cbb92604480840193602093929083900390910190829087803b15801561131257600080fd5b505af1158015611326573d6000803e3d6000fd5b505050506040513d602081101561133c57600080fd5b50516113795760405162461bcd60e51b815260040180806020018281038252602481526020018061284d6024913960400191505060405180910390fd5b6007546040805163a9059cbb60e01b81526001600160a01b038781166004830152602482018690529151600160281b9093049091169163a9059cbb916044808201926020929091908290030181600087803b1580156113d757600080fd5b505af11580156113eb573d6000803e3d6000fd5b505050506040513d602081101561140157600080fd5b5051611446576040805162461bcd60e51b815260206004820152600f60248201526e536565643a206e6f20746f6b656e7360881b604482015290519081900360640190fd5b6040805183815290516001600160a01b038616917f896e034966eaaf1adc54acc0f257056febbd300c9e47182cf761982cf1f5e430919081900360200190a250505050565b6001546001600160a01b031633146114d8576040805162461bcd60e51b815260206004820152601c60248201526000805160206126e4833981519152604482015290519081900360640190fd5b600a5460ff16151560011415611523576040805162461bcd60e51b815260206004820152601a6024820152600080516020612746833981519152604482015290519081900360640190fd5b600a5460ff61010090910416151560011415611574576040805162461bcd60e51b815260206004820152601a6024820152600080516020612871833981519152604482015290519081900360640190fd5b60075460ff1615156001146115d0576040805162461bcd60e51b815260206004820152601f60248201527f536565643a206d6f64756c65206973206e6f742077686974656c697374656400604482015290519081900360640190fd5b6001600160a01b03166000908152600d60205260409020805460ff19169055565b6001546001600160a01b0316331461163e576040805162461bcd60e51b815260206004820152601c60248201526000805160206126e4833981519152604482015290519081900360640190fd5b600a5460ff16151560011415611689576040805162461bcd60e51b815260206004820152601a6024820152600080516020612746833981519152604482015290519081900360640190fd5b600a5460ff610100909104161515600114156116da576040805162461bcd60e51b815260206004820152601a6024820152600080516020612871833981519152604482015290519081900360640190fd5b60075460ff161515600114611736576040805162461bcd60e51b815260206004820152601f60248201527f536565643a206d6f64756c65206973206e6f742077686974656c697374656400604482015290519081900360640190fd5b6001600160a01b03166000908152600d60205260409020805460ff19166001179055565b60045481565b600a5460ff161515600114156117ab576040805162461bcd60e51b815260206004820152601a6024820152600080516020612746833981519152604482015290519081900360640190fd5b600a5460ff610100909104161515600114156117fc576040805162461bcd60e51b815260206004820152601a6024820152600080516020612871833981519152604482015290519081900360640190fd5b60075460ff16151560011415806118275750336000908152600d602052604090205460ff1615156001145b611878576040805162461bcd60e51b815260206004820152601a60248201527f536565643a2073656e64657220686173206e6f20726967687473000000000000604482015290519081900360640190fd5b600c54610100900460ff16156118d5576040805162461bcd60e51b815260206004820152601960248201527f536565643a206d696e696d756d20616c7265616479206d657400000000000000604482015290519081900360640190fd5b336000818152600e6020908152604080832060048082018054600184018790556005840187905590869055600854845163a9059cbb60e01b815292830197909752602482018190529251919592946001600160a01b039093169363a9059cbb9360448084019492938390030190829087803b15801561195357600080fd5b505af1158015611967573d6000803e3d6000fd5b505050506040513d602081101561197d57600080fd5b50516119ba5760405162461bcd60e51b81526004018080602001828103825260308152602001806127666030913960400191505060405180910390fd5b60408051828152905133917f1a689b1a62e3bb77f9c98d8759c04f341a67deb5cc63cf53be8324b691064950919081900360200190a25050565b6001600160a01b03166000908152600e602052604090206005015490565b600b5481565b600c5460ff1615611a5a5760405162461bcd60e51b81526004018080602001828103825260228152602001806127e16022913960400191505060405180910390fd5b600c805460ff19166001908117909155600080546001600160a01b03808f166001600160a01b03199283161783558354908e169116179091558851899190611a9e57fe5b602002602001015160028190555087600181518110611ab957fe5b60209081029190910101516003556004879055600586905560068590556007805462ffff00191661010061ffff878116919091029190911764ffff00000019166301000000918616919091021760ff191683151517905588518990600090611b1d57fe5b6020026020010151600760056101000a8154816001600160a01b0302191690836001600160a01b0316021790555088600181518110611b5857fe5b6020908102919091010151600880546001600160a01b0319166001600160a01b039092169190911760ff60a01b1916600160a01b60ff93909316929092029190911790555050600a805460ff191690555050600c805461ff0019169055505050505050565b6305f5e10081565b600d6020526000908152604090205460ff1681565b600a5460ff16151560011415611c25576040805162461bcd60e51b815260206004820152601a6024820152600080516020612746833981519152604482015290519081900360640190fd5b600a5460ff61010090910416151560011415611c76576040805162461bcd60e51b815260206004820152601a6024820152600080516020612871833981519152604482015290519081900360640190fd5b60075460ff1615156001141580611ca15750336000908152600d602052604090205460ff1615156001145b611cf2576040805162461bcd60e51b815260206004820152601a60248201527f536565643a2073656e64657220686173206e6f20726967687473000000000000604482015290519081900360640190fd5b600354600854604080516370a0823160e01b81523060048201529051611d7e9285926001600160a01b03909116916370a0823191602480820192602092909190829003018186803b158015611d4657600080fd5b505afa158015611d5a573d6000803e3d6000fd5b505050506040513d6020811015611d7057600080fd5b50519063ffffffff6122e316565b1115611dbb5760405162461bcd60e51b81526004018080602001828103825260268152602001806128276026913960400191505060405180910390fd5b600854604080516323b872dd60e01b81523360048201523060248201526044810184905290516001600160a01b03909216916323b872dd916064808201926020929091908290030181600087803b158015611e1557600080fd5b505af1158015611e29573d6000803e3d6000fd5b505050506040513d6020811015611e3f57600080fd5b5051611e84576040805162461bcd60e51b815260206004820152600f60248201526e536565643a206e6f20746f6b656e7360881b604482015290519081900360640190fd5b600254600854604080516370a0823160e01b815230600482015290516001600160a01b03909216916370a0823191602480820192602092909190829003018186803b158015611ed257600080fd5b505afa158015611ee6573d6000803e3d6000fd5b505050506040513d6020811015611efc57600080fd5b505110611f1357600c805461ff0019166101001790555b600854600090611f56906305f5e10090611f4a90600160a01b900460ff16611f3e86620f4240612346565b9063ffffffff61234616565b9063ffffffff61239f16565b336000818152600e602052604090206001015460045492935091611fac9190611fa590611f9890670de0b6b3a764000090611f4a90899063ffffffff61234616565b849063ffffffff6122e316565b85856123e1565b505050565b600854600160a01b900460ff1681565b600c54610100900460ff1681565b600080611fdb836121c0565b915091505b915091565b6001546001600160a01b03163314612032576040805162461bcd60e51b815260206004820152601c60248201526000805160206126e4833981519152604482015290519081900360640190fd5b600a5460ff1615156001141561207d576040805162461bcd60e51b815260206004820152601a6024820152600080516020612746833981519152604482015290519081900360640190fd5b600a5460ff610100909104161515600114156120ce576040805162461bcd60e51b815260206004820152601a6024820152600080516020612871833981519152604482015290519081900360640190fd5b60075460ff16151560011461212a576040805162461bcd60e51b815260206004820152601f60248201527f536565643a206d6f64756c65206973206e6f742077686974656c697374656400604482015290519081900360640190fd5b60005b8151811015610aca576001600d600084848151811061214857fe5b6020908102919091018101516001600160a01b03168252810191909152604001600020805460ff191691151591909117905560010161212d565b6007546301000000900461ffff1681565b6001600160a01b03166000908152600e602052604090206001015490565b6001546001600160a01b031681565b6001600160a01b0381166000908152600e60205260408120805482919082906121f7906121eb61253a565b9063ffffffff61253e16565b9050600061220e826201518063ffffffff61239f16565b6007549091506301000000900461ffff1681101561223457935060009250611fe0915050565b600754610100900461ffff16811061227d5760006122638460030154856001015461253e90919063ffffffff16565b600754610100900461ffff1696509450611fe09350505050565b600283015460009061229a90839061ffff1663ffffffff61253e16565b60075460018601549192506000916122ba91610100900461ffff1661239f565b905060006122d261ffff84168363ffffffff61234616565b929750919550611fe0945050505050565b60008282018381101561233d576040805162461bcd60e51b815260206004820152601b60248201527f536166654d6174683a206164646974696f6e206f766572666c6f770000000000604482015290519081900360640190fd5b90505b92915050565b60008261235557506000612340565b8282028284828161236257fe5b041461233d5760405162461bcd60e51b81526004018080602001828103825260218152602001806127966021913960400191505060405180910390fd5b600061233d83836040518060400160405280601a81526020017f536166654d6174683a206469766973696f6e206279207a65726f000000000000815250612580565b6007546000906123fb908590610100900461ffff1661239f565b905060008111612452576040805162461bcd60e51b815260206004820152601c60248201527f536565643a20616d6f756e74566573746564506572446179203e203000000000604482015290519081900360640190fd5b61245a61267c565b6040518060c0016040528061246d61253a565b8152602080820188905260006040808401829052606080850183905260808086018b905260a09586018a90526001600160a01b038d16808552600e865293839020875181558786015160018201558784015160028201805461ffff191661ffff90921691909117905591870151600383015586015160048201559385015160059094019390935582518981529251939450927f3354b37776bd3f8bee9715201d2e43766f360c5c634addb7f6ee8092bd190f7f9281900390910190a25050600b8054600101905550505050565b4290565b600061233d83836040518060400160405280601e81526020017f536166654d6174683a207375627472616374696f6e206f766572666c6f770000815250612622565b6000818361260c5760405162461bcd60e51b81526004018080602001828103825283818151815260200191508051906020019080838360005b838110156125d15781810151838201526020016125b9565b50505050905090810190601f1680156125fe5780820380516001836020036101000a031916815260200191505b509250505060405180910390fd5b50600083858161261857fe5b0495945050505050565b600081848411156126745760405162461bcd60e51b81526020600482018181528351602484015283519092839260449091019190850190808383600083156125d15781810151838201526020016125b9565b505050900390565b6040518060c001604052806000815260200160008152602001600061ffff168152602001600081526020016000815260200160008152509056fe536565643a2073686f756c64207472616e736665722066756e64696e6720746f6b656e7320746f2061646d696e536565643a2063616c6c65722073686f756c642062652061646d696e00000000536565643a20636f6e74726163742073686f756c64206e6f7420626520696e697469616c697a6564206f722063616c6c65722073686f756c642062652061646d696e536565643a2073686f756c64206e6f7420626520636c6f736564000000000000536565643a2063616e6e6f742072657475726e2066756e64696e6720746f6b656e7320746f206d73672e73656e646572536166654d6174683a206d756c7469706c69636174696f6e206f766572666c6f77536565643a2073686f756c64207472616e73666572207365656420746f6b656e7320746f2061646d696e536565643a20636f6e747261637420616c726561647920696e697469616c697a6564536565643a206d696e696d756d2066756e64696e6720616d6f756e74206e6f74206d6574536565643a20616d6f756e74206578636565647320636f6e74726163742073616c6520636170536565643a2063616e6e6f74207472616e7366657220746f2062656e6566696369617279536565643a2073686f756c64206e6f7420626520706175736564000000000000a265627a7a72315820a5d6517c66a4f7f4e1cbc94a34989ac0f10f1a094b2307baafb4d9caac73f7d764736f6c634300050d0032",
  "source": "/*\n\n\n\n\n\n\n\n\n*/\n\n// SPDX-License-Identifier: GPL-3.0-or-later\n/* solhint-disable space-after-comma */\n/* solhint-disable max-states-count */\npragma solidity 0.5.13;\n\nimport \"openzeppelin-solidity/contracts/token/ERC20/IERC20.sol\";\nimport \"openzeppelin-solidity/contracts/math/SafeMath.sol\";\n\n\n/**\n * @title primebeneSeed contract\n * @dev   Smart contract for seed phases of liquid launch.\n */\ncontract Seed {\n    using SafeMath for uint256;\n    using SafeMath for uint16;\n    using SafeMath for uint8;\n\n    // Locked parameters\n    address public beneficiary;\n    address public admin;\n    uint    public successMinimum;\n    uint    public cap;\n    uint    public price;\n    uint    public startTime;\n    uint    public endTime;\n    bool    public isWhitelisted;\n    uint16  public vestingDuration;\n    uint16  public vestingCliff;\n    IERC20  public seedToken;\n    IERC20  public fundingToken;\n    uint8   public fee;\n\n    bytes32 public metadata;\n\n    uint256 constant internal PCT_BASE        = 10 ** 18;  // // 0% = 0; 1% = 10 ** 16; 100% = 10 ** 18\n    uint32  public constant PPM               = 1000000;   // parts per million\n    uint256 public constant PPM100            = 100000000; // ppm * 100\n    uint256 constant internal SECONDS_PER_DAY = 86400;\n\n    // Contract logic\n    bool      public closed;\n    bool      public paused;\n    uint256   public totalLockCount;\n    bool      public initialized;\n    bool      public minimumReached;\n\n    mapping (address => bool)    public whitelisted;\n    mapping (address => Lock)    public tokenLocks; // locker to lock\n\n    event LockAdded(address indexed recipient, uint256 locked);\n    event TokensClaimed(address indexed recipient, uint256 amountVested);\n    event FundingReclaimed(address indexed recipient, uint256 amountReclaimed);\n    event MetadataUpdated(bytes32 indexed metadata);\n\n    modifier initializer() {\n        require(!initialized, \"Seed: contract already initialized\");\n        initialized = true;\n        _;\n    }\n\n    modifier onlyAdmin() {\n        require(msg.sender == admin, \"Seed: caller should be admin\");\n        _;\n    }\n\n    modifier protected() {\n        require(closed != true, \"Seed: should not be closed\");\n        require(paused != true, \"Seed: should not be paused\");\n        _;\n    }\n\n    modifier checked() {\n        require(isWhitelisted != true || whitelisted[msg.sender] == true, \"Seed: sender has no rights\");\n        _;\n    }\n\n    modifier checkMinimumReached() {\n        require(minimumReached == true, \"Seed: minimum funding amount not met\");\n        _;\n    }\n\n    modifier beforeMinimumReached() {\n        require(minimumReached == false, \"Seed: minimum already met\");\n        _;\n    }\n\n    struct Lock {\n        uint256 startTime;\n        uint256 amount;\n        uint16  daysClaimed;\n        uint256 totalClaimed;\n        uint256 fundingAmount;\n        uint256 fee;\n    }\n\n    /**\n      * @dev                          Initialize Seed.\n      * @param _admin                 The address of the admin of this contract. Funds contract\n                                      and has permissions to whitelist users, pause and close contract.\n      * @param _tokens                Array containing two params:\n                                        - The address of the token being distributed.\n      *                                 - The address of the token being exchanged for seed token.\n      * @param _successMinimumAndCap  Array containing two params:\n                                        - the minimum distribution threshold\n                                        - the highest possible amount to be raised in wei.\n      * @param _price                 The price in wei of fundingTokens when exchanged for seedTokens.\n      * @param _startTime             Distribution start time in unix timecode.\n      * @param _endTime               Distribution end time in unix timecode.\n      * @param _vestingDuration       Vesting period duration in days.\n      * @param _vestingCliff          Cliff duration in days.\n      * @param _isWhitelisted         Set to true if only whitelisted adresses are allowed to participate.\n      * @param _fee                   Success fee expressed in Wei as a % (e.g. 2 = 2% fee)\n    */\n    function initialize(\n        address _beneficiary,\n        address _admin,\n        address[] memory _tokens,\n        uint[] memory    _successMinimumAndCap,\n        uint    _price,\n        uint    _startTime,\n        uint    _endTime,\n        uint16  _vestingDuration,\n        uint16  _vestingCliff,\n        bool    _isWhitelisted,\n        uint8   _fee\n    ) public initializer {\n        beneficiary     = _beneficiary;\n        admin           = _admin;\n        successMinimum  = _successMinimumAndCap[0];\n        cap             = _successMinimumAndCap[1];\n        price           = _price;\n        startTime       = _startTime;\n        endTime         = _endTime;\n        vestingDuration = _vestingDuration;\n        vestingCliff    = _vestingCliff;\n        isWhitelisted   = _isWhitelisted;\n        seedToken       = IERC20(_tokens[0]);\n        fundingToken    = IERC20(_tokens[1]);\n        fee             = _fee;\n        closed          = false;\n        minimumReached  = false;\n    }\n\n    /**\n      * @dev                     Buy seed tokens.\n      * @param _amount           The amount of tokens to buy.\n    */\n    function buy(uint256 _amount) public protected checked {\n        require((fundingToken.balanceOf(address(this)).add(_amount)) <= cap, \"Seed: amount exceeds contract sale cap\");\n        require(fundingToken.transferFrom(msg.sender, address(this), _amount), \"Seed: no tokens\");\n\n        if (fundingToken.balanceOf(address(this)) >= successMinimum) {\n            minimumReached = true;\n        }\n\n        uint feeAmount = (_amount.mul(uint(PPM))).mul(fee).div(PPM100);\n\n        uint _lockTokens = tokenLocks[msg.sender].amount;\n        _addLock(msg.sender, (_lockTokens.add((_amount).mul(price).div(PCT_BASE))), _amount, feeAmount);\n    }\n\n    /**\n      * @dev                     Claim locked tokens.\n      * @param _locker           The address of the locker.\n    */\n    function claimLock(address _locker) public checkMinimumReached {\n        uint16 daysVested;\n        uint256 amountVested;\n        (daysVested, amountVested) = _calculateClaim(_locker);\n        require(amountVested > 0, \"Seed: amountVested is 0\");\n\n        Lock storage tokenLock = tokenLocks[_locker];\n        tokenLock.daysClaimed = uint16(tokenLock.daysClaimed.add(daysVested));\n        tokenLock.totalClaimed = uint256(tokenLock.totalClaimed.add(amountVested));\n\n        require(seedToken.transfer(beneficiary, tokenLock.fee), \"Seed: cannot transfer to beneficiary\");\n        require(seedToken.transfer(_locker, amountVested), \"Seed: no tokens\");\n        emit TokensClaimed(_locker, amountVested);\n    }\n\n    /**\n      * @dev         Returns funding tokens to user.\n    */\n    function buyBack() public protected checked beforeMinimumReached {\n        Lock storage tokenLock = tokenLocks[msg.sender];\n        uint amount = tokenLock.fundingAmount;\n        tokenLock.amount = 0;\n        tokenLock.fee = 0;\n        tokenLock.fundingAmount = 0;\n        require(\n            fundingToken.transfer(msg.sender, amount),\n            \"Seed: cannot return funding tokens to msg.sender\"\n        );\n        emit FundingReclaimed(msg.sender, amount);\n    }\n\n    // ADMIN ACTIONS\n\n    /**\n      * @dev                     Pause distribution.\n    */\n    function pause() public onlyAdmin protected {\n        paused = true;\n    }\n\n    /**\n      * @dev                     Unpause distribution.\n    */\n    function unpause() public onlyAdmin {\n        require(closed != true, \"Seed: should not be closed\");\n        require(paused == true, \"Seed: should be paused\");\n\n        paused = false;\n    }\n\n    /**\n      * @dev                     Close distribution.\n    */\n    function close() public onlyAdmin protected {\n        // transfer all the tokens back to admin\n        require(\n            fundingToken.transfer(admin, fundingToken.balanceOf(address(this))),\n            \"Seed: should transfer funding tokens to admin\"\n        );\n        require(\n            seedToken.transfer(admin, seedToken.balanceOf(address(this))),\n            \"Seed: should transfer seed tokens to admin\"\n        );\n\n        closed = true;\n    }\n\n    /**\n      * @dev                     Add address to whitelist.\n    */\n    function whitelist(address _buyer) public onlyAdmin protected {\n        require(isWhitelisted == true, \"Seed: module is not whitelisted\");\n\n        whitelisted[_buyer] = true;\n    }\n\n    /**\n      * @dev                     Add multiple addresses to whitelist.\n    */\n    function whitelistBatch(address[] memory _buyers) public onlyAdmin protected {\n        require(isWhitelisted == true, \"Seed: module is not whitelisted\");\n        for (uint i=0; i < _buyers.length; i++) {\n            whitelisted[_buyers[i]] = true;\n        }\n    }\n\n    /**\n      * @dev                     Remove address from whitelist.\n    */\n    function unwhitelist(address buyer) public onlyAdmin protected {\n        require(isWhitelisted == true, \"Seed: module is not whitelisted\");\n\n        whitelisted[buyer] = false;\n    }\n\n    /**\n      * @dev                     Withdraw funds from the contract\n    */\n    function withdraw() public onlyAdmin checkMinimumReached protected {\n        fundingToken.transfer(msg.sender, fundingToken.balanceOf(address(this)));\n    }\n\n    /**\n      * @dev                     Updates metadata.\n    */\n    function updateMetadata(bytes32 _metadata) public {\n        require(\n            initialized != true || msg.sender == admin,\n            \"Seed: contract should not be initialized or caller should be admin\"\n        );\n        metadata = _metadata;\n        emit MetadataUpdated(_metadata);\n    }\n\n    // GETTER FUNCTIONS\n    function calculateClaim(address _locker) public view returns(uint16, uint256) {\n        return _calculateClaim(_locker);\n    }\n\n    function checkWhitelisted(address _buyer) public view returns(bool) {\n        return whitelisted[_buyer];\n    }\n\n    function getStartTime(address _locker) public view returns(uint256) {\n        return tokenLocks[_locker].startTime;\n    }\n\n    function getAmount(address _locker) public view returns(uint256) {\n        return tokenLocks[_locker].amount;\n    }\n\n    function getDaysClaimed(address _locker) public view returns(uint16) {\n        return tokenLocks[_locker].daysClaimed;\n    }\n\n    function getTotalClaimed(address _locker) public view returns(uint256) {\n        return tokenLocks[_locker].totalClaimed;\n    }\n\n    function getFee(address _locker) public view returns(uint256) {\n        return tokenLocks[_locker].fee;\n    }\n\n    // INTERNAL FUNCTIONS\n    function _currentTime() internal view returns(uint256) {\n        return block.timestamp;\n    }\n\n    function _addLock(\n        address _recipient,\n        uint256 _amount,\n        uint256 _fundingAmount,\n        uint256 _fee\n    )\n    internal\n    {\n\n        uint256 amountVestedPerDay = _amount.div(vestingDuration);\n        require(amountVestedPerDay > 0, \"Seed: amountVestedPerDay > 0\");\n\n        Lock memory lock = Lock({\n            startTime: _currentTime(),\n            amount: _amount,\n            daysClaimed: 0,\n            totalClaimed: 0,\n            fundingAmount: _fundingAmount,\n            fee: _fee\n            });\n        tokenLocks[_recipient] = lock;\n        emit LockAdded(_recipient, _amount);\n        totalLockCount++;\n    }\n\n    function _calculateClaim(address _locker) private view returns (uint16, uint256) {\n        Lock storage tokenLock = tokenLocks[_locker];\n\n        // Check cliff was reached\n        uint elapsedTime = _currentTime().sub(tokenLock.startTime);\n        uint elapsedDays = elapsedTime.div(SECONDS_PER_DAY);\n\n        if (elapsedDays < vestingCliff) {\n            return (uint16(elapsedDays), 0);\n        }\n\n        // If over vesting duration, all tokens vested\n        if (elapsedDays >= vestingDuration) {\n            uint256 remainingGrant = tokenLock.amount.sub(tokenLock.totalClaimed);\n            return (vestingDuration, remainingGrant);\n        } else {\n            uint16 daysVested = uint16(elapsedDays.sub(tokenLock.daysClaimed));\n            uint256 amountVestedPerDay = tokenLock.amount.div(uint256(vestingDuration));\n            uint256 amountVested = uint256(daysVested.mul(amountVestedPerDay));\n            return (daysVested, amountVested);\n        }\n    }\n}\n",
  "sourcePath": "/home/konst/Documents/job/contracts/contracts/seed/Seed.sol",
  "compiler": {
    "name": "solc",
    "version": "0.5.13+commit.5b0b510c.Emscripten.clang"
  },
  "schemaVersion": "3.2.4",
  "updatedAt": "2021-04-29T16:22:59.730Z",
  "devdoc": {
    "details": "Smart contract for seed phases of liquid launch.",
    "methods": {
      "buy(uint256)": {
        "details": "Buy seed tokens.",
        "params": {
          "_amount": "The amount of tokens to buy."
        }
      },
      "buyBack()": {
        "details": "Returns funding tokens to user."
      },
      "claimLock(address)": {
        "details": "Claim locked tokens.",
        "params": {
          "_locker": "The address of the locker."
        }
      },
      "close()": {
        "details": "Close distribution."
      },
      "initialize(address,address,address[],uint256[],uint256,uint256,uint256,uint16,uint16,bool,uint8)": {
        "details": "Initialize Seed.",
        "params": {
          "_admin": "The address of the admin of this contract. Funds contract and has permissions to whitelist users, pause and close contract.",
          "_endTime": "Distribution end time in unix timecode.",
          "_fee": "Success fee expressed in Wei as a % (e.g. 2 = 2% fee)",
          "_isWhitelisted": "Set to true if only whitelisted adresses are allowed to participate.",
          "_price": "The price in wei of fundingTokens when exchanged for seedTokens.",
          "_startTime": "Distribution start time in unix timecode.",
          "_successMinimumAndCap": "Array containing two params: - the minimum distribution threshold - the highest possible amount to be raised in wei.",
          "_tokens": "Array containing two params: - The address of the token being distributed.                                - The address of the token being exchanged for seed token.",
          "_vestingCliff": "Cliff duration in days.",
          "_vestingDuration": "Vesting period duration in days."
        }
      },
      "pause()": {
        "details": "Pause distribution."
      },
      "unpause()": {
        "details": "Unpause distribution."
      },
      "unwhitelist(address)": {
        "details": "Remove address from whitelist."
      },
      "updateMetadata(bytes32)": {
        "details": "Updates metadata."
      },
      "whitelist(address)": {
        "details": "Add address to whitelist."
      },
      "whitelistBatch(address[])": {
        "details": "Add multiple addresses to whitelist."
      },
      "withdraw()": {
        "details": "Withdraw funds from the contract"
      }
    },
    "title": "primebeneSeed contract"
  },
  "userdoc": {
    "methods": {}
  }
}