{
  "contractName": "SeedFactory",
  "abi": [
    {
      "anonymous": false,
      "inputs": [
        {
          "indexed": true,
          "internalType": "address",
          "name": "newSeed",
          "type": "address"
        },
        {
          "indexed": true,
          "internalType": "address",
          "name": "beneficiary",
          "type": "address"
        }
      ],
      "name": "SeedCreated",
      "type": "event"
    },
    {
      "constant": true,
      "inputs": [],
      "name": "avatar",
      "outputs": [
        {
          "internalType": "contract Avatar",
          "name": "",
          "type": "address"
        }
      ],
      "payable": false,
      "stateMutability": "view",
      "type": "function"
    },
    {
      "constant": true,
      "inputs": [],
      "name": "initialized",
      "outputs": [
        {
          "internalType": "bool",
          "name": "",
          "type": "bool"
        }
      ],
      "payable": false,
      "stateMutability": "view",
      "type": "function"
    },
    {
      "constant": true,
      "inputs": [],
      "name": "parent",
      "outputs": [
        {
          "internalType": "contract Seed",
          "name": "",
          "type": "address"
        }
      ],
      "payable": false,
      "stateMutability": "view",
      "type": "function"
    },
    {
      "constant": false,
      "inputs": [
        {
          "internalType": "contract Avatar",
          "name": "_avatar",
          "type": "address"
        },
        {
          "internalType": "contract Seed",
          "name": "_parent",
          "type": "address"
        }
      ],
      "name": "initialize",
      "outputs": [],
      "payable": false,
      "stateMutability": "nonpayable",
      "type": "function"
    },
    {
      "constant": false,
      "inputs": [
        {
          "internalType": "contract Seed",
          "name": "newParent",
          "type": "address"
        }
      ],
      "name": "changeParent",
      "outputs": [],
      "payable": false,
      "stateMutability": "nonpayable",
      "type": "function"
    },
    {
      "constant": false,
      "inputs": [
        {
          "internalType": "contract Avatar",
          "name": "_newAvatar",
          "type": "address"
        }
      ],
      "name": "changeAvatar",
      "outputs": [],
      "payable": false,
      "stateMutability": "nonpayable",
      "type": "function"
    },
    {
      "constant": false,
      "inputs": [
        {
          "internalType": "address",
          "name": "_admin",
          "type": "address"
        },
        {
          "internalType": "address",
          "name": "_seedToken",
          "type": "address"
        },
        {
          "internalType": "address",
          "name": "_fundingToken",
          "type": "address"
        },
        {
          "internalType": "uint256[]",
          "name": "_successMinimumAndCap",
          "type": "uint256[]"
        },
        {
          "internalType": "uint256",
          "name": "_price",
          "type": "uint256"
        },
        {
          "internalType": "uint256",
          "name": "_startTime",
          "type": "uint256"
        },
        {
          "internalType": "uint256",
          "name": "_endTime",
          "type": "uint256"
        },
        {
          "internalType": "uint16",
          "name": "_vestingDuration",
          "type": "uint16"
        },
        {
          "internalType": "uint16",
          "name": "_vestingCliff",
          "type": "uint16"
        },
        {
          "internalType": "bool",
          "name": "_isWhitelisted",
          "type": "bool"
        },
        {
          "internalType": "uint8",
          "name": "_fee",
          "type": "uint8"
        }
      ],
      "name": "deploySeed",
      "outputs": [
        {
          "internalType": "address",
          "name": "",
          "type": "address"
        }
      ],
      "payable": false,
      "stateMutability": "nonpayable",
      "type": "function"
    }
  ],
  "bytecode": "0x608060405234801561001057600080fd5b506109a6806100206000396000f3fe608060405234801561001057600080fd5b506004361061007d5760003560e01c806360f96a8f1161005b57806360f96a8f146100f25780638425dd58146100fa5780639b08e8fc146101f0578063dfde5dcb146102165761007d565b8063158ef93e14610082578063485cc9551461009e5780635aef7de6146100ce575b600080fd5b61008a61023c565b604080519115158252519081900360200190f35b6100cc600480360360408110156100b457600080fd5b506001600160a01b038135811691602001351661024c565b005b6100d6610360565b604080516001600160a01b039092168252519081900360200190f35b6100d661036f565b6100d6600480360361016081101561011157600080fd5b6001600160a01b038235811692602081013582169260408201359092169181019060808101606082013564010000000081111561014d57600080fd5b82018360208201111561015f57600080fd5b8035906020019184602083028401116401000000008311171561018157600080fd5b91908080602002602001604051908101604052809392919081815260200183836020028082843760009201919091525092955050823593505050602081013590604081013590606081013561ffff9081169160808101359091169060a081013515159060c0013560ff1661037e565b6100cc6004803603602081101561020657600080fd5b50356001600160a01b03166106d3565b6100cc6004803603602081101561022c57600080fd5b50356001600160a01b031661079c565b600154600160a01b900460ff1681565b600154600160a01b900460ff16156102955760405162461bcd60e51b81526004018080602001828103825260298152602001806109496029913960400191505060405180910390fd5b6001805460ff60a01b1916600160a01b1790556001600160a01b0382166102ed5760405162461bcd60e51b81526004018080602001828103825260228152602001806109056022913960400191505060405180910390fd5b6001600160a01b0381166103325760405162461bcd60e51b81526004018080602001828103825260228152602001806109276022913960400191505060405180910390fd5b600080546001600160a01b039384166001600160a01b03199182161790915560018054929093169116179055565b6000546001600160a01b031681565b6001546001600160a01b031681565b600154600090600160a01b900460ff166103c95760405162461bcd60e51b81526004018080602001828103825260258152602001806108b86025913960400191505060405180910390fd5b6000546001600160a01b03163314610428576040805162461bcd60e51b815260206004820181905260248201527f53656564466163746f72793a2070726f746563746564206f7065726174696f6e604482015290519081900360640190fd5b600154600090610440906001600160a01b0316610865565b9050806001600160a01b03166349780afd338f8f8f8f8f8f8f8f8f8f8f6040518d63ffffffff1660e01b8152600401808d6001600160a01b03166001600160a01b031681526020018c6001600160a01b03166001600160a01b031681526020018b6001600160a01b03166001600160a01b031681526020018a6001600160a01b03166001600160a01b03168152602001806020018981526020018881526020018781526020018661ffff1661ffff1681526020018561ffff1661ffff168152602001841515151581526020018360ff1660ff16815260200182810382528a818151815260200191508051906020019060200280838360005b83811015610550578181015183820152602001610538565b505050509050019d5050505050505050505050505050600060405180830381600087803b15801561058057600080fd5b505af1158015610594573d6000803e3d6000fd5b505050508b6001600160a01b03166323b872dd8e838d6001815181106105b657fe5b60200260200101516040518463ffffffff1660e01b815260040180846001600160a01b03166001600160a01b03168152602001836001600160a01b03166001600160a01b031681526020018281526020019350505050602060405180830381600087803b15801561062657600080fd5b505af115801561063a573d6000803e3d6000fd5b505050506040513d602081101561065057600080fd5b505161068d5760405162461bcd60e51b81526004018080602001828103825260288152602001806108dd6028913960400191505060405180910390fd5b60405133906001600160a01b038316907f23fea745ec0ebbc17cc138cc8d1baca7bde3ce83b1fd6d5e1de583961586363990600090a39c9b505050505050505050505050565b600154600160a01b900460ff1661071b5760405162461bcd60e51b81526004018080602001828103825260258152602001806108b86025913960400191505060405180910390fd5b6000546001600160a01b0316331461077a576040805162461bcd60e51b815260206004820181905260248201527f53656564466163746f72793a2070726f746563746564206f7065726174696f6e604482015290519081900360640190fd5b600180546001600160a01b0319166001600160a01b0392909216919091179055565b600154600160a01b900460ff166107e45760405162461bcd60e51b81526004018080602001828103825260258152602001806108b86025913960400191505060405180910390fd5b6000546001600160a01b03163314610843576040805162461bcd60e51b815260206004820181905260248201527f53656564466163746f72793a2070726f746563746564206f7065726174696f6e604482015290519081900360640190fd5b600080546001600160a01b0319166001600160a01b0392909216919091179055565b6000808260601b9050604051733d602d80600a3d3981f3363d3d373d3d3d363d7360601b81528160148201526e5af43d82803e903d91602b57fd5bf360881b60288201526037816000f094935050505056fe53656564466163746f72793a20636f6e7472616374206e6f7420696e697469616c697a656453656564466163746f72793a2063616e6e6f74207472616e73666572207365656420746f6b656e7353656564466163746f72793a206176617461722063616e6e6f74206265206e756c6c53656564466163746f72793a20706172656e742063616e6e6f74206265206e756c6c53656564466163746f72793a20636f6e747261637420616c726561647920696e697469616c697a6564a265627a7a72315820d8db7676db02eafd55ca60332ab5d7e3895eaa5d22c84c27dadc09f59117951364736f6c634300050d0032",
  "source": "/*\n\n██████╗░██████╗░██╗███╗░░░███╗███████╗██████╗░░█████╗░░█████╗░\n██╔══██╗██╔══██╗██║████╗░████║██╔════╝██╔══██╗██╔══██╗██╔══██╗\n██████╔╝██████╔╝██║██╔████╔██║█████╗░░██║░░██║███████║██║░░██║\n██╔═══╝░██╔══██╗██║██║╚██╔╝██║██╔══╝░░██║░░██║██╔══██║██║░░██║\n██║░░░░░██║░░██║██║██║░╚═╝░██║███████╗██████╔╝██║░░██║╚█████╔╝\n╚═╝░░░░░╚═╝░░╚═╝╚═╝╚═╝░░░░░╚═╝╚══════╝╚═════╝░╚═╝░░╚═╝░╚════╝░\n\n*/\n\n// SPDX-License-Identifier: GPL-3.0-or-later\n/* solhint-disable space-after-comma */\npragma solidity 0.5.13;\n\nimport \"@daostack/arc/contracts/controller/Avatar.sol\";\nimport \"@daostack/arc/contracts/controller/Controller.sol\";\nimport \"openzeppelin-solidity/contracts/token/ERC20/IERC20.sol\";\nimport \"./Seed.sol\";\nimport \"../utils/CloneFactory.sol\";\n\n\n/**\n * @title primeDAO Seed Factory\n * @dev   Enable primeDAO governance to create new Seed contracts.\n */\ncontract SeedFactory is CloneFactory {\n\n    Avatar    public avatar;\n    Seed      public parent;\n    bool      public initialized;\n\n    event SeedCreated(address indexed newSeed, address indexed beneficiary);\n\n    modifier initializer() {\n        require(!initialized, \"SeedFactory: contract already initialized\");\n        initialized = true;\n        _;\n    }\n\n    modifier protected() {\n        require(initialized,                    \"SeedFactory: contract not initialized\");\n        require(msg.sender == address(avatar),\t\"SeedFactory: protected operation\");\n        _;\n    }\n\n    /**\n      * @dev           Initialize proxy.\n      * @param _avatar The address of the Avatar controlling this contract.\n      * @param _parent The address of the Seed contract which will be a parent for all of the clones.\n      */\n    function initialize(Avatar _avatar, Seed _parent) external initializer {\n        require(_avatar != Avatar(0), \"SeedFactory: avatar cannot be null\");\n        require(_parent != Seed(0),   \"SeedFactory: parent cannot be null\");\n        avatar = _avatar;\n        parent = _parent;\n    }\n\n    /**\n    * @dev             Update Seed contract which works as a base for clones.\n    * @param newParent The address of the new Seed basis.\n    */\n    function changeParent(Seed newParent) public protected {\n        parent = newParent;\n    }\n\n    /**\n    * @dev             Update Avatar.\n    * @param _newAvatar The address of the new Avatar.\n    */\n    function changeAvatar(Avatar _newAvatar) public protected {\n        avatar = _newAvatar;\n    }\n\n    function deploySeed(\n        address       _admin,\n        address       _seedToken,\n        address       _fundingToken,\n        uint[] memory _successMinimumAndCap,\n        uint  \t      _price,\n        uint \t        _startTime,\n        uint \t        _endTime,\n        uint16 \t      _vestingDuration,\n        uint16 \t      _vestingCliff,\n        bool \t        _isWhitelisted,\n        uint8         _fee\n    )\n    public\n    protected\n    returns(address)\n    {\n        // deploy clone\n        address _newSeed = createClone(address(parent));\n\n        // initialize\n        Seed(_newSeed).initialize(\n            msg.sender,\n            _admin,\n            _seedToken,\n            _fundingToken,\n            _successMinimumAndCap,\n            _price,\n            _startTime,\n            _endTime,\n            _vestingDuration,\n            _vestingCliff,\n            _isWhitelisted,\n            _fee\n        );\n\n        // fund\n        require(\n            IERC20(_seedToken).transferFrom(_admin, address(_newSeed), _successMinimumAndCap[1]),\n            \"SeedFactory: cannot transfer seed tokens\"\n        );\n\n        emit SeedCreated(address(_newSeed), msg.sender);\n\n        return address(_newSeed);\n    }\n}\n",
  "sourcePath": "/home/mx/Dev/curve/prime_dao/prime_contracts/contracts/contracts/seed/SeedFactory.sol",
  "compiler": {
    "name": "solc",
    "version": "0.5.13+commit.5b0b510c.Emscripten.clang"
  },
  "schemaVersion": "3.2.4",
  "updatedAt": "2021-04-06T12:36:29.833Z",
  "networkType": "ethereum",
  "devdoc": {
    "details": "Enable primeDAO governance to create new Seed contracts.",
    "methods": {
      "changeAvatar(address)": {
        "details": "Update Avatar.",
        "params": {
          "_newAvatar": "The address of the new Avatar."
        }
      },
      "changeParent(address)": {
        "details": "Update Seed contract which works as a base for clones.",
        "params": {
          "newParent": "The address of the new Seed basis."
        }
      },
      "initialize(address,address)": {
        "details": "Initialize proxy.",
        "params": {
          "_avatar": "The address of the Avatar controlling this contract.",
          "_parent": "The address of the Seed contract which will be a parent for all of the clones."
        }
      }
    },
    "title": "primeDAO Seed Factory"
  },
  "userdoc": {
    "methods": {}
  }
}