{
  "contractName": "SeedFactory",
  "abi": [
    {
      "anonymous": false,
      "inputs": [
        {
          "indexed": true,
          "internalType": "address",
          "name": "newSeed",
          "type": "address"
        },
        {
          "indexed": true,
          "internalType": "address",
          "name": "beneficiary",
          "type": "address"
        },
        {
          "indexed": false,
          "internalType": "bytes32",
          "name": "metadata",
          "type": "bytes32"
        }
      ],
      "name": "SeedCreated",
      "type": "event"
    },
    {
      "constant": true,
      "inputs": [],
      "name": "avatar",
      "outputs": [
        {
          "internalType": "contract Avatar",
          "name": "",
          "type": "address"
        }
      ],
      "payable": false,
      "stateMutability": "view",
      "type": "function"
    },
    {
      "constant": true,
      "inputs": [],
      "name": "initialized",
      "outputs": [
        {
          "internalType": "bool",
          "name": "",
          "type": "bool"
        }
      ],
      "payable": false,
      "stateMutability": "view",
      "type": "function"
    },
    {
      "constant": true,
      "inputs": [],
      "name": "parent",
      "outputs": [
        {
          "internalType": "contract Seed",
          "name": "",
          "type": "address"
        }
      ],
      "payable": false,
      "stateMutability": "view",
      "type": "function"
    },
    {
      "constant": false,
      "inputs": [
        {
          "internalType": "contract Avatar",
          "name": "_avatar",
          "type": "address"
        },
        {
          "internalType": "contract Seed",
          "name": "_parent",
          "type": "address"
        }
      ],
      "name": "initialize",
      "outputs": [],
      "payable": false,
      "stateMutability": "nonpayable",
      "type": "function"
    },
    {
      "constant": false,
      "inputs": [
        {
          "internalType": "contract Seed",
          "name": "newParent",
          "type": "address"
        }
      ],
      "name": "changeParent",
      "outputs": [],
      "payable": false,
      "stateMutability": "nonpayable",
      "type": "function"
    },
    {
      "constant": false,
      "inputs": [
        {
          "internalType": "contract Avatar",
          "name": "_newAvatar",
          "type": "address"
        }
      ],
      "name": "changeAvatar",
      "outputs": [],
      "payable": false,
      "stateMutability": "nonpayable",
      "type": "function"
    },
    {
      "constant": false,
      "inputs": [
        {
          "internalType": "address",
          "name": "_admin",
          "type": "address"
        },
        {
          "internalType": "address[]",
          "name": "_tokens",
          "type": "address[]"
        },
        {
          "internalType": "uint256[]",
          "name": "_successMinimumAndCap",
          "type": "uint256[]"
        },
        {
          "internalType": "uint256",
          "name": "_price",
          "type": "uint256"
        },
        {
          "internalType": "uint256",
          "name": "_startTime",
          "type": "uint256"
        },
        {
          "internalType": "uint256",
          "name": "_endTime",
          "type": "uint256"
        },
        {
          "internalType": "uint16",
          "name": "_vestingDuration",
          "type": "uint16"
        },
        {
          "internalType": "uint16",
          "name": "_vestingCliff",
          "type": "uint16"
        },
        {
          "internalType": "bool",
          "name": "_isWhitelisted",
          "type": "bool"
        },
        {
          "internalType": "uint8",
          "name": "_fee",
          "type": "uint8"
        },
        {
          "internalType": "bytes32",
          "name": "_metadata",
          "type": "bytes32"
        }
      ],
      "name": "deploySeed",
      "outputs": [
        {
          "internalType": "address",
          "name": "",
          "type": "address"
        }
      ],
      "payable": false,
      "stateMutability": "nonpayable",
      "type": "function"
    }
  ],
  "bytecode": "0x608060405234801561001057600080fd5b50610aac806100206000396000f3fe608060405234801561001057600080fd5b506004361061007d5760003560e01c806360f96a8f1161005b57806360f96a8f146100f25780639b08e8fc146100fa5780639f9d2e8914610120578063dfde5dcb1461028e5761007d565b8063158ef93e14610082578063485cc9551461009e5780635aef7de6146100ce575b600080fd5b61008a6102b4565b604080519115158252519081900360200190f35b6100cc600480360360408110156100b457600080fd5b506001600160a01b03813581169160200135166102c4565b005b6100d66103d8565b604080516001600160a01b039092168252519081900360200190f35b6100d66103e7565b6100cc6004803603602081101561011057600080fd5b50356001600160a01b03166103f6565b6100d6600480360361016081101561013757600080fd5b6001600160a01b03823516919081019060408101602082013564010000000081111561016257600080fd5b82018360208201111561017457600080fd5b8035906020019184602083028401116401000000008311171561019657600080fd5b91908080602002602001604051908101604052809392919081815260200183836020028082843760009201919091525092959493602081019350359150506401000000008111156101e657600080fd5b8201836020820111156101f857600080fd5b8035906020019184602083028401116401000000008311171561021a57600080fd5b9190808060200260200160405190810160405280939291908181526020018383602002808284376000920191909152509295505082359350505060208101359060408101359061ffff606082013581169160808101359091169060a081013515159060ff60c0820135169060e001356104bf565b6100cc600480360360208110156102a457600080fd5b50356001600160a01b03166108a2565b600154600160a01b900460ff1681565b600154600160a01b900460ff161561030d5760405162461bcd60e51b8152600401808060200182810382526029815260200180610a4f6029913960400191505060405180910390fd5b6001805460ff60a01b1916600160a01b1790556001600160a01b0382166103655760405162461bcd60e51b8152600401808060200182810382526022815260200180610a0b6022913960400191505060405180910390fd5b6001600160a01b0381166103aa5760405162461bcd60e51b8152600401808060200182810382526022815260200180610a2d6022913960400191505060405180910390fd5b600080546001600160a01b039384166001600160a01b03199182161790915560018054929093169116179055565b6000546001600160a01b031681565b6001546001600160a01b031681565b600154600160a01b900460ff1661043e5760405162461bcd60e51b81526004018080602001828103825260258152602001806109be6025913960400191505060405180910390fd5b6000546001600160a01b0316331461049d576040805162461bcd60e51b815260206004820181905260248201527f53656564466163746f72793a2070726f746563746564206f7065726174696f6e604482015290519081900360640190fd5b600180546001600160a01b0319166001600160a01b0392909216919091179055565b600154600090600160a01b900460ff1661050a5760405162461bcd60e51b81526004018080602001828103825260258152602001806109be6025913960400191505060405180910390fd5b6000546001600160a01b03163314610569576040805162461bcd60e51b815260206004820181905260248201527f53656564466163746f72793a2070726f746563746564206f7065726174696f6e604482015290519081900360640190fd5b600154600090610581906001600160a01b031661096b565b9050806001600160a01b031663c6431752338f8f8f8f8f8f8f8f8f8f6040518c63ffffffff1660e01b8152600401808c6001600160a01b03166001600160a01b031681526020018b6001600160a01b03166001600160a01b0316815260200180602001806020018a81526020018981526020018881526020018761ffff1661ffff1681526020018661ffff1661ffff168152602001851515151581526020018460ff1660ff16815260200183810383528c818151815260200191508051906020019060200280838360005b8381101561066457818101518382015260200161064c565b5050505090500183810382528b818151815260200191508051906020019060200280838360005b838110156106a357818101518382015260200161068b565b505050509050019d5050505050505050505050505050600060405180830381600087803b1580156106d357600080fd5b505af11580156106e7573d6000803e3d6000fd5b50505050806001600160a01b0316634f2d7778846040518263ffffffff1660e01b815260040180828152602001915050600060405180830381600087803b15801561073157600080fd5b505af1158015610745573d6000803e3d6000fd5b505050508b60008151811061075657fe5b60200260200101516001600160a01b03166323b872dd8e838e60018151811061077b57fe5b60200260200101516040518463ffffffff1660e01b815260040180846001600160a01b03166001600160a01b03168152602001836001600160a01b03166001600160a01b031681526020018281526020019350505050602060405180830381600087803b1580156107eb57600080fd5b505af11580156107ff573d6000803e3d6000fd5b505050506040513d602081101561081557600080fd5b50516108525760405162461bcd60e51b81526004018080602001828103825260288152602001806109e36028913960400191505060405180910390fd5b60408051848152905133916001600160a01b038416917f807aa3390da170b7559feef035f6c212b1d4dd5e859a6bcd7d5f918bc942a5fa9181900360200190a39c9b505050505050505050505050565b600154600160a01b900460ff166108ea5760405162461bcd60e51b81526004018080602001828103825260258152602001806109be6025913960400191505060405180910390fd5b6000546001600160a01b03163314610949576040805162461bcd60e51b815260206004820181905260248201527f53656564466163746f72793a2070726f746563746564206f7065726174696f6e604482015290519081900360640190fd5b600080546001600160a01b0319166001600160a01b0392909216919091179055565b6000808260601b9050604051733d602d80600a3d3981f3363d3d373d3d3d363d7360601b81528160148201526e5af43d82803e903d91602b57fd5bf360881b60288201526037816000f094935050505056fe53656564466163746f72793a20636f6e7472616374206e6f7420696e697469616c697a656453656564466163746f72793a2063616e6e6f74207472616e73666572207365656420746f6b656e7353656564466163746f72793a206176617461722063616e6e6f74206265206e756c6c53656564466163746f72793a20706172656e742063616e6e6f74206265206e756c6c53656564466163746f72793a20636f6e747261637420616c726561647920696e697469616c697a6564a265627a7a7231582027b632ae5c809efa43c1067e88bb092f1a3c03781e06bd5565f607ecbaca5bef64736f6c634300050d0032",
  "source": "/*\n\n██████╗░██████╗░██╗███╗░░░███╗███████╗██████╗░░█████╗░░█████╗░\n██╔══██╗██╔══██╗██║████╗░████║██╔════╝██╔══██╗██╔══██╗██╔══██╗\n██████╔╝██████╔╝██║██╔████╔██║█████╗░░██║░░██║███████║██║░░██║\n██╔═══╝░██╔══██╗██║██║╚██╔╝██║██╔══╝░░██║░░██║██╔══██║██║░░██║\n██║░░░░░██║░░██║██║██║░╚═╝░██║███████╗██████╔╝██║░░██║╚█████╔╝\n╚═╝░░░░░╚═╝░░╚═╝╚═╝╚═╝░░░░░╚═╝╚══════╝╚═════╝░╚═╝░░╚═╝░╚════╝░\n\n*/\n\n// SPDX-License-Identifier: GPL-3.0-or-later\n/* solhint-disable space-after-comma */\npragma solidity 0.5.13;\n\nimport \"@daostack/arc/contracts/controller/Avatar.sol\";\nimport \"@daostack/arc/contracts/controller/Controller.sol\";\nimport \"openzeppelin-solidity/contracts/token/ERC20/IERC20.sol\";\nimport \"./Seed.sol\";\nimport \"../utils/CloneFactory.sol\";\n\n\n/**\n * @title primeDAO Seed Factory\n * @dev   Enable primeDAO governance to create new Seed contracts.\n */\ncontract SeedFactory is CloneFactory {\n\n    Avatar    public avatar;\n    Seed      public parent;\n    bool      public initialized;\n\n    event SeedCreated(address indexed newSeed, address indexed beneficiary, bytes32 metadata);\n\n    modifier initializer() {\n        require(!initialized, \"SeedFactory: contract already initialized\");\n        initialized = true;\n        _;\n    }\n\n    modifier protected() {\n        require(initialized,                    \"SeedFactory: contract not initialized\");\n        require(msg.sender == address(avatar),\t\"SeedFactory: protected operation\");\n        _;\n    }\n\n    /**\n      * @dev           Initialize proxy.\n      * @param _avatar The address of the Avatar controlling this contract.\n      * @param _parent The address of the Seed contract which will be a parent for all of the clones.\n      */\n    function initialize(Avatar _avatar, Seed _parent) external initializer {\n        require(_avatar != Avatar(0), \"SeedFactory: avatar cannot be null\");\n        require(_parent != Seed(0),   \"SeedFactory: parent cannot be null\");\n        avatar = _avatar;\n        parent = _parent;\n    }\n\n    /**\n    * @dev             Update Seed contract which works as a base for clones.\n    * @param newParent The address of the new Seed basis.\n    */\n    function changeParent(Seed newParent) public protected {\n        parent = newParent;\n    }\n\n    /**\n    * @dev             Update Avatar.\n    * @param _newAvatar The address of the new Avatar.\n    */\n    function changeAvatar(Avatar _newAvatar) public protected {\n        avatar = _newAvatar;\n    }\n\n    /**\n      * @dev                          Deploys Seed contract.\n      * @param _admin                 The address of the admin of this contract. Funds contract\n                                      and has permissions to whitelist users, pause and close contract.\n      * @param _tokens                Array containing two params:\n                                        - The address of the token being distributed.\n      *                                 - The address of the token being exchanged for seed token.\n      * @param _successMinimumAndCap  Array containing two params:\n                                        - the minimum distribution threshold\n                                        - the highest possible amount to be raised in wei.\n      * @param _price                 The price in wei of fundingTokens when exchanged for seedTokens.\n      * @param _startTime             Distribution start time in unix timecode.\n      * @param _endTime               Distribution end time in unix timecode.\n      * @param _vestingDuration       Vesting period duration in days.\n      * @param _vestingCliff          Cliff duration in days.\n      * @param _isWhitelisted         Set to true if only whitelisted adresses are allowed to participate.\n      * @param _fee                   Success fee expressed in Wei as a % (e.g. 2 = 2% fee)\n    */\n    function deploySeed(\n        address          _admin,\n        address[] memory _tokens,\n        uint[]    memory _successMinimumAndCap,\n        uint  \t         _price,\n        uint \t         _startTime,\n        uint \t         _endTime,\n        uint16 \t         _vestingDuration,\n        uint16 \t         _vestingCliff,\n        bool \t         _isWhitelisted,\n        uint8            _fee,\n        bytes32          _metadata\n    )\n    public\n    protected\n    returns(address)\n    {\n        // deploy clone\n        address _newSeed = createClone(address(parent));\n\n        // initialize\n        Seed(_newSeed).initialize(\n            msg.sender,\n            _admin,\n            _tokens,\n            _successMinimumAndCap,\n            _price,\n            _startTime,\n            _endTime,\n            _vestingDuration,\n            _vestingCliff,\n            _isWhitelisted,\n            _fee\n        );\n\n        Seed(_newSeed).updateMetadata(_metadata);\n\n        // fund\n        require(\n            IERC20(_tokens[0]).transferFrom(_admin, address(_newSeed), _successMinimumAndCap[1]),\n            \"SeedFactory: cannot transfer seed tokens\"\n        );\n\n        emit SeedCreated(address(_newSeed), msg.sender, _metadata);\n\n        return address(_newSeed);\n    }\n}\n",
  "sourcePath": "/home/tengree/Projects/primedao/contracts/contracts/seed/SeedFactory.sol",
  "compiler": {
    "name": "solc",
    "version": "0.5.13+commit.5b0b510c.Emscripten.clang"
  },
  "schemaVersion": "3.3.3",
  "updatedAt": "2021-04-12T16:54:24.126Z",
  "devdoc": {
    "details": "Enable primeDAO governance to create new Seed contracts.",
    "methods": {
      "changeAvatar(address)": {
        "details": "Update Avatar.",
        "params": {
          "_newAvatar": "The address of the new Avatar."
        }
      },
      "changeParent(address)": {
        "details": "Update Seed contract which works as a base for clones.",
        "params": {
          "newParent": "The address of the new Seed basis."
        }
      },
      "deploySeed(address,address[],uint256[],uint256,uint256,uint256,uint16,uint16,bool,uint8,bytes32)": {
        "details": "Deploys Seed contract.",
        "params": {
          "_admin": "The address of the admin of this contract. Funds contract and has permissions to whitelist users, pause and close contract.",
          "_endTime": "Distribution end time in unix timecode.",
          "_fee": "Success fee expressed in Wei as a % (e.g. 2 = 2% fee)",
          "_isWhitelisted": "Set to true if only whitelisted adresses are allowed to participate.",
          "_price": "The price in wei of fundingTokens when exchanged for seedTokens.",
          "_startTime": "Distribution start time in unix timecode.",
          "_successMinimumAndCap": "Array containing two params: - the minimum distribution threshold - the highest possible amount to be raised in wei.",
          "_tokens": "Array containing two params: - The address of the token being distributed.                                - The address of the token being exchanged for seed token.",
          "_vestingCliff": "Cliff duration in days.",
          "_vestingDuration": "Vesting period duration in days."
        }
      },
      "initialize(address,address)": {
        "details": "Initialize proxy.",
        "params": {
          "_avatar": "The address of the Avatar controlling this contract.",
          "_parent": "The address of the Seed contract which will be a parent for all of the clones."
        }
      }
    },
    "title": "primeDAO Seed Factory"
  },
  "userdoc": {
    "methods": {}
  }
}