{
  "contractName": "Seed",
  "abi": [
    {
      "anonymous": false,
      "inputs": [
        {
          "indexed": true,
          "internalType": "address",
          "name": "recipient",
          "type": "address"
        },
        {
          "indexed": false,
          "internalType": "uint256",
          "name": "amountReclaimed",
          "type": "uint256"
        }
      ],
      "name": "FundingReclaimed",
      "type": "event"
    },
    {
      "anonymous": false,
      "inputs": [
        {
          "indexed": true,
          "internalType": "bytes",
          "name": "metadata",
          "type": "bytes"
        }
      ],
      "name": "MetadataUpdated",
      "type": "event"
    },
    {
      "anonymous": false,
      "inputs": [
        {
          "indexed": true,
          "internalType": "address",
          "name": "recipient",
          "type": "address"
        },
        {
          "indexed": false,
          "internalType": "uint256",
          "name": "amountPurchased",
          "type": "uint256"
        }
      ],
      "name": "SeedsPurchased",
      "type": "event"
    },
    {
      "anonymous": false,
      "inputs": [
        {
          "indexed": true,
          "internalType": "address",
          "name": "recipient",
          "type": "address"
        },
        {
          "indexed": false,
          "internalType": "uint256",
          "name": "amount",
          "type": "uint256"
        },
        {
          "indexed": true,
          "internalType": "address",
          "name": "beneficiary",
          "type": "address"
        },
        {
          "indexed": false,
          "internalType": "uint256",
          "name": "feeAmount",
          "type": "uint256"
        }
      ],
      "name": "TokensClaimed",
      "type": "event"
    },
    {
      "constant": true,
      "inputs": [],
      "name": "admin",
      "outputs": [
        {
          "internalType": "address",
          "name": "",
          "type": "address"
        }
      ],
      "payable": false,
      "stateMutability": "view",
      "type": "function"
    },
    {
      "constant": true,
      "inputs": [],
      "name": "beneficiary",
      "outputs": [
        {
          "internalType": "address",
          "name": "",
          "type": "address"
        }
      ],
      "payable": false,
      "stateMutability": "view",
      "type": "function"
    },
    {
      "constant": true,
      "inputs": [],
      "name": "closed",
      "outputs": [
        {
          "internalType": "bool",
          "name": "",
          "type": "bool"
        }
      ],
      "payable": false,
      "stateMutability": "view",
      "type": "function"
    },
    {
      "constant": true,
      "inputs": [],
      "name": "endTime",
      "outputs": [
        {
          "internalType": "uint256",
          "name": "",
          "type": "uint256"
        }
      ],
      "payable": false,
      "stateMutability": "view",
      "type": "function"
    },
    {
      "constant": true,
      "inputs": [],
      "name": "fee",
      "outputs": [
        {
          "internalType": "uint8",
          "name": "",
          "type": "uint8"
        }
      ],
      "payable": false,
      "stateMutability": "view",
      "type": "function"
    },
    {
      "constant": true,
      "inputs": [],
      "name": "feeAmountRequired",
      "outputs": [
        {
          "internalType": "uint256",
          "name": "",
          "type": "uint256"
        }
      ],
      "payable": false,
      "stateMutability": "view",
      "type": "function"
    },
    {
      "constant": true,
      "inputs": [],
      "name": "feeClaimed",
      "outputs": [
        {
          "internalType": "uint256",
          "name": "",
          "type": "uint256"
        }
      ],
      "payable": false,
      "stateMutability": "view",
      "type": "function"
    },
    {
      "constant": true,
      "inputs": [],
      "name": "feeRemainder",
      "outputs": [
        {
          "internalType": "uint256",
          "name": "",
          "type": "uint256"
        }
      ],
      "payable": false,
      "stateMutability": "view",
      "type": "function"
    },
    {
      "constant": true,
      "inputs": [
        {
          "internalType": "address",
          "name": "",
          "type": "address"
        }
      ],
      "name": "funders",
      "outputs": [
        {
          "internalType": "uint256",
          "name": "seedAmount",
          "type": "uint256"
        },
        {
          "internalType": "uint256",
          "name": "totalClaimed",
          "type": "uint256"
        },
        {
          "internalType": "uint256",
          "name": "fundingAmount",
          "type": "uint256"
        },
        {
          "internalType": "uint256",
          "name": "fee",
          "type": "uint256"
        },
        {
          "internalType": "uint256",
          "name": "feeClaimed",
          "type": "uint256"
        }
      ],
      "payable": false,
      "stateMutability": "view",
      "type": "function"
    },
    {
      "constant": true,
      "inputs": [],
      "name": "fundingCollected",
      "outputs": [
        {
          "internalType": "uint256",
          "name": "",
          "type": "uint256"
        }
      ],
      "payable": false,
      "stateMutability": "view",
      "type": "function"
    },
    {
      "constant": true,
      "inputs": [],
      "name": "fundingToken",
      "outputs": [
        {
          "internalType": "contract IERC20",
          "name": "",
          "type": "address"
        }
      ],
      "payable": false,
      "stateMutability": "view",
      "type": "function"
    },
    {
      "constant": true,
      "inputs": [],
      "name": "fundingWithdrawn",
      "outputs": [
        {
          "internalType": "uint256",
          "name": "",
          "type": "uint256"
        }
      ],
      "payable": false,
      "stateMutability": "view",
      "type": "function"
    },
    {
      "constant": true,
      "inputs": [],
      "name": "hardCap",
      "outputs": [
        {
          "internalType": "uint256",
          "name": "",
          "type": "uint256"
        }
      ],
      "payable": false,
      "stateMutability": "view",
      "type": "function"
    },
    {
      "constant": true,
      "inputs": [],
      "name": "initialized",
      "outputs": [
        {
          "internalType": "bool",
          "name": "",
          "type": "bool"
        }
      ],
      "payable": false,
      "stateMutability": "view",
      "type": "function"
    },
    {
      "constant": true,
      "inputs": [],
      "name": "isFunded",
      "outputs": [
        {
          "internalType": "bool",
          "name": "",
          "type": "bool"
        }
      ],
      "payable": false,
      "stateMutability": "view",
      "type": "function"
    },
    {
      "constant": true,
      "inputs": [],
      "name": "maximumReached",
      "outputs": [
        {
          "internalType": "bool",
          "name": "",
          "type": "bool"
        }
      ],
      "payable": false,
      "stateMutability": "view",
      "type": "function"
    },
    {
      "constant": true,
      "inputs": [],
      "name": "metadata",
      "outputs": [
        {
          "internalType": "bytes",
          "name": "",
          "type": "bytes"
        }
      ],
      "payable": false,
      "stateMutability": "view",
      "type": "function"
    },
    {
      "constant": true,
      "inputs": [],
      "name": "minimumReached",
      "outputs": [
        {
          "internalType": "bool",
          "name": "",
          "type": "bool"
        }
      ],
      "payable": false,
      "stateMutability": "view",
      "type": "function"
    },
    {
      "constant": true,
      "inputs": [],
      "name": "paused",
      "outputs": [
        {
          "internalType": "bool",
          "name": "",
          "type": "bool"
        }
      ],
      "payable": false,
      "stateMutability": "view",
      "type": "function"
    },
    {
      "constant": true,
      "inputs": [],
      "name": "permissionedSeed",
      "outputs": [
        {
          "internalType": "bool",
          "name": "",
          "type": "bool"
        }
      ],
      "payable": false,
      "stateMutability": "view",
      "type": "function"
    },
    {
      "constant": true,
      "inputs": [],
      "name": "price",
      "outputs": [
        {
          "internalType": "uint256",
          "name": "",
          "type": "uint256"
        }
      ],
      "payable": false,
      "stateMutability": "view",
      "type": "function"
    },
    {
      "constant": true,
      "inputs": [],
      "name": "seedAmountRequired",
      "outputs": [
        {
          "internalType": "uint256",
          "name": "",
          "type": "uint256"
        }
      ],
      "payable": false,
      "stateMutability": "view",
      "type": "function"
    },
    {
      "constant": true,
      "inputs": [],
      "name": "seedClaimed",
      "outputs": [
        {
          "internalType": "uint256",
          "name": "",
          "type": "uint256"
        }
      ],
      "payable": false,
      "stateMutability": "view",
      "type": "function"
    },
    {
      "constant": true,
      "inputs": [],
      "name": "seedRemainder",
      "outputs": [
        {
          "internalType": "uint256",
          "name": "",
          "type": "uint256"
        }
      ],
      "payable": false,
      "stateMutability": "view",
      "type": "function"
    },
    {
      "constant": true,
      "inputs": [],
      "name": "seedToken",
      "outputs": [
        {
          "internalType": "contract IERC20",
          "name": "",
          "type": "address"
        }
      ],
      "payable": false,
      "stateMutability": "view",
      "type": "function"
    },
    {
      "constant": true,
      "inputs": [],
      "name": "softCap",
      "outputs": [
        {
          "internalType": "uint256",
          "name": "",
          "type": "uint256"
        }
      ],
      "payable": false,
      "stateMutability": "view",
      "type": "function"
    },
    {
      "constant": true,
      "inputs": [],
      "name": "startTime",
      "outputs": [
        {
          "internalType": "uint256",
          "name": "",
          "type": "uint256"
        }
      ],
      "payable": false,
      "stateMutability": "view",
      "type": "function"
    },
    {
      "constant": true,
      "inputs": [],
      "name": "totalFunderCount",
      "outputs": [
        {
          "internalType": "uint256",
          "name": "",
          "type": "uint256"
        }
      ],
      "payable": false,
      "stateMutability": "view",
      "type": "function"
    },
    {
      "constant": true,
      "inputs": [],
      "name": "vestingCliff",
      "outputs": [
        {
          "internalType": "uint32",
          "name": "",
          "type": "uint32"
        }
      ],
      "payable": false,
      "stateMutability": "view",
      "type": "function"
    },
    {
      "constant": true,
      "inputs": [],
      "name": "vestingDuration",
      "outputs": [
        {
          "internalType": "uint32",
          "name": "",
          "type": "uint32"
        }
      ],
      "payable": false,
      "stateMutability": "view",
      "type": "function"
    },
    {
      "constant": true,
      "inputs": [
        {
          "internalType": "address",
          "name": "",
          "type": "address"
        }
      ],
      "name": "whitelisted",
      "outputs": [
        {
          "internalType": "bool",
          "name": "",
          "type": "bool"
        }
      ],
      "payable": false,
      "stateMutability": "view",
      "type": "function"
    },
    {
      "constant": false,
      "inputs": [
        {
          "internalType": "address",
          "name": "_beneficiary",
          "type": "address"
        },
        {
          "internalType": "address",
          "name": "_admin",
          "type": "address"
        },
        {
          "internalType": "address[]",
          "name": "_tokens",
          "type": "address[]"
        },
        {
          "internalType": "uint256[]",
          "name": "_softHardThresholds",
          "type": "uint256[]"
        },
        {
          "internalType": "uint256",
          "name": "_price",
          "type": "uint256"
        },
        {
          "internalType": "uint256",
          "name": "_startTime",
          "type": "uint256"
        },
        {
          "internalType": "uint256",
          "name": "_endTime",
          "type": "uint256"
        },
        {
          "internalType": "uint32",
          "name": "_vestingDuration",
          "type": "uint32"
        },
        {
          "internalType": "uint32",
          "name": "_vestingCliff",
          "type": "uint32"
        },
        {
          "internalType": "bool",
          "name": "_permissionedSeed",
          "type": "bool"
        },
        {
          "internalType": "uint8",
          "name": "_fee",
          "type": "uint8"
        }
      ],
      "name": "initialize",
      "outputs": [],
      "payable": false,
      "stateMutability": "nonpayable",
      "type": "function"
    },
    {
      "constant": false,
      "inputs": [
        {
          "internalType": "uint256",
          "name": "_fundingAmount",
          "type": "uint256"
        }
      ],
      "name": "buy",
      "outputs": [
        {
          "internalType": "uint256",
          "name": "",
          "type": "uint256"
        },
        {
          "internalType": "uint256",
          "name": "",
          "type": "uint256"
        }
      ],
      "payable": false,
      "stateMutability": "nonpayable",
      "type": "function"
    },
    {
      "constant": false,
      "inputs": [
        {
          "internalType": "address",
          "name": "_funder",
          "type": "address"
        },
        {
          "internalType": "uint256",
          "name": "_claimAmount",
          "type": "uint256"
        }
      ],
      "name": "claim",
      "outputs": [
        {
          "internalType": "uint256",
          "name": "",
          "type": "uint256"
        },
        {
          "internalType": "uint256",
          "name": "",
          "type": "uint256"
        }
      ],
      "payable": false,
      "stateMutability": "nonpayable",
      "type": "function"
    },
    {
      "constant": false,
      "inputs": [],
      "name": "retrieveFundingTokens",
      "outputs": [
        {
          "internalType": "uint256",
          "name": "",
          "type": "uint256"
        }
      ],
      "payable": false,
      "stateMutability": "nonpayable",
      "type": "function"
    },
    {
      "constant": false,
      "inputs": [],
      "name": "pause",
      "outputs": [],
      "payable": false,
      "stateMutability": "nonpayable",
      "type": "function"
    },
    {
      "constant": false,
      "inputs": [],
      "name": "unpause",
      "outputs": [],
      "payable": false,
      "stateMutability": "nonpayable",
      "type": "function"
    },
    {
      "constant": false,
      "inputs": [],
      "name": "close",
      "outputs": [],
      "payable": false,
      "stateMutability": "nonpayable",
      "type": "function"
    },
    {
      "constant": false,
      "inputs": [
        {
          "internalType": "address",
          "name": "_buyer",
          "type": "address"
        }
      ],
      "name": "whitelist",
      "outputs": [],
      "payable": false,
      "stateMutability": "nonpayable",
      "type": "function"
    },
    {
      "constant": false,
      "inputs": [
        {
          "internalType": "address[]",
          "name": "_buyers",
          "type": "address[]"
        }
      ],
      "name": "whitelistBatch",
      "outputs": [],
      "payable": false,
      "stateMutability": "nonpayable",
      "type": "function"
    },
    {
      "constant": false,
      "inputs": [
        {
          "internalType": "address",
          "name": "buyer",
          "type": "address"
        }
      ],
      "name": "unwhitelist",
      "outputs": [],
      "payable": false,
      "stateMutability": "nonpayable",
      "type": "function"
    },
    {
      "constant": false,
      "inputs": [],
      "name": "withdraw",
      "outputs": [],
      "payable": false,
      "stateMutability": "nonpayable",
      "type": "function"
    },
    {
      "constant": false,
      "inputs": [
        {
          "internalType": "bytes",
          "name": "_metadata",
          "type": "bytes"
        }
      ],
      "name": "updateMetadata",
      "outputs": [],
      "payable": false,
      "stateMutability": "nonpayable",
      "type": "function"
    },
    {
      "constant": true,
      "inputs": [
        {
          "internalType": "address",
          "name": "_funder",
          "type": "address"
        }
      ],
      "name": "calculateClaim",
      "outputs": [
        {
          "internalType": "uint256",
          "name": "",
          "type": "uint256"
        }
      ],
      "payable": false,
      "stateMutability": "view",
      "type": "function"
    },
    {
      "constant": true,
      "inputs": [
        {
          "internalType": "address",
          "name": "_buyer",
          "type": "address"
        }
      ],
      "name": "checkWhitelisted",
      "outputs": [
        {
          "internalType": "bool",
          "name": "",
          "type": "bool"
        }
      ],
      "payable": false,
      "stateMutability": "view",
      "type": "function"
    }
  ],
  "bytecode": "0x608060405234801561001057600080fd5b50612e54806100206000396000f3fe608060405234801561001057600080fd5b506004361061027f5760003560e01c80637c6543031161015c578063d8039364116100ce578063ea34554011610087578063ea3455401461071f578063eaa5352314610745578063f3640e74146107e6578063f851a440146107ee578063fb86a404146107f6578063fc582d41146107fe5761027f565b8063d80393641461053e578063d936547e146106ae578063d96a094a146106d4578063ddca3f43146106f1578063e565eb4c1461070f578063e6e36ebb146107175761027f565b80639a590427116101205780639a590427146104955780639b19251a146104bb578063a035b1fe146104e1578063aad3ec96146104e9578063b774682f1461052e578063bc0f5f84146105365761027f565b80637c6543031461046d57806383d59e00146104755780638456cb591461047d5780638a2448aa14610485578063906a26e01461048d5761027f565b80633ccfd60b116101f5578063597e1fb5116101b9578063597e1fb51461043d5780635c975abb146104455780635e9777e81461044d57806371f4b8e81461045557806378065f271461045d57806378e97925146104655761027f565b80633ccfd60b146104135780633dba9e411461041d5780633f4ba83a1461042557806343d726d61461042d57806347d02f1b146104355761027f565b80631cfe562e116102475780631cfe562e1461033457806320d8dad01461033c578063311f8483146103625780633197cbb61461038657806338af3eed1461038e578063392f37e9146103965761027f565b8063031b3677146102845780630826d2c7146102d5578063117a36d1146102ef5780631514617e1461030b578063158ef93e1461032c575b600080fd5b6102aa6004803603602081101561029a57600080fd5b50356001600160a01b03166108a2565b6040805195865260208601949094528484019290925260608401526080830152519081900360a00190f35b6102dd6108d1565b60408051918252519081900360200190f35b6102f76108d7565b604080519115158252519081900360200190f35b6103136108e7565b6040805163ffffffff9092168252519081900360200190f35b6102f76108f8565b6102dd610908565b6102f76004803603602081101561035257600080fd5b50356001600160a01b031661090e565b61036a610930565b604080516001600160a01b039092168252519081900360200190f35b6102dd610946565b61036a61094c565b61039e61095b565b6040805160208082528351818301528351919283929083019185019080838360005b838110156103d85781810151838201526020016103c0565b50505050905090810190601f1680156104055780820380516001836020036101000a031916815260200191505b509250505060405180910390f35b61041b6109e9565b005b6102f7610bc4565b61041b610bcd565b61041b610ccd565b6102dd610fbf565b6102f7610fc5565b6102f7610fce565b6102dd610fdc565b6102dd610fe2565b61036a610fe8565b6102dd610ff7565b6102f7610ffd565b6102dd61100c565b61041b611012565b6102dd61110c565b6102dd611441565b61041b600480360360208110156104ab57600080fd5b50356001600160a01b0316611447565b61041b600480360360208110156104d157600080fd5b50356001600160a01b03166115ad565b6102dd611716565b610515600480360360408110156104ff57600080fd5b506001600160a01b03813516906020013561171c565b6040805192835260208301919091528051918290030190f35b6102dd611b84565b6102dd611b8a565b61041b600480360361016081101561055557600080fd5b6001600160a01b038235811692602081013590911691810190606081016040820135600160201b81111561058857600080fd5b82018360208201111561059a57600080fd5b803590602001918460208302840111600160201b831117156105bb57600080fd5b9190808060200260200160405190810160405280939291908181526020018383602002808284376000920191909152509295949360208101935035915050600160201b81111561060a57600080fd5b82018360208201111561061c57600080fd5b803590602001918460208302840111600160201b8311171561063d57600080fd5b91908080602002602001604051908101604052809392919081815260200183836020028082843760009201919091525092955050823593505050602081013590604081013590606081013563ffffffff9081169160808101359091169060a081013515159060c0013560ff16611b90565b6102f7600480360360208110156106c457600080fd5b50356001600160a01b0316611d84565b610515600480360360208110156106ea57600080fd5b5035611d99565b6106f9612357565b6040805160ff9092168252519081900360200190f35b6102f7612367565b6102dd612377565b6102dd6004803603602081101561073557600080fd5b50356001600160a01b031661237d565b61041b6004803603602081101561075b57600080fd5b810190602081018135600160201b81111561077557600080fd5b82018360208201111561078757600080fd5b803590602001918460208302840111600160201b831117156107a857600080fd5b9190808060200260200160405190810160405280939291908181526020018383602002808284376000920191909152509295506124c5945050505050565b610313612666565b61036a612679565b6102dd612688565b61041b6004803603602081101561081457600080fd5b810190602081018135600160201b81111561082e57600080fd5b82018360208201111561084057600080fd5b803590602001918460018302840111600160201b8311171561086157600080fd5b91908080601f01602080910402602001604051908101604052809392919081815260200183838082843760009201919091525092955061268e945050505050565b601560205260009081526040902080546001820154600283015460038401546004909401549293919290919085565b600e5481565b600c54600160281b900460ff1681565b600954610100900463ffffffff1681565b600c546301000000900460ff1681565b60125481565b6001600160a01b03811660009081526014602052604090205460ff165b919050565b600954600160481b90046001600160a01b031681565b60085481565b6000546001600160a01b031681565b600b805460408051602060026001851615610100026000190190941693909304601f810184900484028201840190925281815292918301828280156109e15780601f106109b6576101008083540402835291602001916109e1565b820191906000526020600020905b8154815290600101906020018083116109c457829003601f168201915b505050505081565b6001546001600160a01b03163314610a36576040805162461bcd60e51b815260206004820152601c6024820152600080516020612b7b833981519152604482015290519081900360640190fd5b600c5460ff61010090910416151560011415610a87576040805162461bcd60e51b815260206004820152601a6024820152600080516020612e00833981519152604482015290519081900360640190fd5b600c5460ff16151560011415610ad2576040805162461bcd60e51b815260206004820152601a6024820152600080516020612c60833981519152604482015290519081900360640190fd5b600c54600160201b900460ff161515600114610b1f5760405162461bcd60e51b8152600401808060200182810382526024815260200180612db86024913960400191505060405180910390fd5b6000610b3860135460125461278b90919063ffffffff16565b601254601355600a546040805163a9059cbb60e01b81523360048201526024810184905290519293506001600160a01b039091169163a9059cbb916044808201926020929091908290030181600087803b158015610b9557600080fd5b505af1158015610ba9573d6000803e3d6000fd5b505050506040513d6020811015610bbf57600080fd5b505050565b60095460ff1681565b6001546001600160a01b03163314610c1a576040805162461bcd60e51b815260206004820152601c6024820152600080516020612b7b833981519152604482015290519081900360640190fd5b600c5460ff16151560011415610c65576040805162461bcd60e51b815260206004820152601a6024820152600080516020612c60833981519152604482015290519081900360640190fd5b600c5460ff610100909104161515600114610cc0576040805162461bcd60e51b815260206004820152601660248201527514d959590e881cda1bdd5b19081899481c185d5cd95960521b604482015290519081900360640190fd5b600c805461ff0019169055565b6001546001600160a01b03163314610d1a576040805162461bcd60e51b815260206004820152601c6024820152600080516020612b7b833981519152604482015290519081900360640190fd5b600c5460ff16151560011415610d65576040805162461bcd60e51b815260206004820152601a6024820152600080516020612c60833981519152604482015290519081900360640190fd5b600c5460ff61010090910416151560011415610db6576040805162461bcd60e51b815260206004820152601a6024820152600080516020612e00833981519152604482015290519081900360640190fd5b600c54600160201b900460ff1615610ebb576000610de1601054600e546127d690919063ffffffff16565b6009546001546040805163a9059cbb60e01b81526001600160a01b039283166004820152602481018590529051939450600160481b909204169163a9059cbb916044808201926020929091908290030181600087803b158015610e4357600080fd5b505af1158015610e57573d6000803e3d6000fd5b505050506040513d6020811015610e6d57600080fd5b5051610eaa5760405162461bcd60e51b815260040180806020018281038252602a815260200180612d27602a913960400191505060405180910390fd5b50600c805461ff0019169055610fbd565b6009546001546005546004546001600160a01b03600160481b90940484169363a9059cbb931691610ef2919063ffffffff6127d616565b6040518363ffffffff1660e01b815260040180836001600160a01b03166001600160a01b0316815260200182815260200192505050602060405180830381600087803b158015610f4157600080fd5b505af1158015610f55573d6000803e3d6000fd5b505050506040513d6020811015610f6b57600080fd5b5051610fa85760405162461bcd60e51b815260040180806020018281038252602a815260200180612d27602a913960400191505060405180910390fd5b600c805461ff001960ff199091166001171690555b565b600f5481565b600c5460ff1681565b600c54610100900460ff1681565b600d5481565b60115481565b600a546001600160a01b031681565b60075481565b600c5462010000900460ff1681565b60135481565b6001546001600160a01b0316331461105f576040805162461bcd60e51b815260206004820152601c6024820152600080516020612b7b833981519152604482015290519081900360640190fd5b600c5460ff161515600114156110aa576040805162461bcd60e51b815260206004820152601a6024820152600080516020612c60833981519152604482015290519081900360640190fd5b600c5460ff610100909104161515600114156110fb576040805162461bcd60e51b815260206004820152601a6024820152600080516020612e00833981519152604482015290519081900360640190fd5b600c805461ff001916610100179055565b600c5460009060ff61010090910416151560011415611160576040805162461bcd60e51b815260206004820152601a6024820152600080516020612e00833981519152604482015290519081900360640190fd5b4260075411156111a15760405162461bcd60e51b8152600401808060200182810382526022815260200180612d736022913960400191505060405180910390fd5b600c54600160201b900460ff1615611200576040805162461bcd60e51b815260206004820152601960248201527f536565643a206d696e696d756d20616c7265616479206d657400000000000000604482015290519081900360640190fd5b33600090815260156020526040902060020154611264576040805162461bcd60e51b815260206004820152601960248201527f536565643a207a65726f2066756e64696e6720616d6f756e7400000000000000604482015290519081900360640190fd5b61126c612ab3565b5033600090815260156020908152604091829020825160a08101845281548082526001830154938201939093526002820154938101849052600382015460608201526004909101546080820152600e549092916112cf919063ffffffff6127d616565b600e5560608201516010546112e99163ffffffff6127d616565b6010556000808352606083018181526040808501838152338452601560209081529190932085518155908501516001820155915160028301555160038201556080830151600490910155601254611346908263ffffffff61278b16565b601255600a546040805163a9059cbb60e01b81523360048201526024810184905290516001600160a01b039092169163a9059cbb916044808201926020929091908290030181600087803b15801561139d57600080fd5b505af11580156113b1573d6000803e3d6000fd5b505050506040513d60208110156113c757600080fd5b50516114045760405162461bcd60e51b8152600401808060200182810382526030815260200180612c806030913960400191505060405180910390fd5b60408051828152905133917f1a689b1a62e3bb77f9c98d8759c04f341a67deb5cc63cf53be8324b691064950919081900360200190a29150505b90565b60025481565b6001546001600160a01b03163314611494576040805162461bcd60e51b815260206004820152601c6024820152600080516020612b7b833981519152604482015290519081900360640190fd5b600c5460ff161515600114156114df576040805162461bcd60e51b815260206004820152601a6024820152600080516020612c60833981519152604482015290519081900360640190fd5b600c5460ff61010090910416151560011415611530576040805162461bcd60e51b815260206004820152601a6024820152600080516020612e00833981519152604482015290519081900360640190fd5b60095460ff16151560011461158c576040805162461bcd60e51b815260206004820152601f60248201527f536565643a206d6f64756c65206973206e6f742077686974656c697374656400604482015290519081900360640190fd5b6001600160a01b03166000908152601460205260409020805460ff19169055565b6001546001600160a01b031633146115fa576040805162461bcd60e51b815260206004820152601c6024820152600080516020612b7b833981519152604482015290519081900360640190fd5b600c5460ff16151560011415611645576040805162461bcd60e51b815260206004820152601a6024820152600080516020612c60833981519152604482015290519081900360640190fd5b600c5460ff61010090910416151560011415611696576040805162461bcd60e51b815260206004820152601a6024820152600080516020612e00833981519152604482015290519081900360640190fd5b60095460ff1615156001146116f2576040805162461bcd60e51b815260206004820152601f60248201527f536565643a206d6f64756c65206973206e6f742077686974656c697374656400604482015290519081900360640190fd5b6001600160a01b03166000908152601460205260409020805460ff19166001179055565b60065481565b600080600c60049054906101000a900460ff16151560011515146117715760405162461bcd60e51b8152600401808060200182810382526024815260200180612db86024913960400191505060405180910390fd5b426008541115806117905750600c54600160281b900460ff1615156001145b6117cb5760405162461bcd60e51b815260040180806020018281038252602b815260200180612c35602b913960400191505060405180910390fd5b60006117d68561237d565b90506000811161182d576040805162461bcd60e51b815260206004820152601b60248201527f536565643a20616d6f756e7420636c61696d61626c6520697320300000000000604482015290519081900360640190fd5b8381101561186c5760405162461bcd60e51b815260040180806020018281038252602e815260200180612b9b602e913960400191505060405180910390fd5b600a5460009061189a9060649061188e908890600160a01b900460ff16612830565b9063ffffffff61288916565b90506118a4612ab3565b506001600160a01b038616600090815260156020908152604091829020825160a08101845281548152600182015492810183905260028201549381019390935260038101546060840152600401546080830152611907908763ffffffff6127d616565b60208201526080810151611921908363ffffffff6127d616565b608082019081526001600160a01b03881660009081526015602090815260409182902084518155908401516001820155908301516002820155606083015160038201559051600490910155600f5461197f908763ffffffff6127d616565b600f55601154611995908363ffffffff6127d616565b601155600954600080546040805163a9059cbb60e01b81526001600160a01b039283166004820152602481018790529051600160481b9094049091169263a9059cbb92604480840193602093929083900390910190829087803b1580156119fb57600080fd5b505af1158015611a0f573d6000803e3d6000fd5b505050506040513d6020811015611a2557600080fd5b5051611a625760405162461bcd60e51b8152600401808060200182810382526024815260200180612ddc6024913960400191505060405180910390fd5b6009546040805163a9059cbb60e01b81526001600160a01b038a81166004830152602482018a90529151600160481b9093049091169163a9059cbb916044808201926020929091908290030181600087803b158015611ac057600080fd5b505af1158015611ad4573d6000803e3d6000fd5b505050506040513d6020811015611aea57600080fd5b5051611b2f576040805162461bcd60e51b815260206004820152600f60248201526e536565643a206e6f20746f6b656e7360881b604482015290519081900360640190fd5b600054604080518881526020810185905281516001600160a01b03938416938b16927f9bd10be98695714f5cb43cefb59ba6417808b354710acafafe05e81b26492231928290030190a3509395939450505050565b60105481565b60045481565b600c546301000000900460ff1615611bd95760405162461bcd60e51b8152600401808060200182810382526022815260200180612d516022913960400191505060405180910390fd5b600c805463ff00000019166301000000179055600080546001600160a01b03808e166001600160a01b031992831617835560018054918e16919092161790558851899190611c2357fe5b602002602001015160028190555087600181518110611c3e57fe5b60209081029190910101516003556006879055600786905560088590556009805464ffffffff00191661010063ffffffff878116919091029190911768ffffffff00000000001916600160281b918616919091021760ff191683151517905588518990600090611caa57fe5b60200260200101516009806101000a8154816001600160a01b0302191690836001600160a01b0316021790555088600181518110611ce457fe5b6020908102919091010151600a80546001600160a01b0319166001600160a01b039092169190911760ff60a01b1916600160a01b60ff841602179055600c805465ffff000000ff19169055600354611d4a90889061188e90670de0b6b3a7640000612830565b6004819055611d699060649061188e9060ff851663ffffffff61283016565b6005819055600454600e556010555050505050505050505050565b60146020526000908152604090205460ff1681565b600c54600090819060ff16151560011415611de9576040805162461bcd60e51b815260206004820152601a6024820152600080516020612c60833981519152604482015290519081900360640190fd5b600c5460ff61010090910416151560011415611e3a576040805162461bcd60e51b815260206004820152601a6024820152600080516020612e00833981519152604482015290519081900360640190fd5b600c54600160281b900460ff1615611e99576040805162461bcd60e51b815260206004820152601d60248201527f536565643a206d6178696d756d2066756e64696e672072656163686564000000604482015290519081900360640190fd5b60095460ff1615156001141580611ec457503360009081526014602052604090205460ff1615156001145b611f15576040805162461bcd60e51b815260206004820152601a60248201527f536565643a2073656e64657220686173206e6f20726967687473000000000000604482015290519081900360640190fd5b4260085410158015611f2957504260075411155b611f645760405162461bcd60e51b815260040180806020018281038252602d815260200180612cd9602d913960400191505060405180910390fd5b600c5462010000900460ff1661205557600554600454611f899163ffffffff6127d616565b600954604080516370a0823160e01b81523060048201529051600160481b9092046001600160a01b0316916370a0823191602480820192602092909190829003018186803b158015611fda57600080fd5b505afa158015611fee573d6000803e3d6000fd5b505050506040513d602081101561200457600080fd5b505110156120435760405162461bcd60e51b8152600401808060200182810382526023815260200180612d956023913960400191505060405180910390fd5b600c805462ff00001916620100001790555b6006546000906120779061188e86670de0b6b3a764000063ffffffff61283016565b601254600a54919250906000906120a09060649061188e908690600160a01b900460ff16612830565b6003549091506120b6838863ffffffff6127d616565b11156120f35760405162461bcd60e51b815260040180806020018281038252602a815260200180612bc9602a913960400191505060405180910390fd5b82600e541015801561210757508060105410155b6121425760405162461bcd60e51b8152600401808060200182810382526029815260200180612cb06029913960400191505060405180910390fd5b612152828763ffffffff6127d616565b601255600e54612168908463ffffffff61278b16565b600e5560105461217e908263ffffffff61278b16565b601055600a54604080516323b872dd60e01b81523360048201523060248201526044810189905290516001600160a01b03909216916323b872dd916064808201926020929091908290030181600087803b1580156121db57600080fd5b505af11580156121ef573d6000803e3d6000fd5b505050506040513d602081101561220557600080fd5b505161224a576040805162461bcd60e51b815260206004820152600f60248201526e536565643a206e6f20746f6b656e7360881b604482015290519081900360640190fd5b6002546012541061226a57600c805464ff000000001916600160201b1790555b6003546012541061228b57600c805465ff00000000001916600160281b1790555b3360008181526015602052604090205461231591906122b0908663ffffffff6127d616565b336000908152601560205260409020600201546122d3908a63ffffffff6127d616565b33600090815260156020526040902060018101546003909101546122fd908763ffffffff6127d616565b336000908152601560205260409020600401546128cb565b60408051848152905133917fcf5ef2b227e797b567f0df4c49cc8b6207cfb60054eb899e5608de08e5dcb1ef919081900360200190a291935090915050915091565b600a54600160a01b900460ff1681565b600c54600160201b900460ff1681565b60055481565b6000612387612ab3565b506001600160a01b038216600090815260156020908152604091829020825160a081018452815481526001820154928101929092526002810154928201929092526003820154606082015260049091015460808201526008546123e86129b3565b10156123f857600091505061092b565b60006124146008546124086129b3565b9063ffffffff61278b16565b600954909150600160281b900463ffffffff168110156124395760009250505061092b565b600954610100900463ffffffff16811061246c57602082015182516124639163ffffffff61278b16565b9250505061092b565b600954825160009161248d919063ffffffff61010090910481169061288916565b905060006124a1838363ffffffff61283016565b90506124ba84602001518261278b90919063ffffffff16565b94505050505061092b565b6001546001600160a01b03163314612512576040805162461bcd60e51b815260206004820152601c6024820152600080516020612b7b833981519152604482015290519081900360640190fd5b600c5460ff1615156001141561255d576040805162461bcd60e51b815260206004820152601a6024820152600080516020612c60833981519152604482015290519081900360640190fd5b600c5460ff610100909104161515600114156125ae576040805162461bcd60e51b815260206004820152601a6024820152600080516020612e00833981519152604482015290519081900360640190fd5b60095460ff16151560011461260a576040805162461bcd60e51b815260206004820152601f60248201527f536565643a206d6f64756c65206973206e6f742077686974656c697374656400604482015290519081900360640190fd5b60005b81518110156126625760016014600084848151811061262857fe5b6020908102919091018101516001600160a01b03168252810191909152604001600020805460ff191691151591909117905560010161260d565b5050565b600954600160281b900463ffffffff1681565b6001546001600160a01b031681565b60035481565b600c546301000000900460ff16151560011415806126b657506001546001600160a01b031633145b6126f15760405162461bcd60e51b8152600401808060200182810382526042815260200180612bf36042913960600191505060405180910390fd5b805161270490600b906020840190612ae2565b50806040518082805190602001908083835b602083106127355780518252601f199092019160209182019101612716565b5181516020939093036101000a60001901801990911692169190911790526040519201829003822093507f09f579b21815d3f81581d32e97736ccba1cc89d1918e48da28e6e206acd9686492506000919050a250565b60006127cd83836040518060400160405280601e81526020017f536166654d6174683a207375627472616374696f6e206f766572666c6f7700008152506129b7565b90505b92915050565b6000828201838110156127cd576040805162461bcd60e51b815260206004820152601b60248201527f536166654d6174683a206164646974696f6e206f766572666c6f770000000000604482015290519081900360640190fd5b60008261283f575060006127d0565b8282028284828161284c57fe5b04146127cd5760405162461bcd60e51b8152600401808060200182810382526021815260200180612d066021913960400191505060405180910390fd5b60006127cd83836040518060400160405280601a81526020017f536166654d6174683a206469766973696f6e206279207a65726f000000000000815250612a4e565b6009546000906128eb90879063ffffffff61010090910481169061288916565b905060008111612942576040805162461bcd60e51b815260206004820152601f60248201527f536565643a20616d6f756e745665737465645065725365636f6e64203e203000604482015290519081900360640190fd5b506040805160a081018252958652602080870194855286820195865260608701938452608087019283526001600160a01b0390971660009081526015909752909520935184559051600180850191909155915160028401555160038301559151600490910155600d80549091019055565b4290565b60008184841115612a465760405162461bcd60e51b81526004018080602001828103825283818151815260200191508051906020019080838360005b83811015612a0b5781810151838201526020016129f3565b50505050905090810190601f168015612a385780820380516001836020036101000a031916815260200191505b509250505060405180910390fd5b505050900390565b60008183612a9d5760405162461bcd60e51b8152602060048201818152835160248401528351909283926044909101919085019080838360008315612a0b5781810151838201526020016129f3565b506000838581612aa957fe5b0495945050505050565b6040518060a0016040528060008152602001600081526020016000815260200160008152602001600081525090565b828054600181600116156101000203166002900490600052602060002090601f016020900481019282601f10612b2357805160ff1916838001178555612b50565b82800160010185558215612b50579182015b82811115612b50578251825591602001919060010190612b35565b50612b5c929150612b60565b5090565b61143e91905b80821115612b5c5760008155600101612b6656fe536565643a2063616c6c65722073686f756c642062652061646d696e00000000536565643a20726571756573742069732067726561746572207468616e20636c61696d61626c6520616d6f756e74536565643a20616d6f756e74206578636565647320636f6e74726163742073616c652068617264436170536565643a20636f6e74726163742073686f756c64206e6f7420626520696e697469616c697a6564206f722063616c6c65722073686f756c642062652061646d696e536565643a2074686520646973747269627574696f6e20686173206e6f74207965742066696e6973686564536565643a2073686f756c64206e6f7420626520636c6f736564000000000000536565643a2063616e6e6f742072657475726e2066756e64696e6720746f6b656e7320746f206d73672e73656e646572536565643a207365656420646973747269627574696f6e20776f756c64206265206578636565646564536565643a206f6e6c7920616c6c6f77656420647572696e6720646973747269627574696f6e20706572696f64536166654d6174683a206d756c7469706c69636174696f6e206f766572666c6f77536565643a2073686f756c64207472616e73666572207365656420746f6b656e7320746f2061646d696e536565643a20636f6e747261637420616c726561647920696e697469616c697a6564536565643a20646973747269627574696f6e20686176656e27742073746172746564536565643a2073756666696369656e74207365656473206e6f742070726f7669646564536565643a206d696e696d756d2066756e64696e6720616d6f756e74206e6f74206d6574536565643a2063616e6e6f74207472616e7366657220746f2062656e6566696369617279536565643a2073686f756c64206e6f7420626520706175736564000000000000a265627a7a7231582064eca839c7b734d4c0541f79fa090513341953b75205d077947015629f21da5264736f6c634300050d0032",
  "source": "/*\r\n\r\n\r\n\r\n\r\n\r\n\r\n\r\n\r\n*/\r\n\r\n// SPDX-License-Identifier: GPL-3.0-or-later\r\n/* solhint-disable space-after-comma */\r\n/* solhint-disable max-states-count */\r\npragma solidity 0.5.13;\r\n\r\nimport \"openzeppelin-solidity/contracts/token/ERC20/IERC20.sol\";\r\nimport \"openzeppelin-solidity/contracts/math/SafeMath.sol\";\r\n\r\n\r\n/**\r\n * @title PrimeDAO Seed contract\r\n * @dev   Smart contract for seed phases of liquid launch.\r\n */\r\ncontract Seed {\r\n    using SafeMath for uint256;\r\n    using SafeMath for uint32;\r\n    using SafeMath for uint8;\r\n\r\n    // Locked parameters\r\n    address public beneficiary;\r\n    address public admin;\r\n    uint256 public softCap;\r\n    uint256 public hardCap;\r\n    uint256 public seedAmountRequired;    // Amount of seed required for distribution\r\n    uint256 public feeAmountRequired;     // Amount of seed required for fee\r\n    uint256 public price;\r\n    uint256 public startTime;\r\n    uint256 public endTime;\r\n    bool    public permissionedSeed;\r\n    uint32  public vestingDuration;\r\n    uint32  public vestingCliff;\r\n    IERC20  public seedToken;\r\n    IERC20  public fundingToken;\r\n    uint8   public fee;\r\n\r\n    bytes   public metadata;           // IPFS Hash\r\n\r\n    uint256 constant internal PCT_BASE        = 10 ** 18;  // // 0% = 0; 1% = 10 ** 16; 100% = 10 ** 18\r\n\r\n    // Contract logic\r\n    bool    public closed;                 // is the distribution closed\r\n    bool    public paused;                 // is the distribution paused\r\n    bool    public isFunded;               // distribution can only start when required seed tokens have been funded\r\n    bool    public initialized;            // is this contract initialized [not necessary that it is funded]\r\n    bool    public minimumReached;         // if the softCap[minimum limit of funding token] is reached\r\n    bool    public maximumReached;         // if the hardCap[maximum limit of funding token] is reached\r\n    uint256 public totalFunderCount;       // Total funders that have contributed.\r\n    uint256 public seedRemainder;          // Amount of seed tokens remaining to be distributed\r\n    uint256 public seedClaimed;            // Amount of seed token claimed by the user.\r\n    uint256 public feeRemainder;           // Amount of seed tokens remaining for the fee\r\n    uint256 public feeClaimed;             // Amount of seed tokens claimed as fee\r\n    uint256 public fundingCollected;       // Amount of funding tokens collected by the seed contract.\r\n    uint256 public fundingWithdrawn;       // Amount of funding token withdrawn from the seed contract. \r\n\r\n    mapping (address => bool) public whitelisted;        // funders that are whitelisted and allowed to contribute\r\n    mapping (address => FunderPortfolio) public funders; // funder address to funder portfolio\r\n\r\n    event SeedsPurchased(address indexed recipient, uint256 amountPurchased);\r\n    event TokensClaimed(address indexed recipient,uint256 amount,address indexed beneficiary,uint256 feeAmount);\r\n    event FundingReclaimed(address indexed recipient, uint256 amountReclaimed);\r\n    event MetadataUpdated(bytes indexed metadata);\r\n\r\n    struct FunderPortfolio { \r\n        uint256 seedAmount;                 // Total amount of seed tokens bought\r\n        uint256 totalClaimed;               // Total amount of seed tokens claimed\r\n        uint256 fundingAmount;              // Total amount of funding tokens contributed\r\n        uint256 fee;                        // Total amount of fee in seed amount for this portfolio\r\n        uint256 feeClaimed;                 // Total amount of fee sent to beneficiary for this portfolio\r\n    }\r\n\r\n    modifier initializer() {\r\n        require(!initialized, \"Seed: contract already initialized\");\r\n        initialized = true;\r\n        _;\r\n    }\r\n\r\n    modifier onlyAdmin() {\r\n        require(msg.sender == admin, \"Seed: caller should be admin\");\r\n        _;\r\n    }\r\n\r\n    modifier isActive() {\r\n        require(closed != true, \"Seed: should not be closed\");\r\n        require(paused != true, \"Seed: should not be paused\");\r\n        _;\r\n    }\r\n\r\n    modifier allowedToBuy() {\r\n        require(maximumReached == false, \"Seed: maximum funding reached\" );\r\n        require(permissionedSeed != true || whitelisted[msg.sender] == true, \"Seed: sender has no rights\");\r\n        require(endTime >= block.timestamp && startTime <= block.timestamp,\r\n            \"Seed: only allowed during distribution period\");\r\n        _;\r\n    }\r\n\r\n    modifier allowedToClaim() {\r\n        require(minimumReached == true, \"Seed: minimum funding amount not met\");\r\n        require(endTime <= block.timestamp  || maximumReached == true,\"Seed: the distribution has not yet finished\");\r\n        _;\r\n    }\r\n\r\n    modifier allowedToRetrieve() {\r\n        require(paused != true, \"Seed: should not be paused\");\r\n        require(startTime <= block.timestamp, \"Seed: distribution haven't started\");\r\n        require(minimumReached == false, \"Seed: minimum already met\");\r\n        _;\r\n    }\r\n\r\n    modifier allowedToWithdraw() {\r\n        require(paused != true, \"Seed: should not be paused\");\r\n        require(closed != true, \"Seed: should not be closed\");\r\n        require(minimumReached == true, \"Seed: minimum funding amount not met\");\r\n        _;\r\n    }\r\n\r\n    /**\r\n      * @dev                          Initialize Seed.\r\n      * @param _beneficiary           The address that recieves fees.\r\n      * @param _admin                 The address of the admin of this contract. Funds contract\r\n                                      and has permissions to whitelist users, pause and close contract.\r\n      * @param _tokens                Array containing two params:\r\n                                        - The address of the seed token being distributed.\r\n      *                                 - The address of the funding token being exchanged for seed token.\r\n      * @param _softHardThresholds     Array containing two params:\r\n                                        - the minimum funding token collection threshold in wei denomination.\r\n                                        - the highest possible funding token amount to be raised in wei denomination.\r\n      * @param _price                 The price in wei of fundingTokens when exchanged for seedTokens.\r\n      * @param _startTime             Distribution start time in unix timecode.\r\n      * @param _endTime               Distribution end time in unix timecode.\r\n      * @param _vestingDuration       Vesting period duration in seconds.\r\n      * @param _vestingCliff          Cliff duration in seconds.\r\n      * @param _permissionedSeed      Set to true if only whitelisted adresses are allowed to participate.\r\n      * @param _fee                   Success fee expressed as a % (e.g. 2 = 2% fee)\r\n    */\r\n    function initialize(\r\n        address _beneficiary,\r\n        address _admin,\r\n        address[] memory _tokens,\r\n        uint256[] memory _softHardThresholds,\r\n        uint256 _price,\r\n        uint256 _startTime,\r\n        uint256 _endTime,\r\n        uint32  _vestingDuration,\r\n        uint32  _vestingCliff,\r\n        bool    _permissionedSeed,\r\n        uint8   _fee\r\n    ) public initializer {\r\n        beneficiary       = _beneficiary;\r\n        admin             = _admin;\r\n        softCap           = _softHardThresholds[0];\r\n        hardCap           = _softHardThresholds[1];\r\n        price             = _price;\r\n        startTime         = _startTime;\r\n        endTime           = _endTime;\r\n        vestingDuration   = _vestingDuration;\r\n        vestingCliff      = _vestingCliff;\r\n        permissionedSeed  = _permissionedSeed;\r\n        seedToken         = IERC20(_tokens[0]);\r\n        fundingToken      = IERC20(_tokens[1]);\r\n        fee               = _fee;\r\n        closed            = false;\r\n        minimumReached    = false;\r\n        maximumReached    = false;\r\n\r\n        seedAmountRequired = hardCap.mul(PCT_BASE).div(_price);\r\n        feeAmountRequired = seedAmountRequired.mul(_fee).div(100);\r\n        seedRemainder     = seedAmountRequired;\r\n        feeRemainder  = feeAmountRequired;\r\n    }\r\n\r\n    /**\r\n      * @dev                     Buy seed tokens.\r\n      * @param _fundingAmount    The amount of funding tokens to contribute.\r\n    */\r\n    function buy(uint256 _fundingAmount) public isActive allowedToBuy returns(uint256, uint256) {\r\n        if(!isFunded) {\r\n            require(seedToken.balanceOf(address(this)) >= seedAmountRequired.add(feeAmountRequired),\r\n                \"Seed: sufficient seeds not provided\");\r\n            isFunded = true;\r\n        }\r\n        // fundingAmount is an amount of fundingTokens required to buy _seedAmount of SeedTokens\r\n        uint256 seedAmount = (_fundingAmount.mul(PCT_BASE)).div(price);\r\n\r\n        // Funding Token balance of this contract;\r\n        uint256 fundingBalance = fundingCollected;\r\n\r\n        // feeAmount is an amount of fee we are going to get in seedTokens\r\n        uint256 feeAmount = seedAmount.mul(fee).div(100);\r\n\r\n        // total fundingAmount should not be greater than the hardCap\r\n        require( fundingBalance.\r\n                  add(_fundingAmount) <= hardCap,\r\n            \"Seed: amount exceeds contract sale hardCap\");\r\n\r\n        require( seedRemainder >= seedAmount && feeRemainder >= feeAmount,\r\n            \"Seed: seed distribution would be exceeded\");\r\n\r\n        fundingCollected = fundingBalance.add(_fundingAmount);\r\n\r\n        // the amount of seed tokens still to be distributed\r\n        seedRemainder    = seedRemainder.sub(seedAmount);\r\n        feeRemainder = feeRemainder.sub(feeAmount);\r\n\r\n        // Here we are sending amount of tokens to pay for seed tokens to purchase\r\n        require(fundingToken.transferFrom(msg.sender, address(this), _fundingAmount), \"Seed: no tokens\");\r\n\r\n        if (fundingCollected >= softCap) {\r\n            minimumReached = true;\r\n        }\r\n        if (fundingCollected >= hardCap) {\r\n            maximumReached = true;            \r\n        }\r\n\r\n        _addFunder(\r\n            msg.sender,\r\n            (funders[msg.sender].seedAmount.add(seedAmount)),         // Previous Seed Amount + new seed amount\r\n            (funders[msg.sender].fundingAmount.add(_fundingAmount)),  // Previous Funding Amount + new funding amount\r\n             funders[msg.sender].totalClaimed,\r\n            (funders[msg.sender].fee.add(feeAmount)),                  // Previous Fee + new fee\r\n             funders[msg.sender].feeClaimed\r\n            );\r\n        \r\n        // buyer, seed token purchased in this transaction (not the total amount of seed purchased)\r\n        emit SeedsPurchased(msg.sender, seedAmount);\r\n\r\n        return (seedAmount, feeAmount);\r\n    }\r\n\r\n    /**\r\n      * @dev                     Claim vested seed tokens.\r\n      * @param _funder           Address of funder to calculate seconds and amount claimable\r\n      * @param _claimAmount      The amount of seed token a users wants to claim.\r\n    */\r\n    function claim(address _funder, uint256 _claimAmount) public allowedToClaim returns(uint256, uint256) {\r\n        uint256 amountClaimable;\r\n\r\n        amountClaimable = calculateClaim(_funder);\r\n        require( amountClaimable > 0, \"Seed: amount claimable is 0\");\r\n        require( amountClaimable >= _claimAmount, \"Seed: request is greater than claimable amount\");\r\n        uint256 feeAmountOnClaim = _claimAmount.mul(fee).div(100);\r\n\r\n        FunderPortfolio memory tokenFunder = funders[_funder];\r\n\r\n        tokenFunder.totalClaimed    = uint256(tokenFunder.totalClaimed.add(_claimAmount));\r\n        tokenFunder.feeClaimed      = tokenFunder.feeClaimed.add(feeAmountOnClaim);\r\n        funders[_funder] = tokenFunder;\r\n        \r\n        seedClaimed    = seedClaimed.add(_claimAmount);\r\n        feeClaimed = feeClaimed.add(feeAmountOnClaim);\r\n        require(seedToken.transfer(beneficiary, feeAmountOnClaim), \"Seed: cannot transfer to beneficiary\");\r\n        require(seedToken.transfer(_funder, _claimAmount), \"Seed: no tokens\");\r\n\r\n        emit TokensClaimed(_funder, _claimAmount, beneficiary, feeAmountOnClaim);\r\n        \r\n        // amount of seed rewarded , fee on the distributed reward collected from admin\r\n        return (_claimAmount, feeAmountOnClaim);\r\n    }\r\n\r\n    /**\r\n      * @dev         Returns funding tokens to user.\r\n    */\r\n    function retrieveFundingTokens() public allowedToRetrieve returns(uint256) {\r\n        require(funders[msg.sender].fundingAmount > 0, \"Seed: zero funding amount\");\r\n        FunderPortfolio memory tokenFunder = funders[msg.sender];\r\n        uint256 fundingAmount = tokenFunder.fundingAmount;\r\n        seedRemainder    = seedRemainder.add(tokenFunder.seedAmount);\r\n        feeRemainder = feeRemainder.add(tokenFunder.fee);\r\n        tokenFunder.seedAmount    = 0;\r\n        tokenFunder.fee           = 0;\r\n        tokenFunder.fundingAmount = 0;\r\n        funders[msg.sender]  = tokenFunder;\r\n        fundingCollected = fundingCollected.sub(fundingAmount);\r\n        require(\r\n            fundingToken.transfer(msg.sender, fundingAmount),\r\n            \"Seed: cannot return funding tokens to msg.sender\"\r\n        );\r\n        emit FundingReclaimed(msg.sender, fundingAmount);\r\n\r\n        return fundingAmount;\r\n    }\r\n\r\n    // ADMIN ACTIONS\r\n\r\n    /**\r\n      * @dev                     Pause distribution.\r\n    */\r\n    function pause() public onlyAdmin isActive {\r\n        paused = true;\r\n    }\r\n\r\n    /**\r\n      * @dev                     Unpause distribution.\r\n    */\r\n    function unpause() public onlyAdmin {\r\n        require(closed != true, \"Seed: should not be closed\");\r\n        require(paused == true, \"Seed: should be paused\");\r\n\r\n        paused = false;\r\n    }\r\n\r\n    /**\r\n      * @dev                     Close distribution.\r\n    */\r\n    function close() public onlyAdmin isActive {\r\n        // transfer seed tokens back to admin\r\n        if(minimumReached){\r\n            // remaining seeds = seedRemainder + feeRemainder\r\n            uint256 seedToTransfer = seedRemainder.add(feeRemainder);\r\n            require(\r\n                seedToken.transfer(admin, seedToTransfer),\r\n                \"Seed: should transfer seed tokens to admin\"\r\n            );\r\n            paused = false;\r\n        } else {\r\n            require(\r\n                seedToken.transfer(admin, seedAmountRequired.add(feeAmountRequired)),\r\n                \"Seed: should transfer seed tokens to admin\"\r\n            );\r\n            closed = true;\r\n            paused = false;\r\n        }\r\n    }\r\n\r\n    /**\r\n      * @dev                     Add address to whitelist.\r\n      * @param _buyer            Address which needs to be whitelisted\r\n    */\r\n    function whitelist(address _buyer) public onlyAdmin isActive {\r\n        require(permissionedSeed == true, \"Seed: module is not whitelisted\");\r\n\r\n        whitelisted[_buyer] = true;\r\n    }\r\n\r\n    /**\r\n      * @dev                     Add multiple addresses to whitelist.\r\n      * @param _buyers           Array of addresses to whitelist addresses in batch\r\n    */\r\n    function whitelistBatch(address[] memory _buyers) public onlyAdmin isActive {\r\n        require(permissionedSeed == true, \"Seed: module is not whitelisted\");\r\n        for (uint256 i=0; i < _buyers.length; i++) {\r\n            whitelisted[_buyers[i]] = true;\r\n        }\r\n    }\r\n\r\n    /**\r\n      * @dev                     Remove address from whitelist.\r\n      * @param buyer             Address which needs to be unwhitelisted\r\n    */\r\n    function unwhitelist(address buyer) public onlyAdmin isActive {\r\n        require(permissionedSeed == true, \"Seed: module is not whitelisted\");\r\n\r\n        whitelisted[buyer] = false;\r\n    }\r\n\r\n    /**\r\n      * @dev                     Withdraw funds from the contract\r\n    */\r\n    function withdraw() public onlyAdmin allowedToWithdraw {\r\n        uint pendingFundingBalance = fundingCollected.sub(fundingWithdrawn);\r\n        fundingWithdrawn = fundingCollected;\r\n        fundingToken.transfer(msg.sender, pendingFundingBalance);\r\n    }\r\n\r\n    /**\r\n      * @dev                     Updates metadata.\r\n      * @param _metadata         Seed contract metadata, that is IPFS Hash\r\n    */\r\n    function updateMetadata(bytes memory _metadata) public {\r\n        require(\r\n            initialized != true || msg.sender == admin,\r\n            \"Seed: contract should not be initialized or caller should be admin\"\r\n        );\r\n        metadata = _metadata;\r\n        emit MetadataUpdated(_metadata);\r\n    }\r\n\r\n    // GETTER FUNCTIONS\r\n    /**\r\n      * @dev                     Calculates the maximum claim\r\n      * @param _funder           Address of funder to find the maximum claim\r\n    */\r\n    function calculateClaim(address _funder) public view returns(uint256) {\r\n        FunderPortfolio memory tokenFunder = funders[_funder];\r\n\r\n        if(_currentTime() < endTime){\r\n            return 0;\r\n        }\r\n\r\n        // Check cliff was reached\r\n        uint256 elapsedSeconds = _currentTime().sub(endTime);\r\n\r\n        if (elapsedSeconds < vestingCliff) {\r\n            return 0;\r\n        }\r\n\r\n        // If over vesting duration, all tokens vested\r\n        if (elapsedSeconds >= vestingDuration) {\r\n            return tokenFunder.seedAmount.sub(tokenFunder.totalClaimed);\r\n        } else {\r\n            uint256 amountVestedPerDay = tokenFunder.seedAmount.div(uint256(vestingDuration));\r\n            uint256 amountVested = uint256(elapsedSeconds.mul(amountVestedPerDay));\r\n            return amountVested.sub(tokenFunder.totalClaimed);\r\n        }\r\n    }\r\n\r\n    /**\r\n      * @dev                     check whitelist status of a buyer\r\n      * @param _buyer            address of buyer to check status\r\n    */\r\n    function checkWhitelisted(address _buyer) public view returns(bool) {\r\n        return whitelisted[_buyer];\r\n    }\r\n\r\n    // INTERNAL FUNCTIONS\r\n    /**\r\n      * @dev                      get current time or block.timestamp\r\n    */\r\n    function _currentTime() internal view returns(uint256) {\r\n        return block.timestamp;\r\n    }\r\n\r\n    /**\r\n      * @dev                      add/update funder portfolio\r\n      * @param _recipient         Address of funder recipient\r\n      * @param _seedAmount        seed amount of the funder\r\n      * @param _fundingAmount     funding amount contributed\r\n      * @param _totalClaimed      total seed token amount claimed\r\n      * @param _fee               fee on seed amount bought\r\n    */\r\n    function _addFunder(\r\n        address _recipient,\r\n        uint256 _seedAmount,\r\n        uint256 _fundingAmount,\r\n        uint256 _totalClaimed,\r\n        uint256 _fee,\r\n        uint256 _feeClaimed\r\n    )\r\n    internal\r\n    {\r\n\r\n        uint256 amountVestedPerSecond = _seedAmount.div(vestingDuration);\r\n        require(amountVestedPerSecond > 0, \"Seed: amountVestedPerSecond > 0\");\r\n\r\n        funders[_recipient] = FunderPortfolio({\r\n            seedAmount: _seedAmount,\r\n            totalClaimed: _totalClaimed,\r\n            fundingAmount: _fundingAmount,\r\n            fee: _fee,\r\n            feeClaimed: _feeClaimed\r\n            });\r\n        totalFunderCount++;\r\n    }\r\n}\r\n",
  "sourcePath": "E:\\curve-labs\\PrimeDAO\\contracts\\contracts\\seed\\Seed.sol",
  "compiler": {
    "name": "solc",
    "version": "0.5.13+commit.5b0b510c.Emscripten.clang"
  },
  "schemaVersion": "3.4.1",
  "updatedAt": "2021-06-10T17:31:55.563Z",
  "networkType": "ethereum",
  "devdoc": {
    "details": "Smart contract for seed phases of liquid launch.",
    "methods": {
      "buy(uint256)": {
        "details": "Buy seed tokens.",
        "params": {
          "_fundingAmount": "The amount of funding tokens to contribute."
        }
      },
      "calculateClaim(address)": {
        "details": "Calculates the maximum claim",
        "params": {
          "_funder": "Address of funder to find the maximum claim"
        }
      },
      "checkWhitelisted(address)": {
        "details": "check whitelist status of a buyer",
        "params": {
          "_buyer": "address of buyer to check status"
        }
      },
      "claim(address,uint256)": {
        "details": "Claim vested seed tokens.",
        "params": {
          "_claimAmount": "The amount of seed token a users wants to claim.",
          "_funder": "Address of funder to calculate seconds and amount claimable"
        }
      },
      "close()": {
        "details": "Close distribution."
      },
      "initialize(address,address,address[],uint256[],uint256,uint256,uint256,uint32,uint32,bool,uint8)": {
        "details": "Initialize Seed.",
        "params": {
          "_admin": "The address of the admin of this contract. Funds contract and has permissions to whitelist users, pause and close contract.",
          "_beneficiary": "The address that recieves fees.",
          "_endTime": "Distribution end time in unix timecode.",
          "_fee": "Success fee expressed as a % (e.g. 2 = 2% fee)",
          "_permissionedSeed": "Set to true if only whitelisted adresses are allowed to participate.",
          "_price": "The price in wei of fundingTokens when exchanged for seedTokens.",
          "_softHardThresholds": "Array containing two params: - the minimum funding token collection threshold in wei denomination. - the highest possible funding token amount to be raised in wei denomination.",
          "_startTime": "Distribution start time in unix timecode.",
          "_tokens": "Array containing two params: - The address of the seed token being distributed.                                - The address of the funding token being exchanged for seed token.",
          "_vestingCliff": "Cliff duration in seconds.",
          "_vestingDuration": "Vesting period duration in seconds."
        }
      },
      "pause()": {
        "details": "Pause distribution."
      },
      "retrieveFundingTokens()": {
        "details": "Returns funding tokens to user."
      },
      "unpause()": {
        "details": "Unpause distribution."
      },
      "unwhitelist(address)": {
        "details": "Remove address from whitelist.",
        "params": {
          "buyer": "Address which needs to be unwhitelisted"
        }
      },
      "updateMetadata(bytes)": {
        "details": "Updates metadata.",
        "params": {
          "_metadata": "Seed contract metadata, that is IPFS Hash"
        }
      },
      "whitelist(address)": {
        "details": "Add address to whitelist.",
        "params": {
          "_buyer": "Address which needs to be whitelisted"
        }
      },
      "whitelistBatch(address[])": {
        "details": "Add multiple addresses to whitelist.",
        "params": {
          "_buyers": "Array of addresses to whitelist addresses in batch"
        }
      },
      "withdraw()": {
        "details": "Withdraw funds from the contract"
      }
    },
    "title": "PrimeDAO Seed contract"
  },
  "userdoc": {
    "methods": {}
  }
}