{
  "contractName": "Seed",
  "abi": [
    {
      "anonymous": false,
      "inputs": [
        {
          "indexed": true,
          "internalType": "address",
          "name": "recipient",
          "type": "address"
        },
        {
          "indexed": false,
          "internalType": "uint256",
          "name": "amountReclaimed",
          "type": "uint256"
        }
      ],
      "name": "FundingReclaimed",
      "type": "event"
    },
    {
      "anonymous": false,
      "inputs": [
        {
          "indexed": true,
          "internalType": "bytes32",
          "name": "metadata",
          "type": "bytes32"
        }
      ],
      "name": "MetadataUpdated",
      "type": "event"
    },
    {
      "anonymous": false,
      "inputs": [
        {
          "indexed": true,
          "internalType": "address",
          "name": "recipient",
          "type": "address"
        },
        {
          "indexed": false,
          "internalType": "uint256",
          "name": "amountPurchased",
          "type": "uint256"
        }
      ],
      "name": "SeedsPurchased",
      "type": "event"
    },
    {
      "anonymous": false,
      "inputs": [
        {
          "indexed": true,
          "internalType": "address",
          "name": "recipient",
          "type": "address"
        },
        {
          "indexed": false,
          "internalType": "uint256",
          "name": "amount",
          "type": "uint256"
        },
        {
          "indexed": true,
          "internalType": "address",
          "name": "beneficiary",
          "type": "address"
        },
        {
          "indexed": false,
          "internalType": "uint256",
          "name": "feeAmount",
          "type": "uint256"
        }
      ],
      "name": "TokensClaimed",
      "type": "event"
    },
    {
      "constant": true,
      "inputs": [],
      "name": "admin",
      "outputs": [
        {
          "internalType": "address",
          "name": "",
          "type": "address"
        }
      ],
      "payable": false,
      "stateMutability": "view",
      "type": "function"
    },
    {
      "constant": true,
      "inputs": [],
      "name": "beneficiary",
      "outputs": [
        {
          "internalType": "address",
          "name": "",
          "type": "address"
        }
      ],
      "payable": false,
      "stateMutability": "view",
      "type": "function"
    },
    {
      "constant": true,
      "inputs": [],
      "name": "closed",
      "outputs": [
        {
          "internalType": "bool",
          "name": "",
          "type": "bool"
        }
      ],
      "payable": false,
      "stateMutability": "view",
      "type": "function"
    },
    {
      "constant": true,
      "inputs": [],
      "name": "endTime",
      "outputs": [
        {
          "internalType": "uint256",
          "name": "",
          "type": "uint256"
        }
      ],
      "payable": false,
      "stateMutability": "view",
      "type": "function"
    },
    {
      "constant": true,
      "inputs": [],
      "name": "fee",
      "outputs": [
        {
          "internalType": "uint8",
          "name": "",
          "type": "uint8"
        }
      ],
      "payable": false,
      "stateMutability": "view",
      "type": "function"
    },
    {
      "constant": true,
      "inputs": [],
      "name": "feeAmountRequired",
      "outputs": [
        {
          "internalType": "uint256",
          "name": "",
          "type": "uint256"
        }
      ],
      "payable": false,
      "stateMutability": "view",
      "type": "function"
    },
    {
      "constant": true,
      "inputs": [],
      "name": "feeClaimed",
      "outputs": [
        {
          "internalType": "uint256",
          "name": "",
          "type": "uint256"
        }
      ],
      "payable": false,
      "stateMutability": "view",
      "type": "function"
    },
    {
      "constant": true,
      "inputs": [],
      "name": "feeRemainder",
      "outputs": [
        {
          "internalType": "uint256",
          "name": "",
          "type": "uint256"
        }
      ],
      "payable": false,
      "stateMutability": "view",
      "type": "function"
    },
    {
      "constant": true,
      "inputs": [
        {
          "internalType": "address",
          "name": "",
          "type": "address"
        }
      ],
      "name": "funders",
      "outputs": [
        {
          "internalType": "uint256",
          "name": "seedAmount",
          "type": "uint256"
        },
        {
          "internalType": "uint256",
          "name": "totalClaimed",
          "type": "uint256"
        },
        {
          "internalType": "uint256",
          "name": "fundingAmount",
          "type": "uint256"
        },
        {
          "internalType": "uint256",
          "name": "fee",
          "type": "uint256"
        },
        {
          "internalType": "uint256",
          "name": "feeClaimed",
          "type": "uint256"
        }
      ],
      "payable": false,
      "stateMutability": "view",
      "type": "function"
    },
    {
      "constant": true,
      "inputs": [],
      "name": "fundingCollected",
      "outputs": [
        {
          "internalType": "uint256",
          "name": "",
          "type": "uint256"
        }
      ],
      "payable": false,
      "stateMutability": "view",
      "type": "function"
    },
    {
      "constant": true,
      "inputs": [],
      "name": "fundingToken",
      "outputs": [
        {
          "internalType": "contract IERC20",
          "name": "",
          "type": "address"
        }
      ],
      "payable": false,
      "stateMutability": "view",
      "type": "function"
    },
    {
      "constant": true,
      "inputs": [],
      "name": "fundingWithdrawn",
      "outputs": [
        {
          "internalType": "uint256",
          "name": "",
          "type": "uint256"
        }
      ],
      "payable": false,
      "stateMutability": "view",
      "type": "function"
    },
    {
      "constant": true,
      "inputs": [],
      "name": "hardCap",
      "outputs": [
        {
          "internalType": "uint256",
          "name": "",
          "type": "uint256"
        }
      ],
      "payable": false,
      "stateMutability": "view",
      "type": "function"
    },
    {
      "constant": true,
      "inputs": [],
      "name": "initialized",
      "outputs": [
        {
          "internalType": "bool",
          "name": "",
          "type": "bool"
        }
      ],
      "payable": false,
      "stateMutability": "view",
      "type": "function"
    },
    {
      "constant": true,
      "inputs": [],
      "name": "isFunded",
      "outputs": [
        {
          "internalType": "bool",
          "name": "",
          "type": "bool"
        }
      ],
      "payable": false,
      "stateMutability": "view",
      "type": "function"
    },
    {
      "constant": true,
      "inputs": [],
      "name": "maximumReached",
      "outputs": [
        {
          "internalType": "bool",
          "name": "",
          "type": "bool"
        }
      ],
      "payable": false,
      "stateMutability": "view",
      "type": "function"
    },
    {
      "constant": true,
      "inputs": [],
      "name": "metadata",
      "outputs": [
        {
          "internalType": "bytes32",
          "name": "",
          "type": "bytes32"
        }
      ],
      "payable": false,
      "stateMutability": "view",
      "type": "function"
    },
    {
      "constant": true,
      "inputs": [],
      "name": "minimumReached",
      "outputs": [
        {
          "internalType": "bool",
          "name": "",
          "type": "bool"
        }
      ],
      "payable": false,
      "stateMutability": "view",
      "type": "function"
    },
    {
      "constant": true,
      "inputs": [],
      "name": "paused",
      "outputs": [
        {
          "internalType": "bool",
          "name": "",
          "type": "bool"
        }
      ],
      "payable": false,
      "stateMutability": "view",
      "type": "function"
    },
    {
      "constant": true,
      "inputs": [],
      "name": "permissionedSeed",
      "outputs": [
        {
          "internalType": "bool",
          "name": "",
          "type": "bool"
        }
      ],
      "payable": false,
      "stateMutability": "view",
      "type": "function"
    },
    {
      "constant": true,
      "inputs": [],
      "name": "price",
      "outputs": [
        {
          "internalType": "uint256",
          "name": "",
          "type": "uint256"
        }
      ],
      "payable": false,
      "stateMutability": "view",
      "type": "function"
    },
    {
      "constant": true,
      "inputs": [],
      "name": "seedAmountRequired",
      "outputs": [
        {
          "internalType": "uint256",
          "name": "",
          "type": "uint256"
        }
      ],
      "payable": false,
      "stateMutability": "view",
      "type": "function"
    },
    {
      "constant": true,
      "inputs": [],
      "name": "seedClaimed",
      "outputs": [
        {
          "internalType": "uint256",
          "name": "",
          "type": "uint256"
        }
      ],
      "payable": false,
      "stateMutability": "view",
      "type": "function"
    },
    {
      "constant": true,
      "inputs": [],
      "name": "seedRemainder",
      "outputs": [
        {
          "internalType": "uint256",
          "name": "",
          "type": "uint256"
        }
      ],
      "payable": false,
      "stateMutability": "view",
      "type": "function"
    },
    {
      "constant": true,
      "inputs": [],
      "name": "seedToken",
      "outputs": [
        {
          "internalType": "contract IERC20",
          "name": "",
          "type": "address"
        }
      ],
      "payable": false,
      "stateMutability": "view",
      "type": "function"
    },
    {
      "constant": true,
      "inputs": [],
      "name": "softCap",
      "outputs": [
        {
          "internalType": "uint256",
          "name": "",
          "type": "uint256"
        }
      ],
      "payable": false,
      "stateMutability": "view",
      "type": "function"
    },
    {
      "constant": true,
      "inputs": [],
      "name": "startTime",
      "outputs": [
        {
          "internalType": "uint256",
          "name": "",
          "type": "uint256"
        }
      ],
      "payable": false,
      "stateMutability": "view",
      "type": "function"
    },
    {
      "constant": true,
      "inputs": [],
      "name": "totalFunderCount",
      "outputs": [
        {
          "internalType": "uint256",
          "name": "",
          "type": "uint256"
        }
      ],
      "payable": false,
      "stateMutability": "view",
      "type": "function"
    },
    {
      "constant": true,
      "inputs": [],
      "name": "vestingCliff",
      "outputs": [
        {
          "internalType": "uint32",
          "name": "",
          "type": "uint32"
        }
      ],
      "payable": false,
      "stateMutability": "view",
      "type": "function"
    },
    {
      "constant": true,
      "inputs": [],
      "name": "vestingDuration",
      "outputs": [
        {
          "internalType": "uint32",
          "name": "",
          "type": "uint32"
        }
      ],
      "payable": false,
      "stateMutability": "view",
      "type": "function"
    },
    {
      "constant": true,
      "inputs": [
        {
          "internalType": "address",
          "name": "",
          "type": "address"
        }
      ],
      "name": "whitelisted",
      "outputs": [
        {
          "internalType": "bool",
          "name": "",
          "type": "bool"
        }
      ],
      "payable": false,
      "stateMutability": "view",
      "type": "function"
    },
    {
      "constant": false,
      "inputs": [
        {
          "internalType": "address",
          "name": "_beneficiary",
          "type": "address"
        },
        {
          "internalType": "address",
          "name": "_admin",
          "type": "address"
        },
        {
          "internalType": "address[]",
          "name": "_tokens",
          "type": "address[]"
        },
        {
          "internalType": "uint256[]",
          "name": "_softHardThresholds",
          "type": "uint256[]"
        },
        {
          "internalType": "uint256",
          "name": "_price",
          "type": "uint256"
        },
        {
          "internalType": "uint256",
          "name": "_startTime",
          "type": "uint256"
        },
        {
          "internalType": "uint256",
          "name": "_endTime",
          "type": "uint256"
        },
        {
          "internalType": "uint32",
          "name": "_vestingDuration",
          "type": "uint32"
        },
        {
          "internalType": "uint32",
          "name": "_vestingCliff",
          "type": "uint32"
        },
        {
          "internalType": "bool",
          "name": "_permissionedSeed",
          "type": "bool"
        },
        {
          "internalType": "uint8",
          "name": "_fee",
          "type": "uint8"
        }
      ],
      "name": "initialize",
      "outputs": [],
      "payable": false,
      "stateMutability": "nonpayable",
      "type": "function"
    },
    {
      "constant": false,
      "inputs": [
        {
          "internalType": "uint256",
          "name": "_fundingAmount",
          "type": "uint256"
        }
      ],
      "name": "buy",
      "outputs": [
        {
          "internalType": "uint256",
          "name": "",
          "type": "uint256"
        },
        {
          "internalType": "uint256",
          "name": "",
          "type": "uint256"
        }
      ],
      "payable": false,
      "stateMutability": "nonpayable",
      "type": "function"
    },
    {
      "constant": false,
      "inputs": [
        {
          "internalType": "address",
          "name": "_funder",
          "type": "address"
        },
        {
          "internalType": "uint256",
          "name": "_claimAmount",
          "type": "uint256"
        }
      ],
      "name": "claim",
      "outputs": [
        {
          "internalType": "uint256",
          "name": "",
          "type": "uint256"
        },
        {
          "internalType": "uint256",
          "name": "",
          "type": "uint256"
        }
      ],
      "payable": false,
      "stateMutability": "nonpayable",
      "type": "function"
    },
    {
      "constant": false,
      "inputs": [],
      "name": "retrieveFundingTokens",
      "outputs": [
        {
          "internalType": "uint256",
          "name": "",
          "type": "uint256"
        }
      ],
      "payable": false,
      "stateMutability": "nonpayable",
      "type": "function"
    },
    {
      "constant": false,
      "inputs": [],
      "name": "pause",
      "outputs": [],
      "payable": false,
      "stateMutability": "nonpayable",
      "type": "function"
    },
    {
      "constant": false,
      "inputs": [],
      "name": "unpause",
      "outputs": [],
      "payable": false,
      "stateMutability": "nonpayable",
      "type": "function"
    },
    {
      "constant": false,
      "inputs": [],
      "name": "close",
      "outputs": [],
      "payable": false,
      "stateMutability": "nonpayable",
      "type": "function"
    },
    {
      "constant": false,
      "inputs": [
        {
          "internalType": "address",
          "name": "_buyer",
          "type": "address"
        }
      ],
      "name": "whitelist",
      "outputs": [],
      "payable": false,
      "stateMutability": "nonpayable",
      "type": "function"
    },
    {
      "constant": false,
      "inputs": [
        {
          "internalType": "address[]",
          "name": "_buyers",
          "type": "address[]"
        }
      ],
      "name": "whitelistBatch",
      "outputs": [],
      "payable": false,
      "stateMutability": "nonpayable",
      "type": "function"
    },
    {
      "constant": false,
      "inputs": [
        {
          "internalType": "address",
          "name": "buyer",
          "type": "address"
        }
      ],
      "name": "unwhitelist",
      "outputs": [],
      "payable": false,
      "stateMutability": "nonpayable",
      "type": "function"
    },
    {
      "constant": false,
      "inputs": [],
      "name": "withdraw",
      "outputs": [],
      "payable": false,
      "stateMutability": "nonpayable",
      "type": "function"
    },
    {
      "constant": false,
      "inputs": [
        {
          "internalType": "bytes32",
          "name": "_metadata",
          "type": "bytes32"
        }
      ],
      "name": "updateMetadata",
      "outputs": [],
      "payable": false,
      "stateMutability": "nonpayable",
      "type": "function"
    },
    {
      "constant": true,
      "inputs": [
        {
          "internalType": "address",
          "name": "_funder",
          "type": "address"
        }
      ],
      "name": "calculateClaim",
      "outputs": [
        {
          "internalType": "uint256",
          "name": "",
          "type": "uint256"
        }
      ],
      "payable": false,
      "stateMutability": "view",
      "type": "function"
    },
    {
      "constant": true,
      "inputs": [
        {
          "internalType": "address",
          "name": "_buyer",
          "type": "address"
        }
      ],
      "name": "checkWhitelisted",
      "outputs": [
        {
          "internalType": "bool",
          "name": "",
          "type": "bool"
        }
      ],
      "payable": false,
      "stateMutability": "view",
      "type": "function"
    }
  ],
  "bytecode": "0x608060405234801561001057600080fd5b50612bc0806100206000396000f3fe608060405234801561001057600080fd5b506004361061027f5760003560e01c806378e979251161015c578063bc0f5f84116100ce578063e6e36ebb11610087578063e6e36ebb146106bf578063ea345540146106c7578063eaa53523146106ed578063f3640e741461078e578063f851a44014610796578063fb86a4041461079e5761027f565b8063bc0f5f84146104de578063d8039364146104e6578063d936547e14610656578063d96a094a1461067c578063ddca3f4314610699578063e565eb4c146106b75761027f565b8063906a26e011610120578063906a26e0146104355780639a5904271461043d5780639b19251a14610463578063a035b1fe14610489578063aad3ec9614610491578063b774682f146104d65761027f565b806378e979251461040d5780637c6543031461041557806383d59e001461041d5780638456cb59146104255780638a2448aa1461042d5761027f565b80633ccfd60b116101f55780634f2d7778116101b95780634f2d7778146103c8578063597e1fb5146103e55780635c975abb146103ed5780635e9777e8146103f557806371f4b8e8146103fd57806378065f27146104055761027f565b80633ccfd60b1461039e5780633dba9e41146103a85780633f4ba83a146103b057806343d726d6146103b857806347d02f1b146103c05761027f565b80631cfe562e116102475780631cfe562e1461033457806320d8dad01461033c578063311f8483146103625780633197cbb61461038657806338af3eed1461038e578063392f37e9146103965761027f565b8063031b3677146102845780630826d2c7146102d5578063117a36d1146102ef5780631514617e1461030b578063158ef93e1461032c575b600080fd5b6102aa6004803603602081101561029a57600080fd5b50356001600160a01b03166107a6565b6040805195865260208601949094528484019290925260608401526080830152519081900360a00190f35b6102dd6107d5565b60408051918252519081900360200190f35b6102f76107db565b604080519115158252519081900360200190f35b6103136107eb565b6040805163ffffffff9092168252519081900360200190f35b6102f76107fc565b6102dd61080c565b6102f76004803603602081101561035257600080fd5b50356001600160a01b0316610812565b61036a610834565b604080516001600160a01b039092168252519081900360200190f35b6102dd61084a565b61036a610850565b6102dd61085f565b6103a6610865565b005b6102f7610a40565b6103a6610a49565b6103a6610b49565b6102dd610e3b565b6103a6600480360360208110156103de57600080fd5b5035610e41565b6102f7610ed7565b6102f7610ee0565b6102dd610eee565b6102dd610ef4565b61036a610efa565b6102dd610f09565b6102f7610f0f565b6102dd610f1e565b6103a6610f24565b6102dd61101e565b6102dd611352565b6103a66004803603602081101561045357600080fd5b50356001600160a01b0316611358565b6103a66004803603602081101561047957600080fd5b50356001600160a01b03166114be565b6102dd611627565b6104bd600480360360408110156104a757600080fd5b506001600160a01b03813516906020013561162d565b6040805192835260208301919091528051918290030190f35b6102dd611a95565b6102dd611a9b565b6103a660048036036101608110156104fd57600080fd5b6001600160a01b038235811692602081013590911691810190606081016040820135600160201b81111561053057600080fd5b82018360208201111561054257600080fd5b803590602001918460208302840111600160201b8311171561056357600080fd5b9190808060200260200160405190810160405280939291908181526020018383602002808284376000920191909152509295949360208101935035915050600160201b8111156105b257600080fd5b8201836020820111156105c457600080fd5b803590602001918460208302840111600160201b831117156105e557600080fd5b91908080602002602001604051908101604052809392919081815260200183836020028082843760009201919091525092955050823593505050602081013590604081013590606081013563ffffffff9081169160808101359091169060a081013515159060c0013560ff16611aa1565b6102f76004803603602081101561066c57600080fd5b50356001600160a01b0316611ca1565b6104bd6004803603602081101561069257600080fd5b5035611cb6565b6106a1612274565b6040805160ff9092168252519081900360200190f35b6102f7612284565b6102dd612294565b6102dd600480360360208110156106dd57600080fd5b50356001600160a01b031661229a565b6103a66004803603602081101561070357600080fd5b810190602081018135600160201b81111561071d57600080fd5b82018360208201111561072f57600080fd5b803590602001918460208302840111600160201b8311171561075057600080fd5b9190808060200260200160405190810160405280939291908181526020018383602002808284376000920191909152509295506123c6945050505050565b610313612567565b61036a61257a565b6102dd612589565b601560205260009081526040902080546001820154600283015460038401546004909401549293919290919085565b600e5481565b600c54600160281b900460ff1681565b600954610100900463ffffffff1681565b600c546301000000900460ff1681565b60125481565b6001600160a01b03811660009081526014602052604090205460ff165b919050565b600954600160481b90046001600160a01b031681565b60085481565b6000546001600160a01b031681565b600b5481565b6001546001600160a01b031633146108b2576040805162461bcd60e51b815260206004820152601c60248201526000805160206128e7833981519152604482015290519081900360640190fd5b600c5460ff61010090910416151560011415610903576040805162461bcd60e51b815260206004820152601a6024820152600080516020612b6c833981519152604482015290519081900360640190fd5b600c5460ff1615156001141561094e576040805162461bcd60e51b815260206004820152601a60248201526000805160206129cc833981519152604482015290519081900360640190fd5b600c54600160201b900460ff16151560011461099b5760405162461bcd60e51b8152600401808060200182810382526024815260200180612b246024913960400191505060405180910390fd5b60006109b460135460125461258f90919063ffffffff16565b601254601355600a546040805163a9059cbb60e01b81523360048201526024810184905290519293506001600160a01b039091169163a9059cbb916044808201926020929091908290030181600087803b158015610a1157600080fd5b505af1158015610a25573d6000803e3d6000fd5b505050506040513d6020811015610a3b57600080fd5b505050565b60095460ff1681565b6001546001600160a01b03163314610a96576040805162461bcd60e51b815260206004820152601c60248201526000805160206128e7833981519152604482015290519081900360640190fd5b600c5460ff16151560011415610ae1576040805162461bcd60e51b815260206004820152601a60248201526000805160206129cc833981519152604482015290519081900360640190fd5b600c5460ff610100909104161515600114610b3c576040805162461bcd60e51b815260206004820152601660248201527514d959590e881cda1bdd5b19081899481c185d5cd95960521b604482015290519081900360640190fd5b600c805461ff0019169055565b6001546001600160a01b03163314610b96576040805162461bcd60e51b815260206004820152601c60248201526000805160206128e7833981519152604482015290519081900360640190fd5b600c5460ff16151560011415610be1576040805162461bcd60e51b815260206004820152601a60248201526000805160206129cc833981519152604482015290519081900360640190fd5b600c5460ff61010090910416151560011415610c32576040805162461bcd60e51b815260206004820152601a6024820152600080516020612b6c833981519152604482015290519081900360640190fd5b600c54600160201b900460ff1615610d37576000610c5d601054600e546125da90919063ffffffff16565b6009546001546040805163a9059cbb60e01b81526001600160a01b039283166004820152602481018590529051939450600160481b909204169163a9059cbb916044808201926020929091908290030181600087803b158015610cbf57600080fd5b505af1158015610cd3573d6000803e3d6000fd5b505050506040513d6020811015610ce957600080fd5b5051610d265760405162461bcd60e51b815260040180806020018281038252602a815260200180612a93602a913960400191505060405180910390fd5b50600c805461ff0019169055610e39565b6009546001546005546004546001600160a01b03600160481b90940484169363a9059cbb931691610d6e919063ffffffff6125da16565b6040518363ffffffff1660e01b815260040180836001600160a01b03166001600160a01b0316815260200182815260200192505050602060405180830381600087803b158015610dbd57600080fd5b505af1158015610dd1573d6000803e3d6000fd5b505050506040513d6020811015610de757600080fd5b5051610e245760405162461bcd60e51b815260040180806020018281038252602a815260200180612a93602a913960400191505060405180910390fd5b600c805461ff001960ff199091166001171690555b565b600f5481565b600c546301000000900460ff1615156001141580610e6957506001546001600160a01b031633145b610ea45760405162461bcd60e51b815260040180806020018281038252604281526020018061295f6042913960600191505060405180910390fd5b600b81905560405181907f6e27af24ead46b4b469e383b46b4b75487fcf1ffce54d216add332f9de2120c590600090a250565b600c5460ff1681565b600c54610100900460ff1681565b600d5481565b60115481565b600a546001600160a01b031681565b60075481565b600c5462010000900460ff1681565b60135481565b6001546001600160a01b03163314610f71576040805162461bcd60e51b815260206004820152601c60248201526000805160206128e7833981519152604482015290519081900360640190fd5b600c5460ff16151560011415610fbc576040805162461bcd60e51b815260206004820152601a60248201526000805160206129cc833981519152604482015290519081900360640190fd5b600c5460ff6101009091041615156001141561100d576040805162461bcd60e51b815260206004820152601a6024820152600080516020612b6c833981519152604482015290519081900360640190fd5b600c805461ff001916610100179055565b600c5460009060ff61010090910416151560011415611072576040805162461bcd60e51b815260206004820152601a6024820152600080516020612b6c833981519152604482015290519081900360640190fd5b4260075411156110b35760405162461bcd60e51b8152600401808060200182810382526022815260200180612adf6022913960400191505060405180910390fd5b600c54600160201b900460ff1615611112576040805162461bcd60e51b815260206004820152601960248201527f536565643a206d696e696d756d20616c7265616479206d657400000000000000604482015290519081900360640190fd5b33600090815260156020526040902060020154611176576040805162461bcd60e51b815260206004820152601960248201527f536565643a207a65726f2066756e64696e6720616d6f756e7400000000000000604482015290519081900360640190fd5b61117e6128b7565b5033600090815260156020908152604091829020825160a08101845281548082526001830154938201939093526002820154938101849052600382015460608201526004909101546080820152600e549092916111e1919063ffffffff6125da16565b600e5560608201516010546111fb9163ffffffff6125da16565b6010556000808352606083018181526040808501838152338452601560209081529190932085518155908501516001820155915160028301555160038201556080830151600490910155601254611258908263ffffffff61258f16565b601255600a546040805163a9059cbb60e01b81523360048201526024810184905290516001600160a01b039092169163a9059cbb916044808201926020929091908290030181600087803b1580156112af57600080fd5b505af11580156112c3573d6000803e3d6000fd5b505050506040513d60208110156112d957600080fd5b50516113165760405162461bcd60e51b81526004018080602001828103825260308152602001806129ec6030913960400191505060405180910390fd5b60408051828152905133917f1a689b1a62e3bb77f9c98d8759c04f341a67deb5cc63cf53be8324b691064950919081900360200190a291505090565b60025481565b6001546001600160a01b031633146113a5576040805162461bcd60e51b815260206004820152601c60248201526000805160206128e7833981519152604482015290519081900360640190fd5b600c5460ff161515600114156113f0576040805162461bcd60e51b815260206004820152601a60248201526000805160206129cc833981519152604482015290519081900360640190fd5b600c5460ff61010090910416151560011415611441576040805162461bcd60e51b815260206004820152601a6024820152600080516020612b6c833981519152604482015290519081900360640190fd5b60095460ff16151560011461149d576040805162461bcd60e51b815260206004820152601f60248201527f536565643a206d6f64756c65206973206e6f742077686974656c697374656400604482015290519081900360640190fd5b6001600160a01b03166000908152601460205260409020805460ff19169055565b6001546001600160a01b0316331461150b576040805162461bcd60e51b815260206004820152601c60248201526000805160206128e7833981519152604482015290519081900360640190fd5b600c5460ff16151560011415611556576040805162461bcd60e51b815260206004820152601a60248201526000805160206129cc833981519152604482015290519081900360640190fd5b600c5460ff610100909104161515600114156115a7576040805162461bcd60e51b815260206004820152601a6024820152600080516020612b6c833981519152604482015290519081900360640190fd5b60095460ff161515600114611603576040805162461bcd60e51b815260206004820152601f60248201527f536565643a206d6f64756c65206973206e6f742077686974656c697374656400604482015290519081900360640190fd5b6001600160a01b03166000908152601460205260409020805460ff19166001179055565b60065481565b600080600c60049054906101000a900460ff16151560011515146116825760405162461bcd60e51b8152600401808060200182810382526024815260200180612b246024913960400191505060405180910390fd5b426008541115806116a15750600c54600160281b900460ff1615156001145b6116dc5760405162461bcd60e51b815260040180806020018281038252602b8152602001806129a1602b913960400191505060405180910390fd5b60006116e78561229a565b90506000811161173e576040805162461bcd60e51b815260206004820152601b60248201527f536565643a20616d6f756e7420636c61696d61626c6520697320300000000000604482015290519081900360640190fd5b8381101561177d5760405162461bcd60e51b815260040180806020018281038252602e815260200180612907602e913960400191505060405180910390fd5b600a546000906117ab9060649061179f908890600160a01b900460ff16612634565b9063ffffffff61268d16565b90506117b56128b7565b506001600160a01b038616600090815260156020908152604091829020825160a08101845281548152600182015492810183905260028201549381019390935260038101546060840152600401546080830152611818908763ffffffff6125da16565b60208201526080810151611832908363ffffffff6125da16565b608082019081526001600160a01b03881660009081526015602090815260409182902084518155908401516001820155908301516002820155606083015160038201559051600490910155600f54611890908763ffffffff6125da16565b600f556011546118a6908363ffffffff6125da16565b601155600954600080546040805163a9059cbb60e01b81526001600160a01b039283166004820152602481018790529051600160481b9094049091169263a9059cbb92604480840193602093929083900390910190829087803b15801561190c57600080fd5b505af1158015611920573d6000803e3d6000fd5b505050506040513d602081101561193657600080fd5b50516119735760405162461bcd60e51b8152600401808060200182810382526024815260200180612b486024913960400191505060405180910390fd5b6009546040805163a9059cbb60e01b81526001600160a01b038a81166004830152602482018a90529151600160481b9093049091169163a9059cbb916044808201926020929091908290030181600087803b1580156119d157600080fd5b505af11580156119e5573d6000803e3d6000fd5b505050506040513d60208110156119fb57600080fd5b5051611a40576040805162461bcd60e51b815260206004820152600f60248201526e536565643a206e6f20746f6b656e7360881b604482015290519081900360640190fd5b600054604080518881526020810185905281516001600160a01b03938416938b16927f9bd10be98695714f5cb43cefb59ba6417808b354710acafafe05e81b26492231928290030190a3509395939450505050565b60105481565b60045481565b600c546301000000900460ff1615611aea5760405162461bcd60e51b8152600401808060200182810382526022815260200180612abd6022913960400191505060405180910390fd5b600c805463ff00000019166301000000179055600080546001600160a01b03808e166001600160a01b031992831617835560018054918e16919092161790558851899190611b3457fe5b602002602001015160028190555087600181518110611b4f57fe5b60209081029190910101516003556006879055600786905560088590556009805464ffffffff00191661010063ffffffff878116919091029190911768ffffffff00000000001916600160281b918616919091021760ff191683151517905588518990600090611bbb57fe5b60200260200101516009806101000a8154816001600160a01b0302191690836001600160a01b0316021790555088600181518110611bf557fe5b6020908102919091010151600a80546001600160a01b0319166001600160a01b039092169190911760ff60a01b1916600160a01b60ff841602179055600c805465ffff000000ff19169055600354611c6790670de0b6b3a764000090611c5b908a61268d565b9063ffffffff61263416565b6004819055611c869060649061179f9060ff851663ffffffff61263416565b6005819055600454600e556010555050505050505050505050565b60146020526000908152604090205460ff1681565b600c54600090819060ff16151560011415611d06576040805162461bcd60e51b815260206004820152601a60248201526000805160206129cc833981519152604482015290519081900360640190fd5b600c5460ff61010090910416151560011415611d57576040805162461bcd60e51b815260206004820152601a6024820152600080516020612b6c833981519152604482015290519081900360640190fd5b600c54600160281b900460ff1615611db6576040805162461bcd60e51b815260206004820152601d60248201527f536565643a206d6178696d756d2066756e64696e672072656163686564000000604482015290519081900360640190fd5b60095460ff1615156001141580611de157503360009081526014602052604090205460ff1615156001145b611e32576040805162461bcd60e51b815260206004820152601a60248201527f536565643a2073656e64657220686173206e6f20726967687473000000000000604482015290519081900360640190fd5b4260085410158015611e4657504260075411155b611e815760405162461bcd60e51b815260040180806020018281038252602d815260200180612a45602d913960400191505060405180910390fd5b600c5462010000900460ff16611f7257600554600454611ea69163ffffffff6125da16565b600954604080516370a0823160e01b81523060048201529051600160481b9092046001600160a01b0316916370a0823191602480820192602092909190829003018186803b158015611ef757600080fd5b505afa158015611f0b573d6000803e3d6000fd5b505050506040513d6020811015611f2157600080fd5b50511015611f605760405162461bcd60e51b8152600401808060200182810382526023815260200180612b016023913960400191505060405180910390fd5b600c805462ff00001916620100001790555b600654600090611f949061179f86670de0b6b3a764000063ffffffff61263416565b601254600a5491925090600090611fbd9060649061179f908690600160a01b900460ff16612634565b600354909150611fd3838863ffffffff6125da16565b11156120105760405162461bcd60e51b815260040180806020018281038252602a815260200180612935602a913960400191505060405180910390fd5b82600e541015801561202457508060105410155b61205f5760405162461bcd60e51b8152600401808060200182810382526029815260200180612a1c6029913960400191505060405180910390fd5b61206f828763ffffffff6125da16565b601255600e54612085908463ffffffff61258f16565b600e5560105461209b908263ffffffff61258f16565b601055600a54604080516323b872dd60e01b81523360048201523060248201526044810189905290516001600160a01b03909216916323b872dd916064808201926020929091908290030181600087803b1580156120f857600080fd5b505af115801561210c573d6000803e3d6000fd5b505050506040513d602081101561212257600080fd5b5051612167576040805162461bcd60e51b815260206004820152600f60248201526e536565643a206e6f20746f6b656e7360881b604482015290519081900360640190fd5b6002546012541061218757600c805464ff000000001916600160201b1790555b600354601254106121a857600c805465ff00000000001916600160281b1790555b3360008181526015602052604090205461223291906121cd908663ffffffff6125da16565b336000908152601560205260409020600201546121f0908a63ffffffff6125da16565b336000908152601560205260409020600181015460039091015461221a908763ffffffff6125da16565b336000908152601560205260409020600401546126cf565b60408051848152905133917fcf5ef2b227e797b567f0df4c49cc8b6207cfb60054eb899e5608de08e5dcb1ef919081900360200190a291935090915050915091565b600a54600160a01b900460ff1681565b600c54600160201b900460ff1681565b60055481565b60006122a46128b7565b506001600160a01b0382166000908152601560209081526040808320815160a0810183528154815260018201549381019390935260028101549183019190915260038101546060830152600401546080820152600754909190612315906123096127b7565b9063ffffffff61258f16565b600954909150600160281b900463ffffffff1681101561233a5760009250505061082f565b600954610100900463ffffffff16811061236d57602082015182516123649163ffffffff61258f16565b9250505061082f565b600954825160009161238e919063ffffffff61010090910481169061268d16565b905060006123a2838363ffffffff61263416565b90506123bb84602001518261258f90919063ffffffff16565b94505050505061082f565b6001546001600160a01b03163314612413576040805162461bcd60e51b815260206004820152601c60248201526000805160206128e7833981519152604482015290519081900360640190fd5b600c5460ff1615156001141561245e576040805162461bcd60e51b815260206004820152601a60248201526000805160206129cc833981519152604482015290519081900360640190fd5b600c5460ff610100909104161515600114156124af576040805162461bcd60e51b815260206004820152601a6024820152600080516020612b6c833981519152604482015290519081900360640190fd5b60095460ff16151560011461250b576040805162461bcd60e51b815260206004820152601f60248201527f536565643a206d6f64756c65206973206e6f742077686974656c697374656400604482015290519081900360640190fd5b60005b81518110156125635760016014600084848151811061252957fe5b6020908102919091018101516001600160a01b03168252810191909152604001600020805460ff191691151591909117905560010161250e565b5050565b600954600160281b900463ffffffff1681565b6001546001600160a01b031681565b60035481565b60006125d183836040518060400160405280601e81526020017f536166654d6174683a207375627472616374696f6e206f766572666c6f7700008152506127bb565b90505b92915050565b6000828201838110156125d1576040805162461bcd60e51b815260206004820152601b60248201527f536166654d6174683a206164646974696f6e206f766572666c6f770000000000604482015290519081900360640190fd5b600082612643575060006125d4565b8282028284828161265057fe5b04146125d15760405162461bcd60e51b8152600401808060200182810382526021815260200180612a726021913960400191505060405180910390fd5b60006125d183836040518060400160405280601a81526020017f536166654d6174683a206469766973696f6e206279207a65726f000000000000815250612852565b6009546000906126ef90879063ffffffff61010090910481169061268d16565b905060008111612746576040805162461bcd60e51b815260206004820152601f60248201527f536565643a20616d6f756e745665737465645065725365636f6e64203e203000604482015290519081900360640190fd5b506040805160a081018252958652602080870194855286820195865260608701938452608087019283526001600160a01b0390971660009081526015909752909520935184559051600180850191909155915160028401555160038301559151600490910155600d80549091019055565b4290565b6000818484111561284a5760405162461bcd60e51b81526004018080602001828103825283818151815260200191508051906020019080838360005b8381101561280f5781810151838201526020016127f7565b50505050905090810190601f16801561283c5780820380516001836020036101000a031916815260200191505b509250505060405180910390fd5b505050900390565b600081836128a15760405162461bcd60e51b815260206004820181815283516024840152835190928392604490910191908501908083836000831561280f5781810151838201526020016127f7565b5060008385816128ad57fe5b0495945050505050565b6040518060a001604052806000815260200160008152602001600081526020016000815260200160008152509056fe536565643a2063616c6c65722073686f756c642062652061646d696e00000000536565643a20726571756573742069732067726561746572207468616e20636c61696d61626c6520616d6f756e74536565643a20616d6f756e74206578636565647320636f6e74726163742073616c652068617264436170536565643a20636f6e74726163742073686f756c64206e6f7420626520696e697469616c697a6564206f722063616c6c65722073686f756c642062652061646d696e536565643a2074686520646973747269627574696f6e20686173206e6f74207965742066696e6973686564536565643a2073686f756c64206e6f7420626520636c6f736564000000000000536565643a2063616e6e6f742072657475726e2066756e64696e6720746f6b656e7320746f206d73672e73656e646572536565643a207365656420646973747269627574696f6e20776f756c64206265206578636565646564536565643a206f6e6c7920616c6c6f77656420647572696e6720646973747269627574696f6e20706572696f64536166654d6174683a206d756c7469706c69636174696f6e206f766572666c6f77536565643a2073686f756c64207472616e73666572207365656420746f6b656e7320746f2061646d696e536565643a20636f6e747261637420616c726561647920696e697469616c697a6564536565643a20646973747269627574696f6e20686176656e27742073746172746564536565643a2073756666696369656e74207365656473206e6f742070726f7669646564536565643a206d696e696d756d2066756e64696e6720616d6f756e74206e6f74206d6574536565643a2063616e6e6f74207472616e7366657220746f2062656e6566696369617279536565643a2073686f756c64206e6f7420626520706175736564000000000000a265627a7a72315820cf2f283fe6c8be6092d2113c0f34012efc913155bb43a80bf8f519428c619ec564736f6c634300050d0032",
  "source": "/*\r\n\r\n\r\n\r\n\r\n\r\n\r\n\r\n\r\n*/\r\n\r\n// SPDX-License-Identifier: GPL-3.0-or-later\r\n/* solhint-disable space-after-comma */\r\n/* solhint-disable max-states-count */\r\npragma solidity 0.5.13;\r\n\r\nimport \"openzeppelin-solidity/contracts/token/ERC20/IERC20.sol\";\r\nimport \"openzeppelin-solidity/contracts/math/SafeMath.sol\";\r\n\r\n\r\n/**\r\n * @title primebeneSeed contract\r\n * @dev   Smart contract for seed phases of liquid launch.\r\n */\r\ncontract Seed {\r\n    using SafeMath for uint256;\r\n    using SafeMath for uint32;\r\n    using SafeMath for uint8;\r\n\r\n    // Locked parameters\r\n    address public beneficiary;\r\n    address public admin;\r\n    uint256 public softCap;\r\n    uint256 public hardCap;\r\n    uint256 public seedAmountRequired;    // Amount of seed required for distribution\r\n    uint256 public feeAmountRequired;    // Amount of seed required for fee\r\n    uint256 public price;\r\n    uint256 public startTime;\r\n    uint256 public endTime;\r\n    bool    public permissionedSeed;\r\n    uint32  public vestingDuration;\r\n    uint32  public vestingCliff;\r\n    IERC20  public seedToken;\r\n    IERC20  public fundingToken;\r\n    uint8   public fee;\r\n\r\n    bytes32 public metadata;           // IPFS Hash\r\n\r\n    uint256 constant internal PCT_BASE        = 10 ** 18;  // // 0% = 0; 1% = 10 ** 16; 100% = 10 ** 18\r\n\r\n    // Contract logic\r\n    bool    public closed;                 // is the distribution closed\r\n    bool    public paused;                 // is the distribution paused\r\n    bool    public isFunded;               // distribution can only start when required seed tokens have been funded\r\n    bool    public initialized;            // is this contract initialized [not necessary that it is funded]\r\n    bool    public minimumReached;         // // if the softCap[minimum limit of funding token] is reached\r\n    bool    public maximumReached;         // if the hardCap[maximum limit of funding token] is reached\r\n    uint256 public totalFunderCount;       // Total funders that have contributed.\r\n    uint256 public seedRemainder;          // Amount of seed tokens remaining to be distributed\r\n    uint256 public seedClaimed;            // Amount of seed token claimed by the user.\r\n    uint256 public feeRemainder;       // Amount of seed tokens remaining for the fee\r\n    uint256 public feeClaimed;         // Amount of seed tokens claimed as fee\r\n    uint256 public fundingCollected;       // Amount of funding tokens collected by the seed contract.\r\n    uint256 public fundingWithdrawn;       // Amount of funding token withdrawn from the seed contract. \r\n\r\n    mapping (address => bool) public whitelisted;        // funders that are whitelisted and allowed to contribute\r\n    mapping (address => FunderPortfolio) public funders; // funder address to funder portfolio\r\n\r\n    event SeedsPurchased(address indexed recipient, uint256 amountPurchased);\r\n    event TokensClaimed(address indexed recipient,uint256 amount,address indexed beneficiary,uint256 feeAmount);\r\n    event FundingReclaimed(address indexed recipient, uint256 amountReclaimed);\r\n    event MetadataUpdated(bytes32 indexed metadata);\r\n\r\n    struct FunderPortfolio { \r\n        uint256 seedAmount;\r\n        uint256 totalClaimed;\r\n        uint256 fundingAmount;\r\n        uint256 fee;\r\n        uint256 feeClaimed;\r\n    }\r\n\r\n    modifier initializer() {\r\n        require(!initialized, \"Seed: contract already initialized\");\r\n        initialized = true;\r\n        _;\r\n    }\r\n\r\n    modifier onlyAdmin() {\r\n        require(msg.sender == admin, \"Seed: caller should be admin\");\r\n        _;\r\n    }\r\n\r\n    modifier isActive() {\r\n        require(closed != true, \"Seed: should not be closed\");\r\n        require(paused != true, \"Seed: should not be paused\");\r\n        _;\r\n    }\r\n\r\n    modifier allowedToBuy() {\r\n        require(maximumReached == false, \"Seed: maximum funding reached\" );\r\n        require(permissionedSeed != true || whitelisted[msg.sender] == true, \"Seed: sender has no rights\");\r\n        require(endTime >= block.timestamp && startTime <= block.timestamp,\r\n            \"Seed: only allowed during distribution period\");\r\n        _;\r\n    }\r\n\r\n    modifier allowedToClaim() {\r\n        require(minimumReached == true, \"Seed: minimum funding amount not met\");\r\n        require(endTime <= block.timestamp  || maximumReached == true,\"Seed: the distribution has not yet finished\");\r\n        _;\r\n    }\r\n\r\n    modifier allowedToRetrieve() {\r\n        require(paused != true, \"Seed: should not be paused\");\r\n        require(startTime <= block.timestamp, \"Seed: distribution haven't started\");\r\n        require(minimumReached == false, \"Seed: minimum already met\");\r\n        _;\r\n    }\r\n\r\n    modifier allowedToWithdraw() {\r\n        require(paused != true, \"Seed: should not be paused\");\r\n        require(closed != true, \"Seed: should not be closed\");\r\n        require(minimumReached == true, \"Seed: minimum funding amount not met\");\r\n        _;\r\n    }\r\n\r\n    /**\r\n      * @dev                          Initialize Seed.\r\n      * @param _beneficiary           The address that recieves fees.\r\n      * @param _admin                 The address of the admin of this contract. Funds contract\r\n                                      and has permissions to whitelist users, pause and close contract.\r\n      * @param _tokens                Array containing two params:\r\n                                        - The address of the seed token being distributed.\r\n      *                                 - The address of the funding token being exchanged for seed token.\r\n      * @param _softHardThresholds     Array containing two params:\r\n                                        - the minimum funding token collection threshold in wei denomination.\r\n                                        - the highest possible funding token amount to be raised in wei denomination.\r\n      * @param _price                 The price in wei of fundingTokens when exchanged for seedTokens.\r\n      * @param _startTime             Distribution start time in unix timecode.\r\n      * @param _endTime               Distribution end time in unix timecode.\r\n      * @param _vestingDuration       Vesting period duration in seconds.\r\n      * @param _vestingCliff          Cliff duration in seconds.\r\n      * @param _permissionedSeed      Set to true if only whitelisted adresses are allowed to participate.\r\n      * @param _fee                   Success fee expressed as a % (e.g. 2 = 2% fee)\r\n    */\r\n    function initialize(\r\n        address _beneficiary,\r\n        address _admin,\r\n        address[] memory _tokens,\r\n        uint256[] memory _softHardThresholds,\r\n        uint256 _price,\r\n        uint256 _startTime,\r\n        uint256 _endTime,\r\n        uint32  _vestingDuration,\r\n        uint32  _vestingCliff,\r\n        bool    _permissionedSeed,\r\n        uint8   _fee\r\n    ) public initializer {\r\n        beneficiary       = _beneficiary;\r\n        admin             = _admin;\r\n        softCap           = _softHardThresholds[0];\r\n        hardCap           = _softHardThresholds[1];\r\n        price             = _price;\r\n        startTime         = _startTime;\r\n        endTime           = _endTime;\r\n        vestingDuration   = _vestingDuration;\r\n        vestingCliff      = _vestingCliff;\r\n        permissionedSeed  = _permissionedSeed;\r\n        seedToken         = IERC20(_tokens[0]);\r\n        fundingToken      = IERC20(_tokens[1]);\r\n        fee               = _fee;\r\n        closed            = false;\r\n        minimumReached    = false;\r\n        maximumReached    = false;\r\n\r\n        seedAmountRequired = (hardCap.div(_price)).mul(PCT_BASE);\r\n        feeAmountRequired = seedAmountRequired.mul(_fee).div(100);\r\n        seedRemainder     = seedAmountRequired;\r\n        feeRemainder  = feeAmountRequired;\r\n    }\r\n\r\n    /**\r\n      * @dev                     Buy seed tokens.\r\n      * @param _fundingAmount    The amount of funding tokens to contribute.\r\n    */\r\n    function buy(uint256 _fundingAmount) public isActive allowedToBuy returns(uint256, uint256) {\r\n        if(!isFunded) {\r\n            require(seedToken.balanceOf(address(this)) >= seedAmountRequired.add(feeAmountRequired),\r\n                \"Seed: sufficient seeds not provided\");\r\n            isFunded = true;\r\n        }\r\n        // fundingAmount is an amount of fundingTokens required to buy _seedAmount of SeedTokens\r\n        uint256 seedAmount = (_fundingAmount.mul(PCT_BASE)).div(price);\r\n\r\n        // Funding Token balance of this contract;\r\n        uint256 fundingBalance = fundingCollected;\r\n\r\n        // feeAmount is an amount of fee we are going to get in seedTokens\r\n        uint256 feeAmount = seedAmount.mul(fee).div(100);\r\n\r\n        // total fundingAmount should not be greater than the hardCap\r\n        require( fundingBalance.\r\n                  add(_fundingAmount) <= hardCap,\r\n            \"Seed: amount exceeds contract sale hardCap\");\r\n\r\n        require( seedRemainder >= seedAmount && feeRemainder >= feeAmount,\r\n            \"Seed: seed distribution would be exceeded\");\r\n\r\n        fundingCollected = fundingBalance.add(_fundingAmount);\r\n\r\n        // the amount of seed tokens still to be distributed\r\n        seedRemainder    = seedRemainder.sub(seedAmount);\r\n        feeRemainder = feeRemainder.sub(feeAmount);\r\n\r\n        // Here we are sending amount of tokens to pay for seed tokens to purchase\r\n        require(fundingToken.transferFrom(msg.sender, address(this), _fundingAmount), \"Seed: no tokens\");\r\n\r\n        if (fundingCollected >= softCap) {\r\n            minimumReached = true;\r\n        }\r\n        if (fundingCollected >= hardCap) {\r\n            maximumReached = true;            \r\n        }\r\n\r\n        _addFunder(\r\n            msg.sender,\r\n            (funders[msg.sender].seedAmount.add(seedAmount)),         // Previous Seed Amount + new seed amount\r\n            (funders[msg.sender].fundingAmount.add(_fundingAmount)),  // Previous Funding Amount + new funding amount\r\n             funders[msg.sender].totalClaimed,\r\n            (funders[msg.sender].fee.add(feeAmount)),                  // Previous Fee + new fee\r\n             funders[msg.sender].feeClaimed\r\n            );\r\n        \r\n        // buyer, seed token purchased in this transaction (not the total amount of seed purchased)\r\n        emit SeedsPurchased(msg.sender, seedAmount);\r\n\r\n        return (seedAmount, feeAmount);\r\n    }\r\n\r\n    /**\r\n      * @dev                     Claim vested seed tokens.\r\n      * @param _funder           Address of funder to calculate seconds and amount claimable\r\n      * @param _claimAmount      The amount of seed token a users wants to claim.\r\n    */\r\n    function claim(address _funder, uint256 _claimAmount) public allowedToClaim returns(uint256, uint256) {\r\n        uint256 amountClaimable;\r\n\r\n        amountClaimable = calculateClaim(_funder);\r\n        require( amountClaimable > 0, \"Seed: amount claimable is 0\");\r\n        require( amountClaimable >= _claimAmount, \"Seed: request is greater than claimable amount\");\r\n        uint256 feeAmountOnClaim = _claimAmount.mul(fee).div(100);\r\n\r\n        FunderPortfolio memory tokenFunder = funders[_funder];\r\n\r\n        tokenFunder.totalClaimed    = uint256(tokenFunder.totalClaimed.add(_claimAmount));\r\n        tokenFunder.feeClaimed      = tokenFunder.feeClaimed.add(feeAmountOnClaim);\r\n        funders[_funder] = tokenFunder;\r\n        \r\n        seedClaimed    = seedClaimed.add(_claimAmount);\r\n        feeClaimed = feeClaimed.add(feeAmountOnClaim);\r\n        require(seedToken.transfer(beneficiary, feeAmountOnClaim), \"Seed: cannot transfer to beneficiary\");\r\n        require(seedToken.transfer(_funder, _claimAmount), \"Seed: no tokens\");\r\n\r\n        emit TokensClaimed(_funder, _claimAmount, beneficiary, feeAmountOnClaim);\r\n        \r\n        // amount of seed rewarded , fee on the distributed reward collected from admin\r\n        return (_claimAmount, feeAmountOnClaim);\r\n    }\r\n\r\n    /**\r\n      * @dev         Returns funding tokens to user.\r\n    */\r\n    function retrieveFundingTokens() public allowedToRetrieve returns(uint256) {\r\n        require(funders[msg.sender].fundingAmount > 0, \"Seed: zero funding amount\");\r\n        FunderPortfolio memory tokenFunder = funders[msg.sender];\r\n        uint256 fundingAmount = tokenFunder.fundingAmount;\r\n        seedRemainder    = seedRemainder.add(tokenFunder.seedAmount);\r\n        feeRemainder = feeRemainder.add(tokenFunder.fee);\r\n        tokenFunder.seedAmount    = 0;\r\n        tokenFunder.fee           = 0;\r\n        tokenFunder.fundingAmount = 0;\r\n        funders[msg.sender]  = tokenFunder;\r\n        fundingCollected = fundingCollected.sub(fundingAmount);\r\n        require(\r\n            fundingToken.transfer(msg.sender, fundingAmount),\r\n            \"Seed: cannot return funding tokens to msg.sender\"\r\n        );\r\n        emit FundingReclaimed(msg.sender, fundingAmount);\r\n\r\n        return fundingAmount;\r\n    }\r\n\r\n    // ADMIN ACTIONS\r\n\r\n    /**\r\n      * @dev                     Pause distribution.\r\n    */\r\n    function pause() public onlyAdmin isActive {\r\n        paused = true;\r\n    }\r\n\r\n    /**\r\n      * @dev                     Unpause distribution.\r\n    */\r\n    function unpause() public onlyAdmin {\r\n        require(closed != true, \"Seed: should not be closed\");\r\n        require(paused == true, \"Seed: should be paused\");\r\n\r\n        paused = false;\r\n    }\r\n\r\n    /**\r\n      * @dev                     Close distribution.\r\n    */\r\n    function close() public onlyAdmin isActive {\r\n        // transfer seed tokens back to admin\r\n        if(minimumReached){\r\n            // remaining seeds = seedRemainder + feeRemainder\r\n            uint256 seedToTransfer = seedRemainder.add(feeRemainder);\r\n            require(\r\n                seedToken.transfer(admin, seedToTransfer),\r\n                \"Seed: should transfer seed tokens to admin\"\r\n            );\r\n            paused = false;\r\n        } else {\r\n            require(\r\n                seedToken.transfer(admin, seedAmountRequired.add(feeAmountRequired)),\r\n                \"Seed: should transfer seed tokens to admin\"\r\n            );\r\n            closed = true;\r\n            paused = false;\r\n        }\r\n    }\r\n\r\n    /**\r\n      * @dev                     Add address to whitelist.\r\n      * @param _buyer            Address which needs to be whitelisted\r\n    */\r\n    function whitelist(address _buyer) public onlyAdmin isActive {\r\n        require(permissionedSeed == true, \"Seed: module is not whitelisted\");\r\n\r\n        whitelisted[_buyer] = true;\r\n    }\r\n\r\n    /**\r\n      * @dev                     Add multiple addresses to whitelist.\r\n      * @param _buyers           Array of addresses to whitelist addresses in batch\r\n    */\r\n    function whitelistBatch(address[] memory _buyers) public onlyAdmin isActive {\r\n        require(permissionedSeed == true, \"Seed: module is not whitelisted\");\r\n        for (uint256 i=0; i < _buyers.length; i++) {\r\n            whitelisted[_buyers[i]] = true;\r\n        }\r\n    }\r\n\r\n    /**\r\n      * @dev                     Remove address from whitelist.\r\n      * @param buyer             Address which needs to be unwhitelisted\r\n    */\r\n    function unwhitelist(address buyer) public onlyAdmin isActive {\r\n        require(permissionedSeed == true, \"Seed: module is not whitelisted\");\r\n\r\n        whitelisted[buyer] = false;\r\n    }\r\n\r\n    /**\r\n      * @dev                     Withdraw funds from the contract\r\n    */\r\n    function withdraw() public onlyAdmin allowedToWithdraw {\r\n        uint pendingFundingBalance = fundingCollected.sub(fundingWithdrawn);\r\n        fundingWithdrawn = fundingCollected;\r\n        fundingToken.transfer(msg.sender, pendingFundingBalance);\r\n    }\r\n\r\n    /**\r\n      * @dev                     Updates metadata.\r\n      * @param _metadata         Seed contract metadata, that is IPFS Hash\r\n    */\r\n    function updateMetadata(bytes32 _metadata) public {\r\n        require(\r\n            initialized != true || msg.sender == admin,\r\n            \"Seed: contract should not be initialized or caller should be admin\"\r\n        );\r\n        metadata = _metadata;\r\n        emit MetadataUpdated(_metadata);\r\n    }\r\n\r\n    // GETTER FUNCTIONS\r\n    /**\r\n      * @dev                     Calculates the maximum claim\r\n      * @param _funder           Address of funder to find the maximum claim\r\n    */\r\n    function calculateClaim(address _funder) public view returns(uint256) {\r\n        FunderPortfolio memory tokenFunder = funders[_funder];\r\n\r\n        // Check cliff was reached\r\n        uint256 elapsedSeconds = _currentTime().sub(startTime);\r\n\r\n        if (elapsedSeconds < vestingCliff) {\r\n            return 0;\r\n        }\r\n\r\n        // If over vesting duration, all tokens vested\r\n        if (elapsedSeconds >= vestingDuration) {\r\n            return tokenFunder.seedAmount.sub(tokenFunder.totalClaimed);\r\n        } else {\r\n            uint256 amountVestedPerDay = tokenFunder.seedAmount.div(uint256(vestingDuration));\r\n            uint256 amountVested = uint256(elapsedSeconds.mul(amountVestedPerDay));\r\n            return amountVested.sub(tokenFunder.totalClaimed);\r\n        }\r\n    }\r\n\r\n    /**\r\n      * @dev                     check whitelist status of a buyer\r\n      * @param _buyer            address of buyer to check status\r\n    */\r\n    function checkWhitelisted(address _buyer) public view returns(bool) {\r\n        return whitelisted[_buyer];\r\n    }\r\n\r\n    // INTERNAL FUNCTIONS\r\n    /**\r\n      * @dev                      get current time or block.timestamp\r\n    */\r\n    function _currentTime() internal view returns(uint256) {\r\n        return block.timestamp;\r\n    }\r\n\r\n    /**\r\n      * @dev                      add/update funder portfolio\r\n      * @param _recipient         Address of funder recipient\r\n      * @param _seedAmount        seed amount of the funder\r\n      * @param _fundingAmount     funding amount contributed\r\n      * @param _totalClaimed      total seed token amount claimed\r\n      * @param _fee               fee on seed amount bought\r\n    */\r\n    function _addFunder(\r\n        address _recipient,\r\n        uint256 _seedAmount,\r\n        uint256 _fundingAmount,\r\n        uint256 _totalClaimed,\r\n        uint256 _fee,\r\n        uint256 _feeClaimed\r\n    )\r\n    internal\r\n    {\r\n\r\n        uint256 amountVestedPerSecond = _seedAmount.div(vestingDuration);\r\n        require(amountVestedPerSecond > 0, \"Seed: amountVestedPerSecond > 0\");\r\n\r\n        funders[_recipient] = FunderPortfolio({\r\n            seedAmount: _seedAmount,\r\n            totalClaimed: _totalClaimed,\r\n            fundingAmount: _fundingAmount,\r\n            fee: _fee,\r\n            feeClaimed: _feeClaimed\r\n            });\r\n        totalFunderCount++;\r\n    }\r\n}\r\n",
  "sourcePath": "E:/curve-labs/PrimeDAO/contracts/contracts/seed/Seed.sol",
  "compiler": {
    "name": "solc",
    "version": "0.5.13+commit.5b0b510c.Emscripten.clang"
  },
  "schemaVersion": "3.4.1",
  "updatedAt": "2021-05-28T09:08:31.831Z",
  "networkType": "ethereum",
  "devdoc": {
    "details": "Smart contract for seed phases of liquid launch.",
    "methods": {
      "buy(uint256)": {
        "details": "Buy seed tokens.",
        "params": {
          "_fundingAmount": "The amount of funding tokens to contribute."
        }
      },
      "calculateClaim(address)": {
        "details": "Calculates the maximum claim",
        "params": {
          "_funder": "Address of funder to find the maximum claim"
        }
      },
      "checkWhitelisted(address)": {
        "details": "check whitelist status of a buyer",
        "params": {
          "_buyer": "address of buyer to check status"
        }
      },
      "claim(address,uint256)": {
        "details": "Claim vested seed tokens.",
        "params": {
          "_claimAmount": "The amount of seed token a users wants to claim.",
          "_funder": "Address of funder to calculate seconds and amount claimable"
        }
      },
      "close()": {
        "details": "Close distribution."
      },
      "initialize(address,address,address[],uint256[],uint256,uint256,uint256,uint32,uint32,bool,uint8)": {
        "details": "Initialize Seed.",
        "params": {
          "_admin": "The address of the admin of this contract. Funds contract and has permissions to whitelist users, pause and close contract.",
          "_beneficiary": "The address that recieves fees.",
          "_endTime": "Distribution end time in unix timecode.",
          "_fee": "Success fee expressed as a % (e.g. 2 = 2% fee)",
          "_permissionedSeed": "Set to true if only whitelisted adresses are allowed to participate.",
          "_price": "The price in wei of fundingTokens when exchanged for seedTokens.",
          "_softHardThresholds": "Array containing two params: - the minimum funding token collection threshold in wei denomination. - the highest possible funding token amount to be raised in wei denomination.",
          "_startTime": "Distribution start time in unix timecode.",
          "_tokens": "Array containing two params: - The address of the seed token being distributed.                                - The address of the funding token being exchanged for seed token.",
          "_vestingCliff": "Cliff duration in seconds.",
          "_vestingDuration": "Vesting period duration in seconds."
        }
      },
      "pause()": {
        "details": "Pause distribution."
      },
      "retrieveFundingTokens()": {
        "details": "Returns funding tokens to user."
      },
      "unpause()": {
        "details": "Unpause distribution."
      },
      "unwhitelist(address)": {
        "details": "Remove address from whitelist.",
        "params": {
          "buyer": "Address which needs to be unwhitelisted"
        }
      },
      "updateMetadata(bytes32)": {
        "details": "Updates metadata.",
        "params": {
          "_metadata": "Seed contract metadata, that is IPFS Hash"
        }
      },
      "whitelist(address)": {
        "details": "Add address to whitelist.",
        "params": {
          "_buyer": "Address which needs to be whitelisted"
        }
      },
      "whitelistBatch(address[])": {
        "details": "Add multiple addresses to whitelist.",
        "params": {
          "_buyers": "Array of addresses to whitelist addresses in batch"
        }
      },
      "withdraw()": {
        "details": "Withdraw funds from the contract"
      }
    },
    "title": "primebeneSeed contract"
  },
  "userdoc": {
    "methods": {}
  }
}