{
  "contractName": "Seed",
  "abi": [
    {
      "anonymous": false,
      "inputs": [
        {
          "indexed": true,
          "internalType": "address",
          "name": "recipient",
          "type": "address"
        },
        {
          "indexed": false,
          "internalType": "uint256",
          "name": "amountReclaimed",
          "type": "uint256"
        }
      ],
      "name": "FundingReclaimed",
      "type": "event"
    },
    {
      "anonymous": false,
      "inputs": [
        {
          "indexed": true,
          "internalType": "address",
          "name": "recipient",
          "type": "address"
        },
        {
          "indexed": false,
          "internalType": "uint256",
          "name": "locked",
          "type": "uint256"
        }
      ],
      "name": "LockAdded",
      "type": "event"
    },
    {
      "anonymous": false,
      "inputs": [
        {
          "indexed": true,
          "internalType": "bytes32",
          "name": "metadata",
          "type": "bytes32"
        }
      ],
      "name": "MetadataUpdated",
      "type": "event"
    },
    {
      "anonymous": false,
      "inputs": [
        {
          "indexed": true,
          "internalType": "address",
          "name": "recipient",
          "type": "address"
        },
        {
          "indexed": false,
          "internalType": "uint256",
          "name": "amountVested",
          "type": "uint256"
        }
      ],
      "name": "TokensClaimed",
      "type": "event"
    },
    {
      "constant": true,
      "inputs": [],
      "name": "PPM",
      "outputs": [
        {
          "internalType": "uint32",
          "name": "",
          "type": "uint32"
        }
      ],
      "payable": false,
      "stateMutability": "view",
      "type": "function"
    },
    {
      "constant": true,
      "inputs": [],
      "name": "PPM100",
      "outputs": [
        {
          "internalType": "uint256",
          "name": "",
          "type": "uint256"
        }
      ],
      "payable": false,
      "stateMutability": "view",
      "type": "function"
    },
    {
      "constant": true,
      "inputs": [],
      "name": "admin",
      "outputs": [
        {
          "internalType": "address",
          "name": "",
          "type": "address"
        }
      ],
      "payable": false,
      "stateMutability": "view",
      "type": "function"
    },
    {
      "constant": true,
      "inputs": [],
      "name": "beneficiary",
      "outputs": [
        {
          "internalType": "address",
          "name": "",
          "type": "address"
        }
      ],
      "payable": false,
      "stateMutability": "view",
      "type": "function"
    },
    {
      "constant": true,
      "inputs": [],
      "name": "closed",
      "outputs": [
        {
          "internalType": "bool",
          "name": "",
          "type": "bool"
        }
      ],
      "payable": false,
      "stateMutability": "view",
      "type": "function"
    },
    {
      "constant": true,
      "inputs": [],
      "name": "endTime",
      "outputs": [
        {
          "internalType": "uint256",
          "name": "",
          "type": "uint256"
        }
      ],
      "payable": false,
      "stateMutability": "view",
      "type": "function"
    },
    {
      "constant": true,
      "inputs": [],
      "name": "fee",
      "outputs": [
        {
          "internalType": "uint8",
          "name": "",
          "type": "uint8"
        }
      ],
      "payable": false,
      "stateMutability": "view",
      "type": "function"
    },
    {
      "constant": true,
      "inputs": [],
      "name": "fundingToken",
      "outputs": [
        {
          "internalType": "contract IERC20",
          "name": "",
          "type": "address"
        }
      ],
      "payable": false,
      "stateMutability": "view",
      "type": "function"
    },
    {
      "constant": true,
      "inputs": [],
      "name": "hardCap",
      "outputs": [
        {
          "internalType": "uint256",
          "name": "",
          "type": "uint256"
        }
      ],
      "payable": false,
      "stateMutability": "view",
      "type": "function"
    },
    {
      "constant": true,
      "inputs": [],
      "name": "initialized",
      "outputs": [
        {
          "internalType": "bool",
          "name": "",
          "type": "bool"
        }
      ],
      "payable": false,
      "stateMutability": "view",
      "type": "function"
    },
    {
      "constant": true,
      "inputs": [],
      "name": "isWhitelisted",
      "outputs": [
        {
          "internalType": "bool",
          "name": "",
          "type": "bool"
        }
      ],
      "payable": false,
      "stateMutability": "view",
      "type": "function"
    },
    {
      "constant": true,
      "inputs": [],
      "name": "metadata",
      "outputs": [
        {
          "internalType": "bytes32",
          "name": "",
          "type": "bytes32"
        }
      ],
      "payable": false,
      "stateMutability": "view",
      "type": "function"
    },
    {
      "constant": true,
      "inputs": [],
      "name": "minimumReached",
      "outputs": [
        {
          "internalType": "bool",
          "name": "",
          "type": "bool"
        }
      ],
      "payable": false,
      "stateMutability": "view",
      "type": "function"
    },
    {
      "constant": true,
      "inputs": [],
      "name": "paused",
      "outputs": [
        {
          "internalType": "bool",
          "name": "",
          "type": "bool"
        }
      ],
      "payable": false,
      "stateMutability": "view",
      "type": "function"
    },
    {
      "constant": true,
      "inputs": [],
      "name": "price",
      "outputs": [
        {
          "internalType": "uint256",
          "name": "",
          "type": "uint256"
        }
      ],
      "payable": false,
      "stateMutability": "view",
      "type": "function"
    },
    {
      "constant": true,
      "inputs": [],
      "name": "seedToken",
      "outputs": [
        {
          "internalType": "contract IERC20",
          "name": "",
          "type": "address"
        }
      ],
      "payable": false,
      "stateMutability": "view",
      "type": "function"
    },
    {
      "constant": true,
      "inputs": [],
      "name": "softCap",
      "outputs": [
        {
          "internalType": "uint256",
          "name": "",
          "type": "uint256"
        }
      ],
      "payable": false,
      "stateMutability": "view",
      "type": "function"
    },
    {
      "constant": true,
      "inputs": [],
      "name": "startTime",
      "outputs": [
        {
          "internalType": "uint256",
          "name": "",
          "type": "uint256"
        }
      ],
      "payable": false,
      "stateMutability": "view",
      "type": "function"
    },
    {
      "constant": true,
      "inputs": [
        {
          "internalType": "address",
          "name": "",
          "type": "address"
        }
      ],
      "name": "tokenLocks",
      "outputs": [
        {
          "internalType": "uint256",
          "name": "seedAmount",
          "type": "uint256"
        },
        {
          "internalType": "uint16",
          "name": "daysClaimed",
          "type": "uint16"
        },
        {
          "internalType": "uint256",
          "name": "totalClaimed",
          "type": "uint256"
        },
        {
          "internalType": "uint256",
          "name": "fundingAmount",
          "type": "uint256"
        },
        {
          "internalType": "uint256",
          "name": "fee",
          "type": "uint256"
        }
      ],
      "payable": false,
      "stateMutability": "view",
      "type": "function"
    },
    {
      "constant": true,
      "inputs": [],
      "name": "totalLockCount",
      "outputs": [
        {
          "internalType": "uint256",
          "name": "",
          "type": "uint256"
        }
      ],
      "payable": false,
      "stateMutability": "view",
      "type": "function"
    },
    {
      "constant": true,
      "inputs": [],
      "name": "vestingCliff",
      "outputs": [
        {
          "internalType": "uint16",
          "name": "",
          "type": "uint16"
        }
      ],
      "payable": false,
      "stateMutability": "view",
      "type": "function"
    },
    {
      "constant": true,
      "inputs": [],
      "name": "vestingDuration",
      "outputs": [
        {
          "internalType": "uint16",
          "name": "",
          "type": "uint16"
        }
      ],
      "payable": false,
      "stateMutability": "view",
      "type": "function"
    },
    {
      "constant": true,
      "inputs": [
        {
          "internalType": "address",
          "name": "",
          "type": "address"
        }
      ],
      "name": "whitelisted",
      "outputs": [
        {
          "internalType": "bool",
          "name": "",
          "type": "bool"
        }
      ],
      "payable": false,
      "stateMutability": "view",
      "type": "function"
    },
    {
      "constant": false,
      "inputs": [
        {
          "internalType": "address",
          "name": "_beneficiary",
          "type": "address"
        },
        {
          "internalType": "address",
          "name": "_admin",
          "type": "address"
        },
        {
          "internalType": "address[]",
          "name": "_tokens",
          "type": "address[]"
        },
        {
          "internalType": "uint256[]",
          "name": "_softAndHardCap",
          "type": "uint256[]"
        },
        {
          "internalType": "uint256",
          "name": "_price",
          "type": "uint256"
        },
        {
          "internalType": "uint256",
          "name": "_startTime",
          "type": "uint256"
        },
        {
          "internalType": "uint256",
          "name": "_endTime",
          "type": "uint256"
        },
        {
          "internalType": "uint16",
          "name": "_vestingDuration",
          "type": "uint16"
        },
        {
          "internalType": "uint16",
          "name": "_vestingCliff",
          "type": "uint16"
        },
        {
          "internalType": "bool",
          "name": "_isWhitelisted",
          "type": "bool"
        },
        {
          "internalType": "uint8",
          "name": "_fee",
          "type": "uint8"
        }
      ],
      "name": "initialize",
      "outputs": [],
      "payable": false,
      "stateMutability": "nonpayable",
      "type": "function"
    },
    {
      "constant": false,
      "inputs": [
        {
          "internalType": "uint256",
          "name": "_seedAmount",
          "type": "uint256"
        }
      ],
      "name": "buy",
      "outputs": [],
      "payable": false,
      "stateMutability": "nonpayable",
      "type": "function"
    },
    {
      "constant": false,
      "inputs": [
        {
          "internalType": "address",
          "name": "_locker",
          "type": "address"
        }
      ],
      "name": "claimLock",
      "outputs": [],
      "payable": false,
      "stateMutability": "nonpayable",
      "type": "function"
    },
    {
      "constant": false,
      "inputs": [],
      "name": "retrieveFundingTokens",
      "outputs": [],
      "payable": false,
      "stateMutability": "nonpayable",
      "type": "function"
    },
    {
      "constant": false,
      "inputs": [],
      "name": "pause",
      "outputs": [],
      "payable": false,
      "stateMutability": "nonpayable",
      "type": "function"
    },
    {
      "constant": false,
      "inputs": [],
      "name": "unpause",
      "outputs": [],
      "payable": false,
      "stateMutability": "nonpayable",
      "type": "function"
    },
    {
      "constant": false,
      "inputs": [],
      "name": "close",
      "outputs": [],
      "payable": false,
      "stateMutability": "nonpayable",
      "type": "function"
    },
    {
      "constant": false,
      "inputs": [
        {
          "internalType": "address",
          "name": "_buyer",
          "type": "address"
        }
      ],
      "name": "whitelist",
      "outputs": [],
      "payable": false,
      "stateMutability": "nonpayable",
      "type": "function"
    },
    {
      "constant": false,
      "inputs": [
        {
          "internalType": "address[]",
          "name": "_buyers",
          "type": "address[]"
        }
      ],
      "name": "whitelistBatch",
      "outputs": [],
      "payable": false,
      "stateMutability": "nonpayable",
      "type": "function"
    },
    {
      "constant": false,
      "inputs": [
        {
          "internalType": "address",
          "name": "buyer",
          "type": "address"
        }
      ],
      "name": "unwhitelist",
      "outputs": [],
      "payable": false,
      "stateMutability": "nonpayable",
      "type": "function"
    },
    {
      "constant": false,
      "inputs": [],
      "name": "withdraw",
      "outputs": [],
      "payable": false,
      "stateMutability": "nonpayable",
      "type": "function"
    },
    {
      "constant": false,
      "inputs": [
        {
          "internalType": "bytes32",
          "name": "_metadata",
          "type": "bytes32"
        }
      ],
      "name": "updateMetadata",
      "outputs": [],
      "payable": false,
      "stateMutability": "nonpayable",
      "type": "function"
    },
    {
      "constant": true,
      "inputs": [
        {
          "internalType": "address",
          "name": "_locker",
          "type": "address"
        }
      ],
      "name": "calculateClaim",
      "outputs": [
        {
          "internalType": "uint16",
          "name": "",
          "type": "uint16"
        },
        {
          "internalType": "uint256",
          "name": "",
          "type": "uint256"
        }
      ],
      "payable": false,
      "stateMutability": "view",
      "type": "function"
    },
    {
      "constant": true,
      "inputs": [
        {
          "internalType": "address",
          "name": "_buyer",
          "type": "address"
        }
      ],
      "name": "checkWhitelisted",
      "outputs": [
        {
          "internalType": "bool",
          "name": "",
          "type": "bool"
        }
      ],
      "payable": false,
      "stateMutability": "view",
      "type": "function"
    },
    {
      "constant": true,
      "inputs": [],
      "name": "getStartTime",
      "outputs": [
        {
          "internalType": "uint256",
          "name": "",
          "type": "uint256"
        }
      ],
      "payable": false,
      "stateMutability": "view",
      "type": "function"
    },
    {
      "constant": true,
      "inputs": [
        {
          "internalType": "address",
          "name": "_locker",
          "type": "address"
        }
      ],
      "name": "getSeedAmount",
      "outputs": [
        {
          "internalType": "uint256",
          "name": "",
          "type": "uint256"
        }
      ],
      "payable": false,
      "stateMutability": "view",
      "type": "function"
    },
    {
      "constant": true,
      "inputs": [
        {
          "internalType": "address",
          "name": "_locker",
          "type": "address"
        }
      ],
      "name": "getDaysClaimed",
      "outputs": [
        {
          "internalType": "uint16",
          "name": "",
          "type": "uint16"
        }
      ],
      "payable": false,
      "stateMutability": "view",
      "type": "function"
    },
    {
      "constant": true,
      "inputs": [
        {
          "internalType": "address",
          "name": "_locker",
          "type": "address"
        }
      ],
      "name": "getTotalClaimed",
      "outputs": [
        {
          "internalType": "uint256",
          "name": "",
          "type": "uint256"
        }
      ],
      "payable": false,
      "stateMutability": "view",
      "type": "function"
    },
    {
      "constant": true,
      "inputs": [
        {
          "internalType": "address",
          "name": "_locker",
          "type": "address"
        }
      ],
      "name": "getFee",
      "outputs": [
        {
          "internalType": "uint256",
          "name": "",
          "type": "uint256"
        }
      ],
      "payable": false,
      "stateMutability": "view",
      "type": "function"
    }
  ],
  "bytecode": "0x608060405234801561001057600080fd5b50612964806100206000396000f3fe608060405234801561001057600080fd5b506004361061025e5760003560e01c80638456cb5911610146578063c828371e116100c3578063e565eb4c11610087578063e565eb4c146106fb578063ea34554014610703578063eaa5352314610747578063f3640e74146107ea578063f851a440146107f2578063fb86a404146107fa5761025e565b8063c828371e1461068a578063d6d2721a14610692578063d936547e1461069a578063d96a094a146106c0578063ddca3f43146106dd5761025e565b80639b19251a1161010a5780639b19251a146104bc578063a035b1fe146104e2578063b88c9148146104ea578063b9cb0a8514610510578063c6431752146105185761025e565b80638456cb59146104585780638a2448aa14610460578063906a26e014610468578063986e8539146104705780639a590427146104965761025e565b80633f4ba83a116101df57806356b63df7116101a357806356b63df7146103dc578063597e1fb5146104305780635c975abb14610438578063611b40951461044057806378065f271461044857806378e97925146104505761025e565b80633f4ba83a1461036357806343d726d61461036b5780634f2d777814610373578063522bf1d41461039057806355be8577146103b65761025e565b8063311f848311610226578063311f84831461031d5780633197cbb61461034157806338af3eed14610349578063392f37e9146103515780633ccfd60b146103595761025e565b80630d720bbc14610263578063130f05d6146102845780631514617e146102bc578063158ef93e146102db57806320d8dad0146102f7575b600080fd5b61026b610802565b6040805163ffffffff9092168252519081900360200190f35b6102aa6004803603602081101561029a57600080fd5b50356001600160a01b0316610809565b60408051918252519081900360200190f35b6102c4610824565b6040805161ffff9092168252519081900360200190f35b6102e3610833565b604080519115158252519081900360200190f35b6102e36004803603602081101561030d57600080fd5b50356001600160a01b031661083c565b61032561085a565b604080516001600160a01b039092168252519081900360200190f35b6102aa610870565b610325610876565b6102aa610885565b61036161088b565b005b610361610abd565b610361610bbd565b6103616004803603602081101561038957600080fd5b5035610df6565b6102aa600480360360208110156103a657600080fd5b50356001600160a01b0316610e85565b6102c4600480360360208110156103cc57600080fd5b50356001600160a01b0316610ea3565b610402600480360360208110156103f257600080fd5b50356001600160a01b0316610ec5565b6040805195865261ffff90941660208601528484019290925260608401526080830152519081900360a00190f35b6102e3610ef9565b6102e3610f02565b6102e3610f10565b610325610f19565b6102aa610f28565b610361610f2e565b610361611028565b6102aa6112b7565b6103616004803603602081101561048657600080fd5b50356001600160a01b03166112bd565b610361600480360360208110156104ac57600080fd5b50356001600160a01b03166115b1565b610361600480360360208110156104d257600080fd5b50356001600160a01b0316611717565b6102aa611880565b6102aa6004803603602081101561050057600080fd5b50356001600160a01b0316611886565b6102aa6118a4565b610361600480360361016081101561052f57600080fd5b6001600160a01b03823581169260208101359091169181019060608101604082013564010000000081111561056357600080fd5b82018360208201111561057557600080fd5b8035906020019184602083028401116401000000008311171561059757600080fd5b91908080602002602001604051908101604052809392919081815260200183836020028082843760009201919091525092959493602081019350359150506401000000008111156105e757600080fd5b8201836020820111156105f957600080fd5b8035906020019184602083028401116401000000008311171561061b57600080fd5b91908080602002602001604051908101604052809392919081815260200183836020028082843760009201919091525092955050823593505050602081013590604081013590606081013561ffff9081169160808101359091169060a081013515159060c0013560ff166118aa565b6102aa611a4f565b6102aa611a55565b6102e3600480360360208110156106b057600080fd5b50356001600160a01b0316611a5d565b610361600480360360208110156106d657600080fd5b5035611a72565b6106e56120c4565b6040805160ff9092168252519081900360200190f35b6102e36120d4565b6107296004803603602081101561071957600080fd5b50356001600160a01b03166120e2565b6040805161ffff909316835260208301919091528051918290030190f35b6103616004803603602081101561075d57600080fd5b81019060208101813564010000000081111561077857600080fd5b82018360208201111561078a57600080fd5b803590602001918460208302840111640100000000831117156107ac57600080fd5b9190808060200260200160405190810160405280939291908181526020018383602002808284376000920191909152509295506120f8945050505050565b6102c4612295565b6103256122a6565b6102aa6122b5565b620f424081565b6001600160a01b03166000908152600e602052604090205490565b600754610100900461ffff1681565b600c5460ff1681565b6001600160a01b03166000908152600d602052604090205460ff1690565b600754600160281b90046001600160a01b031681565b60065481565b6000546001600160a01b031681565b60095481565b6001546001600160a01b031633146108d8576040805162461bcd60e51b815260206004820152601c602482015260008051602061277f833981519152604482015290519081900360640190fd5b600c5460ff6101009091041615156001146109245760405162461bcd60e51b81526004018080602001828103825260248152602001806128c86024913960400191505060405180910390fd5b600a5460ff1615156001141561096f576040805162461bcd60e51b815260206004820152601a602482015260008051602061280b833981519152604482015290519081900360640190fd5b600a5460ff610100909104161515600114156109c0576040805162461bcd60e51b815260206004820152601a6024820152600080516020612910833981519152604482015290519081900360640190fd5b600854604080516370a0823160e01b815230600482015290516001600160a01b039092169163a9059cbb91339184916370a08231916024808301926020929190829003018186803b158015610a1457600080fd5b505afa158015610a28573d6000803e3d6000fd5b505050506040513d6020811015610a3e57600080fd5b5051604080516001600160e01b031960e086901b1681526001600160a01b03909316600484015260248301919091525160448083019260209291908290030181600087803b158015610a8f57600080fd5b505af1158015610aa3573d6000803e3d6000fd5b505050506040513d6020811015610ab957600080fd5b5050565b6001546001600160a01b03163314610b0a576040805162461bcd60e51b815260206004820152601c602482015260008051602061277f833981519152604482015290519081900360640190fd5b600a5460ff16151560011415610b55576040805162461bcd60e51b815260206004820152601a602482015260008051602061280b833981519152604482015290519081900360640190fd5b600a5460ff610100909104161515600114610bb0576040805162461bcd60e51b815260206004820152601660248201527514d959590e881cda1bdd5b19081899481c185d5cd95960521b604482015290519081900360640190fd5b600a805461ff0019169055565b6001546001600160a01b03163314610c0a576040805162461bcd60e51b815260206004820152601c602482015260008051602061277f833981519152604482015290519081900360640190fd5b600a5460ff16151560011415610c55576040805162461bcd60e51b815260206004820152601a602482015260008051602061280b833981519152604482015290519081900360640190fd5b600a5460ff61010090910416151560011415610ca6576040805162461bcd60e51b815260206004820152601a6024820152600080516020612910833981519152604482015290519081900360640190fd5b600754600154604080516370a0823160e01b815230600482015290516001600160a01b03600160281b90940484169363a9059cbb93169184916370a0823191602480820192602092909190829003018186803b158015610d0557600080fd5b505afa158015610d19573d6000803e3d6000fd5b505050506040513d6020811015610d2f57600080fd5b5051604080516001600160e01b031960e086901b1681526001600160a01b03909316600484015260248301919091525160448083019260209291908290030181600087803b158015610d8057600080fd5b505af1158015610d94573d6000803e3d6000fd5b505050506040513d6020811015610daa57600080fd5b5051610de75760405162461bcd60e51b815260040180806020018281038252602a81526020018061287c602a913960400191505060405180910390fd5b600a805460ff19166001179055565b600c5460ff1615156001141580610e1757506001546001600160a01b031633145b610e525760405162461bcd60e51b81526004018080602001828103825260428152602001806127c96042913960600191505060405180910390fd5b600981905560405181907f6e27af24ead46b4b469e383b46b4b75487fcf1ffce54d216add332f9de2120c590600090a250565b6001600160a01b03166000908152600e602052604090206002015490565b6001600160a01b03166000908152600e602052604090206001015461ffff1690565b600e6020526000908152604090208054600182015460028301546003840154600490940154929361ffff9092169290919085565b600a5460ff1681565b600a54610100900460ff1681565b60075460ff1681565b6008546001600160a01b031681565b60055481565b6001546001600160a01b03163314610f7b576040805162461bcd60e51b815260206004820152601c602482015260008051602061277f833981519152604482015290519081900360640190fd5b600a5460ff16151560011415610fc6576040805162461bcd60e51b815260206004820152601a602482015260008051602061280b833981519152604482015290519081900360640190fd5b600a5460ff61010090910416151560011415611017576040805162461bcd60e51b815260206004820152601a6024820152600080516020612910833981519152604482015290519081900360640190fd5b600a805461ff001916610100179055565b600c54610100900460ff1615611085576040805162461bcd60e51b815260206004820152601960248201527f536565643a206d696e696d756d20616c7265616479206d657400000000000000604482015290519081900360640190fd5b600a5460ff610100909104161515600114156110d6576040805162461bcd60e51b815260206004820152601a6024820152600080516020612910833981519152604482015290519081900360640190fd5b336000908152600e602052604090206003015461113a576040805162461bcd60e51b815260206004820152601960248201527f536565643a207a65726f2066756e64696e6720616d6f756e7400000000000000604482015290519081900360640190fd5b336000908152600e602052604081206003810180548383556004830184905590839055600854919290916111a1906305f5e1009061119590600160a01b900460ff1661118986620f42406122bb565b9063ffffffff6122bb16565b9063ffffffff61231d16565b6008549091506001600160a01b031663a9059cbb336111c6858563ffffffff61235f16565b6040518363ffffffff1660e01b815260040180836001600160a01b03166001600160a01b0316815260200182815260200192505050602060405180830381600087803b15801561121557600080fd5b505af1158015611229573d6000803e3d6000fd5b505050506040513d602081101561123f57600080fd5b505161127c5760405162461bcd60e51b815260040180806020018281038252603081526020018061282b6030913960400191505060405180910390fd5b60408051838152905133917f1a689b1a62e3bb77f9c98d8759c04f341a67deb5cc63cf53be8324b691064950919081900360200190a2505050565b60025481565b600c5460ff6101009091041615156001146113095760405162461bcd60e51b81526004018080602001828103825260248152602001806128c86024913960400191505060405180910390fd5b600080611315836123b9565b90925090508061136c576040805162461bcd60e51b815260206004820152601760248201527f536565643a20616d6f756e745665737465642069732030000000000000000000604482015290519081900360640190fd5b6001600160a01b0383166000908152600e6020526040902060018101546113a19061ffff90811690851663ffffffff61235f16565b60018201805461ffff191661ffff9290921691909117905560028101546113c8908361235f565b6002820155600754600080546004808501546040805163a9059cbb60e01b81526001600160a01b0394851693810193909352602483019190915251600160281b9094049091169263a9059cbb92604480840193602093929083900390910190829087803b15801561143857600080fd5b505af115801561144c573d6000803e3d6000fd5b505050506040513d602081101561146257600080fd5b505161149f5760405162461bcd60e51b81526004018080602001828103825260248152602001806128ec6024913960400191505060405180910390fd5b6007546040805163a9059cbb60e01b81526001600160a01b038781166004830152602482018690529151600160281b9093049091169163a9059cbb916044808201926020929091908290030181600087803b1580156114fd57600080fd5b505af1158015611511573d6000803e3d6000fd5b505050506040513d602081101561152757600080fd5b505161156c576040805162461bcd60e51b815260206004820152600f60248201526e536565643a206e6f20746f6b656e7360881b604482015290519081900360640190fd5b6040805183815290516001600160a01b038616917f896e034966eaaf1adc54acc0f257056febbd300c9e47182cf761982cf1f5e430919081900360200190a250505050565b6001546001600160a01b031633146115fe576040805162461bcd60e51b815260206004820152601c602482015260008051602061277f833981519152604482015290519081900360640190fd5b600a5460ff16151560011415611649576040805162461bcd60e51b815260206004820152601a602482015260008051602061280b833981519152604482015290519081900360640190fd5b600a5460ff6101009091041615156001141561169a576040805162461bcd60e51b815260206004820152601a6024820152600080516020612910833981519152604482015290519081900360640190fd5b60075460ff1615156001146116f6576040805162461bcd60e51b815260206004820152601f60248201527f536565643a206d6f64756c65206973206e6f742077686974656c697374656400604482015290519081900360640190fd5b6001600160a01b03166000908152600d60205260409020805460ff19169055565b6001546001600160a01b03163314611764576040805162461bcd60e51b815260206004820152601c602482015260008051602061277f833981519152604482015290519081900360640190fd5b600a5460ff161515600114156117af576040805162461bcd60e51b815260206004820152601a602482015260008051602061280b833981519152604482015290519081900360640190fd5b600a5460ff61010090910416151560011415611800576040805162461bcd60e51b815260206004820152601a6024820152600080516020612910833981519152604482015290519081900360640190fd5b60075460ff16151560011461185c576040805162461bcd60e51b815260206004820152601f60248201527f536565643a206d6f64756c65206973206e6f742077686974656c697374656400604482015290519081900360640190fd5b6001600160a01b03166000908152600d60205260409020805460ff19166001179055565b60045481565b6001600160a01b03166000908152600e602052604090206004015490565b600b5481565b600c5460ff16156118ec5760405162461bcd60e51b81526004018080602001828103825260228152602001806128a66022913960400191505060405180910390fd5b600c805460ff19166001908117909155600080546001600160a01b03808f166001600160a01b03199283161783558354908e16911617909155885189919061193057fe5b60200260200101516002819055508760018151811061194b57fe5b60209081029190910101516003556004879055600586905560068590556007805462ffff00191661010061ffff878116919091029190911764ffff00000019166301000000918616919091021760ff1916831515179055885189906000906119af57fe5b6020026020010151600760056101000a8154816001600160a01b0302191690836001600160a01b03160217905550886001815181106119ea57fe5b6020908102919091010151600880546001600160a01b0319166001600160a01b039092169190911760ff60a01b1916600160a01b60ff93909316929092029190911790555050600a805460ff191690555050600c805461ff0019169055505050505050565b60055490565b6305f5e10081565b600d6020526000908152604090205460ff1681565b600a5460ff16151560011415611abd576040805162461bcd60e51b815260206004820152601a602482015260008051602061280b833981519152604482015290519081900360640190fd5b600a5460ff61010090910416151560011415611b0e576040805162461bcd60e51b815260206004820152601a6024820152600080516020612910833981519152604482015290519081900360640190fd5b60075460ff1615156001141580611b395750336000908152600d602052604090205460ff1615156001145b611b8a576040805162461bcd60e51b815260206004820152601a60248201527f536565643a2073656e64657220686173206e6f20726967687473000000000000604482015290519081900360640190fd5b6000611bad670de0b6b3a7640000611195600454856122bb90919063ffffffff16565b60048054600854604080516370a0823160e01b8152309481019490945251939450600093611c4c9361119592670de0b6b3a7640000926001600160a01b03909116916370a08231916024808301926020929190829003018186803b158015611c1457600080fd5b505afa158015611c28573d6000803e3d6000fd5b505050506040513d6020811015611c3e57600080fd5b50519063ffffffff6122bb16565b600854909150600090611c7a906305f5e1009061119590600160a01b900460ff1661118988620f42406122bb565b600854909150600090611ca8906305f5e1009061119590600160a01b900460ff1661118987620f42406122bb565b9050600354611d66611cd1670de0b6b3a7640000611195600454876122bb90919063ffffffff16565b600854604080516370a0823160e01b81523060048201529051611d5a928a926001600160a01b03909116916370a0823191602480820192602092909190829003018186803b158015611d2257600080fd5b505afa158015611d36573d6000803e3d6000fd5b505050506040513d6020811015611d4c57600080fd5b50519063ffffffff61235f16565b9063ffffffff61235f16565b1115611da35760405162461bcd60e51b815260040180806020018281038252602a81526020018061279f602a913960400191505060405180910390fd5b611db782611d5a858863ffffffff61235f16565b600754604080516370a0823160e01b81523060048201529051600160281b9092046001600160a01b0316916370a0823191602480820192602092909190829003018186803b158015611e0857600080fd5b505afa158015611e1c573d6000803e3d6000fd5b505050506040513d6020811015611e3257600080fd5b50511015611e87576040805162461bcd60e51b815260206004820181905260248201527f536565643a207365656420646973747269627574696f6e206578636565646564604482015290519081900360640190fd5b6008546004546001600160a01b03909116906323b872dd9033903090611ed390611ec690670de0b6b3a764000090611195908a9063ffffffff6122bb16565b899063ffffffff61235f16565b6040518463ffffffff1660e01b815260040180846001600160a01b03166001600160a01b03168152602001836001600160a01b03166001600160a01b031681526020018281526020019350505050602060405180830381600087803b158015611f3b57600080fd5b505af1158015611f4f573d6000803e3d6000fd5b505050506040513d6020811015611f6557600080fd5b5051611faa576040805162461bcd60e51b815260206004820152600f60248201526e536565643a206e6f20746f6b656e7360881b604482015290519081900360640190fd5b600254600854604080516370a0823160e01b815230600482015290516001600160a01b03909216916370a0823191602480820192602092909190829003018186803b158015611ff857600080fd5b505afa15801561200c573d6000803e3d6000fd5b505050506040513d602081101561202257600080fd5b50511061203957600c805461ff0019166101001790555b336000818152600e60205260409020546120bd919061205e908863ffffffff61235f16565b336000908152600e6020526040902060030154612081908863ffffffff61235f16565b336000908152600e602052604090206001810154600282015460049092015461ffff90911691906120b8908963ffffffff61235f16565b6124d7565b5050505050565b600854600160a01b900460ff1681565b600c54610100900460ff1681565b6000806120ee836123b9565b915091505b915091565b6001546001600160a01b03163314612145576040805162461bcd60e51b815260206004820152601c602482015260008051602061277f833981519152604482015290519081900360640190fd5b600a5460ff16151560011415612190576040805162461bcd60e51b815260206004820152601a602482015260008051602061280b833981519152604482015290519081900360640190fd5b600a5460ff610100909104161515600114156121e1576040805162461bcd60e51b815260206004820152601a6024820152600080516020612910833981519152604482015290519081900360640190fd5b60075460ff16151560011461223d576040805162461bcd60e51b815260206004820152601f60248201527f536565643a206d6f64756c65206973206e6f742077686974656c697374656400604482015290519081900360640190fd5b60005b8151811015610ab9576001600d600084848151811061225b57fe5b6020908102919091018101516001600160a01b03168252810191909152604001600020805460ff1916911515919091179055600101612240565b6007546301000000900461ffff1681565b6001546001600160a01b031681565b60035481565b6000826122ca57506000612317565b828202828482816122d757fe5b04146123145760405162461bcd60e51b815260040180806020018281038252602181526020018061285b6021913960400191505060405180910390fd5b90505b92915050565b600061231483836040518060400160405280601a81526020017f536166654d6174683a206469766973696f6e206279207a65726f00000000000081525061260e565b600082820183811015612314576040805162461bcd60e51b815260206004820152601b60248201527f536166654d6174683a206164646974696f6e206f766572666c6f770000000000604482015290519081900360640190fd5b6001600160a01b0381166000908152600e6020526040812060055482919082906123f1906123e56126b0565b9063ffffffff6126b416565b90506000612408826201518063ffffffff61231d16565b6007549091506301000000900461ffff1681101561242e579350600092506120f3915050565b600754610100900461ffff168110612474576002830154835460009161245a919063ffffffff6126b416565b600754610100900461ffff16965094506120f39350505050565b600183015460009061249190839061ffff1663ffffffff6126b416565b60075485549192506000916124ae91610100900461ffff1661231d565b905060006124c661ffff84168363ffffffff6122bb16565b9297509195506120f3945050505050565b6007546000906124f1908790610100900461ffff1661231d565b905060008111612548576040805162461bcd60e51b815260206004820152601c60248201527f536565643a20616d6f756e74566573746564506572446179203e203000000000604482015290519081900360640190fd5b61255061274b565b506040805160a08101825287815261ffff8681166020808401918252838501888152606085018b8152608086018981526001600160a01b038f166000818152600e865289902088518155955160018701805461ffff19169190981617909655915160028501555160038401555160049092019190915583518a81529351929391927f3354b37776bd3f8bee9715201d2e43766f360c5c634addb7f6ee8092bd190f7f9281900390910190a25050600b80546001019055505050505050565b6000818361269a5760405162461bcd60e51b81526004018080602001828103825283818151815260200191508051906020019080838360005b8381101561265f578181015183820152602001612647565b50505050905090810190601f16801561268c5780820380516001836020036101000a031916815260200191505b509250505060405180910390fd5b5060008385816126a657fe5b0495945050505050565b4290565b600061231483836040518060400160405280601e81526020017f536166654d6174683a207375627472616374696f6e206f766572666c6f770000815250600081848411156127435760405162461bcd60e51b815260206004820181815283516024840152835190928392604490910191908501908083836000831561265f578181015183820152602001612647565b505050900390565b6040518060a0016040528060008152602001600061ffff168152602001600081526020016000815260200160008152509056fe536565643a2063616c6c65722073686f756c642062652061646d696e00000000536565643a20616d6f756e74206578636565647320636f6e74726163742073616c652068617264436170536565643a20636f6e74726163742073686f756c64206e6f7420626520696e697469616c697a6564206f722063616c6c65722073686f756c642062652061646d696e536565643a2073686f756c64206e6f7420626520636c6f736564000000000000536565643a2063616e6e6f742072657475726e2066756e64696e6720746f6b656e7320746f206d73672e73656e646572536166654d6174683a206d756c7469706c69636174696f6e206f766572666c6f77536565643a2073686f756c64207472616e73666572207365656420746f6b656e7320746f2061646d696e536565643a20636f6e747261637420616c726561647920696e697469616c697a6564536565643a206d696e696d756d2066756e64696e6720616d6f756e74206e6f74206d6574536565643a2063616e6e6f74207472616e7366657220746f2062656e6566696369617279536565643a2073686f756c64206e6f7420626520706175736564000000000000a265627a7a723158205b8dc62dfee64acc95df9c9efb5415726161b893ee918ce82bba8c9fe18ed69a64736f6c634300050d0032",
  "source": "/*\n\n\n\n\n\n\n\n\n*/\n\n// SPDX-License-Identifier: GPL-3.0-or-later\n/* solhint-disable space-after-comma */\n/* solhint-disable max-states-count */\npragma solidity 0.5.13;\n\nimport \"openzeppelin-solidity/contracts/token/ERC20/IERC20.sol\";\nimport \"openzeppelin-solidity/contracts/math/SafeMath.sol\";\n\n\n/**\n * @title primebeneSeed contract\n * @dev   Smart contract for seed phases of liquid launch.\n */\ncontract Seed {\n    using SafeMath for uint256;\n    using SafeMath for uint16;\n    using SafeMath for uint8;\n\n    // Locked parameters\n    address public beneficiary;\n    address public admin;\n    uint    public softCap;\n    uint    public hardCap;\n    uint    public price;\n    uint    public startTime;\n    uint    public endTime;\n    bool    public isWhitelisted;\n    uint16  public vestingDuration;\n    uint16  public vestingCliff;\n    IERC20  public seedToken;\n    IERC20  public fundingToken;\n    uint8   public fee;\n\n    bytes32 public metadata;\n\n    uint256 constant internal PCT_BASE        = 10 ** 18;  // // 0% = 0; 1% = 10 ** 16; 100% = 10 ** 18\n    uint32  public constant PPM               = 1000000;   // parts per million\n    uint256 public constant PPM100            = 100000000; // ppm * 100\n    uint256 constant internal SECONDS_PER_DAY = 86400;\n\n    // Contract logic\n    bool      public closed;\n    bool      public paused;\n    uint256   public totalLockCount;\n    bool      public initialized;\n    bool      public minimumReached;\n\n    mapping (address => bool)    public whitelisted;\n    mapping (address => Lock)    public tokenLocks; // locker to lock\n\n    event LockAdded(address indexed recipient, uint256 locked);\n    event TokensClaimed(address indexed recipient, uint256 amountVested);\n    event FundingReclaimed(address indexed recipient, uint256 amountReclaimed);\n    event MetadataUpdated(bytes32 indexed metadata);\n\n    modifier initializer() {\n        require(!initialized, \"Seed: contract already initialized\");\n        initialized = true;\n        _;\n    }\n\n    modifier onlyAdmin() {\n        require(msg.sender == admin, \"Seed: caller should be admin\");\n        _;\n    }\n\n    modifier protected() {\n        require(closed != true, \"Seed: should not be closed\");\n        require(paused != true, \"Seed: should not be paused\");\n        _;\n    }\n\n    modifier checked() {\n        require(isWhitelisted != true || whitelisted[msg.sender] == true, \"Seed: sender has no rights\");\n        _;\n    }\n\n    modifier checkMinimumReached() {\n        require(minimumReached == true, \"Seed: minimum funding amount not met\");\n        _;\n    }\n\n    modifier beforeMinimumReached() {\n        require(minimumReached == false, \"Seed: minimum already met\");\n        _;\n    }\n\n    struct Lock { \n        uint256 seedAmount;\n        uint16  daysClaimed;\n        uint256 totalClaimed;\n        uint256 fundingAmount;\n        uint256 fee;\n    }\n\n    /**\n      * @dev                          Initialize Seed.\n      * @param _admin                 The address of the admin of this contract. Funds contract\n                                      and has permissions to whitelist users, pause and close contract.\n      * @param _tokens                Array containing two params:\n                                        - The address of the token being distributed.\n      *                                 - The address of the token being exchanged for seed token.\n      * @param _softAndHardCap         Array containing two params:\n                                        - the minimum distribution threshold\n                                        - the highest possible amount to be raised in wei.\n      * @param _price                 The price in wei of fundingTokens when exchanged for seedTokens.\n      * @param _startTime             Distribution start time in unix timecode.\n      * @param _endTime               Distribution end time in unix timecode.\n      * @param _vestingDuration       Vesting period duration in days.\n      * @param _vestingCliff          Cliff duration in days.\n      * @param _isWhitelisted         Set to true if only whitelisted adresses are allowed to participate.\n      * @param _fee                   Success fee expressed in Wei as a % (e.g. 2 = 2% fee)\n    */\n    function initialize(\n        address _beneficiary,\n        address _admin,\n        address[] memory _tokens,\n        uint[] memory    _softAndHardCap,\n        uint    _price,\n        uint    _startTime,\n        uint    _endTime,\n        uint16  _vestingDuration,\n        uint16  _vestingCliff,\n        bool    _isWhitelisted,\n        uint8   _fee\n    ) public initializer {\n        beneficiary     = _beneficiary;\n        admin           = _admin;\n        softCap         = _softAndHardCap[0];\n        hardCap         = _softAndHardCap[1];\n        price           = _price;\n        startTime       = _startTime;\n        endTime         = _endTime;\n        vestingDuration = _vestingDuration;\n        vestingCliff    = _vestingCliff;\n        isWhitelisted   = _isWhitelisted;\n        seedToken       = IERC20(_tokens[0]);\n        fundingToken    = IERC20(_tokens[1]);\n        fee             = _fee;\n        closed          = false;\n        minimumReached  = false;\n    }\n\n    /**\n      * @dev                     Buy seed tokens.\n      * @param _seedAmount       The amount of seed tokens to buy.\n    */\n    function buy(uint256 _seedAmount) public protected checked {\n        //  fundingAmount is an amount of fundingTokens required to buy _seedAmount of SeedTokens\n        uint256 fundingAmount = (_seedAmount.mul(price)).div(PCT_BASE);\n        //  alreadyLockedSeedTokens is an amount of already locked SeedTokens without fee\n        uint256 alreadyLockedSeedTokens = (fundingToken.balanceOf(address(this)).mul(PCT_BASE)).div(price);\n        //  feeAmount is an amount of fee we are going to get in seedTokens\n        uint feeAmount = (_seedAmount.mul(uint(PPM))).mul(fee).div(PPM100);\n        //  lockedSeedFee is an amount of fee we already need to pay in seedTokens\n        uint lockedSeedFee = (alreadyLockedSeedTokens.mul(uint(PPM))).mul(fee).div(PPM100);\n\n        // total fundingAmount should not be greater than the hardCap\n        require( (fundingToken.balanceOf(address(this)).\n                  add(fundingAmount).\n                  add((feeAmount.mul(price)).div(PCT_BASE))) <= hardCap,\n            \"Seed: amount exceeds contract sale hardCap\");\n\n        // We are calculating that we are not exceeding balance of seedTokens in this contract\n        // balanceToBe = amountOfSeedAlreadyLocked + amountOfSeedToLock + SeedFee\n        require( seedToken.balanceOf(address(this)) >= (alreadyLockedSeedTokens.\n                                                        add(_seedAmount).\n                                                        add(feeAmount)),\n            \"Seed: seed distribution exceeded\");\n\n        // Here we are sending amount of tokens to pay for lock and fee\n        // FundingTokensSent = fundingAmount + fundingFee\n        require(fundingToken.transferFrom(msg.sender, address(this), fundingAmount.\n            add(feeAmount.mul(price).div(PCT_BASE))), \"Seed: no tokens\");\n\n        if (fundingToken.balanceOf(address(this)) >= softCap) {\n            minimumReached = true;\n        }\n\n        _addLock(\n            msg.sender,\n            (tokenLocks[msg.sender].seedAmount.add(_seedAmount)),       // Previous Seed Amount + new seed amount\n            (tokenLocks[msg.sender].fundingAmount.add(fundingAmount)),  // Previous Funding Amount + new funding amount\n            tokenLocks[msg.sender].daysClaimed,\n            tokenLocks[msg.sender].totalClaimed,\n            (tokenLocks[msg.sender].fee.add(feeAmount))                 // Previous Fee + new fee\n            );\n    }\n\n    /**\n      * @dev                     Claim locked tokens.\n      * @param _locker           The address of the locker.\n    */\n    function claimLock(address _locker) public checkMinimumReached {\n        uint16 daysVested;\n        uint256 amountVested;\n        (daysVested, amountVested) = _calculateClaim(_locker);\n        require(amountVested > 0, \"Seed: amountVested is 0\");\n\n        Lock storage tokenLock = tokenLocks[_locker];\n        tokenLock.daysClaimed = uint16(tokenLock.daysClaimed.add(daysVested));\n        tokenLock.totalClaimed = uint256(tokenLock.totalClaimed.add(amountVested));\n\n        require(seedToken.transfer(beneficiary, tokenLock.fee), \"Seed: cannot transfer to beneficiary\");\n        require(seedToken.transfer(_locker, amountVested), \"Seed: no tokens\");\n        emit TokensClaimed(_locker, amountVested);\n    }\n\n    /**\n      * @dev         Returns funding tokens to user.\n    */\n    function retrieveFundingTokens() public beforeMinimumReached {\n        require(paused != true, \"Seed: should not be paused\");\n        require(tokenLocks[msg.sender].fundingAmount > 0, \"Seed: zero funding amount\");\n        Lock storage tokenLock = tokenLocks[msg.sender];\n        uint amount = tokenLock.fundingAmount;\n        tokenLock.seedAmount = 0;\n        tokenLock.fee = 0;\n        tokenLock.fundingAmount = 0;\n        uint feeAmount = (amount.mul(uint(PPM))).mul(fee).div(PPM100);\n        require(\n            fundingToken.transfer(msg.sender, (amount.add(feeAmount))),\n            \"Seed: cannot return funding tokens to msg.sender\"\n        );\n        emit FundingReclaimed(msg.sender, amount);\n    }\n\n    // ADMIN ACTIONS\n\n    /**\n      * @dev                     Pause distribution.\n    */\n    function pause() public onlyAdmin protected {\n        paused = true;\n    }\n\n    /**\n      * @dev                     Unpause distribution.\n    */\n    function unpause() public onlyAdmin {\n        require(closed != true, \"Seed: should not be closed\");\n        require(paused == true, \"Seed: should be paused\");\n\n        paused = false;\n    }\n\n    /**\n      * @dev                     Close distribution.\n    */\n    function close() public onlyAdmin protected {\n        // transfer seed tokens back to admin\n        require(\n            seedToken.transfer(admin, seedToken.balanceOf(address(this))),\n            \"Seed: should transfer seed tokens to admin\"\n        );\n\n        closed = true;\n    }\n\n    /**\n      * @dev                     Add address to whitelist.\n    */\n    function whitelist(address _buyer) public onlyAdmin protected {\n        require(isWhitelisted == true, \"Seed: module is not whitelisted\");\n\n        whitelisted[_buyer] = true;\n    }\n\n    /**\n      * @dev                     Add multiple addresses to whitelist.\n    */\n    function whitelistBatch(address[] memory _buyers) public onlyAdmin protected {\n        require(isWhitelisted == true, \"Seed: module is not whitelisted\");\n        for (uint i=0; i < _buyers.length; i++) {\n            whitelisted[_buyers[i]] = true;\n        }\n    }\n\n    /**\n      * @dev                     Remove address from whitelist.\n    */\n    function unwhitelist(address buyer) public onlyAdmin protected {\n        require(isWhitelisted == true, \"Seed: module is not whitelisted\");\n\n        whitelisted[buyer] = false;\n    }\n\n    /**\n      * @dev                     Withdraw funds from the contract\n    */\n    function withdraw() public onlyAdmin checkMinimumReached protected {\n        fundingToken.transfer(msg.sender, fundingToken.balanceOf(address(this)));\n    }\n\n    /**\n      * @dev                     Updates metadata.\n    */\n    function updateMetadata(bytes32 _metadata) public {\n        require(\n            initialized != true || msg.sender == admin,\n            \"Seed: contract should not be initialized or caller should be admin\"\n        );\n        metadata = _metadata;\n        emit MetadataUpdated(_metadata);\n    }\n\n    // GETTER FUNCTIONS\n    function calculateClaim(address _locker) public view returns(uint16, uint256) {\n        return _calculateClaim(_locker);\n    }\n\n    function checkWhitelisted(address _buyer) public view returns(bool) {\n        return whitelisted[_buyer];\n    }\n\n    function getStartTime() public view returns(uint256) {\n        return startTime;  \n    }\n\n    function getSeedAmount(address _locker) public view returns(uint256) {\n        return tokenLocks[_locker].seedAmount;\n    }\n\n    function getDaysClaimed(address _locker) public view returns(uint16) {\n        return tokenLocks[_locker].daysClaimed;\n    }\n\n    function getTotalClaimed(address _locker) public view returns(uint256) {\n        return tokenLocks[_locker].totalClaimed;\n    }\n\n    function getFee(address _locker) public view returns(uint256) {\n        return tokenLocks[_locker].fee;\n    }\n\n    // INTERNAL FUNCTIONS\n    function _currentTime() internal view returns(uint256) {\n        return block.timestamp;\n    }\n\n    function _addLock(\n        address _recipient,\n        uint256 _seedAmount,\n        uint256 _fundingAmount,\n        uint16 _daysClaimed,\n        uint256 _totalClaimed,\n        uint256 _fee\n    )\n    internal\n    {\n\n        uint256 amountVestedPerDay = _seedAmount.div(vestingDuration);\n        require(amountVestedPerDay > 0, \"Seed: amountVestedPerDay > 0\");\n\n        Lock memory lock = Lock({\n            seedAmount: _seedAmount,\n            daysClaimed: _daysClaimed,\n            totalClaimed: _totalClaimed,\n            fundingAmount: _fundingAmount,\n            fee: _fee\n            });\n        tokenLocks[_recipient] = lock;\n        emit LockAdded(_recipient, _seedAmount);\n        totalLockCount++;\n    }\n\n    function _calculateClaim(address _locker) private view returns (uint16, uint256) {\n        Lock storage tokenLock = tokenLocks[_locker];\n\n        // Check cliff was reached\n        uint elapsedTime = _currentTime().sub(startTime);\n        uint elapsedDays = elapsedTime.div(SECONDS_PER_DAY);\n\n        if (elapsedDays < vestingCliff) {\n            return (uint16(elapsedDays), 0);\n        }\n\n        // If over vesting duration, all tokens vested\n        if (elapsedDays >= vestingDuration) {\n            uint256 remainingGrant = tokenLock.seedAmount.sub(tokenLock.totalClaimed);\n            return (vestingDuration, remainingGrant);\n        } else {\n            uint16 daysVested = uint16(elapsedDays.sub(tokenLock.daysClaimed));\n            uint256 amountVestedPerDay = tokenLock.seedAmount.div(uint256(vestingDuration));\n            uint256 amountVested = uint256(daysVested.mul(amountVestedPerDay));\n            return (daysVested, amountVested);\n        }\n    }\n}\n",
  "sourcePath": "/home/kin/Projects/primedao/contracts/contracts/seed/Seed.sol",
  "compiler": {
    "name": "solc",
    "version": "0.5.13+commit.5b0b510c.Emscripten.clang"
  },
  "schemaVersion": "3.2.4",
  "updatedAt": "2021-05-10T11:00:12.739Z",
  "devdoc": {
    "details": "Smart contract for seed phases of liquid launch.",
    "methods": {
      "buy(uint256)": {
        "details": "Buy seed tokens.",
        "params": {
          "_seedAmount": "The amount of seed tokens to buy."
        }
      },
      "claimLock(address)": {
        "details": "Claim locked tokens.",
        "params": {
          "_locker": "The address of the locker."
        }
      },
      "close()": {
        "details": "Close distribution."
      },
      "initialize(address,address,address[],uint256[],uint256,uint256,uint256,uint16,uint16,bool,uint8)": {
        "details": "Initialize Seed.",
        "params": {
          "_admin": "The address of the admin of this contract. Funds contract and has permissions to whitelist users, pause and close contract.",
          "_endTime": "Distribution end time in unix timecode.",
          "_fee": "Success fee expressed in Wei as a % (e.g. 2 = 2% fee)",
          "_isWhitelisted": "Set to true if only whitelisted adresses are allowed to participate.",
          "_price": "The price in wei of fundingTokens when exchanged for seedTokens.",
          "_softAndHardCap": "Array containing two params: - the minimum distribution threshold - the highest possible amount to be raised in wei.",
          "_startTime": "Distribution start time in unix timecode.",
          "_tokens": "Array containing two params: - The address of the token being distributed.                                - The address of the token being exchanged for seed token.",
          "_vestingCliff": "Cliff duration in days.",
          "_vestingDuration": "Vesting period duration in days."
        }
      },
      "pause()": {
        "details": "Pause distribution."
      },
      "retrieveFundingTokens()": {
        "details": "Returns funding tokens to user."
      },
      "unpause()": {
        "details": "Unpause distribution."
      },
      "unwhitelist(address)": {
        "details": "Remove address from whitelist."
      },
      "updateMetadata(bytes32)": {
        "details": "Updates metadata."
      },
      "whitelist(address)": {
        "details": "Add address to whitelist."
      },
      "whitelistBatch(address[])": {
        "details": "Add multiple addresses to whitelist."
      },
      "withdraw()": {
        "details": "Withdraw funds from the contract"
      }
    },
    "title": "primebeneSeed contract"
  },
  "userdoc": {
    "methods": {}
  }
}