{
  "contractName": "Seed",
  "abi": [
    {
      "anonymous": false,
      "inputs": [
        {
          "indexed": true,
          "internalType": "address",
          "name": "recipient",
          "type": "address"
        },
        {
          "indexed": false,
          "internalType": "uint256",
          "name": "amountReclaimed",
          "type": "uint256"
        }
      ],
      "name": "FundingReclaimed",
      "type": "event"
    },
    {
      "anonymous": false,
      "inputs": [
        {
          "indexed": true,
          "internalType": "address",
          "name": "recipient",
          "type": "address"
        },
        {
          "indexed": false,
          "internalType": "uint256",
          "name": "locked",
          "type": "uint256"
        }
      ],
      "name": "LockAdded",
      "type": "event"
    },
    {
      "anonymous": false,
      "inputs": [
        {
          "indexed": true,
          "internalType": "address",
          "name": "recipient",
          "type": "address"
        },
        {
          "indexed": false,
          "internalType": "uint256",
          "name": "amountVested",
          "type": "uint256"
        }
      ],
      "name": "TokensClaimed",
      "type": "event"
    },
    {
      "constant": true,
      "inputs": [],
      "name": "PPM",
      "outputs": [
        {
          "internalType": "uint32",
          "name": "",
          "type": "uint32"
        }
      ],
      "payable": false,
      "stateMutability": "view",
      "type": "function"
    },
    {
      "constant": true,
      "inputs": [],
      "name": "PPM100",
      "outputs": [
        {
          "internalType": "uint256",
          "name": "",
          "type": "uint256"
        }
      ],
      "payable": false,
      "stateMutability": "view",
      "type": "function"
    },
    {
      "constant": true,
      "inputs": [],
      "name": "admin",
      "outputs": [
        {
          "internalType": "address",
          "name": "",
          "type": "address"
        }
      ],
      "payable": false,
      "stateMutability": "view",
      "type": "function"
    },
    {
      "constant": true,
      "inputs": [],
      "name": "beneficiary",
      "outputs": [
        {
          "internalType": "address",
          "name": "",
          "type": "address"
        }
      ],
      "payable": false,
      "stateMutability": "view",
      "type": "function"
    },
    {
      "constant": true,
      "inputs": [],
      "name": "cap",
      "outputs": [
        {
          "internalType": "uint256",
          "name": "",
          "type": "uint256"
        }
      ],
      "payable": false,
      "stateMutability": "view",
      "type": "function"
    },
    {
      "constant": true,
      "inputs": [],
      "name": "closed",
      "outputs": [
        {
          "internalType": "bool",
          "name": "",
          "type": "bool"
        }
      ],
      "payable": false,
      "stateMutability": "view",
      "type": "function"
    },
    {
      "constant": true,
      "inputs": [],
      "name": "endTime",
      "outputs": [
        {
          "internalType": "uint256",
          "name": "",
          "type": "uint256"
        }
      ],
      "payable": false,
      "stateMutability": "view",
      "type": "function"
    },
    {
      "constant": true,
      "inputs": [],
      "name": "fee",
      "outputs": [
        {
          "internalType": "uint8",
          "name": "",
          "type": "uint8"
        }
      ],
      "payable": false,
      "stateMutability": "view",
      "type": "function"
    },
    {
      "constant": true,
      "inputs": [],
      "name": "fundingToken",
      "outputs": [
        {
          "internalType": "contract IERC20",
          "name": "",
          "type": "address"
        }
      ],
      "payable": false,
      "stateMutability": "view",
      "type": "function"
    },
    {
      "constant": true,
      "inputs": [],
      "name": "initialized",
      "outputs": [
        {
          "internalType": "bool",
          "name": "",
          "type": "bool"
        }
      ],
      "payable": false,
      "stateMutability": "view",
      "type": "function"
    },
    {
      "constant": true,
      "inputs": [],
      "name": "isWhitelisted",
      "outputs": [
        {
          "internalType": "bool",
          "name": "",
          "type": "bool"
        }
      ],
      "payable": false,
      "stateMutability": "view",
      "type": "function"
    },
    {
      "constant": true,
      "inputs": [],
      "name": "minimumReached",
      "outputs": [
        {
          "internalType": "bool",
          "name": "",
          "type": "bool"
        }
      ],
      "payable": false,
      "stateMutability": "view",
      "type": "function"
    },
    {
      "constant": true,
      "inputs": [],
      "name": "paused",
      "outputs": [
        {
          "internalType": "bool",
          "name": "",
          "type": "bool"
        }
      ],
      "payable": false,
      "stateMutability": "view",
      "type": "function"
    },
    {
      "constant": true,
      "inputs": [],
      "name": "price",
      "outputs": [
        {
          "internalType": "uint256",
          "name": "",
          "type": "uint256"
        }
      ],
      "payable": false,
      "stateMutability": "view",
      "type": "function"
    },
    {
      "constant": true,
      "inputs": [],
      "name": "seedToken",
      "outputs": [
        {
          "internalType": "contract IERC20",
          "name": "",
          "type": "address"
        }
      ],
      "payable": false,
      "stateMutability": "view",
      "type": "function"
    },
    {
      "constant": true,
      "inputs": [],
      "name": "startTime",
      "outputs": [
        {
          "internalType": "uint256",
          "name": "",
          "type": "uint256"
        }
      ],
      "payable": false,
      "stateMutability": "view",
      "type": "function"
    },
    {
      "constant": true,
      "inputs": [],
      "name": "successMinimum",
      "outputs": [
        {
          "internalType": "uint256",
          "name": "",
          "type": "uint256"
        }
      ],
      "payable": false,
      "stateMutability": "view",
      "type": "function"
    },
    {
      "constant": true,
      "inputs": [
        {
          "internalType": "address",
          "name": "",
          "type": "address"
        }
      ],
      "name": "tokenLocks",
      "outputs": [
        {
          "internalType": "uint256",
          "name": "startTime",
          "type": "uint256"
        },
        {
          "internalType": "uint256",
          "name": "amount",
          "type": "uint256"
        },
        {
          "internalType": "uint16",
          "name": "vestingDuration",
          "type": "uint16"
        },
        {
          "internalType": "uint16",
          "name": "vestingCliff",
          "type": "uint16"
        },
        {
          "internalType": "uint16",
          "name": "daysClaimed",
          "type": "uint16"
        },
        {
          "internalType": "uint256",
          "name": "totalClaimed",
          "type": "uint256"
        },
        {
          "internalType": "address",
          "name": "recipient",
          "type": "address"
        },
        {
          "internalType": "uint256",
          "name": "fundingAmount",
          "type": "uint256"
        },
        {
          "internalType": "uint256",
          "name": "fee",
          "type": "uint256"
        }
      ],
      "payable": false,
      "stateMutability": "view",
      "type": "function"
    },
    {
      "constant": true,
      "inputs": [],
      "name": "totalLockCount",
      "outputs": [
        {
          "internalType": "uint256",
          "name": "",
          "type": "uint256"
        }
      ],
      "payable": false,
      "stateMutability": "view",
      "type": "function"
    },
    {
      "constant": true,
      "inputs": [],
      "name": "vestingCliff",
      "outputs": [
        {
          "internalType": "uint16",
          "name": "",
          "type": "uint16"
        }
      ],
      "payable": false,
      "stateMutability": "view",
      "type": "function"
    },
    {
      "constant": true,
      "inputs": [],
      "name": "vestingDuration",
      "outputs": [
        {
          "internalType": "uint16",
          "name": "",
          "type": "uint16"
        }
      ],
      "payable": false,
      "stateMutability": "view",
      "type": "function"
    },
    {
      "constant": true,
      "inputs": [
        {
          "internalType": "address",
          "name": "",
          "type": "address"
        }
      ],
      "name": "whitelisted",
      "outputs": [
        {
          "internalType": "bool",
          "name": "",
          "type": "bool"
        }
      ],
      "payable": false,
      "stateMutability": "view",
      "type": "function"
    },
    {
      "constant": false,
      "inputs": [
        {
          "internalType": "address",
          "name": "_beneficiary",
          "type": "address"
        },
        {
          "internalType": "address",
          "name": "_admin",
          "type": "address"
        },
        {
          "internalType": "address",
          "name": "_seedToken",
          "type": "address"
        },
        {
          "internalType": "address",
          "name": "_fundingToken",
          "type": "address"
        },
        {
          "internalType": "uint256[]",
          "name": "_successMinimumAndCap",
          "type": "uint256[]"
        },
        {
          "internalType": "uint256",
          "name": "_price",
          "type": "uint256"
        },
        {
          "internalType": "uint256",
          "name": "_startTime",
          "type": "uint256"
        },
        {
          "internalType": "uint256",
          "name": "_endTime",
          "type": "uint256"
        },
        {
          "internalType": "uint16",
          "name": "_vestingDuration",
          "type": "uint16"
        },
        {
          "internalType": "uint16",
          "name": "_vestingCliff",
          "type": "uint16"
        },
        {
          "internalType": "bool",
          "name": "_isWhitelisted",
          "type": "bool"
        },
        {
          "internalType": "uint8",
          "name": "_fee",
          "type": "uint8"
        }
      ],
      "name": "initialize",
      "outputs": [],
      "payable": false,
      "stateMutability": "nonpayable",
      "type": "function"
    },
    {
      "constant": false,
      "inputs": [
        {
          "internalType": "uint256",
          "name": "_amount",
          "type": "uint256"
        }
      ],
      "name": "buy",
      "outputs": [],
      "payable": false,
      "stateMutability": "nonpayable",
      "type": "function"
    },
    {
      "constant": false,
      "inputs": [
        {
          "internalType": "address",
          "name": "_locker",
          "type": "address"
        }
      ],
      "name": "claimLock",
      "outputs": [],
      "payable": false,
      "stateMutability": "nonpayable",
      "type": "function"
    },
    {
      "constant": false,
      "inputs": [],
      "name": "buyBack",
      "outputs": [],
      "payable": false,
      "stateMutability": "nonpayable",
      "type": "function"
    },
    {
      "constant": false,
      "inputs": [],
      "name": "pause",
      "outputs": [],
      "payable": false,
      "stateMutability": "nonpayable",
      "type": "function"
    },
    {
      "constant": false,
      "inputs": [],
      "name": "unpause",
      "outputs": [],
      "payable": false,
      "stateMutability": "nonpayable",
      "type": "function"
    },
    {
      "constant": false,
      "inputs": [],
      "name": "close",
      "outputs": [],
      "payable": false,
      "stateMutability": "nonpayable",
      "type": "function"
    },
    {
      "constant": false,
      "inputs": [
        {
          "internalType": "address",
          "name": "_buyer",
          "type": "address"
        }
      ],
      "name": "whitelist",
      "outputs": [],
      "payable": false,
      "stateMutability": "nonpayable",
      "type": "function"
    },
    {
      "constant": false,
      "inputs": [
        {
          "internalType": "address[]",
          "name": "_buyers",
          "type": "address[]"
        }
      ],
      "name": "whitelistBatch",
      "outputs": [],
      "payable": false,
      "stateMutability": "nonpayable",
      "type": "function"
    },
    {
      "constant": false,
      "inputs": [
        {
          "internalType": "address",
          "name": "buyer",
          "type": "address"
        }
      ],
      "name": "unwhitelist",
      "outputs": [],
      "payable": false,
      "stateMutability": "nonpayable",
      "type": "function"
    },
    {
      "constant": false,
      "inputs": [],
      "name": "withdraw",
      "outputs": [],
      "payable": false,
      "stateMutability": "nonpayable",
      "type": "function"
    },
    {
      "constant": true,
      "inputs": [
        {
          "internalType": "address",
          "name": "_locker",
          "type": "address"
        }
      ],
      "name": "calculateClaim",
      "outputs": [
        {
          "internalType": "uint16",
          "name": "",
          "type": "uint16"
        },
        {
          "internalType": "uint256",
          "name": "",
          "type": "uint256"
        }
      ],
      "payable": false,
      "stateMutability": "view",
      "type": "function"
    },
    {
      "constant": true,
      "inputs": [
        {
          "internalType": "address",
          "name": "_buyer",
          "type": "address"
        }
      ],
      "name": "checkWhitelisted",
      "outputs": [
        {
          "internalType": "bool",
          "name": "",
          "type": "bool"
        }
      ],
      "payable": false,
      "stateMutability": "view",
      "type": "function"
    },
    {
      "constant": true,
      "inputs": [
        {
          "internalType": "address",
          "name": "_locker",
          "type": "address"
        }
      ],
      "name": "getStartTime",
      "outputs": [
        {
          "internalType": "uint256",
          "name": "",
          "type": "uint256"
        }
      ],
      "payable": false,
      "stateMutability": "view",
      "type": "function"
    },
    {
      "constant": true,
      "inputs": [
        {
          "internalType": "address",
          "name": "_locker",
          "type": "address"
        }
      ],
      "name": "getAmount",
      "outputs": [
        {
          "internalType": "uint256",
          "name": "",
          "type": "uint256"
        }
      ],
      "payable": false,
      "stateMutability": "view",
      "type": "function"
    },
    {
      "constant": true,
      "inputs": [
        {
          "internalType": "address",
          "name": "_locker",
          "type": "address"
        }
      ],
      "name": "getVestingDuration",
      "outputs": [
        {
          "internalType": "uint16",
          "name": "",
          "type": "uint16"
        }
      ],
      "payable": false,
      "stateMutability": "view",
      "type": "function"
    },
    {
      "constant": true,
      "inputs": [
        {
          "internalType": "address",
          "name": "_locker",
          "type": "address"
        }
      ],
      "name": "getVestingCliff",
      "outputs": [
        {
          "internalType": "uint16",
          "name": "",
          "type": "uint16"
        }
      ],
      "payable": false,
      "stateMutability": "view",
      "type": "function"
    },
    {
      "constant": true,
      "inputs": [
        {
          "internalType": "address",
          "name": "_locker",
          "type": "address"
        }
      ],
      "name": "getDaysClaimed",
      "outputs": [
        {
          "internalType": "uint16",
          "name": "",
          "type": "uint16"
        }
      ],
      "payable": false,
      "stateMutability": "view",
      "type": "function"
    },
    {
      "constant": true,
      "inputs": [
        {
          "internalType": "address",
          "name": "_locker",
          "type": "address"
        }
      ],
      "name": "getTotalClaimed",
      "outputs": [
        {
          "internalType": "uint256",
          "name": "",
          "type": "uint256"
        }
      ],
      "payable": false,
      "stateMutability": "view",
      "type": "function"
    },
    {
      "constant": true,
      "inputs": [
        {
          "internalType": "address",
          "name": "_locker",
          "type": "address"
        }
      ],
      "name": "getRecipient",
      "outputs": [
        {
          "internalType": "address",
          "name": "",
          "type": "address"
        }
      ],
      "payable": false,
      "stateMutability": "view",
      "type": "function"
    },
    {
      "constant": true,
      "inputs": [
        {
          "internalType": "address",
          "name": "_locker",
          "type": "address"
        }
      ],
      "name": "getFee",
      "outputs": [
        {
          "internalType": "uint256",
          "name": "",
          "type": "uint256"
        }
      ],
      "payable": false,
      "stateMutability": "view",
      "type": "function"
    }
  ],
  "bytecode": "0x608060405234801561001057600080fd5b50612a1f806100206000396000f3fe608060405234801561001057600080fd5b50600436106102695760003560e01c806378e9792511610151578063d6d2721a116100c3578063ea34554011610087578063ea345540146106e9578063eaa535231461072d578063f3640e74146107ce578063f5a79767146107d6578063f851a440146107fc578063fced46801461080457610269565b8063d6d2721a14610678578063d936547e14610680578063d96a094a146106a6578063ddca3f43146106c3578063e565eb4c146106e157610269565b80639a590427116101155780639a590427146105ee5780639b19251a14610614578063a035b1fe1461063a578063acdf4f1814610642578063b88c91481461064a578063b9cb0a851461067057610269565b806378e979251461058a578063805e3ec81461059257806381bf6fdc146105b85780638456cb59146105c0578063986e8539146105c857610269565b806343d726d6116101ea578063597e1fb5116101ae578063597e1fb51461051e5780635c975abb146105265780635e13c7f11461052e578063611b40951461055457806362812a391461055c57806378065f271461058257610269565b806343d726d61461035057806349780afd14610358578063522bf1d41461045357806355be85771461047957806356b63df71461049f57610269565b80633197cbb6116102315780633197cbb614610314578063355274ea1461032e57806338af3eed146103365780633ccfd60b1461033e5780633f4ba83a1461034857610269565b80630d720bbc1461026e5780631514617e1461028f578063158ef93e146102ae57806320d8dad0146102ca578063311f8483146102f0575b600080fd5b61027661082a565b6040805163ffffffff9092168252519081900360200190f35b610297610831565b6040805161ffff9092168252519081900360200190f35b6102b6610840565b604080519115158252519081900360200190f35b6102b6600480360360208110156102e057600080fd5b50356001600160a01b0316610849565b6102f8610867565b604080516001600160a01b039092168252519081900360200190f35b61031c61087d565b60408051918252519081900360200190f35b61031c610883565b6102f8610889565b610346610898565b005b610346610ad2565b610346610bdc565b610346600480360361018081101561036f57600080fd5b6001600160a01b03823581169260208101358216926040820135831692606083013516919081019060a081016080820135600160201b8111156103b157600080fd5b8201836020820111156103c357600080fd5b803590602001918460208302840111600160201b831117156103e457600080fd5b91908080602002602001604051908101604052809392919081815260200183836020028082843760009201919091525092955050823593505050602081013590604081013590606081013561ffff9081169160808101359091169060a081013515159060c0013560ff16610f5d565b61031c6004803603602081101561046957600080fd5b50356001600160a01b03166110f4565b6102976004803603602081101561048f57600080fd5b50356001600160a01b0316611112565b6104c5600480360360208110156104b557600080fd5b50356001600160a01b031661113b565b60408051998a5260208a019890985261ffff96871689890152948616606089015292909416608087015260a08601526001600160a01b0390921660c085015260e084019190915261010083015251908190036101200190f35b6102b6611197565b6102b66111a7565b6102976004803603602081101561054457600080fd5b50356001600160a01b03166111b7565b6102b66111d9565b6102f86004803603602081101561057257600080fd5b50356001600160a01b03166111e2565b6102f8611203565b61031c611212565b61031c600480360360208110156105a857600080fd5b50356001600160a01b0316611218565b61031c611233565b610346611239565b610346600480360360208110156105de57600080fd5b50356001600160a01b031661133f565b6103466004803603602081101561060457600080fd5b50356001600160a01b0316611653565b6103466004803603602081101561062a57600080fd5b50356001600160a01b03166117c1565b61031c611932565b610346611938565b61031c6004803603602081101561066057600080fd5b50356001600160a01b0316611be2565b61031c611c00565b61031c611c06565b6102b66004803603602081101561069657600080fd5b50356001600160a01b0316611c0e565b610346600480360360208110156106bc57600080fd5b5035611c23565b6106cb611fe4565b6040805160ff9092168252519081900360200190f35b6102b6611ff4565b61070f600480360360208110156106ff57600080fd5b50356001600160a01b0316612002565b6040805161ffff909316835260208301919091528051918290030190f35b6103466004803603602081101561074357600080fd5b810190602081018135600160201b81111561075d57600080fd5b82018360208201111561076f57600080fd5b803590602001918460208302840111600160201b8311171561079057600080fd5b919080806020026020016040519081016040528093929190818152602001838360200280828437600092019190915250929550612018945050505050565b6102976121bd565b61031c600480360360208110156107ec57600080fd5b50356001600160a01b03166121ce565b6102f86121ec565b6102976004803603602081101561081a57600080fd5b50356001600160a01b03166121fb565b620f424081565b600754610100900461ffff1681565b600a5460ff1681565b6001600160a01b03166000908152600b602052604090205460ff1690565b600754600160281b90046001600160a01b031681565b60065481565b60035481565b6000546001600160a01b031681565b6001546001600160a01b031633146108e5576040805162461bcd60e51b815260206004820152601c6024820152600080516020612880833981519152604482015290519081900360640190fd5b600a5460ff6101009091041615156001146109315760405162461bcd60e51b815260040180806020018281038252602481526020018061295d6024913960400191505060405180910390fd5b600854600160a81b900460ff16151560011415610983576040805162461bcd60e51b815260206004820152601a60248201526000805160206128a0833981519152604482015290519081900360640190fd5b600854600160b01b900460ff161515600114156109d5576040805162461bcd60e51b815260206004820152601a60248201526000805160206129cb833981519152604482015290519081900360640190fd5b600854604080516370a0823160e01b815230600482015290516001600160a01b039092169163a9059cbb91339184916370a08231916024808301926020929190829003018186803b158015610a2957600080fd5b505afa158015610a3d573d6000803e3d6000fd5b505050506040513d6020811015610a5357600080fd5b5051604080516001600160e01b031960e086901b1681526001600160a01b03909316600484015260248301919091525160448083019260209291908290030181600087803b158015610aa457600080fd5b505af1158015610ab8573d6000803e3d6000fd5b505050506040513d6020811015610ace57600080fd5b5050565b6001546001600160a01b03163314610b1f576040805162461bcd60e51b815260206004820152601c6024820152600080516020612880833981519152604482015290519081900360640190fd5b600854600160a81b900460ff16151560011415610b71576040805162461bcd60e51b815260206004820152601a60248201526000805160206128a0833981519152604482015290519081900360640190fd5b600854600160b01b900460ff161515600114610bcd576040805162461bcd60e51b815260206004820152601660248201527514d959590e881cda1bdd5b19081899481c185d5cd95960521b604482015290519081900360640190fd5b6008805460ff60b01b19169055565b6001546001600160a01b03163314610c29576040805162461bcd60e51b815260206004820152601c6024820152600080516020612880833981519152604482015290519081900360640190fd5b600854600160a81b900460ff16151560011415610c7b576040805162461bcd60e51b815260206004820152601a60248201526000805160206128a0833981519152604482015290519081900360640190fd5b600854600160b01b900460ff16151560011415610ccd576040805162461bcd60e51b815260206004820152601a60248201526000805160206129cb833981519152604482015290519081900360640190fd5b600854600154604080516370a0823160e01b815230600482015290516001600160a01b039384169363a9059cbb93169184916370a0823191602480820192602092909190829003018186803b158015610d2557600080fd5b505afa158015610d39573d6000803e3d6000fd5b505050506040513d6020811015610d4f57600080fd5b5051604080516001600160e01b031960e086901b1681526001600160a01b03909316600484015260248301919091525160448083019260209291908290030181600087803b158015610da057600080fd5b505af1158015610db4573d6000803e3d6000fd5b505050506040513d6020811015610dca57600080fd5b5051610e075760405162461bcd60e51b815260040180806020018281038252602d815260200180612853602d913960400191505060405180910390fd5b600754600154604080516370a0823160e01b815230600482015290516001600160a01b03600160281b90940484169363a9059cbb93169184916370a0823191602480820192602092909190829003018186803b158015610e6657600080fd5b505afa158015610e7a573d6000803e3d6000fd5b505050506040513d6020811015610e9057600080fd5b5051604080516001600160e01b031960e086901b1681526001600160a01b03909316600484015260248301919091525160448083019260209291908290030181600087803b158015610ee157600080fd5b505af1158015610ef5573d6000803e3d6000fd5b505050506040513d6020811015610f0b57600080fd5b5051610f485760405162461bcd60e51b815260040180806020018281038252602a815260200180612911602a913960400191505060405180910390fd5b6008805460ff60a81b1916600160a81b179055565b600a5460ff1615610f9f5760405162461bcd60e51b815260040180806020018281038252602281526020018061293b6022913960400191505060405180910390fd5b6001600a60006101000a81548160ff0219169083151502179055508b6000806101000a8154816001600160a01b0302191690836001600160a01b031602179055508a600160006101000a8154816001600160a01b0302191690836001600160a01b031602179055508760008151811061101457fe5b60200260200101516002819055508760018151811061102f57fe5b60209081029190910101516003556004969096556005949094556006929092556007805462ffff00191661010061ffff938416021764ffff0000001916630100000092909316919091029190911760ff19169115159190911765010000000000600160c81b031916600160281b6001600160a01b0396871602179055600880546001600160a01b031916939094169290921760ff60a01b1916600160a01b60ff909316929092029190911760ff60a81b19169091555050600a805461ff001916905550565b6001600160a01b03166000908152600c602052604090206003015490565b6001600160a01b03166000908152600c6020526040902060020154600160201b900461ffff1690565b600c6020526000908152604090208054600182015460028301546003840154600485015460058601546006909601549495939461ffff80851695620100008604821695600160201b900490911693926001600160a01b03169189565b600854600160a81b900460ff1681565b600854600160b01b900460ff1681565b6001600160a01b03166000908152600c602052604090206002015461ffff1690565b60075460ff1681565b6001600160a01b039081166000908152600c60205260409020600401541690565b6008546001600160a01b031681565b60055481565b6001600160a01b03166000908152600c602052604090205490565b60025481565b6001546001600160a01b03163314611286576040805162461bcd60e51b815260206004820152601c6024820152600080516020612880833981519152604482015290519081900360640190fd5b600854600160a81b900460ff161515600114156112d8576040805162461bcd60e51b815260206004820152601a60248201526000805160206128a0833981519152604482015290519081900360640190fd5b600854600160b01b900460ff1615156001141561132a576040805162461bcd60e51b815260206004820152601a60248201526000805160206129cb833981519152604482015290519081900360640190fd5b6008805460ff60b01b1916600160b01b179055565b600a5460ff61010090910416151560011461138b5760405162461bcd60e51b815260040180806020018281038252602481526020018061295d6024913960400191505060405180910390fd5b60008061139783612223565b9092509050806113ee576040805162461bcd60e51b815260206004820152601760248201527f536565643a20616d6f756e745665737465642069732030000000000000000000604482015290519081900360640190fd5b6001600160a01b0383166000908152600c60205260409020600281015461142a90600160201b900461ffff90811690851663ffffffff61236516565b60028201805461ffff92909216600160201b0265ffff00000000199092169190911790556003810154611463908363ffffffff61236516565b60038201556007546000805460068401546040805163a9059cbb60e01b81526001600160a01b039384166004820152602481019290925251600160281b9094049091169263a9059cbb92604480840193602093929083900390910190829087803b1580156114d057600080fd5b505af11580156114e4573d6000803e3d6000fd5b505050506040513d60208110156114fa57600080fd5b50516115375760405162461bcd60e51b81526004018080602001828103825260248152602001806129a76024913960400191505060405180910390fd5b6007546004808301546040805163a9059cbb60e01b81526001600160a01b03928316938101939093526024830186905251600160281b909304169163a9059cbb916044808201926020929091908290030181600087803b15801561159a57600080fd5b505af11580156115ae573d6000803e3d6000fd5b505050506040513d60208110156115c457600080fd5b5051611609576040805162461bcd60e51b815260206004820152600f60248201526e536565643a206e6f20746f6b656e7360881b604482015290519081900360640190fd5b60048101546040805184815290516001600160a01b03909216917f896e034966eaaf1adc54acc0f257056febbd300c9e47182cf761982cf1f5e4309181900360200190a250505050565b6001546001600160a01b031633146116a0576040805162461bcd60e51b815260206004820152601c6024820152600080516020612880833981519152604482015290519081900360640190fd5b600854600160a81b900460ff161515600114156116f2576040805162461bcd60e51b815260206004820152601a60248201526000805160206128a0833981519152604482015290519081900360640190fd5b600854600160b01b900460ff16151560011415611744576040805162461bcd60e51b815260206004820152601a60248201526000805160206129cb833981519152604482015290519081900360640190fd5b60075460ff1615156001146117a0576040805162461bcd60e51b815260206004820152601f60248201527f536565643a206d6f64756c65206973206e6f742077686974656c697374656400604482015290519081900360640190fd5b6001600160a01b03166000908152600b60205260409020805460ff19169055565b6001546001600160a01b0316331461180e576040805162461bcd60e51b815260206004820152601c6024820152600080516020612880833981519152604482015290519081900360640190fd5b600854600160a81b900460ff16151560011415611860576040805162461bcd60e51b815260206004820152601a60248201526000805160206128a0833981519152604482015290519081900360640190fd5b600854600160b01b900460ff161515600114156118b2576040805162461bcd60e51b815260206004820152601a60248201526000805160206129cb833981519152604482015290519081900360640190fd5b60075460ff16151560011461190e576040805162461bcd60e51b815260206004820152601f60248201527f536565643a206d6f64756c65206973206e6f742077686974656c697374656400604482015290519081900360640190fd5b6001600160a01b03166000908152600b60205260409020805460ff19166001179055565b60045481565b600854600160a81b900460ff1615156001141561198a576040805162461bcd60e51b815260206004820152601a60248201526000805160206128a0833981519152604482015290519081900360640190fd5b600854600160b01b900460ff161515600114156119dc576040805162461bcd60e51b815260206004820152601a60248201526000805160206129cb833981519152604482015290519081900360640190fd5b60075460ff1615156001141580611a075750336000908152600b602052604090205460ff1615156001145b611a58576040805162461bcd60e51b815260206004820152601a60248201527f536565643a2073656e64657220686173206e6f20726967687473000000000000604482015290519081900360640190fd5b600a54610100900460ff1615611ab5576040805162461bcd60e51b815260206004820152601960248201527f536565643a206d696e696d756d20616c7265616479206d657400000000000000604482015290519081900360640190fd5b336000818152600c60209081526040808320600581018054600183018690556006830186905590859055600854835163a9059cbb60e01b81526004810197909752602487018290529251919590946001600160a01b039093169363a9059cbb9360448084019492938390030190829087803b158015611b3357600080fd5b505af1158015611b47573d6000803e3d6000fd5b505050506040513d6020811015611b5d57600080fd5b5051611b9a5760405162461bcd60e51b81526004018080602001828103825260308152602001806128c06030913960400191505060405180910390fd5b60048201546040805183815290516001600160a01b03909216917f1a689b1a62e3bb77f9c98d8759c04f341a67deb5cc63cf53be8324b6910649509181900360200190a25050565b6001600160a01b03166000908152600c602052604090206006015490565b60095481565b6305f5e10081565b600b6020526000908152604090205460ff1681565b600854600160a81b900460ff16151560011415611c75576040805162461bcd60e51b815260206004820152601a60248201526000805160206128a0833981519152604482015290519081900360640190fd5b600854600160b01b900460ff16151560011415611cc7576040805162461bcd60e51b815260206004820152601a60248201526000805160206129cb833981519152604482015290519081900360640190fd5b60075460ff1615156001141580611cf25750336000908152600b602052604090205460ff1615156001145b611d43576040805162461bcd60e51b815260206004820152601a60248201527f536565643a2073656e64657220686173206e6f20726967687473000000000000604482015290519081900360640190fd5b600354600854604080516370a0823160e01b8152306004820152905184926001600160a01b0316916370a08231916024808301926020929190829003018186803b158015611d9057600080fd5b505afa158015611da4573d6000803e3d6000fd5b505050506040513d6020811015611dba57600080fd5b5051011115611dfa5760405162461bcd60e51b81526004018080602001828103825260268152602001806129816026913960400191505060405180910390fd5b600854604080516323b872dd60e01b81523360048201523060248201526044810184905290516001600160a01b03909216916323b872dd916064808201926020929091908290030181600087803b158015611e5457600080fd5b505af1158015611e68573d6000803e3d6000fd5b505050506040513d6020811015611e7e57600080fd5b5051611ec3576040805162461bcd60e51b815260206004820152600f60248201526e536565643a206e6f20746f6b656e7360881b604482015290519081900360640190fd5b600254600854604080516370a0823160e01b815230600482015290516001600160a01b03909216916370a0823191602480820192602092909190829003018186803b158015611f1157600080fd5b505afa158015611f25573d6000803e3d6000fd5b505050506040513d6020811015611f3b57600080fd5b505110611f5257600a805461ff0019166101001790555b600854600090611f95906305f5e10090611f8990600160a01b900460ff16611f7d86620f42406123c8565b9063ffffffff6123c816565b9063ffffffff61242116565b336000818152600c602052604090206001015460045492935091611fdf91904290611fd890670de0b6b3a764000090611f8990611f7d888b63ffffffff61236516565b8686612463565b505050565b600854600160a01b900460ff1681565b600a54610100900460ff1681565b60008061200e83612223565b915091505b915091565b6001546001600160a01b03163314612065576040805162461bcd60e51b815260206004820152601c6024820152600080516020612880833981519152604482015290519081900360640190fd5b600854600160a81b900460ff161515600114156120b7576040805162461bcd60e51b815260206004820152601a60248201526000805160206128a0833981519152604482015290519081900360640190fd5b600854600160b01b900460ff16151560011415612109576040805162461bcd60e51b815260206004820152601a60248201526000805160206129cb833981519152604482015290519081900360640190fd5b60075460ff161515600114612165576040805162461bcd60e51b815260206004820152601f60248201527f536565643a206d6f64756c65206973206e6f742077686974656c697374656400604482015290519081900360640190fd5b60005b8151811015610ace576001600b600084848151811061218357fe5b6020908102919091018101516001600160a01b03168252810191909152604001600020805460ff1916911515919091179055600101612168565b6007546301000000900461ffff1681565b6001600160a01b03166000908152600c602052604090206001015490565b6001546001600160a01b031681565b6001600160a01b03166000908152600c602052604090206002015462010000900461ffff1690565b6001600160a01b0381166000908152600c6020526040812080548291906122486126af565b101561225b575060009150819050612013565b6000612279826000015461226d6126af565b9063ffffffff6126b316565b90506000612290826201518063ffffffff61242116565b600284015490915062010000900461ffff168110156122b757935060009250612013915050565b600283015461ffff1681106122fb5760006122e3846003015485600101546126b390919063ffffffff16565b60029094015461ffff16955092935061201392505050565b6002830154600090612319908390600160201b900461ffff166126b3565b6002850154600186015491925060009161233c9161ffff1663ffffffff61242116565b9050600061235461ffff84168363ffffffff6123c816565b929750919550612013945050505050565b6000828201838110156123bf576040805162461bcd60e51b815260206004820152601b60248201527f536166654d6174683a206164646974696f6e206f766572666c6f770000000000604482015290519081900360640190fd5b90505b92915050565b6000826123d7575060006123c2565b828202828482816123e457fe5b04146123bf5760405162461bcd60e51b81526004018080602001828103825260218152602001806128f06021913960400191505060405180910390fd5b60006123bf83836040518060400160405280601a81526020017f536166654d6174683a206469766973696f6e206279207a65726f0000000000008152506126f5565b60075460009061247d908590610100900461ffff16612421565b9050600081116124d4576040805162461bcd60e51b815260206004820152601c60248201527f536565643a20616d6f756e74566573746564506572446179203e203000000000604482015290519081900360640190fd5b6124dc6127f1565b604051806101200160405280876000146124f657876124fe565b6124fe6126af565b8152602001868152602001600760019054906101000a900461ffff1661ffff168152602001600760039054906101000a900461ffff1661ffff168152602001600061ffff16815260200160008152602001886001600160a01b0316815260200185815260200184815250905080600c6000896001600160a01b03166001600160a01b03168152602001908152602001600020600082015181600001556020820151816001015560408201518160020160006101000a81548161ffff021916908361ffff16021790555060608201518160020160026101000a81548161ffff021916908361ffff16021790555060808201518160020160046101000a81548161ffff021916908361ffff16021790555060a0820151816003015560c08201518160040160006101000a8154816001600160a01b0302191690836001600160a01b0316021790555060e082015181600501556101008201518160060155905050866001600160a01b03167f3354b37776bd3f8bee9715201d2e43766f360c5c634addb7f6ee8092bd190f7f866040518082815260200191505060405180910390a250506009805460010190555050505050565b4290565b60006123bf83836040518060400160405280601e81526020017f536166654d6174683a207375627472616374696f6e206f766572666c6f770000815250612797565b600081836127815760405162461bcd60e51b81526004018080602001828103825283818151815260200191508051906020019080838360005b8381101561274657818101518382015260200161272e565b50505050905090810190601f1680156127735780820380516001836020036101000a031916815260200191505b509250505060405180910390fd5b50600083858161278d57fe5b0495945050505050565b600081848411156127e95760405162461bcd60e51b815260206004820181815283516024840152835190928392604490910191908501908083836000831561274657818101518382015260200161272e565b505050900390565b6040518061012001604052806000815260200160008152602001600061ffff168152602001600061ffff168152602001600061ffff1681526020016000815260200160006001600160a01b031681526020016000815260200160008152509056fe536565643a2073686f756c64207472616e736665722066756e64696e6720746f6b656e7320746f2061646d696e536565643a2063616c6c65722073686f756c642062652061646d696e00000000536565643a2073686f756c64206e6f7420626520636c6f736564000000000000536565643a2063616e6e6f742072657475726e2066756e64696e6720746f6b656e7320746f206d73672e73656e646572536166654d6174683a206d756c7469706c69636174696f6e206f766572666c6f77536565643a2073686f756c64207472616e73666572207365656420746f6b656e7320746f2061646d696e536565643a20636f6e747261637420616c726561647920696e697469616c697a6564536565643a206d696e696d756d2066756e64696e6720616d6f756e74206e6f74206d6574536565643a20616d6f756e74206578636565647320636f6e74726163742073616c6520636170536565643a2063616e6e6f74207472616e7366657220746f2062656e6566696369617279536565643a2073686f756c64206e6f7420626520706175736564000000000000a265627a7a7231582001aa1f295cb263c32e19264063c15895caa22b9284efdef35837e8096c8a24b564736f6c634300050d0032",
  "source": "/*\n\n\n\n\n\n\n\n\n*/\n\n// SPDX-License-Identifier: GPL-3.0-or-later\n/* solhint-disable space-after-comma */\n/* solhint-disable max-states-count */\npragma solidity 0.5.13;\n\nimport \"openzeppelin-solidity/contracts/token/ERC20/IERC20.sol\";\nimport \"openzeppelin-solidity/contracts/math/SafeMath.sol\";\n\n\n/**\n * @title primebeneSeed contract\n * @dev   Smart contract for seed phases of liquid launch.\n */\ncontract Seed {\n    using SafeMath for uint256;\n    using SafeMath for uint16;\n    using SafeMath for uint8;\n\n    // Locked parameters\n    address public beneficiary;\n    address public admin;\n    uint    public successMinimum;\n    uint    public cap;\n    uint    public price;\n    uint    public startTime;\n    uint    public endTime;\n    bool    public isWhitelisted;\n    uint16  public vestingDuration;\n    uint16  public vestingCliff;\n    IERC20  public seedToken;\n    IERC20  public fundingToken;\n    uint8   public fee;\n\n    uint256 constant internal PCT_BASE        = 10 ** 18;  // // 0% = 0; 1% = 10 ** 16; 100% = 10 ** 18\n    uint32  public constant PPM               = 1000000;   // parts per million\n    uint256 public constant PPM100            = 100000000; // ppm * 100\n    uint256 constant internal SECONDS_PER_DAY = 86400;\n\n    // Contract logic\n    bool      public closed;\n    bool      public paused;\n    uint256   public totalLockCount;\n    bool      public initialized;\n    bool      public minimumReached;\n\n    mapping (address => bool)    public whitelisted;\n    mapping (address => Lock)    public tokenLocks; // locker to lock\n\n    event LockAdded(address indexed recipient, uint256 locked);\n    event TokensClaimed(address indexed recipient, uint256 amountVested);\n    event FundingReclaimed(address indexed recipient, uint256 amountReclaimed);\n\n    modifier initializer() {\n        require(!initialized, \"Seed: contract already initialized\");\n        initialized = true;\n        _;\n    }\n\n    modifier onlyAdmin() {\n        require(msg.sender == admin, \"Seed: caller should be admin\");\n        _;\n    }\n\n    modifier protected() {\n        require(closed != true, \"Seed: should not be closed\");\n        require(paused != true, \"Seed: should not be paused\");\n        _;\n    }\n\n    modifier checked() {\n        require(isWhitelisted != true || whitelisted[msg.sender] == true, \"Seed: sender has no rights\");\n        _;\n    }\n\n    modifier checkMinimumReached() {\n        require(minimumReached == true, \"Seed: minimum funding amount not met\");\n        _;\n    }\n\n    modifier beforeMinimumReached() {\n        require(minimumReached == false, \"Seed: minimum already met\");\n        _;\n    }\n\n    struct Lock {\n        uint256 startTime;\n        uint256 amount;\n        uint16  vestingDuration;\n        uint16  vestingCliff;\n        uint16  daysClaimed;\n        uint256 totalClaimed;\n        address recipient;\n        uint256 fundingAmount;\n        uint256 fee;\n    }\n\n    /**\n      * @dev                          Initialize Seed.\n      * @param _beneficiary           The address of the beneficiary revieving the fee.\n      * @param _admin                 The address of the admin of this contract.\n      * @param _seedToken             The address of the token being distributed.\n      * @param _fundingToken          The address of the token being exchanged for seed token.\n      * @param _successMinimumAndCap  Array of the minimum distribution threshold and\n                                      the highest possible amount to be raised.\n      * @param _startTime             Distribution start time in unix timecode.\n      * @param _endTime               Distribution end time in unix timecode.\n      * @param _vestingDuration       Vesting period duration.\n      * @param _vestingCliff          Cliff duration.\n      * @param _isWhitelisted         Set to true if only whitelisted adresses are allowed to participate.\n      * @param _fee                   Success fee as %\n    */\n    function initialize(\n            address _beneficiary,\n            address _admin,\n            address _seedToken,\n            address _fundingToken,\n            uint[] memory    _successMinimumAndCap,\n            uint    _price,\n            uint    _startTime,\n            uint    _endTime,\n            uint16  _vestingDuration,\n            uint16  _vestingCliff,\n            bool    _isWhitelisted,\n            uint8   _fee\n    ) public initializer {\n        beneficiary     = _beneficiary;\n        admin           = _admin;\n        successMinimum  = _successMinimumAndCap[0];\n        cap             = _successMinimumAndCap[1];\n        price           = _price;\n        startTime       = _startTime;\n        endTime         = _endTime;\n        vestingDuration = _vestingDuration;\n        vestingCliff    = _vestingCliff;\n        isWhitelisted   = _isWhitelisted;\n        seedToken       = IERC20(_seedToken);\n        fundingToken    = IERC20(_fundingToken);\n        fee             = _fee;\n        closed          = false;\n        minimumReached  = false;\n    }\n\n    /**\n      * @dev                     Buy seed tokens.\n      * @param _amount           The amount of tokens to buy.\n    */\n    function buy(uint256 _amount) public protected checked {\n        require((fundingToken.balanceOf(address(this)) + _amount) <= cap, \"Seed: amount exceeds contract sale cap\");\n        require(fundingToken.transferFrom(msg.sender, address(this), _amount), \"Seed: no tokens\");\n\n        if (fundingToken.balanceOf(address(this)) >= successMinimum) {\n            minimumReached = true;\n        }\n\n        uint feeAmount = (_amount.mul(uint(PPM))).mul(fee).div(PPM100);\n\n        uint _lockTokens = tokenLocks[msg.sender].amount;\n        _addLock(msg.sender, block.timestamp, (_lockTokens.add(_amount)).mul(price).div(PCT_BASE), _amount, feeAmount);\n    }\n\n    /**\n      * @dev                     Claim locked tokens.\n      * @param _locker           The address of the locker.\n    */\n    function claimLock(address _locker) public checkMinimumReached {\n        uint16 daysVested;\n        uint256 amountVested;\n        (daysVested, amountVested) = _calculateClaim(_locker);\n        require(amountVested > 0, \"Seed: amountVested is 0\");\n\n        Lock storage tokenLock = tokenLocks[_locker];\n        tokenLock.daysClaimed = uint16(tokenLock.daysClaimed.add(daysVested));\n        tokenLock.totalClaimed = uint256(tokenLock.totalClaimed.add(amountVested));\n\n        require(seedToken.transfer(beneficiary, tokenLock.fee), \"Seed: cannot transfer to beneficiary\");\n        require(seedToken.transfer(tokenLock.recipient, amountVested), \"Seed: no tokens\");\n        emit TokensClaimed(tokenLock.recipient, amountVested);\n    }\n\n    /**\n      * @dev         Returns funding tokens to user.\n    */\n    function buyBack() public protected checked beforeMinimumReached {\n        Lock storage tokenLock = tokenLocks[msg.sender];\n        uint amount = tokenLock.fundingAmount;\n        tokenLock.amount = 0;\n        tokenLock.fee = 0;\n        tokenLock.fundingAmount = 0;\n        require(\n            fundingToken.transfer(msg.sender, amount),\n            \"Seed: cannot return funding tokens to msg.sender\"\n        );\n        emit FundingReclaimed(tokenLock.recipient, amount);\n    }\n\n    // ADMIN ACTIONS\n\n    /**\n      * @dev                     Pause distribution.\n    */\n    function pause() public onlyAdmin protected {\n        paused = true;\n    }\n\n    /**\n      * @dev                     Unpause distribution.\n    */\n    function unpause() public onlyAdmin {\n        require(closed != true, \"Seed: should not be closed\");\n        require(paused == true, \"Seed: should be paused\");\n\n        paused = false;\n    }\n\n    /**\n      * @dev                     Close distribution.\n    */\n    function close() public onlyAdmin protected {\n        // transfer all the tokens back to admin\n        require(\n            fundingToken.transfer(admin, fundingToken.balanceOf(address(this))),\n            \"Seed: should transfer funding tokens to admin\"\n        );\n        require(\n            seedToken.transfer(admin, seedToken.balanceOf(address(this))),\n            \"Seed: should transfer seed tokens to admin\"\n        );\n\n        closed = true;\n    }\n\n    /**\n      * @dev                     Add address to whitelist.\n    */\n    function whitelist(address _buyer) public onlyAdmin protected {\n        require(isWhitelisted == true, \"Seed: module is not whitelisted\");\n\n        whitelisted[_buyer] = true;\n    }\n\n    /**\n      * @dev                     Add multiple addresses to whitelist.\n    */\n    function whitelistBatch(address[] memory _buyers) public onlyAdmin protected {\n        require(isWhitelisted == true, \"Seed: module is not whitelisted\");\n        for (uint i=0; i < _buyers.length; i++) {\n            whitelisted[_buyers[i]] = true;\n        }\n    }\n\n    /**\n      * @dev                     Remove address from whitelist.\n    */\n    function unwhitelist(address buyer) public onlyAdmin protected {\n        require(isWhitelisted == true, \"Seed: module is not whitelisted\");\n\n        whitelisted[buyer] = false;\n    }\n\n    /**\n      * @dev                     Withdraw funds from the contract\n    */\n    function withdraw() public onlyAdmin checkMinimumReached protected {\n        fundingToken.transfer(msg.sender, fundingToken.balanceOf(address(this)));\n    }\n\n    // GETTER FUNCTIONS\n    function calculateClaim(address _locker) public view returns(uint16, uint256) {\n        return _calculateClaim(_locker);\n    }\n\n    function checkWhitelisted(address _buyer) public view returns(bool) {\n        return whitelisted[_buyer];\n    }\n\n    function getStartTime(address _locker) public view returns(uint256) {\n        return tokenLocks[_locker].startTime;\n    }\n\n    function getAmount(address _locker) public view returns(uint256) {\n        return tokenLocks[_locker].amount;\n    }\n\n    function getVestingDuration(address _locker) public view returns(uint16) {\n        return tokenLocks[_locker].vestingDuration;\n    }\n\n    function getVestingCliff(address _locker) public view returns(uint16) {\n        return tokenLocks[_locker].vestingCliff;\n    }\n\n    function getDaysClaimed(address _locker) public view returns(uint16) {\n        return tokenLocks[_locker].daysClaimed;\n    }\n\n    function getTotalClaimed(address _locker) public view returns(uint256) {\n        return tokenLocks[_locker].totalClaimed;\n    }\n\n    function getRecipient(address _locker) public view returns(address) {\n        return tokenLocks[_locker].recipient;\n    }\n\n    function getFee(address _locker) public view returns(uint256) {\n        return tokenLocks[_locker].fee;\n    }\n\n    // INTERNAL FUNCTIONS\n    function _currentTime() internal view returns(uint256) {\n        return block.timestamp;\n    }\n\n    function _addLock(\n        address _recipient,\n        uint256 _startTime,\n        uint256 _amount,\n        uint256 _fundingAmount,\n        uint256 _fee\n    )\n        internal\n    {\n\n        uint256 amountVestedPerDay = _amount.div(vestingDuration);\n        require(amountVestedPerDay > 0, \"Seed: amountVestedPerDay > 0\");\n\n        Lock memory lock = Lock({\n            startTime: _startTime == 0 ? _currentTime() : _startTime,\n            amount: _amount,\n            vestingDuration: vestingDuration,\n            vestingCliff: vestingCliff,\n            daysClaimed: 0,\n            totalClaimed: 0,\n            recipient: _recipient,\n            fundingAmount: _fundingAmount,\n            fee: _fee\n        });\n        tokenLocks[_recipient] = lock;\n        emit LockAdded(_recipient, _amount);\n        totalLockCount++;\n    }\n\n    function _calculateClaim(address _locker) private view returns (uint16, uint256) {\n        Lock storage tokenLock = tokenLocks[_locker];\n\n        // For grants created with a future start date, that hasn't been reached, return 0, 0\n        if (_currentTime() < tokenLock.startTime) {\n            return (0, 0);\n        }\n\n        // Check cliff was reached\n        uint elapsedTime = _currentTime().sub(tokenLock.startTime);\n        uint elapsedDays = elapsedTime.div(SECONDS_PER_DAY);\n\n        if (elapsedDays < tokenLock.vestingCliff) {\n            return (uint16(elapsedDays), 0);\n        }\n\n        // If over vesting duration, all tokens vested\n        if (elapsedDays >= tokenLock.vestingDuration) {\n            uint256 remainingGrant = tokenLock.amount.sub(tokenLock.totalClaimed);\n            return (tokenLock.vestingDuration, remainingGrant);\n        } else {\n            uint16 daysVested = uint16(elapsedDays.sub(tokenLock.daysClaimed));\n            uint256 amountVestedPerDay = tokenLock.amount.div(uint256(tokenLock.vestingDuration));\n            uint256 amountVested = uint256(daysVested.mul(amountVestedPerDay));\n            return (daysVested, amountVested);\n        }\n    }\n}\n",
  "sourcePath": "/home/mx/Dev/curve/prime_dao/prime_contracts/contracts/contracts/seed/Seed.sol",
  "compiler": {
    "name": "solc",
    "version": "0.5.13+commit.5b0b510c.Emscripten.clang"
  },
  "schemaVersion": "3.2.4",
  "updatedAt": "2021-04-06T12:36:29.856Z",
  "networkType": "ethereum",
  "devdoc": {
    "details": "Smart contract for seed phases of liquid launch.",
    "methods": {
      "buy(uint256)": {
        "details": "Buy seed tokens.",
        "params": {
          "_amount": "The amount of tokens to buy."
        }
      },
      "buyBack()": {
        "details": "Returns funding tokens to user."
      },
      "claimLock(address)": {
        "details": "Claim locked tokens.",
        "params": {
          "_locker": "The address of the locker."
        }
      },
      "close()": {
        "details": "Close distribution."
      },
      "initialize(address,address,address,address,uint256[],uint256,uint256,uint256,uint16,uint16,bool,uint8)": {
        "details": "Initialize Seed.",
        "params": {
          "_admin": "The address of the admin of this contract.",
          "_beneficiary": "The address of the beneficiary revieving the fee.",
          "_endTime": "Distribution end time in unix timecode.",
          "_fee": "Success fee as %",
          "_fundingToken": "The address of the token being exchanged for seed token.",
          "_isWhitelisted": "Set to true if only whitelisted adresses are allowed to participate.",
          "_seedToken": "The address of the token being distributed.",
          "_startTime": "Distribution start time in unix timecode.",
          "_successMinimumAndCap": "Array of the minimum distribution threshold and the highest possible amount to be raised.",
          "_vestingCliff": "Cliff duration.",
          "_vestingDuration": "Vesting period duration."
        }
      },
      "pause()": {
        "details": "Pause distribution."
      },
      "unpause()": {
        "details": "Unpause distribution."
      },
      "unwhitelist(address)": {
        "details": "Remove address from whitelist."
      },
      "whitelist(address)": {
        "details": "Add address to whitelist."
      },
      "whitelistBatch(address[])": {
        "details": "Add multiple addresses to whitelist."
      },
      "withdraw()": {
        "details": "Withdraw funds from the contract"
      }
    },
    "title": "primebeneSeed contract"
  },
  "userdoc": {
    "methods": {}
  }
}