{
  "contractName": "SeedFactory",
  "abi": [
    {
      "anonymous": false,
      "inputs": [
        {
          "indexed": true,
          "internalType": "address",
          "name": "previousOwner",
          "type": "address"
        },
        {
          "indexed": true,
          "internalType": "address",
          "name": "newOwner",
          "type": "address"
        }
      ],
      "name": "OwnershipTransferred",
      "type": "event"
    },
    {
      "anonymous": false,
      "inputs": [
        {
          "indexed": true,
          "internalType": "address",
          "name": "newSeed",
          "type": "address"
        },
        {
          "indexed": true,
          "internalType": "address",
          "name": "beneficiary",
          "type": "address"
        }
      ],
      "name": "SeedCreated",
      "type": "event"
    },
    {
      "constant": true,
      "inputs": [],
      "name": "isOwner",
      "outputs": [
        {
          "internalType": "bool",
          "name": "",
          "type": "bool"
        }
      ],
      "payable": false,
      "stateMutability": "view",
      "type": "function"
    },
    {
      "constant": true,
      "inputs": [],
      "name": "masterCopy",
      "outputs": [
        {
          "internalType": "contract Seed",
          "name": "",
          "type": "address"
        }
      ],
      "payable": false,
      "stateMutability": "view",
      "type": "function"
    },
    {
      "constant": true,
      "inputs": [],
      "name": "owner",
      "outputs": [
        {
          "internalType": "address",
          "name": "",
          "type": "address"
        }
      ],
      "payable": false,
      "stateMutability": "view",
      "type": "function"
    },
    {
      "constant": false,
      "inputs": [],
      "name": "renounceOwnership",
      "outputs": [],
      "payable": false,
      "stateMutability": "nonpayable",
      "type": "function"
    },
    {
      "constant": false,
      "inputs": [
        {
          "internalType": "address",
          "name": "newOwner",
          "type": "address"
        }
      ],
      "name": "transferOwnership",
      "outputs": [],
      "payable": false,
      "stateMutability": "nonpayable",
      "type": "function"
    },
    {
      "constant": false,
      "inputs": [
        {
          "internalType": "contract Seed",
          "name": "_masterCopy",
          "type": "address"
        }
      ],
      "name": "setMasterCopy",
      "outputs": [],
      "payable": false,
      "stateMutability": "nonpayable",
      "type": "function"
    },
    {
      "constant": false,
      "inputs": [
        {
          "internalType": "address",
          "name": "_beneficiary",
          "type": "address"
        },
        {
          "internalType": "address",
          "name": "_admin",
          "type": "address"
        },
        {
          "internalType": "address[]",
          "name": "_tokens",
          "type": "address[]"
        },
        {
          "internalType": "uint256[]",
          "name": "_softHardThresholds",
          "type": "uint256[]"
        },
        {
          "internalType": "uint256",
          "name": "_price",
          "type": "uint256"
        },
        {
          "internalType": "uint256",
          "name": "_startTime",
          "type": "uint256"
        },
        {
          "internalType": "uint256",
          "name": "_endTime",
          "type": "uint256"
        },
        {
          "internalType": "uint32",
          "name": "_vestingDuration",
          "type": "uint32"
        },
        {
          "internalType": "uint32",
          "name": "_vestingCliff",
          "type": "uint32"
        },
        {
          "internalType": "bool",
          "name": "_permissionedSeed",
          "type": "bool"
        },
        {
          "internalType": "uint8",
          "name": "_fee",
          "type": "uint8"
        },
        {
          "internalType": "bytes",
          "name": "_metadata",
          "type": "bytes"
        }
      ],
      "name": "deploySeed",
      "outputs": [
        {
          "internalType": "address",
          "name": "",
          "type": "address"
        }
      ],
      "payable": false,
      "stateMutability": "nonpayable",
      "type": "function"
    }
  ],
  "bytecode": "0x608060405260006100176001600160e01b0361006616565b600080546001600160a01b0319166001600160a01b0383169081178255604051929350917f8be0079c531659141344cd1fd0a4f28419497f9722a3daafe3b4186f6b6457e0908290a35061006a565b3390565b610c24806100796000396000f3fe608060405234801561001057600080fd5b506004361061007d5760003560e01c80638f32d59b1161005b5780638f32d59b146102af578063a619486e146102cb578063cf497e6c146102d3578063f2fde38b146102f95761007d565b8063715018a614610082578063757295551461008c5780638da5cb5b146102a7575b600080fd5b61008a61031f565b005b61028b60048036036101808110156100a357600080fd5b6001600160a01b0382358116926020810135909116918101906060810160408201356401000000008111156100d757600080fd5b8201836020820111156100e957600080fd5b8035906020019184602083028401116401000000008311171561010b57600080fd5b919080806020026020016040519081016040528093929190818152602001838360200280828437600092019190915250929594936020810193503591505064010000000081111561015b57600080fd5b82018360208201111561016d57600080fd5b8035906020019184602083028401116401000000008311171561018f57600080fd5b91908080602002602001604051908101604052809392919081815260200183836020028082843760009201919091525092958435956020860135956040810135955063ffffffff606082013581169550608082013516935060a081013515159260ff60c08301351692909161010081019060e0013564010000000081111561021657600080fd5b82018360208201111561022857600080fd5b8035906020019184600183028401116401000000008311171561024a57600080fd5b91908080601f0160208091040260200160405190810160405280939291908181526020018383808284376000920191909152509295506103b0945050505050565b604080516001600160a01b039092168252519081900360200190f35b61028b61083b565b6102b761084a565b604080519115158252519081900360200190f35b61028b61086e565b61008a600480360360208110156102e957600080fd5b50356001600160a01b031661087d565b61008a6004803603602081101561030f57600080fd5b50356001600160a01b031661092b565b61032761084a565b610366576040805162461bcd60e51b81526020600482018190526024820152600080516020610b9e833981519152604482015290519081900360640190fd5b600080546040516001600160a01b03909116907f8be0079c531659141344cd1fd0a4f28419497f9722a3daafe3b4186f6b6457e0908390a3600080546001600160a01b0319169055565b60006103ba61084a565b6103f9576040805162461bcd60e51b81526020600482018190526024820152600080516020610b9e833981519152604482015290519081900360640190fd5b6001546001600160a01b03166104405760405162461bcd60e51b815260040180806020018281038252602e815260200180610aa5602e913960400191505060405180910390fd5b8a60018151811061044d57fe5b60200260200101516001600160a01b03168b60008151811061046b57fe5b60200260200101516001600160a01b031614156104b95760405162461bcd60e51b815260040180806020018281038252602d815260200180610af9602d913960400191505060405180910390fd5b896000815181106104c657fe5b60200260200101518a6001815181106104db57fe5b602002602001015110156105205760405162461bcd60e51b8152600401808060200182810382526030815260200180610a756030913960400191505060405180910390fd5b8463ffffffff168663ffffffff16101561056b5760405162461bcd60e51b815260040180806020018281038252603d815260200180610b61603d913960400191505060405180910390fd5b8787116105a95760405162461bcd60e51b815260040180806020018281038252603b815260200180610b26603b913960400191505060405180910390fd5b6001546000906105c1906001600160a01b031661097e565b60405163fc582d4160e01b81526020600482018181528651602484015286519394506001600160a01b0385169363fc582d4193889383926044909201919085019080838360005b83811015610620578181015183820152602001610608565b50505050905090810190601f16801561064d5780820380516001836020036101000a031916815260200191505b5092505050600060405180830381600087803b15801561066c57600080fd5b505af1158015610680573d6000803e3d6000fd5b50505050806001600160a01b031663d80393648f8f8f8f8f8f8f8f8f8f8f6040518c63ffffffff1660e01b8152600401808c6001600160a01b03166001600160a01b031681526020018b6001600160a01b03166001600160a01b0316815260200180602001806020018a81526020018981526020018881526020018763ffffffff1663ffffffff1681526020018663ffffffff1663ffffffff168152602001851515151581526020018460ff1660ff16815260200183810383528c818151815260200191508051906020019060200280838360005b8381101561076d578181015183820152602001610755565b5050505090500183810382528b818151815260200191508051906020019060200280838360005b838110156107ac578181015183820152602001610794565b505050509050019d5050505050505050505050505050600060405180830381600087803b1580156107dc57600080fd5b505af11580156107f0573d6000803e3d6000fd5b50506040513392506001600160a01b03841691507f23fea745ec0ebbc17cc138cc8d1baca7bde3ce83b1fd6d5e1de583961586363990600090a39d9c50505050505050505050505050565b6000546001600160a01b031690565b600080546001600160a01b031661085f6109d0565b6001600160a01b031614905090565b6001546001600160a01b031681565b61088561084a565b6108c4576040805162461bcd60e51b81526020600482018190526024820152600080516020610b9e833981519152604482015290519081900360640190fd5b6001600160a01b0381166109095760405162461bcd60e51b8152600401808060200182810382526032815260200180610bbe6032913960400191505060405180910390fd5b600180546001600160a01b0319166001600160a01b0392909216919091179055565b61093361084a565b610972576040805162461bcd60e51b81526020600482018190526024820152600080516020610b9e833981519152604482015290519081900360640190fd5b61097b816109d4565b50565b6000808260601b9050604051733d602d80600a3d3981f3363d3d373d3d3d363d7360601b81528160148201526e5af43d82803e903d91602b57fd5bf360881b60288201526037816000f0949350505050565b3390565b6001600160a01b038116610a195760405162461bcd60e51b8152600401808060200182810382526026815260200180610ad36026913960400191505060405180910390fd5b600080546040516001600160a01b03808516939216917f8be0079c531659141344cd1fd0a4f28419497f9722a3daafe3b4186f6b6457e091a3600080546001600160a01b0319166001600160a01b039290921691909117905556fe53656564466163746f72793a20686172644361702063616e6e6f74206265206c657373207468616e20736f667443617053656564466163746f72793a206d6173746572636f70792063616e6e6f74206265207a65726f20616464726573734f776e61626c653a206e6577206f776e657220697320746865207a65726f206164647265737353656564466163746f72793a2073656564546f6b656e2063616e6e6f742062652066756e64696e67546f6b656e53656564466163746f72793a20656e6454696d652063616e6e6f74206265206c657373207468616e20657175616c20746f20737461727454696d6553656564466163746f72793a2076657374696e674475726174696f6e2063616e6e6f74206265206c657373207468616e2076657374696e67436c6966664f776e61626c653a2063616c6c6572206973206e6f7420746865206f776e657253656564466163746f72793a206e6577206d6173746572636f70792063616e6e6f74206265207a65726f2061646472657373a265627a7a72315820dfc879e859d90502411fbf5e205c57950e36232d8d04318f49489b805e7ff0e264736f6c634300050d0032",
  "source": "/*\r\n\r\n██████╗░██████╗░██╗███╗░░░███╗███████╗██████╗░░█████╗░░█████╗░\r\n██╔══██╗██╔══██╗██║████╗░████║██╔════╝██╔══██╗██╔══██╗██╔══██╗\r\n██████╔╝██████╔╝██║██╔████╔██║█████╗░░██║░░██║███████║██║░░██║\r\n██╔═══╝░██╔══██╗██║██║╚██╔╝██║██╔══╝░░██║░░██║██╔══██║██║░░██║\r\n██║░░░░░██║░░██║██║██║░╚═╝░██║███████╗██████╔╝██║░░██║╚█████╔╝\r\n╚═╝░░░░░╚═╝░░╚═╝╚═╝╚═╝░░░░░╚═╝╚══════╝╚═════╝░╚═╝░░╚═╝░╚════╝░\r\n\r\n*/\r\n\r\n// SPDX-License-Identifier: GPL-3.0-or-later\r\n/* solhint-disable space-after-comma */\r\npragma solidity 0.5.13;\r\n\r\nimport \"openzeppelin-solidity/contracts/token/ERC20/IERC20.sol\";\r\nimport \"openzeppelin-solidity/contracts/math/SafeMath.sol\";\r\nimport \"openzeppelin-solidity/contracts/ownership/Ownable.sol\";\r\nimport \"./Seed.sol\";\r\nimport \"../utils/CloneFactory.sol\";\r\n\r\n/**\r\n * @title PrimeDAO Seed Factory\r\n * @dev   Enable PrimeDAO governance to create new Seed contracts.\r\n */\r\ncontract SeedFactory is CloneFactory, Ownable {\r\n    using SafeMath for uint256;\r\n\r\n    Seed public masterCopy;\r\n\r\n    event SeedCreated(address indexed newSeed, address indexed beneficiary);\r\n\r\n    /**\r\n     * @dev               Set Seed contract which works as a base for clones.\r\n     * @param _masterCopy The address of the new Seed basis.\r\n     */\r\n    function setMasterCopy(Seed _masterCopy) public onlyOwner {\r\n        require(_masterCopy != Seed(0), \"SeedFactory: new mastercopy cannot be zero address\");\r\n        masterCopy = _masterCopy; \r\n    }\r\n\r\n    /**\r\n      * @dev                          Deploys Seed contract.\r\n      * @param _beneficiary           The address that recieves fees.\r\n      * @param _admin                 The address of the admin of this contract. Funds contract\r\n                                      and has permissions to whitelist users, pause and close contract.\r\n      * @param _tokens                Array containing two params:\r\n                                        - The address of the seed token being distributed.\r\n      *                                 - The address of the funding token being exchanged for seed token.\r\n      * @param _softHardThresholds     Array containing two params:\r\n                                        - the minimum funding token collection threshold in wei denomination.\r\n                                        - the highest possible funding token amount to be raised in wei denomination.\r\n      * @param _price                 1 Funding Token = _price amount of Seed Token. \r\n      * @param _startTime             Distribution start time in unix timecode.\r\n      * @param _endTime               Distribution end time in unix timecode.\r\n      * @param _vestingDuration       Vesting period duration in days.\r\n      * @param _vestingCliff          Cliff duration in days.\r\n      * @param _permissionedSeed         Set to true if only whitelisted adresses are allowed to participate.\r\n      * @param _fee                   Success fee expressed in Wei as a % (e.g. 2 = 2% fee)\r\n      * @param _metadata              Seed contract metadata, that is IPFS URI\r\n    */\r\n    function deploySeed(\r\n        address _beneficiary,\r\n        address _admin,\r\n        address[] memory _tokens,\r\n        uint256[] memory _softHardThresholds,\r\n        uint256 _price,\r\n        uint256 _startTime,\r\n        uint256 _endTime,\r\n        uint32 _vestingDuration,\r\n        uint32 _vestingCliff,\r\n        bool _permissionedSeed,\r\n        uint8 _fee,\r\n        bytes memory _metadata\r\n    ) public onlyOwner returns (address) {\r\n        require(masterCopy != Seed(0), \"SeedFactory: mastercopy cannot be zero address\");\r\n\r\n        // parameter check\r\n        require( _tokens[0] != _tokens[1], \"SeedFactory: seedToken cannot be fundingToken\" );\r\n        require( _softHardThresholds[1] >= _softHardThresholds[0],\"SeedFactory: hardCap cannot be less than softCap\");\r\n        require( _vestingDuration >= _vestingCliff, \"SeedFactory: vestingDuration cannot be less than vestingCliff\" );\r\n        require( _endTime > _startTime, \"SeedFactory: endTime cannot be less than equal to startTime\");\r\n\r\n        // deploy clone\r\n        address _newSeed = createClone(address(masterCopy));\r\n\r\n        Seed(_newSeed).updateMetadata(_metadata);\r\n\r\n        // initialize\r\n        Seed(_newSeed).initialize(\r\n            _beneficiary,\r\n            _admin,\r\n            _tokens,\r\n            _softHardThresholds,\r\n            _price,\r\n            _startTime,\r\n            _endTime,\r\n            _vestingDuration,\r\n            _vestingCliff,\r\n            _permissionedSeed,\r\n            _fee\r\n        );\r\n\r\n        emit SeedCreated(address(_newSeed), msg.sender);\r\n\r\n        return _newSeed;\r\n    }\r\n}\r\n",
  "sourcePath": "E:/curve-labs/PrimeDAO/contracts/contracts/seed/SeedFactory.sol",
  "compiler": {
    "name": "solc",
    "version": "0.5.13+commit.5b0b510c.Emscripten.clang"
  },
  "schemaVersion": "3.4.1",
  "updatedAt": "2021-06-23T13:16:00.556Z",
  "networkType": "ethereum",
  "devdoc": {
    "details": "Enable PrimeDAO governance to create new Seed contracts.",
    "methods": {
      "deploySeed(address,address,address[],uint256[],uint256,uint256,uint256,uint32,uint32,bool,uint8,bytes)": {
        "details": "Deploys Seed contract.",
        "params": {
          "_admin": "The address of the admin of this contract. Funds contract and has permissions to whitelist users, pause and close contract.",
          "_beneficiary": "The address that recieves fees.",
          "_endTime": "Distribution end time in unix timecode.",
          "_fee": "Success fee expressed in Wei as a % (e.g. 2 = 2% fee)",
          "_metadata": "Seed contract metadata, that is IPFS URI",
          "_permissionedSeed": "Set to true if only whitelisted adresses are allowed to participate.",
          "_price": "1 Funding Token = _price amount of Seed Token. ",
          "_softHardThresholds": "Array containing two params: - the minimum funding token collection threshold in wei denomination. - the highest possible funding token amount to be raised in wei denomination.",
          "_startTime": "Distribution start time in unix timecode.",
          "_tokens": "Array containing two params: - The address of the seed token being distributed.                                - The address of the funding token being exchanged for seed token.",
          "_vestingCliff": "Cliff duration in days.",
          "_vestingDuration": "Vesting period duration in days."
        }
      },
      "isOwner()": {
        "details": "Returns true if the caller is the current owner."
      },
      "owner()": {
        "details": "Returns the address of the current owner."
      },
      "renounceOwnership()": {
        "details": "Leaves the contract without owner. It will not be possible to call `onlyOwner` functions anymore. Can only be called by the current owner.     * NOTE: Renouncing ownership will leave the contract without an owner, thereby removing any functionality that is only available to the owner."
      },
      "setMasterCopy(address)": {
        "details": "Set Seed contract which works as a base for clones.",
        "params": {
          "_masterCopy": "The address of the new Seed basis."
        }
      },
      "transferOwnership(address)": {
        "details": "Transfers ownership of the contract to a new account (`newOwner`). Can only be called by the current owner."
      }
    },
    "title": "PrimeDAO Seed Factory"
  },
  "userdoc": {
    "methods": {}
  }
}