{
  "contractName": "SeedFactory",
  "abi": [
    {
      "anonymous": false,
      "inputs": [
        {
          "indexed": true,
          "internalType": "address",
          "name": "newSeed",
          "type": "address"
        },
        {
          "indexed": true,
          "internalType": "address",
          "name": "beneficiary",
          "type": "address"
        }
      ],
      "name": "SeedCreated",
      "type": "event"
    },
    {
      "constant": true,
      "inputs": [],
      "name": "initialized",
      "outputs": [
        {
          "internalType": "bool",
          "name": "",
          "type": "bool"
        }
      ],
      "payable": false,
      "stateMutability": "view",
      "type": "function"
    },
    {
      "constant": true,
      "inputs": [],
      "name": "masterCopy",
      "outputs": [
        {
          "internalType": "contract Seed",
          "name": "",
          "type": "address"
        }
      ],
      "payable": false,
      "stateMutability": "view",
      "type": "function"
    },
    {
      "constant": true,
      "inputs": [],
      "name": "owner",
      "outputs": [
        {
          "internalType": "contract Avatar",
          "name": "",
          "type": "address"
        }
      ],
      "payable": false,
      "stateMutability": "view",
      "type": "function"
    },
    {
      "constant": false,
      "inputs": [
        {
          "internalType": "contract Avatar",
          "name": "_owner",
          "type": "address"
        },
        {
          "internalType": "contract Seed",
          "name": "_masterCopy",
          "type": "address"
        }
      ],
      "name": "initialize",
      "outputs": [],
      "payable": false,
      "stateMutability": "nonpayable",
      "type": "function"
    },
    {
      "constant": false,
      "inputs": [
        {
          "internalType": "contract Seed",
          "name": "newMasterCopy",
          "type": "address"
        }
      ],
      "name": "changeMasterCopy",
      "outputs": [],
      "payable": false,
      "stateMutability": "nonpayable",
      "type": "function"
    },
    {
      "constant": false,
      "inputs": [
        {
          "internalType": "contract Avatar",
          "name": "_newOwner",
          "type": "address"
        }
      ],
      "name": "changeOwner",
      "outputs": [],
      "payable": false,
      "stateMutability": "nonpayable",
      "type": "function"
    },
    {
      "constant": false,
      "inputs": [
        {
          "internalType": "address",
          "name": "_beneficiary",
          "type": "address"
        },
        {
          "internalType": "address",
          "name": "_admin",
          "type": "address"
        },
        {
          "internalType": "address[]",
          "name": "_tokens",
          "type": "address[]"
        },
        {
          "internalType": "uint256[]",
          "name": "_softHardThresholds",
          "type": "uint256[]"
        },
        {
          "internalType": "uint256",
          "name": "_price",
          "type": "uint256"
        },
        {
          "internalType": "uint256",
          "name": "_startTime",
          "type": "uint256"
        },
        {
          "internalType": "uint256",
          "name": "_endTime",
          "type": "uint256"
        },
        {
          "internalType": "uint32",
          "name": "_vestingDuration",
          "type": "uint32"
        },
        {
          "internalType": "uint32",
          "name": "_vestingCliff",
          "type": "uint32"
        },
        {
          "internalType": "bool",
          "name": "_isWhitelisted",
          "type": "bool"
        },
        {
          "internalType": "uint8",
          "name": "_fee",
          "type": "uint8"
        },
        {
          "internalType": "bytes32",
          "name": "_metadata",
          "type": "bytes32"
        }
      ],
      "name": "deploySeed",
      "outputs": [
        {
          "internalType": "address",
          "name": "",
          "type": "address"
        }
      ],
      "payable": false,
      "stateMutability": "nonpayable",
      "type": "function"
    }
  ],
  "bytecode": "0x608060405234801561001057600080fd5b50610986806100206000396000f3fe608060405234801561001057600080fd5b506004361061007d5760003560e01c80637de7edef1161005b5780637de7edef146102635780638da5cb5b14610289578063a619486e14610291578063a6f9dae1146102995761007d565b8063158ef93e1461008257806321fda6151461009e578063485cc95514610233575b600080fd5b61008a6102bf565b604080519115158252519081900360200190f35b61021760048036036101808110156100b557600080fd5b6001600160a01b0382358116926020810135909116918101906060810160408201356401000000008111156100e957600080fd5b8201836020820111156100fb57600080fd5b8035906020019184602083028401116401000000008311171561011d57600080fd5b919080806020026020016040519081016040528093929190818152602001838360200280828437600092019190915250929594936020810193503591505064010000000081111561016d57600080fd5b82018360208201111561017f57600080fd5b803590602001918460208302840111640100000000831117156101a157600080fd5b9190808060200260200160405190810160405280939291908181526020018383602002808284376000920191909152509295505082359350505060208101359060408101359063ffffffff606082013581169160808101359091169060a081013515159060ff60c0820135169060e001356102cf565b604080516001600160a01b039092168252519081900360200190f35b6102616004803603604081101561024957600080fd5b506001600160a01b03813581169160200135166105a6565b005b6102616004803603602081101561027957600080fd5b50356001600160a01b03166106ba565b610217610783565b610217610792565b610261600480360360208110156102af57600080fd5b50356001600160a01b03166107a1565b600154600160a01b900460ff1681565b600080546001600160a01b0316331461032f576040805162461bcd60e51b815260206004820181905260248201527f53656564466163746f72793a2070726f746563746564206f7065726174696f6e604482015290519081900360640190fd5b600154600160a01b900460ff166103775760405162461bcd60e51b81526004018080602001828103825260258152602001806108bd6025913960400191505060405180910390fd5b60015460009061038f906001600160a01b031661086a565b9050806001600160a01b0316634f2d7778846040518263ffffffff1660e01b815260040180828152602001915050600060405180830381600087803b1580156103d757600080fd5b505af11580156103eb573d6000803e3d6000fd5b50505050806001600160a01b031663d80393648f8f8f8f8f8f8f8f8f8f8f6040518c63ffffffff1660e01b8152600401808c6001600160a01b03166001600160a01b031681526020018b6001600160a01b03166001600160a01b0316815260200180602001806020018a81526020018981526020018881526020018763ffffffff1663ffffffff1681526020018663ffffffff1663ffffffff168152602001851515151581526020018460ff1660ff16815260200183810383528c818151815260200191508051906020019060200280838360005b838110156104d85781810151838201526020016104c0565b5050505090500183810382528b818151815260200191508051906020019060200280838360005b838110156105175781810151838201526020016104ff565b505050509050019d5050505050505050505050505050600060405180830381600087803b15801561054757600080fd5b505af115801561055b573d6000803e3d6000fd5b50506040513392506001600160a01b03841691507f23fea745ec0ebbc17cc138cc8d1baca7bde3ce83b1fd6d5e1de583961586363990600090a39d9c50505050505050505050505050565b600154600160a01b900460ff16156105ef5760405162461bcd60e51b81526004018080602001828103825260298152602001806109296029913960400191505060405180910390fd5b6001805460ff60a01b1916600160a01b1790556001600160a01b0382166106475760405162461bcd60e51b81526004018080602001828103825260218152602001806108e26021913960400191505060405180910390fd5b6001600160a01b03811661068c5760405162461bcd60e51b81526004018080602001828103825260268152602001806109036026913960400191505060405180910390fd5b600080546001600160a01b039384166001600160a01b03199182161790915560018054929093169116179055565b6000546001600160a01b03163314610719576040805162461bcd60e51b815260206004820181905260248201527f53656564466163746f72793a2070726f746563746564206f7065726174696f6e604482015290519081900360640190fd5b600154600160a01b900460ff166107615760405162461bcd60e51b81526004018080602001828103825260258152602001806108bd6025913960400191505060405180910390fd5b600180546001600160a01b0319166001600160a01b0392909216919091179055565b6000546001600160a01b031681565b6001546001600160a01b031681565b6000546001600160a01b03163314610800576040805162461bcd60e51b815260206004820181905260248201527f53656564466163746f72793a2070726f746563746564206f7065726174696f6e604482015290519081900360640190fd5b600154600160a01b900460ff166108485760405162461bcd60e51b81526004018080602001828103825260258152602001806108bd6025913960400191505060405180910390fd5b600080546001600160a01b0319166001600160a01b0392909216919091179055565b6000808260601b9050604051733d602d80600a3d3981f3363d3d373d3d3d363d7360601b81528160148201526e5af43d82803e903d91602b57fd5bf360881b60288201526037816000f094935050505056fe53656564466163746f72793a20636f6e7472616374206e6f7420696e697469616c697a656453656564466163746f72793a206f776e65722063616e6e6f74206265206e756c6c53656564466163746f72793a206d6173746572436f70792063616e6e6f74206265206e756c6c53656564466163746f72793a20636f6e747261637420616c726561647920696e697469616c697a6564a265627a7a7231582096ff69176e066abf3229d877d7075b3606b32f0ba41f32962628b40c94e843c464736f6c634300050d0032",
  "source": "/*\r\n\r\n██████╗░██████╗░██╗███╗░░░███╗███████╗██████╗░░█████╗░░█████╗░\r\n██╔══██╗██╔══██╗██║████╗░████║██╔════╝██╔══██╗██╔══██╗██╔══██╗\r\n██████╔╝██████╔╝██║██╔████╔██║█████╗░░██║░░██║███████║██║░░██║\r\n██╔═══╝░██╔══██╗██║██║╚██╔╝██║██╔══╝░░██║░░██║██╔══██║██║░░██║\r\n██║░░░░░██║░░██║██║██║░╚═╝░██║███████╗██████╔╝██║░░██║╚█████╔╝\r\n╚═╝░░░░░╚═╝░░╚═╝╚═╝╚═╝░░░░░╚═╝╚══════╝╚═════╝░╚═╝░░╚═╝░╚════╝░\r\n\r\n*/\r\n\r\n// SPDX-License-Identifier: GPL-3.0-or-later\r\n/* solhint-disable space-after-comma */\r\npragma solidity 0.5.13;\r\n\r\nimport \"@daostack/arc/contracts/controller/Avatar.sol\";\r\nimport \"@daostack/arc/contracts/controller/Controller.sol\";\r\nimport \"openzeppelin-solidity/contracts/token/ERC20/IERC20.sol\";\r\nimport \"openzeppelin-solidity/contracts/math/SafeMath.sol\";\r\nimport \"./Seed.sol\";\r\nimport \"../utils/CloneFactory.sol\";\r\n\r\n/**\r\n * @title primeDAO Seed Factory\r\n * @dev   Enable primeDAO governance to create new Seed contracts.\r\n */\r\ncontract SeedFactory is CloneFactory {\r\n    using SafeMath for uint256;\r\n\r\n    Avatar public owner;\r\n    Seed public masterCopy;\r\n    bool public initialized;\r\n\r\n    event SeedCreated(address indexed newSeed, address indexed beneficiary);\r\n\r\n    modifier initializer() {\r\n        require(!initialized, \"SeedFactory: contract already initialized\");\r\n        initialized = true;\r\n        _;\r\n    }\r\n\r\n    modifier isInitialised() {\r\n        require(initialized, \"SeedFactory: contract not initialized\");\r\n        _;\r\n    }\r\n\r\n    modifier onlyOwner() {\r\n        require(\r\n            msg.sender == address(owner),\r\n            \"SeedFactory: protected operation\"\r\n        );\r\n        _;\r\n    }\r\n\r\n    /**\r\n     * @dev               Initialize proxy.\r\n     * @param _owner     The address of the owner controlling this contract.\r\n     * @param _masterCopy The address of the Seed contract which will be a masterCopy for all of the clones.\r\n     */\r\n    function initialize(Avatar _owner, Seed _masterCopy) external initializer {\r\n        require(_owner     != Avatar(0), \"SeedFactory: owner cannot be null\");\r\n        require(_masterCopy != Seed(0),   \"SeedFactory: masterCopy cannot be null\");\r\n        owner = _owner;\r\n        masterCopy = _masterCopy;\r\n    }\r\n\r\n    /**\r\n     * @dev             Update Seed contract which works as a base for clones.\r\n     * @param newMasterCopy The address of the new Seed basis.\r\n     */\r\n    function changeMasterCopy(Seed newMasterCopy) public onlyOwner isInitialised {\r\n        masterCopy = newMasterCopy;\r\n    }\r\n\r\n    /**\r\n     * @dev             Update Owner.\r\n     * @param _newOwner The address of the new Owner.\r\n     */\r\n    function changeOwner(Avatar _newOwner) public onlyOwner isInitialised {\r\n        owner = _newOwner;\r\n    }\r\n\r\n    /**\r\n      * @dev                          Deploys Seed contract.\r\n      * @param _beneficiary           The address that recieves fees.\r\n      * @param _admin                 The address of the admin of this contract. Funds contract\r\n                                      and has permissions to whitelist users, pause and close contract.\r\n      * @param _tokens                Array containing two params:\r\n                                        - The address of the seed token being distributed.\r\n      *                                 - The address of the funding token being exchanged for seed token.\r\n      * @param _softHardThresholds     Array containing two params:\r\n                                        - the minimum funding token collection threshold in wei denomination.\r\n                                        - the highest possible funding token amount to be raised in wei denomination.\r\n      * @param _price                 The price in wei of fundingTokens when exchanged for seedTokens.\r\n      * @param _startTime             Distribution start time in unix timecode.\r\n      * @param _endTime               Distribution end time in unix timecode.\r\n      * @param _vestingDuration       Vesting period duration in days.\r\n      * @param _vestingCliff          Cliff duration in days.\r\n      * @param _isWhitelisted         Set to true if only whitelisted adresses are allowed to participate.\r\n      * @param _fee                   Success fee expressed in Wei as a % (e.g. 2 = 2% fee)\r\n      * @param _metadata              Seed contract metadata, that is IPFS URI\r\n    */\r\n    function deploySeed(\r\n        address _beneficiary,\r\n        address _admin,\r\n        address[] memory _tokens,\r\n        uint256[] memory _softHardThresholds,\r\n        uint256 _price,\r\n        uint256 _startTime,\r\n        uint256 _endTime,\r\n        uint32 _vestingDuration,\r\n        uint32 _vestingCliff,\r\n        bool _isWhitelisted,\r\n        uint8 _fee,\r\n        bytes32 _metadata\r\n    ) public onlyOwner isInitialised returns (address) {\r\n        // deploy clone\r\n        address _newSeed = createClone(address(masterCopy));\r\n\r\n        Seed(_newSeed).updateMetadata(_metadata);\r\n\r\n        // initialize\r\n        Seed(_newSeed).initialize(\r\n            _beneficiary,\r\n            _admin,\r\n            _tokens,\r\n            _softHardThresholds,\r\n            _price,\r\n            _startTime,\r\n            _endTime,\r\n            _vestingDuration,\r\n            _vestingCliff,\r\n            _isWhitelisted,\r\n            _fee\r\n        );\r\n\r\n        emit SeedCreated(address(_newSeed), msg.sender);\r\n\r\n        return address(_newSeed);\r\n    }\r\n}\r\n",
  "sourcePath": "E:/curve-labs/PrimeDAO/contracts/contracts/seed/SeedFactory.sol",
  "compiler": {
    "name": "solc",
    "version": "0.5.13+commit.5b0b510c.Emscripten.clang"
  },
  "schemaVersion": "3.4.1",
  "updatedAt": "2021-05-27T11:17:22.258Z",
  "networkType": "ethereum",
  "devdoc": {
    "details": "Enable primeDAO governance to create new Seed contracts.",
    "methods": {
      "changeMasterCopy(address)": {
        "details": "Update Seed contract which works as a base for clones.",
        "params": {
          "newMasterCopy": "The address of the new Seed basis."
        }
      },
      "changeOwner(address)": {
        "details": "Update Owner.",
        "params": {
          "_newOwner": "The address of the new Owner."
        }
      },
      "deploySeed(address,address,address[],uint256[],uint256,uint256,uint256,uint32,uint32,bool,uint8,bytes32)": {
        "details": "Deploys Seed contract.",
        "params": {
          "_admin": "The address of the admin of this contract. Funds contract and has permissions to whitelist users, pause and close contract.",
          "_beneficiary": "The address that recieves fees.",
          "_endTime": "Distribution end time in unix timecode.",
          "_fee": "Success fee expressed in Wei as a % (e.g. 2 = 2% fee)",
          "_isWhitelisted": "Set to true if only whitelisted adresses are allowed to participate.",
          "_metadata": "Seed contract metadata, that is IPFS URI",
          "_price": "The price in wei of fundingTokens when exchanged for seedTokens.",
          "_softHardThresholds": "Array containing two params: - the minimum funding token collection threshold in wei denomination. - the highest possible funding token amount to be raised in wei denomination.",
          "_startTime": "Distribution start time in unix timecode.",
          "_tokens": "Array containing two params: - The address of the seed token being distributed.                                - The address of the funding token being exchanged for seed token.",
          "_vestingCliff": "Cliff duration in days.",
          "_vestingDuration": "Vesting period duration in days."
        }
      },
      "initialize(address,address)": {
        "details": "Initialize proxy.",
        "params": {
          "_masterCopy": "The address of the Seed contract which will be a masterCopy for all of the clones.",
          "_owner": "The address of the owner controlling this contract."
        }
      }
    },
    "title": "primeDAO Seed Factory"
  },
  "userdoc": {
    "methods": {}
  }
}