{
  "contractName": "Seed",
  "abi": [
    {
      "anonymous": false,
      "inputs": [
        {
          "indexed": true,
          "internalType": "address",
          "name": "recipient",
          "type": "address"
        },
        {
          "indexed": false,
          "internalType": "uint256",
          "name": "amountReclaimed",
          "type": "uint256"
        }
      ],
      "name": "FundingReclaimed",
      "type": "event"
    },
    {
      "anonymous": false,
      "inputs": [
        {
          "indexed": true,
          "internalType": "bytes",
          "name": "metadata",
          "type": "bytes"
        }
      ],
      "name": "MetadataUpdated",
      "type": "event"
    },
    {
      "anonymous": false,
      "inputs": [
        {
          "indexed": true,
          "internalType": "address",
          "name": "recipient",
          "type": "address"
        },
        {
          "indexed": false,
          "internalType": "uint256",
          "name": "amountPurchased",
          "type": "uint256"
        }
      ],
      "name": "SeedsPurchased",
      "type": "event"
    },
    {
      "anonymous": false,
      "inputs": [
        {
          "indexed": true,
          "internalType": "address",
          "name": "recipient",
          "type": "address"
        },
        {
          "indexed": false,
          "internalType": "uint256",
          "name": "amount",
          "type": "uint256"
        },
        {
          "indexed": true,
          "internalType": "address",
          "name": "beneficiary",
          "type": "address"
        },
        {
          "indexed": false,
          "internalType": "uint256",
          "name": "feeAmount",
          "type": "uint256"
        }
      ],
      "name": "TokensClaimed",
      "type": "event"
    },
    {
      "constant": true,
      "inputs": [],
      "name": "admin",
      "outputs": [
        {
          "internalType": "address",
          "name": "",
          "type": "address"
        }
      ],
      "payable": false,
      "stateMutability": "view",
      "type": "function"
    },
    {
      "constant": true,
      "inputs": [],
      "name": "beneficiary",
      "outputs": [
        {
          "internalType": "address",
          "name": "",
          "type": "address"
        }
      ],
      "payable": false,
      "stateMutability": "view",
      "type": "function"
    },
    {
      "constant": true,
      "inputs": [],
      "name": "closed",
      "outputs": [
        {
          "internalType": "bool",
          "name": "",
          "type": "bool"
        }
      ],
      "payable": false,
      "stateMutability": "view",
      "type": "function"
    },
    {
      "constant": true,
      "inputs": [],
      "name": "endTime",
      "outputs": [
        {
          "internalType": "uint256",
          "name": "",
          "type": "uint256"
        }
      ],
      "payable": false,
      "stateMutability": "view",
      "type": "function"
    },
    {
      "constant": true,
      "inputs": [],
      "name": "fee",
      "outputs": [
        {
          "internalType": "uint8",
          "name": "",
          "type": "uint8"
        }
      ],
      "payable": false,
      "stateMutability": "view",
      "type": "function"
    },
    {
      "constant": true,
      "inputs": [],
      "name": "feeAmountRequired",
      "outputs": [
        {
          "internalType": "uint256",
          "name": "",
          "type": "uint256"
        }
      ],
      "payable": false,
      "stateMutability": "view",
      "type": "function"
    },
    {
      "constant": true,
      "inputs": [],
      "name": "feeClaimed",
      "outputs": [
        {
          "internalType": "uint256",
          "name": "",
          "type": "uint256"
        }
      ],
      "payable": false,
      "stateMutability": "view",
      "type": "function"
    },
    {
      "constant": true,
      "inputs": [],
      "name": "feeRemainder",
      "outputs": [
        {
          "internalType": "uint256",
          "name": "",
          "type": "uint256"
        }
      ],
      "payable": false,
      "stateMutability": "view",
      "type": "function"
    },
    {
      "constant": true,
      "inputs": [
        {
          "internalType": "address",
          "name": "",
          "type": "address"
        }
      ],
      "name": "funders",
      "outputs": [
        {
          "internalType": "uint256",
          "name": "seedAmount",
          "type": "uint256"
        },
        {
          "internalType": "uint256",
          "name": "totalClaimed",
          "type": "uint256"
        },
        {
          "internalType": "uint256",
          "name": "fundingAmount",
          "type": "uint256"
        },
        {
          "internalType": "uint256",
          "name": "fee",
          "type": "uint256"
        },
        {
          "internalType": "uint256",
          "name": "feeClaimed",
          "type": "uint256"
        }
      ],
      "payable": false,
      "stateMutability": "view",
      "type": "function"
    },
    {
      "constant": true,
      "inputs": [],
      "name": "fundingCollected",
      "outputs": [
        {
          "internalType": "uint256",
          "name": "",
          "type": "uint256"
        }
      ],
      "payable": false,
      "stateMutability": "view",
      "type": "function"
    },
    {
      "constant": true,
      "inputs": [],
      "name": "fundingToken",
      "outputs": [
        {
          "internalType": "contract IERC20",
          "name": "",
          "type": "address"
        }
      ],
      "payable": false,
      "stateMutability": "view",
      "type": "function"
    },
    {
      "constant": true,
      "inputs": [],
      "name": "fundingWithdrawn",
      "outputs": [
        {
          "internalType": "uint256",
          "name": "",
          "type": "uint256"
        }
      ],
      "payable": false,
      "stateMutability": "view",
      "type": "function"
    },
    {
      "constant": true,
      "inputs": [],
      "name": "hardCap",
      "outputs": [
        {
          "internalType": "uint256",
          "name": "",
          "type": "uint256"
        }
      ],
      "payable": false,
      "stateMutability": "view",
      "type": "function"
    },
    {
      "constant": true,
      "inputs": [],
      "name": "initialized",
      "outputs": [
        {
          "internalType": "bool",
          "name": "",
          "type": "bool"
        }
      ],
      "payable": false,
      "stateMutability": "view",
      "type": "function"
    },
    {
      "constant": true,
      "inputs": [],
      "name": "isFunded",
      "outputs": [
        {
          "internalType": "bool",
          "name": "",
          "type": "bool"
        }
      ],
      "payable": false,
      "stateMutability": "view",
      "type": "function"
    },
    {
      "constant": true,
      "inputs": [],
      "name": "maximumReached",
      "outputs": [
        {
          "internalType": "bool",
          "name": "",
          "type": "bool"
        }
      ],
      "payable": false,
      "stateMutability": "view",
      "type": "function"
    },
    {
      "constant": true,
      "inputs": [],
      "name": "metadata",
      "outputs": [
        {
          "internalType": "bytes",
          "name": "",
          "type": "bytes"
        }
      ],
      "payable": false,
      "stateMutability": "view",
      "type": "function"
    },
    {
      "constant": true,
      "inputs": [],
      "name": "minimumReached",
      "outputs": [
        {
          "internalType": "bool",
          "name": "",
          "type": "bool"
        }
      ],
      "payable": false,
      "stateMutability": "view",
      "type": "function"
    },
    {
      "constant": true,
      "inputs": [],
      "name": "paused",
      "outputs": [
        {
          "internalType": "bool",
          "name": "",
          "type": "bool"
        }
      ],
      "payable": false,
      "stateMutability": "view",
      "type": "function"
    },
    {
      "constant": true,
      "inputs": [],
      "name": "permissionedSeed",
      "outputs": [
        {
          "internalType": "bool",
          "name": "",
          "type": "bool"
        }
      ],
      "payable": false,
      "stateMutability": "view",
      "type": "function"
    },
    {
      "constant": true,
      "inputs": [],
      "name": "price",
      "outputs": [
        {
          "internalType": "uint256",
          "name": "",
          "type": "uint256"
        }
      ],
      "payable": false,
      "stateMutability": "view",
      "type": "function"
    },
    {
      "constant": true,
      "inputs": [],
      "name": "seedAmountRequired",
      "outputs": [
        {
          "internalType": "uint256",
          "name": "",
          "type": "uint256"
        }
      ],
      "payable": false,
      "stateMutability": "view",
      "type": "function"
    },
    {
      "constant": true,
      "inputs": [],
      "name": "seedClaimed",
      "outputs": [
        {
          "internalType": "uint256",
          "name": "",
          "type": "uint256"
        }
      ],
      "payable": false,
      "stateMutability": "view",
      "type": "function"
    },
    {
      "constant": true,
      "inputs": [],
      "name": "seedRemainder",
      "outputs": [
        {
          "internalType": "uint256",
          "name": "",
          "type": "uint256"
        }
      ],
      "payable": false,
      "stateMutability": "view",
      "type": "function"
    },
    {
      "constant": true,
      "inputs": [],
      "name": "seedToken",
      "outputs": [
        {
          "internalType": "contract IERC20",
          "name": "",
          "type": "address"
        }
      ],
      "payable": false,
      "stateMutability": "view",
      "type": "function"
    },
    {
      "constant": true,
      "inputs": [],
      "name": "softCap",
      "outputs": [
        {
          "internalType": "uint256",
          "name": "",
          "type": "uint256"
        }
      ],
      "payable": false,
      "stateMutability": "view",
      "type": "function"
    },
    {
      "constant": true,
      "inputs": [],
      "name": "startTime",
      "outputs": [
        {
          "internalType": "uint256",
          "name": "",
          "type": "uint256"
        }
      ],
      "payable": false,
      "stateMutability": "view",
      "type": "function"
    },
    {
      "constant": true,
      "inputs": [],
      "name": "totalFunderCount",
      "outputs": [
        {
          "internalType": "uint256",
          "name": "",
          "type": "uint256"
        }
      ],
      "payable": false,
      "stateMutability": "view",
      "type": "function"
    },
    {
      "constant": true,
      "inputs": [],
      "name": "vestingCliff",
      "outputs": [
        {
          "internalType": "uint32",
          "name": "",
          "type": "uint32"
        }
      ],
      "payable": false,
      "stateMutability": "view",
      "type": "function"
    },
    {
      "constant": true,
      "inputs": [],
      "name": "vestingDuration",
      "outputs": [
        {
          "internalType": "uint32",
          "name": "",
          "type": "uint32"
        }
      ],
      "payable": false,
      "stateMutability": "view",
      "type": "function"
    },
    {
      "constant": true,
      "inputs": [],
      "name": "vestingStartTime",
      "outputs": [
        {
          "internalType": "uint256",
          "name": "",
          "type": "uint256"
        }
      ],
      "payable": false,
      "stateMutability": "view",
      "type": "function"
    },
    {
      "constant": true,
      "inputs": [
        {
          "internalType": "address",
          "name": "",
          "type": "address"
        }
      ],
      "name": "whitelisted",
      "outputs": [
        {
          "internalType": "bool",
          "name": "",
          "type": "bool"
        }
      ],
      "payable": false,
      "stateMutability": "view",
      "type": "function"
    },
    {
      "constant": false,
      "inputs": [
        {
          "internalType": "address",
          "name": "_beneficiary",
          "type": "address"
        },
        {
          "internalType": "address",
          "name": "_admin",
          "type": "address"
        },
        {
          "internalType": "address[]",
          "name": "_tokens",
          "type": "address[]"
        },
        {
          "internalType": "uint256[]",
          "name": "_softHardThresholds",
          "type": "uint256[]"
        },
        {
          "internalType": "uint256",
          "name": "_price",
          "type": "uint256"
        },
        {
          "internalType": "uint256",
          "name": "_startTime",
          "type": "uint256"
        },
        {
          "internalType": "uint256",
          "name": "_endTime",
          "type": "uint256"
        },
        {
          "internalType": "uint32",
          "name": "_vestingDuration",
          "type": "uint32"
        },
        {
          "internalType": "uint32",
          "name": "_vestingCliff",
          "type": "uint32"
        },
        {
          "internalType": "bool",
          "name": "_permissionedSeed",
          "type": "bool"
        },
        {
          "internalType": "uint8",
          "name": "_fee",
          "type": "uint8"
        }
      ],
      "name": "initialize",
      "outputs": [],
      "payable": false,
      "stateMutability": "nonpayable",
      "type": "function"
    },
    {
      "constant": false,
      "inputs": [
        {
          "internalType": "uint256",
          "name": "_fundingAmount",
          "type": "uint256"
        }
      ],
      "name": "buy",
      "outputs": [
        {
          "internalType": "uint256",
          "name": "",
          "type": "uint256"
        },
        {
          "internalType": "uint256",
          "name": "",
          "type": "uint256"
        }
      ],
      "payable": false,
      "stateMutability": "nonpayable",
      "type": "function"
    },
    {
      "constant": false,
      "inputs": [
        {
          "internalType": "address",
          "name": "_funder",
          "type": "address"
        },
        {
          "internalType": "uint256",
          "name": "_claimAmount",
          "type": "uint256"
        }
      ],
      "name": "claim",
      "outputs": [
        {
          "internalType": "uint256",
          "name": "",
          "type": "uint256"
        }
      ],
      "payable": false,
      "stateMutability": "nonpayable",
      "type": "function"
    },
    {
      "constant": false,
      "inputs": [],
      "name": "retrieveFundingTokens",
      "outputs": [
        {
          "internalType": "uint256",
          "name": "",
          "type": "uint256"
        }
      ],
      "payable": false,
      "stateMutability": "nonpayable",
      "type": "function"
    },
    {
      "constant": false,
      "inputs": [],
      "name": "pause",
      "outputs": [],
      "payable": false,
      "stateMutability": "nonpayable",
      "type": "function"
    },
    {
      "constant": false,
      "inputs": [],
      "name": "unpause",
      "outputs": [],
      "payable": false,
      "stateMutability": "nonpayable",
      "type": "function"
    },
    {
      "constant": false,
      "inputs": [],
      "name": "close",
      "outputs": [],
      "payable": false,
      "stateMutability": "nonpayable",
      "type": "function"
    },
    {
      "constant": false,
      "inputs": [
        {
          "internalType": "address",
          "name": "_buyer",
          "type": "address"
        }
      ],
      "name": "whitelist",
      "outputs": [],
      "payable": false,
      "stateMutability": "nonpayable",
      "type": "function"
    },
    {
      "constant": false,
      "inputs": [
        {
          "internalType": "address[]",
          "name": "_buyers",
          "type": "address[]"
        }
      ],
      "name": "whitelistBatch",
      "outputs": [],
      "payable": false,
      "stateMutability": "nonpayable",
      "type": "function"
    },
    {
      "constant": false,
      "inputs": [
        {
          "internalType": "address",
          "name": "buyer",
          "type": "address"
        }
      ],
      "name": "unwhitelist",
      "outputs": [],
      "payable": false,
      "stateMutability": "nonpayable",
      "type": "function"
    },
    {
      "constant": false,
      "inputs": [],
      "name": "withdraw",
      "outputs": [],
      "payable": false,
      "stateMutability": "nonpayable",
      "type": "function"
    },
    {
      "constant": false,
      "inputs": [
        {
          "internalType": "bytes",
          "name": "_metadata",
          "type": "bytes"
        }
      ],
      "name": "updateMetadata",
      "outputs": [],
      "payable": false,
      "stateMutability": "nonpayable",
      "type": "function"
    },
    {
      "constant": true,
      "inputs": [
        {
          "internalType": "address",
          "name": "_funder",
          "type": "address"
        }
      ],
      "name": "calculateClaim",
      "outputs": [
        {
          "internalType": "uint256",
          "name": "",
          "type": "uint256"
        }
      ],
      "payable": false,
      "stateMutability": "view",
      "type": "function"
    },
    {
      "constant": true,
      "inputs": [
        {
          "internalType": "address",
          "name": "_buyer",
          "type": "address"
        }
      ],
      "name": "checkWhitelisted",
      "outputs": [
        {
          "internalType": "bool",
          "name": "",
          "type": "bool"
        }
      ],
      "payable": false,
      "stateMutability": "view",
      "type": "function"
    }
  ],
  "bytecode": "0x608060405234801561001057600080fd5b50612dc7806100206000396000f3fe608060405234801561001057600080fd5b506004361061028a5760003560e01c806383d59e001161015c578063d8039364116100ce578063ea34554011610087578063ea34554014610732578063eaa5352314610758578063f3640e74146107f9578063f851a44014610801578063fb86a40414610809578063fc582d41146108115761028a565b8063d803936414610538578063d936547e146106a8578063d96a094a146106ce578063ddca3f4314610704578063e565eb4c14610722578063e6e36ebb1461072a5761028a565b80639b19251a116101205780639b19251a146104c6578063a035b1fe146104ec578063a8660a78146104f4578063aad3ec96146104fc578063b774682f14610528578063bc0f5f84146105305761028a565b806383d59e00146104805780638456cb59146104885780638a2448aa14610490578063906a26e0146104985780639a590427146104a05761028a565b80633ccfd60b116102005780635c975abb116101b95780635c975abb146104505780635e9777e81461045857806371f4b8e81461046057806378065f271461046857806378e97925146104705780637c654303146104785761028a565b80633ccfd60b1461041e5780633dba9e41146104285780633f4ba83a1461043057806343d726d61461043857806347d02f1b14610440578063597e1fb5146104485761028a565b80631cfe562e116102525780631cfe562e1461033f57806320d8dad014610347578063311f84831461036d5780633197cbb61461039157806338af3eed14610399578063392f37e9146103a15761028a565b8063031b36771461028f5780630826d2c7146102e0578063117a36d1146102fa5780631514617e14610316578063158ef93e14610337575b600080fd5b6102b5600480360360208110156102a557600080fd5b50356001600160a01b03166108b5565b6040805195865260208601949094528484019290925260608401526080830152519081900360a00190f35b6102e86108e4565b60408051918252519081900360200190f35b6103026108ea565b604080519115158252519081900360200190f35b61031e6108fa565b6040805163ffffffff9092168252519081900360200190f35b61030261090b565b6102e861091b565b6103026004803603602081101561035d57600080fd5b50356001600160a01b0316610921565b610375610943565b604080516001600160a01b039092168252519081900360200190f35b6102e8610959565b61037561095f565b6103a961096e565b6040805160208082528351818301528351919283929083019185019080838360005b838110156103e35781810151838201526020016103cb565b50505050905090810190601f1680156104105780820380516001836020036101000a031916815260200191505b509250505060405180910390f35b6104266109fc565b005b610302610bc7565b610426610bd0565b610426610cd0565b6102e8610fb7565b610302610fbd565b610302610fc6565b6102e8610fd4565b6102e8610fda565b610375610fe0565b6102e8610fef565b610302610ff5565b6102e8611004565b61042661100a565b6102e86110f9565b6102e8611428565b610426600480360360208110156104b657600080fd5b50356001600160a01b031661142e565b610426600480360360208110156104dc57600080fd5b50356001600160a01b0316611589565b6102e86116e7565b6102e86116ed565b6102e86004803603604081101561051257600080fd5b506001600160a01b0381351690602001356116f3565b6102e8611b4c565b6102e8611b52565b610426600480360361016081101561054f57600080fd5b6001600160a01b038235811692602081013590911691810190606081016040820135600160201b81111561058257600080fd5b82018360208201111561059457600080fd5b803590602001918460208302840111600160201b831117156105b557600080fd5b9190808060200260200160405190810160405280939291908181526020018383602002808284376000920191909152509295949360208101935035915050600160201b81111561060457600080fd5b82018360208201111561061657600080fd5b803590602001918460208302840111600160201b8311171561063757600080fd5b91908080602002602001604051908101604052809392919081815260200183836020028082843760009201919091525092955050823593505050602081013590604081013590606081013563ffffffff9081169160808101359091169060a081013515159060c0013560ff16611b58565b610302600480360360208110156106be57600080fd5b50356001600160a01b0316611d42565b6106eb600480360360208110156106e457600080fd5b5035611d57565b6040805192835260208301919091528051918290030190f35b61070c6122fd565b6040805160ff9092168252519081900360200190f35b61030261230d565b6102e861231d565b6102e86004803603602081101561074857600080fd5b50356001600160a01b0316612323565b6104266004803603602081101561076e57600080fd5b810190602081018135600160201b81111561078857600080fd5b82018360208201111561079a57600080fd5b803590602001918460208302840111600160201b831117156107bb57600080fd5b91908080602002602001604051908101604052809392919081815260200183836020028082843760009201919091525092955061245b945050505050565b61031e6125f1565b610375612604565b6102e8612613565b6104266004803603602081101561082757600080fd5b810190602081018135600160201b81111561084157600080fd5b82018360208201111561085357600080fd5b803590602001918460018302840111600160201b8311171561087457600080fd5b91908080601f016020809104026020016040519081016040528093929190818152602001838380828437600092019190915250929550612619945050505050565b601660205260009081526040902080546001820154600283015460038401546004909401549293919290919085565b600f5481565b600c54600160281b900460ff1681565b600954610100900463ffffffff1681565b600c546301000000900460ff1681565b60135481565b6001600160a01b03811660009081526015602052604090205460ff165b919050565b600954600160481b90046001600160a01b031681565b60085481565b6000546001600160a01b031681565b600b805460408051602060026001851615610100026000190190941693909304601f810184900484028201840190925281815292918301828280156109f45780601f106109c9576101008083540402835291602001916109f4565b820191906000526020600020905b8154815290600101906020018083116109d757829003601f168201915b505050505081565b6001546001600160a01b03163314610a49576040805162461bcd60e51b815260206004820152601c6024820152600080516020612aee833981519152604482015290519081900360640190fd5b600c54610100900460ff1615610a94576040805162461bcd60e51b815260206004820152601a6024820152600080516020612d73833981519152604482015290519081900360640190fd5b600c5460ff1615610ada576040805162461bcd60e51b815260206004820152601a6024820152600080516020612bd3833981519152604482015290519081900360640190fd5b600c54600160201b900460ff16610b225760405162461bcd60e51b8152600401808060200182810382526024815260200180612d2b6024913960400191505060405180910390fd5b6000610b3b60145460135461271690919063ffffffff16565b601354601455600a546040805163a9059cbb60e01b81523360048201526024810184905290519293506001600160a01b039091169163a9059cbb916044808201926020929091908290030181600087803b158015610b9857600080fd5b505af1158015610bac573d6000803e3d6000fd5b505050506040513d6020811015610bc257600080fd5b505050565b60095460ff1681565b6001546001600160a01b03163314610c1d576040805162461bcd60e51b815260206004820152601c6024820152600080516020612aee833981519152604482015290519081900360640190fd5b600c5460ff16151560011415610c68576040805162461bcd60e51b815260206004820152601a6024820152600080516020612bd3833981519152604482015290519081900360640190fd5b600c5460ff610100909104161515600114610cc3576040805162461bcd60e51b815260206004820152601660248201527514d959590e881cda1bdd5b19081899481c185d5cd95960521b604482015290519081900360640190fd5b600c805461ff0019169055565b6001546001600160a01b03163314610d1d576040805162461bcd60e51b815260206004820152601c6024820152600080516020612aee833981519152604482015290519081900360640190fd5b600c5460ff1615610d63576040805162461bcd60e51b815260206004820152601a6024820152600080516020612bd3833981519152604482015290519081900360640190fd5b600c54610100900460ff1615610dae576040805162461bcd60e51b815260206004820152601a6024820152600080516020612d73833981519152604482015290519081900360640190fd5b600c54600160201b900460ff1615610eb3576000610dd9601154600f5461275f90919063ffffffff16565b6009546001546040805163a9059cbb60e01b81526001600160a01b039283166004820152602481018590529051939450600160481b909204169163a9059cbb916044808201926020929091908290030181600087803b158015610e3b57600080fd5b505af1158015610e4f573d6000803e3d6000fd5b505050506040513d6020811015610e6557600080fd5b5051610ea25760405162461bcd60e51b815260040180806020018281038252602a815260200180612c9a602a913960400191505060405180910390fd5b50600c805461ff0019169055610fb5565b6009546001546005546004546001600160a01b03600160481b90940484169363a9059cbb931691610eea919063ffffffff61275f16565b6040518363ffffffff1660e01b815260040180836001600160a01b03166001600160a01b0316815260200182815260200192505050602060405180830381600087803b158015610f3957600080fd5b505af1158015610f4d573d6000803e3d6000fd5b505050506040513d6020811015610f6357600080fd5b5051610fa05760405162461bcd60e51b815260040180806020018281038252602a815260200180612c9a602a913960400191505060405180910390fd5b600c805461ff001960ff199091166001171690555b565b60105481565b600c5460ff1681565b600c54610100900460ff1681565b600e5481565b60125481565b600a546001600160a01b031681565b60075481565b600c5462010000900460ff1681565b60145481565b6001546001600160a01b03163314611057576040805162461bcd60e51b815260206004820152601c6024820152600080516020612aee833981519152604482015290519081900360640190fd5b600c5460ff161561109d576040805162461bcd60e51b815260206004820152601a6024820152600080516020612bd3833981519152604482015290519081900360640190fd5b600c54610100900460ff16156110e8576040805162461bcd60e51b815260206004820152601a6024820152600080516020612d73833981519152604482015290519081900360640190fd5b600c805461ff001916610100179055565b600c54600090610100900460ff1615611147576040805162461bcd60e51b815260206004820152601a6024820152600080516020612d73833981519152604482015290519081900360640190fd5b4260075411156111885760405162461bcd60e51b8152600401808060200182810382526022815260200180612ce66022913960400191505060405180910390fd5b600c54600160201b900460ff16156111e7576040805162461bcd60e51b815260206004820152601960248201527f536565643a206d696e696d756d20616c7265616479206d657400000000000000604482015290519081900360640190fd5b3360009081526016602052604090206002015461124b576040805162461bcd60e51b815260206004820152601960248201527f536565643a207a65726f2066756e64696e6720616d6f756e7400000000000000604482015290519081900360640190fd5b611253612a26565b5033600090815260166020908152604091829020825160a08101845281548082526001830154938201939093526002820154938101849052600382015460608201526004909101546080820152600f549092916112b6919063ffffffff61275f16565b600f5560608201516011546112d09163ffffffff61275f16565b601155600080835260608301818152604080850183815233845260166020908152919093208551815590850151600182015591516002830155516003820155608083015160049091015560135461132d908263ffffffff61271616565b601355600a546040805163a9059cbb60e01b81523360048201526024810184905290516001600160a01b039092169163a9059cbb916044808201926020929091908290030181600087803b15801561138457600080fd5b505af1158015611398573d6000803e3d6000fd5b505050506040513d60208110156113ae57600080fd5b50516113eb5760405162461bcd60e51b8152600401808060200182810382526030815260200180612bf36030913960400191505060405180910390fd5b60408051828152905133917f1a689b1a62e3bb77f9c98d8759c04f341a67deb5cc63cf53be8324b691064950919081900360200190a29150505b90565b60025481565b6001546001600160a01b0316331461147b576040805162461bcd60e51b815260206004820152601c6024820152600080516020612aee833981519152604482015290519081900360640190fd5b600c5460ff16156114c1576040805162461bcd60e51b815260206004820152601a6024820152600080516020612bd3833981519152604482015290519081900360640190fd5b600c54610100900460ff161561150c576040805162461bcd60e51b815260206004820152601a6024820152600080516020612d73833981519152604482015290519081900360640190fd5b60095460ff161515600114611568576040805162461bcd60e51b815260206004820152601f60248201527f536565643a206d6f64756c65206973206e6f742077686974656c697374656400604482015290519081900360640190fd5b6001600160a01b03166000908152601560205260409020805460ff19169055565b6001546001600160a01b031633146115d6576040805162461bcd60e51b815260206004820152601c6024820152600080516020612aee833981519152604482015290519081900360640190fd5b600c5460ff161561161c576040805162461bcd60e51b815260206004820152601a6024820152600080516020612bd3833981519152604482015290519081900360640190fd5b600c54610100900460ff1615611667576040805162461bcd60e51b815260206004820152601a6024820152600080516020612d73833981519152604482015290519081900360640190fd5b60095460ff1615156001146116c3576040805162461bcd60e51b815260206004820152601f60248201527f536565643a206d6f64756c65206973206e6f742077686974656c697374656400604482015290519081900360640190fd5b6001600160a01b03166000908152601560205260409020805460ff19166001179055565b60065481565b600d5481565b600c54600090600160201b900460ff1661173e5760405162461bcd60e51b8152600401808060200182810382526024815260200180612d2b6024913960400191505060405180910390fd5b426008541115806117585750600c54600160281b900460ff165b6117935760405162461bcd60e51b815260040180806020018281038252602b815260200180612ba8602b913960400191505060405180910390fd5b600061179e84612323565b9050600081116117f5576040805162461bcd60e51b815260206004820152601b60248201527f536565643a20616d6f756e7420636c61696d61626c6520697320300000000000604482015290519081900360640190fd5b828110156118345760405162461bcd60e51b815260040180806020018281038252602e815260200180612b0e602e913960400191505060405180910390fd5b600a5460009061186290606490611856908790600160a01b900460ff166127b9565b9063ffffffff61281216565b905061186c612a26565b506001600160a01b038516600090815260166020908152604091829020825160a081018452815481526001820154928101839052600282015493810193909352600381015460608401526004015460808301526118cf908663ffffffff61275f16565b602082015260808101516118e9908363ffffffff61275f16565b608082019081526001600160a01b03871660009081526016602090815260409182902084518155908401516001820155908301516002820155606083015160038201559051600490910155601054611947908663ffffffff61275f16565b60105560125461195d908363ffffffff61275f16565b601255600954600080546040805163a9059cbb60e01b81526001600160a01b039283166004820152602481018790529051600160481b9094049091169263a9059cbb92604480840193602093929083900390910190829087803b1580156119c357600080fd5b505af11580156119d7573d6000803e3d6000fd5b505050506040513d60208110156119ed57600080fd5b5051611a2a5760405162461bcd60e51b8152600401808060200182810382526024815260200180612d4f6024913960400191505060405180910390fd5b6009546040805163a9059cbb60e01b81526001600160a01b038981166004830152602482018990529151600160481b9093049091169163a9059cbb916044808201926020929091908290030181600087803b158015611a8857600080fd5b505af1158015611a9c573d6000803e3d6000fd5b505050506040513d6020811015611ab257600080fd5b5051611af7576040805162461bcd60e51b815260206004820152600f60248201526e536565643a206e6f20746f6b656e7360881b604482015290519081900360640190fd5b600054604080518781526020810185905281516001600160a01b03938416938a16927f9bd10be98695714f5cb43cefb59ba6417808b354710acafafe05e81b26492231928290030190a3509150505b92915050565b60115481565b60045481565b600c546301000000900460ff1615611ba15760405162461bcd60e51b8152600401808060200182810382526022815260200180612cc46022913960400191505060405180910390fd5b600c805463ff00000019166301000000179055600080546001600160a01b03808e166001600160a01b031992831617835560018054918e16919092161790558851899190611beb57fe5b602002602001015160028190555087600181518110611c0657fe5b6020908102919091010151600355600687905560078690556008859055600d8590556009805464ffffffff00191661010063ffffffff878116919091029190911768ffffffff00000000001916600160281b918616919091021760ff191683151517905588518990600090611c7757fe5b60200260200101516009806101000a8154816001600160a01b0302191690836001600160a01b0316021790555088600181518110611cb157fe5b6020908102919091010151600a80546001600160a01b0319166001600160a01b039092169190911760ff60a01b1916600160a01b60ff841602179055600354611d0890889061185690670de0b6b3a76400006127b9565b6004819055611d27906064906118569060ff851663ffffffff6127b916565b6005819055600454600f556011555050505050505050505050565b60156020526000908152604090205460ff1681565b600c54600090819060ff1615611da2576040805162461bcd60e51b815260206004820152601a6024820152600080516020612bd3833981519152604482015290519081900360640190fd5b600c54610100900460ff1615611ded576040805162461bcd60e51b815260206004820152601a6024820152600080516020612d73833981519152604482015290519081900360640190fd5b600c54600160281b900460ff1615611e4c576040805162461bcd60e51b815260206004820152601d60248201527f536565643a206d6178696d756d2066756e64696e672072656163686564000000604482015290519081900360640190fd5b60095460ff161580611e6d57503360009081526015602052604090205460ff165b611ebe576040805162461bcd60e51b815260206004820152601a60248201527f536565643a2073656e64657220686173206e6f20726967687473000000000000604482015290519081900360640190fd5b4260085410158015611ed257504260075411155b611f0d5760405162461bcd60e51b815260040180806020018281038252602d815260200180612c4c602d913960400191505060405180910390fd5b600c5462010000900460ff16611ffe57600554600454611f329163ffffffff61275f16565b600954604080516370a0823160e01b81523060048201529051600160481b9092046001600160a01b0316916370a0823191602480820192602092909190829003018186803b158015611f8357600080fd5b505afa158015611f97573d6000803e3d6000fd5b505050506040513d6020811015611fad57600080fd5b50511015611fec5760405162461bcd60e51b8152600401808060200182810382526023815260200180612d086023913960400191505060405180910390fd5b600c805462ff00001916620100001790555b6006546000906120209061185686670de0b6b3a764000063ffffffff6127b916565b601354600a549192509060009061204990606490611856908690600160a01b900460ff166127b9565b60035490915061205f838863ffffffff61275f16565b111561209c5760405162461bcd60e51b815260040180806020018281038252602a815260200180612b3c602a913960400191505060405180910390fd5b82600f5410156120dd5760405162461bcd60e51b8152600401808060200182810382526029815260200180612c236029913960400191505060405180910390fd5b6120ed828763ffffffff61275f16565b601355600f54612103908463ffffffff61271616565b600f55601154612119908263ffffffff61271616565b601155600a54604080516323b872dd60e01b81523360048201523060248201526044810189905290516001600160a01b03909216916323b872dd916064808201926020929091908290030181600087803b15801561217657600080fd5b505af115801561218a573d6000803e3d6000fd5b505050506040513d60208110156121a057600080fd5b50516121e5576040805162461bcd60e51b815260206004820152600f60248201526e536565643a206e6f20746f6b656e7360881b604482015290519081900360640190fd5b6002546013541061220557600c805464ff000000001916600160201b1790555b6003546013541061223157600c805465ff00000000001916600160281b17905561222d612854565b600d555b336000818152601660205260409020546122bb9190612256908663ffffffff61275f16565b33600090815260166020526040902060020154612279908a63ffffffff61275f16565b33600090815260166020526040902060018101546003909101546122a3908763ffffffff61275f16565b33600090815260166020526040902060040154612858565b60408051848152905133917fcf5ef2b227e797b567f0df4c49cc8b6207cfb60054eb899e5608de08e5dcb1ef919081900360200190a291935090915050915091565b600a54600160a01b900460ff1681565b600c54600160201b900460ff1681565b60055481565b600061232d612a26565b506001600160a01b038216600090815260166020908152604091829020825160a08101845281548152600182015492810192909252600281015492820192909252600382015460608201526004909101546080820152600d5461238e612854565b101561239e57600091505061093e565b60006123ba600d546123ae612854565b9063ffffffff61271616565b600954909150600160281b900463ffffffff168110156123df5760009250505061093e565b600954610100900463ffffffff16811061241257602082015182516124099163ffffffff61271616565b9250505061093e565b60095482516000916124389163ffffffff6101009092048216916118569186916127b916565b905061245183602001518261271690919063ffffffff16565b935050505061093e565b6001546001600160a01b031633146124a8576040805162461bcd60e51b815260206004820152601c6024820152600080516020612aee833981519152604482015290519081900360640190fd5b600c5460ff16156124ee576040805162461bcd60e51b815260206004820152601a6024820152600080516020612bd3833981519152604482015290519081900360640190fd5b600c54610100900460ff1615612539576040805162461bcd60e51b815260206004820152601a6024820152600080516020612d73833981519152604482015290519081900360640190fd5b60095460ff161515600114612595576040805162461bcd60e51b815260206004820152601f60248201527f536565643a206d6f64756c65206973206e6f742077686974656c697374656400604482015290519081900360640190fd5b60005b81518110156125ed576001601560008484815181106125b357fe5b6020908102919091018101516001600160a01b03168252810191909152604001600020805460ff1916911515919091179055600101612598565b5050565b600954600160281b900463ffffffff1681565b6001546001600160a01b031681565b60035481565b600c546301000000900460ff161515600114158061264157506001546001600160a01b031633145b61267c5760405162461bcd60e51b8152600401808060200182810382526042815260200180612b666042913960600191505060405180910390fd5b805161268f90600b906020840190612a55565b50806040518082805190602001908083835b602083106126c05780518252601f1990920191602091820191016126a1565b5181516020939093036101000a60001901801990911692169190911790526040519201829003822093507f09f579b21815d3f81581d32e97736ccba1cc89d1918e48da28e6e206acd9686492506000919050a250565b600061275883836040518060400160405280601e81526020017f536166654d6174683a207375627472616374696f6e206f766572666c6f77000081525061292a565b9392505050565b600082820183811015612758576040805162461bcd60e51b815260206004820152601b60248201527f536166654d6174683a206164646974696f6e206f766572666c6f770000000000604482015290519081900360640190fd5b6000826127c857506000611b46565b828202828482816127d557fe5b04146127585760405162461bcd60e51b8152600401808060200182810382526021815260200180612c796021913960400191505060405180910390fd5b600061275883836040518060400160405280601a81526020017f536166654d6174683a206469766973696f6e206279207a65726f0000000000008152506129c1565b4290565b600954610100900463ffffffff168510156128ba576040805162461bcd60e51b815260206004820152601f60248201527f536565643a20616d6f756e745665737465645065725365636f6e64203e203000604482015290519081900360640190fd5b6040805160a081018252958652602080870194855286820195865260608701938452608087019283526001600160a01b0390971660009081526016909752909520935184559051600180850191909155915160028401555160038301559151600490910155600e80549091019055565b600081848411156129b95760405162461bcd60e51b81526004018080602001828103825283818151815260200191508051906020019080838360005b8381101561297e578181015183820152602001612966565b50505050905090810190601f1680156129ab5780820380516001836020036101000a031916815260200191505b509250505060405180910390fd5b505050900390565b60008183612a105760405162461bcd60e51b815260206004820181815283516024840152835190928392604490910191908501908083836000831561297e578181015183820152602001612966565b506000838581612a1c57fe5b0495945050505050565b6040518060a0016040528060008152602001600081526020016000815260200160008152602001600081525090565b828054600181600116156101000203166002900490600052602060002090601f016020900481019282601f10612a9657805160ff1916838001178555612ac3565b82800160010185558215612ac3579182015b82811115612ac3578251825591602001919060010190612aa8565b50612acf929150612ad3565b5090565b61142591905b80821115612acf5760008155600101612ad956fe536565643a2063616c6c65722073686f756c642062652061646d696e00000000536565643a20726571756573742069732067726561746572207468616e20636c61696d61626c6520616d6f756e74536565643a20616d6f756e74206578636565647320636f6e74726163742073616c652068617264436170536565643a20636f6e74726163742073686f756c64206e6f7420626520696e697469616c697a6564206f722063616c6c65722073686f756c642062652061646d696e536565643a2074686520646973747269627574696f6e20686173206e6f74207965742066696e6973686564536565643a2073686f756c64206e6f7420626520636c6f736564000000000000536565643a2063616e6e6f742072657475726e2066756e64696e6720746f6b656e7320746f206d73672e73656e646572536565643a207365656420646973747269627574696f6e20776f756c64206265206578636565646564536565643a206f6e6c7920616c6c6f77656420647572696e6720646973747269627574696f6e20706572696f64536166654d6174683a206d756c7469706c69636174696f6e206f766572666c6f77536565643a2073686f756c64207472616e73666572207365656420746f6b656e7320746f2061646d696e536565643a20636f6e747261637420616c726561647920696e697469616c697a6564536565643a20646973747269627574696f6e20686176656e27742073746172746564536565643a2073756666696369656e74207365656473206e6f742070726f7669646564536565643a206d696e696d756d2066756e64696e6720616d6f756e74206e6f74206d6574536565643a2063616e6e6f74207472616e7366657220746f2062656e6566696369617279536565643a2073686f756c64206e6f7420626520706175736564000000000000a265627a7a7231582030a10a26f8569eb1d81fb7b41efc7eda38a2a3b6dfcb4d068ade9c7a100b18ed64736f6c634300050d0032",
  "source": "/*\r\n\r\n\r\n\r\n\r\n\r\n\r\n\r\n\r\n*/\r\n\r\n// SPDX-License-Identifier: GPL-3.0-or-later\r\n/* solhint-disable space-after-comma */\r\n/* solhint-disable max-states-count */\r\npragma solidity 0.5.13;\r\n\r\nimport \"openzeppelin-solidity/contracts/token/ERC20/IERC20.sol\";\r\nimport \"openzeppelin-solidity/contracts/math/SafeMath.sol\";\r\n\r\n\r\n/**\r\n * @title PrimeDAO Seed contract\r\n * @dev   Smart contract for seed phases of liquid launch.\r\n */\r\ncontract Seed {\r\n    using SafeMath for uint256;\r\n    using SafeMath for uint32;\r\n    using SafeMath for uint8;\r\n\r\n    // Locked parameters\r\n    address public beneficiary;\r\n    address public admin;\r\n    uint256 public softCap;\r\n    uint256 public hardCap;\r\n    uint256 public seedAmountRequired;    // Amount of seed required for distribution\r\n    uint256 public feeAmountRequired;     // Amount of seed required for fee\r\n    uint256 public price;\r\n    uint256 public startTime;\r\n    uint256 public endTime;               // set by project admin, this is the last resort endTime to be applied when \r\n                                          //     maximumReached has not been reached by then\r\n    bool    public permissionedSeed;\r\n    uint32  public vestingDuration;\r\n    uint32  public vestingCliff;\r\n    IERC20  public seedToken;\r\n    IERC20  public fundingToken;\r\n    uint8   public fee;\r\n\r\n    bytes   public metadata;           // IPFS Hash\r\n\r\n    uint256 constant internal PCT_BASE        = 10 ** 18;  // // 0% = 0; 1% = 10 ** 16; 100% = 10 ** 18\r\n\r\n    // Contract logic\r\n    bool    public closed;                 // is the distribution closed\r\n    bool    public paused;                 // is the distribution paused\r\n    bool    public isFunded;               // distribution can only start when required seed tokens have been funded\r\n    bool    public initialized;            // is this contract initialized [not necessary that it is funded]\r\n    bool    public minimumReached;         // if the softCap[minimum limit of funding token] is reached\r\n    bool    public maximumReached;         // if the hardCap[maximum limit of funding token] is reached\r\n    uint256 public vestingStartTime;       // timestamp for when vesting starts, by default == endTime,\r\n                                           //     otherwise when maximumReached is reached\r\n    uint256 public totalFunderCount;       // Total funders that have contributed.\r\n    uint256 public seedRemainder;          // Amount of seed tokens remaining to be distributed\r\n    uint256 public seedClaimed;            // Amount of seed token claimed by the user.\r\n    uint256 public feeRemainder;           // Amount of seed tokens remaining for the fee\r\n    uint256 public feeClaimed;             // Amount of seed tokens claimed as fee\r\n    uint256 public fundingCollected;       // Amount of funding tokens collected by the seed contract.\r\n    uint256 public fundingWithdrawn;       // Amount of funding token withdrawn from the seed contract. \r\n\r\n    mapping (address => bool) public whitelisted;        // funders that are whitelisted and allowed to contribute\r\n    mapping (address => FunderPortfolio) public funders; // funder address to funder portfolio\r\n\r\n    event SeedsPurchased(address indexed recipient, uint256 amountPurchased);\r\n    event TokensClaimed(address indexed recipient,uint256 amount,address indexed beneficiary,uint256 feeAmount);\r\n    event FundingReclaimed(address indexed recipient, uint256 amountReclaimed);\r\n    event MetadataUpdated(bytes indexed metadata);\r\n\r\n    struct FunderPortfolio { \r\n        uint256 seedAmount;                 // Total amount of seed tokens bought\r\n        uint256 totalClaimed;               // Total amount of seed tokens claimed\r\n        uint256 fundingAmount;              // Total amount of funding tokens contributed\r\n        uint256 fee;                        // Total amount of fee in seed amount for this portfolio\r\n        uint256 feeClaimed;                 // Total amount of fee sent to beneficiary for this portfolio\r\n    }\r\n\r\n    modifier initializer() {\r\n        require(!initialized, \"Seed: contract already initialized\");\r\n        initialized = true;\r\n        _;\r\n    }\r\n\r\n    modifier onlyAdmin() {\r\n        require(msg.sender == admin, \"Seed: caller should be admin\");\r\n        _;\r\n    }\r\n\r\n    modifier isActive() {\r\n        require( !closed , \"Seed: should not be closed\");\r\n        require( !paused, \"Seed: should not be paused\");\r\n        _;\r\n    }\r\n\r\n    modifier allowedToBuy() {\r\n        require( !maximumReached, \"Seed: maximum funding reached\" );\r\n        require( !permissionedSeed || whitelisted[msg.sender], \"Seed: sender has no rights\");\r\n        require(endTime >= block.timestamp && startTime <= block.timestamp,\r\n            \"Seed: only allowed during distribution period\");\r\n        _;\r\n    }\r\n\r\n    modifier allowedToClaim() {\r\n        require(minimumReached, \"Seed: minimum funding amount not met\");\r\n        require(endTime <= block.timestamp  || maximumReached,\"Seed: the distribution has not yet finished\");\r\n        _;\r\n    }\r\n\r\n    modifier allowedToRetrieve() {\r\n        require( !paused, \"Seed: should not be paused\");\r\n        require(startTime <= block.timestamp, \"Seed: distribution haven't started\");\r\n        require( !minimumReached, \"Seed: minimum already met\");\r\n        _;\r\n    }\r\n\r\n    modifier allowedToWithdraw() {\r\n        require( !paused, \"Seed: should not be paused\");\r\n        require( !closed, \"Seed: should not be closed\");\r\n        require( minimumReached, \"Seed: minimum funding amount not met\");\r\n        _;\r\n    }\r\n\r\n    /**\r\n      * @dev                          Initialize Seed.\r\n      * @param _beneficiary           The address that recieves fees.\r\n      * @param _admin                 The address of the admin of this contract. Funds contract\r\n                                      and has permissions to whitelist users, pause and close contract.\r\n      * @param _tokens                Array containing two params:\r\n                                        - The address of the seed token being distributed.\r\n      *                                 - The address of the funding token being exchanged for seed token.\r\n      * @param _softHardThresholds     Array containing two params:\r\n                                        - the minimum funding token collection threshold in wei denomination.\r\n                                        - the highest possible funding token amount to be raised in wei denomination.\r\n      * @param _price                 The price in wei of fundingTokens when exchanged for seedTokens.\r\n      * @param _startTime             Distribution start time in unix timecode.\r\n      * @param _endTime               Distribution end time in unix timecode.\r\n      * @param _vestingDuration       Vesting period duration in seconds.\r\n      * @param _vestingCliff          Cliff duration in seconds.\r\n      * @param _permissionedSeed      Set to true if only whitelisted adresses are allowed to participate.\r\n      * @param _fee                   Success fee expressed as a % (e.g. 2 = 2% fee)\r\n    */\r\n    function initialize(\r\n        address _beneficiary,\r\n        address _admin,\r\n        address[] memory _tokens,\r\n        uint256[] memory _softHardThresholds,\r\n        uint256 _price,\r\n        uint256 _startTime,\r\n        uint256 _endTime,\r\n        uint32  _vestingDuration,\r\n        uint32  _vestingCliff,\r\n        bool    _permissionedSeed,\r\n        uint8   _fee\r\n    ) public initializer {\r\n        beneficiary       = _beneficiary;\r\n        admin             = _admin;\r\n        softCap           = _softHardThresholds[0];\r\n        hardCap           = _softHardThresholds[1];\r\n        price             = _price;\r\n        startTime         = _startTime;\r\n        endTime           = _endTime;\r\n        vestingStartTime  = endTime;\r\n        vestingDuration   = _vestingDuration;\r\n        vestingCliff      = _vestingCliff;\r\n        permissionedSeed  = _permissionedSeed;\r\n        seedToken         = IERC20(_tokens[0]);\r\n        fundingToken      = IERC20(_tokens[1]);\r\n        fee               = _fee;\r\n\r\n        seedAmountRequired = hardCap.mul(PCT_BASE).div(_price);\r\n        feeAmountRequired  = seedAmountRequired.mul(_fee).div(100);\r\n        seedRemainder      = seedAmountRequired;\r\n        feeRemainder       = feeAmountRequired;\r\n    }\r\n\r\n    /**\r\n      * @dev                     Buy seed tokens.\r\n      * @param _fundingAmount    The amount of funding tokens to contribute.\r\n    */\r\n    function buy(uint256 _fundingAmount) public isActive allowedToBuy returns(uint256, uint256) {\r\n        if(!isFunded) {\r\n            require(seedToken.balanceOf(address(this)) >= seedAmountRequired.add(feeAmountRequired),\r\n                \"Seed: sufficient seeds not provided\");\r\n            isFunded = true;\r\n        }\r\n        // fundingAmount is an amount of fundingTokens required to buy _seedAmount of SeedTokens\r\n        uint256 seedAmount = (_fundingAmount.mul(PCT_BASE)).div(price);\r\n\r\n        // Funding Token balance of this contract;\r\n        uint256 fundingBalance = fundingCollected;\r\n\r\n        // feeAmount is an amount of fee we are going to get in seedTokens\r\n        uint256 feeAmount = seedAmount.mul(fee).div(100);\r\n\r\n        // total fundingAmount should not be greater than the hardCap\r\n        require( fundingBalance.\r\n                  add(_fundingAmount) <= hardCap,\r\n            \"Seed: amount exceeds contract sale hardCap\");\r\n\r\n        require( seedRemainder >= seedAmount,\r\n            \"Seed: seed distribution would be exceeded\");\r\n\r\n        fundingCollected = fundingBalance.add(_fundingAmount);\r\n\r\n        // the amount of seed tokens still to be distributed\r\n        seedRemainder = seedRemainder.sub(seedAmount);\r\n        feeRemainder  = feeRemainder.sub(feeAmount);\r\n\r\n        // Here we are sending amount of tokens to pay for seed tokens to purchase\r\n        require(fundingToken.transferFrom(msg.sender, address(this), _fundingAmount), \"Seed: no tokens\");\r\n\r\n        if (fundingCollected >= softCap) {\r\n            minimumReached = true;\r\n        }\r\n        if (fundingCollected >= hardCap) {\r\n            maximumReached = true;      \r\n            vestingStartTime = _currentTime();      \r\n        }\r\n\r\n        _addFunder(\r\n            msg.sender,\r\n            (funders[msg.sender].seedAmount.add(seedAmount)),         // Previous Seed Amount + new seed amount\r\n            (funders[msg.sender].fundingAmount.add(_fundingAmount)),  // Previous Funding Amount + new funding amount\r\n             funders[msg.sender].totalClaimed,\r\n            (funders[msg.sender].fee.add(feeAmount)),                  // Previous Fee + new fee\r\n             funders[msg.sender].feeClaimed\r\n            );\r\n        \r\n        // buyer, seed token purchased in this transaction (not the total amount of seed purchased)\r\n        emit SeedsPurchased(msg.sender, seedAmount);\r\n\r\n        return (seedAmount, feeAmount);\r\n    }\r\n\r\n    /**\r\n      * @dev                     Claim vested seed tokens.\r\n      * @param _funder           Address of funder to calculate seconds and amount claimable\r\n      * @param _claimAmount      The amount of seed token a users wants to claim.\r\n    */\r\n    function claim(address _funder, uint256 _claimAmount) public allowedToClaim returns(uint256) {\r\n        uint256 amountClaimable;\r\n\r\n        amountClaimable = calculateClaim(_funder);\r\n        require( amountClaimable > 0, \"Seed: amount claimable is 0\");\r\n        require( amountClaimable >= _claimAmount, \"Seed: request is greater than claimable amount\");\r\n        uint256 feeAmountOnClaim = _claimAmount.mul(fee).div(100);\r\n\r\n        FunderPortfolio memory tokenFunder = funders[_funder];\r\n\r\n        tokenFunder.totalClaimed    = uint256(tokenFunder.totalClaimed.add(_claimAmount));\r\n        tokenFunder.feeClaimed      = tokenFunder.feeClaimed.add(feeAmountOnClaim);\r\n        funders[_funder] = tokenFunder;\r\n        \r\n        seedClaimed = seedClaimed.add(_claimAmount);\r\n        feeClaimed  = feeClaimed.add(feeAmountOnClaim);\r\n        require(seedToken.transfer(beneficiary, feeAmountOnClaim), \"Seed: cannot transfer to beneficiary\");\r\n        require(seedToken.transfer(_funder, _claimAmount), \"Seed: no tokens\");\r\n\r\n        emit TokensClaimed(_funder, _claimAmount, beneficiary, feeAmountOnClaim);\r\n        \r\n        // fee on the distributed reward collected from admin\r\n        return (feeAmountOnClaim);\r\n    }\r\n\r\n    /**\r\n      * @dev         Returns funding tokens to user.\r\n    */\r\n    function retrieveFundingTokens() public allowedToRetrieve returns(uint256) {\r\n        require(funders[msg.sender].fundingAmount > 0, \"Seed: zero funding amount\");\r\n        FunderPortfolio memory tokenFunder = funders[msg.sender];\r\n        uint256 fundingAmount = tokenFunder.fundingAmount;\r\n        seedRemainder    = seedRemainder.add(tokenFunder.seedAmount);\r\n        feeRemainder = feeRemainder.add(tokenFunder.fee);\r\n        tokenFunder.seedAmount    = 0;\r\n        tokenFunder.fee           = 0;\r\n        tokenFunder.fundingAmount = 0;\r\n        funders[msg.sender]  = tokenFunder;\r\n        fundingCollected = fundingCollected.sub(fundingAmount);\r\n        require(\r\n            fundingToken.transfer(msg.sender, fundingAmount),\r\n            \"Seed: cannot return funding tokens to msg.sender\"\r\n        );\r\n        emit FundingReclaimed(msg.sender, fundingAmount);\r\n\r\n        return fundingAmount;\r\n    }\r\n\r\n    // ADMIN ACTIONS\r\n\r\n    /**\r\n      * @dev                     Pause distribution.\r\n    */\r\n    function pause() public onlyAdmin isActive {\r\n        paused = true;\r\n    }\r\n\r\n    /**\r\n      * @dev                     Unpause distribution.\r\n    */\r\n    function unpause() public onlyAdmin {\r\n        require(closed != true, \"Seed: should not be closed\");\r\n        require(paused == true, \"Seed: should be paused\");\r\n\r\n        paused = false;\r\n    }\r\n\r\n    /**\r\n      * @dev                     Close distribution.\r\n    */\r\n    function close() public onlyAdmin isActive {\r\n        // transfer seed tokens back to admin\r\n        if(minimumReached){\r\n            // remaining seeds = seedRemainder + feeRemainder\r\n            uint256 seedToTransfer = seedRemainder.add(feeRemainder);\r\n            require(\r\n                seedToken.transfer(admin, seedToTransfer),\r\n                \"Seed: should transfer seed tokens to admin\"\r\n            );\r\n            paused = false;\r\n        } else {\r\n            require(\r\n                seedToken.transfer(admin, seedAmountRequired.add(feeAmountRequired)),\r\n                \"Seed: should transfer seed tokens to admin\"\r\n            );\r\n            closed = true;\r\n            paused = false;\r\n        }\r\n    }\r\n\r\n    /**\r\n      * @dev                     Add address to whitelist.\r\n      * @param _buyer            Address which needs to be whitelisted\r\n    */\r\n    function whitelist(address _buyer) public onlyAdmin isActive {\r\n        require(permissionedSeed == true, \"Seed: module is not whitelisted\");\r\n\r\n        whitelisted[_buyer] = true;\r\n    }\r\n\r\n    /**\r\n      * @dev                     Add multiple addresses to whitelist.\r\n      * @param _buyers           Array of addresses to whitelist addresses in batch\r\n    */\r\n    function whitelistBatch(address[] memory _buyers) public onlyAdmin isActive {\r\n        require(permissionedSeed == true, \"Seed: module is not whitelisted\");\r\n        for (uint256 i=0; i < _buyers.length; i++) {\r\n            whitelisted[_buyers[i]] = true;\r\n        }\r\n    }\r\n\r\n    /**\r\n      * @dev                     Remove address from whitelist.\r\n      * @param buyer             Address which needs to be unwhitelisted\r\n    */\r\n    function unwhitelist(address buyer) public onlyAdmin isActive {\r\n        require(permissionedSeed == true, \"Seed: module is not whitelisted\");\r\n\r\n        whitelisted[buyer] = false;\r\n    }\r\n\r\n    /**\r\n      * @dev                     Withdraw funds from the contract\r\n    */\r\n    function withdraw() public onlyAdmin allowedToWithdraw {\r\n        uint pendingFundingBalance = fundingCollected.sub(fundingWithdrawn);\r\n        fundingWithdrawn = fundingCollected;\r\n        fundingToken.transfer(msg.sender, pendingFundingBalance);\r\n    }\r\n\r\n    /**\r\n      * @dev                     Updates metadata.\r\n      * @param _metadata         Seed contract metadata, that is IPFS Hash\r\n    */\r\n    function updateMetadata(bytes memory _metadata) public {\r\n        require(\r\n            initialized != true || msg.sender == admin,\r\n            \"Seed: contract should not be initialized or caller should be admin\"\r\n        );\r\n        metadata = _metadata;\r\n        emit MetadataUpdated(_metadata);\r\n    }\r\n\r\n    // GETTER FUNCTIONS\r\n    /**\r\n      * @dev                     Calculates the maximum claim\r\n      * @param _funder           Address of funder to find the maximum claim\r\n    */\r\n    function calculateClaim(address _funder) public view returns(uint256) {\r\n        FunderPortfolio memory tokenFunder = funders[_funder];\r\n\r\n        if(_currentTime() < vestingStartTime){\r\n            return 0;\r\n        }\r\n\r\n        // Check cliff was reached\r\n        uint256 elapsedSeconds = _currentTime().sub(vestingStartTime);\r\n\r\n        if (elapsedSeconds < vestingCliff) {\r\n            return 0;\r\n        }\r\n\r\n        // If over vesting duration, all tokens vested\r\n        if (elapsedSeconds >= vestingDuration) {\r\n            return tokenFunder.seedAmount.sub(tokenFunder.totalClaimed);\r\n        } else {\r\n            uint256 amountVested =elapsedSeconds.mul(tokenFunder.seedAmount).div(vestingDuration);\r\n            return amountVested.sub(tokenFunder.totalClaimed);\r\n        }\r\n    }\r\n\r\n    /**\r\n      * @dev                     check whitelist status of a buyer\r\n      * @param _buyer            address of buyer to check status\r\n    */\r\n    function checkWhitelisted(address _buyer) public view returns(bool) {\r\n        return whitelisted[_buyer];\r\n    }\r\n\r\n    // INTERNAL FUNCTIONS\r\n    /**\r\n      * @dev                      get current time or block.timestamp\r\n    */\r\n    function _currentTime() internal view returns(uint256) {\r\n        return block.timestamp;\r\n    }\r\n\r\n    /**\r\n      * @dev                      add/update funder portfolio\r\n      * @param _recipient         Address of funder recipient\r\n      * @param _seedAmount        seed amount of the funder\r\n      * @param _fundingAmount     funding amount contributed\r\n      * @param _totalClaimed      total seed token amount claimed\r\n      * @param _fee               fee on seed amount bought\r\n    */\r\n    function _addFunder(\r\n        address _recipient,\r\n        uint256 _seedAmount,\r\n        uint256 _fundingAmount,\r\n        uint256 _totalClaimed,\r\n        uint256 _fee,\r\n        uint256 _feeClaimed\r\n    )\r\n    internal\r\n    {\r\n\r\n        require(_seedAmount >= vestingDuration, \"Seed: amountVestedPerSecond > 0\");\r\n\r\n        funders[_recipient] = FunderPortfolio({\r\n            seedAmount: _seedAmount,\r\n            totalClaimed: _totalClaimed,\r\n            fundingAmount: _fundingAmount,\r\n            fee: _fee,\r\n            feeClaimed: _feeClaimed\r\n            });\r\n        totalFunderCount++;\r\n    }\r\n}\r\n",
  "sourcePath": "E:\\curve-labs\\PrimeDAO\\contracts\\contracts\\seed\\Seed.sol",
  "compiler": {
    "name": "solc",
    "version": "0.5.13+commit.5b0b510c.Emscripten.clang"
  },
  "schemaVersion": "3.4.1",
  "updatedAt": "2021-06-21T18:14:08.061Z",
  "networkType": "ethereum",
  "devdoc": {
    "details": "Smart contract for seed phases of liquid launch.",
    "methods": {
      "buy(uint256)": {
        "details": "Buy seed tokens.",
        "params": {
          "_fundingAmount": "The amount of funding tokens to contribute."
        }
      },
      "calculateClaim(address)": {
        "details": "Calculates the maximum claim",
        "params": {
          "_funder": "Address of funder to find the maximum claim"
        }
      },
      "checkWhitelisted(address)": {
        "details": "check whitelist status of a buyer",
        "params": {
          "_buyer": "address of buyer to check status"
        }
      },
      "claim(address,uint256)": {
        "details": "Claim vested seed tokens.",
        "params": {
          "_claimAmount": "The amount of seed token a users wants to claim.",
          "_funder": "Address of funder to calculate seconds and amount claimable"
        }
      },
      "close()": {
        "details": "Close distribution."
      },
      "initialize(address,address,address[],uint256[],uint256,uint256,uint256,uint32,uint32,bool,uint8)": {
        "details": "Initialize Seed.",
        "params": {
          "_admin": "The address of the admin of this contract. Funds contract and has permissions to whitelist users, pause and close contract.",
          "_beneficiary": "The address that recieves fees.",
          "_endTime": "Distribution end time in unix timecode.",
          "_fee": "Success fee expressed as a % (e.g. 2 = 2% fee)",
          "_permissionedSeed": "Set to true if only whitelisted adresses are allowed to participate.",
          "_price": "The price in wei of fundingTokens when exchanged for seedTokens.",
          "_softHardThresholds": "Array containing two params: - the minimum funding token collection threshold in wei denomination. - the highest possible funding token amount to be raised in wei denomination.",
          "_startTime": "Distribution start time in unix timecode.",
          "_tokens": "Array containing two params: - The address of the seed token being distributed.                                - The address of the funding token being exchanged for seed token.",
          "_vestingCliff": "Cliff duration in seconds.",
          "_vestingDuration": "Vesting period duration in seconds."
        }
      },
      "pause()": {
        "details": "Pause distribution."
      },
      "retrieveFundingTokens()": {
        "details": "Returns funding tokens to user."
      },
      "unpause()": {
        "details": "Unpause distribution."
      },
      "unwhitelist(address)": {
        "details": "Remove address from whitelist.",
        "params": {
          "buyer": "Address which needs to be unwhitelisted"
        }
      },
      "updateMetadata(bytes)": {
        "details": "Updates metadata.",
        "params": {
          "_metadata": "Seed contract metadata, that is IPFS Hash"
        }
      },
      "whitelist(address)": {
        "details": "Add address to whitelist.",
        "params": {
          "_buyer": "Address which needs to be whitelisted"
        }
      },
      "whitelistBatch(address[])": {
        "details": "Add multiple addresses to whitelist.",
        "params": {
          "_buyers": "Array of addresses to whitelist addresses in batch"
        }
      },
      "withdraw()": {
        "details": "Withdraw funds from the contract"
      }
    },
    "title": "PrimeDAO Seed contract"
  },
  "userdoc": {
    "methods": {}
  }
}