{
  "contractName": "SmartPoolManager",
  "abi": [
    {
      "inputs": [
        {
          "internalType": "contract IConfigurableRightsPool",
          "name": "self",
          "type": "IConfigurableRightsPool"
        },
        {
          "internalType": "contract IBPool",
          "name": "bPool",
          "type": "IBPool"
        },
        {
          "internalType": "uint256",
          "name": "poolAmountOut",
          "type": "uint256"
        },
        {
          "internalType": "uint256[]",
          "name": "maxAmountsIn",
          "type": "uint256[]"
        }
      ],
      "name": "joinPool",
      "outputs": [
        {
          "internalType": "uint256[]",
          "name": "actualAmountsIn",
          "type": "uint256[]"
        }
      ],
      "stateMutability": "view",
      "type": "function"
    },
    {
      "inputs": [
        {
          "internalType": "contract IConfigurableRightsPool",
          "name": "self",
          "type": "IConfigurableRightsPool"
        },
        {
          "internalType": "contract IBPool",
          "name": "bPool",
          "type": "IBPool"
        },
        {
          "internalType": "uint256",
          "name": "poolAmountIn",
          "type": "uint256"
        },
        {
          "internalType": "uint256[]",
          "name": "minAmountsOut",
          "type": "uint256[]"
        }
      ],
      "name": "exitPool",
      "outputs": [
        {
          "internalType": "uint256",
          "name": "exitFee",
          "type": "uint256"
        },
        {
          "internalType": "uint256",
          "name": "pAiAfterExitFee",
          "type": "uint256"
        },
        {
          "internalType": "uint256[]",
          "name": "actualAmountsOut",
          "type": "uint256[]"
        }
      ],
      "stateMutability": "view",
      "type": "function"
    },
    {
      "inputs": [
        {
          "internalType": "contract IConfigurableRightsPool",
          "name": "self",
          "type": "IConfigurableRightsPool"
        },
        {
          "internalType": "contract IBPool",
          "name": "bPool",
          "type": "IBPool"
        },
        {
          "internalType": "address",
          "name": "tokenIn",
          "type": "address"
        },
        {
          "internalType": "uint256",
          "name": "tokenAmountIn",
          "type": "uint256"
        },
        {
          "internalType": "uint256",
          "name": "minPoolAmountOut",
          "type": "uint256"
        }
      ],
      "name": "joinswapExternAmountIn",
      "outputs": [
        {
          "internalType": "uint256",
          "name": "poolAmountOut",
          "type": "uint256"
        }
      ],
      "stateMutability": "view",
      "type": "function"
    },
    {
      "inputs": [
        {
          "internalType": "contract IConfigurableRightsPool",
          "name": "self",
          "type": "IConfigurableRightsPool"
        },
        {
          "internalType": "contract IBPool",
          "name": "bPool",
          "type": "IBPool"
        },
        {
          "internalType": "address",
          "name": "tokenIn",
          "type": "address"
        },
        {
          "internalType": "uint256",
          "name": "poolAmountOut",
          "type": "uint256"
        },
        {
          "internalType": "uint256",
          "name": "maxAmountIn",
          "type": "uint256"
        }
      ],
      "name": "joinswapPoolAmountOut",
      "outputs": [
        {
          "internalType": "uint256",
          "name": "tokenAmountIn",
          "type": "uint256"
        }
      ],
      "stateMutability": "view",
      "type": "function"
    },
    {
      "inputs": [
        {
          "internalType": "contract IConfigurableRightsPool",
          "name": "self",
          "type": "IConfigurableRightsPool"
        },
        {
          "internalType": "contract IBPool",
          "name": "bPool",
          "type": "IBPool"
        },
        {
          "internalType": "address",
          "name": "tokenOut",
          "type": "address"
        },
        {
          "internalType": "uint256",
          "name": "poolAmountIn",
          "type": "uint256"
        },
        {
          "internalType": "uint256",
          "name": "minAmountOut",
          "type": "uint256"
        }
      ],
      "name": "exitswapPoolAmountIn",
      "outputs": [
        {
          "internalType": "uint256",
          "name": "exitFee",
          "type": "uint256"
        },
        {
          "internalType": "uint256",
          "name": "tokenAmountOut",
          "type": "uint256"
        }
      ],
      "stateMutability": "view",
      "type": "function"
    },
    {
      "inputs": [
        {
          "internalType": "contract IConfigurableRightsPool",
          "name": "self",
          "type": "IConfigurableRightsPool"
        },
        {
          "internalType": "contract IBPool",
          "name": "bPool",
          "type": "IBPool"
        },
        {
          "internalType": "address",
          "name": "tokenOut",
          "type": "address"
        },
        {
          "internalType": "uint256",
          "name": "tokenAmountOut",
          "type": "uint256"
        },
        {
          "internalType": "uint256",
          "name": "maxPoolAmountIn",
          "type": "uint256"
        }
      ],
      "name": "exitswapExternAmountOut",
      "outputs": [
        {
          "internalType": "uint256",
          "name": "exitFee",
          "type": "uint256"
        },
        {
          "internalType": "uint256",
          "name": "poolAmountIn",
          "type": "uint256"
        }
      ],
      "stateMutability": "view",
      "type": "function"
    }
  ],
  "bytecode": "0x613f71610026600b82828239805160001a60731461001957fe5b30600052607381538281f3fe73000000000000000000000000000000000000000030146080604052600436106100f45760003560e01c806382495b4511610096578063d505a94e11610070578063d505a94e14610247578063df90de0b1461025a578063efa587741461026d578063f544aa1c1461028d576100f4565b806382495b45146101e7578063a1925f1d14610207578063b489ec1914610227576100f4565b80635471c3e4116100d25780635471c3e41461015b5780636a6dc6e714610186578063724a2d53146101a657806377d44349146101c7576100f4565b80630970e47f146100f957806313b8bf241461011b5780631c1af1361461013b575b600080fd5b81801561010557600080fd5b5061011961011436600461372d565b6102ad565b005b81801561012757600080fd5b506101196101363660046136b8565b610754565b81801561014757600080fd5b506101196101563660046134fa565b610a46565b61016e610169366004613821565b610a52565b60405161017d93929190613eb8565b60405180910390f35b6101996101943660046137c7565b610d2b565b60405161017d9190613ea1565b6101b96101b43660046137c7565b611180565b60405161017d929190613eaa565b8180156101d357600080fd5b506101196101e2366004613532565b6115e3565b8180156101f357600080fd5b5061011961020236600461368d565b611624565b61021a610215366004613821565b6119a6565b60405161017d91906139b5565b81801561023357600080fd5b5061011961024236600461363d565b611c61565b6101b96102553660046137c7565b611e5a565b6101996102683660046137c7565b612236565b81801561027957600080fd5b50610119610288366004613892565b612607565b81801561029957600080fd5b506101196102a8366004613777565b612979565b6000836001600160a01b03166318160ddd6040518163ffffffff1660e01b815260040160206040518083038186803b1580156102e857600080fd5b505afa1580156102fc573d6000803e3d6000fd5b505050506040513d601f19601f8201168201806040525081019061032091906138d7565b905060006104226103ac83866001600160a01b031663948d8ce6876040518263ffffffff1660e01b81526004016103579190613929565b60206040518083038186803b15801561036f57600080fd5b505afa158015610383573d6000803e3d6000fd5b505050506040513d601f19601f820116820180604052508101906103a791906138d7565b613032565b856001600160a01b031663936c34776040518163ffffffff1660e01b815260040160206040518083038186803b1580156103e557600080fd5b505afa1580156103f9573d6000803e3d6000fd5b505050506040513d601f19601f8201168201806040525081019061041d91906138d7565b6130b1565b90506000846001600160a01b031663f8b2cb4f856040518263ffffffff1660e01b81526004016104529190613929565b60206040518083038186803b15801561046a57600080fd5b505afa15801561047e573d6000803e3d6000fd5b505050506040513d601f19601f820116820180604052508101906104a291906138d7565b60405163cf5e7bd360e01b81529091506001600160a01b0386169063cf5e7bd3906104d1908790600401613929565b600060405180830381600087803b1580156104eb57600080fd5b505af11580156104ff573d6000803e3d6000fd5b505050506000846001600160a01b031663a9059cbb886001600160a01b0316633018205f6040518163ffffffff1660e01b815260040160206040518083038186803b15801561054d57600080fd5b505afa158015610561573d6000803e3d6000fd5b505050506040513d601f19601f820116820180604052508101906105859190613516565b846040518363ffffffff1660e01b81526004016105a3929190613961565b602060405180830381600087803b1580156105bd57600080fd5b505af11580156105d1573d6000803e3d6000fd5b505050506040513d601f19601f820116820180604052508101906105f5919061361d565b90508061061d5760405162461bcd60e51b815260040161061490613e23565b60405180910390fd5b866001600160a01b03166355c32a23886001600160a01b0316633018205f6040518163ffffffff1660e01b815260040160206040518083038186803b15801561066557600080fd5b505afa158015610679573d6000803e3d6000fd5b505050506040513d601f19601f8201168201806040525081019061069d9190613516565b856040518363ffffffff1660e01b81526004016106bb929190613961565b600060405180830381600087803b1580156106d557600080fd5b505af11580156106e9573d6000803e3d6000fd5b505060405163011075bb60e51b81526001600160a01b038a16925063220eb7609150610719908690600401613ea1565b600060405180830381600087803b15801561073357600080fd5b505af1158015610747573d6000803e3d6000fd5b5050505050505050505050565b8143106107735760405162461bcd60e51b8152600401610614906139f5565b8243111561078357438655610787565b8286555b80610796838860000154613142565b10156107b45760405162461bcd60e51b815260040161061490613a2c565b6060876001600160a01b031663cc77828d6040518163ffffffff1660e01b815260040160006040518083038186803b1580156107ef57600080fd5b505afa158015610803573d6000803e3d6000fd5b505050506040513d6000823e601f3d908101601f1916820160405261082b9190810190613572565b8051909150851461084e5760405162461bcd60e51b815260040161061490613a61565b6000815167ffffffffffffffff8111801561086857600080fd5b50604051908082528060200260200182016040528015610892578160200160208202803683370190505b5080516108a99160028b0191602090910190613412565b5060005b82518110156109fb576802b5e3af16b18800008888838181106108cc57fe5b9050602002013511156108f15760405162461bcd60e51b815260040161061490613d08565b670de0b6b3a764000088888381811061090657fe5b90506020020135101561092b5760405162461bcd60e51b815260040161061490613c60565b6109478289898481811061093b57fe5b9050602002013561317b565b9150896001600160a01b031663948d8ce684838151811061096457fe5b60200260200101516040518263ffffffff1660e01b81526004016109889190613929565b60206040518083038186803b1580156109a057600080fd5b505afa1580156109b4573d6000803e3d6000fd5b505050506040513d601f19601f820116820180604052508101906109d891906138d7565b8960020182815481106109e757fe5b6000918252602090912001556001016108ad565b506802b5e3af16b1880000811115610a255760405162461bcd60e51b815260040161061490613b39565b60018801849055610a3a60038901888861345d565b50505050505050505050565b610a4f816131a7565b50565b600080606080876001600160a01b031663cc77828d6040518163ffffffff1660e01b815260040160006040518083038186803b158015610a9157600080fd5b505afa158015610aa5573d6000803e3d6000fd5b505050506040513d6000823e601f3d908101601f19168201604052610acd9190810190613572565b80519091508514610af05760405162461bcd60e51b815260040161061490613b67565b6000896001600160a01b03166318160ddd6040518163ffffffff1660e01b815260040160206040518083038186803b158015610b2b57600080fd5b505afa158015610b3f573d6000803e3d6000fd5b505050506040513d601f19601f82011682018060405250810190610b6391906138d7565b9050610b70886000613032565b9450610b7c8886613142565b93506000610b8f8561041d84600161317b565b905080610bae5760405162461bcd60e51b815260040161061490613ae8565b825167ffffffffffffffff81118015610bc657600080fd5b50604051908082528060200260200182016040528015610bf0578160200160208202803683370190505b50935060005b8351811015610d1c576000848281518110610c0d57fe5b6020026020010151905060008c6001600160a01b031663f8b2cb4f836040518263ffffffff1660e01b8152600401610c459190613929565b60206040518083038186803b158015610c5d57600080fd5b505afa158015610c71573d6000803e3d6000fd5b505050506040513d601f19601f82011682018060405250810190610c9591906138d7565b90506000610ca8856103a7846001613142565b905080610cc75760405162461bcd60e51b815260040161061490613ae8565b8b8b85818110610cd357fe5b90506020020135811015610cf95760405162461bcd60e51b815260040161061490613b95565b80888581518110610d0657fe5b6020908102919091010152505050600101610bf6565b50505050955095509592505050565b604051630bcded8960e21b81526000906001600160a01b03861690632f37b62490610d5a908790600401613929565b60206040518083038186803b158015610d7257600080fd5b505afa158015610d86573d6000803e3d6000fd5b505050506040513d601f19601f82011682018060405250810190610daa919061361d565b610dc65760405162461bcd60e51b815260040161061490613cb9565b60405163f8b2cb4f60e01b81526001600160a01b03861690635c1bbaf790829063f8b2cb4f90610dfa908990600401613929565b60206040518083038186803b158015610e1257600080fd5b505afa158015610e26573d6000803e3d6000fd5b505050506040513d601f19601f82011682018060405250810190610e4a91906138d7565b604051634a46c67360e11b81526001600160a01b0389169063948d8ce690610e76908a90600401613929565b60206040518083038186803b158015610e8e57600080fd5b505afa158015610ea2573d6000803e3d6000fd5b505050506040513d601f19601f82011682018060405250810190610ec691906138d7565b896001600160a01b03166318160ddd6040518163ffffffff1660e01b815260040160206040518083038186803b158015610eff57600080fd5b505afa158015610f13573d6000803e3d6000fd5b505050506040513d601f19601f82011682018060405250810190610f3791906138d7565b896001600160a01b031663936c34776040518163ffffffff1660e01b815260040160206040518083038186803b158015610f7057600080fd5b505afa158015610f84573d6000803e3d6000fd5b505050506040513d601f19601f82011682018060405250810190610fa891906138d7565b888b6001600160a01b031663d4cadf686040518163ffffffff1660e01b815260040160206040518083038186803b158015610fe257600080fd5b505afa158015610ff6573d6000803e3d6000fd5b505050506040513d601f19601f8201168201806040525081019061101a91906138d7565b6040518763ffffffff1660e01b815260040161103b96959493929190613ed7565b60206040518083038186803b15801561105357600080fd5b505afa158015611067573d6000803e3d6000fd5b505050506040513d601f19601f8201168201806040525081019061108b91906138d7565b9050806110aa5760405162461bcd60e51b815260040161061490613ae8565b818111156110ca5760405162461bcd60e51b815260040161061490613c3a565b60405163f8b2cb4f60e01b8152611158906001600160a01b0387169063f8b2cb4f906110fa908890600401613929565b60206040518083038186803b15801561111257600080fd5b505afa158015611126573d6000803e3d6000fd5b505050506040513d601f19601f8201168201806040525081019061114a91906138d7565b6706f05b59d3b20000613032565b8111156111775760405162461bcd60e51b815260040161061490613abe565b95945050505050565b600080856001600160a01b0316632f37b624866040518263ffffffff1660e01b81526004016111af9190613929565b60206040518083038186803b1580156111c757600080fd5b505afa1580156111db573d6000803e3d6000fd5b505050506040513d601f19601f820116820180604052508101906111ff919061361d565b61121b5760405162461bcd60e51b815260040161061490613cb9565b60405163f8b2cb4f60e01b81526112a9906001600160a01b0388169063f8b2cb4f9061124b908990600401613929565b60206040518083038186803b15801561126357600080fd5b505afa158015611277573d6000803e3d6000fd5b505050506040513d601f19601f8201168201806040525081019061129b91906138d7565b6704a03ce68d215556613032565b8411156112c85760405162461bcd60e51b815260040161061490613c8e565b60405163f8b2cb4f60e01b81526001600160a01b038716906382f652ad90829063f8b2cb4f906112fc908a90600401613929565b60206040518083038186803b15801561131457600080fd5b505afa158015611328573d6000803e3d6000fd5b505050506040513d601f19601f8201168201806040525081019061134c91906138d7565b604051634a46c67360e11b81526001600160a01b038a169063948d8ce690611378908b90600401613929565b60206040518083038186803b15801561139057600080fd5b505afa1580156113a4573d6000803e3d6000fd5b505050506040513d601f19601f820116820180604052508101906113c891906138d7565b8a6001600160a01b03166318160ddd6040518163ffffffff1660e01b815260040160206040518083038186803b15801561140157600080fd5b505afa158015611415573d6000803e3d6000fd5b505050506040513d601f19601f8201168201806040525081019061143991906138d7565b8a6001600160a01b031663936c34776040518163ffffffff1660e01b815260040160206040518083038186803b15801561147257600080fd5b505afa158015611486573d6000803e3d6000fd5b505050506040513d601f19601f820116820180604052508101906114aa91906138d7565b898c6001600160a01b031663d4cadf686040518163ffffffff1660e01b815260040160206040518083038186803b1580156114e457600080fd5b505afa1580156114f8573d6000803e3d6000fd5b505050506040513d601f19601f8201168201806040525081019061151c91906138d7565b6040518763ffffffff1660e01b815260040161153d96959493929190613ed7565b60206040518083038186803b15801561155557600080fd5b505afa158015611569573d6000803e3d6000fd5b505050506040513d601f19601f8201168201806040525081019061158d91906138d7565b9050806115ac5760405162461bcd60e51b815260040161061490613ae8565b828111156115cc5760405162461bcd60e51b815260040161061490613c3a565b6115d7816000613032565b91509550959350505050565b60005b8181101561161f576116178383838181106115fd57fe5b905060200201602081019061161291906134fa565b6131a7565b6001016115e6565b505050565b805461162f576119a2565b80544310156116505760405162461bcd60e51b815260040161061490613be5565b600081600101544311156116695750600181015461166c565b50435b600061168083600101548460000154613142565b90506000611692838560000154613142565b905060008060006060886001600160a01b031663cc77828d6040518163ffffffff1660e01b815260040160006040518083038186803b1580156116d457600080fd5b505afa1580156116e8573d6000803e3d6000fd5b505050506040513d6000823e601f3d908101601f191682016040526117109190810190613572565b905060005b81518110156119895788600301818154811061172d57fe5b906000526020600020015489600201828154811061174757fe5b9060005260206000200154146119815788600201818154811061176657fe5b906000526020600020015489600301828154811061178057fe5b9060005260206000200154101561180e576117cd8960020182815481106117a357fe5b90600052602060002001548a60030183815481106117bd57fe5b9060005260206000200154613142565b94506117d985886130b1565b93506118078960020182815481106117ed57fe5b90600052602060002001546118028887613032565b613142565b9250611877565b61183a89600301828154811061182057fe5b90600052602060002001548a60020183815481106117bd57fe5b945061184685886130b1565b935061187489600201828154811061185a57fe5b906000526020600020015461186f8887613032565b61317b565b92505b60008a6001600160a01b031663f8b2cb4f84848151811061189457fe5b60200260200101516040518263ffffffff1660e01b81526004016118b89190613929565b60206040518083038186803b1580156118d057600080fd5b505afa1580156118e4573d6000803e3d6000fd5b505050506040513d601f19601f8201168201806040525081019061190891906138d7565b90508a6001600160a01b0316633fdddaa284848151811061192557fe5b602002602001015183876040518463ffffffff1660e01b815260040161194d93929190613994565b600060405180830381600087803b15801561196757600080fd5b505af115801561197b573d6000803e3d6000fd5b50505050505b600101611715565b508760010154431061199a57600088555b505050505050505b5050565b606080856001600160a01b031663cc77828d6040518163ffffffff1660e01b815260040160006040518083038186803b1580156119e257600080fd5b505afa1580156119f6573d6000803e3d6000fd5b505050506040513d6000823e601f3d908101601f19168201604052611a1e9190810190613572565b80519091508314611a415760405162461bcd60e51b815260040161061490613b67565b6000876001600160a01b03166318160ddd6040518163ffffffff1660e01b815260040160206040518083038186803b158015611a7c57600080fd5b505afa158015611a90573d6000803e3d6000fd5b505050506040513d601f19601f82011682018060405250810190611ab491906138d7565b90506000611ac78761041d846001613142565b905080611ae65760405162461bcd60e51b815260040161061490613ae8565b825167ffffffffffffffff81118015611afe57600080fd5b50604051908082528060200260200182016040528015611b28578160200160208202803683370190505b50935060005b8351811015611c54576000848281518110611b4557fe5b6020026020010151905060008a6001600160a01b031663f8b2cb4f836040518263ffffffff1660e01b8152600401611b7d9190613929565b60206040518083038186803b158015611b9557600080fd5b505afa158015611ba9573d6000803e3d6000fd5b505050506040513d601f19601f82011682018060405250810190611bcd91906138d7565b90506000611be0856103a784600161317b565b905080611bff5760405162461bcd60e51b815260040161061490613ae8565b898985818110611c0b57fe5b90506020020135811115611c315760405162461bcd60e51b815260040161061490613c3a565b80888581518110611c3e57fe5b6020908102919091010152505050600101611b2e565b5050505095945050505050565b604051630bcded8960e21b81526001600160a01b03861690632f37b62490611c8d908790600401613929565b60206040518083038186803b158015611ca557600080fd5b505afa158015611cb9573d6000803e3d6000fd5b505050506040513d601f19601f82011682018060405250810190611cdd919061361d565b15611cfa5760405162461bcd60e51b815260040161061490613a98565b6802b5e3af16b1880000821115611d235760405162461bcd60e51b815260040161061490613d08565b670de0b6b3a7640000821015611d4b5760405162461bcd60e51b815260040161061490613c60565b670de0b6b3a7640000603202611dd1866001600160a01b031663936c34776040518163ffffffff1660e01b815260040160206040518083038186803b158015611d9357600080fd5b505afa158015611da7573d6000803e3d6000fd5b505050506040513d601f19601f82011682018060405250810190611dcb91906138d7565b8461317b565b1115611def5760405162461bcd60e51b815260040161061490613b39565b64e8d4a51000831015611e145760405162461bcd60e51b815260040161061490613df4565b805460038201939093556002810191909155436001820155600160a01b6001600160a01b03199092166001600160a01b03939093169290921760ff60a01b191617905550565b600080856001600160a01b0316632f37b624866040518263ffffffff1660e01b8152600401611e899190613929565b60206040518083038186803b158015611ea157600080fd5b505afa158015611eb5573d6000803e3d6000fd5b505050506040513d601f19601f82011682018060405250810190611ed9919061361d565b611ef55760405162461bcd60e51b815260040161061490613cb9565b60405163f8b2cb4f60e01b81526001600160a01b03871690638929801290829063f8b2cb4f90611f29908a90600401613929565b60206040518083038186803b158015611f4157600080fd5b505afa158015611f55573d6000803e3d6000fd5b505050506040513d601f19601f82011682018060405250810190611f7991906138d7565b604051634a46c67360e11b81526001600160a01b038a169063948d8ce690611fa5908b90600401613929565b60206040518083038186803b158015611fbd57600080fd5b505afa158015611fd1573d6000803e3d6000fd5b505050506040513d601f19601f82011682018060405250810190611ff591906138d7565b8a6001600160a01b03166318160ddd6040518163ffffffff1660e01b815260040160206040518083038186803b15801561202e57600080fd5b505afa158015612042573d6000803e3d6000fd5b505050506040513d601f19601f8201168201806040525081019061206691906138d7565b8a6001600160a01b031663936c34776040518163ffffffff1660e01b815260040160206040518083038186803b15801561209f57600080fd5b505afa1580156120b3573d6000803e3d6000fd5b505050506040513d601f19601f820116820180604052508101906120d791906138d7565b898c6001600160a01b031663d4cadf686040518163ffffffff1660e01b815260040160206040518083038186803b15801561211157600080fd5b505afa158015612125573d6000803e3d6000fd5b505050506040513d601f19601f8201168201806040525081019061214991906138d7565b6040518763ffffffff1660e01b815260040161216a96959493929190613ed7565b60206040518083038186803b15801561218257600080fd5b505afa158015612196573d6000803e3d6000fd5b505050506040513d601f19601f820116820180604052508101906121ba91906138d7565b9050828110156121dc5760405162461bcd60e51b815260040161061490613b95565b60405163f8b2cb4f60e01b815261220c906001600160a01b0388169063f8b2cb4f9061124b908990600401613929565b81111561222b5760405162461bcd60e51b815260040161061490613c8e565b6115d7846000613032565b604051630bcded8960e21b81526000906001600160a01b03861690632f37b62490612265908790600401613929565b60206040518083038186803b15801561227d57600080fd5b505afa158015612291573d6000803e3d6000fd5b505050506040513d601f19601f820116820180604052508101906122b5919061361d565b6122d15760405162461bcd60e51b815260040161061490613cb9565b60405163f8b2cb4f60e01b8152612301906001600160a01b0387169063f8b2cb4f906110fa908890600401613929565b8311156123205760405162461bcd60e51b815260040161061490613abe565b60405163f8b2cb4f60e01b81526001600160a01b03861690638656b65390829063f8b2cb4f90612354908990600401613929565b60206040518083038186803b15801561236c57600080fd5b505afa158015612380573d6000803e3d6000fd5b505050506040513d601f19601f820116820180604052508101906123a491906138d7565b604051634a46c67360e11b81526001600160a01b0389169063948d8ce6906123d0908a90600401613929565b60206040518083038186803b1580156123e857600080fd5b505afa1580156123fc573d6000803e3d6000fd5b505050506040513d601f19601f8201168201806040525081019061242091906138d7565b896001600160a01b03166318160ddd6040518163ffffffff1660e01b815260040160206040518083038186803b15801561245957600080fd5b505afa15801561246d573d6000803e3d6000fd5b505050506040513d601f19601f8201168201806040525081019061249191906138d7565b896001600160a01b031663936c34776040518163ffffffff1660e01b815260040160206040518083038186803b1580156124ca57600080fd5b505afa1580156124de573d6000803e3d6000fd5b505050506040513d601f19601f8201168201806040525081019061250291906138d7565b888b6001600160a01b031663d4cadf686040518163ffffffff1660e01b815260040160206040518083038186803b15801561253c57600080fd5b505afa158015612550573d6000803e3d6000fd5b505050506040513d601f19601f8201168201806040525081019061257491906138d7565b6040518763ffffffff1660e01b815260040161259596959493929190613ed7565b60206040518083038186803b1580156125ad57600080fd5b505afa1580156125c1573d6000803e3d6000fd5b505050506040513d601f19601f820116820180604052508101906125e591906138d7565b9050818110156111775760405162461bcd60e51b815260040161061490613b95565b8054600160a01b900460ff1661262f5760405162461bcd60e51b8152600401610614906139c8565b8161263e438360010154613142565b101561265c5760405162461bcd60e51b815260040161061490613d36565b6000846001600160a01b03166318160ddd6040518163ffffffff1660e01b815260040160206040518083038186803b15801561269757600080fd5b505afa1580156126ab573d6000803e3d6000fd5b505050506040513d601f19601f820116820180604052508101906126cf91906138d7565b9050600061271d6126e4838560020154613032565b866001600160a01b031663936c34776040518163ffffffff1660e01b815260040160206040518083038186803b1580156103e557600080fd5b835460ff60a01b198116855560408051633018205f60e01b815290519293506000926001600160a01b03928316926323b872dd92908b1691633018205f91600480820192602092909190829003018186803b15801561277b57600080fd5b505afa15801561278f573d6000803e3d6000fd5b505050506040513d601f19601f820116820180604052508101906127b39190613516565b8987600301546040518463ffffffff1660e01b81526004016127d79392919061393d565b602060405180830381600087803b1580156127f157600080fd5b505af1158015612805573d6000803e3d6000fd5b505050506040513d601f19601f82011682018060405250810190612829919061361d565b9050806128485760405162461bcd60e51b815260040161061490613e23565b8354612860906001600160a01b031687600019613249565b90508061287f5760405162461bcd60e51b815260040161061490613e23565b835460038501546002860154604051631c9c3ca760e31b81526001600160a01b03808b169463e4e1e538946128bb949190921692600401613994565b600060405180830381600087803b1580156128d557600080fd5b505af11580156128e9573d6000803e3d6000fd5b50506040516325d2bc4160e11b81526001600160a01b038a169250634ba578829150612919908590600401613ea1565b600060405180830381600087803b15801561293357600080fd5b505af1158015612947573d6000803e3d6000fd5b5050604051630257733360e21b81526001600160a01b038a16925063095dcccc91506107199033908690600401613961565b670de0b6b3a76400008110156129a15760405162461bcd60e51b815260040161061490613ce0565b6802b5e3af16b18800008111156129ca5760405162461bcd60e51b815260040161061490613b11565b604051634a46c67360e11b81526000906001600160a01b0385169063948d8ce6906129f9908690600401613929565b60206040518083038186803b158015612a1157600080fd5b505afa158015612a25573d6000803e3d6000fd5b505050506040513d601f19601f82011682018060405250810190612a4991906138d7565b905081811415612a59575061302c565b60405163f8b2cb4f60e01b81526000906001600160a01b0386169063f8b2cb4f90612a88908790600401613929565b60206040518083038186803b158015612aa057600080fd5b505afa158015612ab4573d6000803e3d6000fd5b505050506040513d601f19601f82011682018060405250810190612ad891906138d7565b90506000866001600160a01b03166318160ddd6040518163ffffffff1660e01b815260040160206040518083038186803b158015612b1557600080fd5b505afa158015612b29573d6000803e3d6000fd5b505050506040513d601f19601f82011682018060405250810190612b4d91906138d7565b90506000866001600160a01b031663936c34776040518163ffffffff1660e01b815260040160206040518083038186803b158015612b8a57600080fd5b505afa158015612b9e573d6000803e3d6000fd5b505050506040513d601f19601f82011682018060405250810190612bc291906138d7565b905060008060008087891015612df757612bdc888a613142565b9150612bec866103a784886130b1565b9350612bfc876103a7848b6130b1565b9250612c088784613142565b905064e8d4a51000811015612c2f5760405162461bcd60e51b815260040161061490613bbc565b604051631feeed5160e11b81526001600160a01b038c1690633fdddaa290612c5f908d9085908e90600401613994565b600060405180830381600087803b158015612c7957600080fd5b505af1158015612c8d573d6000803e3d6000fd5b505060405163a9059cbb60e01b8152600092506001600160a01b038d16915063a9059cbb90612cc29033908890600401613961565b602060405180830381600087803b158015612cdc57600080fd5b505af1158015612cf0573d6000803e3d6000fd5b505050506040513d601f19601f82011682018060405250810190612d14919061361d565b905080612d335760405162461bcd60e51b815260040161061490613e23565b6040516355c32a2360e01b81526001600160a01b038e16906355c32a2390612d619033908990600401613961565b600060405180830381600087803b158015612d7b57600080fd5b505af1158015612d8f573d6000803e3d6000fd5b505050508c6001600160a01b031663220eb760866040518263ffffffff1660e01b8152600401612dbf9190613ea1565b600060405180830381600087803b158015612dd957600080fd5b505af1158015612ded573d6000803e3d6000fd5b5050505050613023565b612e018989613142565b91506802b5e3af16b1880000612e17868461317b565b1115612e355760405162461bcd60e51b815260040161061490613b39565b612e43866103a784886130b1565b9350612e53876103a7848b6130b1565b925060008a6001600160a01b03166323b872dd3330876040518463ffffffff1660e01b8152600401612e879392919061393d565b602060405180830381600087803b158015612ea157600080fd5b505af1158015612eb5573d6000803e3d6000fd5b505050506040513d601f19601f82011682018060405250810190612ed9919061361d565b905080612ef85760405162461bcd60e51b815260040161061490613e23565b8b6001600160a01b0316633fdddaa28c612f128b8861317b565b8d6040518463ffffffff1660e01b8152600401612f3193929190613994565b600060405180830381600087803b158015612f4b57600080fd5b505af1158015612f5f573d6000803e3d6000fd5b505050508c6001600160a01b0316634ba57882866040518263ffffffff1660e01b8152600401612f8f9190613ea1565b600060405180830381600087803b158015612fa957600080fd5b505af1158015612fbd573d6000803e3d6000fd5b505050508c6001600160a01b031663095dcccc33876040518363ffffffff1660e01b8152600401612fef929190613961565b600060405180830381600087803b15801561300957600080fd5b505af115801561301d573d6000803e3d6000fd5b50505050505b50505050505050505b50505050565b600082613041575060006130ab565b8282028284828161304e57fe5b041461306c5760405162461bcd60e51b815260040161061490613d6d565b6706f05b59d3b200008101818110156130975760405162461bcd60e51b815260040161061490613d6d565b6000670de0b6b3a7640000825b0493505050505b92915050565b6000816130d05760405162461bcd60e51b815260040161061490613dce565b826130dd575060006130ab565b670de0b6b3a7640000838102908482816130f357fe5b04146131115760405162461bcd60e51b815260040161061490613c10565b600283048101818110156131375760405162461bcd60e51b815260040161061490613c10565b60008482816130a457fe5b600080600061315185856133ed565b9150915080156131735760405162461bcd60e51b815260040161061490613e4c565b509392505050565b6000828201838110156131a05760405162461bcd60e51b815260040161061490613e77565b9392505050565b60405163a9059cbb60e01b81526000906001600160a01b0383169063a9059cbb906131d89033908590600401613961565b602060405180830381600087803b1580156131f257600080fd5b505af1158015613206573d6000803e3d6000fd5b505050506040513d601f19601f8201168201806040525081019061322a919061361d565b9050806119a25760405162461bcd60e51b815260040161061490613d97565b600080846001600160a01b031663dd62ed3e30866040518363ffffffff1660e01b815260040161327a92919061397a565b60206040518083038186803b15801561329257600080fd5b505afa1580156132a6573d6000803e3d6000fd5b505050506040513d601f19601f820116820180604052508101906132ca91906138d7565b9050828114156132de5760019150506131a0565b801561336d5760405163095ea7b360e01b81526001600160a01b0386169063095ea7b390613313908790600090600401613961565b602060405180830381600087803b15801561332d57600080fd5b505af1158015613341573d6000803e3d6000fd5b505050506040513d601f19601f82011682018060405250810190613365919061361d565b9150506131a0565b60405163095ea7b360e01b81526001600160a01b0386169063095ea7b39061339b9087908790600401613961565b602060405180830381600087803b1580156133b557600080fd5b505af11580156133c9573d6000803e3d6000fd5b505050506040513d601f19601f82011682018060405250810190611177919061361d565b600080838311613403575050808203600061340b565b505081810360015b9250929050565b82805482825590600052602060002090810192821561344d579160200282015b8281111561344d578251825591602001919060010190613432565b50613459929150613498565b5090565b82805482825590600052602060002090810192821561344d579160200282015b8281111561344d57823582559160200191906001019061347d565b5b808211156134595760008155600101613499565b80516130ab81613f26565b60008083601f8401126134c9578182fd5b50813567ffffffffffffffff8111156134e0578182fd5b602083019150836020808302850101111561340b57600080fd5b60006020828403121561350b578081fd5b81356131a081613f26565b600060208284031215613527578081fd5b81516131a081613f26565b60008060208385031215613544578081fd5b823567ffffffffffffffff81111561355a578182fd5b613566858286016134b8565b90969095509350505050565b60006020808385031215613584578182fd5b825167ffffffffffffffff8082111561359b578384fd5b818501915085601f8301126135ae578384fd5b8151818111156135bc578485fd5b83810291506135cc848301613eff565b8181528481019084860184860187018a10156135e6578788fd5b8795505b83861015613610576135fc8a826134ad565b8352600195909501949186019186016135ea565b5098975050505050505050565b60006020828403121561362e578081fd5b815180151581146131a0578182fd5b600080600080600060a08688031215613654578081fd5b853561365f81613f26565b9450602086013561366f81613f26565b94979496505050506040830135926060810135926080909101359150565b6000806040838503121561369f578182fd5b82356136aa81613f26565b946020939093013593505050565b600080600080600080600060c0888a0312156136d2578182fd5b87356136dd81613f26565b965060208801359550604088013567ffffffffffffffff8111156136ff578283fd5b61370b8a828b016134b8565b989b979a50986060810135976080820135975060a09091013595509350505050565b600080600060608486031215613741578283fd5b833561374c81613f26565b9250602084013561375c81613f26565b9150604084013561376c81613f26565b809150509250925092565b6000806000806080858703121561378c578384fd5b843561379781613f26565b935060208501356137a781613f26565b925060408501356137b781613f26565b9396929550929360600135925050565b600080600080600060a086880312156137de578283fd5b85356137e981613f26565b945060208601356137f981613f26565b9350604086013561380981613f26565b94979396509394606081013594506080013592915050565b600080600080600060808688031215613838578283fd5b853561384381613f26565b9450602086013561385381613f26565b935060408601359250606086013567ffffffffffffffff811115613875578182fd5b613881888289016134b8565b969995985093965092949392505050565b600080600080608085870312156138a7578182fd5b84356138b281613f26565b935060208501356138c281613f26565b93969395505050506040820135916060013590565b6000602082840312156138e8578081fd5b5051919050565b6000815180845260208085019450808401835b8381101561391e57815187529582019590820190600101613902565b509495945050505050565b6001600160a01b0391909116815260200190565b6001600160a01b039384168152919092166020820152604081019190915260600190565b6001600160a01b03929092168252602082015260400190565b6001600160a01b0392831681529116602082015260400190565b6001600160a01b039390931683526020830191909152604082015260600190565b6000602082526131a060208301846138ef565b60208082526013908201527211549497d393d7d513d2d15397d0d3d3535255606a1b604082015260600190565b6020808252601e908201527f4552525f4752414455414c5f5550444154455f54494d455f54524156454c0000604082015260600190565b6020808252818101527f4552525f5745494748545f4348414e47455f54494d455f42454c4f575f4d494e604082015260600190565b6020808252601a908201527f4552525f53544152545f574549474854535f4d49534d41544348000000000000604082015260600190565b6020808252600c908201526b11549497d254d7d093d5539160a21b604082015260600190565b60208082526010908201526f4552525f4d41585f494e5f524154494f60801b604082015260600190565b6020808252600f908201526e08aa4a4be9a82a890be82a0a0a49eb608b1b604082015260600190565b6020808252600e908201526d11549497d3505617d5d15251d21560921b604082015260600190565b60208082526014908201527311549497d3505617d513d5105317d5d15251d21560621b604082015260600190565b60208082526014908201527308aa4a4be829a9eaa9ca8a6be9a92a69a82a886960631b604082015260600190565b6020808252600d908201526c11549497d31253525517d3d555609a1b604082015260600190565b6020808252600f908201526e4552525f4d494e5f42414c414e434560881b604082015260600190565b60208082526011908201527011549497d0d0539517d413d2d157d65155607a1b604082015260600190565b60208082526010908201526f11549497d1125597d25395115493905360821b604082015260600190565b6020808252600c908201526b22a9292fa624a6a4aa2fa4a760a11b604082015260600190565b60208082526014908201527322a9292faba2a4a3a42a2fa122a627abafa6a4a760611b604082015260600190565b6020808252601190820152704552525f4d41585f4f55545f524154494f60781b604082015260600190565b6020808252600d908201526c11549497d393d517d093d55391609a1b604082015260600190565b6020808252600e908201526d11549497d3525397d5d15251d21560921b604082015260600190565b60208082526014908201527308aa4a4beae8a928e90a8be82849eac8abe9a82b60631b604082015260600190565b6020808252601b908201527f4552525f54494d454c4f434b5f5354494c4c5f434f554e54494e470000000000604082015260600190565b60208082526010908201526f4552525f4d554c5f4f564552464c4f5760801b604082015260600190565b60208082526017908201527f4552525f4e4f4e434f4e464f524d494e475f544f4b454e000000000000000000604082015260600190565b6020808252600c908201526b4552525f4449565f5a45524f60a01b604082015260600190565b60208082526015908201527422a9292fa120a620a721a2afa122a627abafa6a4a760591b604082015260600190565b6020808252600f908201526e4552525f45524332305f46414c534560881b604082015260600190565b6020808252601190820152704552525f5355425f554e444552464c4f5760781b604082015260600190565b60208082526010908201526f4552525f4144445f4f564552464c4f5760801b604082015260600190565b90815260200190565b918252602082015260400190565b60008482528360208301526060604083015261117760608301846138ef565b958652602086019490945260408501929092526060840152608083015260a082015260c00190565b60405181810167ffffffffffffffff81118282101715613f1e57600080fd5b604052919050565b6001600160a01b0381168114610a4f57600080fdfea2646970667358221220803cb6735ce7b35bc841b158ac457744e142715c015d2c38b8f23d9faaacec6b64736f6c634300060c0033",
  "immutableReferences": {},
  "source": "// SPDX-License-Identifier: GPL-3.0-or-later\npragma solidity 0.6.12;\n\n// Needed to pass in structs\npragma experimental ABIEncoderV2;\n\n// Imports\n\nimport \"../interfaces/IERC20.sol\";\nimport \"../interfaces/IConfigurableRightsPool.sol\";\nimport \"../contracts/IBFactory.sol\";\nimport \"./BalancerSafeMath.sol\";\nimport \"./SafeApprove.sol\";\n\n\n/**\n * @author Balancer Labs\n * @title Factor out the weight updates\n */\nlibrary SmartPoolManager {\n    // Type declarations\n\n    struct NewTokenParams {\n        address addr;\n        bool isCommitted;\n        uint commitBlock;\n        uint denorm;\n        uint balance;\n    }\n\n    // For blockwise, automated weight updates\n    // Move weights linearly from startWeights to endWeights,\n    // between startBlock and endBlock\n    struct GradualUpdateParams {\n        uint startBlock;\n        uint endBlock;\n        uint[] startWeights;\n        uint[] endWeights;\n    }\n\n    // updateWeight and pokeWeights are unavoidably long\n    /* solhint-disable function-max-lines */\n\n    /**\n     * @notice Update the weight of an existing token\n     * @dev Refactored to library to make CRPFactory deployable\n     * @param self - ConfigurableRightsPool instance calling the library\n     * @param bPool - Core BPool the CRP is wrapping\n     * @param token - token to be reweighted\n     * @param newWeight - new weight of the token\n    */\n    function updateWeight(\n        IConfigurableRightsPool self,\n        IBPool bPool,\n        address token,\n        uint newWeight\n    )\n        external\n    {\n        require(newWeight >= BalancerConstants.MIN_WEIGHT, \"ERR_MIN_WEIGHT\");\n        require(newWeight <= BalancerConstants.MAX_WEIGHT, \"ERR_MAX_WEIGHT\");\n\n        uint currentWeight = bPool.getDenormalizedWeight(token);\n        // Save gas; return immediately on NOOP\n        if (currentWeight == newWeight) {\n             return;\n        }\n\n        uint currentBalance = bPool.getBalance(token);\n        uint totalSupply = self.totalSupply();\n        uint totalWeight = bPool.getTotalDenormalizedWeight();\n        uint poolShares;\n        uint deltaBalance;\n        uint deltaWeight;\n        uint newBalance;\n\n        if (newWeight < currentWeight) {\n            // This means the controller will withdraw tokens to keep price\n            // So they need to redeem PCTokens\n            deltaWeight = BalancerSafeMath.bsub(currentWeight, newWeight);\n\n            // poolShares = totalSupply * (deltaWeight / totalWeight)\n            poolShares = BalancerSafeMath.bmul(totalSupply,\n                                               BalancerSafeMath.bdiv(deltaWeight, totalWeight));\n\n            // deltaBalance = currentBalance * (deltaWeight / currentWeight)\n            deltaBalance = BalancerSafeMath.bmul(currentBalance,\n                                                 BalancerSafeMath.bdiv(deltaWeight, currentWeight));\n\n            // New balance cannot be lower than MIN_BALANCE\n            newBalance = BalancerSafeMath.bsub(currentBalance, deltaBalance);\n\n            require(newBalance >= BalancerConstants.MIN_BALANCE, \"ERR_MIN_BALANCE\");\n\n            // First get the tokens from this contract (Pool Controller) to msg.sender\n            bPool.rebind(token, newBalance, newWeight);\n\n            // Now with the tokens this contract can send them to msg.sender\n            bool xfer = IERC20(token).transfer(msg.sender, deltaBalance);\n            require(xfer, \"ERR_ERC20_FALSE\");\n\n            self.pullPoolShareFromLib(msg.sender, poolShares);\n            self.burnPoolShareFromLib(poolShares);\n        }\n        else {\n            // This means the controller will deposit tokens to keep the price.\n            // They will be minted and given PCTokens\n            deltaWeight = BalancerSafeMath.bsub(newWeight, currentWeight);\n\n            require(BalancerSafeMath.badd(totalWeight, deltaWeight) <= BalancerConstants.MAX_TOTAL_WEIGHT,\n                    \"ERR_MAX_TOTAL_WEIGHT\");\n\n            // poolShares = totalSupply * (deltaWeight / totalWeight)\n            poolShares = BalancerSafeMath.bmul(totalSupply,\n                                               BalancerSafeMath.bdiv(deltaWeight, totalWeight));\n            // deltaBalance = currentBalance * (deltaWeight / currentWeight)\n            deltaBalance = BalancerSafeMath.bmul(currentBalance,\n                                                 BalancerSafeMath.bdiv(deltaWeight, currentWeight));\n\n            // First gets the tokens from msg.sender to this contract (Pool Controller)\n            bool xfer = IERC20(token).transferFrom(msg.sender, address(this), deltaBalance);\n            require(xfer, \"ERR_ERC20_FALSE\");\n\n            // Now with the tokens this contract can bind them to the pool it controls\n            bPool.rebind(token, BalancerSafeMath.badd(currentBalance, deltaBalance), newWeight);\n\n            self.mintPoolShareFromLib(poolShares);\n            self.pushPoolShareFromLib(msg.sender, poolShares);\n        }\n    }\n\n    /**\n     * @notice External function called to make the contract update weights according to plan\n     * @param bPool - Core BPool the CRP is wrapping\n     * @param gradualUpdate - gradual update parameters from the CRP\n    */\n    function pokeWeights(\n        IBPool bPool,\n        GradualUpdateParams storage gradualUpdate\n    )\n        external\n    {\n        // Do nothing if we call this when there is no update plan\n        if (gradualUpdate.startBlock == 0) {\n            return;\n        }\n\n        // Error to call it before the start of the plan\n        require(block.number >= gradualUpdate.startBlock, \"ERR_CANT_POKE_YET\");\n        // Proposed error message improvement\n        // require(block.number >= startBlock, \"ERR_NO_HOKEY_POKEY\");\n\n        // This allows for pokes after endBlock that get weights to endWeights\n        // Get the current block (or the endBlock, if we're already past the end)\n        uint currentBlock;\n        if (block.number > gradualUpdate.endBlock) {\n            currentBlock = gradualUpdate.endBlock;\n        }\n        else {\n            currentBlock = block.number;\n        }\n\n        uint blockPeriod = BalancerSafeMath.bsub(gradualUpdate.endBlock, gradualUpdate.startBlock);\n        uint blocksElapsed = BalancerSafeMath.bsub(currentBlock, gradualUpdate.startBlock);\n        uint weightDelta;\n        uint deltaPerBlock;\n        uint newWeight;\n\n        address[] memory tokens = bPool.getCurrentTokens();\n\n        // This loop contains external calls\n        // External calls are to math libraries or the underlying pool, so low risk\n        for (uint i = 0; i < tokens.length; i++) {\n            // Make sure it does nothing if the new and old weights are the same (saves gas)\n            // It's a degenerate case if they're *all* the same, but you certainly could have\n            // a plan where you only change some of the weights in the set\n            if (gradualUpdate.startWeights[i] != gradualUpdate.endWeights[i]) {\n                if (gradualUpdate.endWeights[i] < gradualUpdate.startWeights[i]) {\n                    // We are decreasing the weight\n\n                    // First get the total weight delta\n                    weightDelta = BalancerSafeMath.bsub(gradualUpdate.startWeights[i],\n                                                        gradualUpdate.endWeights[i]);\n                    // And the amount it should change per block = total change/number of blocks in the period\n                    deltaPerBlock = BalancerSafeMath.bdiv(weightDelta, blockPeriod);\n                    //deltaPerBlock = bdivx(weightDelta, blockPeriod);\n\n                     // newWeight = startWeight - (blocksElapsed * deltaPerBlock)\n                    newWeight = BalancerSafeMath.bsub(gradualUpdate.startWeights[i],\n                                                      BalancerSafeMath.bmul(blocksElapsed, deltaPerBlock));\n                }\n                else {\n                    // We are increasing the weight\n\n                    // First get the total weight delta\n                    weightDelta = BalancerSafeMath.bsub(gradualUpdate.endWeights[i],\n                                                        gradualUpdate.startWeights[i]);\n                    // And the amount it should change per block = total change/number of blocks in the period\n                    deltaPerBlock = BalancerSafeMath.bdiv(weightDelta, blockPeriod);\n                    //deltaPerBlock = bdivx(weightDelta, blockPeriod);\n\n                     // newWeight = startWeight + (blocksElapsed * deltaPerBlock)\n                    newWeight = BalancerSafeMath.badd(gradualUpdate.startWeights[i],\n                                                      BalancerSafeMath.bmul(blocksElapsed, deltaPerBlock));\n                }\n\n                uint bal = bPool.getBalance(tokens[i]);\n\n                bPool.rebind(tokens[i], bal, newWeight);\n            }\n        }\n\n        // Reset to allow add/remove tokens, or manual weight updates\n        if (block.number >= gradualUpdate.endBlock) {\n            gradualUpdate.startBlock = 0;\n        }\n    }\n\n    /* solhint-enable function-max-lines */\n\n    /**\n     * @notice Schedule (commit) a token to be added; must call applyAddToken after a fixed\n     *         number of blocks to actually add the token\n     * @param bPool - Core BPool the CRP is wrapping\n     * @param token - the token to be added\n     * @param balance - how much to be added\n     * @param denormalizedWeight - the desired token weight\n     * @param newToken - NewTokenParams struct used to hold the token data (in CRP storage)\n     */\n    function commitAddToken(\n        IBPool bPool,\n        address token,\n        uint balance,\n        uint denormalizedWeight,\n        NewTokenParams storage newToken\n    )\n        external\n    {\n        require(!bPool.isBound(token), \"ERR_IS_BOUND\");\n\n        require(denormalizedWeight <= BalancerConstants.MAX_WEIGHT, \"ERR_WEIGHT_ABOVE_MAX\");\n        require(denormalizedWeight >= BalancerConstants.MIN_WEIGHT, \"ERR_WEIGHT_BELOW_MIN\");\n        require(BalancerSafeMath.badd(bPool.getTotalDenormalizedWeight(),\n                                      denormalizedWeight) <= BalancerConstants.MAX_TOTAL_WEIGHT,\n                \"ERR_MAX_TOTAL_WEIGHT\");\n        require(balance >= BalancerConstants.MIN_BALANCE, \"ERR_BALANCE_BELOW_MIN\");\n\n        newToken.addr = token;\n        newToken.balance = balance;\n        newToken.denorm = denormalizedWeight;\n        newToken.commitBlock = block.number;\n        newToken.isCommitted = true;\n    }\n\n    /**\n     * @notice Add the token previously committed (in commitAddToken) to the pool\n     * @param self - ConfigurableRightsPool instance calling the library\n     * @param bPool - Core BPool the CRP is wrapping\n     * @param addTokenTimeLockInBlocks -  Wait time between committing and applying a new token\n     * @param newToken - NewTokenParams struct used to hold the token data (in CRP storage)\n     */\n    function applyAddToken(\n        IConfigurableRightsPool self,\n        IBPool bPool,\n        uint addTokenTimeLockInBlocks,\n        NewTokenParams storage newToken\n    )\n        external\n    {\n        require(newToken.isCommitted, \"ERR_NO_TOKEN_COMMIT\");\n        require(BalancerSafeMath.bsub(block.number, newToken.commitBlock) >= addTokenTimeLockInBlocks,\n                                      \"ERR_TIMELOCK_STILL_COUNTING\");\n\n        uint totalSupply = self.totalSupply();\n\n        // poolShares = totalSupply * newTokenWeight / totalWeight\n        uint poolShares = BalancerSafeMath.bdiv(BalancerSafeMath.bmul(totalSupply, newToken.denorm),\n                                                bPool.getTotalDenormalizedWeight());\n\n        // Clear this to allow adding more tokens\n        newToken.isCommitted = false;\n\n        // First gets the tokens from msg.sender to this contract (Pool Controller)\n        bool returnValue = IERC20(newToken.addr).transferFrom(self.getController(), address(self), newToken.balance);\n        require(returnValue, \"ERR_ERC20_FALSE\");\n\n        // Now with the tokens this contract can bind them to the pool it controls\n        // Approves bPool to pull from this controller\n        // Approve unlimited, same as when creating the pool, so they can join pools later\n        returnValue = SafeApprove.safeApprove(IERC20(newToken.addr), address(bPool), BalancerConstants.MAX_UINT);\n        require(returnValue, \"ERR_ERC20_FALSE\");\n\n        bPool.bind(newToken.addr, newToken.balance, newToken.denorm);\n\n        self.mintPoolShareFromLib(poolShares);\n        self.pushPoolShareFromLib(msg.sender, poolShares);\n    }\n\n     /**\n     * @notice Remove a token from the pool\n     * @dev Logic in the CRP controls when ths can be called. There are two related permissions:\n     *      AddRemoveTokens - which allows removing down to the underlying BPool limit of two\n     *      RemoveAllTokens - which allows completely draining the pool by removing all tokens\n     *                        This can result in a non-viable pool with 0 or 1 tokens (by design),\n     *                        meaning all swapping or binding operations would fail in this state\n     * @param self - ConfigurableRightsPool instance calling the library\n     * @param bPool - Core BPool the CRP is wrapping\n     * @param token - token to remove\n     */\n    function removeToken(\n        IConfigurableRightsPool self,\n        IBPool bPool,\n        address token\n    )\n        external\n    {\n        uint totalSupply = self.totalSupply();\n\n        // poolShares = totalSupply * tokenWeight / totalWeight\n        uint poolShares = BalancerSafeMath.bdiv(BalancerSafeMath.bmul(totalSupply,\n                                                                      bPool.getDenormalizedWeight(token)),\n                                                bPool.getTotalDenormalizedWeight());\n\n        // this is what will be unbound from the pool\n        // Have to get it before unbinding\n        uint balance = bPool.getBalance(token);\n\n        // Unbind and get the tokens out of balancer pool\n        bPool.unbind(token);\n\n        // Now with the tokens this contract can send them to msg.sender\n        bool xfer = IERC20(token).transfer(self.getController(), balance);\n        require(xfer, \"ERR_ERC20_FALSE\");\n\n        self.pullPoolShareFromLib(self.getController(), poolShares);\n        self.burnPoolShareFromLib(poolShares);\n    }\n\n    /**\n     * @notice Non ERC20-conforming tokens are problematic; don't allow them in pools\n     * @dev Will revert if invalid\n     * @param token - The prospective token to verify\n     */\n    function verifyTokenCompliance(address token) external {\n        verifyTokenComplianceInternal(token);\n    }\n\n    /**\n     * @notice Non ERC20-conforming tokens are problematic; don't allow them in pools\n     * @dev Will revert if invalid - overloaded to save space in the main contract\n     * @param tokens - The prospective tokens to verify\n     */\n    function verifyTokenCompliance(address[] calldata tokens) external {\n        for (uint i = 0; i < tokens.length; i++) {\n            verifyTokenComplianceInternal(tokens[i]);\n         }\n    }\n\n    /**\n     * @notice Update weights in a predetermined way, between startBlock and endBlock,\n     *         through external cals to pokeWeights\n     * @param bPool - Core BPool the CRP is wrapping\n     * @param newWeights - final weights we want to get to\n     * @param startBlock - when weights should start to change\n     * @param endBlock - when weights will be at their final values\n     * @param minimumWeightChangeBlockPeriod - needed to validate the block period\n    */\n    function updateWeightsGradually(\n        IBPool bPool,\n        GradualUpdateParams storage gradualUpdate,\n        uint[] calldata newWeights,\n        uint startBlock,\n        uint endBlock,\n        uint minimumWeightChangeBlockPeriod\n    )\n        external\n    {\n        require(block.number < endBlock, \"ERR_GRADUAL_UPDATE_TIME_TRAVEL\");\n        \n        if (block.number > startBlock) {\n            // This means the weight update should start ASAP\n            // Moving the start block up prevents a big jump/discontinuity in the weights\n            gradualUpdate.startBlock = block.number;\n        }\n        else{\n            gradualUpdate.startBlock = startBlock;\n        }\n\n        // Enforce a minimum time over which to make the changes\n        // The also prevents endBlock <= startBlock\n        require(BalancerSafeMath.bsub(endBlock, gradualUpdate.startBlock) >= minimumWeightChangeBlockPeriod,\n                \"ERR_WEIGHT_CHANGE_TIME_BELOW_MIN\");\n\n        address[] memory tokens = bPool.getCurrentTokens();\n\n        // Must specify weights for all tokens\n        require(newWeights.length == tokens.length, \"ERR_START_WEIGHTS_MISMATCH\");\n\n        uint weightsSum = 0;\n        gradualUpdate.startWeights = new uint[](tokens.length);\n\n        // Check that endWeights are valid now to avoid reverting in a future pokeWeights call\n        //\n        // This loop contains external calls\n        // External calls are to math libraries or the underlying pool, so low risk\n        for (uint i = 0; i < tokens.length; i++) {\n            require(newWeights[i] <= BalancerConstants.MAX_WEIGHT, \"ERR_WEIGHT_ABOVE_MAX\");\n            require(newWeights[i] >= BalancerConstants.MIN_WEIGHT, \"ERR_WEIGHT_BELOW_MIN\");\n\n            weightsSum = BalancerSafeMath.badd(weightsSum, newWeights[i]);\n            gradualUpdate.startWeights[i] = bPool.getDenormalizedWeight(tokens[i]);\n        }\n        require(weightsSum <= BalancerConstants.MAX_TOTAL_WEIGHT, \"ERR_MAX_TOTAL_WEIGHT\");\n\n        gradualUpdate.endBlock = endBlock;\n        gradualUpdate.endWeights = newWeights;\n    }\n\n    /**\n     * @notice Join a pool\n     * @param self - ConfigurableRightsPool instance calling the library\n     * @param bPool - Core BPool the CRP is wrapping\n     * @param poolAmountOut - number of pool tokens to receive\n     * @param maxAmountsIn - Max amount of asset tokens to spend\n     * @return actualAmountsIn - calculated values of the tokens to pull in\n     */\n    function joinPool(\n        IConfigurableRightsPool self,\n        IBPool bPool,\n        uint poolAmountOut,\n        uint[] calldata maxAmountsIn\n    )\n         external\n         view\n         returns (uint[] memory actualAmountsIn)\n    {\n        address[] memory tokens = bPool.getCurrentTokens();\n\n        require(maxAmountsIn.length == tokens.length, \"ERR_AMOUNTS_MISMATCH\");\n\n        uint poolTotal = self.totalSupply();\n        // Subtract  1 to ensure any rounding errors favor the pool\n        uint ratio = BalancerSafeMath.bdiv(poolAmountOut,\n                                           BalancerSafeMath.bsub(poolTotal, 1));\n\n        require(ratio != 0, \"ERR_MATH_APPROX\");\n\n        // We know the length of the array; initialize it, and fill it below\n        // Cannot do \"push\" in memory\n        actualAmountsIn = new uint[](tokens.length);\n\n        // This loop contains external calls\n        // External calls are to math libraries or the underlying pool, so low risk\n        for (uint i = 0; i < tokens.length; i++) {\n            address t = tokens[i];\n            uint bal = bPool.getBalance(t);\n            // Add 1 to ensure any rounding errors favor the pool\n            uint tokenAmountIn = BalancerSafeMath.bmul(ratio,\n                                                       BalancerSafeMath.badd(bal, 1));\n\n            require(tokenAmountIn != 0, \"ERR_MATH_APPROX\");\n            require(tokenAmountIn <= maxAmountsIn[i], \"ERR_LIMIT_IN\");\n\n            actualAmountsIn[i] = tokenAmountIn;\n        }\n    }\n\n    /**\n     * @notice Exit a pool - redeem pool tokens for underlying assets\n     * @param self - ConfigurableRightsPool instance calling the library\n     * @param bPool - Core BPool the CRP is wrapping\n     * @param poolAmountIn - amount of pool tokens to redeem\n     * @param minAmountsOut - minimum amount of asset tokens to receive\n     * @return exitFee - calculated exit fee\n     * @return pAiAfterExitFee - final amount in (after accounting for exit fee)\n     * @return actualAmountsOut - calculated amounts of each token to pull\n     */\n    function exitPool(\n        IConfigurableRightsPool self,\n        IBPool bPool,\n        uint poolAmountIn,\n        uint[] calldata minAmountsOut\n    )\n        external\n        view\n        returns (uint exitFee, uint pAiAfterExitFee, uint[] memory actualAmountsOut)\n    {\n        address[] memory tokens = bPool.getCurrentTokens();\n\n        require(minAmountsOut.length == tokens.length, \"ERR_AMOUNTS_MISMATCH\");\n\n        uint poolTotal = self.totalSupply();\n\n        // Calculate exit fee and the final amount in\n        exitFee = BalancerSafeMath.bmul(poolAmountIn, BalancerConstants.EXIT_FEE);\n        pAiAfterExitFee = BalancerSafeMath.bsub(poolAmountIn, exitFee);\n\n        uint ratio = BalancerSafeMath.bdiv(pAiAfterExitFee,\n                                           BalancerSafeMath.badd(poolTotal, 1));\n\n        require(ratio != 0, \"ERR_MATH_APPROX\");\n\n        actualAmountsOut = new uint[](tokens.length);\n\n        // This loop contains external calls\n        // External calls are to math libraries or the underlying pool, so low risk\n        for (uint i = 0; i < tokens.length; i++) {\n            address t = tokens[i];\n            uint bal = bPool.getBalance(t);\n            // Subtract 1 to ensure any rounding errors favor the pool\n            uint tokenAmountOut = BalancerSafeMath.bmul(ratio,\n                                                        BalancerSafeMath.bsub(bal, 1));\n\n            require(tokenAmountOut != 0, \"ERR_MATH_APPROX\");\n            require(tokenAmountOut >= minAmountsOut[i], \"ERR_LIMIT_OUT\");\n\n            actualAmountsOut[i] = tokenAmountOut;\n        }\n    }\n\n    /**\n     * @notice Join by swapping a fixed amount of an external token in (must be present in the pool)\n     *         System calculates the pool token amount\n     * @param self - ConfigurableRightsPool instance calling the library\n     * @param bPool - Core BPool the CRP is wrapping\n     * @param tokenIn - which token we're transferring in\n     * @param tokenAmountIn - amount of deposit\n     * @param minPoolAmountOut - minimum of pool tokens to receive\n     * @return poolAmountOut - amount of pool tokens minted and transferred\n     */\n    function joinswapExternAmountIn(\n        IConfigurableRightsPool self,\n        IBPool bPool,\n        address tokenIn,\n        uint tokenAmountIn,\n        uint minPoolAmountOut\n    )\n        external\n        view\n        returns (uint poolAmountOut)\n    {\n        require(bPool.isBound(tokenIn), \"ERR_NOT_BOUND\");\n        require(tokenAmountIn <= BalancerSafeMath.bmul(bPool.getBalance(tokenIn),\n                                                       BalancerConstants.MAX_IN_RATIO),\n                                                       \"ERR_MAX_IN_RATIO\");\n\n        poolAmountOut = bPool.calcPoolOutGivenSingleIn(\n                            bPool.getBalance(tokenIn),\n                            bPool.getDenormalizedWeight(tokenIn),\n                            self.totalSupply(),\n                            bPool.getTotalDenormalizedWeight(),\n                            tokenAmountIn,\n                            bPool.getSwapFee()\n                        );\n\n        require(poolAmountOut >= minPoolAmountOut, \"ERR_LIMIT_OUT\");\n    }\n\n    /**\n     * @notice Join by swapping an external token in (must be present in the pool)\n     *         To receive an exact amount of pool tokens out. System calculates the deposit amount\n     * @param self - ConfigurableRightsPool instance calling the library\n     * @param bPool - Core BPool the CRP is wrapping\n     * @param tokenIn - which token we're transferring in (system calculates amount required)\n     * @param poolAmountOut - amount of pool tokens to be received\n     * @param maxAmountIn - Maximum asset tokens that can be pulled to pay for the pool tokens\n     * @return tokenAmountIn - amount of asset tokens transferred in to purchase the pool tokens\n     */\n    function joinswapPoolAmountOut(\n        IConfigurableRightsPool self,\n        IBPool bPool,\n        address tokenIn,\n        uint poolAmountOut,\n        uint maxAmountIn\n    )\n        external\n        view\n        returns (uint tokenAmountIn)\n    {\n        require(bPool.isBound(tokenIn), \"ERR_NOT_BOUND\");\n\n        tokenAmountIn = bPool.calcSingleInGivenPoolOut(\n                            bPool.getBalance(tokenIn),\n                            bPool.getDenormalizedWeight(tokenIn),\n                            self.totalSupply(),\n                            bPool.getTotalDenormalizedWeight(),\n                            poolAmountOut,\n                            bPool.getSwapFee()\n                        );\n\n        require(tokenAmountIn != 0, \"ERR_MATH_APPROX\");\n        require(tokenAmountIn <= maxAmountIn, \"ERR_LIMIT_IN\");\n\n        require(tokenAmountIn <= BalancerSafeMath.bmul(bPool.getBalance(tokenIn),\n                                                       BalancerConstants.MAX_IN_RATIO),\n                                                       \"ERR_MAX_IN_RATIO\");\n    }\n\n    /**\n     * @notice Exit a pool - redeem a specific number of pool tokens for an underlying asset\n     *         Asset must be present in the pool, and will incur an EXIT_FEE (if set to non-zero)\n     * @param self - ConfigurableRightsPool instance calling the library\n     * @param bPool - Core BPool the CRP is wrapping\n     * @param tokenOut - which token the caller wants to receive\n     * @param poolAmountIn - amount of pool tokens to redeem\n     * @param minAmountOut - minimum asset tokens to receive\n     * @return exitFee - calculated exit fee\n     * @return tokenAmountOut - amount of asset tokens returned\n     */\n    function exitswapPoolAmountIn(\n        IConfigurableRightsPool self,\n        IBPool bPool,\n        address tokenOut,\n        uint poolAmountIn,\n        uint minAmountOut\n    )\n        external\n        view\n        returns (uint exitFee, uint tokenAmountOut)\n    {\n        require(bPool.isBound(tokenOut), \"ERR_NOT_BOUND\");\n\n        tokenAmountOut = bPool.calcSingleOutGivenPoolIn(\n                            bPool.getBalance(tokenOut),\n                            bPool.getDenormalizedWeight(tokenOut),\n                            self.totalSupply(),\n                            bPool.getTotalDenormalizedWeight(),\n                            poolAmountIn,\n                            bPool.getSwapFee()\n                        );\n\n        require(tokenAmountOut >= minAmountOut, \"ERR_LIMIT_OUT\");\n        require(tokenAmountOut <= BalancerSafeMath.bmul(bPool.getBalance(tokenOut),\n                                                        BalancerConstants.MAX_OUT_RATIO),\n                                                        \"ERR_MAX_OUT_RATIO\");\n\n        exitFee = BalancerSafeMath.bmul(poolAmountIn, BalancerConstants.EXIT_FEE);\n    }\n\n    /**\n     * @notice Exit a pool - redeem pool tokens for a specific amount of underlying assets\n     *         Asset must be present in the pool\n     * @param self - ConfigurableRightsPool instance calling the library\n     * @param bPool - Core BPool the CRP is wrapping\n     * @param tokenOut - which token the caller wants to receive\n     * @param tokenAmountOut - amount of underlying asset tokens to receive\n     * @param maxPoolAmountIn - maximum pool tokens to be redeemed\n     * @return exitFee - calculated exit fee\n     * @return poolAmountIn - amount of pool tokens redeemed\n     */\n    function exitswapExternAmountOut(\n        IConfigurableRightsPool self,\n        IBPool bPool,\n        address tokenOut,\n        uint tokenAmountOut,\n        uint maxPoolAmountIn\n    )\n        external\n        view\n        returns (uint exitFee, uint poolAmountIn)\n    {\n        require(bPool.isBound(tokenOut), \"ERR_NOT_BOUND\");\n        require(tokenAmountOut <= BalancerSafeMath.bmul(bPool.getBalance(tokenOut),\n                                                        BalancerConstants.MAX_OUT_RATIO),\n                                                        \"ERR_MAX_OUT_RATIO\");\n        poolAmountIn = bPool.calcPoolInGivenSingleOut(\n                            bPool.getBalance(tokenOut),\n                            bPool.getDenormalizedWeight(tokenOut),\n                            self.totalSupply(),\n                            bPool.getTotalDenormalizedWeight(),\n                            tokenAmountOut,\n                            bPool.getSwapFee()\n                        );\n\n        require(poolAmountIn != 0, \"ERR_MATH_APPROX\");\n        require(poolAmountIn <= maxPoolAmountIn, \"ERR_LIMIT_IN\");\n\n        exitFee = BalancerSafeMath.bmul(poolAmountIn, BalancerConstants.EXIT_FEE);\n    }\n\n    // Internal functions\n\n    // Check for zero transfer, and make sure it returns true to returnValue\n    function verifyTokenComplianceInternal(address token) internal {\n        bool returnValue = IERC20(token).transfer(msg.sender, 0);\n        require(returnValue, \"ERR_NONCONFORMING_TOKEN\");\n    }\n}\n",
  "sourcePath": "/Users/arseny/Projects/primeDAO/configurable-rights-pool/libraries/SmartPoolManager.sol",
  "compiler": {
    "name": "solc",
    "version": "0.6.12+commit.27d51765.Emscripten.clang"
  },
  "schemaVersion": "3.2.4",
  "updatedAt": "2020-11-12T16:41:28.689Z",
  "networkType": "ethereum",
  "devdoc": {
    "author": "Balancer Labs",
    "kind": "dev",
    "methods": {
      "applyAddToken(IConfigurableRightsPool,IBPool,uint256,SmartPoolManager.NewTokenParams storage)": {
        "params": {
          "addTokenTimeLockInBlocks": "-  Wait time between committing and applying a new token",
          "bPool": "- Core BPool the CRP is wrapping",
          "newToken": "- NewTokenParams struct used to hold the token data (in CRP storage)",
          "self": "- ConfigurableRightsPool instance calling the library"
        }
      },
      "commitAddToken(IBPool,address,uint256,uint256,SmartPoolManager.NewTokenParams storage)": {
        "params": {
          "bPool": "- Core BPool the CRP is wrapping",
          "balance": "- how much to be added",
          "denormalizedWeight": "- the desired token weight",
          "newToken": "- NewTokenParams struct used to hold the token data (in CRP storage)",
          "token": "- the token to be added"
        }
      },
      "exitPool(IConfigurableRightsPool,IBPool,uint256,uint256[])": {
        "params": {
          "bPool": "- Core BPool the CRP is wrapping",
          "minAmountsOut": "- minimum amount of asset tokens to receive",
          "poolAmountIn": "- amount of pool tokens to redeem",
          "self": "- ConfigurableRightsPool instance calling the library"
        },
        "returns": {
          "actualAmountsOut": "- calculated amounts of each token to pull",
          "exitFee": "- calculated exit fee",
          "pAiAfterExitFee": "- final amount in (after accounting for exit fee)"
        }
      },
      "exitswapExternAmountOut(IConfigurableRightsPool,IBPool,address,uint256,uint256)": {
        "params": {
          "bPool": "- Core BPool the CRP is wrapping",
          "maxPoolAmountIn": "- maximum pool tokens to be redeemed",
          "self": "- ConfigurableRightsPool instance calling the library",
          "tokenAmountOut": "- amount of underlying asset tokens to receive",
          "tokenOut": "- which token the caller wants to receive"
        },
        "returns": {
          "exitFee": "- calculated exit fee",
          "poolAmountIn": "- amount of pool tokens redeemed"
        }
      },
      "exitswapPoolAmountIn(IConfigurableRightsPool,IBPool,address,uint256,uint256)": {
        "params": {
          "bPool": "- Core BPool the CRP is wrapping",
          "minAmountOut": "- minimum asset tokens to receive",
          "poolAmountIn": "- amount of pool tokens to redeem",
          "self": "- ConfigurableRightsPool instance calling the library",
          "tokenOut": "- which token the caller wants to receive"
        },
        "returns": {
          "exitFee": "- calculated exit fee",
          "tokenAmountOut": "- amount of asset tokens returned"
        }
      },
      "joinPool(IConfigurableRightsPool,IBPool,uint256,uint256[])": {
        "params": {
          "bPool": "- Core BPool the CRP is wrapping",
          "maxAmountsIn": "- Max amount of asset tokens to spend",
          "poolAmountOut": "- number of pool tokens to receive",
          "self": "- ConfigurableRightsPool instance calling the library"
        },
        "returns": {
          "actualAmountsIn": "- calculated values of the tokens to pull in"
        }
      },
      "joinswapExternAmountIn(IConfigurableRightsPool,IBPool,address,uint256,uint256)": {
        "params": {
          "bPool": "- Core BPool the CRP is wrapping",
          "minPoolAmountOut": "- minimum of pool tokens to receive",
          "self": "- ConfigurableRightsPool instance calling the library",
          "tokenAmountIn": "- amount of deposit",
          "tokenIn": "- which token we're transferring in"
        },
        "returns": {
          "poolAmountOut": "- amount of pool tokens minted and transferred"
        }
      },
      "joinswapPoolAmountOut(IConfigurableRightsPool,IBPool,address,uint256,uint256)": {
        "params": {
          "bPool": "- Core BPool the CRP is wrapping",
          "maxAmountIn": "- Maximum asset tokens that can be pulled to pay for the pool tokens",
          "poolAmountOut": "- amount of pool tokens to be received",
          "self": "- ConfigurableRightsPool instance calling the library",
          "tokenIn": "- which token we're transferring in (system calculates amount required)"
        },
        "returns": {
          "tokenAmountIn": "- amount of asset tokens transferred in to purchase the pool tokens"
        }
      },
      "pokeWeights(IBPool,SmartPoolManager.GradualUpdateParams storage)": {
        "params": {
          "bPool": "- Core BPool the CRP is wrapping",
          "gradualUpdate": "- gradual update parameters from the CRP"
        }
      },
      "removeToken(IConfigurableRightsPool,IBPool,address)": {
        "details": "Logic in the CRP controls when ths can be called. There are two related permissions:      AddRemoveTokens - which allows removing down to the underlying BPool limit of two      RemoveAllTokens - which allows completely draining the pool by removing all tokens                        This can result in a non-viable pool with 0 or 1 tokens (by design),                        meaning all swapping or binding operations would fail in this state",
        "params": {
          "bPool": "- Core BPool the CRP is wrapping",
          "self": "- ConfigurableRightsPool instance calling the library",
          "token": "- token to remove"
        }
      },
      "updateWeight(IConfigurableRightsPool,IBPool,address,uint256)": {
        "details": "Refactored to library to make CRPFactory deployable",
        "params": {
          "bPool": "- Core BPool the CRP is wrapping",
          "newWeight": "- new weight of the token",
          "self": "- ConfigurableRightsPool instance calling the library",
          "token": "- token to be reweighted"
        }
      },
      "updateWeightsGradually(IBPool,SmartPoolManager.GradualUpdateParams storage,uint256[],uint256,uint256,uint256)": {
        "params": {
          "bPool": "- Core BPool the CRP is wrapping",
          "endBlock": "- when weights will be at their final values",
          "minimumWeightChangeBlockPeriod": "- needed to validate the block period",
          "newWeights": "- final weights we want to get to",
          "startBlock": "- when weights should start to change"
        }
      },
      "verifyTokenCompliance(address)": {
        "details": "Will revert if invalid",
        "params": {
          "token": "- The prospective token to verify"
        }
      },
      "verifyTokenCompliance(address[])": {
        "details": "Will revert if invalid - overloaded to save space in the main contract",
        "params": {
          "tokens": "- The prospective tokens to verify"
        }
      }
    },
    "title": "Factor out the weight updates",
    "version": 1
  },
  "userdoc": {
    "kind": "user",
    "methods": {
      "applyAddToken(IConfigurableRightsPool,IBPool,uint256,SmartPoolManager.NewTokenParams storage)": {
        "notice": "Add the token previously committed (in commitAddToken) to the pool"
      },
      "commitAddToken(IBPool,address,uint256,uint256,SmartPoolManager.NewTokenParams storage)": {
        "notice": "Schedule (commit) a token to be added; must call applyAddToken after a fixed         number of blocks to actually add the token"
      },
      "exitPool(IConfigurableRightsPool,IBPool,uint256,uint256[])": {
        "notice": "Exit a pool - redeem pool tokens for underlying assets"
      },
      "exitswapExternAmountOut(IConfigurableRightsPool,IBPool,address,uint256,uint256)": {
        "notice": "Exit a pool - redeem pool tokens for a specific amount of underlying assets         Asset must be present in the pool"
      },
      "exitswapPoolAmountIn(IConfigurableRightsPool,IBPool,address,uint256,uint256)": {
        "notice": "Exit a pool - redeem a specific number of pool tokens for an underlying asset         Asset must be present in the pool, and will incur an EXIT_FEE (if set to non-zero)"
      },
      "joinPool(IConfigurableRightsPool,IBPool,uint256,uint256[])": {
        "notice": "Join a pool"
      },
      "joinswapExternAmountIn(IConfigurableRightsPool,IBPool,address,uint256,uint256)": {
        "notice": "Join by swapping a fixed amount of an external token in (must be present in the pool)         System calculates the pool token amount"
      },
      "joinswapPoolAmountOut(IConfigurableRightsPool,IBPool,address,uint256,uint256)": {
        "notice": "Join by swapping an external token in (must be present in the pool)         To receive an exact amount of pool tokens out. System calculates the deposit amount"
      },
      "pokeWeights(IBPool,SmartPoolManager.GradualUpdateParams storage)": {
        "notice": "External function called to make the contract update weights according to plan"
      },
      "removeToken(IConfigurableRightsPool,IBPool,address)": {
        "notice": "Remove a token from the pool"
      },
      "updateWeight(IConfigurableRightsPool,IBPool,address,uint256)": {
        "notice": "Update the weight of an existing token"
      },
      "updateWeightsGradually(IBPool,SmartPoolManager.GradualUpdateParams storage,uint256[],uint256,uint256,uint256)": {
        "notice": "Update weights in a predetermined way, between startBlock and endBlock,         through external cals to pokeWeights"
      },
      "verifyTokenCompliance(address)": {
        "notice": "Non ERC20-conforming tokens are problematic; don't allow them in pools"
      },
      "verifyTokenCompliance(address[])": {
        "notice": "Non ERC20-conforming tokens are problematic; don't allow them in pools"
      }
    },
    "version": 1
  }
}