{
  "contractName": "StakingRewards",
  "abi": [
    {
      "anonymous": false,
      "inputs": [
        {
          "indexed": true,
          "internalType": "address",
          "name": "previousOwner",
          "type": "address"
        },
        {
          "indexed": true,
          "internalType": "address",
          "name": "newOwner",
          "type": "address"
        }
      ],
      "name": "OwnershipTransferred",
      "type": "event"
    },
    {
      "anonymous": false,
      "inputs": [
        {
          "indexed": false,
          "internalType": "uint256",
          "name": "reward",
          "type": "uint256"
        }
      ],
      "name": "RewardAdded",
      "type": "event"
    },
    {
      "anonymous": false,
      "inputs": [
        {
          "indexed": true,
          "internalType": "address",
          "name": "user",
          "type": "address"
        },
        {
          "indexed": false,
          "internalType": "uint256",
          "name": "reward",
          "type": "uint256"
        }
      ],
      "name": "RewardPaid",
      "type": "event"
    },
    {
      "anonymous": false,
      "inputs": [
        {
          "indexed": true,
          "internalType": "address",
          "name": "user",
          "type": "address"
        },
        {
          "indexed": false,
          "internalType": "uint256",
          "name": "amount",
          "type": "uint256"
        }
      ],
      "name": "Staked",
      "type": "event"
    },
    {
      "anonymous": false,
      "inputs": [
        {
          "indexed": true,
          "internalType": "address",
          "name": "user",
          "type": "address"
        },
        {
          "indexed": false,
          "internalType": "uint256",
          "name": "amount",
          "type": "uint256"
        }
      ],
      "name": "Withdrawn",
      "type": "event"
    },
    {
      "constant": true,
      "inputs": [],
      "name": "duration",
      "outputs": [
        {
          "internalType": "uint256",
          "name": "",
          "type": "uint256"
        }
      ],
      "payable": false,
      "stateMutability": "view",
      "type": "function"
    },
    {
      "constant": true,
      "inputs": [],
      "name": "initialized",
      "outputs": [
        {
          "internalType": "bool",
          "name": "",
          "type": "bool"
        }
      ],
      "payable": false,
      "stateMutability": "view",
      "type": "function"
    },
    {
      "constant": true,
      "inputs": [],
      "name": "initreward",
      "outputs": [
        {
          "internalType": "uint256",
          "name": "",
          "type": "uint256"
        }
      ],
      "payable": false,
      "stateMutability": "view",
      "type": "function"
    },
    {
      "constant": true,
      "inputs": [],
      "name": "isOwner",
      "outputs": [
        {
          "internalType": "bool",
          "name": "",
          "type": "bool"
        }
      ],
      "payable": false,
      "stateMutability": "view",
      "type": "function"
    },
    {
      "constant": true,
      "inputs": [],
      "name": "lastUpdateTime",
      "outputs": [
        {
          "internalType": "uint256",
          "name": "",
          "type": "uint256"
        }
      ],
      "payable": false,
      "stateMutability": "view",
      "type": "function"
    },
    {
      "constant": true,
      "inputs": [],
      "name": "name",
      "outputs": [
        {
          "internalType": "string",
          "name": "",
          "type": "string"
        }
      ],
      "payable": false,
      "stateMutability": "view",
      "type": "function"
    },
    {
      "constant": true,
      "inputs": [],
      "name": "owner",
      "outputs": [
        {
          "internalType": "address",
          "name": "",
          "type": "address"
        }
      ],
      "payable": false,
      "stateMutability": "view",
      "type": "function"
    },
    {
      "constant": true,
      "inputs": [],
      "name": "periodFinish",
      "outputs": [
        {
          "internalType": "uint256",
          "name": "",
          "type": "uint256"
        }
      ],
      "payable": false,
      "stateMutability": "view",
      "type": "function"
    },
    {
      "constant": false,
      "inputs": [],
      "name": "renounceOwnership",
      "outputs": [],
      "payable": false,
      "stateMutability": "nonpayable",
      "type": "function"
    },
    {
      "constant": true,
      "inputs": [],
      "name": "rewardPerTokenStored",
      "outputs": [
        {
          "internalType": "uint256",
          "name": "",
          "type": "uint256"
        }
      ],
      "payable": false,
      "stateMutability": "view",
      "type": "function"
    },
    {
      "constant": true,
      "inputs": [],
      "name": "rewardRate",
      "outputs": [
        {
          "internalType": "uint256",
          "name": "",
          "type": "uint256"
        }
      ],
      "payable": false,
      "stateMutability": "view",
      "type": "function"
    },
    {
      "constant": true,
      "inputs": [],
      "name": "rewardToken",
      "outputs": [
        {
          "internalType": "address",
          "name": "",
          "type": "address"
        }
      ],
      "payable": false,
      "stateMutability": "view",
      "type": "function"
    },
    {
      "constant": true,
      "inputs": [
        {
          "internalType": "address",
          "name": "",
          "type": "address"
        }
      ],
      "name": "rewards",
      "outputs": [
        {
          "internalType": "uint256",
          "name": "",
          "type": "uint256"
        }
      ],
      "payable": false,
      "stateMutability": "view",
      "type": "function"
    },
    {
      "constant": false,
      "inputs": [
        {
          "internalType": "address",
          "name": "_rewardDistribution",
          "type": "address"
        }
      ],
      "name": "setRewardDistribution",
      "outputs": [],
      "payable": false,
      "stateMutability": "nonpayable",
      "type": "function"
    },
    {
      "constant": true,
      "inputs": [],
      "name": "stakingToken",
      "outputs": [
        {
          "internalType": "address",
          "name": "",
          "type": "address"
        }
      ],
      "payable": false,
      "stateMutability": "view",
      "type": "function"
    },
    {
      "constant": true,
      "inputs": [],
      "name": "starttime",
      "outputs": [
        {
          "internalType": "uint256",
          "name": "",
          "type": "uint256"
        }
      ],
      "payable": false,
      "stateMutability": "view",
      "type": "function"
    },
    {
      "constant": false,
      "inputs": [
        {
          "internalType": "address",
          "name": "newOwner",
          "type": "address"
        }
      ],
      "name": "transferOwnership",
      "outputs": [],
      "payable": false,
      "stateMutability": "nonpayable",
      "type": "function"
    },
    {
      "constant": true,
      "inputs": [
        {
          "internalType": "address",
          "name": "",
          "type": "address"
        }
      ],
      "name": "userRewardPerTokenPaid",
      "outputs": [
        {
          "internalType": "uint256",
          "name": "",
          "type": "uint256"
        }
      ],
      "payable": false,
      "stateMutability": "view",
      "type": "function"
    },
    {
      "constant": false,
      "inputs": [
        {
          "internalType": "string",
          "name": "_name",
          "type": "string"
        },
        {
          "internalType": "address",
          "name": "_rewardToken",
          "type": "address"
        },
        {
          "internalType": "address",
          "name": "_stakingToken",
          "type": "address"
        },
        {
          "internalType": "uint256",
          "name": "_initreward",
          "type": "uint256"
        },
        {
          "internalType": "uint256",
          "name": "_starttime",
          "type": "uint256"
        },
        {
          "internalType": "uint256",
          "name": "_duration",
          "type": "uint256"
        },
        {
          "internalType": "address",
          "name": "_avatar",
          "type": "address"
        }
      ],
      "name": "initialize",
      "outputs": [],
      "payable": false,
      "stateMutability": "nonpayable",
      "type": "function"
    },
    {
      "constant": false,
      "inputs": [
        {
          "internalType": "uint256",
          "name": "reward",
          "type": "uint256"
        }
      ],
      "name": "notifyRewardAmount",
      "outputs": [],
      "payable": false,
      "stateMutability": "nonpayable",
      "type": "function"
    },
    {
      "constant": false,
      "inputs": [
        {
          "internalType": "address",
          "name": "_token",
          "type": "address"
        },
        {
          "internalType": "uint256",
          "name": "amount",
          "type": "uint256"
        },
        {
          "internalType": "address",
          "name": "to",
          "type": "address"
        }
      ],
      "name": "rescueTokens",
      "outputs": [],
      "payable": false,
      "stateMutability": "nonpayable",
      "type": "function"
    },
    {
      "constant": false,
      "inputs": [],
      "name": "exit",
      "outputs": [],
      "payable": false,
      "stateMutability": "nonpayable",
      "type": "function"
    },
    {
      "constant": true,
      "inputs": [],
      "name": "lastTimeRewardApplicable",
      "outputs": [
        {
          "internalType": "uint256",
          "name": "",
          "type": "uint256"
        }
      ],
      "payable": false,
      "stateMutability": "view",
      "type": "function"
    },
    {
      "constant": true,
      "inputs": [],
      "name": "isActive",
      "outputs": [
        {
          "internalType": "bool",
          "name": "",
          "type": "bool"
        }
      ],
      "payable": false,
      "stateMutability": "view",
      "type": "function"
    },
    {
      "constant": true,
      "inputs": [],
      "name": "rewardPerToken",
      "outputs": [
        {
          "internalType": "uint256",
          "name": "",
          "type": "uint256"
        }
      ],
      "payable": false,
      "stateMutability": "view",
      "type": "function"
    },
    {
      "constant": true,
      "inputs": [
        {
          "internalType": "address",
          "name": "account",
          "type": "address"
        }
      ],
      "name": "earned",
      "outputs": [
        {
          "internalType": "uint256",
          "name": "",
          "type": "uint256"
        }
      ],
      "payable": false,
      "stateMutability": "view",
      "type": "function"
    },
    {
      "constant": false,
      "inputs": [
        {
          "internalType": "uint256",
          "name": "amount",
          "type": "uint256"
        }
      ],
      "name": "stake",
      "outputs": [],
      "payable": false,
      "stateMutability": "nonpayable",
      "type": "function"
    },
    {
      "constant": false,
      "inputs": [
        {
          "internalType": "uint256",
          "name": "amount",
          "type": "uint256"
        }
      ],
      "name": "withdraw",
      "outputs": [],
      "payable": false,
      "stateMutability": "nonpayable",
      "type": "function"
    },
    {
      "constant": false,
      "inputs": [],
      "name": "getReward",
      "outputs": [],
      "payable": false,
      "stateMutability": "nonpayable",
      "type": "function"
    },
    {
      "constant": true,
      "inputs": [],
      "name": "totalSupply",
      "outputs": [
        {
          "internalType": "uint256",
          "name": "",
          "type": "uint256"
        }
      ],
      "payable": false,
      "stateMutability": "view",
      "type": "function"
    },
    {
      "constant": true,
      "inputs": [
        {
          "internalType": "address",
          "name": "account",
          "type": "address"
        }
      ],
      "name": "balanceOf",
      "outputs": [
        {
          "internalType": "uint256",
          "name": "",
          "type": "uint256"
        }
      ],
      "payable": false,
      "stateMutability": "view",
      "type": "function"
    }
  ],
  "bytecode": "0x608060405260006100176001600160e01b0361008a16565b600080546001600160a01b0319166001600160a01b0383169081178255604051929350917f8be0079c531659141344cd1fd0a4f28419497f9722a3daafe3b4186f6b6457e0908290a3506001805460ff60a01b19167401000000000000000000000000000000000000000017905561008e565b3390565b611f318061009d6000396000f3fe608060405234801561001057600080fd5b50600436106101e45760003560e01c806380faa57d1161010f578063c8f33c91116100a2578063e9fad8ee11610071578063e9fad8ee14610510578063ebe2b12b14610518578063f2fde38b14610520578063f7c618c114610546576101e4565b8063c8f33c911461045d578063cd3daf9d14610465578063df136d651461046d578063df9f2eff14610475576101e4565b80638f32d59b116100de5780638f32d59b146103fa5780639c907b5814610402578063a694fc3a1461040a578063b37fd19014610427576101e4565b806380faa57d146103bc5780638b876347146103c45780638da58897146103ea5780638da5cb5b146103f2576101e4565b806322f3e2d41161018757806370a082311161015657806370a0823114610362578063715018a61461038857806372f702f3146103905780637b0a47ee146103b4576101e4565b806322f3e2d4146103185780632e1a7d4d146103205780633c6b16ab1461033d5780633d18b9121461035a576101e4565b80630d68b761116101c35780630d68b761146102c45780630fb5a6b4146102ec578063158ef93e146102f457806318160ddd14610310576101e4565b80628cc262146101e957806306fdde03146102215780630700037d1461029e575b600080fd5b61020f600480360360208110156101ff57600080fd5b50356001600160a01b031661054e565b60408051918252519081900360200190f35b6102296105e4565b6040805160208082528351818301528351919283929083019185019080838360005b8381101561026357818101518382015260200161024b565b50505050905090810190601f1680156102905780820380516001836020036101000a031916815260200191505b509250505060405180910390f35b61020f600480360360208110156102b457600080fd5b50356001600160a01b031661066f565b6102ea600480360360208110156102da57600080fd5b50356001600160a01b0316610681565b005b61020f6106fc565b6102fc610702565b604080519115158252519081900360200190f35b61020f610712565b6102fc610719565b6102ea6004803603602081101561033657600080fd5b5035610737565b6102ea6004803603602081101561035357600080fd5b503561092d565b6102ea610bc0565b61020f6004803603602081101561037857600080fd5b50356001600160a01b0316610dab565b6102ea610dc6565b610398610e69565b604080516001600160a01b039092168252519081900360200190f35b61020f610e78565b61020f610e7e565b61020f600480360360208110156103da57600080fd5b50356001600160a01b0316610e91565b61020f610ea3565b610398610ea9565b6102fc610eb8565b61020f610edc565b6102ea6004803603602081101561042057600080fd5b5035610ee2565b6102ea6004803603606081101561043d57600080fd5b506001600160a01b038135811691602081013591604090910135166110ee565b61020f611274565b61020f61127a565b61020f6112d4565b6102ea600480360360e081101561048b57600080fd5b8101906020810181356401000000008111156104a657600080fd5b8201836020820111156104b857600080fd5b803590602001918460018302840111640100000000831117156104da57600080fd5b91935091506001600160a01b038135811691602081013582169160408201359160608101359160808201359160a00135166112da565b6102ea6114d6565b61020f6114f9565b6102ea6004803603602081101561053657600080fd5b50356001600160a01b03166114ff565b610398611564565b6001600160a01b0381166000908152600d6020908152604080832054600c9092528220546105de91906105d290670de0b6b3a7640000906105c6906105a19061059561127a565b9063ffffffff61157316565b6001600160a01b0388166000908152600f60205260409020549063ffffffff6115bc16565b9063ffffffff61161516565b9063ffffffff61165716565b92915050565b6002805460408051602060018416156101000260001901909316849004601f810184900484028201840190925281815292918301828280156106675780601f1061063c57610100808354040283529160200191610667565b820191906000526020600020905b81548152906001019060200180831161064a57829003601f168201915b505050505081565b600d6020526000908152604090205481565b610689610eb8565b6106da576040805162461bcd60e51b815260206004820181905260248201527f4f776e61626c653a2063616c6c6572206973206e6f7420746865206f776e6572604482015290519081900360640190fd5b600180546001600160a01b0319166001600160a01b0392909216919091179055565b60055481565b600454600160a01b900460ff1681565b600e545b90565b6000806107314260085461157390919063ffffffff16565b11905090565b600154600160a01b900460ff16610795576040805162461bcd60e51b815260206004820152601f60248201527f5265656e7472616e637947756172643a207265656e7472616e742063616c6c00604482015290519081900360640190fd5b6001805460ff60a01b19169055336107ab61127a565b600b556107b6610e7e565b600a556001600160a01b038116156107fd576107d18161054e565b6001600160a01b0382166000908152600d6020908152604080832093909355600b54600c909152919020555b600454600160a01b900460ff166108455760405162461bcd60e51b8152600401808060200182810382526028815260200180611d516028913960400191505060405180910390fd5b600754421015610898576040805162461bcd60e51b815260206004820152601960248201527814dd185ada5b99d4995dd85c991cce881b9bdd081cdd185c9d603a1b604482015290519081900360640190fd5b600082116108d75760405162461bcd60e51b8152600401808060200182810382526021815260200180611d796021913960400191505060405180910390fd5b6108e0826116b1565b60408051838152905133917f7084f5476618d8e60b11ef0d7d3f06914655adb8793e28ff7f018d4c76d505d5919081900360200190a250506001805460ff60a01b1916600160a01b179055565b600454600160a01b900460ff166109755760405162461bcd60e51b8152600401808060200182810382526028815260200180611d516028913960400191505060405180910390fd5b6001546001600160a01b0316610989611713565b6001600160a01b0316146109ce5760405162461bcd60e51b8152600401808060200182810382526021815260200180611e8c6021913960400191505060405180910390fd5b60006109d861127a565b600b556109e3610e7e565b600a556001600160a01b03811615610a2a576109fe8161054e565b6001600160a01b0382166000908152600d6020908152604080832093909355600b54600c909152919020555b6008544210610a4f57600554610a4790839063ffffffff61161516565b600955610a9e565b600854600090610a65904263ffffffff61157316565b90506000610a7e600954836115bc90919063ffffffff16565b600554909150610a98906105c6868463ffffffff61165716565b60095550505b600354604080516370a0823160e01b815230600482015290516000926001600160a01b0316916370a08231916024808301926020929190829003018186803b158015610ae957600080fd5b505afa158015610afd573d6000803e3d6000fd5b505050506040513d6020811015610b1357600080fd5b5051600554909150610b2c90829063ffffffff61161516565b6009541115610b6c5760405162461bcd60e51b8152600401808060200182810382526028815260200180611ed56028913960400191505060405180910390fd5b42600a819055600554610b85919063ffffffff61165716565b6008556040805184815290517fde88a922e0d3b88b24e9623efeb464919c6bf9f66857a65e2bfcf2ce87a9433d9181900360200190a1505050565b600154600160a01b900460ff16610c1e576040805162461bcd60e51b815260206004820152601f60248201527f5265656e7472616e637947756172643a207265656e7472616e742063616c6c00604482015290519081900360640190fd5b6001805460ff60a01b1916905533610c3461127a565b600b55610c3f610e7e565b600a556001600160a01b03811615610c8657610c5a8161054e565b6001600160a01b0382166000908152600d6020908152604080832093909355600b54600c909152919020555b600454600160a01b900460ff16610cce5760405162461bcd60e51b8152600401808060200182810382526028815260200180611d516028913960400191505060405180910390fd5b600754421015610d21576040805162461bcd60e51b815260206004820152601960248201527814dd185ada5b99d4995dd85c991cce881b9bdd081cdd185c9d603a1b604482015290519081900360640190fd5b6000610d2c3361054e565b90508015610d9457336000818152600d6020526040812055600354610d5d916001600160a01b039091169083611717565b60408051828152905133917fe2403640ba68fed3a2f88b7557551d1993f84b99bb10ff833f0cf8db0c5e0486919081900360200190a25b50506001805460ff60a01b1916600160a01b179055565b6001600160a01b03166000908152600f602052604090205490565b610dce610eb8565b610e1f576040805162461bcd60e51b815260206004820181905260248201527f4f776e61626c653a2063616c6c6572206973206e6f7420746865206f776e6572604482015290519081900360640190fd5b600080546040516001600160a01b03909116907f8be0079c531659141344cd1fd0a4f28419497f9722a3daafe3b4186f6b6457e0908390a3600080546001600160a01b0319169055565b6004546001600160a01b031681565b60095481565b6000610e8c42600854611899565b905090565b600c6020526000908152604090205481565b60075481565b6000546001600160a01b031690565b600080546001600160a01b0316610ecd611713565b6001600160a01b031614905090565b60065481565b600154600160a01b900460ff16610f40576040805162461bcd60e51b815260206004820152601f60248201527f5265656e7472616e637947756172643a207265656e7472616e742063616c6c00604482015290519081900360640190fd5b6001805460ff60a01b1916905533610f5661127a565b600b55610f61610e7e565b600a556001600160a01b03811615610fa857610f7c8161054e565b6001600160a01b0382166000908152600d6020908152604080832093909355600b54600c909152919020555b600454600160a01b900460ff16610ff05760405162461bcd60e51b8152600401808060200182810382526028815260200180611d516028913960400191505060405180910390fd5b600754421015611043576040805162461bcd60e51b815260206004820152601960248201527814dd185ada5b99d4995dd85c991cce881b9bdd081cdd185c9d603a1b604482015290519081900360640190fd5b60008211611098576040805162461bcd60e51b815260206004820152601e60248201527f5374616b696e67526577617264733a2063616e6e6f74207374616b6520300000604482015290519081900360640190fd5b6110a1826118af565b60408051838152905133917f9e71bc8eea02a63969f509818f2dafb9254532904319f9dbda79b67bd34a5f3d919081900360200190a250506001805460ff60a01b1916600160a01b179055565b600454600160a01b900460ff166111365760405162461bcd60e51b8152600401808060200182810382526028815260200180611d516028913960400191505060405180910390fd5b6001546001600160a01b031661114a611713565b6001600160a01b03161461118f5760405162461bcd60e51b8152600401808060200182810382526021815260200180611e8c6021913960400191505060405180910390fd5b6004546001600160a01b03848116911614156111f2576040805162461bcd60e51b815260206004820152601c60248201527f5374616b696e67526577617264733a207374616b696e67546f6b656e00000000604482015290519081900360640190fd5b6003546001600160a01b0384811691161415611255576040805162461bcd60e51b815260206004820152601b60248201527f5374616b696e67526577617264733a20726577617264546f6b656e0000000000604482015290519081900360640190fd5b61126f6001600160a01b038416828463ffffffff61171716565b505050565b600a5481565b6000600e54600014156112905750600b54610716565b610e8c6112c5600e546105c6670de0b6b3a76400006112b96009546112b9600a54610595610e7e565b9063ffffffff6115bc16565b600b549063ffffffff61165716565b600b5481565b600454600160a01b900460ff16156113235760405162461bcd60e51b815260040180806020018281038252602c815260200180611dec602c913960400191505060405180910390fd5b6004805460ff60a01b1916600160a01b1790556001600160a01b03861661137b5760405162461bcd60e51b815260040180806020018281038252602a815260200180611e39602a913960400191505060405180910390fd5b6001600160a01b0385166113c05760405162461bcd60e51b815260040180806020018281038252602b815260200180611dc1602b913960400191505060405180910390fd5b836113fc5760405162461bcd60e51b8152600401808060200182810382526029815260200180611e636029913960400191505060405180910390fd5b826114385760405162461bcd60e51b8152600401808060200182810382526028815260200180611ead6028913960400191505060405180910390fd5b816114745760405162461bcd60e51b8152600401808060200182810382526027815260200180611d9a6027913960400191505060405180910390fd5b61148060028989611c6d565b50600380546001600160a01b039788166001600160a01b03199182161790915560048054968816968216969096179095556006939093556007919091556201518002600555600180549190931691161790555050565b336000908152600f60205260409020546114ef90610737565b6114f7610bc0565b565b60085481565b611507610eb8565b611558576040805162461bcd60e51b815260206004820181905260248201527f4f776e61626c653a2063616c6c6572206973206e6f7420746865206f776e6572604482015290519081900360640190fd5b61156181611912565b50565b6003546001600160a01b031681565b60006115b583836040518060400160405280601e81526020017f536166654d6174683a207375627472616374696f6e206f766572666c6f7700008152506119b2565b9392505050565b6000826115cb575060006105de565b828202828482816115d857fe5b04146115b55760405162461bcd60e51b8152600401808060200182810382526021815260200180611e186021913960400191505060405180910390fd5b60006115b583836040518060400160405280601a81526020017f536166654d6174683a206469766973696f6e206279207a65726f000000000000815250611a49565b6000828201838110156115b5576040805162461bcd60e51b815260206004820152601b60248201527f536166654d6174683a206164646974696f6e206f766572666c6f770000000000604482015290519081900360640190fd5b600e546116c4908263ffffffff61157316565b600e55336000908152600f60205260409020546116e7908263ffffffff61157316565b336000818152600f6020526040902091909155600454611561916001600160a01b039091169083611717565b3390565b611729836001600160a01b0316611aae565b61173257600080fd5b604080518082018252601981527f7472616e7366657228616464726573732c75696e74323536290000000000000060209182015281516001600160a01b0385811660248301526044808301869052845180840390910181526064909201845291810180516001600160e01b031663a9059cbb60e01b1781529251815160009460609489169392918291908083835b602083106117df5780518252601f1990920191602091820191016117c0565b6001836020036101000a0380198251168184511680821785525050505050509050019150506000604051808303816000865af19150503d8060008114611841576040519150601f19603f3d011682016040523d82523d6000602084013e611846565b606091505b50915091508161185557600080fd5b80511580611889575080516020148015611889575080601f8151811061187757fe5b01602001516001600160f81b03191615155b61189257600080fd5b5050505050565b60008183106118a857816115b5565b5090919050565b600e546118c2908263ffffffff61165716565b600e55336000908152600f60205260409020546118e5908263ffffffff61165716565b336000818152600f6020526040902091909155600454611561916001600160a01b03909116903084611aea565b6001600160a01b0381166119575760405162461bcd60e51b8152600401808060200182810382526026815260200180611d2b6026913960400191505060405180910390fd5b600080546040516001600160a01b03808516939216917f8be0079c531659141344cd1fd0a4f28419497f9722a3daafe3b4186f6b6457e091a3600080546001600160a01b0319166001600160a01b0392909216919091179055565b60008184841115611a415760405162461bcd60e51b81526004018080602001828103825283818151815260200191508051906020019080838360005b83811015611a065781810151838201526020016119ee565b50505050905090810190601f168015611a335780820380516001836020036101000a031916815260200191505b509250505060405180910390fd5b505050900390565b60008183611a985760405162461bcd60e51b8152602060048201818152835160248401528351909283926044909101919085019080838360008315611a065781810151838201526020016119ee565b506000838581611aa457fe5b0495945050505050565b6000813f7fc5d2460186f7233c927e7db2dcc703c0e500b653ca82273b7bfad8045d85a470818114801590611ae257508115155b949350505050565b611afc846001600160a01b0316611aae565b611b0557600080fd5b60006060856001600160a01b0316604051806060016040528060258152602001611d06602591398051602091820120604080516001600160a01b03808b166024830152891660448201526064808201899052825180830390910181526084909101825292830180516001600160e01b03166001600160e01b0319909316929092178252518251909182918083835b60208310611bb25780518252601f199092019160209182019101611b93565b6001836020036101000a0380198251168184511680821785525050505050509050019150506000604051808303816000865af19150503d8060008114611c14576040519150601f19603f3d011682016040523d82523d6000602084013e611c19565b606091505b509150915081611c2857600080fd5b80511580611c5c575080516020148015611c5c575080601f81518110611c4a57fe5b01602001516001600160f81b03191615155b611c6557600080fd5b505050505050565b828054600181600116156101000203166002900490600052602060002090601f016020900481019282601f10611cae5782800160ff19823516178555611cdb565b82800160010185558215611cdb579182015b82811115611cdb578235825591602001919060010190611cc0565b50611ce7929150611ceb565b5090565b61071691905b80821115611ce75760008155600101611cf156fe7472616e7366657246726f6d28616464726573732c616464726573732c75696e74323536294f776e61626c653a206e6577206f776e657220697320746865207a65726f20616464726573735374616b696e67526577617264733a20636f6e7472616374206e6f7420696e697469616c697a65645374616b696e67526577617264733a2043616e6e6f7420776974686472617720305374616b696e67526577617264733a206475726174696f6e2063616e6e6f74206265206e756c6c5374616b696e67526577617264733a207374616b696e67546f6b656e2063616e6e6f74206265206e756c6c5374616b696e67526577617264733a20636f6e747261637420616c726561647920696e697469616c697a6564536166654d6174683a206d756c7469706c69636174696f6e206f766572666c6f775374616b696e67526577617264733a20726577617264546f6b656e2063616e6e6f74206265206e756c6c5374616b696e67526577617264733a20696e69747265776172642063616e6e6f74206265206e756c6c43616c6c6572206973206e6f742072657761726420646973747269627574696f6e5374616b696e67526577617264733a20737461727474696d652063616e6e6f74206265206e756c6c5374616b696e67526577617264733a2050726f76696465642072657761726420746f6f2068696768a265627a7a723158200e778dede0c3b53d2b13b7baed1d4768a6a84dc624d90d1c5b9ad404491c1de664736f6c634300050d0032",
  "source": "/*\n\n\n\n\n\n\n\n\n*/\n\n// SPDX-License-Identifier: GPL-3.0-or-later\n\npragma solidity >=0.5.13;\n\nimport \"@daostack/arc/contracts/libs/SafeERC20.sol\";\nimport \"openzeppelin-solidity/contracts/token/ERC20/IERC20.sol\";\nimport \"openzeppelin-solidity/contracts/math/SafeMath.sol\";\nimport \"openzeppelin-solidity/contracts/math/Math.sol\";\nimport \"openzeppelin-solidity/contracts/utils/ReentrancyGuard.sol\";\nimport \"../utils/interfaces/IRewardDistributionRecipient.sol\";\n\n\ncontract StakingRewards is IRewardDistributionRecipient, ReentrancyGuard {\n\n    using SafeMath for uint256;\n    using SafeERC20 for address;\n\n    string  public name;\n\n    address public rewardToken;\n    address public stakingToken;\n\n    bool    public initialized;\n\n    modifier initializer() {\n        require(!initialized, \"StakingRewards: contract already initialized\");\n        initialized = true;\n        _;\n    }\n\n    modifier protected() {\n        require(initialized, \"StakingRewards: contract not initialized\");\n        _;\n    }\n\n    /**\n      * @dev                 Initialize contract.\n      * @param _name         Farm name\n      * @param _rewardToken  Reward token contract address\n      * @param _stakingToken Staking token contract address\n      * @param _initreward   Initial reward\n      * @param _starttime    Start time\n      * @param _duration     Duration of the staking in days\n      * @param _avatar       Address of reward distribution recepient\n      */\n    function initialize(\n        string calldata _name,\n        address         _rewardToken,\n        address         _stakingToken,\n        uint256         _initreward,\n        uint256         _starttime,\n        uint256         _duration,\n        address         _avatar\n    ) external initializer {\n        require(_rewardToken  != address(0),                  \"StakingRewards: rewardToken cannot be null\");\n        require(_stakingToken != address(0),                  \"StakingRewards: stakingToken cannot be null\");\n        require(_initreward != 0,                             \"StakingRewards: initreward cannot be null\");\n        require(_starttime != 0,                              \"StakingRewards: starttime cannot be null\");\n        require(_duration != 0,                               \"StakingRewards: duration cannot be null\");\n\n        name = _name;\n        rewardToken  = _rewardToken;\n        stakingToken = _stakingToken;\n        initreward = _initreward;\n        starttime = _starttime;\n        duration = (_duration * 24 hours);\n\n        rewardDistribution = _avatar;\n    }\n\n    uint256 public duration;\n\n    uint256 public initreward;\n    uint256 public starttime;\n    uint256 public periodFinish;\n    uint256 public rewardRate;\n    uint256 public lastUpdateTime;\n    uint256 public rewardPerTokenStored;\n\n    mapping(address => uint256) public userRewardPerTokenPaid;\n    mapping(address => uint256) public rewards;\n\n    uint256 private _totalSupply;\n    mapping(address => uint256) private _balances;\n\n    event RewardAdded(uint256 reward);\n    event Staked(address indexed user, uint256 amount);\n    event Withdrawn(address indexed user, uint256 amount);\n    event RewardPaid(address indexed user, uint256 reward);\n\n    modifier updateReward(address account) {\n        rewardPerTokenStored = rewardPerToken();\n        lastUpdateTime = lastTimeRewardApplicable();\n        if (account != address(0)) {\n            rewards[account] = earned(account);\n            userRewardPerTokenPaid[account] = rewardPerTokenStored;\n        }\n        _;\n    }\n\n    function notifyRewardAmount(uint256 reward) external protected onlyRewardDistribution updateReward(address(0)) {\n        if (block.timestamp >= periodFinish) {\n            rewardRate = reward.div(duration);\n        } else {\n            uint256 remaining = periodFinish.sub(block.timestamp);\n            uint256 leftover = remaining.mul(rewardRate);\n            rewardRate = reward.add(leftover).div(duration);\n        }\n\n        // Ensure the provided reward amount is not more than the balance in the contract.\n        // This keeps the reward rate in the right range, preventing overflows due to\n        // very high values of rewardRate in the earned and rewardsPerToken functions;\n        // Reward + leftover must be less than 2^256 / 10^18 to avoid overflow.\n        uint balance = IERC20(rewardToken).balanceOf(address(this));\n        require(rewardRate <= balance.div(duration), \"StakingRewards: Provided reward too high\");\n\n        lastUpdateTime = block.timestamp;\n        periodFinish = block.timestamp.add(duration);\n        emit RewardAdded(reward);\n    }\n\n    // This function allows governance to take unsupported tokens out of the\n    // contract, since this one exists longer than the other pools.\n    // This is in an effort to make someone whole, should they seriously\n    // mess up. There is no guarantee governance will vote to return these.\n    // It also allows for removal of airdropped tokens.\n    function rescueTokens(address _token, uint256 amount, address to)\n    external\n    protected\n    onlyRewardDistribution\n    {\n        // cant take staked asset\n        require(_token != stakingToken, \"StakingRewards: stakingToken\");\n        // cant take reward asset\n        require(_token != rewardToken, \"StakingRewards: rewardToken\");\n\n        // transfer to\n        _token.safeTransfer(to, amount);\n    }\n\n    function exit() external {\n        withdraw(_balances[msg.sender]);\n        getReward();\n    }\n\n    function lastTimeRewardApplicable() public view returns (uint256) {\n        return Math.min(block.timestamp, periodFinish);\n    }\n\n    function isActive() public view returns (bool) {\n        return (periodFinish.sub(block.timestamp)>0);\n    }\n\n    function rewardPerToken() public view returns (uint256) {\n        if (_totalSupply == 0) {\n            return rewardPerTokenStored;\n        }\n        return\n        rewardPerTokenStored.add(\n            lastTimeRewardApplicable()\n            .sub(lastUpdateTime)\n            .mul(rewardRate)\n            .mul(1e18)\n            .div(_totalSupply)\n        );\n    }\n\n    function earned(address account) public view returns (uint256) {\n        return\n        _balances[account]\n        .mul(rewardPerToken().sub(userRewardPerTokenPaid[account]))\n        .div(1e18)\n        .add(rewards[account]);\n    }\n\n    function stake(uint256 amount) public nonReentrant updateReward(msg.sender) protected checkStart {\n        require(amount > 0, \"StakingRewards: cannot stake 0\");\n        _stake(amount);\n        emit Staked(msg.sender, amount);\n    }\n\n    function withdraw(uint256 amount) public nonReentrant updateReward(msg.sender) protected checkStart {\n        require(amount > 0, \"StakingRewards: Cannot withdraw 0\");\n        _withdraw(amount);\n        emit Withdrawn(msg.sender, amount);\n    }\n\n    function getReward() public nonReentrant updateReward(msg.sender) protected checkStart {\n        uint256 reward = earned(msg.sender);\n        if (reward > 0) {\n            rewards[msg.sender] = 0;\n            rewardToken.safeTransfer(msg.sender, reward);\n            emit RewardPaid(msg.sender, reward);\n        }\n    }\n\n    modifier checkStart(){\n        require(block.timestamp >= starttime,\"StakingRewards: not start\");\n        _;\n    }\n\n    function totalSupply() public view returns (uint256) {\n        return _totalSupply;\n    }\n\n    function balanceOf(address account) public view returns (uint256) {\n        return _balances[account];\n    }\n\n    function _stake(uint256 _amount) private {\n        _totalSupply = _totalSupply.add(_amount);\n        _balances[msg.sender] = _balances[msg.sender].add(_amount);\n        stakingToken.safeTransferFrom(msg.sender, address(this), _amount);\n    }\n\n    function _withdraw(uint256 _amount) private {\n        _totalSupply = _totalSupply.sub(_amount);\n        _balances[msg.sender] = _balances[msg.sender].sub(_amount);\n        stakingToken.safeTransfer(msg.sender, _amount);\n    }\n\n}\n",
  "sourcePath": "/home/tengree/Projects/primedao/contracts/contracts/incentives/StakingRewards.sol",
  "compiler": {
    "name": "solc",
    "version": "0.5.13+commit.5b0b510c.Emscripten.clang"
  },
  "schemaVersion": "3.3.3",
  "updatedAt": "2021-04-12T13:19:08.152Z",
  "devdoc": {
    "methods": {
      "initialize(string,address,address,uint256,uint256,uint256,address)": {
        "details": "Initialize contract.",
        "params": {
          "_avatar": "Address of reward distribution recepient",
          "_duration": "Duration of the staking in days",
          "_initreward": "Initial reward",
          "_name": "Farm name",
          "_rewardToken": "Reward token contract address",
          "_stakingToken": "Staking token contract address",
          "_starttime": "Start time"
        }
      },
      "isOwner()": {
        "details": "Returns true if the caller is the current owner."
      },
      "owner()": {
        "details": "Returns the address of the current owner."
      },
      "renounceOwnership()": {
        "details": "Leaves the contract without owner. It will not be possible to call `onlyOwner` functions anymore. Can only be called by the current owner.     * NOTE: Renouncing ownership will leave the contract without an owner, thereby removing any functionality that is only available to the owner."
      },
      "transferOwnership(address)": {
        "details": "Transfers ownership of the contract to a new account (`newOwner`). Can only be called by the current owner."
      }
    }
  },
  "userdoc": {
    "methods": {}
  }
}