{
  "contractName": "StakingRewards",
  "abi": [
    {
      "anonymous": false,
      "inputs": [
        {
          "indexed": true,
          "internalType": "address",
          "name": "previousOwner",
          "type": "address"
        },
        {
          "indexed": true,
          "internalType": "address",
          "name": "newOwner",
          "type": "address"
        }
      ],
      "name": "OwnershipTransferred",
      "type": "event"
    },
    {
      "anonymous": false,
      "inputs": [
        {
          "indexed": false,
          "internalType": "uint256",
          "name": "reward",
          "type": "uint256"
        }
      ],
      "name": "RewardAdded",
      "type": "event"
    },
    {
      "anonymous": false,
      "inputs": [
        {
          "indexed": true,
          "internalType": "address",
          "name": "user",
          "type": "address"
        },
        {
          "indexed": false,
          "internalType": "uint256",
          "name": "reward",
          "type": "uint256"
        }
      ],
      "name": "RewardPaid",
      "type": "event"
    },
    {
      "anonymous": false,
      "inputs": [
        {
          "indexed": true,
          "internalType": "address",
          "name": "user",
          "type": "address"
        },
        {
          "indexed": false,
          "internalType": "uint256",
          "name": "amount",
          "type": "uint256"
        }
      ],
      "name": "Staked",
      "type": "event"
    },
    {
      "anonymous": false,
      "inputs": [
        {
          "indexed": true,
          "internalType": "address",
          "name": "user",
          "type": "address"
        },
        {
          "indexed": false,
          "internalType": "uint256",
          "name": "amount",
          "type": "uint256"
        }
      ],
      "name": "Withdrawn",
      "type": "event"
    },
    {
      "constant": true,
      "inputs": [],
      "name": "duration",
      "outputs": [
        {
          "internalType": "uint256",
          "name": "",
          "type": "uint256"
        }
      ],
      "payable": false,
      "stateMutability": "view",
      "type": "function"
    },
    {
      "constant": true,
      "inputs": [],
      "name": "initialized",
      "outputs": [
        {
          "internalType": "bool",
          "name": "",
          "type": "bool"
        }
      ],
      "payable": false,
      "stateMutability": "view",
      "type": "function"
    },
    {
      "constant": true,
      "inputs": [],
      "name": "initreward",
      "outputs": [
        {
          "internalType": "uint256",
          "name": "",
          "type": "uint256"
        }
      ],
      "payable": false,
      "stateMutability": "view",
      "type": "function"
    },
    {
      "constant": true,
      "inputs": [],
      "name": "isOwner",
      "outputs": [
        {
          "internalType": "bool",
          "name": "",
          "type": "bool"
        }
      ],
      "payable": false,
      "stateMutability": "view",
      "type": "function"
    },
    {
      "constant": true,
      "inputs": [],
      "name": "lastUpdateTime",
      "outputs": [
        {
          "internalType": "uint256",
          "name": "",
          "type": "uint256"
        }
      ],
      "payable": false,
      "stateMutability": "view",
      "type": "function"
    },
    {
      "constant": true,
      "inputs": [],
      "name": "name",
      "outputs": [
        {
          "internalType": "string",
          "name": "",
          "type": "string"
        }
      ],
      "payable": false,
      "stateMutability": "view",
      "type": "function"
    },
    {
      "constant": true,
      "inputs": [],
      "name": "owner",
      "outputs": [
        {
          "internalType": "address",
          "name": "",
          "type": "address"
        }
      ],
      "payable": false,
      "stateMutability": "view",
      "type": "function"
    },
    {
      "constant": true,
      "inputs": [],
      "name": "periodFinish",
      "outputs": [
        {
          "internalType": "uint256",
          "name": "",
          "type": "uint256"
        }
      ],
      "payable": false,
      "stateMutability": "view",
      "type": "function"
    },
    {
      "constant": false,
      "inputs": [],
      "name": "renounceOwnership",
      "outputs": [],
      "payable": false,
      "stateMutability": "nonpayable",
      "type": "function"
    },
    {
      "constant": true,
      "inputs": [],
      "name": "rewardPerTokenStored",
      "outputs": [
        {
          "internalType": "uint256",
          "name": "",
          "type": "uint256"
        }
      ],
      "payable": false,
      "stateMutability": "view",
      "type": "function"
    },
    {
      "constant": true,
      "inputs": [],
      "name": "rewardRate",
      "outputs": [
        {
          "internalType": "uint256",
          "name": "",
          "type": "uint256"
        }
      ],
      "payable": false,
      "stateMutability": "view",
      "type": "function"
    },
    {
      "constant": true,
      "inputs": [],
      "name": "rewardToken",
      "outputs": [
        {
          "internalType": "address",
          "name": "",
          "type": "address"
        }
      ],
      "payable": false,
      "stateMutability": "view",
      "type": "function"
    },
    {
      "constant": true,
      "inputs": [
        {
          "internalType": "address",
          "name": "",
          "type": "address"
        }
      ],
      "name": "rewards",
      "outputs": [
        {
          "internalType": "uint256",
          "name": "",
          "type": "uint256"
        }
      ],
      "payable": false,
      "stateMutability": "view",
      "type": "function"
    },
    {
      "constant": false,
      "inputs": [
        {
          "internalType": "address",
          "name": "_rewardDistribution",
          "type": "address"
        }
      ],
      "name": "setRewardDistribution",
      "outputs": [],
      "payable": false,
      "stateMutability": "nonpayable",
      "type": "function"
    },
    {
      "constant": true,
      "inputs": [],
      "name": "stakingToken",
      "outputs": [
        {
          "internalType": "address",
          "name": "",
          "type": "address"
        }
      ],
      "payable": false,
      "stateMutability": "view",
      "type": "function"
    },
    {
      "constant": true,
      "inputs": [],
      "name": "starttime",
      "outputs": [
        {
          "internalType": "uint256",
          "name": "",
          "type": "uint256"
        }
      ],
      "payable": false,
      "stateMutability": "view",
      "type": "function"
    },
    {
      "constant": false,
      "inputs": [
        {
          "internalType": "address",
          "name": "newOwner",
          "type": "address"
        }
      ],
      "name": "transferOwnership",
      "outputs": [],
      "payable": false,
      "stateMutability": "nonpayable",
      "type": "function"
    },
    {
      "constant": true,
      "inputs": [
        {
          "internalType": "address",
          "name": "",
          "type": "address"
        }
      ],
      "name": "userRewardPerTokenPaid",
      "outputs": [
        {
          "internalType": "uint256",
          "name": "",
          "type": "uint256"
        }
      ],
      "payable": false,
      "stateMutability": "view",
      "type": "function"
    },
    {
      "constant": false,
      "inputs": [
        {
          "internalType": "string",
          "name": "_name",
          "type": "string"
        },
        {
          "internalType": "address",
          "name": "_rewardToken",
          "type": "address"
        },
        {
          "internalType": "address",
          "name": "_stakingToken",
          "type": "address"
        },
        {
          "internalType": "uint256",
          "name": "_starttime",
          "type": "uint256"
        },
        {
          "internalType": "uint256",
          "name": "_duration",
          "type": "uint256"
        },
        {
          "internalType": "address",
          "name": "_avatar",
          "type": "address"
        }
      ],
      "name": "initialize",
      "outputs": [],
      "payable": false,
      "stateMutability": "nonpayable",
      "type": "function"
    },
    {
      "constant": false,
      "inputs": [
        {
          "internalType": "uint256",
          "name": "reward",
          "type": "uint256"
        }
      ],
      "name": "notifyRewardAmount",
      "outputs": [],
      "payable": false,
      "stateMutability": "nonpayable",
      "type": "function"
    },
    {
      "constant": false,
      "inputs": [
        {
          "internalType": "address",
          "name": "_token",
          "type": "address"
        },
        {
          "internalType": "uint256",
          "name": "amount",
          "type": "uint256"
        },
        {
          "internalType": "address",
          "name": "to",
          "type": "address"
        }
      ],
      "name": "rescueTokens",
      "outputs": [],
      "payable": false,
      "stateMutability": "nonpayable",
      "type": "function"
    },
    {
      "constant": false,
      "inputs": [],
      "name": "exit",
      "outputs": [],
      "payable": false,
      "stateMutability": "nonpayable",
      "type": "function"
    },
    {
      "constant": true,
      "inputs": [],
      "name": "lastTimeRewardApplicable",
      "outputs": [
        {
          "internalType": "uint256",
          "name": "",
          "type": "uint256"
        }
      ],
      "payable": false,
      "stateMutability": "view",
      "type": "function"
    },
    {
      "constant": true,
      "inputs": [],
      "name": "isActive",
      "outputs": [
        {
          "internalType": "bool",
          "name": "",
          "type": "bool"
        }
      ],
      "payable": false,
      "stateMutability": "view",
      "type": "function"
    },
    {
      "constant": true,
      "inputs": [],
      "name": "rewardPerToken",
      "outputs": [
        {
          "internalType": "uint256",
          "name": "",
          "type": "uint256"
        }
      ],
      "payable": false,
      "stateMutability": "view",
      "type": "function"
    },
    {
      "constant": true,
      "inputs": [
        {
          "internalType": "address",
          "name": "account",
          "type": "address"
        }
      ],
      "name": "earned",
      "outputs": [
        {
          "internalType": "uint256",
          "name": "",
          "type": "uint256"
        }
      ],
      "payable": false,
      "stateMutability": "view",
      "type": "function"
    },
    {
      "constant": false,
      "inputs": [
        {
          "internalType": "uint256",
          "name": "amount",
          "type": "uint256"
        }
      ],
      "name": "stake",
      "outputs": [],
      "payable": false,
      "stateMutability": "nonpayable",
      "type": "function"
    },
    {
      "constant": false,
      "inputs": [
        {
          "internalType": "uint256",
          "name": "amount",
          "type": "uint256"
        }
      ],
      "name": "withdraw",
      "outputs": [],
      "payable": false,
      "stateMutability": "nonpayable",
      "type": "function"
    },
    {
      "constant": false,
      "inputs": [],
      "name": "getReward",
      "outputs": [],
      "payable": false,
      "stateMutability": "nonpayable",
      "type": "function"
    },
    {
      "constant": true,
      "inputs": [],
      "name": "totalSupply",
      "outputs": [
        {
          "internalType": "uint256",
          "name": "",
          "type": "uint256"
        }
      ],
      "payable": false,
      "stateMutability": "view",
      "type": "function"
    },
    {
      "constant": true,
      "inputs": [
        {
          "internalType": "address",
          "name": "account",
          "type": "address"
        }
      ],
      "name": "balanceOf",
      "outputs": [
        {
          "internalType": "uint256",
          "name": "",
          "type": "uint256"
        }
      ],
      "payable": false,
      "stateMutability": "view",
      "type": "function"
    }
  ],
  "bytecode": "0x608060405260006100176001600160e01b0361008a16565b600080546001600160a01b0319166001600160a01b0383169081178255604051929350917f8be0079c531659141344cd1fd0a4f28419497f9722a3daafe3b4186f6b6457e0908290a3506001805460ff60a01b19167401000000000000000000000000000000000000000017905561008e565b3390565b611ed58061009d6000396000f3fe608060405234801561001057600080fd5b50600436106101e45760003560e01c806380faa57d1161010f578063c8f33c91116100a2578063e9fad8ee11610071578063e9fad8ee1461050c578063ebe2b12b14610514578063f2fde38b1461051c578063f7c618c114610542576101e4565b8063c8f33c911461045d578063cd3daf9d14610465578063df136d651461046d578063e258a6bf14610475576101e4565b80638f32d59b116100de5780638f32d59b146103fa5780639c907b5814610402578063a694fc3a1461040a578063b37fd19014610427576101e4565b806380faa57d146103bc5780638b876347146103c45780638da58897146103ea5780638da5cb5b146103f2576101e4565b806322f3e2d41161018757806370a082311161015657806370a0823114610362578063715018a61461038857806372f702f3146103905780637b0a47ee146103b4576101e4565b806322f3e2d4146103185780632e1a7d4d146103205780633c6b16ab1461033d5780633d18b9121461035a576101e4565b80630d68b761116101c35780630d68b761146102c45780630fb5a6b4146102ec578063158ef93e146102f457806318160ddd14610310576101e4565b80628cc262146101e957806306fdde03146102215780630700037d1461029e575b600080fd5b61020f600480360360208110156101ff57600080fd5b50356001600160a01b031661054a565b60408051918252519081900360200190f35b6102296105e0565b6040805160208082528351818301528351919283929083019185019080838360005b8381101561026357818101518382015260200161024b565b50505050905090810190601f1680156102905780820380516001836020036101000a031916815260200191505b509250505060405180910390f35b61020f600480360360208110156102b457600080fd5b50356001600160a01b031661066b565b6102ea600480360360208110156102da57600080fd5b50356001600160a01b031661067d565b005b61020f6106f8565b6102fc6106fe565b604080519115158252519081900360200190f35b61020f61070e565b6102fc610715565b6102ea6004803603602081101561033657600080fd5b5035610733565b6102ea6004803603602081101561035357600080fd5b5035610929565b6102ea610bbc565b61020f6004803603602081101561037857600080fd5b50356001600160a01b0316610daa565b6102ea610dc5565b610398610e68565b604080516001600160a01b039092168252519081900360200190f35b61020f610e77565b61020f610e7d565b61020f600480360360208110156103da57600080fd5b50356001600160a01b0316610e90565b61020f610ea2565b610398610ea8565b6102fc610eb7565b61020f610edb565b6102ea6004803603602081101561042057600080fd5b5035610ee1565b6102ea6004803603606081101561043d57600080fd5b506001600160a01b038135811691602081013591604090910135166110ed565b61020f611273565b61020f611279565b61020f6112d3565b6102ea600480360360c081101561048b57600080fd5b8101906020810181356401000000008111156104a657600080fd5b8201836020820111156104b857600080fd5b803590602001918460018302840111640100000000831117156104da57600080fd5b91935091506001600160a01b0381358116916020810135821691604082013591606081013591608090910135166112d9565b6102ea611493565b61020f6114b6565b6102ea6004803603602081101561053257600080fd5b50356001600160a01b03166114bc565b610398611521565b6001600160a01b0381166000908152600d6020908152604080832054600c9092528220546105da91906105ce90670de0b6b3a7640000906105c29061059d90610591611279565b9063ffffffff61153016565b6001600160a01b0388166000908152600f60205260409020549063ffffffff61157916565b9063ffffffff6115d216565b9063ffffffff61161416565b92915050565b6002805460408051602060018416156101000260001901909316849004601f810184900484028201840190925281815292918301828280156106635780601f1061063857610100808354040283529160200191610663565b820191906000526020600020905b81548152906001019060200180831161064657829003601f168201915b505050505081565b600d6020526000908152604090205481565b610685610eb7565b6106d6576040805162461bcd60e51b815260206004820181905260248201527f4f776e61626c653a2063616c6c6572206973206e6f7420746865206f776e6572604482015290519081900360640190fd5b600180546001600160a01b0319166001600160a01b0392909216919091179055565b60055481565b600454600160a01b900460ff1681565b600e545b90565b60008061072d4260085461153090919063ffffffff16565b11905090565b600154600160a01b900460ff16610791576040805162461bcd60e51b815260206004820152601f60248201527f5265656e7472616e637947756172643a207265656e7472616e742063616c6c00604482015290519081900360640190fd5b6001805460ff60a01b19169055336107a7611279565b600b556107b2610e7d565b600a556001600160a01b038116156107f9576107cd8161054a565b6001600160a01b0382166000908152600d6020908152604080832093909355600b54600c909152919020555b600454600160a01b900460ff166108415760405162461bcd60e51b8152600401808060200182810382526028815260200180611d0e6028913960400191505060405180910390fd5b600754421015610894576040805162461bcd60e51b815260206004820152601960248201527814dd185ada5b99d4995dd85c991cce881b9bdd081cdd185c9d603a1b604482015290519081900360640190fd5b600082116108d35760405162461bcd60e51b8152600401808060200182810382526021815260200180611d366021913960400191505060405180910390fd5b6108dc8261166e565b60408051838152905133917f7084f5476618d8e60b11ef0d7d3f06914655adb8793e28ff7f018d4c76d505d5919081900360200190a250506001805460ff60a01b1916600160a01b179055565b600454600160a01b900460ff166109715760405162461bcd60e51b8152600401808060200182810382526028815260200180611d0e6028913960400191505060405180910390fd5b6001546001600160a01b03166109856116d0565b6001600160a01b0316146109ca5760405162461bcd60e51b8152600401808060200182810382526021815260200180611dfe6021913960400191505060405180910390fd5b60006109d4611279565b600b556109df610e7d565b600a556001600160a01b03811615610a26576109fa8161054a565b6001600160a01b0382166000908152600d6020908152604080832093909355600b54600c909152919020555b6008544210610a4b57600554610a4390839063ffffffff6115d216565b600955610a9a565b600854600090610a61904263ffffffff61153016565b90506000610a7a6009548361157990919063ffffffff16565b600554909150610a94906105c2868463ffffffff61161416565b60095550505b600354604080516370a0823160e01b815230600482015290516000926001600160a01b0316916370a08231916024808301926020929190829003018186803b158015610ae557600080fd5b505afa158015610af9573d6000803e3d6000fd5b505050506040513d6020811015610b0f57600080fd5b5051600554909150610b2890829063ffffffff6115d216565b6009541115610b685760405162461bcd60e51b8152600401808060200182810382526028815260200180611e476028913960400191505060405180910390fd5b42600a819055600554610b81919063ffffffff61161416565b6008556040805184815290517fde88a922e0d3b88b24e9623efeb464919c6bf9f66857a65e2bfcf2ce87a9433d9181900360200190a1505050565b600154600160a01b900460ff16610c1a576040805162461bcd60e51b815260206004820152601f60248201527f5265656e7472616e637947756172643a207265656e7472616e742063616c6c00604482015290519081900360640190fd5b6001805460ff60a01b1916905533610c30611279565b600b55610c3b610e7d565b600a556001600160a01b03811615610c8257610c568161054a565b6001600160a01b0382166000908152600d6020908152604080832093909355600b54600c909152919020555b600454600160a01b900460ff16610cca5760405162461bcd60e51b8152600401808060200182810382526028815260200180611d0e6028913960400191505060405180910390fd5b600754421015610d1d576040805162461bcd60e51b815260206004820152601960248201527814dd185ada5b99d4995dd85c991cce881b9bdd081cdd185c9d603a1b604482015290519081900360640190fd5b336000908152600d60205260409020548015610d9357336000818152600d6020526040812055600354610d5c916001600160a01b0390911690836116d4565b60408051828152905133917fe2403640ba68fed3a2f88b7557551d1993f84b99bb10ff833f0cf8db0c5e0486919081900360200190a25b50506001805460ff60a01b1916600160a01b179055565b6001600160a01b03166000908152600f602052604090205490565b610dcd610eb7565b610e1e576040805162461bcd60e51b815260206004820181905260248201527f4f776e61626c653a2063616c6c6572206973206e6f7420746865206f776e6572604482015290519081900360640190fd5b600080546040516001600160a01b03909116907f8be0079c531659141344cd1fd0a4f28419497f9722a3daafe3b4186f6b6457e0908390a3600080546001600160a01b0319169055565b6004546001600160a01b031681565b60095481565b6000610e8b42600854611856565b905090565b600c6020526000908152604090205481565b60075481565b6000546001600160a01b031690565b600080546001600160a01b0316610ecc6116d0565b6001600160a01b031614905090565b60065481565b600154600160a01b900460ff16610f3f576040805162461bcd60e51b815260206004820152601f60248201527f5265656e7472616e637947756172643a207265656e7472616e742063616c6c00604482015290519081900360640190fd5b6001805460ff60a01b1916905533610f55611279565b600b55610f60610e7d565b600a556001600160a01b03811615610fa757610f7b8161054a565b6001600160a01b0382166000908152600d6020908152604080832093909355600b54600c909152919020555b600454600160a01b900460ff16610fef5760405162461bcd60e51b8152600401808060200182810382526028815260200180611d0e6028913960400191505060405180910390fd5b600754421015611042576040805162461bcd60e51b815260206004820152601960248201527814dd185ada5b99d4995dd85c991cce881b9bdd081cdd185c9d603a1b604482015290519081900360640190fd5b60008211611097576040805162461bcd60e51b815260206004820152601e60248201527f5374616b696e67526577617264733a2063616e6e6f74207374616b6520300000604482015290519081900360640190fd5b6110a08261186c565b60408051838152905133917f9e71bc8eea02a63969f509818f2dafb9254532904319f9dbda79b67bd34a5f3d919081900360200190a250506001805460ff60a01b1916600160a01b179055565b600454600160a01b900460ff166111355760405162461bcd60e51b8152600401808060200182810382526028815260200180611d0e6028913960400191505060405180910390fd5b6001546001600160a01b03166111496116d0565b6001600160a01b03161461118e5760405162461bcd60e51b8152600401808060200182810382526021815260200180611dfe6021913960400191505060405180910390fd5b6004546001600160a01b03848116911614156111f1576040805162461bcd60e51b815260206004820152601c60248201527f5374616b696e67526577617264733a207374616b696e67546f6b656e00000000604482015290519081900360640190fd5b6003546001600160a01b0384811691161415611254576040805162461bcd60e51b815260206004820152601b60248201527f5374616b696e67526577617264733a20726577617264546f6b656e0000000000604482015290519081900360640190fd5b61126e6001600160a01b038416828463ffffffff6116d416565b505050565b600a5481565b6000600e546000141561128f5750600b54610712565b610e8b6112c4600e546105c2670de0b6b3a76400006112b86009546112b8600a54610591610e7d565b9063ffffffff61157916565b600b549063ffffffff61161416565b600b5481565b600454600160a01b900460ff16156113225760405162461bcd60e51b815260040180806020018281038252602c815260200180611d7e602c913960400191505060405180910390fd5b6004805460ff60a01b1916600160a01b1790556001600160a01b03851661137a5760405162461bcd60e51b8152600401808060200182810382526032815260200180611e6f6032913960400191505060405180910390fd5b6001600160a01b0384166113bf5760405162461bcd60e51b8152600401808060200182810382526033815260200180611dcb6033913960400191505060405180910390fd5b826113fb5760405162461bcd60e51b8152600401808060200182810382526028815260200180611e1f6028913960400191505060405180910390fd5b816114375760405162461bcd60e51b8152600401808060200182810382526027815260200180611d576027913960400191505060405180910390fd5b61144360028888611c2a565b50600380546001600160a01b039687166001600160a01b03199182161790915560048054958716958216959095179094556007929092556201518002600555600180549190931691161790555050565b336000908152600f60205260409020546114ac90610733565b6114b4610bbc565b565b60085481565b6114c4610eb7565b611515576040805162461bcd60e51b815260206004820181905260248201527f4f776e61626c653a2063616c6c6572206973206e6f7420746865206f776e6572604482015290519081900360640190fd5b61151e816118cf565b50565b6003546001600160a01b031681565b600061157283836040518060400160405280601e81526020017f536166654d6174683a207375627472616374696f6e206f766572666c6f77000081525061196f565b9392505050565b600082611588575060006105da565b8282028284828161159557fe5b04146115725760405162461bcd60e51b8152600401808060200182810382526021815260200180611daa6021913960400191505060405180910390fd5b600061157283836040518060400160405280601a81526020017f536166654d6174683a206469766973696f6e206279207a65726f000000000000815250611a06565b600082820183811015611572576040805162461bcd60e51b815260206004820152601b60248201527f536166654d6174683a206164646974696f6e206f766572666c6f770000000000604482015290519081900360640190fd5b600e54611681908263ffffffff61153016565b600e55336000908152600f60205260409020546116a4908263ffffffff61153016565b336000818152600f602052604090209190915560045461151e916001600160a01b0390911690836116d4565b3390565b6116e6836001600160a01b0316611a6b565b6116ef57600080fd5b604080518082018252601981527f7472616e7366657228616464726573732c75696e74323536290000000000000060209182015281516001600160a01b0385811660248301526044808301869052845180840390910181526064909201845291810180516001600160e01b031663a9059cbb60e01b1781529251815160009460609489169392918291908083835b6020831061179c5780518252601f19909201916020918201910161177d565b6001836020036101000a0380198251168184511680821785525050505050509050019150506000604051808303816000865af19150503d80600081146117fe576040519150601f19603f3d011682016040523d82523d6000602084013e611803565b606091505b50915091508161181257600080fd5b80511580611846575080516020148015611846575080601f8151811061183457fe5b01602001516001600160f81b03191615155b61184f57600080fd5b5050505050565b60008183106118655781611572565b5090919050565b600e5461187f908263ffffffff61161416565b600e55336000908152600f60205260409020546118a2908263ffffffff61161416565b336000818152600f602052604090209190915560045461151e916001600160a01b03909116903084611aa7565b6001600160a01b0381166119145760405162461bcd60e51b8152600401808060200182810382526026815260200180611ce86026913960400191505060405180910390fd5b600080546040516001600160a01b03808516939216917f8be0079c531659141344cd1fd0a4f28419497f9722a3daafe3b4186f6b6457e091a3600080546001600160a01b0319166001600160a01b0392909216919091179055565b600081848411156119fe5760405162461bcd60e51b81526004018080602001828103825283818151815260200191508051906020019080838360005b838110156119c35781810151838201526020016119ab565b50505050905090810190601f1680156119f05780820380516001836020036101000a031916815260200191505b509250505060405180910390fd5b505050900390565b60008183611a555760405162461bcd60e51b81526020600482018181528351602484015283519092839260449091019190850190808383600083156119c35781810151838201526020016119ab565b506000838581611a6157fe5b0495945050505050565b6000813f7fc5d2460186f7233c927e7db2dcc703c0e500b653ca82273b7bfad8045d85a470818114801590611a9f57508115155b949350505050565b611ab9846001600160a01b0316611a6b565b611ac257600080fd5b60006060856001600160a01b0316604051806060016040528060258152602001611cc3602591398051602091820120604080516001600160a01b03808b166024830152891660448201526064808201899052825180830390910181526084909101825292830180516001600160e01b03166001600160e01b0319909316929092178252518251909182918083835b60208310611b6f5780518252601f199092019160209182019101611b50565b6001836020036101000a0380198251168184511680821785525050505050509050019150506000604051808303816000865af19150503d8060008114611bd1576040519150601f19603f3d011682016040523d82523d6000602084013e611bd6565b606091505b509150915081611be557600080fd5b80511580611c19575080516020148015611c19575080601f81518110611c0757fe5b01602001516001600160f81b03191615155b611c2257600080fd5b505050505050565b828054600181600116156101000203166002900490600052602060002090601f016020900481019282601f10611c6b5782800160ff19823516178555611c98565b82800160010185558215611c98579182015b82811115611c98578235825591602001919060010190611c7d565b50611ca4929150611ca8565b5090565b61071291905b80821115611ca45760008155600101611cae56fe7472616e7366657246726f6d28616464726573732c616464726573732c75696e74323536294f776e61626c653a206e6577206f776e657220697320746865207a65726f20616464726573735374616b696e67526577617264733a20636f6e7472616374206e6f7420696e697469616c697a65645374616b696e67526577617264733a2043616e6e6f7420776974686472617720305374616b696e67526577617264733a206475726174696f6e2063616e6e6f74206265206e756c6c5374616b696e67526577617264733a20636f6e747261637420616c726561647920696e697469616c697a6564536166654d6174683a206d756c7469706c69636174696f6e206f766572666c6f775374616b696e67526577617264733a207374616b696e67546f6b656e2063616e6e6f74206265207a65726f206164647265737343616c6c6572206973206e6f742072657761726420646973747269627574696f6e5374616b696e67526577617264733a20737461727474696d652063616e6e6f74206265206e756c6c5374616b696e67526577617264733a2050726f76696465642072657761726420746f6f20686967685374616b696e67526577617264733a20726577617264546f6b656e2063616e6e6f74206265207a65726f2061646472657373a265627a7a7231582096085f4bd99e302bba07da465c663e0bfa30ee999884707415c0c1db210e9a3e64736f6c634300050d0032",
  "source": "/*\n\n\n\n\n\n\n\n\n*/\n\n// SPDX-License-Identifier: GPL-3.0-or-later\n\npragma solidity >=0.5.13;\n\nimport \"@daostack/arc/contracts/libs/SafeERC20.sol\";\nimport \"openzeppelin-solidity/contracts/token/ERC20/IERC20.sol\";\nimport \"openzeppelin-solidity/contracts/math/SafeMath.sol\";\nimport \"openzeppelin-solidity/contracts/math/Math.sol\";\nimport \"openzeppelin-solidity/contracts/utils/ReentrancyGuard.sol\";\nimport \"../utils/interfaces/IRewardDistributionRecipient.sol\";\n\n\ncontract StakingRewards is IRewardDistributionRecipient, ReentrancyGuard {\n\n    using SafeMath for uint256;\n    using SafeERC20 for address;\n\n    string  public name;\n\n    address public rewardToken;\n    address public stakingToken;\n\n    bool    public initialized;\n\n    modifier initializer() {\n        require(!initialized, \"StakingRewards: contract already initialized\");\n        initialized = true;\n        _;\n    }\n\n    modifier protected() {\n        require(initialized, \"StakingRewards: contract not initialized\");\n        _;\n    }\n\n    /**\n      * @dev                 Initialize contract.\n      * @param _name         Farm name\n      * @param _rewardToken  Reward token contract address\n      * @param _stakingToken Staking token contract address\n      * @param _starttime    Start time\n      * @param _duration     Duration of the staking in days\n      * @param _avatar       Address of reward distribution recepient\n      */\n    function initialize(\n        string calldata _name,\n        address         _rewardToken,\n        address         _stakingToken,\n        uint256         _starttime,\n        uint256         _duration,\n        address         _avatar\n    ) external initializer {\n        require(_rewardToken  != address(0),                  \"StakingRewards: rewardToken cannot be zero address\");\n        require(_stakingToken != address(0),                  \"StakingRewards: stakingToken cannot be zero address\");\n        require(_starttime != 0,                              \"StakingRewards: starttime cannot be null\");\n        require(_duration != 0,                               \"StakingRewards: duration cannot be null\");\n\n        name = _name;\n        rewardToken  = _rewardToken;\n        stakingToken = _stakingToken;\n        starttime = _starttime;\n        duration = (_duration * 24 hours);\n\n        rewardDistribution = _avatar;\n    }\n\n    uint256 public duration;\n\n    uint256 public initreward;\n    uint256 public starttime;\n    uint256 public periodFinish;\n    uint256 public rewardRate;\n    uint256 public lastUpdateTime;\n    uint256 public rewardPerTokenStored;\n\n    mapping(address => uint256) public userRewardPerTokenPaid;\n    mapping(address => uint256) public rewards;\n\n    uint256 private _totalSupply;\n    mapping(address => uint256) private _balances;\n\n    event RewardAdded(uint256 reward);\n    event Staked(address indexed user, uint256 amount);\n    event Withdrawn(address indexed user, uint256 amount);\n    event RewardPaid(address indexed user, uint256 reward);\n\n    modifier updateReward(address account) {\n        rewardPerTokenStored = rewardPerToken();\n        lastUpdateTime = lastTimeRewardApplicable();\n        if (account != address(0)) {\n            rewards[account] = earned(account);\n            userRewardPerTokenPaid[account] = rewardPerTokenStored;\n        }\n        _;\n    }\n\n    function notifyRewardAmount(uint256 reward) external protected onlyRewardDistribution updateReward(address(0)) {\n        if (block.timestamp >= periodFinish) {\n            rewardRate = reward.div(duration);\n        } else {\n            uint256 remaining = periodFinish.sub(block.timestamp);\n            uint256 leftover = remaining.mul(rewardRate);\n            rewardRate = reward.add(leftover).div(duration);\n        }\n\n        // Ensure the provided reward amount is not more than the balance in the contract.\n        // This keeps the reward rate in the right range, preventing overflows due to\n        // very high values of rewardRate in the earned and rewardsPerToken functions;\n        // Reward + leftover must be less than 2^256 / 10^18 to avoid overflow.\n        uint balance = IERC20(rewardToken).balanceOf(address(this));\n        require(rewardRate <= balance.div(duration), \"StakingRewards: Provided reward too high\");\n\n        lastUpdateTime = block.timestamp;\n        periodFinish = block.timestamp.add(duration);\n        emit RewardAdded(reward);\n    }\n\n    // This function allows governance to take unsupported tokens out of the\n    // contract, since this one exists longer than the other pools.\n    // This is in an effort to make someone whole, should they seriously\n    // mess up. There is no guarantee governance will vote to return these.\n    // It also allows for removal of airdropped tokens.\n    function rescueTokens(address _token, uint256 amount, address to)\n    external\n    protected\n    onlyRewardDistribution\n    {\n        // cant take staked asset\n        require(_token != stakingToken, \"StakingRewards: stakingToken\");\n        // cant take reward asset\n        require(_token != rewardToken, \"StakingRewards: rewardToken\");\n\n        // transfer to\n        _token.safeTransfer(to, amount);\n    }\n\n    function exit() external {\n        withdraw(_balances[msg.sender]);\n        getReward();\n    }\n\n    function lastTimeRewardApplicable() public view returns (uint256) {\n        return Math.min(block.timestamp, periodFinish);\n    }\n\n    function isActive() public view returns (bool) {\n        return (periodFinish.sub(block.timestamp)>0);\n    }\n\n    function rewardPerToken() public view returns (uint256) {\n        if (_totalSupply == 0) {\n            return rewardPerTokenStored;\n        }\n        return\n        rewardPerTokenStored.add(\n            lastTimeRewardApplicable()\n            .sub(lastUpdateTime)\n            .mul(rewardRate)\n            .mul(1e18)\n            .div(_totalSupply)\n        );\n    }\n\n    function earned(address account) public view returns (uint256) {\n        return\n        _balances[account]\n        .mul(rewardPerToken().sub(userRewardPerTokenPaid[account]))\n        .div(1e18)\n        .add(rewards[account]);\n    }\n\n    function stake(uint256 amount) public nonReentrant updateReward(msg.sender) protected checkStart {\n        require(amount > 0, \"StakingRewards: cannot stake 0\");\n        _stake(amount);\n        emit Staked(msg.sender, amount);\n    }\n\n    function withdraw(uint256 amount) public nonReentrant updateReward(msg.sender) protected checkStart {\n        require(amount > 0, \"StakingRewards: Cannot withdraw 0\");\n        _withdraw(amount);\n        emit Withdrawn(msg.sender, amount);\n    }\n\n    function getReward() public nonReentrant updateReward(msg.sender) protected checkStart {\n        uint256 reward = rewards[msg.sender];\n        if (reward > 0) {\n            rewards[msg.sender] = 0;\n            rewardToken.safeTransfer(msg.sender, reward);\n            emit RewardPaid(msg.sender, reward);\n        }\n    }\n\n    modifier checkStart(){\n        require(block.timestamp >= starttime,\"StakingRewards: not start\");\n        _;\n    }\n\n    function totalSupply() public view returns (uint256) {\n        return _totalSupply;\n    }\n\n    function balanceOf(address account) public view returns (uint256) {\n        return _balances[account];\n    }\n\n    function _stake(uint256 _amount) private {\n        _totalSupply = _totalSupply.add(_amount);\n        _balances[msg.sender] = _balances[msg.sender].add(_amount);\n        stakingToken.safeTransferFrom(msg.sender, address(this), _amount);\n    }\n\n    function _withdraw(uint256 _amount) private {\n        _totalSupply = _totalSupply.sub(_amount);\n        _balances[msg.sender] = _balances[msg.sender].sub(_amount);\n        stakingToken.safeTransfer(msg.sender, _amount);\n    }\n\n}\n",
  "sourcePath": "/home/konst/Documents/job/contracts/contracts/incentives/StakingRewards.sol",
  "compiler": {
    "name": "solc",
    "version": "0.5.13+commit.5b0b510c.Emscripten.clang"
  },
  "schemaVersion": "3.2.4",
  "updatedAt": "2021-04-29T16:22:59.667Z",
  "devdoc": {
    "methods": {
      "initialize(string,address,address,uint256,uint256,address)": {
        "details": "Initialize contract.",
        "params": {
          "_avatar": "Address of reward distribution recepient",
          "_duration": "Duration of the staking in days",
          "_name": "Farm name",
          "_rewardToken": "Reward token contract address",
          "_stakingToken": "Staking token contract address",
          "_starttime": "Start time"
        }
      },
      "isOwner()": {
        "details": "Returns true if the caller is the current owner."
      },
      "owner()": {
        "details": "Returns the address of the current owner."
      },
      "renounceOwnership()": {
        "details": "Leaves the contract without owner. It will not be possible to call `onlyOwner` functions anymore. Can only be called by the current owner.     * NOTE: Renouncing ownership will leave the contract without an owner, thereby removing any functionality that is only available to the owner."
      },
      "transferOwnership(address)": {
        "details": "Transfers ownership of the contract to a new account (`newOwner`). Can only be called by the current owner."
      }
    }
  },
  "userdoc": {
    "methods": {}
  }
}