{
  "contractName": "StakingRewards",
  "abi": [
    {
      "anonymous": false,
      "inputs": [
        {
          "indexed": true,
          "internalType": "address",
          "name": "previousOwner",
          "type": "address"
        },
        {
          "indexed": true,
          "internalType": "address",
          "name": "newOwner",
          "type": "address"
        }
      ],
      "name": "OwnershipTransferred",
      "type": "event"
    },
    {
      "anonymous": false,
      "inputs": [
        {
          "indexed": false,
          "internalType": "uint256",
          "name": "reward",
          "type": "uint256"
        }
      ],
      "name": "RewardAdded",
      "type": "event"
    },
    {
      "anonymous": false,
      "inputs": [
        {
          "indexed": true,
          "internalType": "address",
          "name": "user",
          "type": "address"
        },
        {
          "indexed": false,
          "internalType": "uint256",
          "name": "reward",
          "type": "uint256"
        }
      ],
      "name": "RewardPaid",
      "type": "event"
    },
    {
      "anonymous": false,
      "inputs": [
        {
          "indexed": true,
          "internalType": "address",
          "name": "user",
          "type": "address"
        },
        {
          "indexed": false,
          "internalType": "uint256",
          "name": "amount",
          "type": "uint256"
        }
      ],
      "name": "Staked",
      "type": "event"
    },
    {
      "anonymous": false,
      "inputs": [
        {
          "indexed": true,
          "internalType": "address",
          "name": "user",
          "type": "address"
        },
        {
          "indexed": false,
          "internalType": "uint256",
          "name": "amount",
          "type": "uint256"
        }
      ],
      "name": "Withdrawn",
      "type": "event"
    },
    {
      "constant": true,
      "inputs": [],
      "name": "DURATION",
      "outputs": [
        {
          "internalType": "uint256",
          "name": "",
          "type": "uint256"
        }
      ],
      "payable": false,
      "stateMutability": "view",
      "type": "function"
    },
    {
      "constant": true,
      "inputs": [],
      "name": "initialized",
      "outputs": [
        {
          "internalType": "bool",
          "name": "",
          "type": "bool"
        }
      ],
      "payable": false,
      "stateMutability": "view",
      "type": "function"
    },
    {
      "constant": true,
      "inputs": [],
      "name": "initreward",
      "outputs": [
        {
          "internalType": "uint256",
          "name": "",
          "type": "uint256"
        }
      ],
      "payable": false,
      "stateMutability": "view",
      "type": "function"
    },
    {
      "constant": true,
      "inputs": [],
      "name": "isOwner",
      "outputs": [
        {
          "internalType": "bool",
          "name": "",
          "type": "bool"
        }
      ],
      "payable": false,
      "stateMutability": "view",
      "type": "function"
    },
    {
      "constant": true,
      "inputs": [],
      "name": "lastUpdateTime",
      "outputs": [
        {
          "internalType": "uint256",
          "name": "",
          "type": "uint256"
        }
      ],
      "payable": false,
      "stateMutability": "view",
      "type": "function"
    },
    {
      "constant": true,
      "inputs": [],
      "name": "owner",
      "outputs": [
        {
          "internalType": "address",
          "name": "",
          "type": "address"
        }
      ],
      "payable": false,
      "stateMutability": "view",
      "type": "function"
    },
    {
      "constant": true,
      "inputs": [],
      "name": "periodFinish",
      "outputs": [
        {
          "internalType": "uint256",
          "name": "",
          "type": "uint256"
        }
      ],
      "payable": false,
      "stateMutability": "view",
      "type": "function"
    },
    {
      "constant": false,
      "inputs": [],
      "name": "renounceOwnership",
      "outputs": [],
      "payable": false,
      "stateMutability": "nonpayable",
      "type": "function"
    },
    {
      "constant": true,
      "inputs": [],
      "name": "rewardPerTokenStored",
      "outputs": [
        {
          "internalType": "uint256",
          "name": "",
          "type": "uint256"
        }
      ],
      "payable": false,
      "stateMutability": "view",
      "type": "function"
    },
    {
      "constant": true,
      "inputs": [],
      "name": "rewardRate",
      "outputs": [
        {
          "internalType": "uint256",
          "name": "",
          "type": "uint256"
        }
      ],
      "payable": false,
      "stateMutability": "view",
      "type": "function"
    },
    {
      "constant": true,
      "inputs": [],
      "name": "rewardToken",
      "outputs": [
        {
          "internalType": "address",
          "name": "",
          "type": "address"
        }
      ],
      "payable": false,
      "stateMutability": "view",
      "type": "function"
    },
    {
      "constant": true,
      "inputs": [
        {
          "internalType": "address",
          "name": "",
          "type": "address"
        }
      ],
      "name": "rewards",
      "outputs": [
        {
          "internalType": "uint256",
          "name": "",
          "type": "uint256"
        }
      ],
      "payable": false,
      "stateMutability": "view",
      "type": "function"
    },
    {
      "constant": true,
      "inputs": [],
      "name": "stakingToken",
      "outputs": [
        {
          "internalType": "address",
          "name": "",
          "type": "address"
        }
      ],
      "payable": false,
      "stateMutability": "view",
      "type": "function"
    },
    {
      "constant": true,
      "inputs": [],
      "name": "starttime",
      "outputs": [
        {
          "internalType": "uint256",
          "name": "",
          "type": "uint256"
        }
      ],
      "payable": false,
      "stateMutability": "view",
      "type": "function"
    },
    {
      "constant": false,
      "inputs": [
        {
          "internalType": "address",
          "name": "newOwner",
          "type": "address"
        }
      ],
      "name": "transferOwnership",
      "outputs": [],
      "payable": false,
      "stateMutability": "nonpayable",
      "type": "function"
    },
    {
      "constant": true,
      "inputs": [
        {
          "internalType": "address",
          "name": "",
          "type": "address"
        }
      ],
      "name": "userRewardPerTokenPaid",
      "outputs": [
        {
          "internalType": "uint256",
          "name": "",
          "type": "uint256"
        }
      ],
      "payable": false,
      "stateMutability": "view",
      "type": "function"
    },
    {
      "constant": false,
      "inputs": [
        {
          "internalType": "address",
          "name": "_rewardToken",
          "type": "address"
        },
        {
          "internalType": "address",
          "name": "_stakingToken",
          "type": "address"
        },
        {
          "internalType": "uint256",
          "name": "_initreward",
          "type": "uint256"
        },
        {
          "internalType": "uint256",
          "name": "_starttime",
          "type": "uint256"
        },
        {
          "internalType": "uint256",
          "name": "_duration",
          "type": "uint256"
        }
      ],
      "name": "initialize",
      "outputs": [],
      "payable": false,
      "stateMutability": "nonpayable",
      "type": "function"
    },
    {
      "constant": true,
      "inputs": [],
      "name": "lastTimeRewardApplicable",
      "outputs": [
        {
          "internalType": "uint256",
          "name": "",
          "type": "uint256"
        }
      ],
      "payable": false,
      "stateMutability": "view",
      "type": "function"
    },
    {
      "constant": true,
      "inputs": [],
      "name": "rewardPerToken",
      "outputs": [
        {
          "internalType": "uint256",
          "name": "",
          "type": "uint256"
        }
      ],
      "payable": false,
      "stateMutability": "view",
      "type": "function"
    },
    {
      "constant": true,
      "inputs": [
        {
          "internalType": "address",
          "name": "account",
          "type": "address"
        }
      ],
      "name": "earned",
      "outputs": [
        {
          "internalType": "uint256",
          "name": "",
          "type": "uint256"
        }
      ],
      "payable": false,
      "stateMutability": "view",
      "type": "function"
    },
    {
      "constant": false,
      "inputs": [
        {
          "internalType": "uint256",
          "name": "amount",
          "type": "uint256"
        }
      ],
      "name": "stake",
      "outputs": [],
      "payable": false,
      "stateMutability": "nonpayable",
      "type": "function"
    },
    {
      "constant": false,
      "inputs": [
        {
          "internalType": "uint256",
          "name": "amount",
          "type": "uint256"
        }
      ],
      "name": "withdraw",
      "outputs": [],
      "payable": false,
      "stateMutability": "nonpayable",
      "type": "function"
    },
    {
      "constant": false,
      "inputs": [],
      "name": "exit",
      "outputs": [],
      "payable": false,
      "stateMutability": "nonpayable",
      "type": "function"
    },
    {
      "constant": false,
      "inputs": [],
      "name": "getReward",
      "outputs": [],
      "payable": false,
      "stateMutability": "nonpayable",
      "type": "function"
    },
    {
      "constant": false,
      "inputs": [
        {
          "internalType": "address",
          "name": "_token",
          "type": "address"
        },
        {
          "internalType": "uint256",
          "name": "amount",
          "type": "uint256"
        },
        {
          "internalType": "address",
          "name": "to",
          "type": "address"
        }
      ],
      "name": "rescueTokens",
      "outputs": [],
      "payable": false,
      "stateMutability": "nonpayable",
      "type": "function"
    },
    {
      "constant": true,
      "inputs": [],
      "name": "totalSupply",
      "outputs": [
        {
          "internalType": "uint256",
          "name": "",
          "type": "uint256"
        }
      ],
      "payable": false,
      "stateMutability": "view",
      "type": "function"
    },
    {
      "constant": true,
      "inputs": [
        {
          "internalType": "address",
          "name": "account",
          "type": "address"
        }
      ],
      "name": "balanceOf",
      "outputs": [
        {
          "internalType": "uint256",
          "name": "",
          "type": "uint256"
        }
      ],
      "payable": false,
      "stateMutability": "view",
      "type": "function"
    }
  ],
  "bytecode": "0x608060405260006100176001600160e01b0361008a16565b600080546001600160a01b0319166001600160a01b0383169081178255604051929350917f8be0079c531659141344cd1fd0a4f28419497f9722a3daafe3b4186f6b6457e0908290a3506000805460ff60a01b19167401000000000000000000000000000000000000000017905561008e565b3390565b611ad38061009d6000396000f3fe608060405234801561001057600080fd5b50600436106101a85760003560e01c80638da58897116100f9578063cd3daf9d11610097578063e9fad8ee11610071578063e9fad8ee146103b3578063ebe2b12b146103bb578063f2fde38b146103c3578063f7c618c1146103e9576101a8565b8063cd3daf9d14610361578063d13f90b414610369578063df136d65146103ab576101a8565b80639c907b58116100d35780639c907b58146102fe578063a694fc3a14610306578063b37fd19014610323578063c8f33c9114610359576101a8565b80638da58897146102e65780638da5cb5b146102ee5780638f32d59b146102f6576101a8565b80633d18b9121161016657806372f702f31161014057806372f702f31461028c5780637b0a47ee146102b057806380faa57d146102b85780638b876347146102c0576101a8565b80633d18b9121461025657806370a082311461025e578063715018a614610284576101a8565b80628cc262146101ad5780630700037d146101e5578063158ef93e1461020b57806318160ddd146102275780631be052891461022f5780632e1a7d4d14610237575b600080fd5b6101d3600480360360208110156101c357600080fd5b50356001600160a01b03166103f1565b60408051918252519081900360200190f35b6101d3600480360360208110156101fb57600080fd5b50356001600160a01b0316610487565b610213610499565b604080519115158252519081900360200190f35b6101d36104a9565b6101d36104b0565b6102546004803603602081101561024d57600080fd5b50356104b6565b005b6102546106ac565b6101d36004803603602081101561027457600080fd5b50356001600160a01b0316610897565b6102546108b2565b610294610955565b604080516001600160a01b039092168252519081900360200190f35b6101d3610964565b6101d361096a565b6101d3600480360360208110156102d657600080fd5b50356001600160a01b031661097d565b6101d361098f565b610294610995565b6102136109a4565b6101d36109c8565b6102546004803603602081101561031c57600080fd5b50356109ce565b6102546004803603606081101561033957600080fd5b506001600160a01b03813581169160208101359160409091013516610bda565b6101d3610d74565b6101d3610d7a565b610254600480360360a081101561037f57600080fd5b506001600160a01b03813581169160208101359091169060408101359060608101359060800135610dd4565b6101d361106c565b610254611072565b6101d3611095565b610254600480360360208110156103d957600080fd5b50356001600160a01b031661109b565b610294611100565b6001600160a01b0381166000908152600b6020908152604080832054600a909252822054610481919061047590670de0b6b3a7640000906104699061044490610438610d7a565b9063ffffffff61110f16565b6001600160a01b0388166000908152600d60205260409020549063ffffffff61115816565b9063ffffffff6111b116565b9063ffffffff6111f316565b92915050565b600b6020526000908152604090205481565b600254600160a01b900460ff1681565b600c545b90565b60035481565b600054600160a01b900460ff16610514576040805162461bcd60e51b815260206004820152601f60248201527f5265656e7472616e637947756172643a207265656e7472616e742063616c6c00604482015290519081900360640190fd5b6000805460ff60a01b191690553361052a610d7a565b60095561053561096a565b6008556001600160a01b0381161561057c57610550816103f1565b6001600160a01b0382166000908152600b6020908152604080832093909355600954600a909152919020555b600254600160a01b900460ff166105c45760405162461bcd60e51b81526004018080602001828103825260288152602001806119106028913960400191505060405180910390fd5b600554421015610617576040805162461bcd60e51b815260206004820152601960248201527814dd185ada5b99d4995dd85c991cce881b9bdd081cdd185c9d603a1b604482015290519081900360640190fd5b600082116106565760405162461bcd60e51b81526004018080602001828103825260218152602001806119386021913960400191505060405180910390fd5b61065f8261124d565b60408051838152905133917f7084f5476618d8e60b11ef0d7d3f06914655adb8793e28ff7f018d4c76d505d5919081900360200190a250506000805460ff60a01b1916600160a01b179055565b600054600160a01b900460ff1661070a576040805162461bcd60e51b815260206004820152601f60248201527f5265656e7472616e637947756172643a207265656e7472616e742063616c6c00604482015290519081900360640190fd5b6000805460ff60a01b1916905533610720610d7a565b60095561072b61096a565b6008556001600160a01b0381161561077257610746816103f1565b6001600160a01b0382166000908152600b6020908152604080832093909355600954600a909152919020555b600254600160a01b900460ff166107ba5760405162461bcd60e51b81526004018080602001828103825260288152602001806119106028913960400191505060405180910390fd5b60055442101561080d576040805162461bcd60e51b815260206004820152601960248201527814dd185ada5b99d4995dd85c991cce881b9bdd081cdd185c9d603a1b604482015290519081900360640190fd5b6000610818336103f1565b9050801561088057336000818152600b6020526040812055600154610849916001600160a01b0390911690836112ab565b60408051828152905133917fe2403640ba68fed3a2f88b7557551d1993f84b99bb10ff833f0cf8db0c5e0486919081900360200190a25b50506000805460ff60a01b1916600160a01b179055565b6001600160a01b03166000908152600d602052604090205490565b6108ba6109a4565b61090b576040805162461bcd60e51b815260206004820181905260248201527f4f776e61626c653a2063616c6c6572206973206e6f7420746865206f776e6572604482015290519081900360640190fd5b600080546040516001600160a01b03909116907f8be0079c531659141344cd1fd0a4f28419497f9722a3daafe3b4186f6b6457e0908390a3600080546001600160a01b0319169055565b6002546001600160a01b031681565b60075481565b600061097842600654611426565b905090565b600a6020526000908152604090205481565b60055481565b6000546001600160a01b031690565b600080546001600160a01b03166109b961143c565b6001600160a01b031614905090565b60045481565b600054600160a01b900460ff16610a2c576040805162461bcd60e51b815260206004820152601f60248201527f5265656e7472616e637947756172643a207265656e7472616e742063616c6c00604482015290519081900360640190fd5b6000805460ff60a01b1916905533610a42610d7a565b600955610a4d61096a565b6008556001600160a01b03811615610a9457610a68816103f1565b6001600160a01b0382166000908152600b6020908152604080832093909355600954600a909152919020555b600254600160a01b900460ff16610adc5760405162461bcd60e51b81526004018080602001828103825260288152602001806119106028913960400191505060405180910390fd5b600554421015610b2f576040805162461bcd60e51b815260206004820152601960248201527814dd185ada5b99d4995dd85c991cce881b9bdd081cdd185c9d603a1b604482015290519081900360640190fd5b60008211610b84576040805162461bcd60e51b815260206004820152601e60248201527f5374616b696e67526577617264733a2063616e6e6f74207374616b6520300000604482015290519081900360640190fd5b610b8d82611440565b60408051838152905133917f9e71bc8eea02a63969f509818f2dafb9254532904319f9dbda79b67bd34a5f3d919081900360200190a250506000805460ff60a01b1916600160a01b179055565b600254600160a01b900460ff16610c225760405162461bcd60e51b81526004018080602001828103825260288152602001806119106028913960400191505060405180910390fd5b610c2a610995565b6001600160a01b0316336001600160a01b031614610c8f576040805162461bcd60e51b815260206004820152601b60248201527f5374616b696e67526577617264733a2021676f7665726e616e63650000000000604482015290519081900360640190fd5b6002546001600160a01b0384811691161415610cf2576040805162461bcd60e51b815260206004820152601c60248201527f5374616b696e67526577617264733a207374616b696e67546f6b656e00000000604482015290519081900360640190fd5b6001546001600160a01b0384811691161415610d55576040805162461bcd60e51b815260206004820152601b60248201527f5374616b696e67526577617264733a20726577617264546f6b656e0000000000604482015290519081900360640190fd5b610d6f6001600160a01b038416828463ffffffff6112ab16565b505050565b60085481565b6000600c5460001415610d9057506009546104ad565b610978610dc5600c54610469670de0b6b3a7640000610db9600754610db960085461043861096a565b9063ffffffff61115816565b6009549063ffffffff6111f316565b600254600160a01b900460ff1615610e1d5760405162461bcd60e51b815260040180806020018281038252602c8152602001806119ab602c913960400191505060405180910390fd5b6002805460ff60a01b1916600160a01b1790556001600160a01b038516610e755760405162461bcd60e51b815260040180806020018281038252602a8152602001806119f8602a913960400191505060405180910390fd5b6001600160a01b038416610eba5760405162461bcd60e51b815260040180806020018281038252602b815260200180611980602b913960400191505060405180910390fd5b82610ef65760405162461bcd60e51b8152600401808060200182810382526029815260200180611a226029913960400191505060405180910390fd5b81610f325760405162461bcd60e51b8152600401808060200182810382526028815260200180611a776028913960400191505060405180910390fd5b80610f6e5760405162461bcd60e51b81526004018080602001828103825260278152602001806119596027913960400191505060405180910390fd5b600180546001600160a01b038088166001600160a01b031992831617928390556002805488831693169290921790915560048581556005859055620151808402600355604080516370a0823160e01b815230928101929092525192909116916370a0823191602480820192602092909190829003018186803b158015610ff357600080fd5b505afa158015611007573d6000803e3d6000fd5b505050506040513d602081101561101d57600080fd5b5051831461105c5760405162461bcd60e51b815260040180806020018281038252602c815260200180611a4b602c913960400191505060405180910390fd5b611065836114a3565b5050505050565b60095481565b336000908152600d602052604090205461108b906104b6565b6110936106ac565b565b60065481565b6110a36109a4565b6110f4576040805162461bcd60e51b815260206004820181905260248201527f4f776e61626c653a2063616c6c6572206973206e6f7420746865206f776e6572604482015290519081900360640190fd5b6110fd81611569565b50565b6001546001600160a01b031681565b600061115183836040518060400160405280601e81526020017f536166654d6174683a207375627472616374696f6e206f766572666c6f770000815250611609565b9392505050565b60008261116757506000610481565b8282028284828161117457fe5b04146111515760405162461bcd60e51b81526004018080602001828103825260218152602001806119d76021913960400191505060405180910390fd5b600061115183836040518060400160405280601a81526020017f536166654d6174683a206469766973696f6e206279207a65726f0000000000008152506116a0565b600082820183811015611151576040805162461bcd60e51b815260206004820152601b60248201527f536166654d6174683a206164646974696f6e206f766572666c6f770000000000604482015290519081900360640190fd5b600c54611260908263ffffffff61110f16565b600c55336000908152600d6020526040902054611283908263ffffffff61110f16565b336000818152600d60205260409020919091556002546110fd916001600160a01b0390911690835b6112bd836001600160a01b0316611705565b6112c657600080fd5b604080518082018252601981527f7472616e7366657228616464726573732c75696e74323536290000000000000060209182015281516001600160a01b0385811660248301526044808301869052845180840390910181526064909201845291810180516001600160e01b031663a9059cbb60e01b1781529251815160009460609489169392918291908083835b602083106113735780518252601f199092019160209182019101611354565b6001836020036101000a0380198251168184511680821785525050505050509050019150506000604051808303816000865af19150503d80600081146113d5576040519150601f19603f3d011682016040523d82523d6000602084013e6113da565b606091505b5091509150816113e957600080fd5b8051158061141d57508051602014801561141d575080601f8151811061140b57fe5b01602001516001600160f81b03191615155b61106557600080fd5b60008183106114355781611151565b5090919050565b3390565b600c54611453908263ffffffff6111f316565b600c55336000908152600d6020526040902054611476908263ffffffff6111f316565b336000818152600d60205260409020919091556002546110fd916001600160a01b03909116903084611741565b60006114ad610d7a565b6009556114b861096a565b6008556001600160a01b038116156114ff576114d3816103f1565b6001600160a01b0382166000908152600b6020908152604080832093909355600954600a909152919020555b60035461151390839063ffffffff6111b116565b60075542600881905560035461152f919063ffffffff6111f316565b6006556040805183815290517fde88a922e0d3b88b24e9623efeb464919c6bf9f66857a65e2bfcf2ce87a9433d9181900360200190a15050565b6001600160a01b0381166115ae5760405162461bcd60e51b81526004018080602001828103825260268152602001806118ea6026913960400191505060405180910390fd5b600080546040516001600160a01b03808516939216917f8be0079c531659141344cd1fd0a4f28419497f9722a3daafe3b4186f6b6457e091a3600080546001600160a01b0319166001600160a01b0392909216919091179055565b600081848411156116985760405162461bcd60e51b81526004018080602001828103825283818151815260200191508051906020019080838360005b8381101561165d578181015183820152602001611645565b50505050905090810190601f16801561168a5780820380516001836020036101000a031916815260200191505b509250505060405180910390fd5b505050900390565b600081836116ef5760405162461bcd60e51b815260206004820181815283516024840152835190928392604490910191908501908083836000831561165d578181015183820152602001611645565b5060008385816116fb57fe5b0495945050505050565b6000813f7fc5d2460186f7233c927e7db2dcc703c0e500b653ca82273b7bfad8045d85a47081811480159061173957508115155b949350505050565b611753846001600160a01b0316611705565b61175c57600080fd5b60006060856001600160a01b03166040518060600160405280602581526020016118c5602591398051602091820120604080516001600160a01b03808b166024830152891660448201526064808201899052825180830390910181526084909101825292830180516001600160e01b03166001600160e01b0319909316929092178252518251909182918083835b602083106118095780518252601f1990920191602091820191016117ea565b6001836020036101000a0380198251168184511680821785525050505050509050019150506000604051808303816000865af19150503d806000811461186b576040519150601f19603f3d011682016040523d82523d6000602084013e611870565b606091505b50915091508161187f57600080fd5b805115806118b35750805160201480156118b3575080601f815181106118a157fe5b01602001516001600160f81b03191615155b6118bc57600080fd5b50505050505056fe7472616e7366657246726f6d28616464726573732c616464726573732c75696e74323536294f776e61626c653a206e6577206f776e657220697320746865207a65726f20616464726573735374616b696e67526577617264733a20636f6e7472616374206e6f7420696e697469616c697a65645374616b696e67526577617264733a2043616e6e6f7420776974686472617720305374616b696e67526577617264733a206475726174696f6e2063616e6e6f74206265206e756c6c5374616b696e67526577617264733a207374616b696e67546f6b656e2063616e6e6f74206265206e756c6c5374616b696e67526577617264733a20636f6e747261637420616c726561647920696e697469616c697a6564536166654d6174683a206d756c7469706c69636174696f6e206f766572666c6f775374616b696e67526577617264733a20726577617264546f6b656e2063616e6e6f74206265206e756c6c5374616b696e67526577617264733a20696e69747265776172642063616e6e6f74206265206e756c6c5374616b696e67526577617264733a2077726f6e672072657761726420616d6f756e7420737570706c6965645374616b696e67526577617264733a20737461727474696d652063616e6e6f74206265206e756c6ca265627a7a723158202c4a21b0dc75f81c5ce8867e2d87b1852e8abc2acc98fc651d764b1f1476096a64736f6c634300050d0032",
  "source": "/*\n   ____            __   __        __   _\n  / __/__ __ ___  / /_ / /  ___  / /_ (_)__ __\n _\\ \\ / // // _ \\/ __// _ \\/ -_)/ __// / \\ \\ /\n/___/ \\_, //_//_/\\__//_//_/\\__/ \\__//_/ /_\\_\\\n     /___/\n* Synthetix: PrimeIncentives.sol\n*\n* Docs: https://docs.synthetix.io/\n*\n*\n* MIT License\n* ===========\n*\n* Copyright (c) 2020 Synthetix\n*\n* Permission is hereby granted, free of charge, to any person obtaining a copy\n* of this software and associated documentation files (the \"Software\"), to deal\n* in the Software without restriction, including without limitation the rights\n* to use, copy, modify, merge, publish, distribute, sublicense, and/or sell\n* copies of the Software, and to permit persons to whom the Software is\n* furnished to do so, subject to the following conditions:\n*\n* The above copyright notice and this permission notice shall be included in all\n* copies or substantial portions of the Software.\n*\n* THE SOFTWARE IS PROVIDED \"AS IS\", WITHOUT WARRANTY OF ANY KIND, EXPRESS OR\n* IMPLIED, INCLUDING BUT NOT LIMITED TO THE WARRANTIES OF MERCHANTABILITY,\n* FITNESS FOR A PARTICULAR PURPOSE AND NONINFRINGEMENT. IN NO EVENT SHALL THE\n* AUTHORS OR COPYRIGHT HOLDERS BE LIABLE FOR ANY CLAIM, DAMAGES OR OTHER\n* LIABILITY, WHETHER IN AN ACTION OF CONTRACT, TORT OR OTHERWISE, ARISING FROM,\n* OUT OF OR IN CONNECTION WITH THE SOFTWARE OR THE USE OR OTHER DEALINGS IN THE\n*/\n\nimport \"@daostack/arc/contracts/libs/SafeERC20.sol\";\nimport \"openzeppelin-solidity/contracts/token/ERC20/IERC20.sol\";\n// import \"openzeppelin-solidity/contracts/token/ERC20/SafeERC20.sol\";\nimport \"openzeppelin-solidity/contracts/math/SafeMath.sol\";\nimport \"openzeppelin-solidity/contracts/math/Math.sol\";\nimport \"openzeppelin-solidity/contracts/utils/ReentrancyGuard.sol\";\nimport \"openzeppelin-solidity/contracts/ownership/Ownable.sol\";\n\n\npragma solidity >=0.5.13;\n\n\ncontract StakingRewards is Ownable, ReentrancyGuard {\n\n    using SafeMath for uint256;\n    // using SafeERC20 for IERC20;\n    using SafeERC20 for address;\n\n    address public rewardToken;\n    address public stakingToken;\n\n    // IERC20 public rewardToken;\n    // IERC20 public stakingToken;\n    bool   public initialized;\n\n    modifier initializer() {\n        require(!initialized, \"StakingRewards: contract already initialized\");\n        initialized = true;\n        _;\n    }\n\n    modifier protected() {\n        require(initialized, \"StakingRewards: contract not initialized\");\n        _;\n    }\n\n    /**\n      * @dev           Initialize contract.\n      * @param _rewardToken  The address\n      * @param _stakingToken The address\n      * @param _initreward Initial reward\n      * @param _starttime Start time\n      */\n    function initialize(\n      address _rewardToken,\n      address _stakingToken,\n      uint256 _initreward,\n      uint256 _starttime,\n      uint256 _duration\n    ) external initializer {\n        require(_rewardToken  != address(0),                  \"StakingRewards: rewardToken cannot be null\");\n        require(_stakingToken != address(0),                  \"StakingRewards: stakingToken cannot be null\");\n        require(_initreward != 0,                             \"StakingRewards: initreward cannot be null\");\n        require(_starttime != 0,                              \"StakingRewards: starttime cannot be null\");\n        require(_duration != 0,                               \"StakingRewards: duration cannot be null\");\n\n        rewardToken  = _rewardToken;\n        stakingToken = _stakingToken;\n        // rewardToken  = IERC20(_rewardToken);\n        // stakingToken = IERC20(_stakingToken);\n        initreward = _initreward;\n        starttime = _starttime;\n        DURATION = (_duration * 24 hours);\n\n        require(_initreward == IERC20(rewardToken).balanceOf(address(this)),   \"StakingRewards: wrong reward amount supplied\");\n\n        _notifyRewardAmount(_initreward);\n    }\n\n    uint256 public DURATION;\n\n    uint256 public initreward;\n    uint256 public starttime;\n    uint256 public periodFinish;\n    uint256 public rewardRate;\n    uint256 public lastUpdateTime;\n    uint256 public rewardPerTokenStored;\n\n    mapping(address => uint256) public userRewardPerTokenPaid;\n    mapping(address => uint256) public rewards;\n\n    uint256 private _totalSupply;\n    mapping(address => uint256) private _balances;\n\n    event RewardAdded(uint256 reward);\n    event Staked(address indexed user, uint256 amount);\n    event Withdrawn(address indexed user, uint256 amount);\n    event RewardPaid(address indexed user, uint256 reward);\n\n    modifier updateReward(address account) {\n        rewardPerTokenStored = rewardPerToken();\n        lastUpdateTime = lastTimeRewardApplicable();\n        if (account != address(0)) {\n            rewards[account] = earned(account);\n            userRewardPerTokenPaid[account] = rewardPerTokenStored;\n        }\n        _;\n    }\n\n    function lastTimeRewardApplicable() public view returns (uint256) {\n        return Math.min(block.timestamp, periodFinish);\n    }\n\n    function rewardPerToken() public view returns (uint256) {\n        if (_totalSupply == 0) {\n            return rewardPerTokenStored;\n        }\n        return\n            rewardPerTokenStored.add(\n                lastTimeRewardApplicable()\n                    .sub(lastUpdateTime)\n                    .mul(rewardRate)\n                    .mul(1e18)\n                    .div(_totalSupply)\n            );\n    }\n\n    function earned(address account) public view returns (uint256) {\n        return\n            _balances[account]\n                .mul(rewardPerToken().sub(userRewardPerTokenPaid[account]))\n                .div(1e18)\n                .add(rewards[account]);\n    }\n\n    /* stake visibility is public as overriding LPTokenWrapper's stake() function */\n    /* added nonReentrant modifier as calling _stake(): calls token contract */\n     function stake(uint256 amount) public nonReentrant updateReward(msg.sender) protected checkStart {\n        require(amount > 0, \"StakingRewards: cannot stake 0\");\n        _stake(amount);\n        emit Staked(msg.sender, amount);\n    }\n\n    /* added nonReentrant modifier as calling _withdraw(): calls token contract */\n    function withdraw(uint256 amount) public nonReentrant updateReward(msg.sender) protected checkStart {\n        require(amount > 0, \"StakingRewards: Cannot withdraw 0\");\n        _withdraw(amount);\n        emit Withdrawn(msg.sender, amount);\n    }\n\n    /* added nonReentrant modifier as calling withdraw() and getReward(): these call token contract */\n    function exit() external {\n        withdraw(_balances[msg.sender]);\n        getReward();\n    }\n\n    /* added nonReentrant modifier as calling token contract */\n    function getReward() public nonReentrant updateReward(msg.sender) protected checkStart {\n        uint256 reward = earned(msg.sender);\n        if (reward > 0) {\n            rewards[msg.sender] = 0;\n            rewardToken.safeTransfer(msg.sender, reward);\n            emit RewardPaid(msg.sender, reward);\n        }\n    }\n\n    modifier checkStart(){\n        require(block.timestamp >= starttime,\"StakingRewards: not start\");\n        _;\n    }\n\n    // This function allows governance to take unsupported tokens out of the\n    // contract, since this one exists longer than the other pools.\n    // This is in an effort to make someone whole, should they seriously\n    // mess up. There is no guarantee governance will vote to return these.\n    // It also allows for removal of airdropped tokens.\n    function rescueTokens(address _token, uint256 amount, address to)\n        external\n        protected\n    {\n        // only gov\n        require(msg.sender == owner(), \"StakingRewards: !governance\");\n        // cant take staked asset\n        require(_token != stakingToken, \"StakingRewards: stakingToken\");\n        // cant take reward asset\n        require(_token != rewardToken, \"StakingRewards: rewardToken\");\n\n        // transfer to\n        _token.safeTransfer(to, amount);\n    }\n\n    function totalSupply() public view returns (uint256) {\n        return _totalSupply;\n    }\n\n    function balanceOf(address account) public view returns (uint256) {\n        return _balances[account];\n    }\n\n    function _stake(uint256 _amount) private {\n        _totalSupply = _totalSupply.add(_amount);\n        _balances[msg.sender] = _balances[msg.sender].add(_amount);\n        stakingToken.safeTransferFrom(msg.sender, address(this), _amount);\n    }\n\n    function _withdraw(uint256 _amount) private {\n        _totalSupply = _totalSupply.sub(_amount);\n        _balances[msg.sender] = _balances[msg.sender].sub(_amount);\n        stakingToken.safeTransfer(msg.sender, _amount);\n    }\n\n    function _notifyRewardAmount(uint256 reward) internal updateReward(address(0)) {\n        rewardRate = reward.div(DURATION);\n        lastUpdateTime = block.timestamp;\n        periodFinish = block.timestamp.add(DURATION);\n        emit RewardAdded(reward);\n    }\n}\n",
  "sourcePath": "/Users/arseny/Projects/primeDAO/contracts/contracts/incentives/StakingRewards.sol",
  "compiler": {
    "name": "solc",
    "version": "0.5.13+commit.5b0b510c.Emscripten.clang"
  },
  "schemaVersion": "3.3.0",
  "updatedAt": "2021-01-04T09:54:30.510Z",
  "devdoc": {
    "methods": {
      "initialize(address,address,uint256,uint256,uint256)": {
        "details": "Initialize contract.",
        "params": {
          "_initreward": "Initial reward",
          "_rewardToken": "The address",
          "_stakingToken": "The address",
          "_starttime": "Start time"
        }
      },
      "isOwner()": {
        "details": "Returns true if the caller is the current owner."
      },
      "owner()": {
        "details": "Returns the address of the current owner."
      },
      "renounceOwnership()": {
        "details": "Leaves the contract without owner. It will not be possible to call `onlyOwner` functions anymore. Can only be called by the current owner.     * NOTE: Renouncing ownership will leave the contract without an owner, thereby removing any functionality that is only available to the owner."
      },
      "transferOwnership(address)": {
        "details": "Transfers ownership of the contract to a new account (`newOwner`). Can only be called by the current owner."
      }
    }
  },
  "userdoc": {
    "methods": {}
  }
}