{
  "contractName": "StakingRewards",
  "abi": [
    {
      "anonymous": false,
      "inputs": [
        {
          "indexed": true,
          "internalType": "address",
          "name": "previousOwner",
          "type": "address"
        },
        {
          "indexed": true,
          "internalType": "address",
          "name": "newOwner",
          "type": "address"
        }
      ],
      "name": "OwnershipTransferred",
      "type": "event"
    },
    {
      "anonymous": false,
      "inputs": [
        {
          "indexed": false,
          "internalType": "uint256",
          "name": "reward",
          "type": "uint256"
        }
      ],
      "name": "RewardAdded",
      "type": "event"
    },
    {
      "anonymous": false,
      "inputs": [
        {
          "indexed": true,
          "internalType": "address",
          "name": "user",
          "type": "address"
        },
        {
          "indexed": false,
          "internalType": "uint256",
          "name": "reward",
          "type": "uint256"
        }
      ],
      "name": "RewardPaid",
      "type": "event"
    },
    {
      "anonymous": false,
      "inputs": [
        {
          "indexed": true,
          "internalType": "address",
          "name": "user",
          "type": "address"
        },
        {
          "indexed": false,
          "internalType": "uint256",
          "name": "amount",
          "type": "uint256"
        }
      ],
      "name": "Staked",
      "type": "event"
    },
    {
      "anonymous": false,
      "inputs": [
        {
          "indexed": true,
          "internalType": "address",
          "name": "user",
          "type": "address"
        },
        {
          "indexed": false,
          "internalType": "uint256",
          "name": "amount",
          "type": "uint256"
        }
      ],
      "name": "Withdrawn",
      "type": "event"
    },
    {
      "constant": true,
      "inputs": [],
      "name": "DURATION",
      "outputs": [
        {
          "internalType": "uint256",
          "name": "",
          "type": "uint256"
        }
      ],
      "payable": false,
      "stateMutability": "view",
      "type": "function"
    },
    {
      "constant": true,
      "inputs": [],
      "name": "initialized",
      "outputs": [
        {
          "internalType": "bool",
          "name": "",
          "type": "bool"
        }
      ],
      "payable": false,
      "stateMutability": "view",
      "type": "function"
    },
    {
      "constant": true,
      "inputs": [],
      "name": "initreward",
      "outputs": [
        {
          "internalType": "uint256",
          "name": "",
          "type": "uint256"
        }
      ],
      "payable": false,
      "stateMutability": "view",
      "type": "function"
    },
    {
      "constant": true,
      "inputs": [],
      "name": "isOwner",
      "outputs": [
        {
          "internalType": "bool",
          "name": "",
          "type": "bool"
        }
      ],
      "payable": false,
      "stateMutability": "view",
      "type": "function"
    },
    {
      "constant": true,
      "inputs": [],
      "name": "lastUpdateTime",
      "outputs": [
        {
          "internalType": "uint256",
          "name": "",
          "type": "uint256"
        }
      ],
      "payable": false,
      "stateMutability": "view",
      "type": "function"
    },
    {
      "constant": true,
      "inputs": [],
      "name": "name",
      "outputs": [
        {
          "internalType": "string",
          "name": "",
          "type": "string"
        }
      ],
      "payable": false,
      "stateMutability": "view",
      "type": "function"
    },
    {
      "constant": true,
      "inputs": [],
      "name": "owner",
      "outputs": [
        {
          "internalType": "address",
          "name": "",
          "type": "address"
        }
      ],
      "payable": false,
      "stateMutability": "view",
      "type": "function"
    },
    {
      "constant": true,
      "inputs": [],
      "name": "periodFinish",
      "outputs": [
        {
          "internalType": "uint256",
          "name": "",
          "type": "uint256"
        }
      ],
      "payable": false,
      "stateMutability": "view",
      "type": "function"
    },
    {
      "constant": false,
      "inputs": [],
      "name": "renounceOwnership",
      "outputs": [],
      "payable": false,
      "stateMutability": "nonpayable",
      "type": "function"
    },
    {
      "constant": true,
      "inputs": [],
      "name": "rewardPerTokenStored",
      "outputs": [
        {
          "internalType": "uint256",
          "name": "",
          "type": "uint256"
        }
      ],
      "payable": false,
      "stateMutability": "view",
      "type": "function"
    },
    {
      "constant": true,
      "inputs": [],
      "name": "rewardRate",
      "outputs": [
        {
          "internalType": "uint256",
          "name": "",
          "type": "uint256"
        }
      ],
      "payable": false,
      "stateMutability": "view",
      "type": "function"
    },
    {
      "constant": true,
      "inputs": [],
      "name": "rewardToken",
      "outputs": [
        {
          "internalType": "address",
          "name": "",
          "type": "address"
        }
      ],
      "payable": false,
      "stateMutability": "view",
      "type": "function"
    },
    {
      "constant": true,
      "inputs": [
        {
          "internalType": "address",
          "name": "",
          "type": "address"
        }
      ],
      "name": "rewards",
      "outputs": [
        {
          "internalType": "uint256",
          "name": "",
          "type": "uint256"
        }
      ],
      "payable": false,
      "stateMutability": "view",
      "type": "function"
    },
    {
      "constant": false,
      "inputs": [
        {
          "internalType": "address",
          "name": "_rewardDistribution",
          "type": "address"
        }
      ],
      "name": "setRewardDistribution",
      "outputs": [],
      "payable": false,
      "stateMutability": "nonpayable",
      "type": "function"
    },
    {
      "constant": true,
      "inputs": [],
      "name": "stakingToken",
      "outputs": [
        {
          "internalType": "address",
          "name": "",
          "type": "address"
        }
      ],
      "payable": false,
      "stateMutability": "view",
      "type": "function"
    },
    {
      "constant": true,
      "inputs": [],
      "name": "starttime",
      "outputs": [
        {
          "internalType": "uint256",
          "name": "",
          "type": "uint256"
        }
      ],
      "payable": false,
      "stateMutability": "view",
      "type": "function"
    },
    {
      "constant": false,
      "inputs": [
        {
          "internalType": "address",
          "name": "newOwner",
          "type": "address"
        }
      ],
      "name": "transferOwnership",
      "outputs": [],
      "payable": false,
      "stateMutability": "nonpayable",
      "type": "function"
    },
    {
      "constant": true,
      "inputs": [
        {
          "internalType": "address",
          "name": "",
          "type": "address"
        }
      ],
      "name": "userRewardPerTokenPaid",
      "outputs": [
        {
          "internalType": "uint256",
          "name": "",
          "type": "uint256"
        }
      ],
      "payable": false,
      "stateMutability": "view",
      "type": "function"
    },
    {
      "constant": false,
      "inputs": [
        {
          "internalType": "string",
          "name": "_name",
          "type": "string"
        },
        {
          "internalType": "address",
          "name": "_rewardToken",
          "type": "address"
        },
        {
          "internalType": "address",
          "name": "_stakingToken",
          "type": "address"
        },
        {
          "internalType": "uint256",
          "name": "_initreward",
          "type": "uint256"
        },
        {
          "internalType": "uint256",
          "name": "_starttime",
          "type": "uint256"
        },
        {
          "internalType": "uint256",
          "name": "_duration",
          "type": "uint256"
        },
        {
          "internalType": "address",
          "name": "_avatar",
          "type": "address"
        }
      ],
      "name": "initialize",
      "outputs": [],
      "payable": false,
      "stateMutability": "nonpayable",
      "type": "function"
    },
    {
      "constant": false,
      "inputs": [
        {
          "internalType": "uint256",
          "name": "reward",
          "type": "uint256"
        }
      ],
      "name": "notifyRewardAmount",
      "outputs": [],
      "payable": false,
      "stateMutability": "nonpayable",
      "type": "function"
    },
    {
      "constant": false,
      "inputs": [
        {
          "internalType": "address",
          "name": "_token",
          "type": "address"
        },
        {
          "internalType": "uint256",
          "name": "amount",
          "type": "uint256"
        },
        {
          "internalType": "address",
          "name": "to",
          "type": "address"
        }
      ],
      "name": "rescueTokens",
      "outputs": [],
      "payable": false,
      "stateMutability": "nonpayable",
      "type": "function"
    },
    {
      "constant": false,
      "inputs": [],
      "name": "exit",
      "outputs": [],
      "payable": false,
      "stateMutability": "nonpayable",
      "type": "function"
    },
    {
      "constant": true,
      "inputs": [],
      "name": "lastTimeRewardApplicable",
      "outputs": [
        {
          "internalType": "uint256",
          "name": "",
          "type": "uint256"
        }
      ],
      "payable": false,
      "stateMutability": "view",
      "type": "function"
    },
    {
      "constant": true,
      "inputs": [],
      "name": "rewardPerToken",
      "outputs": [
        {
          "internalType": "uint256",
          "name": "",
          "type": "uint256"
        }
      ],
      "payable": false,
      "stateMutability": "view",
      "type": "function"
    },
    {
      "constant": true,
      "inputs": [
        {
          "internalType": "address",
          "name": "account",
          "type": "address"
        }
      ],
      "name": "earned",
      "outputs": [
        {
          "internalType": "uint256",
          "name": "",
          "type": "uint256"
        }
      ],
      "payable": false,
      "stateMutability": "view",
      "type": "function"
    },
    {
      "constant": false,
      "inputs": [
        {
          "internalType": "uint256",
          "name": "amount",
          "type": "uint256"
        }
      ],
      "name": "stake",
      "outputs": [],
      "payable": false,
      "stateMutability": "nonpayable",
      "type": "function"
    },
    {
      "constant": false,
      "inputs": [
        {
          "internalType": "uint256",
          "name": "amount",
          "type": "uint256"
        }
      ],
      "name": "withdraw",
      "outputs": [],
      "payable": false,
      "stateMutability": "nonpayable",
      "type": "function"
    },
    {
      "constant": false,
      "inputs": [],
      "name": "getReward",
      "outputs": [],
      "payable": false,
      "stateMutability": "nonpayable",
      "type": "function"
    },
    {
      "constant": true,
      "inputs": [],
      "name": "totalSupply",
      "outputs": [
        {
          "internalType": "uint256",
          "name": "",
          "type": "uint256"
        }
      ],
      "payable": false,
      "stateMutability": "view",
      "type": "function"
    },
    {
      "constant": true,
      "inputs": [
        {
          "internalType": "address",
          "name": "account",
          "type": "address"
        }
      ],
      "name": "balanceOf",
      "outputs": [
        {
          "internalType": "uint256",
          "name": "",
          "type": "uint256"
        }
      ],
      "payable": false,
      "stateMutability": "view",
      "type": "function"
    }
  ],
  "bytecode": "0x608060405260006100176001600160e01b0361008a16565b600080546001600160a01b0319166001600160a01b0383169081178255604051929350917f8be0079c531659141344cd1fd0a4f28419497f9722a3daafe3b4186f6b6457e0908290a3506001805460ff60a01b19167401000000000000000000000000000000000000000017905561008e565b3390565b611f148061009d6000396000f3fe608060405234801561001057600080fd5b50600436106101d95760003560e01c80638b87634711610104578063c8f33c91116100a2578063e9fad8ee11610071578063e9fad8ee146104fd578063ebe2b12b14610505578063f2fde38b1461050d578063f7c618c114610533576101d9565b8063c8f33c911461044a578063cd3daf9d14610452578063df136d651461045a578063df9f2eff14610462576101d9565b80638f32d59b116100de5780638f32d59b146103e75780639c907b58146103ef578063a694fc3a146103f7578063b37fd19014610414576101d9565b80638b876347146103b15780638da58897146103d75780638da5cb5b146103df576101d9565b80632e1a7d4d1161017c578063715018a61161014b578063715018a61461037557806372f702f31461037d5780637b0a47ee146103a157806380faa57d146103a9576101d9565b80632e1a7d4d1461030d5780633c6b16ab1461032a5780633d18b9121461034757806370a082311461034f576101d9565b80630d68b761116101b85780630d68b761146102b9578063158ef93e146102e157806318160ddd146102fd5780631be0528914610305576101d9565b80628cc262146101de57806306fdde03146102165780630700037d14610293575b600080fd5b610204600480360360208110156101f457600080fd5b50356001600160a01b031661053b565b60408051918252519081900360200190f35b61021e6105d1565b6040805160208082528351818301528351919283929083019185019080838360005b83811015610258578181015183820152602001610240565b50505050905090810190601f1680156102855780820380516001836020036101000a031916815260200191505b509250505060405180910390f35b610204600480360360208110156102a957600080fd5b50356001600160a01b031661065c565b6102df600480360360208110156102cf57600080fd5b50356001600160a01b031661066e565b005b6102e96106e9565b604080519115158252519081900360200190f35b6102046106f9565b610204610700565b6102df6004803603602081101561032357600080fd5b5035610706565b6102df6004803603602081101561034057600080fd5b50356108fc565b6102df610b8f565b6102046004803603602081101561036557600080fd5b50356001600160a01b0316610d7a565b6102df610d95565b610385610e38565b604080516001600160a01b039092168252519081900360200190f35b610204610e47565b610204610e4d565b610204600480360360208110156103c757600080fd5b50356001600160a01b0316610e60565b610204610e72565b610385610e78565b6102e9610e87565b610204610eab565b6102df6004803603602081101561040d57600080fd5b5035610eb1565b6102df6004803603606081101561042a57600080fd5b506001600160a01b038135811691602081013591604090910135166110bd565b610204611257565b61020461125d565b6102046112b7565b6102df600480360360e081101561047857600080fd5b81019060208101813564010000000081111561049357600080fd5b8201836020820111156104a557600080fd5b803590602001918460018302840111640100000000831117156104c757600080fd5b91935091506001600160a01b038135811691602081013582169160408201359160608101359160808201359160a00135166112bd565b6102df6114b9565b6102046114dc565b6102df6004803603602081101561052357600080fd5b50356001600160a01b03166114e2565b610385611547565b6001600160a01b0381166000908152600d6020908152604080832054600c9092528220546105cb91906105bf90670de0b6b3a7640000906105b39061058e9061058261125d565b9063ffffffff61155616565b6001600160a01b0388166000908152600f60205260409020549063ffffffff61159f16565b9063ffffffff6115f816565b9063ffffffff61163a16565b92915050565b6002805460408051602060018416156101000260001901909316849004601f810184900484028201840190925281815292918301828280156106545780601f1061062957610100808354040283529160200191610654565b820191906000526020600020905b81548152906001019060200180831161063757829003601f168201915b505050505081565b600d6020526000908152604090205481565b610676610e87565b6106c7576040805162461bcd60e51b815260206004820181905260248201527f4f776e61626c653a2063616c6c6572206973206e6f7420746865206f776e6572604482015290519081900360640190fd5b600180546001600160a01b0319166001600160a01b0392909216919091179055565b600454600160a01b900460ff1681565b600e545b90565b60055481565b600154600160a01b900460ff16610764576040805162461bcd60e51b815260206004820152601f60248201527f5265656e7472616e637947756172643a207265656e7472616e742063616c6c00604482015290519081900360640190fd5b6001805460ff60a01b191690553361077a61125d565b600b55610785610e4d565b600a556001600160a01b038116156107cc576107a08161053b565b6001600160a01b0382166000908152600d6020908152604080832093909355600b54600c909152919020555b600454600160a01b900460ff166108145760405162461bcd60e51b8152600401808060200182810382526028815260200180611d346028913960400191505060405180910390fd5b600754421015610867576040805162461bcd60e51b815260206004820152601960248201527814dd185ada5b99d4995dd85c991cce881b9bdd081cdd185c9d603a1b604482015290519081900360640190fd5b600082116108a65760405162461bcd60e51b8152600401808060200182810382526021815260200180611d5c6021913960400191505060405180910390fd5b6108af82611694565b60408051838152905133917f7084f5476618d8e60b11ef0d7d3f06914655adb8793e28ff7f018d4c76d505d5919081900360200190a250506001805460ff60a01b1916600160a01b179055565b600454600160a01b900460ff166109445760405162461bcd60e51b8152600401808060200182810382526028815260200180611d346028913960400191505060405180910390fd5b6001546001600160a01b03166109586116f6565b6001600160a01b03161461099d5760405162461bcd60e51b8152600401808060200182810382526021815260200180611e6f6021913960400191505060405180910390fd5b60006109a761125d565b600b556109b2610e4d565b600a556001600160a01b038116156109f9576109cd8161053b565b6001600160a01b0382166000908152600d6020908152604080832093909355600b54600c909152919020555b6008544210610a1e57600554610a1690839063ffffffff6115f816565b600955610a6d565b600854600090610a34904263ffffffff61155616565b90506000610a4d6009548361159f90919063ffffffff16565b600554909150610a67906105b3868463ffffffff61163a16565b60095550505b600354604080516370a0823160e01b815230600482015290516000926001600160a01b0316916370a08231916024808301926020929190829003018186803b158015610ab857600080fd5b505afa158015610acc573d6000803e3d6000fd5b505050506040513d6020811015610ae257600080fd5b5051600554909150610afb90829063ffffffff6115f816565b6009541115610b3b5760405162461bcd60e51b8152600401808060200182810382526028815260200180611eb86028913960400191505060405180910390fd5b42600a819055600554610b54919063ffffffff61163a16565b6008556040805184815290517fde88a922e0d3b88b24e9623efeb464919c6bf9f66857a65e2bfcf2ce87a9433d9181900360200190a1505050565b600154600160a01b900460ff16610bed576040805162461bcd60e51b815260206004820152601f60248201527f5265656e7472616e637947756172643a207265656e7472616e742063616c6c00604482015290519081900360640190fd5b6001805460ff60a01b1916905533610c0361125d565b600b55610c0e610e4d565b600a556001600160a01b03811615610c5557610c298161053b565b6001600160a01b0382166000908152600d6020908152604080832093909355600b54600c909152919020555b600454600160a01b900460ff16610c9d5760405162461bcd60e51b8152600401808060200182810382526028815260200180611d346028913960400191505060405180910390fd5b600754421015610cf0576040805162461bcd60e51b815260206004820152601960248201527814dd185ada5b99d4995dd85c991cce881b9bdd081cdd185c9d603a1b604482015290519081900360640190fd5b6000610cfb3361053b565b90508015610d6357336000818152600d6020526040812055600354610d2c916001600160a01b0390911690836116fa565b60408051828152905133917fe2403640ba68fed3a2f88b7557551d1993f84b99bb10ff833f0cf8db0c5e0486919081900360200190a25b50506001805460ff60a01b1916600160a01b179055565b6001600160a01b03166000908152600f602052604090205490565b610d9d610e87565b610dee576040805162461bcd60e51b815260206004820181905260248201527f4f776e61626c653a2063616c6c6572206973206e6f7420746865206f776e6572604482015290519081900360640190fd5b600080546040516001600160a01b03909116907f8be0079c531659141344cd1fd0a4f28419497f9722a3daafe3b4186f6b6457e0908390a3600080546001600160a01b0319169055565b6004546001600160a01b031681565b60095481565b6000610e5b4260085461187c565b905090565b600c6020526000908152604090205481565b60075481565b6000546001600160a01b031690565b600080546001600160a01b0316610e9c6116f6565b6001600160a01b031614905090565b60065481565b600154600160a01b900460ff16610f0f576040805162461bcd60e51b815260206004820152601f60248201527f5265656e7472616e637947756172643a207265656e7472616e742063616c6c00604482015290519081900360640190fd5b6001805460ff60a01b1916905533610f2561125d565b600b55610f30610e4d565b600a556001600160a01b03811615610f7757610f4b8161053b565b6001600160a01b0382166000908152600d6020908152604080832093909355600b54600c909152919020555b600454600160a01b900460ff16610fbf5760405162461bcd60e51b8152600401808060200182810382526028815260200180611d346028913960400191505060405180910390fd5b600754421015611012576040805162461bcd60e51b815260206004820152601960248201527814dd185ada5b99d4995dd85c991cce881b9bdd081cdd185c9d603a1b604482015290519081900360640190fd5b60008211611067576040805162461bcd60e51b815260206004820152601e60248201527f5374616b696e67526577617264733a2063616e6e6f74207374616b6520300000604482015290519081900360640190fd5b61107082611892565b60408051838152905133917f9e71bc8eea02a63969f509818f2dafb9254532904319f9dbda79b67bd34a5f3d919081900360200190a250506001805460ff60a01b1916600160a01b179055565b600454600160a01b900460ff166111055760405162461bcd60e51b8152600401808060200182810382526028815260200180611d346028913960400191505060405180910390fd5b61110d610e78565b6001600160a01b0316336001600160a01b031614611172576040805162461bcd60e51b815260206004820152601b60248201527f5374616b696e67526577617264733a2021676f7665726e616e63650000000000604482015290519081900360640190fd5b6004546001600160a01b03848116911614156111d5576040805162461bcd60e51b815260206004820152601c60248201527f5374616b696e67526577617264733a207374616b696e67546f6b656e00000000604482015290519081900360640190fd5b6003546001600160a01b0384811691161415611238576040805162461bcd60e51b815260206004820152601b60248201527f5374616b696e67526577617264733a20726577617264546f6b656e0000000000604482015290519081900360640190fd5b6112526001600160a01b038416828463ffffffff6116fa16565b505050565b600a5481565b6000600e54600014156112735750600b546106fd565b610e5b6112a8600e546105b3670de0b6b3a764000061129c60095461129c600a54610582610e4d565b9063ffffffff61159f16565b600b549063ffffffff61163a16565b600b5481565b600454600160a01b900460ff16156113065760405162461bcd60e51b815260040180806020018281038252602c815260200180611dcf602c913960400191505060405180910390fd5b6004805460ff60a01b1916600160a01b1790556001600160a01b03861661135e5760405162461bcd60e51b815260040180806020018281038252602a815260200180611e1c602a913960400191505060405180910390fd5b6001600160a01b0385166113a35760405162461bcd60e51b815260040180806020018281038252602b815260200180611da4602b913960400191505060405180910390fd5b836113df5760405162461bcd60e51b8152600401808060200182810382526029815260200180611e466029913960400191505060405180910390fd5b8261141b5760405162461bcd60e51b8152600401808060200182810382526028815260200180611e906028913960400191505060405180910390fd5b816114575760405162461bcd60e51b8152600401808060200182810382526027815260200180611d7d6027913960400191505060405180910390fd5b61146360028989611c50565b50600380546001600160a01b039788166001600160a01b03199182161790915560048054968816968216969096179095556006939093556007919091556201518002600555600180549190931691161790555050565b336000908152600f60205260409020546114d290610706565b6114da610b8f565b565b60085481565b6114ea610e87565b61153b576040805162461bcd60e51b815260206004820181905260248201527f4f776e61626c653a2063616c6c6572206973206e6f7420746865206f776e6572604482015290519081900360640190fd5b611544816118f5565b50565b6003546001600160a01b031681565b600061159883836040518060400160405280601e81526020017f536166654d6174683a207375627472616374696f6e206f766572666c6f770000815250611995565b9392505050565b6000826115ae575060006105cb565b828202828482816115bb57fe5b04146115985760405162461bcd60e51b8152600401808060200182810382526021815260200180611dfb6021913960400191505060405180910390fd5b600061159883836040518060400160405280601a81526020017f536166654d6174683a206469766973696f6e206279207a65726f000000000000815250611a2c565b600082820183811015611598576040805162461bcd60e51b815260206004820152601b60248201527f536166654d6174683a206164646974696f6e206f766572666c6f770000000000604482015290519081900360640190fd5b600e546116a7908263ffffffff61155616565b600e55336000908152600f60205260409020546116ca908263ffffffff61155616565b336000818152600f6020526040902091909155600454611544916001600160a01b0390911690836116fa565b3390565b61170c836001600160a01b0316611a91565b61171557600080fd5b604080518082018252601981527f7472616e7366657228616464726573732c75696e74323536290000000000000060209182015281516001600160a01b0385811660248301526044808301869052845180840390910181526064909201845291810180516001600160e01b031663a9059cbb60e01b1781529251815160009460609489169392918291908083835b602083106117c25780518252601f1990920191602091820191016117a3565b6001836020036101000a0380198251168184511680821785525050505050509050019150506000604051808303816000865af19150503d8060008114611824576040519150601f19603f3d011682016040523d82523d6000602084013e611829565b606091505b50915091508161183857600080fd5b8051158061186c57508051602014801561186c575080601f8151811061185a57fe5b01602001516001600160f81b03191615155b61187557600080fd5b5050505050565b600081831061188b5781611598565b5090919050565b600e546118a5908263ffffffff61163a16565b600e55336000908152600f60205260409020546118c8908263ffffffff61163a16565b336000818152600f6020526040902091909155600454611544916001600160a01b03909116903084611acd565b6001600160a01b03811661193a5760405162461bcd60e51b8152600401808060200182810382526026815260200180611d0e6026913960400191505060405180910390fd5b600080546040516001600160a01b03808516939216917f8be0079c531659141344cd1fd0a4f28419497f9722a3daafe3b4186f6b6457e091a3600080546001600160a01b0319166001600160a01b0392909216919091179055565b60008184841115611a245760405162461bcd60e51b81526004018080602001828103825283818151815260200191508051906020019080838360005b838110156119e95781810151838201526020016119d1565b50505050905090810190601f168015611a165780820380516001836020036101000a031916815260200191505b509250505060405180910390fd5b505050900390565b60008183611a7b5760405162461bcd60e51b81526020600482018181528351602484015283519092839260449091019190850190808383600083156119e95781810151838201526020016119d1565b506000838581611a8757fe5b0495945050505050565b6000813f7fc5d2460186f7233c927e7db2dcc703c0e500b653ca82273b7bfad8045d85a470818114801590611ac557508115155b949350505050565b611adf846001600160a01b0316611a91565b611ae857600080fd5b60006060856001600160a01b0316604051806060016040528060258152602001611ce9602591398051602091820120604080516001600160a01b03808b166024830152891660448201526064808201899052825180830390910181526084909101825292830180516001600160e01b03166001600160e01b0319909316929092178252518251909182918083835b60208310611b955780518252601f199092019160209182019101611b76565b6001836020036101000a0380198251168184511680821785525050505050509050019150506000604051808303816000865af19150503d8060008114611bf7576040519150601f19603f3d011682016040523d82523d6000602084013e611bfc565b606091505b509150915081611c0b57600080fd5b80511580611c3f575080516020148015611c3f575080601f81518110611c2d57fe5b01602001516001600160f81b03191615155b611c4857600080fd5b505050505050565b828054600181600116156101000203166002900490600052602060002090601f016020900481019282601f10611c915782800160ff19823516178555611cbe565b82800160010185558215611cbe579182015b82811115611cbe578235825591602001919060010190611ca3565b50611cca929150611cce565b5090565b6106fd91905b80821115611cca5760008155600101611cd456fe7472616e7366657246726f6d28616464726573732c616464726573732c75696e74323536294f776e61626c653a206e6577206f776e657220697320746865207a65726f20616464726573735374616b696e67526577617264733a20636f6e7472616374206e6f7420696e697469616c697a65645374616b696e67526577617264733a2043616e6e6f7420776974686472617720305374616b696e67526577617264733a206475726174696f6e2063616e6e6f74206265206e756c6c5374616b696e67526577617264733a207374616b696e67546f6b656e2063616e6e6f74206265206e756c6c5374616b696e67526577617264733a20636f6e747261637420616c726561647920696e697469616c697a6564536166654d6174683a206d756c7469706c69636174696f6e206f766572666c6f775374616b696e67526577617264733a20726577617264546f6b656e2063616e6e6f74206265206e756c6c5374616b696e67526577617264733a20696e69747265776172642063616e6e6f74206265206e756c6c43616c6c6572206973206e6f742072657761726420646973747269627574696f6e5374616b696e67526577617264733a20737461727474696d652063616e6e6f74206265206e756c6c5374616b696e67526577617264733a2050726f76696465642072657761726420746f6f2068696768a265627a7a723158202a2b7fd2d16ce42e0bda330705825412f764642f8da9b89ec815949fb5eb3d6f64736f6c634300050d0032",
  "source": "/*\n\n\n\n\n\n\n\n\n*/\n\n// SPDX-License-Identifier: GPL-3.0-or-later\n\npragma solidity >=0.5.13;\n\nimport \"@daostack/arc/contracts/libs/SafeERC20.sol\";\nimport \"openzeppelin-solidity/contracts/token/ERC20/IERC20.sol\";\nimport \"openzeppelin-solidity/contracts/math/SafeMath.sol\";\nimport \"openzeppelin-solidity/contracts/math/Math.sol\";\nimport \"openzeppelin-solidity/contracts/utils/ReentrancyGuard.sol\";\nimport \"../utils/interfaces/IRewardDistributionRecipient.sol\";\n\n\ncontract StakingRewards is IRewardDistributionRecipient, ReentrancyGuard {\n\n    using SafeMath for uint256;\n    using SafeERC20 for address;\n\n    string  public name;\n\n    address public rewardToken;\n    address public stakingToken;\n\n    bool    public initialized;\n\n    modifier initializer() {\n        require(!initialized, \"StakingRewards: contract already initialized\");\n        initialized = true;\n        _;\n    }\n\n    modifier protected() {\n        require(initialized, \"StakingRewards: contract not initialized\");\n        _;\n    }\n\n    /**\n      * @dev                 Initialize contract.\n      * @param _name         Farm name\n      * @param _rewardToken  Reward token contract address\n      * @param _stakingToken Staking token contract address\n      * @param _initreward   Initial reward\n      * @param _starttime    Start time\n      */\n    function initialize(\n      string calldata _name,\n      address         _rewardToken,\n      address         _stakingToken,\n      uint256         _initreward,\n      uint256         _starttime,\n      uint256         _duration,\n      address         _avatar\n    ) external initializer {\n        require(_rewardToken  != address(0),                  \"StakingRewards: rewardToken cannot be null\");\n        require(_stakingToken != address(0),                  \"StakingRewards: stakingToken cannot be null\");\n        require(_initreward != 0,                             \"StakingRewards: initreward cannot be null\");\n        require(_starttime != 0,                              \"StakingRewards: starttime cannot be null\");\n        require(_duration != 0,                               \"StakingRewards: duration cannot be null\");\n\n        name = _name;\n        rewardToken  = _rewardToken;\n        stakingToken = _stakingToken;\n        initreward = _initreward;\n        starttime = _starttime;\n        DURATION = (_duration * 24 hours);\n\n        rewardDistribution = _avatar;\n    }\n\n    uint256 public DURATION;\n\n    uint256 public initreward;\n    uint256 public starttime;\n    uint256 public periodFinish;\n    uint256 public rewardRate;\n    uint256 public lastUpdateTime;\n    uint256 public rewardPerTokenStored;\n\n    mapping(address => uint256) public userRewardPerTokenPaid;\n    mapping(address => uint256) public rewards;\n\n    uint256 private _totalSupply;\n    mapping(address => uint256) private _balances;\n\n    event RewardAdded(uint256 reward);\n    event Staked(address indexed user, uint256 amount);\n    event Withdrawn(address indexed user, uint256 amount);\n    event RewardPaid(address indexed user, uint256 reward);\n\n    modifier updateReward(address account) {\n        rewardPerTokenStored = rewardPerToken();\n        lastUpdateTime = lastTimeRewardApplicable();\n        if (account != address(0)) {\n            rewards[account] = earned(account);\n            userRewardPerTokenPaid[account] = rewardPerTokenStored;\n        }\n        _;\n    }\n\n    function notifyRewardAmount(uint256 reward) external protected onlyRewardDistribution updateReward(address(0)) {\n         if (block.timestamp >= periodFinish) {\n             rewardRate = reward.div(DURATION);\n         } else {\n             uint256 remaining = periodFinish.sub(block.timestamp);\n             uint256 leftover = remaining.mul(rewardRate);\n             rewardRate = reward.add(leftover).div(DURATION);\n         }\n\n         // Ensure the provided reward amount is not more than the balance in the contract.\n         // This keeps the reward rate in the right range, preventing overflows due to\n         // very high values of rewardRate in the earned and rewardsPerToken functions;\n         // Reward + leftover must be less than 2^256 / 10^18 to avoid overflow.\n         uint balance = IERC20(rewardToken).balanceOf(address(this));\n         require(rewardRate <= balance.div(DURATION), \"StakingRewards: Provided reward too high\");\n\n         lastUpdateTime = block.timestamp;\n         periodFinish = block.timestamp.add(DURATION);\n         emit RewardAdded(reward);\n     }\n\n    // This function allows governance to take unsupported tokens out of the\n    // contract, since this one exists longer than the other pools.\n    // This is in an effort to make someone whole, should they seriously\n    // mess up. There is no guarantee governance will vote to return these.\n    // It also allows for removal of airdropped tokens.\n    function rescueTokens(address _token, uint256 amount, address to)\n        external\n        protected\n    {\n        // only gov\n        require(msg.sender == owner(), \"StakingRewards: !governance\");\n        // cant take staked asset\n        require(_token != stakingToken, \"StakingRewards: stakingToken\");\n        // cant take reward asset\n        require(_token != rewardToken, \"StakingRewards: rewardToken\");\n\n        // transfer to\n        _token.safeTransfer(to, amount);\n    }\n\n    function exit() external {\n        withdraw(_balances[msg.sender]);\n        getReward();\n    }\n\n    function lastTimeRewardApplicable() public view returns (uint256) {\n        return Math.min(block.timestamp, periodFinish);\n    }\n\n    function rewardPerToken() public view returns (uint256) {\n        if (_totalSupply == 0) {\n            return rewardPerTokenStored;\n        }\n        return\n            rewardPerTokenStored.add(\n                lastTimeRewardApplicable()\n                    .sub(lastUpdateTime)\n                    .mul(rewardRate)\n                    .mul(1e18)\n                    .div(_totalSupply)\n            );\n    }\n\n    function earned(address account) public view returns (uint256) {\n        return\n            _balances[account]\n                .mul(rewardPerToken().sub(userRewardPerTokenPaid[account]))\n                .div(1e18)\n                .add(rewards[account]);\n    }\n\n     function stake(uint256 amount) public nonReentrant updateReward(msg.sender) protected checkStart {\n        require(amount > 0, \"StakingRewards: cannot stake 0\");\n        _stake(amount);\n        emit Staked(msg.sender, amount);\n    }\n\n    function withdraw(uint256 amount) public nonReentrant updateReward(msg.sender) protected checkStart {\n        require(amount > 0, \"StakingRewards: Cannot withdraw 0\");\n        _withdraw(amount);\n        emit Withdrawn(msg.sender, amount);\n    }\n\n    function getReward() public nonReentrant updateReward(msg.sender) protected checkStart {\n        uint256 reward = earned(msg.sender);\n        if (reward > 0) {\n            rewards[msg.sender] = 0;\n            rewardToken.safeTransfer(msg.sender, reward);\n            emit RewardPaid(msg.sender, reward);\n        }\n    }\n\n    modifier checkStart(){\n        require(block.timestamp >= starttime,\"StakingRewards: not start\");\n        _;\n    }\n\n    function totalSupply() public view returns (uint256) {\n        return _totalSupply;\n    }\n\n    function balanceOf(address account) public view returns (uint256) {\n        return _balances[account];\n    }\n\n    function _stake(uint256 _amount) private {\n        _totalSupply = _totalSupply.add(_amount);\n        _balances[msg.sender] = _balances[msg.sender].add(_amount);\n        stakingToken.safeTransferFrom(msg.sender, address(this), _amount);\n    }\n\n    function _withdraw(uint256 _amount) private {\n        _totalSupply = _totalSupply.sub(_amount);\n        _balances[msg.sender] = _balances[msg.sender].sub(_amount);\n        stakingToken.safeTransfer(msg.sender, _amount);\n    }\n\n}\n",
  "sourcePath": "/home/tengree/Projects/primedao/contracts/contracts/incentives/StakingRewards.sol",
  "compiler": {
    "name": "solc",
    "version": "0.5.13+commit.5b0b510c.Emscripten.clang"
  },
  "schemaVersion": "3.3.3",
  "updatedAt": "2021-03-10T14:33:18.339Z",
  "devdoc": {
    "methods": {
      "initialize(string,address,address,uint256,uint256,uint256,address)": {
        "details": "Initialize contract.",
        "params": {
          "_initreward": "Initial reward",
          "_name": "Farm name",
          "_rewardToken": "Reward token contract address",
          "_stakingToken": "Staking token contract address",
          "_starttime": "Start time"
        }
      },
      "isOwner()": {
        "details": "Returns true if the caller is the current owner."
      },
      "owner()": {
        "details": "Returns the address of the current owner."
      },
      "renounceOwnership()": {
        "details": "Leaves the contract without owner. It will not be possible to call `onlyOwner` functions anymore. Can only be called by the current owner.     * NOTE: Renouncing ownership will leave the contract without an owner, thereby removing any functionality that is only available to the owner."
      },
      "transferOwnership(address)": {
        "details": "Transfers ownership of the contract to a new account (`newOwner`). Can only be called by the current owner."
      }
    }
  },
  "userdoc": {
    "methods": {}
  }
}