{
  "contractName": "StakingRewards",
  "abi": [
    {
      "anonymous": false,
      "inputs": [
        {
          "indexed": false,
          "internalType": "uint256",
          "name": "reward",
          "type": "uint256"
        }
      ],
      "name": "RewardAdded",
      "type": "event"
    },
    {
      "anonymous": false,
      "inputs": [
        {
          "indexed": true,
          "internalType": "address",
          "name": "user",
          "type": "address"
        },
        {
          "indexed": false,
          "internalType": "uint256",
          "name": "reward",
          "type": "uint256"
        }
      ],
      "name": "RewardPaid",
      "type": "event"
    },
    {
      "anonymous": false,
      "inputs": [
        {
          "indexed": true,
          "internalType": "address",
          "name": "user",
          "type": "address"
        },
        {
          "indexed": false,
          "internalType": "uint256",
          "name": "amount",
          "type": "uint256"
        }
      ],
      "name": "Staked",
      "type": "event"
    },
    {
      "anonymous": false,
      "inputs": [
        {
          "indexed": true,
          "internalType": "address",
          "name": "user",
          "type": "address"
        },
        {
          "indexed": false,
          "internalType": "uint256",
          "name": "amount",
          "type": "uint256"
        }
      ],
      "name": "Withdrawn",
      "type": "event"
    },
    {
      "constant": true,
      "inputs": [],
      "name": "duration",
      "outputs": [
        {
          "internalType": "uint256",
          "name": "",
          "type": "uint256"
        }
      ],
      "payable": false,
      "stateMutability": "view",
      "type": "function"
    },
    {
      "constant": true,
      "inputs": [],
      "name": "initialized",
      "outputs": [
        {
          "internalType": "bool",
          "name": "",
          "type": "bool"
        }
      ],
      "payable": false,
      "stateMutability": "view",
      "type": "function"
    },
    {
      "constant": true,
      "inputs": [],
      "name": "lastUpdateTime",
      "outputs": [
        {
          "internalType": "uint256",
          "name": "",
          "type": "uint256"
        }
      ],
      "payable": false,
      "stateMutability": "view",
      "type": "function"
    },
    {
      "constant": true,
      "inputs": [],
      "name": "name",
      "outputs": [
        {
          "internalType": "string",
          "name": "",
          "type": "string"
        }
      ],
      "payable": false,
      "stateMutability": "view",
      "type": "function"
    },
    {
      "constant": true,
      "inputs": [],
      "name": "periodFinish",
      "outputs": [
        {
          "internalType": "uint256",
          "name": "",
          "type": "uint256"
        }
      ],
      "payable": false,
      "stateMutability": "view",
      "type": "function"
    },
    {
      "constant": true,
      "inputs": [],
      "name": "rewardDistribution",
      "outputs": [
        {
          "internalType": "address",
          "name": "",
          "type": "address"
        }
      ],
      "payable": false,
      "stateMutability": "view",
      "type": "function"
    },
    {
      "constant": true,
      "inputs": [],
      "name": "rewardPerTokenStored",
      "outputs": [
        {
          "internalType": "uint256",
          "name": "",
          "type": "uint256"
        }
      ],
      "payable": false,
      "stateMutability": "view",
      "type": "function"
    },
    {
      "constant": true,
      "inputs": [],
      "name": "rewardRate",
      "outputs": [
        {
          "internalType": "uint256",
          "name": "",
          "type": "uint256"
        }
      ],
      "payable": false,
      "stateMutability": "view",
      "type": "function"
    },
    {
      "constant": true,
      "inputs": [],
      "name": "rewardToken",
      "outputs": [
        {
          "internalType": "address",
          "name": "",
          "type": "address"
        }
      ],
      "payable": false,
      "stateMutability": "view",
      "type": "function"
    },
    {
      "constant": true,
      "inputs": [
        {
          "internalType": "address",
          "name": "",
          "type": "address"
        }
      ],
      "name": "rewards",
      "outputs": [
        {
          "internalType": "uint256",
          "name": "",
          "type": "uint256"
        }
      ],
      "payable": false,
      "stateMutability": "view",
      "type": "function"
    },
    {
      "constant": false,
      "inputs": [
        {
          "internalType": "address",
          "name": "_rewardDistribution",
          "type": "address"
        }
      ],
      "name": "setRewardDistribution",
      "outputs": [],
      "payable": false,
      "stateMutability": "nonpayable",
      "type": "function"
    },
    {
      "constant": true,
      "inputs": [],
      "name": "stakingToken",
      "outputs": [
        {
          "internalType": "address",
          "name": "",
          "type": "address"
        }
      ],
      "payable": false,
      "stateMutability": "view",
      "type": "function"
    },
    {
      "constant": true,
      "inputs": [],
      "name": "starttime",
      "outputs": [
        {
          "internalType": "uint256",
          "name": "",
          "type": "uint256"
        }
      ],
      "payable": false,
      "stateMutability": "view",
      "type": "function"
    },
    {
      "constant": true,
      "inputs": [],
      "name": "totalRewards",
      "outputs": [
        {
          "internalType": "uint256",
          "name": "",
          "type": "uint256"
        }
      ],
      "payable": false,
      "stateMutability": "view",
      "type": "function"
    },
    {
      "constant": true,
      "inputs": [
        {
          "internalType": "address",
          "name": "",
          "type": "address"
        }
      ],
      "name": "userRewardPerTokenPaid",
      "outputs": [
        {
          "internalType": "uint256",
          "name": "",
          "type": "uint256"
        }
      ],
      "payable": false,
      "stateMutability": "view",
      "type": "function"
    },
    {
      "constant": false,
      "inputs": [
        {
          "internalType": "string",
          "name": "_name",
          "type": "string"
        },
        {
          "internalType": "address",
          "name": "_rewardToken",
          "type": "address"
        },
        {
          "internalType": "address",
          "name": "_stakingToken",
          "type": "address"
        },
        {
          "internalType": "uint256",
          "name": "_starttime",
          "type": "uint256"
        },
        {
          "internalType": "uint256",
          "name": "_duration",
          "type": "uint256"
        },
        {
          "internalType": "address",
          "name": "_avatar",
          "type": "address"
        }
      ],
      "name": "initialize",
      "outputs": [],
      "payable": false,
      "stateMutability": "nonpayable",
      "type": "function"
    },
    {
      "constant": false,
      "inputs": [
        {
          "internalType": "uint256",
          "name": "reward",
          "type": "uint256"
        }
      ],
      "name": "notifyRewardAmount",
      "outputs": [],
      "payable": false,
      "stateMutability": "nonpayable",
      "type": "function"
    },
    {
      "constant": false,
      "inputs": [
        {
          "internalType": "address",
          "name": "_token",
          "type": "address"
        },
        {
          "internalType": "uint256",
          "name": "amount",
          "type": "uint256"
        },
        {
          "internalType": "address",
          "name": "to",
          "type": "address"
        }
      ],
      "name": "rescueTokens",
      "outputs": [],
      "payable": false,
      "stateMutability": "nonpayable",
      "type": "function"
    },
    {
      "constant": false,
      "inputs": [],
      "name": "exit",
      "outputs": [],
      "payable": false,
      "stateMutability": "nonpayable",
      "type": "function"
    },
    {
      "constant": true,
      "inputs": [],
      "name": "lastTimeRewardApplicable",
      "outputs": [
        {
          "internalType": "uint256",
          "name": "",
          "type": "uint256"
        }
      ],
      "payable": false,
      "stateMutability": "view",
      "type": "function"
    },
    {
      "constant": true,
      "inputs": [],
      "name": "isActive",
      "outputs": [
        {
          "internalType": "bool",
          "name": "",
          "type": "bool"
        }
      ],
      "payable": false,
      "stateMutability": "view",
      "type": "function"
    },
    {
      "constant": true,
      "inputs": [],
      "name": "rewardPerToken",
      "outputs": [
        {
          "internalType": "uint256",
          "name": "",
          "type": "uint256"
        }
      ],
      "payable": false,
      "stateMutability": "view",
      "type": "function"
    },
    {
      "constant": true,
      "inputs": [
        {
          "internalType": "address",
          "name": "account",
          "type": "address"
        }
      ],
      "name": "earned",
      "outputs": [
        {
          "internalType": "uint256",
          "name": "",
          "type": "uint256"
        }
      ],
      "payable": false,
      "stateMutability": "view",
      "type": "function"
    },
    {
      "constant": false,
      "inputs": [
        {
          "internalType": "uint256",
          "name": "amount",
          "type": "uint256"
        }
      ],
      "name": "stake",
      "outputs": [],
      "payable": false,
      "stateMutability": "nonpayable",
      "type": "function"
    },
    {
      "constant": false,
      "inputs": [
        {
          "internalType": "uint256",
          "name": "amount",
          "type": "uint256"
        }
      ],
      "name": "withdraw",
      "outputs": [],
      "payable": false,
      "stateMutability": "nonpayable",
      "type": "function"
    },
    {
      "constant": false,
      "inputs": [],
      "name": "getReward",
      "outputs": [],
      "payable": false,
      "stateMutability": "nonpayable",
      "type": "function"
    },
    {
      "constant": true,
      "inputs": [],
      "name": "totalSupply",
      "outputs": [
        {
          "internalType": "uint256",
          "name": "",
          "type": "uint256"
        }
      ],
      "payable": false,
      "stateMutability": "view",
      "type": "function"
    },
    {
      "constant": true,
      "inputs": [
        {
          "internalType": "address",
          "name": "account",
          "type": "address"
        }
      ],
      "name": "balanceOf",
      "outputs": [
        {
          "internalType": "uint256",
          "name": "",
          "type": "uint256"
        }
      ],
      "payable": false,
      "stateMutability": "view",
      "type": "function"
    }
  ],
  "bytecode": "0x60806040526000805460ff60a01b191674010000000000000000000000000000000000000000179055611d51806100376000396000f3fe608060405234801561001057600080fd5b50600436106101c35760003560e01c806372f702f3116100f9578063c8f33c9111610097578063e258a6bf11610071578063e258a6bf14610444578063e9fad8ee146104db578063ebe2b12b146104e3578063f7c618c1146104eb576101c3565b8063c8f33c911461042c578063cd3daf9d14610434578063df136d651461043c576101c3565b80638b876347116100d35780638b876347146103ab5780638da58897146103d1578063a694fc3a146103d9578063b37fd190146103f6576101c3565b806372f702f3146103935780637b0a47ee1461039b57806380faa57d146103a3576101c3565b8063158ef93e116101665780632e1a7d4d116101405780632e1a7d4d1461032b5780633c6b16ab146103485780633d18b9121461036557806370a082311461036d576101c3565b8063158ef93e146102ff57806318160ddd1461031b57806322f3e2d414610323576101c3565b80630d68b761116101a25780630d68b761146102a35780630e15561a146102cb5780630fb5a6b4146102d3578063101114cf146102db576101c3565b80628cc262146101c857806306fdde03146102005780630700037d1461027d575b600080fd5b6101ee600480360360208110156101de57600080fd5b50356001600160a01b03166104f3565b60408051918252519081900360200190f35b610208610589565b6040805160208082528351818301528351919283929083019185019080838360005b8381101561024257818101518382015260200161022a565b50505050905090810190601f16801561026f5780820380516001836020036101000a031916815260200191505b509250505060405180910390f35b6101ee6004803603602081101561029357600080fd5b50356001600160a01b0316610616565b6102c9600480360360208110156102b957600080fd5b50356001600160a01b0316610628565b005b6101ee610693565b6101ee610699565b6102e361069f565b604080516001600160a01b039092168252519081900360200190f35b6103076106ae565b604080519115158252519081900360200190f35b6101ee6106be565b6103076106c5565b6102c96004803603602081101561034157600080fd5b50356106e3565b6102c96004803603602081101561035e57600080fd5b50356108d9565b6102c9610b72565b6101ee6004803603602081101561038357600080fd5b50356001600160a01b0316610d60565b6102e3610d7b565b6101ee610d8a565b6101ee610d90565b6101ee600480360360208110156103c157600080fd5b50356001600160a01b0316610da3565b6101ee610db5565b6102c9600480360360208110156103ef57600080fd5b5035610dbb565b6102c96004803603606081101561040c57600080fd5b506001600160a01b03813581169160208101359160409091013516610fc7565b6101ee61113d565b6101ee611143565b6101ee61119d565b6102c9600480360360c081101561045a57600080fd5b81019060208101813564010000000081111561047557600080fd5b82018360208201111561048757600080fd5b803590602001918460018302840111640100000000831117156104a957600080fd5b91935091506001600160a01b0381358116916020810135821691604082013591606081013591608090910135166111a3565b6102c961143b565b6101ee61145e565b6102e3611464565b6001600160a01b0381166000908152600c6020908152604080832054600b909252822054610583919061057790670de0b6b3a76400009061056b906105469061053a611143565b9063ffffffff61147316565b6001600160a01b0388166000908152600e60205260409020549063ffffffff6114bc16565b9063ffffffff61151516565b9063ffffffff61155716565b92915050565b60018054604080516020600284861615610100026000190190941693909304601f8101849004840282018401909252818152929183018282801561060e5780601f106105e35761010080835404028352916020019161060e565b820191906000526020600020905b8154815290600101906020018083116105f157829003601f168201915b505050505081565b600c6020526000908152604090205481565b6000546001600160a01b031633146106715760405162461bcd60e51b8152600401808060200182810382526021815260200180611c7a6021913960400191505060405180910390fd5b600080546001600160a01b0319166001600160a01b0392909216919091179055565b60055481565b60045481565b6000546001600160a01b031681565b600354600160a01b900460ff1681565b600d545b90565b6000806106dd4260075461147390919063ffffffff16565b11905090565b600054600160a01b900460ff16610741576040805162461bcd60e51b815260206004820152601f60248201527f5265656e7472616e637947756172643a207265656e7472616e742063616c6c00604482015290519081900360640190fd5b6000805460ff60a01b1916905533610757611143565b600a55610762610d90565b6009556001600160a01b038116156107a95761077d816104f3565b6001600160a01b0382166000908152600c6020908152604080832093909355600a54600b909152919020555b600354600160a01b900460ff166107f15760405162461bcd60e51b8152600401808060200182810382526028815260200180611b8a6028913960400191505060405180910390fd5b600654421015610844576040805162461bcd60e51b815260206004820152601960248201527814dd185ada5b99d4995dd85c991cce881b9bdd081cdd185c9d603a1b604482015290519081900360640190fd5b600082116108835760405162461bcd60e51b8152600401808060200182810382526021815260200180611bb26021913960400191505060405180910390fd5b61088c826115b1565b60408051838152905133917f7084f5476618d8e60b11ef0d7d3f06914655adb8793e28ff7f018d4c76d505d5919081900360200190a250506000805460ff60a01b1916600160a01b179055565b600354600160a01b900460ff166109215760405162461bcd60e51b8152600401808060200182810382526028815260200180611b8a6028913960400191505060405180910390fd5b6000546001600160a01b0316331461096a5760405162461bcd60e51b8152600401808060200182810382526021815260200180611c7a6021913960400191505060405180910390fd5b6000610974611143565b600a5561097f610d90565b6009556001600160a01b038116156109c65761099a816104f3565b6001600160a01b0382166000908152600c6020908152604080832093909355600a54600b909152919020555b60075442106109eb576004546109e390839063ffffffff61151516565b600855610a3a565b600754600090610a01904263ffffffff61147316565b90506000610a1a600854836114bc90919063ffffffff16565b600454909150610a349061056b868463ffffffff61155716565b60085550505b600254604080516370a0823160e01b815230600482015290516000926001600160a01b0316916370a08231916024808301926020929190829003018186803b158015610a8557600080fd5b505afa158015610a99573d6000803e3d6000fd5b505050506040513d6020811015610aaf57600080fd5b5051600454909150610ac890829063ffffffff61151516565b6008541115610b085760405162461bcd60e51b8152600401808060200182810382526028815260200180611cc36028913960400191505060405180910390fd5b426009819055600454610b21919063ffffffff61155716565b600755600554610b37908463ffffffff61155716565b6005556040805184815290517fde88a922e0d3b88b24e9623efeb464919c6bf9f66857a65e2bfcf2ce87a9433d9181900360200190a1505050565b600054600160a01b900460ff16610bd0576040805162461bcd60e51b815260206004820152601f60248201527f5265656e7472616e637947756172643a207265656e7472616e742063616c6c00604482015290519081900360640190fd5b6000805460ff60a01b1916905533610be6611143565b600a55610bf1610d90565b6009556001600160a01b03811615610c3857610c0c816104f3565b6001600160a01b0382166000908152600c6020908152604080832093909355600a54600b909152919020555b600354600160a01b900460ff16610c805760405162461bcd60e51b8152600401808060200182810382526028815260200180611b8a6028913960400191505060405180910390fd5b600654421015610cd3576040805162461bcd60e51b815260206004820152601960248201527814dd185ada5b99d4995dd85c991cce881b9bdd081cdd185c9d603a1b604482015290519081900360640190fd5b336000908152600c60205260409020548015610d4957336000818152600c6020526040812055600254610d12916001600160a01b039091169083611616565b60408051828152905133917fe2403640ba68fed3a2f88b7557551d1993f84b99bb10ff833f0cf8db0c5e0486919081900360200190a25b50506000805460ff60a01b1916600160a01b179055565b6001600160a01b03166000908152600e602052604090205490565b6003546001600160a01b031681565b60085481565b6000610d9e42600754611798565b905090565b600b6020526000908152604090205481565b60065481565b600054600160a01b900460ff16610e19576040805162461bcd60e51b815260206004820152601f60248201527f5265656e7472616e637947756172643a207265656e7472616e742063616c6c00604482015290519081900360640190fd5b6000805460ff60a01b1916905533610e2f611143565b600a55610e3a610d90565b6009556001600160a01b03811615610e8157610e55816104f3565b6001600160a01b0382166000908152600c6020908152604080832093909355600a54600b909152919020555b600354600160a01b900460ff16610ec95760405162461bcd60e51b8152600401808060200182810382526028815260200180611b8a6028913960400191505060405180910390fd5b600654421015610f1c576040805162461bcd60e51b815260206004820152601960248201527814dd185ada5b99d4995dd85c991cce881b9bdd081cdd185c9d603a1b604482015290519081900360640190fd5b60008211610f71576040805162461bcd60e51b815260206004820152601e60248201527f5374616b696e67526577617264733a2063616e6e6f74207374616b6520300000604482015290519081900360640190fd5b610f7a826117ae565b60408051838152905133917f9e71bc8eea02a63969f509818f2dafb9254532904319f9dbda79b67bd34a5f3d919081900360200190a250506000805460ff60a01b1916600160a01b179055565b600354600160a01b900460ff1661100f5760405162461bcd60e51b8152600401808060200182810382526028815260200180611b8a6028913960400191505060405180910390fd5b6000546001600160a01b031633146110585760405162461bcd60e51b8152600401808060200182810382526021815260200180611c7a6021913960400191505060405180910390fd5b6003546001600160a01b03848116911614156110bb576040805162461bcd60e51b815260206004820152601c60248201527f5374616b696e67526577617264733a207374616b696e67546f6b656e00000000604482015290519081900360640190fd5b6002546001600160a01b038481169116141561111e576040805162461bcd60e51b815260206004820152601b60248201527f5374616b696e67526577617264733a20726577617264546f6b656e0000000000604482015290519081900360640190fd5b6111386001600160a01b038416828463ffffffff61161616565b505050565b60095481565b6000600d54600014156111595750600a546106c2565b610d9e61118e600d5461056b670de0b6b3a764000061118260085461118260095461053a610d90565b9063ffffffff6114bc16565b600a549063ffffffff61155716565b600a5481565b600354600160a01b900460ff16156111ec5760405162461bcd60e51b815260040180806020018281038252602c815260200180611bfa602c913960400191505060405180910390fd5b6003805460ff60a01b1916600160a01b1790556001600160a01b0385166112445760405162461bcd60e51b8152600401808060200182810382526032815260200180611ceb6032913960400191505060405180910390fd5b6001600160a01b0384166112895760405162461bcd60e51b8152600401808060200182810382526033815260200180611c476033913960400191505060405180910390fd5b826112c55760405162461bcd60e51b8152600401808060200182810382526028815260200180611c9b6028913960400191505060405180910390fd5b816113015760405162461bcd60e51b8152600401808060200182810382526027815260200180611bd36027913960400191505060405180910390fd5b61130d60018888611acc565b50600280546001600160a01b038088166001600160a01b031992831681179093556003805488831690841617905560068690556201518085026004908155600080549286169290931691909117909155604080516370a0823160e01b81523092810192909252516370a0823191602480820192602092909190829003018186803b15801561139a57600080fd5b505afa1580156113ae573d6000803e3d6000fd5b505050506040513d60208110156113c457600080fd5b505160058190556004546113de919063ffffffff61151516565b6008554260098190556004546113fa919063ffffffff61155716565b60075560055460408051918252517fde88a922e0d3b88b24e9623efeb464919c6bf9f66857a65e2bfcf2ce87a9433d9181900360200190a150505050505050565b336000908152600e6020526040902054611454906106e3565b61145c610b72565b565b60075481565b6002546001600160a01b031681565b60006114b583836040518060400160405280601e81526020017f536166654d6174683a207375627472616374696f6e206f766572666c6f770000815250611811565b9392505050565b6000826114cb57506000610583565b828202828482816114d857fe5b04146114b55760405162461bcd60e51b8152600401808060200182810382526021815260200180611c266021913960400191505060405180910390fd5b60006114b583836040518060400160405280601a81526020017f536166654d6174683a206469766973696f6e206279207a65726f0000000000008152506118a8565b6000828201838110156114b5576040805162461bcd60e51b815260206004820152601b60248201527f536166654d6174683a206164646974696f6e206f766572666c6f770000000000604482015290519081900360640190fd5b600d546115c4908263ffffffff61147316565b600d55336000908152600e60205260409020546115e7908263ffffffff61147316565b336000818152600e6020526040902091909155600354611613916001600160a01b039091169083611616565b50565b611628836001600160a01b031661190d565b61163157600080fd5b604080518082018252601981527f7472616e7366657228616464726573732c75696e74323536290000000000000060209182015281516001600160a01b0385811660248301526044808301869052845180840390910181526064909201845291810180516001600160e01b031663a9059cbb60e01b1781529251815160009460609489169392918291908083835b602083106116de5780518252601f1990920191602091820191016116bf565b6001836020036101000a0380198251168184511680821785525050505050509050019150506000604051808303816000865af19150503d8060008114611740576040519150601f19603f3d011682016040523d82523d6000602084013e611745565b606091505b50915091508161175457600080fd5b80511580611788575080516020148015611788575080601f8151811061177657fe5b01602001516001600160f81b03191615155b61179157600080fd5b5050505050565b60008183106117a757816114b5565b5090919050565b600d546117c1908263ffffffff61155716565b600d55336000908152600e60205260409020546117e4908263ffffffff61155716565b336000818152600e6020526040902091909155600354611613916001600160a01b03909116903084611949565b600081848411156118a05760405162461bcd60e51b81526004018080602001828103825283818151815260200191508051906020019080838360005b8381101561186557818101518382015260200161184d565b50505050905090810190601f1680156118925780820380516001836020036101000a031916815260200191505b509250505060405180910390fd5b505050900390565b600081836118f75760405162461bcd60e51b815260206004820181815283516024840152835190928392604490910191908501908083836000831561186557818101518382015260200161184d565b50600083858161190357fe5b0495945050505050565b6000813f7fc5d2460186f7233c927e7db2dcc703c0e500b653ca82273b7bfad8045d85a47081811480159061194157508115155b949350505050565b61195b846001600160a01b031661190d565b61196457600080fd5b60006060856001600160a01b0316604051806060016040528060258152602001611b65602591398051602091820120604080516001600160a01b03808b166024830152891660448201526064808201899052825180830390910181526084909101825292830180516001600160e01b03166001600160e01b0319909316929092178252518251909182918083835b60208310611a115780518252601f1990920191602091820191016119f2565b6001836020036101000a0380198251168184511680821785525050505050509050019150506000604051808303816000865af19150503d8060008114611a73576040519150601f19603f3d011682016040523d82523d6000602084013e611a78565b606091505b509150915081611a8757600080fd5b80511580611abb575080516020148015611abb575080601f81518110611aa957fe5b01602001516001600160f81b03191615155b611ac457600080fd5b505050505050565b828054600181600116156101000203166002900490600052602060002090601f016020900481019282601f10611b0d5782800160ff19823516178555611b3a565b82800160010185558215611b3a579182015b82811115611b3a578235825591602001919060010190611b1f565b50611b46929150611b4a565b5090565b6106c291905b80821115611b465760008155600101611b5056fe7472616e7366657246726f6d28616464726573732c616464726573732c75696e74323536295374616b696e67526577617264733a20636f6e7472616374206e6f7420696e697469616c697a65645374616b696e67526577617264733a2043616e6e6f7420776974686472617720305374616b696e67526577617264733a206475726174696f6e2063616e6e6f74206265206e756c6c5374616b696e67526577617264733a20636f6e747261637420616c726561647920696e697469616c697a6564536166654d6174683a206d756c7469706c69636174696f6e206f766572666c6f775374616b696e67526577617264733a207374616b696e67546f6b656e2063616e6e6f74206265207a65726f206164647265737343616c6c6572206973206e6f742072657761726420646973747269627574696f6e5374616b696e67526577617264733a20737461727474696d652063616e6e6f74206265206e756c6c5374616b696e67526577617264733a2050726f76696465642072657761726420746f6f20686967685374616b696e67526577617264733a20726577617264546f6b656e2063616e6e6f74206265207a65726f2061646472657373a265627a7a723158204cf904af4c5e915effca5e17698296c95252ea92fa7b9bc9b49802aa747bad0864736f6c634300050d0032",
  "source": "/*\n\n\n\n\n\n\n\n\n* ===========\n*\n* StakingRewards.sol originally published by Synthetix under MIT license.\n* Modified by PrimeDAO under GNU General Public License v3.0.\n*\n*/\n\n// SPDX-License-Identifier: GPL-3.0-or-later\n\npragma solidity 0.5.13;\n\nimport \"@daostack/arc/contracts/libs/SafeERC20.sol\";\nimport \"openzeppelin-solidity/contracts/token/ERC20/IERC20.sol\";\nimport \"openzeppelin-solidity/contracts/math/SafeMath.sol\";\nimport \"openzeppelin-solidity/contracts/math/Math.sol\";\nimport \"openzeppelin-solidity/contracts/utils/ReentrancyGuard.sol\";\nimport \"./RewardDistributionRecipient.sol\";\n\n\ncontract StakingRewards is RewardDistributionRecipient, ReentrancyGuard {\n\n    using SafeMath for uint256;\n    using SafeERC20 for address;\n\n    string  public name;\n\n    address public rewardToken;\n    address public stakingToken;\n\n    bool    public initialized;\n\n    uint256 public duration;\n\n    uint256 public totalRewards;\n    uint256 public starttime;\n    uint256 public periodFinish;\n    uint256 public rewardRate;\n    uint256 public lastUpdateTime;\n    uint256 public rewardPerTokenStored;\n\n    modifier initializer() {\n        require(!initialized, \"StakingRewards: contract already initialized\");\n        initialized = true;\n        _;\n    }\n\n    modifier protected() {\n        require(initialized, \"StakingRewards: contract not initialized\");\n        _;\n    }\n\n    /**\n      * @dev                 Initialize contract.\n      * @param _name         Farm name\n      * @param _rewardToken  Reward token contract address\n      * @param _stakingToken Staking token contract address\n      * @param _starttime    Start time\n      * @param _duration     Duration of the staking in days\n      * @param _avatar       Address of reward distribution recepient\n      */\n    function initialize(\n        string calldata _name,\n        address         _rewardToken,\n        address         _stakingToken,\n        uint256         _starttime,\n        uint256         _duration,\n        address         _avatar\n    ) external initializer {\n        require(_rewardToken  != address(0),                  \"StakingRewards: rewardToken cannot be zero address\");\n        require(_stakingToken != address(0),                  \"StakingRewards: stakingToken cannot be zero address\");\n        require(_starttime != 0,                              \"StakingRewards: starttime cannot be null\");\n        require(_duration != 0,                               \"StakingRewards: duration cannot be null\");\n\n        name = _name;\n        rewardToken  = _rewardToken;\n        stakingToken = _stakingToken;\n        starttime = _starttime;\n        duration = (_duration * 24 hours);\n\n        rewardDistribution = _avatar;\n\n        // initial notifyRewardsAmount\n        totalRewards = IERC20(_rewardToken).balanceOf(address(this));\n        rewardRate = totalRewards.div(duration);\n        lastUpdateTime = block.timestamp;\n        periodFinish = block.timestamp.add(duration);\n        emit RewardAdded(totalRewards);\n    }\n\n    mapping(address => uint256) public userRewardPerTokenPaid;\n    mapping(address => uint256) public rewards;\n\n    uint256 private _totalSupply;\n    mapping(address => uint256) private _balances;\n\n    event RewardAdded(uint256 reward);\n    event Staked(address indexed user, uint256 amount);\n    event Withdrawn(address indexed user, uint256 amount);\n    event RewardPaid(address indexed user, uint256 reward);\n\n    modifier updateReward(address account) {\n        rewardPerTokenStored = rewardPerToken();\n        lastUpdateTime = lastTimeRewardApplicable();\n        if (account != address(0)) {\n            rewards[account] = earned(account);\n            userRewardPerTokenPaid[account] = rewardPerTokenStored;\n        }\n        _;\n    }\n\n    function notifyRewardAmount(uint256 reward) external protected onlyRewardDistribution updateReward(address(0)) {\n        if (block.timestamp >= periodFinish) {\n            rewardRate = reward.div(duration);\n        } else {\n            uint256 remaining = periodFinish.sub(block.timestamp);\n            uint256 leftover = remaining.mul(rewardRate);\n            rewardRate = reward.add(leftover).div(duration);\n        }\n\n        // Ensure the provided reward amount is not more than the balance in the contract.\n        // This keeps the reward rate in the right range, preventing overflows due to\n        // very high values of rewardRate in the earned and rewardsPerToken functions;\n        // Reward + leftover must be less than 2^256 / 10^18 to avoid overflow.\n        uint balance = IERC20(rewardToken).balanceOf(address(this));\n        require(rewardRate <= balance.div(duration), \"StakingRewards: Provided reward too high\");\n\n        lastUpdateTime = block.timestamp;\n        periodFinish = block.timestamp.add(duration);\n        totalRewards = totalRewards.add(reward);\n        emit RewardAdded(reward);\n    }\n\n    // This function allows governance to take unsupported tokens out of the\n    // contract, since this one exists longer than the other pools.\n    // This is in an effort to make someone whole, should they seriously\n    // mess up. There is no guarantee governance will vote to return these.\n    // It also allows for removal of airdropped tokens.\n    function rescueTokens(address _token, uint256 amount, address to)\n    external\n    protected\n    onlyRewardDistribution\n    {\n        // cant take staked asset\n        require(_token != stakingToken, \"StakingRewards: stakingToken\");\n        // cant take reward asset\n        require(_token != rewardToken, \"StakingRewards: rewardToken\");\n\n        // transfer to\n        _token.safeTransfer(to, amount);\n    }\n\n    function exit() external {\n        withdraw(_balances[msg.sender]);\n        getReward();\n    }\n\n    function lastTimeRewardApplicable() public view returns (uint256) {\n        return Math.min(block.timestamp, periodFinish);\n    }\n\n    function isActive() public view returns (bool) {\n        return (periodFinish.sub(block.timestamp)>0);\n    }\n\n    function rewardPerToken() public view returns (uint256) {\n        if (_totalSupply == 0) {\n            return rewardPerTokenStored;\n        }\n        return\n        rewardPerTokenStored.add(\n            lastTimeRewardApplicable()\n            .sub(lastUpdateTime)\n            .mul(rewardRate)\n            .mul(1e18)\n            .div(_totalSupply)\n        );\n    }\n\n    function earned(address account) public view returns (uint256) {\n        return\n        _balances[account]\n        .mul(rewardPerToken().sub(userRewardPerTokenPaid[account]))\n        .div(1e18)\n        .add(rewards[account]);\n    }\n\n    function stake(uint256 amount) public nonReentrant updateReward(msg.sender) protected checkStart {\n        require(amount > 0, \"StakingRewards: cannot stake 0\");\n        _stake(amount);\n        emit Staked(msg.sender, amount);\n    }\n\n    function withdraw(uint256 amount) public nonReentrant updateReward(msg.sender) protected checkStart {\n        require(amount > 0, \"StakingRewards: Cannot withdraw 0\");\n        _withdraw(amount);\n        emit Withdrawn(msg.sender, amount);\n    }\n\n    function getReward() public nonReentrant updateReward(msg.sender) protected checkStart {\n        uint256 reward = rewards[msg.sender];\n        if (reward > 0) {\n            rewards[msg.sender] = 0;\n            rewardToken.safeTransfer(msg.sender, reward);\n            emit RewardPaid(msg.sender, reward);\n        }\n    }\n\n    modifier checkStart(){\n        require(block.timestamp >= starttime,\"StakingRewards: not start\");\n        _;\n    }\n\n    function totalSupply() public view returns (uint256) {\n        return _totalSupply;\n    }\n\n    function balanceOf(address account) public view returns (uint256) {\n        return _balances[account];\n    }\n\n    function _stake(uint256 _amount) private {\n        _totalSupply = _totalSupply.add(_amount);\n        _balances[msg.sender] = _balances[msg.sender].add(_amount);\n        stakingToken.safeTransferFrom(msg.sender, address(this), _amount);\n    }\n\n    function _withdraw(uint256 _amount) private {\n        _totalSupply = _totalSupply.sub(_amount);\n        _balances[msg.sender] = _balances[msg.sender].sub(_amount);\n        stakingToken.safeTransfer(msg.sender, _amount);\n    }\n}\n",
  "sourcePath": "/home/kin/Projects/primedao/contracts/contracts/incentives/StakingRewards.sol",
  "compiler": {
    "name": "solc",
    "version": "0.5.13+commit.5b0b510c.Emscripten.clang"
  },
  "schemaVersion": "3.2.4",
  "updatedAt": "2021-05-10T11:00:12.706Z",
  "devdoc": {
    "methods": {
      "initialize(string,address,address,uint256,uint256,address)": {
        "details": "Initialize contract.",
        "params": {
          "_avatar": "Address of reward distribution recepient",
          "_duration": "Duration of the staking in days",
          "_name": "Farm name",
          "_rewardToken": "Reward token contract address",
          "_stakingToken": "Staking token contract address",
          "_starttime": "Start time"
        }
      }
    }
  },
  "userdoc": {
    "methods": {}
  }
}