{
  "contractName": "VestingFactory",
  "abi": [
    {
      "anonymous": false,
      "inputs": [
        {
          "indexed": false,
          "internalType": "address",
          "name": "vestingContractAddress",
          "type": "address"
        }
      ],
      "name": "VestingCreated",
      "type": "event"
    },
    {
      "constant": false,
      "inputs": [
        {
          "internalType": "address",
          "name": "owner",
          "type": "address"
        },
        {
          "internalType": "address",
          "name": "beneficiary",
          "type": "address"
        },
        {
          "internalType": "uint256",
          "name": "start",
          "type": "uint256"
        },
        {
          "internalType": "uint256",
          "name": "cliffDuration",
          "type": "uint256"
        },
        {
          "internalType": "uint256",
          "name": "duration",
          "type": "uint256"
        },
        {
          "internalType": "bool",
          "name": "revocable",
          "type": "bool"
        }
      ],
      "name": "create",
      "outputs": [
        {
          "internalType": "address",
          "name": "",
          "type": "address"
        }
      ],
      "payable": false,
      "stateMutability": "nonpayable",
      "type": "function"
    }
  ],
  "bytecode": "0x608060405234801561001057600080fd5b5061147a806100206000396000f3fe608060405234801561001057600080fd5b506004361061002b5760003560e01c80636a132ea614610030575b600080fd5b61007a600480360360c081101561004657600080fd5b506001600160a01b03813581169160208101359091169060408101359060608101359060808101359060a001351515610096565b604080516001600160a01b039092168252519081900360200190f35b60006001600160a01b0387166100dd5760405162461bcd60e51b815260040180806020018281038252602981526020018061141d6029913960400191505060405180910390fd5b600086868686866040516100f0906101f4565b6001600160a01b039095168552602085019390935260408085019290925260608401529015156080830152519081900360a001906000f080158015610139573d6000803e3d6000fd5b509050806001600160a01b031663f2fde38b896040518263ffffffff1660e01b815260040180826001600160a01b03166001600160a01b03168152602001915050600060405180830381600087803b15801561019457600080fd5b505af11580156101a8573d6000803e3d6000fd5b5050604080516001600160a01b038516815290517fe4fb76c0ff20ae19784efe78af7946d749e229fec6e13499ab078f997113d6d39350908190036020019150a1979650505050505050565b61121b806102028339019056fe60806040523480156200001157600080fd5b506040516200121b3803806200121b833981810160405260a08110156200003757600080fd5b5080516020820151604083015160608401516080909401519293919290919060006200006b6001600160e01b03620002aa16565b600080546001600160a01b0319166001600160a01b0383169081178255604051929350917f8be0079c531659141344cd1fd0a4f28419497f9722a3daafe3b4186f6b6457e0908290a3506001600160a01b03851662000116576040517f08c379a000000000000000000000000000000000000000000000000000000000815260040180806020018281038252602d815260200180620011c3602d913960400191505060405180910390fd5b8183111562000171576040517f08c379a000000000000000000000000000000000000000000000000000000000815260040180806020018281038252602b815260200180620011f0602b913960400191505060405180910390fd5b60008211620001e157604080517f08c379a000000000000000000000000000000000000000000000000000000000815260206004820152601b60248201527f546f6b656e56657374696e673a206475726174696f6e20697320300000000000604482015290519081900360640190fd5b42620001fc8386620002ae60201b6200071d1790919060201c565b1162000254576040517f08c379a000000000000000000000000000000000000000000000000000000000815260040180806020018281038252602f81526020018062001194602f913960400191505060405180910390fd5b600180546001600160a01b0319166001600160a01b0387161790556005805460ff191682151517905560048290556200029a8484620002ae602090811b6200071d17901c565b600255505050600355506200032a565b3390565b6000828201838110156200032357604080517f08c379a000000000000000000000000000000000000000000000000000000000815260206004820152601b60248201527f536166654d6174683a206164646974696f6e206f766572666c6f770000000000604482015290519081900360640190fd5b9392505050565b610e5a806200033a6000396000f3fe608060405234801561001057600080fd5b50600436106100cf5760003560e01c8063872a78101161008c5780639852595c116100665780639852595c1461019c578063be9a6555146101c2578063f2fde38b146101ca578063fa01dc06146101f0576100cf565b8063872a7810146101705780638da5cb5b1461018c5780638f32d59b14610194576100cf565b80630fb5a6b4146100d457806313d033c0146100ee57806319165587146100f657806338af3eed1461011e578063715018a61461014257806374a8f1031461014a575b600080fd5b6100dc610216565b60408051918252519081900360200190f35b6100dc61021c565b61011c6004803603602081101561010c57600080fd5b50356001600160a01b0316610222565b005b610126610327565b604080516001600160a01b039092168252519081900360200190f35b61011c610336565b61011c6004803603602081101561016057600080fd5b50356001600160a01b03166103d9565b610178610601565b604080519115158252519081900360200190f35b61012661060a565b610178610619565b6100dc600480360360208110156101b257600080fd5b50356001600160a01b031661063d565b6100dc61065c565b61011c600480360360208110156101e057600080fd5b50356001600160a01b0316610662565b6101786004803603602081101561020657600080fd5b50356001600160a01b03166106c7565b60045490565b60025490565b600061022d826106e5565b905060008111610284576040805162461bcd60e51b815260206004820152601f60248201527f546f6b656e56657374696e673a206e6f20746f6b656e73206172652064756500604482015290519081900360640190fd5b6001600160a01b0382166000908152600660205260409020546102ad908263ffffffff61071d16565b6001600160a01b038084166000818152600660205260409020929092556001546102df9291168363ffffffff61077e16565b604080516001600160a01b03841681526020810183905281517fc7798891864187665ac6dd119286e44ec13f014527aeeb2b8eb3fd413df93179929181900390910190a15050565b6001546001600160a01b031690565b61033e610619565b61038f576040805162461bcd60e51b815260206004820181905260248201527f4f776e61626c653a2063616c6c6572206973206e6f7420746865206f776e6572604482015290519081900360640190fd5b600080546040516001600160a01b03909116907f8be0079c531659141344cd1fd0a4f28419497f9722a3daafe3b4186f6b6457e0908390a3600080546001600160a01b0319169055565b6103e1610619565b610432576040805162461bcd60e51b815260206004820181905260248201527f4f776e61626c653a2063616c6c6572206973206e6f7420746865206f776e6572604482015290519081900360640190fd5b60055460ff16610489576040805162461bcd60e51b815260206004820152601b60248201527f546f6b656e56657374696e673a2063616e6e6f74207265766f6b650000000000604482015290519081900360640190fd5b6001600160a01b03811660009081526007602052604090205460ff16156104e15760405162461bcd60e51b8152600401808060200182810382526023815260200180610e036023913960400191505060405180910390fd5b604080516370a0823160e01b815230600482015290516000916001600160a01b038416916370a0823191602480820192602092909190829003018186803b15801561052b57600080fd5b505afa15801561053f573d6000803e3d6000fd5b505050506040513d602081101561055557600080fd5b505190506000610564836106e5565b90506000610578838363ffffffff6107d516565b6001600160a01b0385166000908152600760205260409020805460ff1916600117905590506105bf6105a861060a565b6001600160a01b038616908363ffffffff61077e16565b604080516001600160a01b038616815290517f39983c6d4d174a7aee564f449d4a5c3c7ac9649d72b7793c56901183996f8af69181900360200190a150505050565b60055460ff1690565b6000546001600160a01b031690565b600080546001600160a01b031661062e610817565b6001600160a01b031614905090565b6001600160a01b0381166000908152600660205260409020545b919050565b60035490565b61066a610619565b6106bb576040805162461bcd60e51b815260206004820181905260248201527f4f776e61626c653a2063616c6c6572206973206e6f7420746865206f776e6572604482015290519081900360640190fd5b6106c48161081b565b50565b6001600160a01b031660009081526007602052604090205460ff1690565b6001600160a01b0381166000908152600660205260408120546107179061070b846108bb565b9063ffffffff6107d516565b92915050565b600082820183811015610777576040805162461bcd60e51b815260206004820152601b60248201527f536166654d6174683a206164646974696f6e206f766572666c6f770000000000604482015290519081900360640190fd5b9392505050565b604080516001600160a01b038416602482015260448082018490528251808303909101815260649091019091526020810180516001600160e01b031663a9059cbb60e01b1790526107d0908490610a00565b505050565b600061077783836040518060400160405280601e81526020017f536166654d6174683a207375627472616374696f6e206f766572666c6f770000815250610bbe565b3390565b6001600160a01b0381166108605760405162461bcd60e51b8152600401808060200182810382526026815260200180610d926026913960400191505060405180910390fd5b600080546040516001600160a01b03808516939216917f8be0079c531659141344cd1fd0a4f28419497f9722a3daafe3b4186f6b6457e091a3600080546001600160a01b0319166001600160a01b0392909216919091179055565b604080516370a0823160e01b8152306004820152905160009182916001600160a01b038516916370a08231916024808301926020929190829003018186803b15801561090657600080fd5b505afa15801561091a573d6000803e3d6000fd5b505050506040513d602081101561093057600080fd5b50516001600160a01b0384166000908152600660205260408120549192509061096090839063ffffffff61071d16565b905060025442101561097757600092505050610657565b60045460035461098c9163ffffffff61071d16565b421015806109b257506001600160a01b03841660009081526007602052604090205460ff165b156109c05791506106579050565b6109f76004546109eb6109de600354426107d590919063ffffffff16565b849063ffffffff610c5516565b9063ffffffff610cae16565b92505050610657565b610a12826001600160a01b0316610cf0565b610a63576040805162461bcd60e51b815260206004820152601f60248201527f5361666545524332303a2063616c6c20746f206e6f6e2d636f6e747261637400604482015290519081900360640190fd5b60006060836001600160a01b0316836040518082805190602001908083835b60208310610aa15780518252601f199092019160209182019101610a82565b6001836020036101000a0380198251168184511680821785525050505050509050019150506000604051808303816000865af19150503d8060008114610b03576040519150601f19603f3d011682016040523d82523d6000602084013e610b08565b606091505b509150915081610b5f576040805162461bcd60e51b815260206004820181905260248201527f5361666545524332303a206c6f772d6c6576656c2063616c6c206661696c6564604482015290519081900360640190fd5b805115610bb857808060200190516020811015610b7b57600080fd5b5051610bb85760405162461bcd60e51b815260040180806020018281038252602a815260200180610dd9602a913960400191505060405180910390fd5b50505050565b60008184841115610c4d5760405162461bcd60e51b81526004018080602001828103825283818151815260200191508051906020019080838360005b83811015610c12578181015183820152602001610bfa565b50505050905090810190601f168015610c3f5780820380516001836020036101000a031916815260200191505b509250505060405180910390fd5b505050900390565b600082610c6457506000610717565b82820282848281610c7157fe5b04146107775760405162461bcd60e51b8152600401808060200182810382526021815260200180610db86021913960400191505060405180910390fd5b600061077783836040518060400160405280601a81526020017f536166654d6174683a206469766973696f6e206279207a65726f000000000000815250610d2c565b6000813f7fc5d2460186f7233c927e7db2dcc703c0e500b653ca82273b7bfad8045d85a470818114801590610d2457508115155b949350505050565b60008183610d7b5760405162461bcd60e51b8152602060048201818152835160248401528351909283926044909101919085019080838360008315610c12578181015183820152602001610bfa565b506000838581610d8757fe5b049594505050505056fe4f776e61626c653a206e6577206f776e657220697320746865207a65726f2061646472657373536166654d6174683a206d756c7469706c69636174696f6e206f766572666c6f775361666545524332303a204552433230206f7065726174696f6e20646964206e6f742073756363656564546f6b656e56657374696e673a20746f6b656e20616c7265616479207265766f6b6564a265627a7a72315820328ec83d1f604834034acea3acb7ead88ac75fda31336af40adde833b19cd19964736f6c634300050d0032546f6b656e56657374696e673a2066696e616c2074696d65206973206265666f72652063757272656e742074696d65546f6b656e56657374696e673a2062656e656669636961727920697320746865207a65726f2061646472657373546f6b656e56657374696e673a20636c696666206973206c6f6e676572207468616e206475726174696f6e56657374696e67466163746f72793a206f776e657220697320746865207a65726f2061646472657373a265627a7a72315820661c68f7ecd539162f7845241ed66c85986b0da0fb8498537f3c3e01e3187f0564736f6c634300050d0032",
  "source": "/*\n\n██████╗░██████╗░██╗███╗░░░███╗███████╗██████╗░░█████╗░░█████╗░\n██╔══██╗██╔══██╗██║████╗░████║██╔════╝██╔══██╗██╔══██╗██╔══██╗\n██████╔╝██████╔╝██║██╔████╔██║█████╗░░██║░░██║███████║██║░░██║\n██╔═══╝░██╔══██╗██║██║╚██╔╝██║██╔══╝░░██║░░██║██╔══██║██║░░██║\n██║░░░░░██║░░██║██║██║░╚═╝░██║███████╗██████╔╝██║░░██║╚█████╔╝\n╚═╝░░░░░╚═╝░░╚═╝╚═╝╚═╝░░░░░╚═╝╚══════╝╚═════╝░╚═╝░░╚═╝░╚════╝░\n\n*/\n\n// SPDX-License-Identifier: GPL-3.0-or-later\n\npragma solidity >=0.5.13;\n\nimport \"./TokenVesting.sol\";\n\ncontract VestingFactory {\n\n    event VestingCreated(address vestingContractAddress);\n\n    function create(\n    \taddress owner,\n    \taddress beneficiary,\n    \tuint256 start, uint256 cliffDuration,\n    \tuint256 duration,\n    \tbool revocable\n    )\n    public\n    returns(address)\n    {\n        require(owner != address(0), \"VestingFactory: owner is the zero address\");\n        TokenVesting newVestingContract = new TokenVesting(beneficiary, start, cliffDuration, duration, revocable);\n        newVestingContract.transferOwnership(owner);\n        emit VestingCreated(address(newVestingContract));\n        return address(newVestingContract);\n    }\n}",
  "sourcePath": "/home/tengree/Projects/primedao/contracts/contracts/vesting/VestingFactory.sol",
  "compiler": {
    "name": "solc",
    "version": "0.5.13+commit.5b0b510c.Emscripten.clang"
  },
  "schemaVersion": "3.3.3",
  "updatedAt": "2021-04-12T13:19:08.301Z",
  "devdoc": {
    "methods": {}
  },
  "userdoc": {
    "methods": {}
  }
}